{
	"contracts/Lottery.sol": {
		"Lottery": {
			"abi": [
				{
					"inputs": [],
					"stateMutability": "nonpayable",
					"type": "constructor"
				},
				{
					"inputs": [
						{
							"internalType": "uint256",
							"name": "",
							"type": "uint256"
						}
					],
					"name": "donors",
					"outputs": [
						{
							"internalType": "address",
							"name": "",
							"type": "address"
						}
					],
					"stateMutability": "view",
					"type": "function"
				},
				{
					"inputs": [
						{
							"internalType": "address[]",
							"name": "_donators",
							"type": "address[]"
						},
						{
							"internalType": "bytes32",
							"name": "_sealedSeed",
							"type": "bytes32"
						}
					],
					"name": "enterLottery",
					"outputs": [
						{
							"internalType": "bool",
							"name": "",
							"type": "bool"
						}
					],
					"stateMutability": "nonpayable",
					"type": "function"
				},
				{
					"inputs": [
						{
							"internalType": "bytes32",
							"name": "_seed",
							"type": "bytes32"
						}
					],
					"name": "getWinner",
					"outputs": [
						{
							"internalType": "address",
							"name": "",
							"type": "address"
						}
					],
					"stateMutability": "nonpayable",
					"type": "function"
				},
				{
					"inputs": [],
					"name": "managerpool",
					"outputs": [
						{
							"internalType": "address",
							"name": "",
							"type": "address"
						}
					],
					"stateMutability": "view",
					"type": "function"
				},
				{
					"inputs": [
						{
							"internalType": "bytes32",
							"name": "_seed",
							"type": "bytes32"
						}
					],
					"name": "reveal",
					"outputs": [
						{
							"internalType": "uint256",
							"name": "",
							"type": "uint256"
						}
					],
					"stateMutability": "nonpayable",
					"type": "function"
				},
				{
					"inputs": [
						{
							"internalType": "bytes32",
							"name": "_sealedSeed",
							"type": "bytes32"
						}
					],
					"name": "setSealedSeed",
					"outputs": [],
					"stateMutability": "nonpayable",
					"type": "function"
				},
				{
					"inputs": [
						{
							"internalType": "bytes",
							"name": "_test",
							"type": "bytes"
						}
					],
					"name": "test",
					"outputs": [],
					"stateMutability": "nonpayable",
					"type": "function"
				}
			],
			"devdoc": {
				"kind": "dev",
				"methods": {},
				"version": 1
			},
			"evm": {
				"assembly": "    /* \"contracts/Lottery.sol\":92:1803  contract Lottery is ILottery{... */\n  mstore(0x40, 0x80)\n    /* \"contracts/Lottery.sol\":342:460  constructor(){... */\n  callvalue\n  dup1\n  iszero\n  tag_1\n  jumpi\n  0x00\n  dup1\n  revert\ntag_1:\n  pop\n    /* \"contracts/Lottery.sol\":380:390  msg.sender */\n  caller\n    /* \"contracts/Lottery.sol\":366:377  managerpool */\n  0x00\n  dup1\n    /* \"contracts/Lottery.sol\":366:390  managerpool = msg.sender */\n  0x0100\n  exp\n  dup2\n  sload\n  dup2\n  0xffffffffffffffffffffffffffffffffffffffff\n  mul\n  not\n  and\n  swap1\n  dup4\n  0xffffffffffffffffffffffffffffffffffffffff\n  and\n  mul\n  or\n  swap1\n  sstore\n  pop\n    /* \"contracts/Lottery.sol\":412:417  false */\n  0x00\n    /* \"contracts/Lottery.sol\":402:409  seedSet */\n  0x03\n  0x00\n    /* \"contracts/Lottery.sol\":402:417  seedSet = false */\n  0x0100\n  exp\n  dup2\n  sload\n  dup2\n  0xff\n  mul\n  not\n  and\n  swap1\n  dup4\n  iszero\n  iszero\n  mul\n  or\n  swap1\n  sstore\n  pop\n    /* \"contracts/Lottery.sol\":446:451  false */\n  0x00\n    /* \"contracts/Lottery.sol\":428:443  donationsClosed */\n  0x03\n  0x01\n    /* \"contracts/Lottery.sol\":428:451  donationsClosed = false */\n  0x0100\n  exp\n  dup2\n  sload\n  dup2\n  0xff\n  mul\n  not\n  and\n  swap1\n  dup4\n  iszero\n  iszero\n  mul\n  or\n  swap1\n  sstore\n  pop\n    /* \"contracts/Lottery.sol\":92:1803  contract Lottery is ILottery{... */\n  dataSize(sub_0)\n  dup1\n  dataOffset(sub_0)\n  0x00\n  codecopy\n  0x00\n  return\nstop\n\nsub_0: assembly {\n        /* \"contracts/Lottery.sol\":92:1803  contract Lottery is ILottery{... */\n      mstore(0x40, 0x80)\n      callvalue\n      dup1\n      iszero\n      tag_1\n      jumpi\n      0x00\n      dup1\n      revert\n    tag_1:\n      pop\n      jumpi(tag_2, lt(calldatasize, 0x04))\n      shr(0xe0, calldataload(0x00))\n      dup1\n      0x4abfa163\n      gt\n      tag_10\n      jumpi\n      dup1\n      0x4abfa163\n      eq\n      tag_6\n      jumpi\n      dup1\n      0x5c6b143c\n      eq\n      tag_7\n      jumpi\n      dup1\n      0x701fd0f1\n      eq\n      tag_8\n      jumpi\n      dup1\n      0xdedfe223\n      eq\n      tag_9\n      jumpi\n      jump(tag_2)\n    tag_10:\n      dup1\n      0x1e5f9149\n      eq\n      tag_3\n      jumpi\n      dup1\n      0x2f570a23\n      eq\n      tag_4\n      jumpi\n      dup1\n      0x41114538\n      eq\n      tag_5\n      jumpi\n    tag_2:\n      0x00\n      dup1\n      revert\n        /* \"contracts/Lottery.sol\":671:858  function getWinner(bytes32 _seed) external returns(address){... */\n    tag_3:\n      tag_11\n      0x04\n      dup1\n      calldatasize\n      sub\n      dup2\n      add\n      swap1\n      tag_12\n      swap2\n      swap1\n      tag_13\n      jump\t// in\n    tag_12:\n      tag_14\n      jump\t// in\n    tag_11:\n      mload(0x40)\n      tag_15\n      swap2\n      swap1\n      tag_16\n      jump\t// in\n    tag_15:\n      mload(0x40)\n      dup1\n      swap2\n      sub\n      swap1\n      return\n        /* \"contracts/Lottery.sol\":1719:1798  function test(bytes memory _test) public {... */\n    tag_4:\n      tag_17\n      0x04\n      dup1\n      calldatasize\n      sub\n      dup2\n      add\n      swap1\n      tag_18\n      swap2\n      swap1\n      tag_19\n      jump\t// in\n    tag_18:\n      tag_20\n      jump\t// in\n    tag_17:\n      stop\n        /* \"contracts/Lottery.sol\":866:1212  function setSealedSeed(bytes32 _sealedSeed) public {... */\n    tag_5:\n      tag_21\n      0x04\n      dup1\n      calldatasize\n      sub\n      dup2\n      add\n      swap1\n      tag_22\n      swap2\n      swap1\n      tag_13\n      jump\t// in\n    tag_22:\n      tag_23\n      jump\t// in\n    tag_21:\n      stop\n        /* \"contracts/Lottery.sol\":161:184  address[] public donors */\n    tag_6:\n      tag_24\n      0x04\n      dup1\n      calldatasize\n      sub\n      dup2\n      add\n      swap1\n      tag_25\n      swap2\n      swap1\n      tag_26\n      jump\t// in\n    tag_25:\n      tag_27\n      jump\t// in\n    tag_24:\n      mload(0x40)\n      tag_28\n      swap2\n      swap1\n      tag_16\n      jump\t// in\n    tag_28:\n      mload(0x40)\n      dup1\n      swap2\n      sub\n      swap1\n      return\n        /* \"contracts/Lottery.sol\":470:663  function enterLottery(address[] memory _donators, bytes32 _sealedSeed) external returns (bool){... */\n    tag_7:\n      tag_29\n      0x04\n      dup1\n      calldatasize\n      sub\n      dup2\n      add\n      swap1\n      tag_30\n      swap2\n      swap1\n      tag_31\n      jump\t// in\n    tag_30:\n      tag_32\n      jump\t// in\n    tag_29:\n      mload(0x40)\n      tag_33\n      swap2\n      swap1\n      tag_34\n      jump\t// in\n    tag_33:\n      mload(0x40)\n      dup1\n      swap2\n      sub\n      swap1\n      return\n        /* \"contracts/Lottery.sol\":1220:1713  function reveal(bytes32 _seed) public returns (uint){... */\n    tag_8:\n      tag_35\n      0x04\n      dup1\n      calldatasize\n      sub\n      dup2\n      add\n      swap1\n      tag_36\n      swap2\n      swap1\n      tag_13\n      jump\t// in\n    tag_36:\n      tag_37\n      jump\t// in\n    tag_35:\n      mload(0x40)\n      tag_38\n      swap2\n      swap1\n      tag_39\n      jump\t// in\n    tag_38:\n      mload(0x40)\n      dup1\n      swap2\n      sub\n      swap1\n      return\n        /* \"contracts/Lottery.sol\":127:153  address public managerpool */\n    tag_9:\n      tag_40\n      tag_41\n      jump\t// in\n    tag_40:\n      mload(0x40)\n      tag_42\n      swap2\n      swap1\n      tag_16\n      jump\t// in\n    tag_42:\n      mload(0x40)\n      dup1\n      swap2\n      sub\n      swap1\n      return\n        /* \"contracts/Lottery.sol\":671:858  function getWinner(bytes32 _seed) external returns(address){... */\n    tag_14:\n        /* \"contracts/Lottery.sol\":722:729  address */\n      0x00\n        /* \"contracts/Lottery.sol\":741:752  uint random */\n      dup1\n        /* \"contracts/Lottery.sol\":755:768  reveal(_seed) */\n      tag_44\n        /* \"contracts/Lottery.sol\":762:767  _seed */\n      dup4\n        /* \"contracts/Lottery.sol\":755:761  reveal */\n      tag_37\n        /* \"contracts/Lottery.sol\":755:768  reveal(_seed) */\n      jump\t// in\n    tag_44:\n        /* \"contracts/Lottery.sol\":741:768  uint random = reveal(_seed) */\n      swap1\n      pop\n        /* \"contracts/Lottery.sol\":787:797  msg.sender */\n      caller\n        /* \"contracts/Lottery.sol\":780:797  return msg.sender */\n      swap2\n      pop\n      pop\n        /* \"contracts/Lottery.sol\":671:858  function getWinner(bytes32 _seed) external returns(address){... */\n      swap2\n      swap1\n      pop\n      jump\t// out\n        /* \"contracts/Lottery.sol\":1719:1798  function test(bytes memory _test) public {... */\n    tag_20:\n        /* \"contracts/Lottery.sol\":1784:1789  _test */\n      dup1\n        /* \"contracts/Lottery.sol\":1771:1781  sealedSeed */\n      0x02\n        /* \"contracts/Lottery.sol\":1771:1789  sealedSeed = _test */\n      swap1\n      dup1\n      mload\n      swap1\n      0x20\n      add\n      swap1\n      tag_46\n      swap3\n      swap2\n      swap1\n      tag_47\n      jump\t// in\n    tag_46:\n      pop\n        /* \"contracts/Lottery.sol\":1719:1798  function test(bytes memory _test) public {... */\n      pop\n      jump\t// out\n        /* \"contracts/Lottery.sol\":866:1212  function setSealedSeed(bytes32 _sealedSeed) public {... */\n    tag_23:\n        /* \"contracts/Lottery.sol\":938:945  seedSet */\n      0x03\n      0x00\n      swap1\n      sload\n      swap1\n      0x0100\n      exp\n      swap1\n      div\n      0xff\n      and\n        /* \"contracts/Lottery.sol\":937:945  !seedSet */\n      iszero\n        /* \"contracts/Lottery.sol\":928:969  require (!seedSet, \"seed is already set\") */\n      tag_49\n      jumpi\n      mload(0x40)\n      0x08c379a000000000000000000000000000000000000000000000000000000000\n      dup2\n      mstore\n      0x04\n      add\n      tag_50\n      swap1\n      tag_51\n      jump\t// in\n    tag_50:\n      mload(0x40)\n      dup1\n      swap2\n      sub\n      swap1\n      revert\n    tag_49:\n        /* \"contracts/Lottery.sol\":1003:1014  managerpool */\n      0x00\n      dup1\n      sload\n      swap1\n      0x0100\n      exp\n      swap1\n      div\n      0xffffffffffffffffffffffffffffffffffffffff\n      and\n        /* \"contracts/Lottery.sol\":989:1014  msg.sender == managerpool */\n      0xffffffffffffffffffffffffffffffffffffffff\n      and\n        /* \"contracts/Lottery.sol\":989:999  msg.sender */\n      caller\n        /* \"contracts/Lottery.sol\":989:1014  msg.sender == managerpool */\n      0xffffffffffffffffffffffffffffffffffffffff\n      and\n      eq\n        /* \"contracts/Lottery.sol\":980:1058  require (msg.sender == managerpool, \"only managerpool can call this function\") */\n      tag_52\n      jumpi\n      mload(0x40)\n      0x08c379a000000000000000000000000000000000000000000000000000000000\n      dup2\n      mstore\n      0x04\n      add\n      tag_53\n      swap1\n      tag_54\n      jump\t// in\n    tag_53:\n      mload(0x40)\n      dup1\n      swap2\n      sub\n      swap1\n      revert\n    tag_52:\n        /* \"contracts/Lottery.sol\":1087:1091  true */\n      0x01\n        /* \"contracts/Lottery.sol\":1069:1084  donationsClosed */\n      0x03\n      0x01\n        /* \"contracts/Lottery.sol\":1069:1091  donationsClosed = true */\n      0x0100\n      exp\n      dup2\n      sload\n      dup2\n      0xff\n      mul\n      not\n      and\n      swap1\n      dup4\n      iszero\n      iszero\n      mul\n      or\n      swap1\n      sstore\n      pop\n        /* \"contracts/Lottery.sol\":1176:1177  1 */\n      0x01\n        /* \"contracts/Lottery.sol\":1161:1173  block.number */\n      number\n        /* \"contracts/Lottery.sol\":1161:1177  block.number + 1 */\n      tag_55\n      swap2\n      swap1\n      tag_56\n      jump\t// in\n    tag_55:\n        /* \"contracts/Lottery.sol\":1141:1158  storedBlockNumber */\n      0x04\n        /* \"contracts/Lottery.sol\":1141:1177  storedBlockNumber = block.number + 1 */\n      dup2\n      swap1\n      sstore\n      pop\n        /* \"contracts/Lottery.sol\":1199:1203  true */\n      0x01\n        /* \"contracts/Lottery.sol\":1189:1196  seedSet */\n      0x03\n      0x00\n        /* \"contracts/Lottery.sol\":1189:1203  seedSet = true */\n      0x0100\n      exp\n      dup2\n      sload\n      dup2\n      0xff\n      mul\n      not\n      and\n      swap1\n      dup4\n      iszero\n      iszero\n      mul\n      or\n      swap1\n      sstore\n      pop\n        /* \"contracts/Lottery.sol\":866:1212  function setSealedSeed(bytes32 _sealedSeed) public {... */\n      pop\n      jump\t// out\n        /* \"contracts/Lottery.sol\":161:184  address[] public donors */\n    tag_27:\n      0x01\n      dup2\n      dup2\n      sload\n      dup2\n      lt\n      tag_57\n      jumpi\n      0x00\n      dup1\n      revert\n    tag_57:\n      swap1\n      0x00\n      mstore\n      keccak256(0x00, 0x20)\n      add\n      0x00\n      swap2\n      pop\n      sload\n      swap1\n      0x0100\n      exp\n      swap1\n      div\n      0xffffffffffffffffffffffffffffffffffffffff\n      and\n      dup2\n      jump\t// out\n        /* \"contracts/Lottery.sol\":470:663  function enterLottery(address[] memory _donators, bytes32 _sealedSeed) external returns (bool){... */\n    tag_32:\n        /* \"contracts/Lottery.sol\":559:563  bool */\n      0x00\n        /* \"contracts/Lottery.sol\":584:593  _donators */\n      dup3\n        /* \"contracts/Lottery.sol\":575:581  donors */\n      0x01\n        /* \"contracts/Lottery.sol\":575:593  donors = _donators */\n      swap1\n      dup1\n      mload\n      swap1\n      0x20\n      add\n      swap1\n      tag_60\n      swap3\n      swap2\n      swap1\n      tag_61\n      jump\t// in\n    tag_60:\n      pop\n        /* \"contracts/Lottery.sol\":605:631  setSealedSeed(_sealedSeed) */\n      tag_62\n        /* \"contracts/Lottery.sol\":619:630  _sealedSeed */\n      dup3\n        /* \"contracts/Lottery.sol\":605:618  setSealedSeed */\n      tag_23\n        /* \"contracts/Lottery.sol\":605:631  setSealedSeed(_sealedSeed) */\n      jump\t// in\n    tag_62:\n        /* \"contracts/Lottery.sol\":650:654  true */\n      0x01\n        /* \"contracts/Lottery.sol\":643:654  return true */\n      swap1\n      pop\n        /* \"contracts/Lottery.sol\":470:663  function enterLottery(address[] memory _donators, bytes32 _sealedSeed) external returns (bool){... */\n      swap3\n      swap2\n      pop\n      pop\n      jump\t// out\n        /* \"contracts/Lottery.sol\":1220:1713  function reveal(bytes32 _seed) public returns (uint){... */\n    tag_37:\n        /* \"contracts/Lottery.sol\":1267:1271  uint */\n      0x00\n        /* \"contracts/Lottery.sol\":1291:1298  seedSet */\n      0x03\n      0x00\n      swap1\n      sload\n      swap1\n      0x0100\n      exp\n      swap1\n      div\n      0xff\n      and\n        /* \"contracts/Lottery.sol\":1283:1322  require(seedSet, \"seed is not yet set\") */\n      tag_64\n      jumpi\n      mload(0x40)\n      0x08c379a000000000000000000000000000000000000000000000000000000000\n      dup2\n      mstore\n      0x04\n      add\n      tag_65\n      swap1\n      tag_66\n      jump\t// in\n    tag_65:\n      mload(0x40)\n      dup1\n      swap2\n      sub\n      swap1\n      revert\n    tag_64:\n        /* \"contracts/Lottery.sol\":1342:1357  donationsClosed */\n      0x03\n      0x01\n      swap1\n      sload\n      swap1\n      0x0100\n      exp\n      swap1\n      div\n      0xff\n      and\n        /* \"contracts/Lottery.sol\":1334:1390  require(donationsClosed, \"donations are not closed yet\") */\n      tag_67\n      jumpi\n      mload(0x40)\n      0x08c379a000000000000000000000000000000000000000000000000000000000\n      dup2\n      mstore\n      0x04\n      add\n      tag_68\n      swap1\n      tag_69\n      jump\t// in\n    tag_68:\n      mload(0x40)\n      dup1\n      swap2\n      sub\n      swap1\n      revert\n    tag_67:\n        /* \"contracts/Lottery.sol\":1430:1442  block.number */\n      number\n        /* \"contracts/Lottery.sol\":1410:1427  storedBlockNumber */\n      sload(0x04)\n        /* \"contracts/Lottery.sol\":1410:1442  storedBlockNumber < block.number */\n      lt\n        /* \"contracts/Lottery.sol\":1402:1443  require(storedBlockNumber < block.number) */\n      tag_70\n      jumpi\n      0x00\n      dup1\n      revert\n    tag_70:\n        /* \"contracts/Lottery.sol\":1531:1542  uint random */\n      0x00\n        /* \"contracts/Lottery.sol\":1577:1582  _seed */\n      dup3\n        /* \"contracts/Lottery.sol\":1594:1611  storedBlockNumber */\n      sload(0x04)\n        /* \"contracts/Lottery.sol\":1584:1612  blockhash(storedBlockNumber) */\n      blockhash\n        /* \"contracts/Lottery.sol\":1560:1613  abi.encodePacked(_seed, blockhash(storedBlockNumber)) */\n      add(0x20, mload(0x40))\n      tag_71\n      swap3\n      swap2\n      swap1\n      tag_72\n      jump\t// in\n    tag_71:\n      mload(0x40)\n      0x20\n      dup2\n      dup4\n      sub\n      sub\n      dup2\n      mstore\n      swap1\n      0x40\n      mstore\n        /* \"contracts/Lottery.sol\":1550:1614  keccak256(abi.encodePacked(_seed, blockhash(storedBlockNumber))) */\n      dup1\n      mload\n      swap1\n      0x20\n      add\n      keccak256\n        /* \"contracts/Lottery.sol\":1545:1615  uint(keccak256(abi.encodePacked(_seed, blockhash(storedBlockNumber)))) */\n      0x00\n      shr\n        /* \"contracts/Lottery.sol\":1531:1615  uint random = uint(keccak256(abi.encodePacked(_seed, blockhash(storedBlockNumber)))) */\n      swap1\n      pop\n        /* \"contracts/Lottery.sol\":1698:1704  random */\n      dup1\n        /* \"contracts/Lottery.sol\":1691:1704  return random */\n      swap2\n      pop\n      pop\n        /* \"contracts/Lottery.sol\":1220:1713  function reveal(bytes32 _seed) public returns (uint){... */\n      swap2\n      swap1\n      pop\n      jump\t// out\n        /* \"contracts/Lottery.sol\":127:153  address public managerpool */\n    tag_41:\n      0x00\n      dup1\n      sload\n      swap1\n      0x0100\n      exp\n      swap1\n      div\n      0xffffffffffffffffffffffffffffffffffffffff\n      and\n      dup2\n      jump\t// out\n    tag_47:\n      dup3\n      dup1\n      sload\n      tag_73\n      swap1\n      tag_74\n      jump\t// in\n    tag_73:\n      swap1\n      0x00\n      mstore\n      keccak256(0x00, 0x20)\n      swap1\n      0x1f\n      add\n      0x20\n      swap1\n      div\n      dup2\n      add\n      swap3\n      dup3\n      tag_76\n      jumpi\n      0x00\n      dup6\n      sstore\n      jump(tag_75)\n    tag_76:\n      dup3\n      0x1f\n      lt\n      tag_77\n      jumpi\n      dup1\n      mload\n      not(0xff)\n      and\n      dup4\n      dup1\n      add\n      or\n      dup6\n      sstore\n      jump(tag_75)\n    tag_77:\n      dup3\n      dup1\n      add\n      0x01\n      add\n      dup6\n      sstore\n      dup3\n      iszero\n      tag_75\n      jumpi\n      swap2\n      dup3\n      add\n    tag_78:\n      dup3\n      dup2\n      gt\n      iszero\n      tag_79\n      jumpi\n      dup3\n      mload\n      dup3\n      sstore\n      swap2\n      0x20\n      add\n      swap2\n      swap1\n      0x01\n      add\n      swap1\n      jump(tag_78)\n    tag_79:\n    tag_75:\n      pop\n      swap1\n      pop\n      tag_80\n      swap2\n      swap1\n      tag_81\n      jump\t// in\n    tag_80:\n      pop\n      swap1\n      jump\t// out\n    tag_61:\n      dup3\n      dup1\n      sload\n      dup3\n      dup3\n      sstore\n      swap1\n      0x00\n      mstore\n      keccak256(0x00, 0x20)\n      swap1\n      dup2\n      add\n      swap3\n      dup3\n      iszero\n      tag_82\n      jumpi\n      swap2\n      0x20\n      mul\n      dup3\n      add\n    tag_83:\n      dup3\n      dup2\n      gt\n      iszero\n      tag_84\n      jumpi\n      dup3\n      mload\n      dup3\n      exp(0x0100, 0x00)\n      dup2\n      sload\n      dup2\n      0xffffffffffffffffffffffffffffffffffffffff\n      mul\n      not\n      and\n      swap1\n      dup4\n      0xffffffffffffffffffffffffffffffffffffffff\n      and\n      mul\n      or\n      swap1\n      sstore\n      pop\n      swap2\n      0x20\n      add\n      swap2\n      swap1\n      0x01\n      add\n      swap1\n      jump(tag_83)\n    tag_84:\n    tag_82:\n      pop\n      swap1\n      pop\n      tag_85\n      swap2\n      swap1\n      tag_81\n      jump\t// in\n    tag_85:\n      pop\n      swap1\n      jump\t// out\n    tag_81:\n    tag_86:\n      dup1\n      dup3\n      gt\n      iszero\n      tag_87\n      jumpi\n      0x00\n      dup2\n      0x00\n      swap1\n      sstore\n      pop\n      0x01\n      add\n      jump(tag_86)\n    tag_87:\n      pop\n      swap1\n      jump\t// out\n        /* \"#utility.yul\":7:82   */\n    tag_88:\n        /* \"#utility.yul\":40:46   */\n      0x00\n        /* \"#utility.yul\":73:75   */\n      0x40\n        /* \"#utility.yul\":67:76   */\n      mload\n        /* \"#utility.yul\":57:76   */\n      swap1\n      pop\n        /* \"#utility.yul\":7:82   */\n      swap1\n      jump\t// out\n        /* \"#utility.yul\":88:205   */\n    tag_89:\n        /* \"#utility.yul\":197:198   */\n      0x00\n        /* \"#utility.yul\":194:195   */\n      dup1\n        /* \"#utility.yul\":187:199   */\n      revert\n        /* \"#utility.yul\":211:328   */\n    tag_90:\n        /* \"#utility.yul\":320:321   */\n      0x00\n        /* \"#utility.yul\":317:318   */\n      dup1\n        /* \"#utility.yul\":310:322   */\n      revert\n        /* \"#utility.yul\":334:411   */\n    tag_91:\n        /* \"#utility.yul\":371:378   */\n      0x00\n        /* \"#utility.yul\":400:405   */\n      dup2\n        /* \"#utility.yul\":389:405   */\n      swap1\n      pop\n        /* \"#utility.yul\":334:411   */\n      swap2\n      swap1\n      pop\n      jump\t// out\n        /* \"#utility.yul\":417:539   */\n    tag_92:\n        /* \"#utility.yul\":490:514   */\n      tag_138\n        /* \"#utility.yul\":508:513   */\n      dup2\n        /* \"#utility.yul\":490:514   */\n      tag_91\n      jump\t// in\n    tag_138:\n        /* \"#utility.yul\":483:488   */\n      dup2\n        /* \"#utility.yul\":480:515   */\n      eq\n        /* \"#utility.yul\":470:533   */\n      tag_139\n      jumpi\n        /* \"#utility.yul\":529:530   */\n      0x00\n        /* \"#utility.yul\":526:527   */\n      dup1\n        /* \"#utility.yul\":519:531   */\n      revert\n        /* \"#utility.yul\":470:533   */\n    tag_139:\n        /* \"#utility.yul\":417:539   */\n      pop\n      jump\t// out\n        /* \"#utility.yul\":545:684   */\n    tag_93:\n        /* \"#utility.yul\":591:596   */\n      0x00\n        /* \"#utility.yul\":629:635   */\n      dup2\n        /* \"#utility.yul\":616:636   */\n      calldataload\n        /* \"#utility.yul\":607:636   */\n      swap1\n      pop\n        /* \"#utility.yul\":645:678   */\n      tag_141\n        /* \"#utility.yul\":672:677   */\n      dup2\n        /* \"#utility.yul\":645:678   */\n      tag_92\n      jump\t// in\n    tag_141:\n        /* \"#utility.yul\":545:684   */\n      swap3\n      swap2\n      pop\n      pop\n      jump\t// out\n        /* \"#utility.yul\":690:1019   */\n    tag_13:\n        /* \"#utility.yul\":749:755   */\n      0x00\n        /* \"#utility.yul\":798:800   */\n      0x20\n        /* \"#utility.yul\":786:795   */\n      dup3\n        /* \"#utility.yul\":777:784   */\n      dup5\n        /* \"#utility.yul\":773:796   */\n      sub\n        /* \"#utility.yul\":769:801   */\n      slt\n        /* \"#utility.yul\":766:885   */\n      iszero\n      tag_143\n      jumpi\n        /* \"#utility.yul\":804:883   */\n      tag_144\n      tag_89\n      jump\t// in\n    tag_144:\n        /* \"#utility.yul\":766:885   */\n    tag_143:\n        /* \"#utility.yul\":924:925   */\n      0x00\n        /* \"#utility.yul\":949:1002   */\n      tag_145\n        /* \"#utility.yul\":994:1001   */\n      dup5\n        /* \"#utility.yul\":985:991   */\n      dup3\n        /* \"#utility.yul\":974:983   */\n      dup6\n        /* \"#utility.yul\":970:992   */\n      add\n        /* \"#utility.yul\":949:1002   */\n      tag_93\n      jump\t// in\n    tag_145:\n        /* \"#utility.yul\":939:1002   */\n      swap2\n      pop\n        /* \"#utility.yul\":895:1012   */\n      pop\n        /* \"#utility.yul\":690:1019   */\n      swap3\n      swap2\n      pop\n      pop\n      jump\t// out\n        /* \"#utility.yul\":1025:1151   */\n    tag_94:\n        /* \"#utility.yul\":1062:1069   */\n      0x00\n        /* \"#utility.yul\":1102:1144   */\n      0xffffffffffffffffffffffffffffffffffffffff\n        /* \"#utility.yul\":1095:1100   */\n      dup3\n        /* \"#utility.yul\":1091:1145   */\n      and\n        /* \"#utility.yul\":1080:1145   */\n      swap1\n      pop\n        /* \"#utility.yul\":1025:1151   */\n      swap2\n      swap1\n      pop\n      jump\t// out\n        /* \"#utility.yul\":1157:1253   */\n    tag_95:\n        /* \"#utility.yul\":1194:1201   */\n      0x00\n        /* \"#utility.yul\":1223:1247   */\n      tag_148\n        /* \"#utility.yul\":1241:1246   */\n      dup3\n        /* \"#utility.yul\":1223:1247   */\n      tag_94\n      jump\t// in\n    tag_148:\n        /* \"#utility.yul\":1212:1247   */\n      swap1\n      pop\n        /* \"#utility.yul\":1157:1253   */\n      swap2\n      swap1\n      pop\n      jump\t// out\n        /* \"#utility.yul\":1259:1377   */\n    tag_96:\n        /* \"#utility.yul\":1346:1370   */\n      tag_150\n        /* \"#utility.yul\":1364:1369   */\n      dup2\n        /* \"#utility.yul\":1346:1370   */\n      tag_95\n      jump\t// in\n    tag_150:\n        /* \"#utility.yul\":1341:1344   */\n      dup3\n        /* \"#utility.yul\":1334:1371   */\n      mstore\n        /* \"#utility.yul\":1259:1377   */\n      pop\n      pop\n      jump\t// out\n        /* \"#utility.yul\":1383:1605   */\n    tag_16:\n        /* \"#utility.yul\":1476:1480   */\n      0x00\n        /* \"#utility.yul\":1514:1516   */\n      0x20\n        /* \"#utility.yul\":1503:1512   */\n      dup3\n        /* \"#utility.yul\":1499:1517   */\n      add\n        /* \"#utility.yul\":1491:1517   */\n      swap1\n      pop\n        /* \"#utility.yul\":1527:1598   */\n      tag_152\n        /* \"#utility.yul\":1595:1596   */\n      0x00\n        /* \"#utility.yul\":1584:1593   */\n      dup4\n        /* \"#utility.yul\":1580:1597   */\n      add\n        /* \"#utility.yul\":1571:1577   */\n      dup5\n        /* \"#utility.yul\":1527:1598   */\n      tag_96\n      jump\t// in\n    tag_152:\n        /* \"#utility.yul\":1383:1605   */\n      swap3\n      swap2\n      pop\n      pop\n      jump\t// out\n        /* \"#utility.yul\":1611:1728   */\n    tag_97:\n        /* \"#utility.yul\":1720:1721   */\n      0x00\n        /* \"#utility.yul\":1717:1718   */\n      dup1\n        /* \"#utility.yul\":1710:1722   */\n      revert\n        /* \"#utility.yul\":1734:1851   */\n    tag_98:\n        /* \"#utility.yul\":1843:1844   */\n      0x00\n        /* \"#utility.yul\":1840:1841   */\n      dup1\n        /* \"#utility.yul\":1833:1845   */\n      revert\n        /* \"#utility.yul\":1857:1959   */\n    tag_99:\n        /* \"#utility.yul\":1898:1904   */\n      0x00\n        /* \"#utility.yul\":1949:1951   */\n      0x1f\n        /* \"#utility.yul\":1945:1952   */\n      not\n        /* \"#utility.yul\":1940:1942   */\n      0x1f\n        /* \"#utility.yul\":1933:1938   */\n      dup4\n        /* \"#utility.yul\":1929:1943   */\n      add\n        /* \"#utility.yul\":1925:1953   */\n      and\n        /* \"#utility.yul\":1915:1953   */\n      swap1\n      pop\n        /* \"#utility.yul\":1857:1959   */\n      swap2\n      swap1\n      pop\n      jump\t// out\n        /* \"#utility.yul\":1965:2145   */\n    tag_100:\n        /* \"#utility.yul\":2013:2090   */\n      0x4e487b7100000000000000000000000000000000000000000000000000000000\n        /* \"#utility.yul\":2010:2011   */\n      0x00\n        /* \"#utility.yul\":2003:2091   */\n      mstore\n        /* \"#utility.yul\":2110:2114   */\n      0x41\n        /* \"#utility.yul\":2107:2108   */\n      0x04\n        /* \"#utility.yul\":2100:2115   */\n      mstore\n        /* \"#utility.yul\":2134:2138   */\n      0x24\n        /* \"#utility.yul\":2131:2132   */\n      0x00\n        /* \"#utility.yul\":2124:2139   */\n      revert\n        /* \"#utility.yul\":2151:2432   */\n    tag_101:\n        /* \"#utility.yul\":2234:2261   */\n      tag_158\n        /* \"#utility.yul\":2256:2260   */\n      dup3\n        /* \"#utility.yul\":2234:2261   */\n      tag_99\n      jump\t// in\n    tag_158:\n        /* \"#utility.yul\":2226:2232   */\n      dup2\n        /* \"#utility.yul\":2222:2262   */\n      add\n        /* \"#utility.yul\":2364:2370   */\n      dup2\n        /* \"#utility.yul\":2352:2362   */\n      dup2\n        /* \"#utility.yul\":2349:2371   */\n      lt\n        /* \"#utility.yul\":2328:2346   */\n      0xffffffffffffffff\n        /* \"#utility.yul\":2316:2326   */\n      dup3\n        /* \"#utility.yul\":2313:2347   */\n      gt\n        /* \"#utility.yul\":2310:2372   */\n      or\n        /* \"#utility.yul\":2307:2395   */\n      iszero\n      tag_159\n      jumpi\n        /* \"#utility.yul\":2375:2393   */\n      tag_160\n      tag_100\n      jump\t// in\n    tag_160:\n        /* \"#utility.yul\":2307:2395   */\n    tag_159:\n        /* \"#utility.yul\":2415:2425   */\n      dup1\n        /* \"#utility.yul\":2411:2413   */\n      0x40\n        /* \"#utility.yul\":2404:2426   */\n      mstore\n        /* \"#utility.yul\":2194:2432   */\n      pop\n        /* \"#utility.yul\":2151:2432   */\n      pop\n      pop\n      jump\t// out\n        /* \"#utility.yul\":2438:2567   */\n    tag_102:\n        /* \"#utility.yul\":2472:2478   */\n      0x00\n        /* \"#utility.yul\":2499:2519   */\n      tag_162\n      tag_88\n      jump\t// in\n    tag_162:\n        /* \"#utility.yul\":2489:2519   */\n      swap1\n      pop\n        /* \"#utility.yul\":2528:2561   */\n      tag_163\n        /* \"#utility.yul\":2556:2560   */\n      dup3\n        /* \"#utility.yul\":2548:2554   */\n      dup3\n        /* \"#utility.yul\":2528:2561   */\n      tag_101\n      jump\t// in\n    tag_163:\n        /* \"#utility.yul\":2438:2567   */\n      swap2\n      swap1\n      pop\n      jump\t// out\n        /* \"#utility.yul\":2573:2880   */\n    tag_103:\n        /* \"#utility.yul\":2634:2638   */\n      0x00\n        /* \"#utility.yul\":2724:2742   */\n      0xffffffffffffffff\n        /* \"#utility.yul\":2716:2722   */\n      dup3\n        /* \"#utility.yul\":2713:2743   */\n      gt\n        /* \"#utility.yul\":2710:2766   */\n      iszero\n      tag_165\n      jumpi\n        /* \"#utility.yul\":2746:2764   */\n      tag_166\n      tag_100\n      jump\t// in\n    tag_166:\n        /* \"#utility.yul\":2710:2766   */\n    tag_165:\n        /* \"#utility.yul\":2784:2813   */\n      tag_167\n        /* \"#utility.yul\":2806:2812   */\n      dup3\n        /* \"#utility.yul\":2784:2813   */\n      tag_99\n      jump\t// in\n    tag_167:\n        /* \"#utility.yul\":2776:2813   */\n      swap1\n      pop\n        /* \"#utility.yul\":2868:2872   */\n      0x20\n        /* \"#utility.yul\":2862:2866   */\n      dup2\n        /* \"#utility.yul\":2858:2873   */\n      add\n        /* \"#utility.yul\":2850:2873   */\n      swap1\n      pop\n        /* \"#utility.yul\":2573:2880   */\n      swap2\n      swap1\n      pop\n      jump\t// out\n        /* \"#utility.yul\":2886:3040   */\n    tag_104:\n        /* \"#utility.yul\":2970:2976   */\n      dup3\n        /* \"#utility.yul\":2965:2968   */\n      dup2\n        /* \"#utility.yul\":2960:2963   */\n      dup4\n        /* \"#utility.yul\":2947:2977   */\n      calldatacopy\n        /* \"#utility.yul\":3032:3033   */\n      0x00\n        /* \"#utility.yul\":3023:3029   */\n      dup4\n        /* \"#utility.yul\":3018:3021   */\n      dup4\n        /* \"#utility.yul\":3014:3030   */\n      add\n        /* \"#utility.yul\":3007:3034   */\n      mstore\n        /* \"#utility.yul\":2886:3040   */\n      pop\n      pop\n      pop\n      jump\t// out\n        /* \"#utility.yul\":3046:3456   */\n    tag_105:\n        /* \"#utility.yul\":3123:3128   */\n      0x00\n        /* \"#utility.yul\":3148:3213   */\n      tag_170\n        /* \"#utility.yul\":3164:3212   */\n      tag_171\n        /* \"#utility.yul\":3205:3211   */\n      dup5\n        /* \"#utility.yul\":3164:3212   */\n      tag_103\n      jump\t// in\n    tag_171:\n        /* \"#utility.yul\":3148:3213   */\n      tag_102\n      jump\t// in\n    tag_170:\n        /* \"#utility.yul\":3139:3213   */\n      swap1\n      pop\n        /* \"#utility.yul\":3236:3242   */\n      dup3\n        /* \"#utility.yul\":3229:3234   */\n      dup2\n        /* \"#utility.yul\":3222:3243   */\n      mstore\n        /* \"#utility.yul\":3274:3278   */\n      0x20\n        /* \"#utility.yul\":3267:3272   */\n      dup2\n        /* \"#utility.yul\":3263:3279   */\n      add\n        /* \"#utility.yul\":3312:3315   */\n      dup5\n        /* \"#utility.yul\":3303:3309   */\n      dup5\n        /* \"#utility.yul\":3298:3301   */\n      dup5\n        /* \"#utility.yul\":3294:3310   */\n      add\n        /* \"#utility.yul\":3291:3316   */\n      gt\n        /* \"#utility.yul\":3288:3400   */\n      iszero\n      tag_172\n      jumpi\n        /* \"#utility.yul\":3319:3398   */\n      tag_173\n      tag_98\n      jump\t// in\n    tag_173:\n        /* \"#utility.yul\":3288:3400   */\n    tag_172:\n        /* \"#utility.yul\":3409:3450   */\n      tag_174\n        /* \"#utility.yul\":3443:3449   */\n      dup5\n        /* \"#utility.yul\":3438:3441   */\n      dup3\n        /* \"#utility.yul\":3433:3436   */\n      dup6\n        /* \"#utility.yul\":3409:3450   */\n      tag_104\n      jump\t// in\n    tag_174:\n        /* \"#utility.yul\":3129:3456   */\n      pop\n        /* \"#utility.yul\":3046:3456   */\n      swap4\n      swap3\n      pop\n      pop\n      pop\n      jump\t// out\n        /* \"#utility.yul\":3475:3813   */\n    tag_106:\n        /* \"#utility.yul\":3530:3535   */\n      0x00\n        /* \"#utility.yul\":3579:3582   */\n      dup3\n        /* \"#utility.yul\":3572:3576   */\n      0x1f\n        /* \"#utility.yul\":3564:3570   */\n      dup4\n        /* \"#utility.yul\":3560:3577   */\n      add\n        /* \"#utility.yul\":3556:3583   */\n      slt\n        /* \"#utility.yul\":3546:3668   */\n      tag_176\n      jumpi\n        /* \"#utility.yul\":3587:3666   */\n      tag_177\n      tag_97\n      jump\t// in\n    tag_177:\n        /* \"#utility.yul\":3546:3668   */\n    tag_176:\n        /* \"#utility.yul\":3704:3710   */\n      dup2\n        /* \"#utility.yul\":3691:3711   */\n      calldataload\n        /* \"#utility.yul\":3729:3807   */\n      tag_178\n        /* \"#utility.yul\":3803:3806   */\n      dup5\n        /* \"#utility.yul\":3795:3801   */\n      dup3\n        /* \"#utility.yul\":3788:3792   */\n      0x20\n        /* \"#utility.yul\":3780:3786   */\n      dup7\n        /* \"#utility.yul\":3776:3793   */\n      add\n        /* \"#utility.yul\":3729:3807   */\n      tag_105\n      jump\t// in\n    tag_178:\n        /* \"#utility.yul\":3720:3807   */\n      swap2\n      pop\n        /* \"#utility.yul\":3536:3813   */\n      pop\n        /* \"#utility.yul\":3475:3813   */\n      swap3\n      swap2\n      pop\n      pop\n      jump\t// out\n        /* \"#utility.yul\":3819:4326   */\n    tag_19:\n        /* \"#utility.yul\":3887:3893   */\n      0x00\n        /* \"#utility.yul\":3936:3938   */\n      0x20\n        /* \"#utility.yul\":3924:3933   */\n      dup3\n        /* \"#utility.yul\":3915:3922   */\n      dup5\n        /* \"#utility.yul\":3911:3934   */\n      sub\n        /* \"#utility.yul\":3907:3939   */\n      slt\n        /* \"#utility.yul\":3904:4023   */\n      iszero\n      tag_180\n      jumpi\n        /* \"#utility.yul\":3942:4021   */\n      tag_181\n      tag_89\n      jump\t// in\n    tag_181:\n        /* \"#utility.yul\":3904:4023   */\n    tag_180:\n        /* \"#utility.yul\":4090:4091   */\n      0x00\n        /* \"#utility.yul\":4079:4088   */\n      dup3\n        /* \"#utility.yul\":4075:4092   */\n      add\n        /* \"#utility.yul\":4062:4093   */\n      calldataload\n        /* \"#utility.yul\":4120:4138   */\n      0xffffffffffffffff\n        /* \"#utility.yul\":4112:4118   */\n      dup2\n        /* \"#utility.yul\":4109:4139   */\n      gt\n        /* \"#utility.yul\":4106:4223   */\n      iszero\n      tag_182\n      jumpi\n        /* \"#utility.yul\":4142:4221   */\n      tag_183\n      tag_90\n      jump\t// in\n    tag_183:\n        /* \"#utility.yul\":4106:4223   */\n    tag_182:\n        /* \"#utility.yul\":4247:4309   */\n      tag_184\n        /* \"#utility.yul\":4301:4308   */\n      dup5\n        /* \"#utility.yul\":4292:4298   */\n      dup3\n        /* \"#utility.yul\":4281:4290   */\n      dup6\n        /* \"#utility.yul\":4277:4299   */\n      add\n        /* \"#utility.yul\":4247:4309   */\n      tag_106\n      jump\t// in\n    tag_184:\n        /* \"#utility.yul\":4237:4309   */\n      swap2\n      pop\n        /* \"#utility.yul\":4033:4319   */\n      pop\n        /* \"#utility.yul\":3819:4326   */\n      swap3\n      swap2\n      pop\n      pop\n      jump\t// out\n        /* \"#utility.yul\":4332:4409   */\n    tag_107:\n        /* \"#utility.yul\":4369:4376   */\n      0x00\n        /* \"#utility.yul\":4398:4403   */\n      dup2\n        /* \"#utility.yul\":4387:4403   */\n      swap1\n      pop\n        /* \"#utility.yul\":4332:4409   */\n      swap2\n      swap1\n      pop\n      jump\t// out\n        /* \"#utility.yul\":4415:4537   */\n    tag_108:\n        /* \"#utility.yul\":4488:4512   */\n      tag_187\n        /* \"#utility.yul\":4506:4511   */\n      dup2\n        /* \"#utility.yul\":4488:4512   */\n      tag_107\n      jump\t// in\n    tag_187:\n        /* \"#utility.yul\":4481:4486   */\n      dup2\n        /* \"#utility.yul\":4478:4513   */\n      eq\n        /* \"#utility.yul\":4468:4531   */\n      tag_188\n      jumpi\n        /* \"#utility.yul\":4527:4528   */\n      0x00\n        /* \"#utility.yul\":4524:4525   */\n      dup1\n        /* \"#utility.yul\":4517:4529   */\n      revert\n        /* \"#utility.yul\":4468:4531   */\n    tag_188:\n        /* \"#utility.yul\":4415:4537   */\n      pop\n      jump\t// out\n        /* \"#utility.yul\":4543:4682   */\n    tag_109:\n        /* \"#utility.yul\":4589:4594   */\n      0x00\n        /* \"#utility.yul\":4627:4633   */\n      dup2\n        /* \"#utility.yul\":4614:4634   */\n      calldataload\n        /* \"#utility.yul\":4605:4634   */\n      swap1\n      pop\n        /* \"#utility.yul\":4643:4676   */\n      tag_190\n        /* \"#utility.yul\":4670:4675   */\n      dup2\n        /* \"#utility.yul\":4643:4676   */\n      tag_108\n      jump\t// in\n    tag_190:\n        /* \"#utility.yul\":4543:4682   */\n      swap3\n      swap2\n      pop\n      pop\n      jump\t// out\n        /* \"#utility.yul\":4688:5017   */\n    tag_26:\n        /* \"#utility.yul\":4747:4753   */\n      0x00\n        /* \"#utility.yul\":4796:4798   */\n      0x20\n        /* \"#utility.yul\":4784:4793   */\n      dup3\n        /* \"#utility.yul\":4775:4782   */\n      dup5\n        /* \"#utility.yul\":4771:4794   */\n      sub\n        /* \"#utility.yul\":4767:4799   */\n      slt\n        /* \"#utility.yul\":4764:4883   */\n      iszero\n      tag_192\n      jumpi\n        /* \"#utility.yul\":4802:4881   */\n      tag_193\n      tag_89\n      jump\t// in\n    tag_193:\n        /* \"#utility.yul\":4764:4883   */\n    tag_192:\n        /* \"#utility.yul\":4922:4923   */\n      0x00\n        /* \"#utility.yul\":4947:5000   */\n      tag_194\n        /* \"#utility.yul\":4992:4999   */\n      dup5\n        /* \"#utility.yul\":4983:4989   */\n      dup3\n        /* \"#utility.yul\":4972:4981   */\n      dup6\n        /* \"#utility.yul\":4968:4990   */\n      add\n        /* \"#utility.yul\":4947:5000   */\n      tag_109\n      jump\t// in\n    tag_194:\n        /* \"#utility.yul\":4937:5000   */\n      swap2\n      pop\n        /* \"#utility.yul\":4893:5010   */\n      pop\n        /* \"#utility.yul\":4688:5017   */\n      swap3\n      swap2\n      pop\n      pop\n      jump\t// out\n        /* \"#utility.yul\":5023:5334   */\n    tag_110:\n        /* \"#utility.yul\":5100:5104   */\n      0x00\n        /* \"#utility.yul\":5190:5208   */\n      0xffffffffffffffff\n        /* \"#utility.yul\":5182:5188   */\n      dup3\n        /* \"#utility.yul\":5179:5209   */\n      gt\n        /* \"#utility.yul\":5176:5232   */\n      iszero\n      tag_196\n      jumpi\n        /* \"#utility.yul\":5212:5230   */\n      tag_197\n      tag_100\n      jump\t// in\n    tag_197:\n        /* \"#utility.yul\":5176:5232   */\n    tag_196:\n        /* \"#utility.yul\":5262:5266   */\n      0x20\n        /* \"#utility.yul\":5254:5260   */\n      dup3\n        /* \"#utility.yul\":5250:5267   */\n      mul\n        /* \"#utility.yul\":5242:5267   */\n      swap1\n      pop\n        /* \"#utility.yul\":5322:5326   */\n      0x20\n        /* \"#utility.yul\":5316:5320   */\n      dup2\n        /* \"#utility.yul\":5312:5327   */\n      add\n        /* \"#utility.yul\":5304:5327   */\n      swap1\n      pop\n        /* \"#utility.yul\":5023:5334   */\n      swap2\n      swap1\n      pop\n      jump\t// out\n        /* \"#utility.yul\":5340:5457   */\n    tag_111:\n        /* \"#utility.yul\":5449:5450   */\n      0x00\n        /* \"#utility.yul\":5446:5447   */\n      dup1\n        /* \"#utility.yul\":5439:5451   */\n      revert\n        /* \"#utility.yul\":5463:5585   */\n    tag_112:\n        /* \"#utility.yul\":5536:5560   */\n      tag_200\n        /* \"#utility.yul\":5554:5559   */\n      dup2\n        /* \"#utility.yul\":5536:5560   */\n      tag_95\n      jump\t// in\n    tag_200:\n        /* \"#utility.yul\":5529:5534   */\n      dup2\n        /* \"#utility.yul\":5526:5561   */\n      eq\n        /* \"#utility.yul\":5516:5579   */\n      tag_201\n      jumpi\n        /* \"#utility.yul\":5575:5576   */\n      0x00\n        /* \"#utility.yul\":5572:5573   */\n      dup1\n        /* \"#utility.yul\":5565:5577   */\n      revert\n        /* \"#utility.yul\":5516:5579   */\n    tag_201:\n        /* \"#utility.yul\":5463:5585   */\n      pop\n      jump\t// out\n        /* \"#utility.yul\":5591:5730   */\n    tag_113:\n        /* \"#utility.yul\":5637:5642   */\n      0x00\n        /* \"#utility.yul\":5675:5681   */\n      dup2\n        /* \"#utility.yul\":5662:5682   */\n      calldataload\n        /* \"#utility.yul\":5653:5682   */\n      swap1\n      pop\n        /* \"#utility.yul\":5691:5724   */\n      tag_203\n        /* \"#utility.yul\":5718:5723   */\n      dup2\n        /* \"#utility.yul\":5691:5724   */\n      tag_112\n      jump\t// in\n    tag_203:\n        /* \"#utility.yul\":5591:5730   */\n      swap3\n      swap2\n      pop\n      pop\n      jump\t// out\n        /* \"#utility.yul\":5753:6463   */\n    tag_114:\n        /* \"#utility.yul\":5849:5854   */\n      0x00\n        /* \"#utility.yul\":5874:5955   */\n      tag_205\n        /* \"#utility.yul\":5890:5954   */\n      tag_206\n        /* \"#utility.yul\":5947:5953   */\n      dup5\n        /* \"#utility.yul\":5890:5954   */\n      tag_110\n      jump\t// in\n    tag_206:\n        /* \"#utility.yul\":5874:5955   */\n      tag_102\n      jump\t// in\n    tag_205:\n        /* \"#utility.yul\":5865:5955   */\n      swap1\n      pop\n        /* \"#utility.yul\":5975:5980   */\n      dup1\n        /* \"#utility.yul\":6004:6010   */\n      dup4\n        /* \"#utility.yul\":5997:6002   */\n      dup3\n        /* \"#utility.yul\":5990:6011   */\n      mstore\n        /* \"#utility.yul\":6038:6042   */\n      0x20\n        /* \"#utility.yul\":6031:6036   */\n      dup3\n        /* \"#utility.yul\":6027:6043   */\n      add\n        /* \"#utility.yul\":6020:6043   */\n      swap1\n      pop\n        /* \"#utility.yul\":6091:6095   */\n      0x20\n        /* \"#utility.yul\":6083:6089   */\n      dup5\n        /* \"#utility.yul\":6079:6096   */\n      mul\n        /* \"#utility.yul\":6071:6077   */\n      dup4\n        /* \"#utility.yul\":6067:6097   */\n      add\n        /* \"#utility.yul\":6120:6123   */\n      dup6\n        /* \"#utility.yul\":6112:6118   */\n      dup2\n        /* \"#utility.yul\":6109:6124   */\n      gt\n        /* \"#utility.yul\":6106:6228   */\n      iszero\n      tag_207\n      jumpi\n        /* \"#utility.yul\":6139:6218   */\n      tag_208\n      tag_111\n      jump\t// in\n    tag_208:\n        /* \"#utility.yul\":6106:6228   */\n    tag_207:\n        /* \"#utility.yul\":6254:6260   */\n      dup4\n        /* \"#utility.yul\":6237:6457   */\n    tag_209:\n        /* \"#utility.yul\":6271:6277   */\n      dup2\n        /* \"#utility.yul\":6266:6269   */\n      dup2\n        /* \"#utility.yul\":6263:6278   */\n      lt\n        /* \"#utility.yul\":6237:6457   */\n      iszero\n      tag_211\n      jumpi\n        /* \"#utility.yul\":6346:6349   */\n      dup1\n        /* \"#utility.yul\":6375:6412   */\n      tag_212\n        /* \"#utility.yul\":6408:6411   */\n      dup9\n        /* \"#utility.yul\":6396:6406   */\n      dup3\n        /* \"#utility.yul\":6375:6412   */\n      tag_113\n      jump\t// in\n    tag_212:\n        /* \"#utility.yul\":6370:6373   */\n      dup5\n        /* \"#utility.yul\":6363:6413   */\n      mstore\n        /* \"#utility.yul\":6442:6446   */\n      0x20\n        /* \"#utility.yul\":6437:6440   */\n      dup5\n        /* \"#utility.yul\":6433:6447   */\n      add\n        /* \"#utility.yul\":6426:6447   */\n      swap4\n      pop\n        /* \"#utility.yul\":6313:6457   */\n      pop\n        /* \"#utility.yul\":6297:6301   */\n      0x20\n        /* \"#utility.yul\":6292:6295   */\n      dup2\n        /* \"#utility.yul\":6288:6302   */\n      add\n        /* \"#utility.yul\":6281:6302   */\n      swap1\n      pop\n        /* \"#utility.yul\":6237:6457   */\n      jump(tag_209)\n    tag_211:\n        /* \"#utility.yul\":6241:6262   */\n      pop\n        /* \"#utility.yul\":5855:6463   */\n      pop\n      pop\n        /* \"#utility.yul\":5753:6463   */\n      swap4\n      swap3\n      pop\n      pop\n      pop\n      jump\t// out\n        /* \"#utility.yul\":6486:6856   */\n    tag_115:\n        /* \"#utility.yul\":6557:6562   */\n      0x00\n        /* \"#utility.yul\":6606:6609   */\n      dup3\n        /* \"#utility.yul\":6599:6603   */\n      0x1f\n        /* \"#utility.yul\":6591:6597   */\n      dup4\n        /* \"#utility.yul\":6587:6604   */\n      add\n        /* \"#utility.yul\":6583:6610   */\n      slt\n        /* \"#utility.yul\":6573:6695   */\n      tag_214\n      jumpi\n        /* \"#utility.yul\":6614:6693   */\n      tag_215\n      tag_97\n      jump\t// in\n    tag_215:\n        /* \"#utility.yul\":6573:6695   */\n    tag_214:\n        /* \"#utility.yul\":6731:6737   */\n      dup2\n        /* \"#utility.yul\":6718:6738   */\n      calldataload\n        /* \"#utility.yul\":6756:6850   */\n      tag_216\n        /* \"#utility.yul\":6846:6849   */\n      dup5\n        /* \"#utility.yul\":6838:6844   */\n      dup3\n        /* \"#utility.yul\":6831:6835   */\n      0x20\n        /* \"#utility.yul\":6823:6829   */\n      dup7\n        /* \"#utility.yul\":6819:6836   */\n      add\n        /* \"#utility.yul\":6756:6850   */\n      tag_114\n      jump\t// in\n    tag_216:\n        /* \"#utility.yul\":6747:6850   */\n      swap2\n      pop\n        /* \"#utility.yul\":6563:6856   */\n      pop\n        /* \"#utility.yul\":6486:6856   */\n      swap3\n      swap2\n      pop\n      pop\n      jump\t// out\n        /* \"#utility.yul\":6862:7546   */\n    tag_31:\n        /* \"#utility.yul\":6955:6961   */\n      0x00\n        /* \"#utility.yul\":6963:6969   */\n      dup1\n        /* \"#utility.yul\":7012:7014   */\n      0x40\n        /* \"#utility.yul\":7000:7009   */\n      dup4\n        /* \"#utility.yul\":6991:6998   */\n      dup6\n        /* \"#utility.yul\":6987:7010   */\n      sub\n        /* \"#utility.yul\":6983:7015   */\n      slt\n        /* \"#utility.yul\":6980:7099   */\n      iszero\n      tag_218\n      jumpi\n        /* \"#utility.yul\":7018:7097   */\n      tag_219\n      tag_89\n      jump\t// in\n    tag_219:\n        /* \"#utility.yul\":6980:7099   */\n    tag_218:\n        /* \"#utility.yul\":7166:7167   */\n      0x00\n        /* \"#utility.yul\":7155:7164   */\n      dup4\n        /* \"#utility.yul\":7151:7168   */\n      add\n        /* \"#utility.yul\":7138:7169   */\n      calldataload\n        /* \"#utility.yul\":7196:7214   */\n      0xffffffffffffffff\n        /* \"#utility.yul\":7188:7194   */\n      dup2\n        /* \"#utility.yul\":7185:7215   */\n      gt\n        /* \"#utility.yul\":7182:7299   */\n      iszero\n      tag_220\n      jumpi\n        /* \"#utility.yul\":7218:7297   */\n      tag_221\n      tag_90\n      jump\t// in\n    tag_221:\n        /* \"#utility.yul\":7182:7299   */\n    tag_220:\n        /* \"#utility.yul\":7323:7401   */\n      tag_222\n        /* \"#utility.yul\":7393:7400   */\n      dup6\n        /* \"#utility.yul\":7384:7390   */\n      dup3\n        /* \"#utility.yul\":7373:7382   */\n      dup7\n        /* \"#utility.yul\":7369:7391   */\n      add\n        /* \"#utility.yul\":7323:7401   */\n      tag_115\n      jump\t// in\n    tag_222:\n        /* \"#utility.yul\":7313:7401   */\n      swap3\n      pop\n        /* \"#utility.yul\":7109:7411   */\n      pop\n        /* \"#utility.yul\":7450:7452   */\n      0x20\n        /* \"#utility.yul\":7476:7529   */\n      tag_223\n        /* \"#utility.yul\":7521:7528   */\n      dup6\n        /* \"#utility.yul\":7512:7518   */\n      dup3\n        /* \"#utility.yul\":7501:7510   */\n      dup7\n        /* \"#utility.yul\":7497:7519   */\n      add\n        /* \"#utility.yul\":7476:7529   */\n      tag_93\n      jump\t// in\n    tag_223:\n        /* \"#utility.yul\":7466:7529   */\n      swap2\n      pop\n        /* \"#utility.yul\":7421:7539   */\n      pop\n        /* \"#utility.yul\":6862:7546   */\n      swap3\n      pop\n      swap3\n      swap1\n      pop\n      jump\t// out\n        /* \"#utility.yul\":7552:7642   */\n    tag_116:\n        /* \"#utility.yul\":7586:7593   */\n      0x00\n        /* \"#utility.yul\":7629:7634   */\n      dup2\n        /* \"#utility.yul\":7622:7635   */\n      iszero\n        /* \"#utility.yul\":7615:7636   */\n      iszero\n        /* \"#utility.yul\":7604:7636   */\n      swap1\n      pop\n        /* \"#utility.yul\":7552:7642   */\n      swap2\n      swap1\n      pop\n      jump\t// out\n        /* \"#utility.yul\":7648:7757   */\n    tag_117:\n        /* \"#utility.yul\":7729:7750   */\n      tag_226\n        /* \"#utility.yul\":7744:7749   */\n      dup2\n        /* \"#utility.yul\":7729:7750   */\n      tag_116\n      jump\t// in\n    tag_226:\n        /* \"#utility.yul\":7724:7727   */\n      dup3\n        /* \"#utility.yul\":7717:7751   */\n      mstore\n        /* \"#utility.yul\":7648:7757   */\n      pop\n      pop\n      jump\t// out\n        /* \"#utility.yul\":7763:7973   */\n    tag_34:\n        /* \"#utility.yul\":7850:7854   */\n      0x00\n        /* \"#utility.yul\":7888:7890   */\n      0x20\n        /* \"#utility.yul\":7877:7886   */\n      dup3\n        /* \"#utility.yul\":7873:7891   */\n      add\n        /* \"#utility.yul\":7865:7891   */\n      swap1\n      pop\n        /* \"#utility.yul\":7901:7966   */\n      tag_228\n        /* \"#utility.yul\":7963:7964   */\n      0x00\n        /* \"#utility.yul\":7952:7961   */\n      dup4\n        /* \"#utility.yul\":7948:7965   */\n      add\n        /* \"#utility.yul\":7939:7945   */\n      dup5\n        /* \"#utility.yul\":7901:7966   */\n      tag_117\n      jump\t// in\n    tag_228:\n        /* \"#utility.yul\":7763:7973   */\n      swap3\n      swap2\n      pop\n      pop\n      jump\t// out\n        /* \"#utility.yul\":7979:8097   */\n    tag_118:\n        /* \"#utility.yul\":8066:8090   */\n      tag_230\n        /* \"#utility.yul\":8084:8089   */\n      dup2\n        /* \"#utility.yul\":8066:8090   */\n      tag_107\n      jump\t// in\n    tag_230:\n        /* \"#utility.yul\":8061:8064   */\n      dup3\n        /* \"#utility.yul\":8054:8091   */\n      mstore\n        /* \"#utility.yul\":7979:8097   */\n      pop\n      pop\n      jump\t// out\n        /* \"#utility.yul\":8103:8325   */\n    tag_39:\n        /* \"#utility.yul\":8196:8200   */\n      0x00\n        /* \"#utility.yul\":8234:8236   */\n      0x20\n        /* \"#utility.yul\":8223:8232   */\n      dup3\n        /* \"#utility.yul\":8219:8237   */\n      add\n        /* \"#utility.yul\":8211:8237   */\n      swap1\n      pop\n        /* \"#utility.yul\":8247:8318   */\n      tag_232\n        /* \"#utility.yul\":8315:8316   */\n      0x00\n        /* \"#utility.yul\":8304:8313   */\n      dup4\n        /* \"#utility.yul\":8300:8317   */\n      add\n        /* \"#utility.yul\":8291:8297   */\n      dup5\n        /* \"#utility.yul\":8247:8318   */\n      tag_118\n      jump\t// in\n    tag_232:\n        /* \"#utility.yul\":8103:8325   */\n      swap3\n      swap2\n      pop\n      pop\n      jump\t// out\n        /* \"#utility.yul\":8331:8500   */\n    tag_119:\n        /* \"#utility.yul\":8415:8426   */\n      0x00\n        /* \"#utility.yul\":8449:8455   */\n      dup3\n        /* \"#utility.yul\":8444:8447   */\n      dup3\n        /* \"#utility.yul\":8437:8456   */\n      mstore\n        /* \"#utility.yul\":8489:8493   */\n      0x20\n        /* \"#utility.yul\":8484:8487   */\n      dup3\n        /* \"#utility.yul\":8480:8494   */\n      add\n        /* \"#utility.yul\":8465:8494   */\n      swap1\n      pop\n        /* \"#utility.yul\":8331:8500   */\n      swap3\n      swap2\n      pop\n      pop\n      jump\t// out\n        /* \"#utility.yul\":8506:8675   */\n    tag_120:\n        /* \"#utility.yul\":8646:8667   */\n      0x7365656420697320616c72656164792073657400000000000000000000000000\n        /* \"#utility.yul\":8642:8643   */\n      0x00\n        /* \"#utility.yul\":8634:8640   */\n      dup3\n        /* \"#utility.yul\":8630:8644   */\n      add\n        /* \"#utility.yul\":8623:8668   */\n      mstore\n        /* \"#utility.yul\":8506:8675   */\n      pop\n      jump\t// out\n        /* \"#utility.yul\":8681:9047   */\n    tag_121:\n        /* \"#utility.yul\":8823:8826   */\n      0x00\n        /* \"#utility.yul\":8844:8911   */\n      tag_236\n        /* \"#utility.yul\":8908:8910   */\n      0x13\n        /* \"#utility.yul\":8903:8906   */\n      dup4\n        /* \"#utility.yul\":8844:8911   */\n      tag_119\n      jump\t// in\n    tag_236:\n        /* \"#utility.yul\":8837:8911   */\n      swap2\n      pop\n        /* \"#utility.yul\":8920:9013   */\n      tag_237\n        /* \"#utility.yul\":9009:9012   */\n      dup3\n        /* \"#utility.yul\":8920:9013   */\n      tag_120\n      jump\t// in\n    tag_237:\n        /* \"#utility.yul\":9038:9040   */\n      0x20\n        /* \"#utility.yul\":9033:9036   */\n      dup3\n        /* \"#utility.yul\":9029:9041   */\n      add\n        /* \"#utility.yul\":9022:9041   */\n      swap1\n      pop\n        /* \"#utility.yul\":8681:9047   */\n      swap2\n      swap1\n      pop\n      jump\t// out\n        /* \"#utility.yul\":9053:9472   */\n    tag_51:\n        /* \"#utility.yul\":9219:9223   */\n      0x00\n        /* \"#utility.yul\":9257:9259   */\n      0x20\n        /* \"#utility.yul\":9246:9255   */\n      dup3\n        /* \"#utility.yul\":9242:9260   */\n      add\n        /* \"#utility.yul\":9234:9260   */\n      swap1\n      pop\n        /* \"#utility.yul\":9306:9315   */\n      dup2\n        /* \"#utility.yul\":9300:9304   */\n      dup2\n        /* \"#utility.yul\":9296:9316   */\n      sub\n        /* \"#utility.yul\":9292:9293   */\n      0x00\n        /* \"#utility.yul\":9281:9290   */\n      dup4\n        /* \"#utility.yul\":9277:9294   */\n      add\n        /* \"#utility.yul\":9270:9317   */\n      mstore\n        /* \"#utility.yul\":9334:9465   */\n      tag_239\n        /* \"#utility.yul\":9460:9464   */\n      dup2\n        /* \"#utility.yul\":9334:9465   */\n      tag_121\n      jump\t// in\n    tag_239:\n        /* \"#utility.yul\":9326:9465   */\n      swap1\n      pop\n        /* \"#utility.yul\":9053:9472   */\n      swap2\n      swap1\n      pop\n      jump\t// out\n        /* \"#utility.yul\":9478:9704   */\n    tag_122:\n        /* \"#utility.yul\":9618:9652   */\n      0x6f6e6c79206d616e61676572706f6f6c2063616e2063616c6c20746869732066\n        /* \"#utility.yul\":9614:9615   */\n      0x00\n        /* \"#utility.yul\":9606:9612   */\n      dup3\n        /* \"#utility.yul\":9602:9616   */\n      add\n        /* \"#utility.yul\":9595:9653   */\n      mstore\n        /* \"#utility.yul\":9687:9696   */\n      0x756e6374696f6e00000000000000000000000000000000000000000000000000\n        /* \"#utility.yul\":9682:9684   */\n      0x20\n        /* \"#utility.yul\":9674:9680   */\n      dup3\n        /* \"#utility.yul\":9670:9685   */\n      add\n        /* \"#utility.yul\":9663:9697   */\n      mstore\n        /* \"#utility.yul\":9478:9704   */\n      pop\n      jump\t// out\n        /* \"#utility.yul\":9710:10076   */\n    tag_123:\n        /* \"#utility.yul\":9852:9855   */\n      0x00\n        /* \"#utility.yul\":9873:9940   */\n      tag_242\n        /* \"#utility.yul\":9937:9939   */\n      0x27\n        /* \"#utility.yul\":9932:9935   */\n      dup4\n        /* \"#utility.yul\":9873:9940   */\n      tag_119\n      jump\t// in\n    tag_242:\n        /* \"#utility.yul\":9866:9940   */\n      swap2\n      pop\n        /* \"#utility.yul\":9949:10042   */\n      tag_243\n        /* \"#utility.yul\":10038:10041   */\n      dup3\n        /* \"#utility.yul\":9949:10042   */\n      tag_122\n      jump\t// in\n    tag_243:\n        /* \"#utility.yul\":10067:10069   */\n      0x40\n        /* \"#utility.yul\":10062:10065   */\n      dup3\n        /* \"#utility.yul\":10058:10070   */\n      add\n        /* \"#utility.yul\":10051:10070   */\n      swap1\n      pop\n        /* \"#utility.yul\":9710:10076   */\n      swap2\n      swap1\n      pop\n      jump\t// out\n        /* \"#utility.yul\":10082:10501   */\n    tag_54:\n        /* \"#utility.yul\":10248:10252   */\n      0x00\n        /* \"#utility.yul\":10286:10288   */\n      0x20\n        /* \"#utility.yul\":10275:10284   */\n      dup3\n        /* \"#utility.yul\":10271:10289   */\n      add\n        /* \"#utility.yul\":10263:10289   */\n      swap1\n      pop\n        /* \"#utility.yul\":10335:10344   */\n      dup2\n        /* \"#utility.yul\":10329:10333   */\n      dup2\n        /* \"#utility.yul\":10325:10345   */\n      sub\n        /* \"#utility.yul\":10321:10322   */\n      0x00\n        /* \"#utility.yul\":10310:10319   */\n      dup4\n        /* \"#utility.yul\":10306:10323   */\n      add\n        /* \"#utility.yul\":10299:10346   */\n      mstore\n        /* \"#utility.yul\":10363:10494   */\n      tag_245\n        /* \"#utility.yul\":10489:10493   */\n      dup2\n        /* \"#utility.yul\":10363:10494   */\n      tag_123\n      jump\t// in\n    tag_245:\n        /* \"#utility.yul\":10355:10494   */\n      swap1\n      pop\n        /* \"#utility.yul\":10082:10501   */\n      swap2\n      swap1\n      pop\n      jump\t// out\n        /* \"#utility.yul\":10507:10687   */\n    tag_124:\n        /* \"#utility.yul\":10555:10632   */\n      0x4e487b7100000000000000000000000000000000000000000000000000000000\n        /* \"#utility.yul\":10552:10553   */\n      0x00\n        /* \"#utility.yul\":10545:10633   */\n      mstore\n        /* \"#utility.yul\":10652:10656   */\n      0x11\n        /* \"#utility.yul\":10649:10650   */\n      0x04\n        /* \"#utility.yul\":10642:10657   */\n      mstore\n        /* \"#utility.yul\":10676:10680   */\n      0x24\n        /* \"#utility.yul\":10673:10674   */\n      0x00\n        /* \"#utility.yul\":10666:10681   */\n      revert\n        /* \"#utility.yul\":10693:10998   */\n    tag_56:\n        /* \"#utility.yul\":10733:10736   */\n      0x00\n        /* \"#utility.yul\":10752:10772   */\n      tag_248\n        /* \"#utility.yul\":10770:10771   */\n      dup3\n        /* \"#utility.yul\":10752:10772   */\n      tag_107\n      jump\t// in\n    tag_248:\n        /* \"#utility.yul\":10747:10772   */\n      swap2\n      pop\n        /* \"#utility.yul\":10786:10806   */\n      tag_249\n        /* \"#utility.yul\":10804:10805   */\n      dup4\n        /* \"#utility.yul\":10786:10806   */\n      tag_107\n      jump\t// in\n    tag_249:\n        /* \"#utility.yul\":10781:10806   */\n      swap3\n      pop\n        /* \"#utility.yul\":10940:10941   */\n      dup3\n        /* \"#utility.yul\":10872:10938   */\n      0xffffffffffffffffffffffffffffffffffffffffffffffffffffffffffffffff\n        /* \"#utility.yul\":10868:10942   */\n      sub\n        /* \"#utility.yul\":10865:10866   */\n      dup3\n        /* \"#utility.yul\":10862:10943   */\n      gt\n        /* \"#utility.yul\":10859:10966   */\n      iszero\n      tag_250\n      jumpi\n        /* \"#utility.yul\":10946:10964   */\n      tag_251\n      tag_124\n      jump\t// in\n    tag_251:\n        /* \"#utility.yul\":10859:10966   */\n    tag_250:\n        /* \"#utility.yul\":10990:10991   */\n      dup3\n        /* \"#utility.yul\":10987:10988   */\n      dup3\n        /* \"#utility.yul\":10983:10992   */\n      add\n        /* \"#utility.yul\":10976:10992   */\n      swap1\n      pop\n        /* \"#utility.yul\":10693:10998   */\n      swap3\n      swap2\n      pop\n      pop\n      jump\t// out\n        /* \"#utility.yul\":11004:11173   */\n    tag_125:\n        /* \"#utility.yul\":11144:11165   */\n      0x73656564206973206e6f74207965742073657400000000000000000000000000\n        /* \"#utility.yul\":11140:11141   */\n      0x00\n        /* \"#utility.yul\":11132:11138   */\n      dup3\n        /* \"#utility.yul\":11128:11142   */\n      add\n        /* \"#utility.yul\":11121:11166   */\n      mstore\n        /* \"#utility.yul\":11004:11173   */\n      pop\n      jump\t// out\n        /* \"#utility.yul\":11179:11545   */\n    tag_126:\n        /* \"#utility.yul\":11321:11324   */\n      0x00\n        /* \"#utility.yul\":11342:11409   */\n      tag_254\n        /* \"#utility.yul\":11406:11408   */\n      0x13\n        /* \"#utility.yul\":11401:11404   */\n      dup4\n        /* \"#utility.yul\":11342:11409   */\n      tag_119\n      jump\t// in\n    tag_254:\n        /* \"#utility.yul\":11335:11409   */\n      swap2\n      pop\n        /* \"#utility.yul\":11418:11511   */\n      tag_255\n        /* \"#utility.yul\":11507:11510   */\n      dup3\n        /* \"#utility.yul\":11418:11511   */\n      tag_125\n      jump\t// in\n    tag_255:\n        /* \"#utility.yul\":11536:11538   */\n      0x20\n        /* \"#utility.yul\":11531:11534   */\n      dup3\n        /* \"#utility.yul\":11527:11539   */\n      add\n        /* \"#utility.yul\":11520:11539   */\n      swap1\n      pop\n        /* \"#utility.yul\":11179:11545   */\n      swap2\n      swap1\n      pop\n      jump\t// out\n        /* \"#utility.yul\":11551:11970   */\n    tag_66:\n        /* \"#utility.yul\":11717:11721   */\n      0x00\n        /* \"#utility.yul\":11755:11757   */\n      0x20\n        /* \"#utility.yul\":11744:11753   */\n      dup3\n        /* \"#utility.yul\":11740:11758   */\n      add\n        /* \"#utility.yul\":11732:11758   */\n      swap1\n      pop\n        /* \"#utility.yul\":11804:11813   */\n      dup2\n        /* \"#utility.yul\":11798:11802   */\n      dup2\n        /* \"#utility.yul\":11794:11814   */\n      sub\n        /* \"#utility.yul\":11790:11791   */\n      0x00\n        /* \"#utility.yul\":11779:11788   */\n      dup4\n        /* \"#utility.yul\":11775:11792   */\n      add\n        /* \"#utility.yul\":11768:11815   */\n      mstore\n        /* \"#utility.yul\":11832:11963   */\n      tag_257\n        /* \"#utility.yul\":11958:11962   */\n      dup2\n        /* \"#utility.yul\":11832:11963   */\n      tag_126\n      jump\t// in\n    tag_257:\n        /* \"#utility.yul\":11824:11963   */\n      swap1\n      pop\n        /* \"#utility.yul\":11551:11970   */\n      swap2\n      swap1\n      pop\n      jump\t// out\n        /* \"#utility.yul\":11976:12154   */\n    tag_127:\n        /* \"#utility.yul\":12116:12146   */\n      0x646f6e6174696f6e7320617265206e6f7420636c6f7365642079657400000000\n        /* \"#utility.yul\":12112:12113   */\n      0x00\n        /* \"#utility.yul\":12104:12110   */\n      dup3\n        /* \"#utility.yul\":12100:12114   */\n      add\n        /* \"#utility.yul\":12093:12147   */\n      mstore\n        /* \"#utility.yul\":11976:12154   */\n      pop\n      jump\t// out\n        /* \"#utility.yul\":12160:12526   */\n    tag_128:\n        /* \"#utility.yul\":12302:12305   */\n      0x00\n        /* \"#utility.yul\":12323:12390   */\n      tag_260\n        /* \"#utility.yul\":12387:12389   */\n      0x1c\n        /* \"#utility.yul\":12382:12385   */\n      dup4\n        /* \"#utility.yul\":12323:12390   */\n      tag_119\n      jump\t// in\n    tag_260:\n        /* \"#utility.yul\":12316:12390   */\n      swap2\n      pop\n        /* \"#utility.yul\":12399:12492   */\n      tag_261\n        /* \"#utility.yul\":12488:12491   */\n      dup3\n        /* \"#utility.yul\":12399:12492   */\n      tag_127\n      jump\t// in\n    tag_261:\n        /* \"#utility.yul\":12517:12519   */\n      0x20\n        /* \"#utility.yul\":12512:12515   */\n      dup3\n        /* \"#utility.yul\":12508:12520   */\n      add\n        /* \"#utility.yul\":12501:12520   */\n      swap1\n      pop\n        /* \"#utility.yul\":12160:12526   */\n      swap2\n      swap1\n      pop\n      jump\t// out\n        /* \"#utility.yul\":12532:12951   */\n    tag_69:\n        /* \"#utility.yul\":12698:12702   */\n      0x00\n        /* \"#utility.yul\":12736:12738   */\n      0x20\n        /* \"#utility.yul\":12725:12734   */\n      dup3\n        /* \"#utility.yul\":12721:12739   */\n      add\n        /* \"#utility.yul\":12713:12739   */\n      swap1\n      pop\n        /* \"#utility.yul\":12785:12794   */\n      dup2\n        /* \"#utility.yul\":12779:12783   */\n      dup2\n        /* \"#utility.yul\":12775:12795   */\n      sub\n        /* \"#utility.yul\":12771:12772   */\n      0x00\n        /* \"#utility.yul\":12760:12769   */\n      dup4\n        /* \"#utility.yul\":12756:12773   */\n      add\n        /* \"#utility.yul\":12749:12796   */\n      mstore\n        /* \"#utility.yul\":12813:12944   */\n      tag_263\n        /* \"#utility.yul\":12939:12943   */\n      dup2\n        /* \"#utility.yul\":12813:12944   */\n      tag_128\n      jump\t// in\n    tag_263:\n        /* \"#utility.yul\":12805:12944   */\n      swap1\n      pop\n        /* \"#utility.yul\":12532:12951   */\n      swap2\n      swap1\n      pop\n      jump\t// out\n        /* \"#utility.yul\":12957:13036   */\n    tag_129:\n        /* \"#utility.yul\":12996:13003   */\n      0x00\n        /* \"#utility.yul\":13025:13030   */\n      dup2\n        /* \"#utility.yul\":13014:13030   */\n      swap1\n      pop\n        /* \"#utility.yul\":12957:13036   */\n      swap2\n      swap1\n      pop\n      jump\t// out\n        /* \"#utility.yul\":13042:13199   */\n    tag_130:\n        /* \"#utility.yul\":13147:13192   */\n      tag_266\n        /* \"#utility.yul\":13167:13191   */\n      tag_267\n        /* \"#utility.yul\":13185:13190   */\n      dup3\n        /* \"#utility.yul\":13167:13191   */\n      tag_91\n      jump\t// in\n    tag_267:\n        /* \"#utility.yul\":13147:13192   */\n      tag_129\n      jump\t// in\n    tag_266:\n        /* \"#utility.yul\":13142:13145   */\n      dup3\n        /* \"#utility.yul\":13135:13193   */\n      mstore\n        /* \"#utility.yul\":13042:13199   */\n      pop\n      pop\n      jump\t// out\n        /* \"#utility.yul\":13205:13602   */\n    tag_72:\n        /* \"#utility.yul\":13345:13348   */\n      0x00\n        /* \"#utility.yul\":13360:13435   */\n      tag_269\n        /* \"#utility.yul\":13431:13434   */\n      dup3\n        /* \"#utility.yul\":13422:13428   */\n      dup6\n        /* \"#utility.yul\":13360:13435   */\n      tag_130\n      jump\t// in\n    tag_269:\n        /* \"#utility.yul\":13460:13462   */\n      0x20\n        /* \"#utility.yul\":13455:13458   */\n      dup3\n        /* \"#utility.yul\":13451:13463   */\n      add\n        /* \"#utility.yul\":13444:13463   */\n      swap2\n      pop\n        /* \"#utility.yul\":13473:13548   */\n      tag_270\n        /* \"#utility.yul\":13544:13547   */\n      dup3\n        /* \"#utility.yul\":13535:13541   */\n      dup5\n        /* \"#utility.yul\":13473:13548   */\n      tag_130\n      jump\t// in\n    tag_270:\n        /* \"#utility.yul\":13573:13575   */\n      0x20\n        /* \"#utility.yul\":13568:13571   */\n      dup3\n        /* \"#utility.yul\":13564:13576   */\n      add\n        /* \"#utility.yul\":13557:13576   */\n      swap2\n      pop\n        /* \"#utility.yul\":13593:13596   */\n      dup2\n        /* \"#utility.yul\":13586:13596   */\n      swap1\n      pop\n        /* \"#utility.yul\":13205:13602   */\n      swap4\n      swap3\n      pop\n      pop\n      pop\n      jump\t// out\n        /* \"#utility.yul\":13608:13788   */\n    tag_131:\n        /* \"#utility.yul\":13656:13733   */\n      0x4e487b7100000000000000000000000000000000000000000000000000000000\n        /* \"#utility.yul\":13653:13654   */\n      0x00\n        /* \"#utility.yul\":13646:13734   */\n      mstore\n        /* \"#utility.yul\":13753:13757   */\n      0x22\n        /* \"#utility.yul\":13750:13751   */\n      0x04\n        /* \"#utility.yul\":13743:13758   */\n      mstore\n        /* \"#utility.yul\":13777:13781   */\n      0x24\n        /* \"#utility.yul\":13774:13775   */\n      0x00\n        /* \"#utility.yul\":13767:13782   */\n      revert\n        /* \"#utility.yul\":13794:14114   */\n    tag_74:\n        /* \"#utility.yul\":13838:13844   */\n      0x00\n        /* \"#utility.yul\":13875:13876   */\n      0x02\n        /* \"#utility.yul\":13869:13873   */\n      dup3\n        /* \"#utility.yul\":13865:13877   */\n      div\n        /* \"#utility.yul\":13855:13877   */\n      swap1\n      pop\n        /* \"#utility.yul\":13922:13923   */\n      0x01\n        /* \"#utility.yul\":13916:13920   */\n      dup3\n        /* \"#utility.yul\":13912:13924   */\n      and\n        /* \"#utility.yul\":13943:13961   */\n      dup1\n        /* \"#utility.yul\":13933:14014   */\n      tag_273\n      jumpi\n        /* \"#utility.yul\":13999:14003   */\n      0x7f\n        /* \"#utility.yul\":13991:13997   */\n      dup3\n        /* \"#utility.yul\":13987:14004   */\n      and\n        /* \"#utility.yul\":13977:14004   */\n      swap2\n      pop\n        /* \"#utility.yul\":13933:14014   */\n    tag_273:\n        /* \"#utility.yul\":14061:14063   */\n      0x20\n        /* \"#utility.yul\":14053:14059   */\n      dup3\n        /* \"#utility.yul\":14050:14064   */\n      lt\n        /* \"#utility.yul\":14030:14048   */\n      dup2\n        /* \"#utility.yul\":14027:14065   */\n      sub\n        /* \"#utility.yul\":14024:14108   */\n      tag_274\n      jumpi\n        /* \"#utility.yul\":14080:14098   */\n      tag_275\n      tag_131\n      jump\t// in\n    tag_275:\n        /* \"#utility.yul\":14024:14108   */\n    tag_274:\n        /* \"#utility.yul\":13845:14114   */\n      pop\n        /* \"#utility.yul\":13794:14114   */\n      swap2\n      swap1\n      pop\n      jump\t// out\n\n    auxdata: 0xa2646970667358221220be7399c120ce28707dc2d317a729386c14395ad6b9469d92607b6a5c58f1b4eb64736f6c634300080d0033\n}\n",
				"bytecode": {
					"linkReferences": {},
					"object": "608060405234801561001057600080fd5b50336000806101000a81548173ffffffffffffffffffffffffffffffffffffffff021916908373ffffffffffffffffffffffffffffffffffffffff1602179055506000600360006101000a81548160ff0219169083151502179055506000600360016101000a81548160ff021916908315150217905550610d5d806100966000396000f3fe608060405234801561001057600080fd5b506004361061007d5760003560e01c80634abfa1631161005b5780634abfa163146100ea5780635c6b143c1461011a578063701fd0f11461014a578063dedfe2231461017a5761007d565b80631e5f9149146100825780632f570a23146100b257806341114538146100ce575b600080fd5b61009c600480360381019061009791906105e3565b610198565b6040516100a99190610651565b60405180910390f35b6100cc60048036038101906100c791906107b2565b6101af565b005b6100e860048036038101906100e391906105e3565b6101c9565b005b61010460048036038101906100ff9190610831565b6102f3565b6040516101119190610651565b60405180910390f35b610134600480360381019061012f9190610952565b610332565b60405161014191906109c9565b60405180910390f35b610164600480360381019061015f91906105e3565b61035e565b60405161017191906109f3565b60405180910390f35b610182610448565b60405161018f9190610651565b60405180910390f35b6000806101a48361035e565b905033915050919050565b80600290805190602001906101c592919061046c565b5050565b600360009054906101000a900460ff1615610219576040517f08c379a000000000000000000000000000000000000000000000000000000000815260040161021090610a6b565b60405180910390fd5b60008054906101000a900473ffffffffffffffffffffffffffffffffffffffff1673ffffffffffffffffffffffffffffffffffffffff163373ffffffffffffffffffffffffffffffffffffffff16146102a7576040517f08c379a000000000000000000000000000000000000000000000000000000000815260040161029e90610afd565b60405180910390fd5b6001600360016101000a81548160ff0219169083151502179055506001436102cf9190610b4c565b6004819055506001600360006101000a81548160ff02191690831515021790555050565b6001818154811061030357600080fd5b906000526020600020016000915054906101000a900473ffffffffffffffffffffffffffffffffffffffff1681565b6000826001908051906020019061034a9291906104f2565b50610354826101c9565b6001905092915050565b6000600360009054906101000a900460ff166103af576040517f08c379a00000000000000000000000000000000000000000000000000000000081526004016103a690610bee565b60405180910390fd5b600360019054906101000a900460ff166103fe576040517f08c379a00000000000000000000000000000000000000000000000000000000081526004016103f590610c5a565b60405180910390fd5b436004541061040c57600080fd5b60008260045440604051602001610424929190610c9b565b6040516020818303038152906040528051906020012060001c905080915050919050565b60008054906101000a900473ffffffffffffffffffffffffffffffffffffffff1681565b82805461047890610cf6565b90600052602060002090601f01602090048101928261049a57600085556104e1565b82601f106104b357805160ff19168380011785556104e1565b828001600101855582156104e1579182015b828111156104e05782518255916020019190600101906104c5565b5b5090506104ee919061057c565b5090565b82805482825590600052602060002090810192821561056b579160200282015b8281111561056a5782518260006101000a81548173ffffffffffffffffffffffffffffffffffffffff021916908373ffffffffffffffffffffffffffffffffffffffff16021790555091602001919060010190610512565b5b509050610578919061057c565b5090565b5b8082111561059557600081600090555060010161057d565b5090565b6000604051905090565b600080fd5b600080fd5b6000819050919050565b6105c0816105ad565b81146105cb57600080fd5b50565b6000813590506105dd816105b7565b92915050565b6000602082840312156105f9576105f86105a3565b5b6000610607848285016105ce565b91505092915050565b600073ffffffffffffffffffffffffffffffffffffffff82169050919050565b600061063b82610610565b9050919050565b61064b81610630565b82525050565b60006020820190506106666000830184610642565b92915050565b600080fd5b600080fd5b6000601f19601f8301169050919050565b7f4e487b7100000000000000000000000000000000000000000000000000000000600052604160045260246000fd5b6106bf82610676565b810181811067ffffffffffffffff821117156106de576106dd610687565b5b80604052505050565b60006106f1610599565b90506106fd82826106b6565b919050565b600067ffffffffffffffff82111561071d5761071c610687565b5b61072682610676565b9050602081019050919050565b82818337600083830152505050565b600061075561075084610702565b6106e7565b90508281526020810184848401111561077157610770610671565b5b61077c848285610733565b509392505050565b600082601f8301126107995761079861066c565b5b81356107a9848260208601610742565b91505092915050565b6000602082840312156107c8576107c76105a3565b5b600082013567ffffffffffffffff8111156107e6576107e56105a8565b5b6107f284828501610784565b91505092915050565b6000819050919050565b61080e816107fb565b811461081957600080fd5b50565b60008135905061082b81610805565b92915050565b600060208284031215610847576108466105a3565b5b60006108558482850161081c565b91505092915050565b600067ffffffffffffffff82111561087957610878610687565b5b602082029050602081019050919050565b600080fd5b61089881610630565b81146108a357600080fd5b50565b6000813590506108b58161088f565b92915050565b60006108ce6108c98461085e565b6106e7565b905080838252602082019050602084028301858111156108f1576108f061088a565b5b835b8181101561091a578061090688826108a6565b8452602084019350506020810190506108f3565b5050509392505050565b600082601f8301126109395761093861066c565b5b81356109498482602086016108bb565b91505092915050565b60008060408385031215610969576109686105a3565b5b600083013567ffffffffffffffff811115610987576109866105a8565b5b61099385828601610924565b92505060206109a4858286016105ce565b9150509250929050565b60008115159050919050565b6109c3816109ae565b82525050565b60006020820190506109de60008301846109ba565b92915050565b6109ed816107fb565b82525050565b6000602082019050610a0860008301846109e4565b92915050565b600082825260208201905092915050565b7f7365656420697320616c72656164792073657400000000000000000000000000600082015250565b6000610a55601383610a0e565b9150610a6082610a1f565b602082019050919050565b60006020820190508181036000830152610a8481610a48565b9050919050565b7f6f6e6c79206d616e61676572706f6f6c2063616e2063616c6c2074686973206660008201527f756e6374696f6e00000000000000000000000000000000000000000000000000602082015250565b6000610ae7602783610a0e565b9150610af282610a8b565b604082019050919050565b60006020820190508181036000830152610b1681610ada565b9050919050565b7f4e487b7100000000000000000000000000000000000000000000000000000000600052601160045260246000fd5b6000610b57826107fb565b9150610b62836107fb565b9250827fffffffffffffffffffffffffffffffffffffffffffffffffffffffffffffffff03821115610b9757610b96610b1d565b5b828201905092915050565b7f73656564206973206e6f74207965742073657400000000000000000000000000600082015250565b6000610bd8601383610a0e565b9150610be382610ba2565b602082019050919050565b60006020820190508181036000830152610c0781610bcb565b9050919050565b7f646f6e6174696f6e7320617265206e6f7420636c6f7365642079657400000000600082015250565b6000610c44601c83610a0e565b9150610c4f82610c0e565b602082019050919050565b60006020820190508181036000830152610c7381610c37565b9050919050565b6000819050919050565b610c95610c90826105ad565b610c7a565b82525050565b6000610ca78285610c84565b602082019150610cb78284610c84565b6020820191508190509392505050565b7f4e487b7100000000000000000000000000000000000000000000000000000000600052602260045260246000fd5b60006002820490506001821680610d0e57607f821691505b602082108103610d2157610d20610cc7565b5b5091905056fea2646970667358221220be7399c120ce28707dc2d317a729386c14395ad6b9469d92607b6a5c58f1b4eb64736f6c634300080d0033",
					"opcodes": "PUSH1 0x80 PUSH1 0x40 MSTORE CALLVALUE DUP1 ISZERO PUSH2 0x10 JUMPI PUSH1 0x0 DUP1 REVERT JUMPDEST POP CALLER PUSH1 0x0 DUP1 PUSH2 0x100 EXP DUP2 SLOAD DUP2 PUSH20 0xFFFFFFFFFFFFFFFFFFFFFFFFFFFFFFFFFFFFFFFF MUL NOT AND SWAP1 DUP4 PUSH20 0xFFFFFFFFFFFFFFFFFFFFFFFFFFFFFFFFFFFFFFFF AND MUL OR SWAP1 SSTORE POP PUSH1 0x0 PUSH1 0x3 PUSH1 0x0 PUSH2 0x100 EXP DUP2 SLOAD DUP2 PUSH1 0xFF MUL NOT AND SWAP1 DUP4 ISZERO ISZERO MUL OR SWAP1 SSTORE POP PUSH1 0x0 PUSH1 0x3 PUSH1 0x1 PUSH2 0x100 EXP DUP2 SLOAD DUP2 PUSH1 0xFF MUL NOT AND SWAP1 DUP4 ISZERO ISZERO MUL OR SWAP1 SSTORE POP PUSH2 0xD5D DUP1 PUSH2 0x96 PUSH1 0x0 CODECOPY PUSH1 0x0 RETURN INVALID PUSH1 0x80 PUSH1 0x40 MSTORE CALLVALUE DUP1 ISZERO PUSH2 0x10 JUMPI PUSH1 0x0 DUP1 REVERT JUMPDEST POP PUSH1 0x4 CALLDATASIZE LT PUSH2 0x7D JUMPI PUSH1 0x0 CALLDATALOAD PUSH1 0xE0 SHR DUP1 PUSH4 0x4ABFA163 GT PUSH2 0x5B JUMPI DUP1 PUSH4 0x4ABFA163 EQ PUSH2 0xEA JUMPI DUP1 PUSH4 0x5C6B143C EQ PUSH2 0x11A JUMPI DUP1 PUSH4 0x701FD0F1 EQ PUSH2 0x14A JUMPI DUP1 PUSH4 0xDEDFE223 EQ PUSH2 0x17A JUMPI PUSH2 0x7D JUMP JUMPDEST DUP1 PUSH4 0x1E5F9149 EQ PUSH2 0x82 JUMPI DUP1 PUSH4 0x2F570A23 EQ PUSH2 0xB2 JUMPI DUP1 PUSH4 0x41114538 EQ PUSH2 0xCE JUMPI JUMPDEST PUSH1 0x0 DUP1 REVERT JUMPDEST PUSH2 0x9C PUSH1 0x4 DUP1 CALLDATASIZE SUB DUP2 ADD SWAP1 PUSH2 0x97 SWAP2 SWAP1 PUSH2 0x5E3 JUMP JUMPDEST PUSH2 0x198 JUMP JUMPDEST PUSH1 0x40 MLOAD PUSH2 0xA9 SWAP2 SWAP1 PUSH2 0x651 JUMP JUMPDEST PUSH1 0x40 MLOAD DUP1 SWAP2 SUB SWAP1 RETURN JUMPDEST PUSH2 0xCC PUSH1 0x4 DUP1 CALLDATASIZE SUB DUP2 ADD SWAP1 PUSH2 0xC7 SWAP2 SWAP1 PUSH2 0x7B2 JUMP JUMPDEST PUSH2 0x1AF JUMP JUMPDEST STOP JUMPDEST PUSH2 0xE8 PUSH1 0x4 DUP1 CALLDATASIZE SUB DUP2 ADD SWAP1 PUSH2 0xE3 SWAP2 SWAP1 PUSH2 0x5E3 JUMP JUMPDEST PUSH2 0x1C9 JUMP JUMPDEST STOP JUMPDEST PUSH2 0x104 PUSH1 0x4 DUP1 CALLDATASIZE SUB DUP2 ADD SWAP1 PUSH2 0xFF SWAP2 SWAP1 PUSH2 0x831 JUMP JUMPDEST PUSH2 0x2F3 JUMP JUMPDEST PUSH1 0x40 MLOAD PUSH2 0x111 SWAP2 SWAP1 PUSH2 0x651 JUMP JUMPDEST PUSH1 0x40 MLOAD DUP1 SWAP2 SUB SWAP1 RETURN JUMPDEST PUSH2 0x134 PUSH1 0x4 DUP1 CALLDATASIZE SUB DUP2 ADD SWAP1 PUSH2 0x12F SWAP2 SWAP1 PUSH2 0x952 JUMP JUMPDEST PUSH2 0x332 JUMP JUMPDEST PUSH1 0x40 MLOAD PUSH2 0x141 SWAP2 SWAP1 PUSH2 0x9C9 JUMP JUMPDEST PUSH1 0x40 MLOAD DUP1 SWAP2 SUB SWAP1 RETURN JUMPDEST PUSH2 0x164 PUSH1 0x4 DUP1 CALLDATASIZE SUB DUP2 ADD SWAP1 PUSH2 0x15F SWAP2 SWAP1 PUSH2 0x5E3 JUMP JUMPDEST PUSH2 0x35E JUMP JUMPDEST PUSH1 0x40 MLOAD PUSH2 0x171 SWAP2 SWAP1 PUSH2 0x9F3 JUMP JUMPDEST PUSH1 0x40 MLOAD DUP1 SWAP2 SUB SWAP1 RETURN JUMPDEST PUSH2 0x182 PUSH2 0x448 JUMP JUMPDEST PUSH1 0x40 MLOAD PUSH2 0x18F SWAP2 SWAP1 PUSH2 0x651 JUMP JUMPDEST PUSH1 0x40 MLOAD DUP1 SWAP2 SUB SWAP1 RETURN JUMPDEST PUSH1 0x0 DUP1 PUSH2 0x1A4 DUP4 PUSH2 0x35E JUMP JUMPDEST SWAP1 POP CALLER SWAP2 POP POP SWAP2 SWAP1 POP JUMP JUMPDEST DUP1 PUSH1 0x2 SWAP1 DUP1 MLOAD SWAP1 PUSH1 0x20 ADD SWAP1 PUSH2 0x1C5 SWAP3 SWAP2 SWAP1 PUSH2 0x46C JUMP JUMPDEST POP POP JUMP JUMPDEST PUSH1 0x3 PUSH1 0x0 SWAP1 SLOAD SWAP1 PUSH2 0x100 EXP SWAP1 DIV PUSH1 0xFF AND ISZERO PUSH2 0x219 JUMPI PUSH1 0x40 MLOAD PUSH32 0x8C379A000000000000000000000000000000000000000000000000000000000 DUP2 MSTORE PUSH1 0x4 ADD PUSH2 0x210 SWAP1 PUSH2 0xA6B JUMP JUMPDEST PUSH1 0x40 MLOAD DUP1 SWAP2 SUB SWAP1 REVERT JUMPDEST PUSH1 0x0 DUP1 SLOAD SWAP1 PUSH2 0x100 EXP SWAP1 DIV PUSH20 0xFFFFFFFFFFFFFFFFFFFFFFFFFFFFFFFFFFFFFFFF AND PUSH20 0xFFFFFFFFFFFFFFFFFFFFFFFFFFFFFFFFFFFFFFFF AND CALLER PUSH20 0xFFFFFFFFFFFFFFFFFFFFFFFFFFFFFFFFFFFFFFFF AND EQ PUSH2 0x2A7 JUMPI PUSH1 0x40 MLOAD PUSH32 0x8C379A000000000000000000000000000000000000000000000000000000000 DUP2 MSTORE PUSH1 0x4 ADD PUSH2 0x29E SWAP1 PUSH2 0xAFD JUMP JUMPDEST PUSH1 0x40 MLOAD DUP1 SWAP2 SUB SWAP1 REVERT JUMPDEST PUSH1 0x1 PUSH1 0x3 PUSH1 0x1 PUSH2 0x100 EXP DUP2 SLOAD DUP2 PUSH1 0xFF MUL NOT AND SWAP1 DUP4 ISZERO ISZERO MUL OR SWAP1 SSTORE POP PUSH1 0x1 NUMBER PUSH2 0x2CF SWAP2 SWAP1 PUSH2 0xB4C JUMP JUMPDEST PUSH1 0x4 DUP2 SWAP1 SSTORE POP PUSH1 0x1 PUSH1 0x3 PUSH1 0x0 PUSH2 0x100 EXP DUP2 SLOAD DUP2 PUSH1 0xFF MUL NOT AND SWAP1 DUP4 ISZERO ISZERO MUL OR SWAP1 SSTORE POP POP JUMP JUMPDEST PUSH1 0x1 DUP2 DUP2 SLOAD DUP2 LT PUSH2 0x303 JUMPI PUSH1 0x0 DUP1 REVERT JUMPDEST SWAP1 PUSH1 0x0 MSTORE PUSH1 0x20 PUSH1 0x0 KECCAK256 ADD PUSH1 0x0 SWAP2 POP SLOAD SWAP1 PUSH2 0x100 EXP SWAP1 DIV PUSH20 0xFFFFFFFFFFFFFFFFFFFFFFFFFFFFFFFFFFFFFFFF AND DUP2 JUMP JUMPDEST PUSH1 0x0 DUP3 PUSH1 0x1 SWAP1 DUP1 MLOAD SWAP1 PUSH1 0x20 ADD SWAP1 PUSH2 0x34A SWAP3 SWAP2 SWAP1 PUSH2 0x4F2 JUMP JUMPDEST POP PUSH2 0x354 DUP3 PUSH2 0x1C9 JUMP JUMPDEST PUSH1 0x1 SWAP1 POP SWAP3 SWAP2 POP POP JUMP JUMPDEST PUSH1 0x0 PUSH1 0x3 PUSH1 0x0 SWAP1 SLOAD SWAP1 PUSH2 0x100 EXP SWAP1 DIV PUSH1 0xFF AND PUSH2 0x3AF JUMPI PUSH1 0x40 MLOAD PUSH32 0x8C379A000000000000000000000000000000000000000000000000000000000 DUP2 MSTORE PUSH1 0x4 ADD PUSH2 0x3A6 SWAP1 PUSH2 0xBEE JUMP JUMPDEST PUSH1 0x40 MLOAD DUP1 SWAP2 SUB SWAP1 REVERT JUMPDEST PUSH1 0x3 PUSH1 0x1 SWAP1 SLOAD SWAP1 PUSH2 0x100 EXP SWAP1 DIV PUSH1 0xFF AND PUSH2 0x3FE JUMPI PUSH1 0x40 MLOAD PUSH32 0x8C379A000000000000000000000000000000000000000000000000000000000 DUP2 MSTORE PUSH1 0x4 ADD PUSH2 0x3F5 SWAP1 PUSH2 0xC5A JUMP JUMPDEST PUSH1 0x40 MLOAD DUP1 SWAP2 SUB SWAP1 REVERT JUMPDEST NUMBER PUSH1 0x4 SLOAD LT PUSH2 0x40C JUMPI PUSH1 0x0 DUP1 REVERT JUMPDEST PUSH1 0x0 DUP3 PUSH1 0x4 SLOAD BLOCKHASH PUSH1 0x40 MLOAD PUSH1 0x20 ADD PUSH2 0x424 SWAP3 SWAP2 SWAP1 PUSH2 0xC9B JUMP JUMPDEST PUSH1 0x40 MLOAD PUSH1 0x20 DUP2 DUP4 SUB SUB DUP2 MSTORE SWAP1 PUSH1 0x40 MSTORE DUP1 MLOAD SWAP1 PUSH1 0x20 ADD KECCAK256 PUSH1 0x0 SHR SWAP1 POP DUP1 SWAP2 POP POP SWAP2 SWAP1 POP JUMP JUMPDEST PUSH1 0x0 DUP1 SLOAD SWAP1 PUSH2 0x100 EXP SWAP1 DIV PUSH20 0xFFFFFFFFFFFFFFFFFFFFFFFFFFFFFFFFFFFFFFFF AND DUP2 JUMP JUMPDEST DUP3 DUP1 SLOAD PUSH2 0x478 SWAP1 PUSH2 0xCF6 JUMP JUMPDEST SWAP1 PUSH1 0x0 MSTORE PUSH1 0x20 PUSH1 0x0 KECCAK256 SWAP1 PUSH1 0x1F ADD PUSH1 0x20 SWAP1 DIV DUP2 ADD SWAP3 DUP3 PUSH2 0x49A JUMPI PUSH1 0x0 DUP6 SSTORE PUSH2 0x4E1 JUMP JUMPDEST DUP3 PUSH1 0x1F LT PUSH2 0x4B3 JUMPI DUP1 MLOAD PUSH1 0xFF NOT AND DUP4 DUP1 ADD OR DUP6 SSTORE PUSH2 0x4E1 JUMP JUMPDEST DUP3 DUP1 ADD PUSH1 0x1 ADD DUP6 SSTORE DUP3 ISZERO PUSH2 0x4E1 JUMPI SWAP2 DUP3 ADD JUMPDEST DUP3 DUP2 GT ISZERO PUSH2 0x4E0 JUMPI DUP3 MLOAD DUP3 SSTORE SWAP2 PUSH1 0x20 ADD SWAP2 SWAP1 PUSH1 0x1 ADD SWAP1 PUSH2 0x4C5 JUMP JUMPDEST JUMPDEST POP SWAP1 POP PUSH2 0x4EE SWAP2 SWAP1 PUSH2 0x57C JUMP JUMPDEST POP SWAP1 JUMP JUMPDEST DUP3 DUP1 SLOAD DUP3 DUP3 SSTORE SWAP1 PUSH1 0x0 MSTORE PUSH1 0x20 PUSH1 0x0 KECCAK256 SWAP1 DUP2 ADD SWAP3 DUP3 ISZERO PUSH2 0x56B JUMPI SWAP2 PUSH1 0x20 MUL DUP3 ADD JUMPDEST DUP3 DUP2 GT ISZERO PUSH2 0x56A JUMPI DUP3 MLOAD DUP3 PUSH1 0x0 PUSH2 0x100 EXP DUP2 SLOAD DUP2 PUSH20 0xFFFFFFFFFFFFFFFFFFFFFFFFFFFFFFFFFFFFFFFF MUL NOT AND SWAP1 DUP4 PUSH20 0xFFFFFFFFFFFFFFFFFFFFFFFFFFFFFFFFFFFFFFFF AND MUL OR SWAP1 SSTORE POP SWAP2 PUSH1 0x20 ADD SWAP2 SWAP1 PUSH1 0x1 ADD SWAP1 PUSH2 0x512 JUMP JUMPDEST JUMPDEST POP SWAP1 POP PUSH2 0x578 SWAP2 SWAP1 PUSH2 0x57C JUMP JUMPDEST POP SWAP1 JUMP JUMPDEST JUMPDEST DUP1 DUP3 GT ISZERO PUSH2 0x595 JUMPI PUSH1 0x0 DUP2 PUSH1 0x0 SWAP1 SSTORE POP PUSH1 0x1 ADD PUSH2 0x57D JUMP JUMPDEST POP SWAP1 JUMP JUMPDEST PUSH1 0x0 PUSH1 0x40 MLOAD SWAP1 POP SWAP1 JUMP JUMPDEST PUSH1 0x0 DUP1 REVERT JUMPDEST PUSH1 0x0 DUP1 REVERT JUMPDEST PUSH1 0x0 DUP2 SWAP1 POP SWAP2 SWAP1 POP JUMP JUMPDEST PUSH2 0x5C0 DUP2 PUSH2 0x5AD JUMP JUMPDEST DUP2 EQ PUSH2 0x5CB JUMPI PUSH1 0x0 DUP1 REVERT JUMPDEST POP JUMP JUMPDEST PUSH1 0x0 DUP2 CALLDATALOAD SWAP1 POP PUSH2 0x5DD DUP2 PUSH2 0x5B7 JUMP JUMPDEST SWAP3 SWAP2 POP POP JUMP JUMPDEST PUSH1 0x0 PUSH1 0x20 DUP3 DUP5 SUB SLT ISZERO PUSH2 0x5F9 JUMPI PUSH2 0x5F8 PUSH2 0x5A3 JUMP JUMPDEST JUMPDEST PUSH1 0x0 PUSH2 0x607 DUP5 DUP3 DUP6 ADD PUSH2 0x5CE JUMP JUMPDEST SWAP2 POP POP SWAP3 SWAP2 POP POP JUMP JUMPDEST PUSH1 0x0 PUSH20 0xFFFFFFFFFFFFFFFFFFFFFFFFFFFFFFFFFFFFFFFF DUP3 AND SWAP1 POP SWAP2 SWAP1 POP JUMP JUMPDEST PUSH1 0x0 PUSH2 0x63B DUP3 PUSH2 0x610 JUMP JUMPDEST SWAP1 POP SWAP2 SWAP1 POP JUMP JUMPDEST PUSH2 0x64B DUP2 PUSH2 0x630 JUMP JUMPDEST DUP3 MSTORE POP POP JUMP JUMPDEST PUSH1 0x0 PUSH1 0x20 DUP3 ADD SWAP1 POP PUSH2 0x666 PUSH1 0x0 DUP4 ADD DUP5 PUSH2 0x642 JUMP JUMPDEST SWAP3 SWAP2 POP POP JUMP JUMPDEST PUSH1 0x0 DUP1 REVERT JUMPDEST PUSH1 0x0 DUP1 REVERT JUMPDEST PUSH1 0x0 PUSH1 0x1F NOT PUSH1 0x1F DUP4 ADD AND SWAP1 POP SWAP2 SWAP1 POP JUMP JUMPDEST PUSH32 0x4E487B7100000000000000000000000000000000000000000000000000000000 PUSH1 0x0 MSTORE PUSH1 0x41 PUSH1 0x4 MSTORE PUSH1 0x24 PUSH1 0x0 REVERT JUMPDEST PUSH2 0x6BF DUP3 PUSH2 0x676 JUMP JUMPDEST DUP2 ADD DUP2 DUP2 LT PUSH8 0xFFFFFFFFFFFFFFFF DUP3 GT OR ISZERO PUSH2 0x6DE JUMPI PUSH2 0x6DD PUSH2 0x687 JUMP JUMPDEST JUMPDEST DUP1 PUSH1 0x40 MSTORE POP POP POP JUMP JUMPDEST PUSH1 0x0 PUSH2 0x6F1 PUSH2 0x599 JUMP JUMPDEST SWAP1 POP PUSH2 0x6FD DUP3 DUP3 PUSH2 0x6B6 JUMP JUMPDEST SWAP2 SWAP1 POP JUMP JUMPDEST PUSH1 0x0 PUSH8 0xFFFFFFFFFFFFFFFF DUP3 GT ISZERO PUSH2 0x71D JUMPI PUSH2 0x71C PUSH2 0x687 JUMP JUMPDEST JUMPDEST PUSH2 0x726 DUP3 PUSH2 0x676 JUMP JUMPDEST SWAP1 POP PUSH1 0x20 DUP2 ADD SWAP1 POP SWAP2 SWAP1 POP JUMP JUMPDEST DUP3 DUP2 DUP4 CALLDATACOPY PUSH1 0x0 DUP4 DUP4 ADD MSTORE POP POP POP JUMP JUMPDEST PUSH1 0x0 PUSH2 0x755 PUSH2 0x750 DUP5 PUSH2 0x702 JUMP JUMPDEST PUSH2 0x6E7 JUMP JUMPDEST SWAP1 POP DUP3 DUP2 MSTORE PUSH1 0x20 DUP2 ADD DUP5 DUP5 DUP5 ADD GT ISZERO PUSH2 0x771 JUMPI PUSH2 0x770 PUSH2 0x671 JUMP JUMPDEST JUMPDEST PUSH2 0x77C DUP5 DUP3 DUP6 PUSH2 0x733 JUMP JUMPDEST POP SWAP4 SWAP3 POP POP POP JUMP JUMPDEST PUSH1 0x0 DUP3 PUSH1 0x1F DUP4 ADD SLT PUSH2 0x799 JUMPI PUSH2 0x798 PUSH2 0x66C JUMP JUMPDEST JUMPDEST DUP2 CALLDATALOAD PUSH2 0x7A9 DUP5 DUP3 PUSH1 0x20 DUP7 ADD PUSH2 0x742 JUMP JUMPDEST SWAP2 POP POP SWAP3 SWAP2 POP POP JUMP JUMPDEST PUSH1 0x0 PUSH1 0x20 DUP3 DUP5 SUB SLT ISZERO PUSH2 0x7C8 JUMPI PUSH2 0x7C7 PUSH2 0x5A3 JUMP JUMPDEST JUMPDEST PUSH1 0x0 DUP3 ADD CALLDATALOAD PUSH8 0xFFFFFFFFFFFFFFFF DUP2 GT ISZERO PUSH2 0x7E6 JUMPI PUSH2 0x7E5 PUSH2 0x5A8 JUMP JUMPDEST JUMPDEST PUSH2 0x7F2 DUP5 DUP3 DUP6 ADD PUSH2 0x784 JUMP JUMPDEST SWAP2 POP POP SWAP3 SWAP2 POP POP JUMP JUMPDEST PUSH1 0x0 DUP2 SWAP1 POP SWAP2 SWAP1 POP JUMP JUMPDEST PUSH2 0x80E DUP2 PUSH2 0x7FB JUMP JUMPDEST DUP2 EQ PUSH2 0x819 JUMPI PUSH1 0x0 DUP1 REVERT JUMPDEST POP JUMP JUMPDEST PUSH1 0x0 DUP2 CALLDATALOAD SWAP1 POP PUSH2 0x82B DUP2 PUSH2 0x805 JUMP JUMPDEST SWAP3 SWAP2 POP POP JUMP JUMPDEST PUSH1 0x0 PUSH1 0x20 DUP3 DUP5 SUB SLT ISZERO PUSH2 0x847 JUMPI PUSH2 0x846 PUSH2 0x5A3 JUMP JUMPDEST JUMPDEST PUSH1 0x0 PUSH2 0x855 DUP5 DUP3 DUP6 ADD PUSH2 0x81C JUMP JUMPDEST SWAP2 POP POP SWAP3 SWAP2 POP POP JUMP JUMPDEST PUSH1 0x0 PUSH8 0xFFFFFFFFFFFFFFFF DUP3 GT ISZERO PUSH2 0x879 JUMPI PUSH2 0x878 PUSH2 0x687 JUMP JUMPDEST JUMPDEST PUSH1 0x20 DUP3 MUL SWAP1 POP PUSH1 0x20 DUP2 ADD SWAP1 POP SWAP2 SWAP1 POP JUMP JUMPDEST PUSH1 0x0 DUP1 REVERT JUMPDEST PUSH2 0x898 DUP2 PUSH2 0x630 JUMP JUMPDEST DUP2 EQ PUSH2 0x8A3 JUMPI PUSH1 0x0 DUP1 REVERT JUMPDEST POP JUMP JUMPDEST PUSH1 0x0 DUP2 CALLDATALOAD SWAP1 POP PUSH2 0x8B5 DUP2 PUSH2 0x88F JUMP JUMPDEST SWAP3 SWAP2 POP POP JUMP JUMPDEST PUSH1 0x0 PUSH2 0x8CE PUSH2 0x8C9 DUP5 PUSH2 0x85E JUMP JUMPDEST PUSH2 0x6E7 JUMP JUMPDEST SWAP1 POP DUP1 DUP4 DUP3 MSTORE PUSH1 0x20 DUP3 ADD SWAP1 POP PUSH1 0x20 DUP5 MUL DUP4 ADD DUP6 DUP2 GT ISZERO PUSH2 0x8F1 JUMPI PUSH2 0x8F0 PUSH2 0x88A JUMP JUMPDEST JUMPDEST DUP4 JUMPDEST DUP2 DUP2 LT ISZERO PUSH2 0x91A JUMPI DUP1 PUSH2 0x906 DUP9 DUP3 PUSH2 0x8A6 JUMP JUMPDEST DUP5 MSTORE PUSH1 0x20 DUP5 ADD SWAP4 POP POP PUSH1 0x20 DUP2 ADD SWAP1 POP PUSH2 0x8F3 JUMP JUMPDEST POP POP POP SWAP4 SWAP3 POP POP POP JUMP JUMPDEST PUSH1 0x0 DUP3 PUSH1 0x1F DUP4 ADD SLT PUSH2 0x939 JUMPI PUSH2 0x938 PUSH2 0x66C JUMP JUMPDEST JUMPDEST DUP2 CALLDATALOAD PUSH2 0x949 DUP5 DUP3 PUSH1 0x20 DUP7 ADD PUSH2 0x8BB JUMP JUMPDEST SWAP2 POP POP SWAP3 SWAP2 POP POP JUMP JUMPDEST PUSH1 0x0 DUP1 PUSH1 0x40 DUP4 DUP6 SUB SLT ISZERO PUSH2 0x969 JUMPI PUSH2 0x968 PUSH2 0x5A3 JUMP JUMPDEST JUMPDEST PUSH1 0x0 DUP4 ADD CALLDATALOAD PUSH8 0xFFFFFFFFFFFFFFFF DUP2 GT ISZERO PUSH2 0x987 JUMPI PUSH2 0x986 PUSH2 0x5A8 JUMP JUMPDEST JUMPDEST PUSH2 0x993 DUP6 DUP3 DUP7 ADD PUSH2 0x924 JUMP JUMPDEST SWAP3 POP POP PUSH1 0x20 PUSH2 0x9A4 DUP6 DUP3 DUP7 ADD PUSH2 0x5CE JUMP JUMPDEST SWAP2 POP POP SWAP3 POP SWAP3 SWAP1 POP JUMP JUMPDEST PUSH1 0x0 DUP2 ISZERO ISZERO SWAP1 POP SWAP2 SWAP1 POP JUMP JUMPDEST PUSH2 0x9C3 DUP2 PUSH2 0x9AE JUMP JUMPDEST DUP3 MSTORE POP POP JUMP JUMPDEST PUSH1 0x0 PUSH1 0x20 DUP3 ADD SWAP1 POP PUSH2 0x9DE PUSH1 0x0 DUP4 ADD DUP5 PUSH2 0x9BA JUMP JUMPDEST SWAP3 SWAP2 POP POP JUMP JUMPDEST PUSH2 0x9ED DUP2 PUSH2 0x7FB JUMP JUMPDEST DUP3 MSTORE POP POP JUMP JUMPDEST PUSH1 0x0 PUSH1 0x20 DUP3 ADD SWAP1 POP PUSH2 0xA08 PUSH1 0x0 DUP4 ADD DUP5 PUSH2 0x9E4 JUMP JUMPDEST SWAP3 SWAP2 POP POP JUMP JUMPDEST PUSH1 0x0 DUP3 DUP3 MSTORE PUSH1 0x20 DUP3 ADD SWAP1 POP SWAP3 SWAP2 POP POP JUMP JUMPDEST PUSH32 0x7365656420697320616C72656164792073657400000000000000000000000000 PUSH1 0x0 DUP3 ADD MSTORE POP JUMP JUMPDEST PUSH1 0x0 PUSH2 0xA55 PUSH1 0x13 DUP4 PUSH2 0xA0E JUMP JUMPDEST SWAP2 POP PUSH2 0xA60 DUP3 PUSH2 0xA1F JUMP JUMPDEST PUSH1 0x20 DUP3 ADD SWAP1 POP SWAP2 SWAP1 POP JUMP JUMPDEST PUSH1 0x0 PUSH1 0x20 DUP3 ADD SWAP1 POP DUP2 DUP2 SUB PUSH1 0x0 DUP4 ADD MSTORE PUSH2 0xA84 DUP2 PUSH2 0xA48 JUMP JUMPDEST SWAP1 POP SWAP2 SWAP1 POP JUMP JUMPDEST PUSH32 0x6F6E6C79206D616E61676572706F6F6C2063616E2063616C6C20746869732066 PUSH1 0x0 DUP3 ADD MSTORE PUSH32 0x756E6374696F6E00000000000000000000000000000000000000000000000000 PUSH1 0x20 DUP3 ADD MSTORE POP JUMP JUMPDEST PUSH1 0x0 PUSH2 0xAE7 PUSH1 0x27 DUP4 PUSH2 0xA0E JUMP JUMPDEST SWAP2 POP PUSH2 0xAF2 DUP3 PUSH2 0xA8B JUMP JUMPDEST PUSH1 0x40 DUP3 ADD SWAP1 POP SWAP2 SWAP1 POP JUMP JUMPDEST PUSH1 0x0 PUSH1 0x20 DUP3 ADD SWAP1 POP DUP2 DUP2 SUB PUSH1 0x0 DUP4 ADD MSTORE PUSH2 0xB16 DUP2 PUSH2 0xADA JUMP JUMPDEST SWAP1 POP SWAP2 SWAP1 POP JUMP JUMPDEST PUSH32 0x4E487B7100000000000000000000000000000000000000000000000000000000 PUSH1 0x0 MSTORE PUSH1 0x11 PUSH1 0x4 MSTORE PUSH1 0x24 PUSH1 0x0 REVERT JUMPDEST PUSH1 0x0 PUSH2 0xB57 DUP3 PUSH2 0x7FB JUMP JUMPDEST SWAP2 POP PUSH2 0xB62 DUP4 PUSH2 0x7FB JUMP JUMPDEST SWAP3 POP DUP3 PUSH32 0xFFFFFFFFFFFFFFFFFFFFFFFFFFFFFFFFFFFFFFFFFFFFFFFFFFFFFFFFFFFFFFFF SUB DUP3 GT ISZERO PUSH2 0xB97 JUMPI PUSH2 0xB96 PUSH2 0xB1D JUMP JUMPDEST JUMPDEST DUP3 DUP3 ADD SWAP1 POP SWAP3 SWAP2 POP POP JUMP JUMPDEST PUSH32 0x73656564206973206E6F74207965742073657400000000000000000000000000 PUSH1 0x0 DUP3 ADD MSTORE POP JUMP JUMPDEST PUSH1 0x0 PUSH2 0xBD8 PUSH1 0x13 DUP4 PUSH2 0xA0E JUMP JUMPDEST SWAP2 POP PUSH2 0xBE3 DUP3 PUSH2 0xBA2 JUMP JUMPDEST PUSH1 0x20 DUP3 ADD SWAP1 POP SWAP2 SWAP1 POP JUMP JUMPDEST PUSH1 0x0 PUSH1 0x20 DUP3 ADD SWAP1 POP DUP2 DUP2 SUB PUSH1 0x0 DUP4 ADD MSTORE PUSH2 0xC07 DUP2 PUSH2 0xBCB JUMP JUMPDEST SWAP1 POP SWAP2 SWAP1 POP JUMP JUMPDEST PUSH32 0x646F6E6174696F6E7320617265206E6F7420636C6F7365642079657400000000 PUSH1 0x0 DUP3 ADD MSTORE POP JUMP JUMPDEST PUSH1 0x0 PUSH2 0xC44 PUSH1 0x1C DUP4 PUSH2 0xA0E JUMP JUMPDEST SWAP2 POP PUSH2 0xC4F DUP3 PUSH2 0xC0E JUMP JUMPDEST PUSH1 0x20 DUP3 ADD SWAP1 POP SWAP2 SWAP1 POP JUMP JUMPDEST PUSH1 0x0 PUSH1 0x20 DUP3 ADD SWAP1 POP DUP2 DUP2 SUB PUSH1 0x0 DUP4 ADD MSTORE PUSH2 0xC73 DUP2 PUSH2 0xC37 JUMP JUMPDEST SWAP1 POP SWAP2 SWAP1 POP JUMP JUMPDEST PUSH1 0x0 DUP2 SWAP1 POP SWAP2 SWAP1 POP JUMP JUMPDEST PUSH2 0xC95 PUSH2 0xC90 DUP3 PUSH2 0x5AD JUMP JUMPDEST PUSH2 0xC7A JUMP JUMPDEST DUP3 MSTORE POP POP JUMP JUMPDEST PUSH1 0x0 PUSH2 0xCA7 DUP3 DUP6 PUSH2 0xC84 JUMP JUMPDEST PUSH1 0x20 DUP3 ADD SWAP2 POP PUSH2 0xCB7 DUP3 DUP5 PUSH2 0xC84 JUMP JUMPDEST PUSH1 0x20 DUP3 ADD SWAP2 POP DUP2 SWAP1 POP SWAP4 SWAP3 POP POP POP JUMP JUMPDEST PUSH32 0x4E487B7100000000000000000000000000000000000000000000000000000000 PUSH1 0x0 MSTORE PUSH1 0x22 PUSH1 0x4 MSTORE PUSH1 0x24 PUSH1 0x0 REVERT JUMPDEST PUSH1 0x0 PUSH1 0x2 DUP3 DIV SWAP1 POP PUSH1 0x1 DUP3 AND DUP1 PUSH2 0xD0E JUMPI PUSH1 0x7F DUP3 AND SWAP2 POP JUMPDEST PUSH1 0x20 DUP3 LT DUP2 SUB PUSH2 0xD21 JUMPI PUSH2 0xD20 PUSH2 0xCC7 JUMP JUMPDEST JUMPDEST POP SWAP2 SWAP1 POP JUMP INVALID LOG2 PUSH5 0x6970667358 0x22 SLT KECCAK256 0xBE PUSH20 0x99C120CE28707DC2D317A729386C14395AD6B946 SWAP14 SWAP3 PUSH1 0x7B PUSH11 0x5C58F1B4EB64736F6C6343 STOP ADDMOD 0xD STOP CALLER "
				},
				"gasEstimates": {
					"creation": {
						"codeDepositCost": "684200",
						"executionCost": "73565",
						"totalCost": "757765"
					},
					"external": {
						"donors(uint256)": "4956",
						"enterLottery(address[],bytes32)": "infinite",
						"getWinner(bytes32)": "infinite",
						"managerpool()": "2577",
						"reveal(bytes32)": "infinite",
						"setSealedSeed(bytes32)": "infinite",
						"test(bytes)": "infinite"
					}
				},
				"methodIdentifiers": {
					"donors(uint256)": "4abfa163",
					"enterLottery(address[],bytes32)": "5c6b143c",
					"getWinner(bytes32)": "1e5f9149",
					"managerpool()": "dedfe223",
					"reveal(bytes32)": "701fd0f1",
					"setSealedSeed(bytes32)": "41114538",
					"test(bytes)": "2f570a23"
				}
			},
			"storageLayout": {
				"storage": [
					{
						"astId": 26,
						"contract": "contracts/Lottery.sol:Lottery",
						"label": "managerpool",
						"offset": 0,
						"slot": "0",
						"type": "t_address"
					},
					{
						"astId": 29,
						"contract": "contracts/Lottery.sol:Lottery",
						"label": "donors",
						"offset": 0,
						"slot": "1",
						"type": "t_array(t_address)dyn_storage"
					},
					{
						"astId": 31,
						"contract": "contracts/Lottery.sol:Lottery",
						"label": "sealedSeed",
						"offset": 0,
						"slot": "2",
						"type": "t_bytes_storage"
					},
					{
						"astId": 33,
						"contract": "contracts/Lottery.sol:Lottery",
						"label": "seedSet",
						"offset": 0,
						"slot": "3",
						"type": "t_bool"
					},
					{
						"astId": 35,
						"contract": "contracts/Lottery.sol:Lottery",
						"label": "donationsClosed",
						"offset": 1,
						"slot": "3",
						"type": "t_bool"
					},
					{
						"astId": 37,
						"contract": "contracts/Lottery.sol:Lottery",
						"label": "storedBlockNumber",
						"offset": 0,
						"slot": "4",
						"type": "t_uint256"
					}
				],
				"types": {
					"t_address": {
						"encoding": "inplace",
						"label": "address",
						"numberOfBytes": "20"
					},
					"t_array(t_address)dyn_storage": {
						"base": "t_address",
						"encoding": "dynamic_array",
						"label": "address[]",
						"numberOfBytes": "32"
					},
					"t_bool": {
						"encoding": "inplace",
						"label": "bool",
						"numberOfBytes": "1"
					},
					"t_bytes_storage": {
						"encoding": "bytes",
						"label": "bytes",
						"numberOfBytes": "32"
					},
					"t_uint256": {
						"encoding": "inplace",
						"label": "uint256",
						"numberOfBytes": "32"
					}
				}
			},
			"userdoc": {
				"kind": "user",
				"methods": {},
				"version": 1
			}
		}
	}
}