{
	"contracts/Lottery.sol": {
		"Lottery": {
			"abi": [
				{
					"inputs": [],
					"stateMutability": "nonpayable",
					"type": "constructor"
				},
				{
					"inputs": [
						{
							"internalType": "uint256",
							"name": "",
							"type": "uint256"
						}
					],
					"name": "donors",
					"outputs": [
						{
							"internalType": "address",
							"name": "",
							"type": "address"
						}
					],
					"stateMutability": "view",
					"type": "function"
				},
				{
					"inputs": [
						{
							"internalType": "address[]",
							"name": "_donators",
							"type": "address[]"
						}
					],
					"name": "enterLottery",
					"outputs": [
						{
							"internalType": "bool",
							"name": "",
							"type": "bool"
						}
					],
					"stateMutability": "nonpayable",
					"type": "function"
				},
				{
					"inputs": [
						{
							"internalType": "bytes32",
							"name": "_seed",
							"type": "bytes32"
						}
					],
					"name": "getWinner",
					"outputs": [
						{
							"internalType": "address",
							"name": "",
							"type": "address"
						}
					],
					"stateMutability": "nonpayable",
					"type": "function"
				},
				{
					"inputs": [],
					"name": "managerpool",
					"outputs": [
						{
							"internalType": "address",
							"name": "",
							"type": "address"
						}
					],
					"stateMutability": "view",
					"type": "function"
				},
				{
					"inputs": [],
					"name": "random",
					"outputs": [
						{
							"internalType": "uint256",
							"name": "",
							"type": "uint256"
						}
					],
					"stateMutability": "view",
					"type": "function"
				},
				{
					"inputs": [
						{
							"internalType": "bytes32",
							"name": "_seed",
							"type": "bytes32"
						}
					],
					"name": "reveal",
					"outputs": [
						{
							"internalType": "uint256",
							"name": "",
							"type": "uint256"
						}
					],
					"stateMutability": "nonpayable",
					"type": "function"
				},
				{
					"inputs": [
						{
							"internalType": "bytes32",
							"name": "_sealedSeed",
							"type": "bytes32"
						}
					],
					"name": "setSealedSeed",
					"outputs": [],
					"stateMutability": "nonpayable",
					"type": "function"
				},
				{
					"inputs": [
						{
							"internalType": "bytes32",
							"name": "_test",
							"type": "bytes32"
						}
					],
					"name": "test",
					"outputs": [
						{
							"internalType": "bool",
							"name": "",
							"type": "bool"
						}
					],
					"stateMutability": "nonpayable",
					"type": "function"
				}
			],
			"devdoc": {
				"kind": "dev",
				"methods": {},
				"version": 1
			},
			"evm": {
				"assembly": "    /* \"contracts/Lottery.sol\":92:2445  contract Lottery is ILottery{... */\n  mstore(0x40, 0x80)\n    /* \"contracts/Lottery.sol\":344:463  constructor(){... */\n  callvalue\n  dup1\n  iszero\n  tag_1\n  jumpi\n  0x00\n  dup1\n  revert\ntag_1:\n  pop\n    /* \"contracts/Lottery.sol\":382:392  msg.sender */\n  caller\n    /* \"contracts/Lottery.sol\":368:379  managerpool */\n  0x00\n  dup1\n    /* \"contracts/Lottery.sol\":368:392  managerpool = msg.sender */\n  0x0100\n  exp\n  dup2\n  sload\n  dup2\n  0xffffffffffffffffffffffffffffffffffffffff\n  mul\n  not\n  and\n  swap1\n  dup4\n  0xffffffffffffffffffffffffffffffffffffffff\n  and\n  mul\n  or\n  swap1\n  sstore\n  pop\n    /* \"contracts/Lottery.sol\":414:419  false */\n  0x00\n    /* \"contracts/Lottery.sol\":404:411  seedSet */\n  0x03\n  0x00\n    /* \"contracts/Lottery.sol\":404:419  seedSet = false */\n  0x0100\n  exp\n  dup2\n  sload\n  dup2\n  0xff\n  mul\n  not\n  and\n  swap1\n  dup4\n  iszero\n  iszero\n  mul\n  or\n  swap1\n  sstore\n  pop\n    /* \"contracts/Lottery.sol\":448:453  false */\n  0x00\n    /* \"contracts/Lottery.sol\":430:445  donationsClosed */\n  0x03\n  0x01\n    /* \"contracts/Lottery.sol\":430:453  donationsClosed = false */\n  0x0100\n  exp\n  dup2\n  sload\n  dup2\n  0xff\n  mul\n  not\n  and\n  swap1\n  dup4\n  iszero\n  iszero\n  mul\n  or\n  swap1\n  sstore\n  pop\n    /* \"contracts/Lottery.sol\":92:2445  contract Lottery is ILottery{... */\n  dataSize(sub_0)\n  dup1\n  dataOffset(sub_0)\n  0x00\n  codecopy\n  0x00\n  return\nstop\n\nsub_0: assembly {\n        /* \"contracts/Lottery.sol\":92:2445  contract Lottery is ILottery{... */\n      mstore(0x40, 0x80)\n      callvalue\n      dup1\n      iszero\n      tag_1\n      jumpi\n      0x00\n      dup1\n      revert\n    tag_1:\n      pop\n      jumpi(tag_2, lt(calldatasize, 0x04))\n      shr(0xe0, calldataload(0x00))\n      dup1\n      0x701fd0f1\n      gt\n      tag_11\n      jumpi\n      dup1\n      0x701fd0f1\n      eq\n      tag_7\n      jumpi\n      dup1\n      0x99372321\n      eq\n      tag_8\n      jumpi\n      dup1\n      0xc129800d\n      eq\n      tag_9\n      jumpi\n      dup1\n      0xdedfe223\n      eq\n      tag_10\n      jumpi\n      jump(tag_2)\n    tag_11:\n      dup1\n      0x1e5f9149\n      eq\n      tag_3\n      jumpi\n      dup1\n      0x41114538\n      eq\n      tag_4\n      jumpi\n      dup1\n      0x4abfa163\n      eq\n      tag_5\n      jumpi\n      dup1\n      0x5ec01e4d\n      eq\n      tag_6\n      jumpi\n    tag_2:\n      0x00\n      dup1\n      revert\n        /* \"contracts/Lottery.sol\":909:1131  function getWinner(bytes32 _seed) external returns(address){... */\n    tag_3:\n      tag_12\n      0x04\n      dup1\n      calldatasize\n      sub\n      dup2\n      add\n      swap1\n      tag_13\n      swap2\n      swap1\n      tag_14\n      jump\t// in\n    tag_13:\n      tag_15\n      jump\t// in\n    tag_12:\n      mload(0x40)\n      tag_16\n      swap2\n      swap1\n      tag_17\n      jump\t// in\n    tag_16:\n      mload(0x40)\n      dup1\n      swap2\n      sub\n      swap1\n      return\n        /* \"contracts/Lottery.sol\":1139:1483  function setSealedSeed(bytes32 _sealedSeed) public {... */\n    tag_4:\n      tag_18\n      0x04\n      dup1\n      calldatasize\n      sub\n      dup2\n      add\n      swap1\n      tag_19\n      swap2\n      swap1\n      tag_14\n      jump\t// in\n    tag_19:\n      tag_20\n      jump\t// in\n    tag_18:\n      stop\n        /* \"contracts/Lottery.sol\":161:184  address[] public donors */\n    tag_5:\n      tag_21\n      0x04\n      dup1\n      calldatasize\n      sub\n      dup2\n      add\n      swap1\n      tag_22\n      swap2\n      swap1\n      tag_23\n      jump\t// in\n    tag_22:\n      tag_24\n      jump\t// in\n    tag_21:\n      mload(0x40)\n      tag_25\n      swap2\n      swap1\n      tag_17\n      jump\t// in\n    tag_25:\n      mload(0x40)\n      dup1\n      swap2\n      sub\n      swap1\n      return\n        /* \"contracts/Lottery.sol\":2186:2440  function random() public view returns (uint){... */\n    tag_6:\n      tag_26\n      tag_27\n      jump\t// in\n    tag_26:\n      mload(0x40)\n      tag_28\n      swap2\n      swap1\n      tag_29\n      jump\t// in\n    tag_28:\n      mload(0x40)\n      dup1\n      swap2\n      sub\n      swap1\n      return\n        /* \"contracts/Lottery.sol\":1491:1976  function reveal(bytes32 _seed) public returns (uint){... */\n    tag_7:\n      tag_30\n      0x04\n      dup1\n      calldatasize\n      sub\n      dup2\n      add\n      swap1\n      tag_31\n      swap2\n      swap1\n      tag_14\n      jump\t// in\n    tag_31:\n      tag_32\n      jump\t// in\n    tag_30:\n      mload(0x40)\n      tag_33\n      swap2\n      swap1\n      tag_29\n      jump\t// in\n    tag_33:\n      mload(0x40)\n      dup1\n      swap2\n      sub\n      swap1\n      return\n        /* \"contracts/Lottery.sol\":2009:2140  function test(bytes32 _test) public returns(bool) {... */\n    tag_8:\n      tag_34\n      0x04\n      dup1\n      calldatasize\n      sub\n      dup2\n      add\n      swap1\n      tag_35\n      swap2\n      swap1\n      tag_14\n      jump\t// in\n    tag_35:\n      tag_36\n      jump\t// in\n    tag_34:\n      mload(0x40)\n      tag_37\n      swap2\n      swap1\n      tag_38\n      jump\t// in\n    tag_37:\n      mload(0x40)\n      dup1\n      swap2\n      sub\n      swap1\n      return\n        /* \"contracts/Lottery.sol\":700:834  function enterLottery(address[] memory _donators) external returns (bool){... */\n    tag_9:\n      tag_39\n      0x04\n      dup1\n      calldatasize\n      sub\n      dup2\n      add\n      swap1\n      tag_40\n      swap2\n      swap1\n      tag_41\n      jump\t// in\n    tag_40:\n      tag_42\n      jump\t// in\n    tag_39:\n      mload(0x40)\n      tag_43\n      swap2\n      swap1\n      tag_38\n      jump\t// in\n    tag_43:\n      mload(0x40)\n      dup1\n      swap2\n      sub\n      swap1\n      return\n        /* \"contracts/Lottery.sol\":127:153  address public managerpool */\n    tag_10:\n      tag_44\n      tag_45\n      jump\t// in\n    tag_44:\n      mload(0x40)\n      tag_46\n      swap2\n      swap1\n      tag_17\n      jump\t// in\n    tag_46:\n      mload(0x40)\n      dup1\n      swap2\n      sub\n      swap1\n      return\n        /* \"contracts/Lottery.sol\":909:1131  function getWinner(bytes32 _seed) external returns(address){... */\n    tag_15:\n        /* \"contracts/Lottery.sol\":960:967  address */\n      0x00\n        /* \"contracts/Lottery.sol\":1020:1037  uint numberwinner */\n      dup1\n        /* \"contracts/Lottery.sol\":1040:1048  random() */\n      tag_48\n        /* \"contracts/Lottery.sol\":1040:1046  random */\n      tag_27\n        /* \"contracts/Lottery.sol\":1040:1048  random() */\n      jump\t// in\n    tag_48:\n        /* \"contracts/Lottery.sol\":1020:1048  uint numberwinner = random() */\n      swap1\n      pop\n        /* \"contracts/Lottery.sol\":1060:1074  address winner */\n      0x00\n        /* \"contracts/Lottery.sol\":1077:1083  donors */\n      0x01\n        /* \"contracts/Lottery.sol\":1084:1096  numberwinner */\n      dup3\n        /* \"contracts/Lottery.sol\":1077:1097  donors[numberwinner] */\n      dup2\n      sload\n      dup2\n      lt\n      tag_49\n      jumpi\n      tag_50\n      tag_51\n      jump\t// in\n    tag_50:\n    tag_49:\n      swap1\n      0x00\n      mstore\n      keccak256(0x00, 0x20)\n      add\n      0x00\n      swap1\n      sload\n      swap1\n      0x0100\n      exp\n      swap1\n      div\n      0xffffffffffffffffffffffffffffffffffffffff\n      and\n        /* \"contracts/Lottery.sol\":1060:1097  address winner = donors[numberwinner] */\n      swap1\n      pop\n        /* \"contracts/Lottery.sol\":1116:1122  winner */\n      dup1\n        /* \"contracts/Lottery.sol\":1109:1122  return winner */\n      swap3\n      pop\n      pop\n      pop\n        /* \"contracts/Lottery.sol\":909:1131  function getWinner(bytes32 _seed) external returns(address){... */\n      swap2\n      swap1\n      pop\n      jump\t// out\n        /* \"contracts/Lottery.sol\":1139:1483  function setSealedSeed(bytes32 _sealedSeed) public {... */\n    tag_20:\n        /* \"contracts/Lottery.sol\":1211:1218  seedSet */\n      0x03\n      0x00\n      swap1\n      sload\n      swap1\n      0x0100\n      exp\n      swap1\n      div\n      0xff\n      and\n        /* \"contracts/Lottery.sol\":1210:1218  !seedSet */\n      iszero\n        /* \"contracts/Lottery.sol\":1201:1242  require (!seedSet, \"seed is already set\") */\n      tag_54\n      jumpi\n      mload(0x40)\n      0x08c379a000000000000000000000000000000000000000000000000000000000\n      dup2\n      mstore\n      0x04\n      add\n      tag_55\n      swap1\n      tag_56\n      jump\t// in\n    tag_55:\n      mload(0x40)\n      dup1\n      swap2\n      sub\n      swap1\n      revert\n    tag_54:\n        /* \"contracts/Lottery.sol\":1276:1287  managerpool */\n      0x00\n      dup1\n      sload\n      swap1\n      0x0100\n      exp\n      swap1\n      div\n      0xffffffffffffffffffffffffffffffffffffffff\n      and\n        /* \"contracts/Lottery.sol\":1262:1287  msg.sender == managerpool */\n      0xffffffffffffffffffffffffffffffffffffffff\n      and\n        /* \"contracts/Lottery.sol\":1262:1272  msg.sender */\n      caller\n        /* \"contracts/Lottery.sol\":1262:1287  msg.sender == managerpool */\n      0xffffffffffffffffffffffffffffffffffffffff\n      and\n      eq\n        /* \"contracts/Lottery.sol\":1253:1331  require (msg.sender == managerpool, \"only managerpool can call this function\") */\n      tag_57\n      jumpi\n      mload(0x40)\n      0x08c379a000000000000000000000000000000000000000000000000000000000\n      dup2\n      mstore\n      0x04\n      add\n      tag_58\n      swap1\n      tag_59\n      jump\t// in\n    tag_58:\n      mload(0x40)\n      dup1\n      swap2\n      sub\n      swap1\n      revert\n    tag_57:\n        /* \"contracts/Lottery.sol\":1360:1364  true */\n      0x01\n        /* \"contracts/Lottery.sol\":1342:1357  donationsClosed */\n      0x03\n      0x01\n        /* \"contracts/Lottery.sol\":1342:1364  donationsClosed = true */\n      0x0100\n      exp\n      dup2\n      sload\n      dup2\n      0xff\n      mul\n      not\n      and\n      swap1\n      dup4\n      iszero\n      iszero\n      mul\n      or\n      swap1\n      sstore\n      pop\n        /* \"contracts/Lottery.sol\":1389:1400  _sealedSeed */\n      dup1\n        /* \"contracts/Lottery.sol\":1376:1386  sealedSeed */\n      0x02\n        /* \"contracts/Lottery.sol\":1376:1400  sealedSeed = _sealedSeed */\n      dup2\n      swap1\n      sstore\n      pop\n        /* \"contracts/Lottery.sol\":1447:1448  1 */\n      0x01\n        /* \"contracts/Lottery.sol\":1432:1444  block.number */\n      number\n        /* \"contracts/Lottery.sol\":1432:1448  block.number + 1 */\n      tag_60\n      swap2\n      swap1\n      tag_61\n      jump\t// in\n    tag_60:\n        /* \"contracts/Lottery.sol\":1412:1429  storedBlockNumber */\n      0x04\n        /* \"contracts/Lottery.sol\":1412:1448  storedBlockNumber = block.number + 1 */\n      dup2\n      swap1\n      sstore\n      pop\n        /* \"contracts/Lottery.sol\":1470:1474  true */\n      0x01\n        /* \"contracts/Lottery.sol\":1460:1467  seedSet */\n      0x03\n      0x00\n        /* \"contracts/Lottery.sol\":1460:1474  seedSet = true */\n      0x0100\n      exp\n      dup2\n      sload\n      dup2\n      0xff\n      mul\n      not\n      and\n      swap1\n      dup4\n      iszero\n      iszero\n      mul\n      or\n      swap1\n      sstore\n      pop\n        /* \"contracts/Lottery.sol\":1139:1483  function setSealedSeed(bytes32 _sealedSeed) public {... */\n      pop\n      jump\t// out\n        /* \"contracts/Lottery.sol\":161:184  address[] public donors */\n    tag_24:\n      0x01\n      dup2\n      dup2\n      sload\n      dup2\n      lt\n      tag_62\n      jumpi\n      0x00\n      dup1\n      revert\n    tag_62:\n      swap1\n      0x00\n      mstore\n      keccak256(0x00, 0x20)\n      add\n      0x00\n      swap2\n      pop\n      sload\n      swap1\n      0x0100\n      exp\n      swap1\n      div\n      0xffffffffffffffffffffffffffffffffffffffff\n      and\n      dup2\n      jump\t// out\n        /* \"contracts/Lottery.sol\":2186:2440  function random() public view returns (uint){... */\n    tag_27:\n        /* \"contracts/Lottery.sol\":2225:2229  uint */\n      0x00\n        /* \"contracts/Lottery.sol\":2241:2256  uint thisrandom */\n      dup1\n        /* \"contracts/Lottery.sol\":2313:2329  block.difficulty */\n      difficulty\n        /* \"contracts/Lottery.sol\":2331:2346  block.timestamp */\n      timestamp\n        /* \"contracts/Lottery.sol\":2348:2354  donors */\n      0x01\n        /* \"contracts/Lottery.sol\":2296:2355  abi.encodePacked(block.difficulty, block.timestamp, donors) */\n      add(0x20, mload(0x40))\n      tag_65\n      swap4\n      swap3\n      swap2\n      swap1\n      tag_66\n      jump\t// in\n    tag_65:\n      mload(0x40)\n      0x20\n      dup2\n      dup4\n      sub\n      sub\n      dup2\n      mstore\n      swap1\n      0x40\n      mstore\n        /* \"contracts/Lottery.sol\":2286:2356  keccak256(abi.encodePacked(block.difficulty, block.timestamp, donors)) */\n      dup1\n      mload\n      swap1\n      0x20\n      add\n      keccak256\n        /* \"contracts/Lottery.sol\":2281:2357  uint(keccak256(abi.encodePacked(block.difficulty, block.timestamp, donors))) */\n      0x00\n      shr\n        /* \"contracts/Lottery.sol\":2268:2357  thisrandom = uint(keccak256(abi.encodePacked(block.difficulty, block.timestamp, donors))) */\n      swap1\n      pop\n        /* \"contracts/Lottery.sol\":2368:2379  uint winner */\n      0x00\n        /* \"contracts/Lottery.sol\":2393:2399  donors */\n      0x01\n        /* \"contracts/Lottery.sol\":2393:2406  donors.length */\n      dup1\n      sload\n      swap1\n      pop\n        /* \"contracts/Lottery.sol\":2382:2392  thisrandom */\n      dup3\n        /* \"contracts/Lottery.sol\":2382:2406  thisrandom%donors.length */\n      tag_67\n      swap2\n      swap1\n      tag_68\n      jump\t// in\n    tag_67:\n        /* \"contracts/Lottery.sol\":2368:2406  uint winner = thisrandom%donors.length */\n      swap1\n      pop\n        /* \"contracts/Lottery.sol\":2425:2431  winner */\n      dup1\n        /* \"contracts/Lottery.sol\":2418:2431  return winner */\n      swap3\n      pop\n      pop\n      pop\n        /* \"contracts/Lottery.sol\":2186:2440  function random() public view returns (uint){... */\n      swap1\n      jump\t// out\n        /* \"contracts/Lottery.sol\":1491:1976  function reveal(bytes32 _seed) public returns (uint){... */\n    tag_32:\n        /* \"contracts/Lottery.sol\":1538:1542  uint */\n      0x00\n        /* \"contracts/Lottery.sol\":1562:1569  seedSet */\n      0x03\n      0x00\n      swap1\n      sload\n      swap1\n      0x0100\n      exp\n      swap1\n      div\n      0xff\n      and\n        /* \"contracts/Lottery.sol\":1554:1593  require(seedSet, \"seed is not yet set\") */\n      tag_70\n      jumpi\n      mload(0x40)\n      0x08c379a000000000000000000000000000000000000000000000000000000000\n      dup2\n      mstore\n      0x04\n      add\n      tag_71\n      swap1\n      tag_72\n      jump\t// in\n    tag_71:\n      mload(0x40)\n      dup1\n      swap2\n      sub\n      swap1\n      revert\n    tag_70:\n        /* \"contracts/Lottery.sol\":1613:1628  donationsClosed */\n      0x03\n      0x01\n      swap1\n      sload\n      swap1\n      0x0100\n      exp\n      swap1\n      div\n      0xff\n      and\n        /* \"contracts/Lottery.sol\":1605:1661  require(donationsClosed, \"donations are not closed yet\") */\n      tag_73\n      jumpi\n      mload(0x40)\n      0x08c379a000000000000000000000000000000000000000000000000000000000\n      dup2\n      mstore\n      0x04\n      add\n      tag_74\n      swap1\n      tag_75\n      jump\t// in\n    tag_74:\n      mload(0x40)\n      dup1\n      swap2\n      sub\n      swap1\n      revert\n    tag_73:\n        /* \"contracts/Lottery.sol\":1701:1713  block.number */\n      number\n        /* \"contracts/Lottery.sol\":1681:1698  storedBlockNumber */\n      sload(0x04)\n        /* \"contracts/Lottery.sol\":1681:1713  storedBlockNumber < block.number */\n      lt\n        /* \"contracts/Lottery.sol\":1673:1714  require(storedBlockNumber < block.number) */\n      tag_76\n      jumpi\n      0x00\n      dup1\n      revert\n    tag_76:\n        /* \"contracts/Lottery.sol\":1777:1787  sealedSeed */\n      sload(0x02)\n        /* \"contracts/Lottery.sol\":1755:1765  msg.sender */\n      caller\n        /* \"contracts/Lottery.sol\":1767:1772  _seed */\n      dup4\n        /* \"contracts/Lottery.sol\":1744:1773  abi.encode(msg.sender, _seed) */\n      add(0x20, mload(0x40))\n      tag_77\n      swap3\n      swap2\n      swap1\n      tag_78\n      jump\t// in\n    tag_77:\n      mload(0x40)\n      0x20\n      dup2\n      dup4\n      sub\n      sub\n      dup2\n      mstore\n      swap1\n      0x40\n      mstore\n        /* \"contracts/Lottery.sol\":1734:1774  keccak256(abi.encode(msg.sender, _seed)) */\n      dup1\n      mload\n      swap1\n      0x20\n      add\n      keccak256\n        /* \"contracts/Lottery.sol\":1734:1787  keccak256(abi.encode(msg.sender, _seed))== sealedSeed */\n      eq\n        /* \"contracts/Lottery.sol\":1726:1788  require(keccak256(abi.encode(msg.sender, _seed))== sealedSeed) */\n      tag_79\n      jumpi\n      0x00\n      dup1\n      revert\n    tag_79:\n        /* \"contracts/Lottery.sol\":1800:1811  uint random */\n      0x00\n        /* \"contracts/Lottery.sol\":1840:1845  _seed */\n      dup3\n        /* \"contracts/Lottery.sol\":1857:1874  storedBlockNumber */\n      sload(0x04)\n        /* \"contracts/Lottery.sol\":1847:1875  blockhash(storedBlockNumber) */\n      blockhash\n        /* \"contracts/Lottery.sol\":1829:1876  abi.encode(_seed, blockhash(storedBlockNumber)) */\n      add(0x20, mload(0x40))\n      tag_80\n      swap3\n      swap2\n      swap1\n      tag_81\n      jump\t// in\n    tag_80:\n      mload(0x40)\n      0x20\n      dup2\n      dup4\n      sub\n      sub\n      dup2\n      mstore\n      swap1\n      0x40\n      mstore\n        /* \"contracts/Lottery.sol\":1819:1877  keccak256(abi.encode(_seed, blockhash(storedBlockNumber))) */\n      dup1\n      mload\n      swap1\n      0x20\n      add\n      keccak256\n        /* \"contracts/Lottery.sol\":1814:1878  uint(keccak256(abi.encode(_seed, blockhash(storedBlockNumber)))) */\n      0x00\n      shr\n        /* \"contracts/Lottery.sol\":1800:1878  uint random = uint(keccak256(abi.encode(_seed, blockhash(storedBlockNumber)))) */\n      swap1\n      pop\n        /* \"contracts/Lottery.sol\":1961:1967  random */\n      dup1\n        /* \"contracts/Lottery.sol\":1954:1967  return random */\n      swap2\n      pop\n      pop\n        /* \"contracts/Lottery.sol\":1491:1976  function reveal(bytes32 _seed) public returns (uint){... */\n      swap2\n      swap1\n      pop\n      jump\t// out\n        /* \"contracts/Lottery.sol\":2009:2140  function test(bytes32 _test) public returns(bool) {... */\n    tag_36:\n        /* \"contracts/Lottery.sol\":2053:2057  bool */\n      0x00\n        /* \"contracts/Lottery.sol\":2127:2131  true */\n      0x01\n        /* \"contracts/Lottery.sol\":2120:2131  return true */\n      swap1\n      pop\n        /* \"contracts/Lottery.sol\":2009:2140  function test(bytes32 _test) public returns(bool) {... */\n      swap2\n      swap1\n      pop\n      jump\t// out\n        /* \"contracts/Lottery.sol\":700:834  function enterLottery(address[] memory _donators) external returns (bool){... */\n    tag_42:\n        /* \"contracts/Lottery.sol\":768:772  bool */\n      0x00\n        /* \"contracts/Lottery.sol\":793:802  _donators */\n      dup2\n        /* \"contracts/Lottery.sol\":784:790  donors */\n      0x01\n        /* \"contracts/Lottery.sol\":784:802  donors = _donators */\n      swap1\n      dup1\n      mload\n      swap1\n      0x20\n      add\n      swap1\n      tag_84\n      swap3\n      swap2\n      swap1\n      tag_85\n      jump\t// in\n    tag_84:\n      pop\n        /* \"contracts/Lottery.sol\":821:825  true */\n      0x01\n        /* \"contracts/Lottery.sol\":814:825  return true */\n      swap1\n      pop\n        /* \"contracts/Lottery.sol\":700:834  function enterLottery(address[] memory _donators) external returns (bool){... */\n      swap2\n      swap1\n      pop\n      jump\t// out\n        /* \"contracts/Lottery.sol\":127:153  address public managerpool */\n    tag_45:\n      0x00\n      dup1\n      sload\n      swap1\n      0x0100\n      exp\n      swap1\n      div\n      0xffffffffffffffffffffffffffffffffffffffff\n      and\n      dup2\n      jump\t// out\n    tag_85:\n      dup3\n      dup1\n      sload\n      dup3\n      dup3\n      sstore\n      swap1\n      0x00\n      mstore\n      keccak256(0x00, 0x20)\n      swap1\n      dup2\n      add\n      swap3\n      dup3\n      iszero\n      tag_86\n      jumpi\n      swap2\n      0x20\n      mul\n      dup3\n      add\n    tag_87:\n      dup3\n      dup2\n      gt\n      iszero\n      tag_88\n      jumpi\n      dup3\n      mload\n      dup3\n      exp(0x0100, 0x00)\n      dup2\n      sload\n      dup2\n      0xffffffffffffffffffffffffffffffffffffffff\n      mul\n      not\n      and\n      swap1\n      dup4\n      0xffffffffffffffffffffffffffffffffffffffff\n      and\n      mul\n      or\n      swap1\n      sstore\n      pop\n      swap2\n      0x20\n      add\n      swap2\n      swap1\n      0x01\n      add\n      swap1\n      jump(tag_87)\n    tag_88:\n    tag_86:\n      pop\n      swap1\n      pop\n      tag_89\n      swap2\n      swap1\n      tag_90\n      jump\t// in\n    tag_89:\n      pop\n      swap1\n      jump\t// out\n    tag_90:\n    tag_91:\n      dup1\n      dup3\n      gt\n      iszero\n      tag_92\n      jumpi\n      0x00\n      dup2\n      0x00\n      swap1\n      sstore\n      pop\n      0x01\n      add\n      jump(tag_91)\n    tag_92:\n      pop\n      swap1\n      jump\t// out\n        /* \"#utility.yul\":7:82   */\n    tag_93:\n        /* \"#utility.yul\":40:46   */\n      0x00\n        /* \"#utility.yul\":73:75   */\n      0x40\n        /* \"#utility.yul\":67:76   */\n      mload\n        /* \"#utility.yul\":57:76   */\n      swap1\n      pop\n        /* \"#utility.yul\":7:82   */\n      swap1\n      jump\t// out\n        /* \"#utility.yul\":88:205   */\n    tag_94:\n        /* \"#utility.yul\":197:198   */\n      0x00\n        /* \"#utility.yul\":194:195   */\n      dup1\n        /* \"#utility.yul\":187:199   */\n      revert\n        /* \"#utility.yul\":211:328   */\n    tag_95:\n        /* \"#utility.yul\":320:321   */\n      0x00\n        /* \"#utility.yul\":317:318   */\n      dup1\n        /* \"#utility.yul\":310:322   */\n      revert\n        /* \"#utility.yul\":334:411   */\n    tag_96:\n        /* \"#utility.yul\":371:378   */\n      0x00\n        /* \"#utility.yul\":400:405   */\n      dup2\n        /* \"#utility.yul\":389:405   */\n      swap1\n      pop\n        /* \"#utility.yul\":334:411   */\n      swap2\n      swap1\n      pop\n      jump\t// out\n        /* \"#utility.yul\":417:539   */\n    tag_97:\n        /* \"#utility.yul\":490:514   */\n      tag_150\n        /* \"#utility.yul\":508:513   */\n      dup2\n        /* \"#utility.yul\":490:514   */\n      tag_96\n      jump\t// in\n    tag_150:\n        /* \"#utility.yul\":483:488   */\n      dup2\n        /* \"#utility.yul\":480:515   */\n      eq\n        /* \"#utility.yul\":470:533   */\n      tag_151\n      jumpi\n        /* \"#utility.yul\":529:530   */\n      0x00\n        /* \"#utility.yul\":526:527   */\n      dup1\n        /* \"#utility.yul\":519:531   */\n      revert\n        /* \"#utility.yul\":470:533   */\n    tag_151:\n        /* \"#utility.yul\":417:539   */\n      pop\n      jump\t// out\n        /* \"#utility.yul\":545:684   */\n    tag_98:\n        /* \"#utility.yul\":591:596   */\n      0x00\n        /* \"#utility.yul\":629:635   */\n      dup2\n        /* \"#utility.yul\":616:636   */\n      calldataload\n        /* \"#utility.yul\":607:636   */\n      swap1\n      pop\n        /* \"#utility.yul\":645:678   */\n      tag_153\n        /* \"#utility.yul\":672:677   */\n      dup2\n        /* \"#utility.yul\":645:678   */\n      tag_97\n      jump\t// in\n    tag_153:\n        /* \"#utility.yul\":545:684   */\n      swap3\n      swap2\n      pop\n      pop\n      jump\t// out\n        /* \"#utility.yul\":690:1019   */\n    tag_14:\n        /* \"#utility.yul\":749:755   */\n      0x00\n        /* \"#utility.yul\":798:800   */\n      0x20\n        /* \"#utility.yul\":786:795   */\n      dup3\n        /* \"#utility.yul\":777:784   */\n      dup5\n        /* \"#utility.yul\":773:796   */\n      sub\n        /* \"#utility.yul\":769:801   */\n      slt\n        /* \"#utility.yul\":766:885   */\n      iszero\n      tag_155\n      jumpi\n        /* \"#utility.yul\":804:883   */\n      tag_156\n      tag_94\n      jump\t// in\n    tag_156:\n        /* \"#utility.yul\":766:885   */\n    tag_155:\n        /* \"#utility.yul\":924:925   */\n      0x00\n        /* \"#utility.yul\":949:1002   */\n      tag_157\n        /* \"#utility.yul\":994:1001   */\n      dup5\n        /* \"#utility.yul\":985:991   */\n      dup3\n        /* \"#utility.yul\":974:983   */\n      dup6\n        /* \"#utility.yul\":970:992   */\n      add\n        /* \"#utility.yul\":949:1002   */\n      tag_98\n      jump\t// in\n    tag_157:\n        /* \"#utility.yul\":939:1002   */\n      swap2\n      pop\n        /* \"#utility.yul\":895:1012   */\n      pop\n        /* \"#utility.yul\":690:1019   */\n      swap3\n      swap2\n      pop\n      pop\n      jump\t// out\n        /* \"#utility.yul\":1025:1151   */\n    tag_99:\n        /* \"#utility.yul\":1062:1069   */\n      0x00\n        /* \"#utility.yul\":1102:1144   */\n      0xffffffffffffffffffffffffffffffffffffffff\n        /* \"#utility.yul\":1095:1100   */\n      dup3\n        /* \"#utility.yul\":1091:1145   */\n      and\n        /* \"#utility.yul\":1080:1145   */\n      swap1\n      pop\n        /* \"#utility.yul\":1025:1151   */\n      swap2\n      swap1\n      pop\n      jump\t// out\n        /* \"#utility.yul\":1157:1253   */\n    tag_100:\n        /* \"#utility.yul\":1194:1201   */\n      0x00\n        /* \"#utility.yul\":1223:1247   */\n      tag_160\n        /* \"#utility.yul\":1241:1246   */\n      dup3\n        /* \"#utility.yul\":1223:1247   */\n      tag_99\n      jump\t// in\n    tag_160:\n        /* \"#utility.yul\":1212:1247   */\n      swap1\n      pop\n        /* \"#utility.yul\":1157:1253   */\n      swap2\n      swap1\n      pop\n      jump\t// out\n        /* \"#utility.yul\":1259:1377   */\n    tag_101:\n        /* \"#utility.yul\":1346:1370   */\n      tag_162\n        /* \"#utility.yul\":1364:1369   */\n      dup2\n        /* \"#utility.yul\":1346:1370   */\n      tag_100\n      jump\t// in\n    tag_162:\n        /* \"#utility.yul\":1341:1344   */\n      dup3\n        /* \"#utility.yul\":1334:1371   */\n      mstore\n        /* \"#utility.yul\":1259:1377   */\n      pop\n      pop\n      jump\t// out\n        /* \"#utility.yul\":1383:1605   */\n    tag_17:\n        /* \"#utility.yul\":1476:1480   */\n      0x00\n        /* \"#utility.yul\":1514:1516   */\n      0x20\n        /* \"#utility.yul\":1503:1512   */\n      dup3\n        /* \"#utility.yul\":1499:1517   */\n      add\n        /* \"#utility.yul\":1491:1517   */\n      swap1\n      pop\n        /* \"#utility.yul\":1527:1598   */\n      tag_164\n        /* \"#utility.yul\":1595:1596   */\n      0x00\n        /* \"#utility.yul\":1584:1593   */\n      dup4\n        /* \"#utility.yul\":1580:1597   */\n      add\n        /* \"#utility.yul\":1571:1577   */\n      dup5\n        /* \"#utility.yul\":1527:1598   */\n      tag_101\n      jump\t// in\n    tag_164:\n        /* \"#utility.yul\":1383:1605   */\n      swap3\n      swap2\n      pop\n      pop\n      jump\t// out\n        /* \"#utility.yul\":1611:1688   */\n    tag_102:\n        /* \"#utility.yul\":1648:1655   */\n      0x00\n        /* \"#utility.yul\":1677:1682   */\n      dup2\n        /* \"#utility.yul\":1666:1682   */\n      swap1\n      pop\n        /* \"#utility.yul\":1611:1688   */\n      swap2\n      swap1\n      pop\n      jump\t// out\n        /* \"#utility.yul\":1694:1816   */\n    tag_103:\n        /* \"#utility.yul\":1767:1791   */\n      tag_167\n        /* \"#utility.yul\":1785:1790   */\n      dup2\n        /* \"#utility.yul\":1767:1791   */\n      tag_102\n      jump\t// in\n    tag_167:\n        /* \"#utility.yul\":1760:1765   */\n      dup2\n        /* \"#utility.yul\":1757:1792   */\n      eq\n        /* \"#utility.yul\":1747:1810   */\n      tag_168\n      jumpi\n        /* \"#utility.yul\":1806:1807   */\n      0x00\n        /* \"#utility.yul\":1803:1804   */\n      dup1\n        /* \"#utility.yul\":1796:1808   */\n      revert\n        /* \"#utility.yul\":1747:1810   */\n    tag_168:\n        /* \"#utility.yul\":1694:1816   */\n      pop\n      jump\t// out\n        /* \"#utility.yul\":1822:1961   */\n    tag_104:\n        /* \"#utility.yul\":1868:1873   */\n      0x00\n        /* \"#utility.yul\":1906:1912   */\n      dup2\n        /* \"#utility.yul\":1893:1913   */\n      calldataload\n        /* \"#utility.yul\":1884:1913   */\n      swap1\n      pop\n        /* \"#utility.yul\":1922:1955   */\n      tag_170\n        /* \"#utility.yul\":1949:1954   */\n      dup2\n        /* \"#utility.yul\":1922:1955   */\n      tag_103\n      jump\t// in\n    tag_170:\n        /* \"#utility.yul\":1822:1961   */\n      swap3\n      swap2\n      pop\n      pop\n      jump\t// out\n        /* \"#utility.yul\":1967:2296   */\n    tag_23:\n        /* \"#utility.yul\":2026:2032   */\n      0x00\n        /* \"#utility.yul\":2075:2077   */\n      0x20\n        /* \"#utility.yul\":2063:2072   */\n      dup3\n        /* \"#utility.yul\":2054:2061   */\n      dup5\n        /* \"#utility.yul\":2050:2073   */\n      sub\n        /* \"#utility.yul\":2046:2078   */\n      slt\n        /* \"#utility.yul\":2043:2162   */\n      iszero\n      tag_172\n      jumpi\n        /* \"#utility.yul\":2081:2160   */\n      tag_173\n      tag_94\n      jump\t// in\n    tag_173:\n        /* \"#utility.yul\":2043:2162   */\n    tag_172:\n        /* \"#utility.yul\":2201:2202   */\n      0x00\n        /* \"#utility.yul\":2226:2279   */\n      tag_174\n        /* \"#utility.yul\":2271:2278   */\n      dup5\n        /* \"#utility.yul\":2262:2268   */\n      dup3\n        /* \"#utility.yul\":2251:2260   */\n      dup6\n        /* \"#utility.yul\":2247:2269   */\n      add\n        /* \"#utility.yul\":2226:2279   */\n      tag_104\n      jump\t// in\n    tag_174:\n        /* \"#utility.yul\":2216:2279   */\n      swap2\n      pop\n        /* \"#utility.yul\":2172:2289   */\n      pop\n        /* \"#utility.yul\":1967:2296   */\n      swap3\n      swap2\n      pop\n      pop\n      jump\t// out\n        /* \"#utility.yul\":2302:2420   */\n    tag_105:\n        /* \"#utility.yul\":2389:2413   */\n      tag_176\n        /* \"#utility.yul\":2407:2412   */\n      dup2\n        /* \"#utility.yul\":2389:2413   */\n      tag_102\n      jump\t// in\n    tag_176:\n        /* \"#utility.yul\":2384:2387   */\n      dup3\n        /* \"#utility.yul\":2377:2414   */\n      mstore\n        /* \"#utility.yul\":2302:2420   */\n      pop\n      pop\n      jump\t// out\n        /* \"#utility.yul\":2426:2648   */\n    tag_29:\n        /* \"#utility.yul\":2519:2523   */\n      0x00\n        /* \"#utility.yul\":2557:2559   */\n      0x20\n        /* \"#utility.yul\":2546:2555   */\n      dup3\n        /* \"#utility.yul\":2542:2560   */\n      add\n        /* \"#utility.yul\":2534:2560   */\n      swap1\n      pop\n        /* \"#utility.yul\":2570:2641   */\n      tag_178\n        /* \"#utility.yul\":2638:2639   */\n      0x00\n        /* \"#utility.yul\":2627:2636   */\n      dup4\n        /* \"#utility.yul\":2623:2640   */\n      add\n        /* \"#utility.yul\":2614:2620   */\n      dup5\n        /* \"#utility.yul\":2570:2641   */\n      tag_105\n      jump\t// in\n    tag_178:\n        /* \"#utility.yul\":2426:2648   */\n      swap3\n      swap2\n      pop\n      pop\n      jump\t// out\n        /* \"#utility.yul\":2654:2744   */\n    tag_106:\n        /* \"#utility.yul\":2688:2695   */\n      0x00\n        /* \"#utility.yul\":2731:2736   */\n      dup2\n        /* \"#utility.yul\":2724:2737   */\n      iszero\n        /* \"#utility.yul\":2717:2738   */\n      iszero\n        /* \"#utility.yul\":2706:2738   */\n      swap1\n      pop\n        /* \"#utility.yul\":2654:2744   */\n      swap2\n      swap1\n      pop\n      jump\t// out\n        /* \"#utility.yul\":2750:2859   */\n    tag_107:\n        /* \"#utility.yul\":2831:2852   */\n      tag_181\n        /* \"#utility.yul\":2846:2851   */\n      dup2\n        /* \"#utility.yul\":2831:2852   */\n      tag_106\n      jump\t// in\n    tag_181:\n        /* \"#utility.yul\":2826:2829   */\n      dup3\n        /* \"#utility.yul\":2819:2853   */\n      mstore\n        /* \"#utility.yul\":2750:2859   */\n      pop\n      pop\n      jump\t// out\n        /* \"#utility.yul\":2865:3075   */\n    tag_38:\n        /* \"#utility.yul\":2952:2956   */\n      0x00\n        /* \"#utility.yul\":2990:2992   */\n      0x20\n        /* \"#utility.yul\":2979:2988   */\n      dup3\n        /* \"#utility.yul\":2975:2993   */\n      add\n        /* \"#utility.yul\":2967:2993   */\n      swap1\n      pop\n        /* \"#utility.yul\":3003:3068   */\n      tag_183\n        /* \"#utility.yul\":3065:3066   */\n      0x00\n        /* \"#utility.yul\":3054:3063   */\n      dup4\n        /* \"#utility.yul\":3050:3067   */\n      add\n        /* \"#utility.yul\":3041:3047   */\n      dup5\n        /* \"#utility.yul\":3003:3068   */\n      tag_107\n      jump\t// in\n    tag_183:\n        /* \"#utility.yul\":2865:3075   */\n      swap3\n      swap2\n      pop\n      pop\n      jump\t// out\n        /* \"#utility.yul\":3081:3198   */\n    tag_108:\n        /* \"#utility.yul\":3190:3191   */\n      0x00\n        /* \"#utility.yul\":3187:3188   */\n      dup1\n        /* \"#utility.yul\":3180:3192   */\n      revert\n        /* \"#utility.yul\":3204:3306   */\n    tag_109:\n        /* \"#utility.yul\":3245:3251   */\n      0x00\n        /* \"#utility.yul\":3296:3298   */\n      0x1f\n        /* \"#utility.yul\":3292:3299   */\n      not\n        /* \"#utility.yul\":3287:3289   */\n      0x1f\n        /* \"#utility.yul\":3280:3285   */\n      dup4\n        /* \"#utility.yul\":3276:3290   */\n      add\n        /* \"#utility.yul\":3272:3300   */\n      and\n        /* \"#utility.yul\":3262:3300   */\n      swap1\n      pop\n        /* \"#utility.yul\":3204:3306   */\n      swap2\n      swap1\n      pop\n      jump\t// out\n        /* \"#utility.yul\":3312:3492   */\n    tag_110:\n        /* \"#utility.yul\":3360:3437   */\n      0x4e487b7100000000000000000000000000000000000000000000000000000000\n        /* \"#utility.yul\":3357:3358   */\n      0x00\n        /* \"#utility.yul\":3350:3438   */\n      mstore\n        /* \"#utility.yul\":3457:3461   */\n      0x41\n        /* \"#utility.yul\":3454:3455   */\n      0x04\n        /* \"#utility.yul\":3447:3462   */\n      mstore\n        /* \"#utility.yul\":3481:3485   */\n      0x24\n        /* \"#utility.yul\":3478:3479   */\n      0x00\n        /* \"#utility.yul\":3471:3486   */\n      revert\n        /* \"#utility.yul\":3498:3779   */\n    tag_111:\n        /* \"#utility.yul\":3581:3608   */\n      tag_188\n        /* \"#utility.yul\":3603:3607   */\n      dup3\n        /* \"#utility.yul\":3581:3608   */\n      tag_109\n      jump\t// in\n    tag_188:\n        /* \"#utility.yul\":3573:3579   */\n      dup2\n        /* \"#utility.yul\":3569:3609   */\n      add\n        /* \"#utility.yul\":3711:3717   */\n      dup2\n        /* \"#utility.yul\":3699:3709   */\n      dup2\n        /* \"#utility.yul\":3696:3718   */\n      lt\n        /* \"#utility.yul\":3675:3693   */\n      0xffffffffffffffff\n        /* \"#utility.yul\":3663:3673   */\n      dup3\n        /* \"#utility.yul\":3660:3694   */\n      gt\n        /* \"#utility.yul\":3657:3719   */\n      or\n        /* \"#utility.yul\":3654:3742   */\n      iszero\n      tag_189\n      jumpi\n        /* \"#utility.yul\":3722:3740   */\n      tag_190\n      tag_110\n      jump\t// in\n    tag_190:\n        /* \"#utility.yul\":3654:3742   */\n    tag_189:\n        /* \"#utility.yul\":3762:3772   */\n      dup1\n        /* \"#utility.yul\":3758:3760   */\n      0x40\n        /* \"#utility.yul\":3751:3773   */\n      mstore\n        /* \"#utility.yul\":3541:3779   */\n      pop\n        /* \"#utility.yul\":3498:3779   */\n      pop\n      pop\n      jump\t// out\n        /* \"#utility.yul\":3785:3914   */\n    tag_112:\n        /* \"#utility.yul\":3819:3825   */\n      0x00\n        /* \"#utility.yul\":3846:3866   */\n      tag_192\n      tag_93\n      jump\t// in\n    tag_192:\n        /* \"#utility.yul\":3836:3866   */\n      swap1\n      pop\n        /* \"#utility.yul\":3875:3908   */\n      tag_193\n        /* \"#utility.yul\":3903:3907   */\n      dup3\n        /* \"#utility.yul\":3895:3901   */\n      dup3\n        /* \"#utility.yul\":3875:3908   */\n      tag_111\n      jump\t// in\n    tag_193:\n        /* \"#utility.yul\":3785:3914   */\n      swap2\n      swap1\n      pop\n      jump\t// out\n        /* \"#utility.yul\":3920:4231   */\n    tag_113:\n        /* \"#utility.yul\":3997:4001   */\n      0x00\n        /* \"#utility.yul\":4087:4105   */\n      0xffffffffffffffff\n        /* \"#utility.yul\":4079:4085   */\n      dup3\n        /* \"#utility.yul\":4076:4106   */\n      gt\n        /* \"#utility.yul\":4073:4129   */\n      iszero\n      tag_195\n      jumpi\n        /* \"#utility.yul\":4109:4127   */\n      tag_196\n      tag_110\n      jump\t// in\n    tag_196:\n        /* \"#utility.yul\":4073:4129   */\n    tag_195:\n        /* \"#utility.yul\":4159:4163   */\n      0x20\n        /* \"#utility.yul\":4151:4157   */\n      dup3\n        /* \"#utility.yul\":4147:4164   */\n      mul\n        /* \"#utility.yul\":4139:4164   */\n      swap1\n      pop\n        /* \"#utility.yul\":4219:4223   */\n      0x20\n        /* \"#utility.yul\":4213:4217   */\n      dup2\n        /* \"#utility.yul\":4209:4224   */\n      add\n        /* \"#utility.yul\":4201:4224   */\n      swap1\n      pop\n        /* \"#utility.yul\":3920:4231   */\n      swap2\n      swap1\n      pop\n      jump\t// out\n        /* \"#utility.yul\":4237:4354   */\n    tag_114:\n        /* \"#utility.yul\":4346:4347   */\n      0x00\n        /* \"#utility.yul\":4343:4344   */\n      dup1\n        /* \"#utility.yul\":4336:4348   */\n      revert\n        /* \"#utility.yul\":4360:4482   */\n    tag_115:\n        /* \"#utility.yul\":4433:4457   */\n      tag_199\n        /* \"#utility.yul\":4451:4456   */\n      dup2\n        /* \"#utility.yul\":4433:4457   */\n      tag_100\n      jump\t// in\n    tag_199:\n        /* \"#utility.yul\":4426:4431   */\n      dup2\n        /* \"#utility.yul\":4423:4458   */\n      eq\n        /* \"#utility.yul\":4413:4476   */\n      tag_200\n      jumpi\n        /* \"#utility.yul\":4472:4473   */\n      0x00\n        /* \"#utility.yul\":4469:4470   */\n      dup1\n        /* \"#utility.yul\":4462:4474   */\n      revert\n        /* \"#utility.yul\":4413:4476   */\n    tag_200:\n        /* \"#utility.yul\":4360:4482   */\n      pop\n      jump\t// out\n        /* \"#utility.yul\":4488:4627   */\n    tag_116:\n        /* \"#utility.yul\":4534:4539   */\n      0x00\n        /* \"#utility.yul\":4572:4578   */\n      dup2\n        /* \"#utility.yul\":4559:4579   */\n      calldataload\n        /* \"#utility.yul\":4550:4579   */\n      swap1\n      pop\n        /* \"#utility.yul\":4588:4621   */\n      tag_202\n        /* \"#utility.yul\":4615:4620   */\n      dup2\n        /* \"#utility.yul\":4588:4621   */\n      tag_115\n      jump\t// in\n    tag_202:\n        /* \"#utility.yul\":4488:4627   */\n      swap3\n      swap2\n      pop\n      pop\n      jump\t// out\n        /* \"#utility.yul\":4650:5360   */\n    tag_117:\n        /* \"#utility.yul\":4746:4751   */\n      0x00\n        /* \"#utility.yul\":4771:4852   */\n      tag_204\n        /* \"#utility.yul\":4787:4851   */\n      tag_205\n        /* \"#utility.yul\":4844:4850   */\n      dup5\n        /* \"#utility.yul\":4787:4851   */\n      tag_113\n      jump\t// in\n    tag_205:\n        /* \"#utility.yul\":4771:4852   */\n      tag_112\n      jump\t// in\n    tag_204:\n        /* \"#utility.yul\":4762:4852   */\n      swap1\n      pop\n        /* \"#utility.yul\":4872:4877   */\n      dup1\n        /* \"#utility.yul\":4901:4907   */\n      dup4\n        /* \"#utility.yul\":4894:4899   */\n      dup3\n        /* \"#utility.yul\":4887:4908   */\n      mstore\n        /* \"#utility.yul\":4935:4939   */\n      0x20\n        /* \"#utility.yul\":4928:4933   */\n      dup3\n        /* \"#utility.yul\":4924:4940   */\n      add\n        /* \"#utility.yul\":4917:4940   */\n      swap1\n      pop\n        /* \"#utility.yul\":4988:4992   */\n      0x20\n        /* \"#utility.yul\":4980:4986   */\n      dup5\n        /* \"#utility.yul\":4976:4993   */\n      mul\n        /* \"#utility.yul\":4968:4974   */\n      dup4\n        /* \"#utility.yul\":4964:4994   */\n      add\n        /* \"#utility.yul\":5017:5020   */\n      dup6\n        /* \"#utility.yul\":5009:5015   */\n      dup2\n        /* \"#utility.yul\":5006:5021   */\n      gt\n        /* \"#utility.yul\":5003:5125   */\n      iszero\n      tag_206\n      jumpi\n        /* \"#utility.yul\":5036:5115   */\n      tag_207\n      tag_114\n      jump\t// in\n    tag_207:\n        /* \"#utility.yul\":5003:5125   */\n    tag_206:\n        /* \"#utility.yul\":5151:5157   */\n      dup4\n        /* \"#utility.yul\":5134:5354   */\n    tag_208:\n        /* \"#utility.yul\":5168:5174   */\n      dup2\n        /* \"#utility.yul\":5163:5166   */\n      dup2\n        /* \"#utility.yul\":5160:5175   */\n      lt\n        /* \"#utility.yul\":5134:5354   */\n      iszero\n      tag_210\n      jumpi\n        /* \"#utility.yul\":5243:5246   */\n      dup1\n        /* \"#utility.yul\":5272:5309   */\n      tag_211\n        /* \"#utility.yul\":5305:5308   */\n      dup9\n        /* \"#utility.yul\":5293:5303   */\n      dup3\n        /* \"#utility.yul\":5272:5309   */\n      tag_116\n      jump\t// in\n    tag_211:\n        /* \"#utility.yul\":5267:5270   */\n      dup5\n        /* \"#utility.yul\":5260:5310   */\n      mstore\n        /* \"#utility.yul\":5339:5343   */\n      0x20\n        /* \"#utility.yul\":5334:5337   */\n      dup5\n        /* \"#utility.yul\":5330:5344   */\n      add\n        /* \"#utility.yul\":5323:5344   */\n      swap4\n      pop\n        /* \"#utility.yul\":5210:5354   */\n      pop\n        /* \"#utility.yul\":5194:5198   */\n      0x20\n        /* \"#utility.yul\":5189:5192   */\n      dup2\n        /* \"#utility.yul\":5185:5199   */\n      add\n        /* \"#utility.yul\":5178:5199   */\n      swap1\n      pop\n        /* \"#utility.yul\":5134:5354   */\n      jump(tag_208)\n    tag_210:\n        /* \"#utility.yul\":5138:5159   */\n      pop\n        /* \"#utility.yul\":4752:5360   */\n      pop\n      pop\n        /* \"#utility.yul\":4650:5360   */\n      swap4\n      swap3\n      pop\n      pop\n      pop\n      jump\t// out\n        /* \"#utility.yul\":5383:5753   */\n    tag_118:\n        /* \"#utility.yul\":5454:5459   */\n      0x00\n        /* \"#utility.yul\":5503:5506   */\n      dup3\n        /* \"#utility.yul\":5496:5500   */\n      0x1f\n        /* \"#utility.yul\":5488:5494   */\n      dup4\n        /* \"#utility.yul\":5484:5501   */\n      add\n        /* \"#utility.yul\":5480:5507   */\n      slt\n        /* \"#utility.yul\":5470:5592   */\n      tag_213\n      jumpi\n        /* \"#utility.yul\":5511:5590   */\n      tag_214\n      tag_108\n      jump\t// in\n    tag_214:\n        /* \"#utility.yul\":5470:5592   */\n    tag_213:\n        /* \"#utility.yul\":5628:5634   */\n      dup2\n        /* \"#utility.yul\":5615:5635   */\n      calldataload\n        /* \"#utility.yul\":5653:5747   */\n      tag_215\n        /* \"#utility.yul\":5743:5746   */\n      dup5\n        /* \"#utility.yul\":5735:5741   */\n      dup3\n        /* \"#utility.yul\":5728:5732   */\n      0x20\n        /* \"#utility.yul\":5720:5726   */\n      dup7\n        /* \"#utility.yul\":5716:5733   */\n      add\n        /* \"#utility.yul\":5653:5747   */\n      tag_117\n      jump\t// in\n    tag_215:\n        /* \"#utility.yul\":5644:5747   */\n      swap2\n      pop\n        /* \"#utility.yul\":5460:5753   */\n      pop\n        /* \"#utility.yul\":5383:5753   */\n      swap3\n      swap2\n      pop\n      pop\n      jump\t// out\n        /* \"#utility.yul\":5759:6298   */\n    tag_41:\n        /* \"#utility.yul\":5843:5849   */\n      0x00\n        /* \"#utility.yul\":5892:5894   */\n      0x20\n        /* \"#utility.yul\":5880:5889   */\n      dup3\n        /* \"#utility.yul\":5871:5878   */\n      dup5\n        /* \"#utility.yul\":5867:5890   */\n      sub\n        /* \"#utility.yul\":5863:5895   */\n      slt\n        /* \"#utility.yul\":5860:5979   */\n      iszero\n      tag_217\n      jumpi\n        /* \"#utility.yul\":5898:5977   */\n      tag_218\n      tag_94\n      jump\t// in\n    tag_218:\n        /* \"#utility.yul\":5860:5979   */\n    tag_217:\n        /* \"#utility.yul\":6046:6047   */\n      0x00\n        /* \"#utility.yul\":6035:6044   */\n      dup3\n        /* \"#utility.yul\":6031:6048   */\n      add\n        /* \"#utility.yul\":6018:6049   */\n      calldataload\n        /* \"#utility.yul\":6076:6094   */\n      0xffffffffffffffff\n        /* \"#utility.yul\":6068:6074   */\n      dup2\n        /* \"#utility.yul\":6065:6095   */\n      gt\n        /* \"#utility.yul\":6062:6179   */\n      iszero\n      tag_219\n      jumpi\n        /* \"#utility.yul\":6098:6177   */\n      tag_220\n      tag_95\n      jump\t// in\n    tag_220:\n        /* \"#utility.yul\":6062:6179   */\n    tag_219:\n        /* \"#utility.yul\":6203:6281   */\n      tag_221\n        /* \"#utility.yul\":6273:6280   */\n      dup5\n        /* \"#utility.yul\":6264:6270   */\n      dup3\n        /* \"#utility.yul\":6253:6262   */\n      dup6\n        /* \"#utility.yul\":6249:6271   */\n      add\n        /* \"#utility.yul\":6203:6281   */\n      tag_118\n      jump\t// in\n    tag_221:\n        /* \"#utility.yul\":6193:6281   */\n      swap2\n      pop\n        /* \"#utility.yul\":5989:6291   */\n      pop\n        /* \"#utility.yul\":5759:6298   */\n      swap3\n      swap2\n      pop\n      pop\n      jump\t// out\n        /* \"#utility.yul\":6304:6484   */\n    tag_51:\n        /* \"#utility.yul\":6352:6429   */\n      0x4e487b7100000000000000000000000000000000000000000000000000000000\n        /* \"#utility.yul\":6349:6350   */\n      0x00\n        /* \"#utility.yul\":6342:6430   */\n      mstore\n        /* \"#utility.yul\":6449:6453   */\n      0x32\n        /* \"#utility.yul\":6446:6447   */\n      0x04\n        /* \"#utility.yul\":6439:6454   */\n      mstore\n        /* \"#utility.yul\":6473:6477   */\n      0x24\n        /* \"#utility.yul\":6470:6471   */\n      0x00\n        /* \"#utility.yul\":6463:6478   */\n      revert\n        /* \"#utility.yul\":6490:6659   */\n    tag_119:\n        /* \"#utility.yul\":6574:6585   */\n      0x00\n        /* \"#utility.yul\":6608:6614   */\n      dup3\n        /* \"#utility.yul\":6603:6606   */\n      dup3\n        /* \"#utility.yul\":6596:6615   */\n      mstore\n        /* \"#utility.yul\":6648:6652   */\n      0x20\n        /* \"#utility.yul\":6643:6646   */\n      dup3\n        /* \"#utility.yul\":6639:6653   */\n      add\n        /* \"#utility.yul\":6624:6653   */\n      swap1\n      pop\n        /* \"#utility.yul\":6490:6659   */\n      swap3\n      swap2\n      pop\n      pop\n      jump\t// out\n        /* \"#utility.yul\":6665:6834   */\n    tag_120:\n        /* \"#utility.yul\":6805:6826   */\n      0x7365656420697320616c72656164792073657400000000000000000000000000\n        /* \"#utility.yul\":6801:6802   */\n      0x00\n        /* \"#utility.yul\":6793:6799   */\n      dup3\n        /* \"#utility.yul\":6789:6803   */\n      add\n        /* \"#utility.yul\":6782:6827   */\n      mstore\n        /* \"#utility.yul\":6665:6834   */\n      pop\n      jump\t// out\n        /* \"#utility.yul\":6840:7206   */\n    tag_121:\n        /* \"#utility.yul\":6982:6985   */\n      0x00\n        /* \"#utility.yul\":7003:7070   */\n      tag_226\n        /* \"#utility.yul\":7067:7069   */\n      0x13\n        /* \"#utility.yul\":7062:7065   */\n      dup4\n        /* \"#utility.yul\":7003:7070   */\n      tag_119\n      jump\t// in\n    tag_226:\n        /* \"#utility.yul\":6996:7070   */\n      swap2\n      pop\n        /* \"#utility.yul\":7079:7172   */\n      tag_227\n        /* \"#utility.yul\":7168:7171   */\n      dup3\n        /* \"#utility.yul\":7079:7172   */\n      tag_120\n      jump\t// in\n    tag_227:\n        /* \"#utility.yul\":7197:7199   */\n      0x20\n        /* \"#utility.yul\":7192:7195   */\n      dup3\n        /* \"#utility.yul\":7188:7200   */\n      add\n        /* \"#utility.yul\":7181:7200   */\n      swap1\n      pop\n        /* \"#utility.yul\":6840:7206   */\n      swap2\n      swap1\n      pop\n      jump\t// out\n        /* \"#utility.yul\":7212:7631   */\n    tag_56:\n        /* \"#utility.yul\":7378:7382   */\n      0x00\n        /* \"#utility.yul\":7416:7418   */\n      0x20\n        /* \"#utility.yul\":7405:7414   */\n      dup3\n        /* \"#utility.yul\":7401:7419   */\n      add\n        /* \"#utility.yul\":7393:7419   */\n      swap1\n      pop\n        /* \"#utility.yul\":7465:7474   */\n      dup2\n        /* \"#utility.yul\":7459:7463   */\n      dup2\n        /* \"#utility.yul\":7455:7475   */\n      sub\n        /* \"#utility.yul\":7451:7452   */\n      0x00\n        /* \"#utility.yul\":7440:7449   */\n      dup4\n        /* \"#utility.yul\":7436:7453   */\n      add\n        /* \"#utility.yul\":7429:7476   */\n      mstore\n        /* \"#utility.yul\":7493:7624   */\n      tag_229\n        /* \"#utility.yul\":7619:7623   */\n      dup2\n        /* \"#utility.yul\":7493:7624   */\n      tag_121\n      jump\t// in\n    tag_229:\n        /* \"#utility.yul\":7485:7624   */\n      swap1\n      pop\n        /* \"#utility.yul\":7212:7631   */\n      swap2\n      swap1\n      pop\n      jump\t// out\n        /* \"#utility.yul\":7637:7863   */\n    tag_122:\n        /* \"#utility.yul\":7777:7811   */\n      0x6f6e6c79206d616e61676572706f6f6c2063616e2063616c6c20746869732066\n        /* \"#utility.yul\":7773:7774   */\n      0x00\n        /* \"#utility.yul\":7765:7771   */\n      dup3\n        /* \"#utility.yul\":7761:7775   */\n      add\n        /* \"#utility.yul\":7754:7812   */\n      mstore\n        /* \"#utility.yul\":7846:7855   */\n      0x756e6374696f6e00000000000000000000000000000000000000000000000000\n        /* \"#utility.yul\":7841:7843   */\n      0x20\n        /* \"#utility.yul\":7833:7839   */\n      dup3\n        /* \"#utility.yul\":7829:7844   */\n      add\n        /* \"#utility.yul\":7822:7856   */\n      mstore\n        /* \"#utility.yul\":7637:7863   */\n      pop\n      jump\t// out\n        /* \"#utility.yul\":7869:8235   */\n    tag_123:\n        /* \"#utility.yul\":8011:8014   */\n      0x00\n        /* \"#utility.yul\":8032:8099   */\n      tag_232\n        /* \"#utility.yul\":8096:8098   */\n      0x27\n        /* \"#utility.yul\":8091:8094   */\n      dup4\n        /* \"#utility.yul\":8032:8099   */\n      tag_119\n      jump\t// in\n    tag_232:\n        /* \"#utility.yul\":8025:8099   */\n      swap2\n      pop\n        /* \"#utility.yul\":8108:8201   */\n      tag_233\n        /* \"#utility.yul\":8197:8200   */\n      dup3\n        /* \"#utility.yul\":8108:8201   */\n      tag_122\n      jump\t// in\n    tag_233:\n        /* \"#utility.yul\":8226:8228   */\n      0x40\n        /* \"#utility.yul\":8221:8224   */\n      dup3\n        /* \"#utility.yul\":8217:8229   */\n      add\n        /* \"#utility.yul\":8210:8229   */\n      swap1\n      pop\n        /* \"#utility.yul\":7869:8235   */\n      swap2\n      swap1\n      pop\n      jump\t// out\n        /* \"#utility.yul\":8241:8660   */\n    tag_59:\n        /* \"#utility.yul\":8407:8411   */\n      0x00\n        /* \"#utility.yul\":8445:8447   */\n      0x20\n        /* \"#utility.yul\":8434:8443   */\n      dup3\n        /* \"#utility.yul\":8430:8448   */\n      add\n        /* \"#utility.yul\":8422:8448   */\n      swap1\n      pop\n        /* \"#utility.yul\":8494:8503   */\n      dup2\n        /* \"#utility.yul\":8488:8492   */\n      dup2\n        /* \"#utility.yul\":8484:8504   */\n      sub\n        /* \"#utility.yul\":8480:8481   */\n      0x00\n        /* \"#utility.yul\":8469:8478   */\n      dup4\n        /* \"#utility.yul\":8465:8482   */\n      add\n        /* \"#utility.yul\":8458:8505   */\n      mstore\n        /* \"#utility.yul\":8522:8653   */\n      tag_235\n        /* \"#utility.yul\":8648:8652   */\n      dup2\n        /* \"#utility.yul\":8522:8653   */\n      tag_123\n      jump\t// in\n    tag_235:\n        /* \"#utility.yul\":8514:8653   */\n      swap1\n      pop\n        /* \"#utility.yul\":8241:8660   */\n      swap2\n      swap1\n      pop\n      jump\t// out\n        /* \"#utility.yul\":8666:8846   */\n    tag_124:\n        /* \"#utility.yul\":8714:8791   */\n      0x4e487b7100000000000000000000000000000000000000000000000000000000\n        /* \"#utility.yul\":8711:8712   */\n      0x00\n        /* \"#utility.yul\":8704:8792   */\n      mstore\n        /* \"#utility.yul\":8811:8815   */\n      0x11\n        /* \"#utility.yul\":8808:8809   */\n      0x04\n        /* \"#utility.yul\":8801:8816   */\n      mstore\n        /* \"#utility.yul\":8835:8839   */\n      0x24\n        /* \"#utility.yul\":8832:8833   */\n      0x00\n        /* \"#utility.yul\":8825:8840   */\n      revert\n        /* \"#utility.yul\":8852:9157   */\n    tag_61:\n        /* \"#utility.yul\":8892:8895   */\n      0x00\n        /* \"#utility.yul\":8911:8931   */\n      tag_238\n        /* \"#utility.yul\":8929:8930   */\n      dup3\n        /* \"#utility.yul\":8911:8931   */\n      tag_102\n      jump\t// in\n    tag_238:\n        /* \"#utility.yul\":8906:8931   */\n      swap2\n      pop\n        /* \"#utility.yul\":8945:8965   */\n      tag_239\n        /* \"#utility.yul\":8963:8964   */\n      dup4\n        /* \"#utility.yul\":8945:8965   */\n      tag_102\n      jump\t// in\n    tag_239:\n        /* \"#utility.yul\":8940:8965   */\n      swap3\n      pop\n        /* \"#utility.yul\":9099:9100   */\n      dup3\n        /* \"#utility.yul\":9031:9097   */\n      0xffffffffffffffffffffffffffffffffffffffffffffffffffffffffffffffff\n        /* \"#utility.yul\":9027:9101   */\n      sub\n        /* \"#utility.yul\":9024:9025   */\n      dup3\n        /* \"#utility.yul\":9021:9102   */\n      gt\n        /* \"#utility.yul\":9018:9125   */\n      iszero\n      tag_240\n      jumpi\n        /* \"#utility.yul\":9105:9123   */\n      tag_241\n      tag_124\n      jump\t// in\n    tag_241:\n        /* \"#utility.yul\":9018:9125   */\n    tag_240:\n        /* \"#utility.yul\":9149:9150   */\n      dup3\n        /* \"#utility.yul\":9146:9147   */\n      dup3\n        /* \"#utility.yul\":9142:9151   */\n      add\n        /* \"#utility.yul\":9135:9151   */\n      swap1\n      pop\n        /* \"#utility.yul\":8852:9157   */\n      swap3\n      swap2\n      pop\n      pop\n      jump\t// out\n        /* \"#utility.yul\":9163:9242   */\n    tag_125:\n        /* \"#utility.yul\":9202:9209   */\n      0x00\n        /* \"#utility.yul\":9231:9236   */\n      dup2\n        /* \"#utility.yul\":9220:9236   */\n      swap1\n      pop\n        /* \"#utility.yul\":9163:9242   */\n      swap2\n      swap1\n      pop\n      jump\t// out\n        /* \"#utility.yul\":9248:9405   */\n    tag_126:\n        /* \"#utility.yul\":9353:9398   */\n      tag_244\n        /* \"#utility.yul\":9373:9397   */\n      tag_245\n        /* \"#utility.yul\":9391:9396   */\n      dup3\n        /* \"#utility.yul\":9373:9397   */\n      tag_102\n      jump\t// in\n    tag_245:\n        /* \"#utility.yul\":9353:9398   */\n      tag_125\n      jump\t// in\n    tag_244:\n        /* \"#utility.yul\":9348:9351   */\n      dup3\n        /* \"#utility.yul\":9341:9399   */\n      mstore\n        /* \"#utility.yul\":9248:9405   */\n      pop\n      pop\n      jump\t// out\n        /* \"#utility.yul\":9411:9522   */\n    tag_127:\n        /* \"#utility.yul\":9475:9481   */\n      0x00\n        /* \"#utility.yul\":9509:9514   */\n      dup2\n        /* \"#utility.yul\":9503:9515   */\n      sload\n        /* \"#utility.yul\":9493:9515   */\n      swap1\n      pop\n        /* \"#utility.yul\":9411:9522   */\n      swap2\n      swap1\n      pop\n      jump\t// out\n        /* \"#utility.yul\":9528:9691   */\n    tag_128:\n        /* \"#utility.yul\":9645:9656   */\n      0x00\n        /* \"#utility.yul\":9682:9685   */\n      dup2\n        /* \"#utility.yul\":9667:9685   */\n      swap1\n      pop\n        /* \"#utility.yul\":9528:9691   */\n      swap3\n      swap2\n      pop\n      pop\n      jump\t// out\n        /* \"#utility.yul\":9697:9853   */\n    tag_129:\n        /* \"#utility.yul\":9761:9765   */\n      0x00\n        /* \"#utility.yul\":9784:9787   */\n      dup2\n        /* \"#utility.yul\":9776:9787   */\n      swap1\n      pop\n        /* \"#utility.yul\":9807:9810   */\n      dup2\n        /* \"#utility.yul\":9804:9805   */\n      0x00\n        /* \"#utility.yul\":9797:9811   */\n      mstore\n        /* \"#utility.yul\":9841:9845   */\n      0x20\n        /* \"#utility.yul\":9838:9839   */\n      0x00\n        /* \"#utility.yul\":9828:9846   */\n      keccak256\n        /* \"#utility.yul\":9820:9846   */\n      swap1\n      pop\n        /* \"#utility.yul\":9697:9853   */\n      swap2\n      swap1\n      pop\n      jump\t// out\n        /* \"#utility.yul\":9859:9975   */\n    tag_130:\n        /* \"#utility.yul\":9944:9968   */\n      tag_250\n        /* \"#utility.yul\":9962:9967   */\n      dup2\n        /* \"#utility.yul\":9944:9968   */\n      tag_100\n      jump\t// in\n    tag_250:\n        /* \"#utility.yul\":9939:9942   */\n      dup3\n        /* \"#utility.yul\":9932:9969   */\n      mstore\n        /* \"#utility.yul\":9859:9975   */\n      pop\n      pop\n      jump\t// out\n        /* \"#utility.yul\":9981:10176   */\n    tag_131:\n        /* \"#utility.yul\":10058:10068   */\n      0x00\n        /* \"#utility.yul\":10079:10133   */\n      tag_252\n        /* \"#utility.yul\":10129:10132   */\n      dup4\n        /* \"#utility.yul\":10121:10127   */\n      dup4\n        /* \"#utility.yul\":10079:10133   */\n      tag_130\n      jump\t// in\n    tag_252:\n        /* \"#utility.yul\":10165:10169   */\n      0x20\n        /* \"#utility.yul\":10160:10163   */\n      dup4\n        /* \"#utility.yul\":10156:10170   */\n      add\n        /* \"#utility.yul\":10142:10170   */\n      swap1\n      pop\n        /* \"#utility.yul\":9981:10176   */\n      swap3\n      swap2\n      pop\n      pop\n      jump\t// out\n        /* \"#utility.yul\":10182:10284   */\n    tag_132:\n        /* \"#utility.yul\":10224:10232   */\n      0x00\n        /* \"#utility.yul\":10271:10276   */\n      dup2\n        /* \"#utility.yul\":10268:10269   */\n      0x00\n        /* \"#utility.yul\":10264:10277   */\n      shr\n        /* \"#utility.yul\":10243:10277   */\n      swap1\n      pop\n        /* \"#utility.yul\":10182:10284   */\n      swap2\n      swap1\n      pop\n      jump\t// out\n        /* \"#utility.yul\":10290:10429   */\n    tag_133:\n        /* \"#utility.yul\":10340:10347   */\n      0x00\n        /* \"#utility.yul\":10380:10422   */\n      0xffffffffffffffffffffffffffffffffffffffff\n        /* \"#utility.yul\":10373:10378   */\n      dup3\n        /* \"#utility.yul\":10369:10423   */\n      and\n        /* \"#utility.yul\":10358:10423   */\n      swap1\n      pop\n        /* \"#utility.yul\":10290:10429   */\n      swap2\n      swap1\n      pop\n      jump\t// out\n        /* \"#utility.yul\":10435:10601   */\n    tag_134:\n        /* \"#utility.yul\":10504:10509   */\n      0x00\n        /* \"#utility.yul\":10529:10595   */\n      tag_256\n        /* \"#utility.yul\":10560:10594   */\n      tag_257\n        /* \"#utility.yul\":10583:10593   */\n      dup4\n        /* \"#utility.yul\":10560:10594   */\n      tag_132\n      jump\t// in\n    tag_257:\n        /* \"#utility.yul\":10529:10595   */\n      tag_133\n      jump\t// in\n    tag_256:\n        /* \"#utility.yul\":10520:10595   */\n      swap1\n      pop\n        /* \"#utility.yul\":10435:10601   */\n      swap2\n      swap1\n      pop\n      jump\t// out\n        /* \"#utility.yul\":10607:10751   */\n    tag_135:\n        /* \"#utility.yul\":10662:10667   */\n      0x00\n        /* \"#utility.yul\":10687:10744   */\n      tag_259\n        /* \"#utility.yul\":10738:10742   */\n      dup3\n        /* \"#utility.yul\":10732:10743   */\n      sload\n        /* \"#utility.yul\":10687:10744   */\n      tag_134\n      jump\t// in\n    tag_259:\n        /* \"#utility.yul\":10678:10744   */\n      swap1\n      pop\n        /* \"#utility.yul\":10607:10751   */\n      swap2\n      swap1\n      pop\n      jump\t// out\n        /* \"#utility.yul\":10757:10867   */\n    tag_136:\n        /* \"#utility.yul\":10824:10828   */\n      0x00\n        /* \"#utility.yul\":10856:10860   */\n      0x01\n        /* \"#utility.yul\":10851:10854   */\n      dup3\n        /* \"#utility.yul\":10847:10861   */\n      add\n        /* \"#utility.yul\":10839:10861   */\n      swap1\n      pop\n        /* \"#utility.yul\":10757:10867   */\n      swap2\n      swap1\n      pop\n      jump\t// out\n        /* \"#utility.yul\":10903:11698   */\n    tag_137:\n        /* \"#utility.yul\":11037:11040   */\n      0x00\n        /* \"#utility.yul\":11066:11117   */\n      tag_262\n        /* \"#utility.yul\":11111:11116   */\n      dup3\n        /* \"#utility.yul\":11066:11117   */\n      tag_127\n      jump\t// in\n    tag_262:\n        /* \"#utility.yul\":11133:11237   */\n      tag_263\n        /* \"#utility.yul\":11230:11236   */\n      dup2\n        /* \"#utility.yul\":11225:11228   */\n      dup6\n        /* \"#utility.yul\":11133:11237   */\n      tag_128\n      jump\t// in\n    tag_263:\n        /* \"#utility.yul\":11126:11237   */\n      swap4\n      pop\n        /* \"#utility.yul\":11261:11314   */\n      tag_264\n        /* \"#utility.yul\":11308:11313   */\n      dup4\n        /* \"#utility.yul\":11261:11314   */\n      tag_129\n      jump\t// in\n    tag_264:\n        /* \"#utility.yul\":11337:11344   */\n      dup1\n        /* \"#utility.yul\":11368:11369   */\n      0x00\n        /* \"#utility.yul\":11353:11673   */\n    tag_265:\n        /* \"#utility.yul\":11378:11384   */\n      dup4\n        /* \"#utility.yul\":11375:11376   */\n      dup2\n        /* \"#utility.yul\":11372:11385   */\n      lt\n        /* \"#utility.yul\":11353:11673   */\n      iszero\n      tag_267\n      jumpi\n        /* \"#utility.yul\":11448:11492   */\n      tag_268\n        /* \"#utility.yul\":11485:11491   */\n      dup3\n        /* \"#utility.yul\":11448:11492   */\n      tag_135\n      jump\t// in\n    tag_268:\n        /* \"#utility.yul\":11512:11583   */\n      tag_269\n        /* \"#utility.yul\":11579:11582   */\n      dup9\n        /* \"#utility.yul\":11564:11577   */\n      dup3\n        /* \"#utility.yul\":11512:11583   */\n      tag_131\n      jump\t// in\n    tag_269:\n        /* \"#utility.yul\":11505:11583   */\n      swap8\n      pop\n        /* \"#utility.yul\":11606:11663   */\n      tag_270\n        /* \"#utility.yul\":11656:11662   */\n      dup4\n        /* \"#utility.yul\":11606:11663   */\n      tag_136\n      jump\t// in\n    tag_270:\n        /* \"#utility.yul\":11596:11663   */\n      swap3\n      pop\n        /* \"#utility.yul\":11413:11673   */\n      pop\n        /* \"#utility.yul\":11400:11401   */\n      0x01\n        /* \"#utility.yul\":11397:11398   */\n      dup2\n        /* \"#utility.yul\":11393:11402   */\n      add\n        /* \"#utility.yul\":11388:11402   */\n      swap1\n      pop\n        /* \"#utility.yul\":11353:11673   */\n      jump(tag_265)\n    tag_267:\n        /* \"#utility.yul\":11357:11371   */\n      pop\n        /* \"#utility.yul\":11689:11692   */\n      dup6\n        /* \"#utility.yul\":11682:11692   */\n      swap4\n      pop\n        /* \"#utility.yul\":11042:11698   */\n      pop\n      pop\n      pop\n        /* \"#utility.yul\":10903:11698   */\n      swap3\n      swap2\n      pop\n      pop\n      jump\t// out\n        /* \"#utility.yul\":11704:12315   */\n    tag_66:\n        /* \"#utility.yul\":11919:11922   */\n      0x00\n        /* \"#utility.yul\":11934:12009   */\n      tag_272\n        /* \"#utility.yul\":12005:12008   */\n      dup3\n        /* \"#utility.yul\":11996:12002   */\n      dup7\n        /* \"#utility.yul\":11934:12009   */\n      tag_126\n      jump\t// in\n    tag_272:\n        /* \"#utility.yul\":12034:12036   */\n      0x20\n        /* \"#utility.yul\":12029:12032   */\n      dup3\n        /* \"#utility.yul\":12025:12037   */\n      add\n        /* \"#utility.yul\":12018:12037   */\n      swap2\n      pop\n        /* \"#utility.yul\":12047:12122   */\n      tag_273\n        /* \"#utility.yul\":12118:12121   */\n      dup3\n        /* \"#utility.yul\":12109:12115   */\n      dup6\n        /* \"#utility.yul\":12047:12122   */\n      tag_126\n      jump\t// in\n    tag_273:\n        /* \"#utility.yul\":12147:12149   */\n      0x20\n        /* \"#utility.yul\":12142:12145   */\n      dup3\n        /* \"#utility.yul\":12138:12150   */\n      add\n        /* \"#utility.yul\":12131:12150   */\n      swap2\n      pop\n        /* \"#utility.yul\":12167:12289   */\n      tag_274\n        /* \"#utility.yul\":12285:12288   */\n      dup3\n        /* \"#utility.yul\":12276:12282   */\n      dup5\n        /* \"#utility.yul\":12167:12289   */\n      tag_137\n      jump\t// in\n    tag_274:\n        /* \"#utility.yul\":12160:12289   */\n      swap2\n      pop\n        /* \"#utility.yul\":12306:12309   */\n      dup2\n        /* \"#utility.yul\":12299:12309   */\n      swap1\n      pop\n        /* \"#utility.yul\":11704:12315   */\n      swap5\n      swap4\n      pop\n      pop\n      pop\n      pop\n      jump\t// out\n        /* \"#utility.yul\":12321:12501   */\n    tag_138:\n        /* \"#utility.yul\":12369:12446   */\n      0x4e487b7100000000000000000000000000000000000000000000000000000000\n        /* \"#utility.yul\":12366:12367   */\n      0x00\n        /* \"#utility.yul\":12359:12447   */\n      mstore\n        /* \"#utility.yul\":12466:12470   */\n      0x12\n        /* \"#utility.yul\":12463:12464   */\n      0x04\n        /* \"#utility.yul\":12456:12471   */\n      mstore\n        /* \"#utility.yul\":12490:12494   */\n      0x24\n        /* \"#utility.yul\":12487:12488   */\n      0x00\n        /* \"#utility.yul\":12480:12495   */\n      revert\n        /* \"#utility.yul\":12507:12683   */\n    tag_68:\n        /* \"#utility.yul\":12539:12540   */\n      0x00\n        /* \"#utility.yul\":12556:12576   */\n      tag_277\n        /* \"#utility.yul\":12574:12575   */\n      dup3\n        /* \"#utility.yul\":12556:12576   */\n      tag_102\n      jump\t// in\n    tag_277:\n        /* \"#utility.yul\":12551:12576   */\n      swap2\n      pop\n        /* \"#utility.yul\":12590:12610   */\n      tag_278\n        /* \"#utility.yul\":12608:12609   */\n      dup4\n        /* \"#utility.yul\":12590:12610   */\n      tag_102\n      jump\t// in\n    tag_278:\n        /* \"#utility.yul\":12585:12610   */\n      swap3\n      pop\n        /* \"#utility.yul\":12629:12630   */\n      dup3\n        /* \"#utility.yul\":12619:12654   */\n      tag_279\n      jumpi\n        /* \"#utility.yul\":12634:12652   */\n      tag_280\n      tag_138\n      jump\t// in\n    tag_280:\n        /* \"#utility.yul\":12619:12654   */\n    tag_279:\n        /* \"#utility.yul\":12675:12676   */\n      dup3\n        /* \"#utility.yul\":12672:12673   */\n      dup3\n        /* \"#utility.yul\":12668:12677   */\n      mod\n        /* \"#utility.yul\":12663:12677   */\n      swap1\n      pop\n        /* \"#utility.yul\":12507:12683   */\n      swap3\n      swap2\n      pop\n      pop\n      jump\t// out\n        /* \"#utility.yul\":12689:12858   */\n    tag_139:\n        /* \"#utility.yul\":12829:12850   */\n      0x73656564206973206e6f74207965742073657400000000000000000000000000\n        /* \"#utility.yul\":12825:12826   */\n      0x00\n        /* \"#utility.yul\":12817:12823   */\n      dup3\n        /* \"#utility.yul\":12813:12827   */\n      add\n        /* \"#utility.yul\":12806:12851   */\n      mstore\n        /* \"#utility.yul\":12689:12858   */\n      pop\n      jump\t// out\n        /* \"#utility.yul\":12864:13230   */\n    tag_140:\n        /* \"#utility.yul\":13006:13009   */\n      0x00\n        /* \"#utility.yul\":13027:13094   */\n      tag_283\n        /* \"#utility.yul\":13091:13093   */\n      0x13\n        /* \"#utility.yul\":13086:13089   */\n      dup4\n        /* \"#utility.yul\":13027:13094   */\n      tag_119\n      jump\t// in\n    tag_283:\n        /* \"#utility.yul\":13020:13094   */\n      swap2\n      pop\n        /* \"#utility.yul\":13103:13196   */\n      tag_284\n        /* \"#utility.yul\":13192:13195   */\n      dup3\n        /* \"#utility.yul\":13103:13196   */\n      tag_139\n      jump\t// in\n    tag_284:\n        /* \"#utility.yul\":13221:13223   */\n      0x20\n        /* \"#utility.yul\":13216:13219   */\n      dup3\n        /* \"#utility.yul\":13212:13224   */\n      add\n        /* \"#utility.yul\":13205:13224   */\n      swap1\n      pop\n        /* \"#utility.yul\":12864:13230   */\n      swap2\n      swap1\n      pop\n      jump\t// out\n        /* \"#utility.yul\":13236:13655   */\n    tag_72:\n        /* \"#utility.yul\":13402:13406   */\n      0x00\n        /* \"#utility.yul\":13440:13442   */\n      0x20\n        /* \"#utility.yul\":13429:13438   */\n      dup3\n        /* \"#utility.yul\":13425:13443   */\n      add\n        /* \"#utility.yul\":13417:13443   */\n      swap1\n      pop\n        /* \"#utility.yul\":13489:13498   */\n      dup2\n        /* \"#utility.yul\":13483:13487   */\n      dup2\n        /* \"#utility.yul\":13479:13499   */\n      sub\n        /* \"#utility.yul\":13475:13476   */\n      0x00\n        /* \"#utility.yul\":13464:13473   */\n      dup4\n        /* \"#utility.yul\":13460:13477   */\n      add\n        /* \"#utility.yul\":13453:13500   */\n      mstore\n        /* \"#utility.yul\":13517:13648   */\n      tag_286\n        /* \"#utility.yul\":13643:13647   */\n      dup2\n        /* \"#utility.yul\":13517:13648   */\n      tag_140\n      jump\t// in\n    tag_286:\n        /* \"#utility.yul\":13509:13648   */\n      swap1\n      pop\n        /* \"#utility.yul\":13236:13655   */\n      swap2\n      swap1\n      pop\n      jump\t// out\n        /* \"#utility.yul\":13661:13839   */\n    tag_141:\n        /* \"#utility.yul\":13801:13831   */\n      0x646f6e6174696f6e7320617265206e6f7420636c6f7365642079657400000000\n        /* \"#utility.yul\":13797:13798   */\n      0x00\n        /* \"#utility.yul\":13789:13795   */\n      dup3\n        /* \"#utility.yul\":13785:13799   */\n      add\n        /* \"#utility.yul\":13778:13832   */\n      mstore\n        /* \"#utility.yul\":13661:13839   */\n      pop\n      jump\t// out\n        /* \"#utility.yul\":13845:14211   */\n    tag_142:\n        /* \"#utility.yul\":13987:13990   */\n      0x00\n        /* \"#utility.yul\":14008:14075   */\n      tag_289\n        /* \"#utility.yul\":14072:14074   */\n      0x1c\n        /* \"#utility.yul\":14067:14070   */\n      dup4\n        /* \"#utility.yul\":14008:14075   */\n      tag_119\n      jump\t// in\n    tag_289:\n        /* \"#utility.yul\":14001:14075   */\n      swap2\n      pop\n        /* \"#utility.yul\":14084:14177   */\n      tag_290\n        /* \"#utility.yul\":14173:14176   */\n      dup3\n        /* \"#utility.yul\":14084:14177   */\n      tag_141\n      jump\t// in\n    tag_290:\n        /* \"#utility.yul\":14202:14204   */\n      0x20\n        /* \"#utility.yul\":14197:14200   */\n      dup3\n        /* \"#utility.yul\":14193:14205   */\n      add\n        /* \"#utility.yul\":14186:14205   */\n      swap1\n      pop\n        /* \"#utility.yul\":13845:14211   */\n      swap2\n      swap1\n      pop\n      jump\t// out\n        /* \"#utility.yul\":14217:14636   */\n    tag_75:\n        /* \"#utility.yul\":14383:14387   */\n      0x00\n        /* \"#utility.yul\":14421:14423   */\n      0x20\n        /* \"#utility.yul\":14410:14419   */\n      dup3\n        /* \"#utility.yul\":14406:14424   */\n      add\n        /* \"#utility.yul\":14398:14424   */\n      swap1\n      pop\n        /* \"#utility.yul\":14470:14479   */\n      dup2\n        /* \"#utility.yul\":14464:14468   */\n      dup2\n        /* \"#utility.yul\":14460:14480   */\n      sub\n        /* \"#utility.yul\":14456:14457   */\n      0x00\n        /* \"#utility.yul\":14445:14454   */\n      dup4\n        /* \"#utility.yul\":14441:14458   */\n      add\n        /* \"#utility.yul\":14434:14481   */\n      mstore\n        /* \"#utility.yul\":14498:14629   */\n      tag_292\n        /* \"#utility.yul\":14624:14628   */\n      dup2\n        /* \"#utility.yul\":14498:14629   */\n      tag_142\n      jump\t// in\n    tag_292:\n        /* \"#utility.yul\":14490:14629   */\n      swap1\n      pop\n        /* \"#utility.yul\":14217:14636   */\n      swap2\n      swap1\n      pop\n      jump\t// out\n        /* \"#utility.yul\":14642:14760   */\n    tag_143:\n        /* \"#utility.yul\":14729:14753   */\n      tag_294\n        /* \"#utility.yul\":14747:14752   */\n      dup2\n        /* \"#utility.yul\":14729:14753   */\n      tag_96\n      jump\t// in\n    tag_294:\n        /* \"#utility.yul\":14724:14727   */\n      dup3\n        /* \"#utility.yul\":14717:14754   */\n      mstore\n        /* \"#utility.yul\":14642:14760   */\n      pop\n      pop\n      jump\t// out\n        /* \"#utility.yul\":14766:15098   */\n    tag_78:\n        /* \"#utility.yul\":14887:14891   */\n      0x00\n        /* \"#utility.yul\":14925:14927   */\n      0x40\n        /* \"#utility.yul\":14914:14923   */\n      dup3\n        /* \"#utility.yul\":14910:14928   */\n      add\n        /* \"#utility.yul\":14902:14928   */\n      swap1\n      pop\n        /* \"#utility.yul\":14938:15009   */\n      tag_296\n        /* \"#utility.yul\":15006:15007   */\n      0x00\n        /* \"#utility.yul\":14995:15004   */\n      dup4\n        /* \"#utility.yul\":14991:15008   */\n      add\n        /* \"#utility.yul\":14982:14988   */\n      dup6\n        /* \"#utility.yul\":14938:15009   */\n      tag_101\n      jump\t// in\n    tag_296:\n        /* \"#utility.yul\":15019:15091   */\n      tag_297\n        /* \"#utility.yul\":15087:15089   */\n      0x20\n        /* \"#utility.yul\":15076:15085   */\n      dup4\n        /* \"#utility.yul\":15072:15090   */\n      add\n        /* \"#utility.yul\":15063:15069   */\n      dup5\n        /* \"#utility.yul\":15019:15091   */\n      tag_143\n      jump\t// in\n    tag_297:\n        /* \"#utility.yul\":14766:15098   */\n      swap4\n      swap3\n      pop\n      pop\n      pop\n      jump\t// out\n        /* \"#utility.yul\":15104:15436   */\n    tag_81:\n        /* \"#utility.yul\":15225:15229   */\n      0x00\n        /* \"#utility.yul\":15263:15265   */\n      0x40\n        /* \"#utility.yul\":15252:15261   */\n      dup3\n        /* \"#utility.yul\":15248:15266   */\n      add\n        /* \"#utility.yul\":15240:15266   */\n      swap1\n      pop\n        /* \"#utility.yul\":15276:15347   */\n      tag_299\n        /* \"#utility.yul\":15344:15345   */\n      0x00\n        /* \"#utility.yul\":15333:15342   */\n      dup4\n        /* \"#utility.yul\":15329:15346   */\n      add\n        /* \"#utility.yul\":15320:15326   */\n      dup6\n        /* \"#utility.yul\":15276:15347   */\n      tag_143\n      jump\t// in\n    tag_299:\n        /* \"#utility.yul\":15357:15429   */\n      tag_300\n        /* \"#utility.yul\":15425:15427   */\n      0x20\n        /* \"#utility.yul\":15414:15423   */\n      dup4\n        /* \"#utility.yul\":15410:15428   */\n      add\n        /* \"#utility.yul\":15401:15407   */\n      dup5\n        /* \"#utility.yul\":15357:15429   */\n      tag_143\n      jump\t// in\n    tag_300:\n        /* \"#utility.yul\":15104:15436   */\n      swap4\n      swap3\n      pop\n      pop\n      pop\n      jump\t// out\n\n    auxdata: 0xa264697066735822122068e4ab30c0e0dfc96c3b53c82eb8f906940436fa6e509e5b58ce75435b56ec0364736f6c634300080d0033\n}\n",
				"bytecode": {
					"linkReferences": {},
					"object": "608060405234801561001057600080fd5b50336000806101000a81548173ffffffffffffffffffffffffffffffffffffffff021916908373ffffffffffffffffffffffffffffffffffffffff1602179055506000600360006101000a81548160ff0219169083151502179055506000600360016101000a81548160ff021916908315150217905550610e76806100966000396000f3fe608060405234801561001057600080fd5b50600436106100885760003560e01c8063701fd0f11161005b578063701fd0f1146101275780639937232114610157578063c129800d14610187578063dedfe223146101b757610088565b80631e5f91491461008d57806341114538146100bd5780634abfa163146100d95780635ec01e4d14610109575b600080fd5b6100a760048036038101906100a29190610652565b6101d5565b6040516100b491906106c0565b60405180910390f35b6100d760048036038101906100d29190610652565b61022f565b005b6100f360048036038101906100ee9190610711565b610360565b60405161010091906106c0565b60405180910390f35b61011161039f565b60405161011e919061074d565b60405180910390f35b610141600480360381019061013c9190610652565b6103f0565b60405161014e919061074d565b60405180910390f35b610171600480360381019061016c9190610652565b610510565b60405161017e9190610783565b60405180910390f35b6101a1600480360381019061019c9190610923565b61051b565b6040516101ae9190610783565b60405180910390f35b6101bf61053d565b6040516101cc91906106c0565b60405180910390f35b6000806101e061039f565b90506000600182815481106101f8576101f761096c565b5b9060005260206000200160009054906101000a900473ffffffffffffffffffffffffffffffffffffffff1690508092505050919050565b600360009054906101000a900460ff161561027f576040517f08c379a0000000000000000000000000000000000000000000000000000000008152600401610276906109f8565b60405180910390fd5b60008054906101000a900473ffffffffffffffffffffffffffffffffffffffff1673ffffffffffffffffffffffffffffffffffffffff163373ffffffffffffffffffffffffffffffffffffffff161461030d576040517f08c379a000000000000000000000000000000000000000000000000000000000815260040161030490610a8a565b60405180910390fd5b6001600360016101000a81548160ff0219169083151502179055508060028190555060014361033c9190610ad9565b6004819055506001600360006101000a81548160ff02191690831515021790555050565b6001818154811061037057600080fd5b906000526020600020016000915054906101000a900473ffffffffffffffffffffffffffffffffffffffff1681565b600080444260016040516020016103b893929190610c6e565b6040516020818303038152906040528051906020012060001c90506000600180549050826103e69190610cd6565b9050809250505090565b6000600360009054906101000a900460ff16610441576040517f08c379a000000000000000000000000000000000000000000000000000000000815260040161043890610d53565b60405180910390fd5b600360019054906101000a900460ff16610490576040517f08c379a000000000000000000000000000000000000000000000000000000000815260040161048790610dbf565b60405180910390fd5b436004541061049e57600080fd5b60025433836040516020016104b4929190610dee565b60405160208183030381529060405280519060200120146104d457600080fd5b600082600454406040516020016104ec929190610e17565b6040516020818303038152906040528051906020012060001c905080915050919050565b600060019050919050565b60008160019080519060200190610533929190610561565b5060019050919050565b60008054906101000a900473ffffffffffffffffffffffffffffffffffffffff1681565b8280548282559060005260206000209081019282156105da579160200282015b828111156105d95782518260006101000a81548173ffffffffffffffffffffffffffffffffffffffff021916908373ffffffffffffffffffffffffffffffffffffffff16021790555091602001919060010190610581565b5b5090506105e791906105eb565b5090565b5b808211156106045760008160009055506001016105ec565b5090565b6000604051905090565b600080fd5b600080fd5b6000819050919050565b61062f8161061c565b811461063a57600080fd5b50565b60008135905061064c81610626565b92915050565b60006020828403121561066857610667610612565b5b60006106768482850161063d565b91505092915050565b600073ffffffffffffffffffffffffffffffffffffffff82169050919050565b60006106aa8261067f565b9050919050565b6106ba8161069f565b82525050565b60006020820190506106d560008301846106b1565b92915050565b6000819050919050565b6106ee816106db565b81146106f957600080fd5b50565b60008135905061070b816106e5565b92915050565b60006020828403121561072757610726610612565b5b6000610735848285016106fc565b91505092915050565b610747816106db565b82525050565b6000602082019050610762600083018461073e565b92915050565b60008115159050919050565b61077d81610768565b82525050565b60006020820190506107986000830184610774565b92915050565b600080fd5b6000601f19601f8301169050919050565b7f4e487b7100000000000000000000000000000000000000000000000000000000600052604160045260246000fd5b6107ec826107a3565b810181811067ffffffffffffffff8211171561080b5761080a6107b4565b5b80604052505050565b600061081e610608565b905061082a82826107e3565b919050565b600067ffffffffffffffff82111561084a576108496107b4565b5b602082029050602081019050919050565b600080fd5b6108698161069f565b811461087457600080fd5b50565b60008135905061088681610860565b92915050565b600061089f61089a8461082f565b610814565b905080838252602082019050602084028301858111156108c2576108c161085b565b5b835b818110156108eb57806108d78882610877565b8452602084019350506020810190506108c4565b5050509392505050565b600082601f83011261090a5761090961079e565b5b813561091a84826020860161088c565b91505092915050565b60006020828403121561093957610938610612565b5b600082013567ffffffffffffffff81111561095757610956610617565b5b610963848285016108f5565b91505092915050565b7f4e487b7100000000000000000000000000000000000000000000000000000000600052603260045260246000fd5b600082825260208201905092915050565b7f7365656420697320616c72656164792073657400000000000000000000000000600082015250565b60006109e260138361099b565b91506109ed826109ac565b602082019050919050565b60006020820190508181036000830152610a11816109d5565b9050919050565b7f6f6e6c79206d616e61676572706f6f6c2063616e2063616c6c2074686973206660008201527f756e6374696f6e00000000000000000000000000000000000000000000000000602082015250565b6000610a7460278361099b565b9150610a7f82610a18565b604082019050919050565b60006020820190508181036000830152610aa381610a67565b9050919050565b7f4e487b7100000000000000000000000000000000000000000000000000000000600052601160045260246000fd5b6000610ae4826106db565b9150610aef836106db565b9250827fffffffffffffffffffffffffffffffffffffffffffffffffffffffffffffffff03821115610b2457610b23610aaa565b5b828201905092915050565b6000819050919050565b610b4a610b45826106db565b610b2f565b82525050565b600081549050919050565b600081905092915050565b60008190508160005260206000209050919050565b610b848161069f565b82525050565b6000610b968383610b7b565b60208301905092915050565b60008160001c9050919050565b600073ffffffffffffffffffffffffffffffffffffffff82169050919050565b6000610be2610bdd83610ba2565b610baf565b9050919050565b6000610bf58254610bcf565b9050919050565b6000600182019050919050565b6000610c1482610b50565b610c1e8185610b5b565b9350610c2983610b66565b8060005b83811015610c6157610c3e82610be9565b610c488882610b8a565b9750610c5383610bfc565b925050600181019050610c2d565b5085935050505092915050565b6000610c7a8286610b39565b602082019150610c8a8285610b39565b602082019150610c9a8284610c09565b9150819050949350505050565b7f4e487b7100000000000000000000000000000000000000000000000000000000600052601260045260246000fd5b6000610ce1826106db565b9150610cec836106db565b925082610cfc57610cfb610ca7565b5b828206905092915050565b7f73656564206973206e6f74207965742073657400000000000000000000000000600082015250565b6000610d3d60138361099b565b9150610d4882610d07565b602082019050919050565b60006020820190508181036000830152610d6c81610d30565b9050919050565b7f646f6e6174696f6e7320617265206e6f7420636c6f7365642079657400000000600082015250565b6000610da9601c8361099b565b9150610db482610d73565b602082019050919050565b60006020820190508181036000830152610dd881610d9c565b9050919050565b610de88161061c565b82525050565b6000604082019050610e0360008301856106b1565b610e106020830184610ddf565b9392505050565b6000604082019050610e2c6000830185610ddf565b610e396020830184610ddf565b939250505056fea264697066735822122068e4ab30c0e0dfc96c3b53c82eb8f906940436fa6e509e5b58ce75435b56ec0364736f6c634300080d0033",
					"opcodes": "PUSH1 0x80 PUSH1 0x40 MSTORE CALLVALUE DUP1 ISZERO PUSH2 0x10 JUMPI PUSH1 0x0 DUP1 REVERT JUMPDEST POP CALLER PUSH1 0x0 DUP1 PUSH2 0x100 EXP DUP2 SLOAD DUP2 PUSH20 0xFFFFFFFFFFFFFFFFFFFFFFFFFFFFFFFFFFFFFFFF MUL NOT AND SWAP1 DUP4 PUSH20 0xFFFFFFFFFFFFFFFFFFFFFFFFFFFFFFFFFFFFFFFF AND MUL OR SWAP1 SSTORE POP PUSH1 0x0 PUSH1 0x3 PUSH1 0x0 PUSH2 0x100 EXP DUP2 SLOAD DUP2 PUSH1 0xFF MUL NOT AND SWAP1 DUP4 ISZERO ISZERO MUL OR SWAP1 SSTORE POP PUSH1 0x0 PUSH1 0x3 PUSH1 0x1 PUSH2 0x100 EXP DUP2 SLOAD DUP2 PUSH1 0xFF MUL NOT AND SWAP1 DUP4 ISZERO ISZERO MUL OR SWAP1 SSTORE POP PUSH2 0xE76 DUP1 PUSH2 0x96 PUSH1 0x0 CODECOPY PUSH1 0x0 RETURN INVALID PUSH1 0x80 PUSH1 0x40 MSTORE CALLVALUE DUP1 ISZERO PUSH2 0x10 JUMPI PUSH1 0x0 DUP1 REVERT JUMPDEST POP PUSH1 0x4 CALLDATASIZE LT PUSH2 0x88 JUMPI PUSH1 0x0 CALLDATALOAD PUSH1 0xE0 SHR DUP1 PUSH4 0x701FD0F1 GT PUSH2 0x5B JUMPI DUP1 PUSH4 0x701FD0F1 EQ PUSH2 0x127 JUMPI DUP1 PUSH4 0x99372321 EQ PUSH2 0x157 JUMPI DUP1 PUSH4 0xC129800D EQ PUSH2 0x187 JUMPI DUP1 PUSH4 0xDEDFE223 EQ PUSH2 0x1B7 JUMPI PUSH2 0x88 JUMP JUMPDEST DUP1 PUSH4 0x1E5F9149 EQ PUSH2 0x8D JUMPI DUP1 PUSH4 0x41114538 EQ PUSH2 0xBD JUMPI DUP1 PUSH4 0x4ABFA163 EQ PUSH2 0xD9 JUMPI DUP1 PUSH4 0x5EC01E4D EQ PUSH2 0x109 JUMPI JUMPDEST PUSH1 0x0 DUP1 REVERT JUMPDEST PUSH2 0xA7 PUSH1 0x4 DUP1 CALLDATASIZE SUB DUP2 ADD SWAP1 PUSH2 0xA2 SWAP2 SWAP1 PUSH2 0x652 JUMP JUMPDEST PUSH2 0x1D5 JUMP JUMPDEST PUSH1 0x40 MLOAD PUSH2 0xB4 SWAP2 SWAP1 PUSH2 0x6C0 JUMP JUMPDEST PUSH1 0x40 MLOAD DUP1 SWAP2 SUB SWAP1 RETURN JUMPDEST PUSH2 0xD7 PUSH1 0x4 DUP1 CALLDATASIZE SUB DUP2 ADD SWAP1 PUSH2 0xD2 SWAP2 SWAP1 PUSH2 0x652 JUMP JUMPDEST PUSH2 0x22F JUMP JUMPDEST STOP JUMPDEST PUSH2 0xF3 PUSH1 0x4 DUP1 CALLDATASIZE SUB DUP2 ADD SWAP1 PUSH2 0xEE SWAP2 SWAP1 PUSH2 0x711 JUMP JUMPDEST PUSH2 0x360 JUMP JUMPDEST PUSH1 0x40 MLOAD PUSH2 0x100 SWAP2 SWAP1 PUSH2 0x6C0 JUMP JUMPDEST PUSH1 0x40 MLOAD DUP1 SWAP2 SUB SWAP1 RETURN JUMPDEST PUSH2 0x111 PUSH2 0x39F JUMP JUMPDEST PUSH1 0x40 MLOAD PUSH2 0x11E SWAP2 SWAP1 PUSH2 0x74D JUMP JUMPDEST PUSH1 0x40 MLOAD DUP1 SWAP2 SUB SWAP1 RETURN JUMPDEST PUSH2 0x141 PUSH1 0x4 DUP1 CALLDATASIZE SUB DUP2 ADD SWAP1 PUSH2 0x13C SWAP2 SWAP1 PUSH2 0x652 JUMP JUMPDEST PUSH2 0x3F0 JUMP JUMPDEST PUSH1 0x40 MLOAD PUSH2 0x14E SWAP2 SWAP1 PUSH2 0x74D JUMP JUMPDEST PUSH1 0x40 MLOAD DUP1 SWAP2 SUB SWAP1 RETURN JUMPDEST PUSH2 0x171 PUSH1 0x4 DUP1 CALLDATASIZE SUB DUP2 ADD SWAP1 PUSH2 0x16C SWAP2 SWAP1 PUSH2 0x652 JUMP JUMPDEST PUSH2 0x510 JUMP JUMPDEST PUSH1 0x40 MLOAD PUSH2 0x17E SWAP2 SWAP1 PUSH2 0x783 JUMP JUMPDEST PUSH1 0x40 MLOAD DUP1 SWAP2 SUB SWAP1 RETURN JUMPDEST PUSH2 0x1A1 PUSH1 0x4 DUP1 CALLDATASIZE SUB DUP2 ADD SWAP1 PUSH2 0x19C SWAP2 SWAP1 PUSH2 0x923 JUMP JUMPDEST PUSH2 0x51B JUMP JUMPDEST PUSH1 0x40 MLOAD PUSH2 0x1AE SWAP2 SWAP1 PUSH2 0x783 JUMP JUMPDEST PUSH1 0x40 MLOAD DUP1 SWAP2 SUB SWAP1 RETURN JUMPDEST PUSH2 0x1BF PUSH2 0x53D JUMP JUMPDEST PUSH1 0x40 MLOAD PUSH2 0x1CC SWAP2 SWAP1 PUSH2 0x6C0 JUMP JUMPDEST PUSH1 0x40 MLOAD DUP1 SWAP2 SUB SWAP1 RETURN JUMPDEST PUSH1 0x0 DUP1 PUSH2 0x1E0 PUSH2 0x39F JUMP JUMPDEST SWAP1 POP PUSH1 0x0 PUSH1 0x1 DUP3 DUP2 SLOAD DUP2 LT PUSH2 0x1F8 JUMPI PUSH2 0x1F7 PUSH2 0x96C JUMP JUMPDEST JUMPDEST SWAP1 PUSH1 0x0 MSTORE PUSH1 0x20 PUSH1 0x0 KECCAK256 ADD PUSH1 0x0 SWAP1 SLOAD SWAP1 PUSH2 0x100 EXP SWAP1 DIV PUSH20 0xFFFFFFFFFFFFFFFFFFFFFFFFFFFFFFFFFFFFFFFF AND SWAP1 POP DUP1 SWAP3 POP POP POP SWAP2 SWAP1 POP JUMP JUMPDEST PUSH1 0x3 PUSH1 0x0 SWAP1 SLOAD SWAP1 PUSH2 0x100 EXP SWAP1 DIV PUSH1 0xFF AND ISZERO PUSH2 0x27F JUMPI PUSH1 0x40 MLOAD PUSH32 0x8C379A000000000000000000000000000000000000000000000000000000000 DUP2 MSTORE PUSH1 0x4 ADD PUSH2 0x276 SWAP1 PUSH2 0x9F8 JUMP JUMPDEST PUSH1 0x40 MLOAD DUP1 SWAP2 SUB SWAP1 REVERT JUMPDEST PUSH1 0x0 DUP1 SLOAD SWAP1 PUSH2 0x100 EXP SWAP1 DIV PUSH20 0xFFFFFFFFFFFFFFFFFFFFFFFFFFFFFFFFFFFFFFFF AND PUSH20 0xFFFFFFFFFFFFFFFFFFFFFFFFFFFFFFFFFFFFFFFF AND CALLER PUSH20 0xFFFFFFFFFFFFFFFFFFFFFFFFFFFFFFFFFFFFFFFF AND EQ PUSH2 0x30D JUMPI PUSH1 0x40 MLOAD PUSH32 0x8C379A000000000000000000000000000000000000000000000000000000000 DUP2 MSTORE PUSH1 0x4 ADD PUSH2 0x304 SWAP1 PUSH2 0xA8A JUMP JUMPDEST PUSH1 0x40 MLOAD DUP1 SWAP2 SUB SWAP1 REVERT JUMPDEST PUSH1 0x1 PUSH1 0x3 PUSH1 0x1 PUSH2 0x100 EXP DUP2 SLOAD DUP2 PUSH1 0xFF MUL NOT AND SWAP1 DUP4 ISZERO ISZERO MUL OR SWAP1 SSTORE POP DUP1 PUSH1 0x2 DUP2 SWAP1 SSTORE POP PUSH1 0x1 NUMBER PUSH2 0x33C SWAP2 SWAP1 PUSH2 0xAD9 JUMP JUMPDEST PUSH1 0x4 DUP2 SWAP1 SSTORE POP PUSH1 0x1 PUSH1 0x3 PUSH1 0x0 PUSH2 0x100 EXP DUP2 SLOAD DUP2 PUSH1 0xFF MUL NOT AND SWAP1 DUP4 ISZERO ISZERO MUL OR SWAP1 SSTORE POP POP JUMP JUMPDEST PUSH1 0x1 DUP2 DUP2 SLOAD DUP2 LT PUSH2 0x370 JUMPI PUSH1 0x0 DUP1 REVERT JUMPDEST SWAP1 PUSH1 0x0 MSTORE PUSH1 0x20 PUSH1 0x0 KECCAK256 ADD PUSH1 0x0 SWAP2 POP SLOAD SWAP1 PUSH2 0x100 EXP SWAP1 DIV PUSH20 0xFFFFFFFFFFFFFFFFFFFFFFFFFFFFFFFFFFFFFFFF AND DUP2 JUMP JUMPDEST PUSH1 0x0 DUP1 DIFFICULTY TIMESTAMP PUSH1 0x1 PUSH1 0x40 MLOAD PUSH1 0x20 ADD PUSH2 0x3B8 SWAP4 SWAP3 SWAP2 SWAP1 PUSH2 0xC6E JUMP JUMPDEST PUSH1 0x40 MLOAD PUSH1 0x20 DUP2 DUP4 SUB SUB DUP2 MSTORE SWAP1 PUSH1 0x40 MSTORE DUP1 MLOAD SWAP1 PUSH1 0x20 ADD KECCAK256 PUSH1 0x0 SHR SWAP1 POP PUSH1 0x0 PUSH1 0x1 DUP1 SLOAD SWAP1 POP DUP3 PUSH2 0x3E6 SWAP2 SWAP1 PUSH2 0xCD6 JUMP JUMPDEST SWAP1 POP DUP1 SWAP3 POP POP POP SWAP1 JUMP JUMPDEST PUSH1 0x0 PUSH1 0x3 PUSH1 0x0 SWAP1 SLOAD SWAP1 PUSH2 0x100 EXP SWAP1 DIV PUSH1 0xFF AND PUSH2 0x441 JUMPI PUSH1 0x40 MLOAD PUSH32 0x8C379A000000000000000000000000000000000000000000000000000000000 DUP2 MSTORE PUSH1 0x4 ADD PUSH2 0x438 SWAP1 PUSH2 0xD53 JUMP JUMPDEST PUSH1 0x40 MLOAD DUP1 SWAP2 SUB SWAP1 REVERT JUMPDEST PUSH1 0x3 PUSH1 0x1 SWAP1 SLOAD SWAP1 PUSH2 0x100 EXP SWAP1 DIV PUSH1 0xFF AND PUSH2 0x490 JUMPI PUSH1 0x40 MLOAD PUSH32 0x8C379A000000000000000000000000000000000000000000000000000000000 DUP2 MSTORE PUSH1 0x4 ADD PUSH2 0x487 SWAP1 PUSH2 0xDBF JUMP JUMPDEST PUSH1 0x40 MLOAD DUP1 SWAP2 SUB SWAP1 REVERT JUMPDEST NUMBER PUSH1 0x4 SLOAD LT PUSH2 0x49E JUMPI PUSH1 0x0 DUP1 REVERT JUMPDEST PUSH1 0x2 SLOAD CALLER DUP4 PUSH1 0x40 MLOAD PUSH1 0x20 ADD PUSH2 0x4B4 SWAP3 SWAP2 SWAP1 PUSH2 0xDEE JUMP JUMPDEST PUSH1 0x40 MLOAD PUSH1 0x20 DUP2 DUP4 SUB SUB DUP2 MSTORE SWAP1 PUSH1 0x40 MSTORE DUP1 MLOAD SWAP1 PUSH1 0x20 ADD KECCAK256 EQ PUSH2 0x4D4 JUMPI PUSH1 0x0 DUP1 REVERT JUMPDEST PUSH1 0x0 DUP3 PUSH1 0x4 SLOAD BLOCKHASH PUSH1 0x40 MLOAD PUSH1 0x20 ADD PUSH2 0x4EC SWAP3 SWAP2 SWAP1 PUSH2 0xE17 JUMP JUMPDEST PUSH1 0x40 MLOAD PUSH1 0x20 DUP2 DUP4 SUB SUB DUP2 MSTORE SWAP1 PUSH1 0x40 MSTORE DUP1 MLOAD SWAP1 PUSH1 0x20 ADD KECCAK256 PUSH1 0x0 SHR SWAP1 POP DUP1 SWAP2 POP POP SWAP2 SWAP1 POP JUMP JUMPDEST PUSH1 0x0 PUSH1 0x1 SWAP1 POP SWAP2 SWAP1 POP JUMP JUMPDEST PUSH1 0x0 DUP2 PUSH1 0x1 SWAP1 DUP1 MLOAD SWAP1 PUSH1 0x20 ADD SWAP1 PUSH2 0x533 SWAP3 SWAP2 SWAP1 PUSH2 0x561 JUMP JUMPDEST POP PUSH1 0x1 SWAP1 POP SWAP2 SWAP1 POP JUMP JUMPDEST PUSH1 0x0 DUP1 SLOAD SWAP1 PUSH2 0x100 EXP SWAP1 DIV PUSH20 0xFFFFFFFFFFFFFFFFFFFFFFFFFFFFFFFFFFFFFFFF AND DUP2 JUMP JUMPDEST DUP3 DUP1 SLOAD DUP3 DUP3 SSTORE SWAP1 PUSH1 0x0 MSTORE PUSH1 0x20 PUSH1 0x0 KECCAK256 SWAP1 DUP2 ADD SWAP3 DUP3 ISZERO PUSH2 0x5DA JUMPI SWAP2 PUSH1 0x20 MUL DUP3 ADD JUMPDEST DUP3 DUP2 GT ISZERO PUSH2 0x5D9 JUMPI DUP3 MLOAD DUP3 PUSH1 0x0 PUSH2 0x100 EXP DUP2 SLOAD DUP2 PUSH20 0xFFFFFFFFFFFFFFFFFFFFFFFFFFFFFFFFFFFFFFFF MUL NOT AND SWAP1 DUP4 PUSH20 0xFFFFFFFFFFFFFFFFFFFFFFFFFFFFFFFFFFFFFFFF AND MUL OR SWAP1 SSTORE POP SWAP2 PUSH1 0x20 ADD SWAP2 SWAP1 PUSH1 0x1 ADD SWAP1 PUSH2 0x581 JUMP JUMPDEST JUMPDEST POP SWAP1 POP PUSH2 0x5E7 SWAP2 SWAP1 PUSH2 0x5EB JUMP JUMPDEST POP SWAP1 JUMP JUMPDEST JUMPDEST DUP1 DUP3 GT ISZERO PUSH2 0x604 JUMPI PUSH1 0x0 DUP2 PUSH1 0x0 SWAP1 SSTORE POP PUSH1 0x1 ADD PUSH2 0x5EC JUMP JUMPDEST POP SWAP1 JUMP JUMPDEST PUSH1 0x0 PUSH1 0x40 MLOAD SWAP1 POP SWAP1 JUMP JUMPDEST PUSH1 0x0 DUP1 REVERT JUMPDEST PUSH1 0x0 DUP1 REVERT JUMPDEST PUSH1 0x0 DUP2 SWAP1 POP SWAP2 SWAP1 POP JUMP JUMPDEST PUSH2 0x62F DUP2 PUSH2 0x61C JUMP JUMPDEST DUP2 EQ PUSH2 0x63A JUMPI PUSH1 0x0 DUP1 REVERT JUMPDEST POP JUMP JUMPDEST PUSH1 0x0 DUP2 CALLDATALOAD SWAP1 POP PUSH2 0x64C DUP2 PUSH2 0x626 JUMP JUMPDEST SWAP3 SWAP2 POP POP JUMP JUMPDEST PUSH1 0x0 PUSH1 0x20 DUP3 DUP5 SUB SLT ISZERO PUSH2 0x668 JUMPI PUSH2 0x667 PUSH2 0x612 JUMP JUMPDEST JUMPDEST PUSH1 0x0 PUSH2 0x676 DUP5 DUP3 DUP6 ADD PUSH2 0x63D JUMP JUMPDEST SWAP2 POP POP SWAP3 SWAP2 POP POP JUMP JUMPDEST PUSH1 0x0 PUSH20 0xFFFFFFFFFFFFFFFFFFFFFFFFFFFFFFFFFFFFFFFF DUP3 AND SWAP1 POP SWAP2 SWAP1 POP JUMP JUMPDEST PUSH1 0x0 PUSH2 0x6AA DUP3 PUSH2 0x67F JUMP JUMPDEST SWAP1 POP SWAP2 SWAP1 POP JUMP JUMPDEST PUSH2 0x6BA DUP2 PUSH2 0x69F JUMP JUMPDEST DUP3 MSTORE POP POP JUMP JUMPDEST PUSH1 0x0 PUSH1 0x20 DUP3 ADD SWAP1 POP PUSH2 0x6D5 PUSH1 0x0 DUP4 ADD DUP5 PUSH2 0x6B1 JUMP JUMPDEST SWAP3 SWAP2 POP POP JUMP JUMPDEST PUSH1 0x0 DUP2 SWAP1 POP SWAP2 SWAP1 POP JUMP JUMPDEST PUSH2 0x6EE DUP2 PUSH2 0x6DB JUMP JUMPDEST DUP2 EQ PUSH2 0x6F9 JUMPI PUSH1 0x0 DUP1 REVERT JUMPDEST POP JUMP JUMPDEST PUSH1 0x0 DUP2 CALLDATALOAD SWAP1 POP PUSH2 0x70B DUP2 PUSH2 0x6E5 JUMP JUMPDEST SWAP3 SWAP2 POP POP JUMP JUMPDEST PUSH1 0x0 PUSH1 0x20 DUP3 DUP5 SUB SLT ISZERO PUSH2 0x727 JUMPI PUSH2 0x726 PUSH2 0x612 JUMP JUMPDEST JUMPDEST PUSH1 0x0 PUSH2 0x735 DUP5 DUP3 DUP6 ADD PUSH2 0x6FC JUMP JUMPDEST SWAP2 POP POP SWAP3 SWAP2 POP POP JUMP JUMPDEST PUSH2 0x747 DUP2 PUSH2 0x6DB JUMP JUMPDEST DUP3 MSTORE POP POP JUMP JUMPDEST PUSH1 0x0 PUSH1 0x20 DUP3 ADD SWAP1 POP PUSH2 0x762 PUSH1 0x0 DUP4 ADD DUP5 PUSH2 0x73E JUMP JUMPDEST SWAP3 SWAP2 POP POP JUMP JUMPDEST PUSH1 0x0 DUP2 ISZERO ISZERO SWAP1 POP SWAP2 SWAP1 POP JUMP JUMPDEST PUSH2 0x77D DUP2 PUSH2 0x768 JUMP JUMPDEST DUP3 MSTORE POP POP JUMP JUMPDEST PUSH1 0x0 PUSH1 0x20 DUP3 ADD SWAP1 POP PUSH2 0x798 PUSH1 0x0 DUP4 ADD DUP5 PUSH2 0x774 JUMP JUMPDEST SWAP3 SWAP2 POP POP JUMP JUMPDEST PUSH1 0x0 DUP1 REVERT JUMPDEST PUSH1 0x0 PUSH1 0x1F NOT PUSH1 0x1F DUP4 ADD AND SWAP1 POP SWAP2 SWAP1 POP JUMP JUMPDEST PUSH32 0x4E487B7100000000000000000000000000000000000000000000000000000000 PUSH1 0x0 MSTORE PUSH1 0x41 PUSH1 0x4 MSTORE PUSH1 0x24 PUSH1 0x0 REVERT JUMPDEST PUSH2 0x7EC DUP3 PUSH2 0x7A3 JUMP JUMPDEST DUP2 ADD DUP2 DUP2 LT PUSH8 0xFFFFFFFFFFFFFFFF DUP3 GT OR ISZERO PUSH2 0x80B JUMPI PUSH2 0x80A PUSH2 0x7B4 JUMP JUMPDEST JUMPDEST DUP1 PUSH1 0x40 MSTORE POP POP POP JUMP JUMPDEST PUSH1 0x0 PUSH2 0x81E PUSH2 0x608 JUMP JUMPDEST SWAP1 POP PUSH2 0x82A DUP3 DUP3 PUSH2 0x7E3 JUMP JUMPDEST SWAP2 SWAP1 POP JUMP JUMPDEST PUSH1 0x0 PUSH8 0xFFFFFFFFFFFFFFFF DUP3 GT ISZERO PUSH2 0x84A JUMPI PUSH2 0x849 PUSH2 0x7B4 JUMP JUMPDEST JUMPDEST PUSH1 0x20 DUP3 MUL SWAP1 POP PUSH1 0x20 DUP2 ADD SWAP1 POP SWAP2 SWAP1 POP JUMP JUMPDEST PUSH1 0x0 DUP1 REVERT JUMPDEST PUSH2 0x869 DUP2 PUSH2 0x69F JUMP JUMPDEST DUP2 EQ PUSH2 0x874 JUMPI PUSH1 0x0 DUP1 REVERT JUMPDEST POP JUMP JUMPDEST PUSH1 0x0 DUP2 CALLDATALOAD SWAP1 POP PUSH2 0x886 DUP2 PUSH2 0x860 JUMP JUMPDEST SWAP3 SWAP2 POP POP JUMP JUMPDEST PUSH1 0x0 PUSH2 0x89F PUSH2 0x89A DUP5 PUSH2 0x82F JUMP JUMPDEST PUSH2 0x814 JUMP JUMPDEST SWAP1 POP DUP1 DUP4 DUP3 MSTORE PUSH1 0x20 DUP3 ADD SWAP1 POP PUSH1 0x20 DUP5 MUL DUP4 ADD DUP6 DUP2 GT ISZERO PUSH2 0x8C2 JUMPI PUSH2 0x8C1 PUSH2 0x85B JUMP JUMPDEST JUMPDEST DUP4 JUMPDEST DUP2 DUP2 LT ISZERO PUSH2 0x8EB JUMPI DUP1 PUSH2 0x8D7 DUP9 DUP3 PUSH2 0x877 JUMP JUMPDEST DUP5 MSTORE PUSH1 0x20 DUP5 ADD SWAP4 POP POP PUSH1 0x20 DUP2 ADD SWAP1 POP PUSH2 0x8C4 JUMP JUMPDEST POP POP POP SWAP4 SWAP3 POP POP POP JUMP JUMPDEST PUSH1 0x0 DUP3 PUSH1 0x1F DUP4 ADD SLT PUSH2 0x90A JUMPI PUSH2 0x909 PUSH2 0x79E JUMP JUMPDEST JUMPDEST DUP2 CALLDATALOAD PUSH2 0x91A DUP5 DUP3 PUSH1 0x20 DUP7 ADD PUSH2 0x88C JUMP JUMPDEST SWAP2 POP POP SWAP3 SWAP2 POP POP JUMP JUMPDEST PUSH1 0x0 PUSH1 0x20 DUP3 DUP5 SUB SLT ISZERO PUSH2 0x939 JUMPI PUSH2 0x938 PUSH2 0x612 JUMP JUMPDEST JUMPDEST PUSH1 0x0 DUP3 ADD CALLDATALOAD PUSH8 0xFFFFFFFFFFFFFFFF DUP2 GT ISZERO PUSH2 0x957 JUMPI PUSH2 0x956 PUSH2 0x617 JUMP JUMPDEST JUMPDEST PUSH2 0x963 DUP5 DUP3 DUP6 ADD PUSH2 0x8F5 JUMP JUMPDEST SWAP2 POP POP SWAP3 SWAP2 POP POP JUMP JUMPDEST PUSH32 0x4E487B7100000000000000000000000000000000000000000000000000000000 PUSH1 0x0 MSTORE PUSH1 0x32 PUSH1 0x4 MSTORE PUSH1 0x24 PUSH1 0x0 REVERT JUMPDEST PUSH1 0x0 DUP3 DUP3 MSTORE PUSH1 0x20 DUP3 ADD SWAP1 POP SWAP3 SWAP2 POP POP JUMP JUMPDEST PUSH32 0x7365656420697320616C72656164792073657400000000000000000000000000 PUSH1 0x0 DUP3 ADD MSTORE POP JUMP JUMPDEST PUSH1 0x0 PUSH2 0x9E2 PUSH1 0x13 DUP4 PUSH2 0x99B JUMP JUMPDEST SWAP2 POP PUSH2 0x9ED DUP3 PUSH2 0x9AC JUMP JUMPDEST PUSH1 0x20 DUP3 ADD SWAP1 POP SWAP2 SWAP1 POP JUMP JUMPDEST PUSH1 0x0 PUSH1 0x20 DUP3 ADD SWAP1 POP DUP2 DUP2 SUB PUSH1 0x0 DUP4 ADD MSTORE PUSH2 0xA11 DUP2 PUSH2 0x9D5 JUMP JUMPDEST SWAP1 POP SWAP2 SWAP1 POP JUMP JUMPDEST PUSH32 0x6F6E6C79206D616E61676572706F6F6C2063616E2063616C6C20746869732066 PUSH1 0x0 DUP3 ADD MSTORE PUSH32 0x756E6374696F6E00000000000000000000000000000000000000000000000000 PUSH1 0x20 DUP3 ADD MSTORE POP JUMP JUMPDEST PUSH1 0x0 PUSH2 0xA74 PUSH1 0x27 DUP4 PUSH2 0x99B JUMP JUMPDEST SWAP2 POP PUSH2 0xA7F DUP3 PUSH2 0xA18 JUMP JUMPDEST PUSH1 0x40 DUP3 ADD SWAP1 POP SWAP2 SWAP1 POP JUMP JUMPDEST PUSH1 0x0 PUSH1 0x20 DUP3 ADD SWAP1 POP DUP2 DUP2 SUB PUSH1 0x0 DUP4 ADD MSTORE PUSH2 0xAA3 DUP2 PUSH2 0xA67 JUMP JUMPDEST SWAP1 POP SWAP2 SWAP1 POP JUMP JUMPDEST PUSH32 0x4E487B7100000000000000000000000000000000000000000000000000000000 PUSH1 0x0 MSTORE PUSH1 0x11 PUSH1 0x4 MSTORE PUSH1 0x24 PUSH1 0x0 REVERT JUMPDEST PUSH1 0x0 PUSH2 0xAE4 DUP3 PUSH2 0x6DB JUMP JUMPDEST SWAP2 POP PUSH2 0xAEF DUP4 PUSH2 0x6DB JUMP JUMPDEST SWAP3 POP DUP3 PUSH32 0xFFFFFFFFFFFFFFFFFFFFFFFFFFFFFFFFFFFFFFFFFFFFFFFFFFFFFFFFFFFFFFFF SUB DUP3 GT ISZERO PUSH2 0xB24 JUMPI PUSH2 0xB23 PUSH2 0xAAA JUMP JUMPDEST JUMPDEST DUP3 DUP3 ADD SWAP1 POP SWAP3 SWAP2 POP POP JUMP JUMPDEST PUSH1 0x0 DUP2 SWAP1 POP SWAP2 SWAP1 POP JUMP JUMPDEST PUSH2 0xB4A PUSH2 0xB45 DUP3 PUSH2 0x6DB JUMP JUMPDEST PUSH2 0xB2F JUMP JUMPDEST DUP3 MSTORE POP POP JUMP JUMPDEST PUSH1 0x0 DUP2 SLOAD SWAP1 POP SWAP2 SWAP1 POP JUMP JUMPDEST PUSH1 0x0 DUP2 SWAP1 POP SWAP3 SWAP2 POP POP JUMP JUMPDEST PUSH1 0x0 DUP2 SWAP1 POP DUP2 PUSH1 0x0 MSTORE PUSH1 0x20 PUSH1 0x0 KECCAK256 SWAP1 POP SWAP2 SWAP1 POP JUMP JUMPDEST PUSH2 0xB84 DUP2 PUSH2 0x69F JUMP JUMPDEST DUP3 MSTORE POP POP JUMP JUMPDEST PUSH1 0x0 PUSH2 0xB96 DUP4 DUP4 PUSH2 0xB7B JUMP JUMPDEST PUSH1 0x20 DUP4 ADD SWAP1 POP SWAP3 SWAP2 POP POP JUMP JUMPDEST PUSH1 0x0 DUP2 PUSH1 0x0 SHR SWAP1 POP SWAP2 SWAP1 POP JUMP JUMPDEST PUSH1 0x0 PUSH20 0xFFFFFFFFFFFFFFFFFFFFFFFFFFFFFFFFFFFFFFFF DUP3 AND SWAP1 POP SWAP2 SWAP1 POP JUMP JUMPDEST PUSH1 0x0 PUSH2 0xBE2 PUSH2 0xBDD DUP4 PUSH2 0xBA2 JUMP JUMPDEST PUSH2 0xBAF JUMP JUMPDEST SWAP1 POP SWAP2 SWAP1 POP JUMP JUMPDEST PUSH1 0x0 PUSH2 0xBF5 DUP3 SLOAD PUSH2 0xBCF JUMP JUMPDEST SWAP1 POP SWAP2 SWAP1 POP JUMP JUMPDEST PUSH1 0x0 PUSH1 0x1 DUP3 ADD SWAP1 POP SWAP2 SWAP1 POP JUMP JUMPDEST PUSH1 0x0 PUSH2 0xC14 DUP3 PUSH2 0xB50 JUMP JUMPDEST PUSH2 0xC1E DUP2 DUP6 PUSH2 0xB5B JUMP JUMPDEST SWAP4 POP PUSH2 0xC29 DUP4 PUSH2 0xB66 JUMP JUMPDEST DUP1 PUSH1 0x0 JUMPDEST DUP4 DUP2 LT ISZERO PUSH2 0xC61 JUMPI PUSH2 0xC3E DUP3 PUSH2 0xBE9 JUMP JUMPDEST PUSH2 0xC48 DUP9 DUP3 PUSH2 0xB8A JUMP JUMPDEST SWAP8 POP PUSH2 0xC53 DUP4 PUSH2 0xBFC JUMP JUMPDEST SWAP3 POP POP PUSH1 0x1 DUP2 ADD SWAP1 POP PUSH2 0xC2D JUMP JUMPDEST POP DUP6 SWAP4 POP POP POP POP SWAP3 SWAP2 POP POP JUMP JUMPDEST PUSH1 0x0 PUSH2 0xC7A DUP3 DUP7 PUSH2 0xB39 JUMP JUMPDEST PUSH1 0x20 DUP3 ADD SWAP2 POP PUSH2 0xC8A DUP3 DUP6 PUSH2 0xB39 JUMP JUMPDEST PUSH1 0x20 DUP3 ADD SWAP2 POP PUSH2 0xC9A DUP3 DUP5 PUSH2 0xC09 JUMP JUMPDEST SWAP2 POP DUP2 SWAP1 POP SWAP5 SWAP4 POP POP POP POP JUMP JUMPDEST PUSH32 0x4E487B7100000000000000000000000000000000000000000000000000000000 PUSH1 0x0 MSTORE PUSH1 0x12 PUSH1 0x4 MSTORE PUSH1 0x24 PUSH1 0x0 REVERT JUMPDEST PUSH1 0x0 PUSH2 0xCE1 DUP3 PUSH2 0x6DB JUMP JUMPDEST SWAP2 POP PUSH2 0xCEC DUP4 PUSH2 0x6DB JUMP JUMPDEST SWAP3 POP DUP3 PUSH2 0xCFC JUMPI PUSH2 0xCFB PUSH2 0xCA7 JUMP JUMPDEST JUMPDEST DUP3 DUP3 MOD SWAP1 POP SWAP3 SWAP2 POP POP JUMP JUMPDEST PUSH32 0x73656564206973206E6F74207965742073657400000000000000000000000000 PUSH1 0x0 DUP3 ADD MSTORE POP JUMP JUMPDEST PUSH1 0x0 PUSH2 0xD3D PUSH1 0x13 DUP4 PUSH2 0x99B JUMP JUMPDEST SWAP2 POP PUSH2 0xD48 DUP3 PUSH2 0xD07 JUMP JUMPDEST PUSH1 0x20 DUP3 ADD SWAP1 POP SWAP2 SWAP1 POP JUMP JUMPDEST PUSH1 0x0 PUSH1 0x20 DUP3 ADD SWAP1 POP DUP2 DUP2 SUB PUSH1 0x0 DUP4 ADD MSTORE PUSH2 0xD6C DUP2 PUSH2 0xD30 JUMP JUMPDEST SWAP1 POP SWAP2 SWAP1 POP JUMP JUMPDEST PUSH32 0x646F6E6174696F6E7320617265206E6F7420636C6F7365642079657400000000 PUSH1 0x0 DUP3 ADD MSTORE POP JUMP JUMPDEST PUSH1 0x0 PUSH2 0xDA9 PUSH1 0x1C DUP4 PUSH2 0x99B JUMP JUMPDEST SWAP2 POP PUSH2 0xDB4 DUP3 PUSH2 0xD73 JUMP JUMPDEST PUSH1 0x20 DUP3 ADD SWAP1 POP SWAP2 SWAP1 POP JUMP JUMPDEST PUSH1 0x0 PUSH1 0x20 DUP3 ADD SWAP1 POP DUP2 DUP2 SUB PUSH1 0x0 DUP4 ADD MSTORE PUSH2 0xDD8 DUP2 PUSH2 0xD9C JUMP JUMPDEST SWAP1 POP SWAP2 SWAP1 POP JUMP JUMPDEST PUSH2 0xDE8 DUP2 PUSH2 0x61C JUMP JUMPDEST DUP3 MSTORE POP POP JUMP JUMPDEST PUSH1 0x0 PUSH1 0x40 DUP3 ADD SWAP1 POP PUSH2 0xE03 PUSH1 0x0 DUP4 ADD DUP6 PUSH2 0x6B1 JUMP JUMPDEST PUSH2 0xE10 PUSH1 0x20 DUP4 ADD DUP5 PUSH2 0xDDF JUMP JUMPDEST SWAP4 SWAP3 POP POP POP JUMP JUMPDEST PUSH1 0x0 PUSH1 0x40 DUP3 ADD SWAP1 POP PUSH2 0xE2C PUSH1 0x0 DUP4 ADD DUP6 PUSH2 0xDDF JUMP JUMPDEST PUSH2 0xE39 PUSH1 0x20 DUP4 ADD DUP5 PUSH2 0xDDF JUMP JUMPDEST SWAP4 SWAP3 POP POP POP JUMP INVALID LOG2 PUSH5 0x6970667358 0x22 SLT KECCAK256 PUSH9 0xE4AB30C0E0DFC96C3B MSTORE8 0xC8 0x2E 0xB8 0xF9 MOD SWAP5 DIV CALLDATASIZE STATICCALL PUSH15 0x509E5B58CE75435B56EC0364736F6C PUSH4 0x4300080D STOP CALLER "
				},
				"gasEstimates": {
					"creation": {
						"codeDepositCost": "740400",
						"executionCost": "73623",
						"totalCost": "814023"
					},
					"external": {
						"donors(uint256)": "5001",
						"enterLottery(address[])": "infinite",
						"getWinner(bytes32)": "infinite",
						"managerpool()": "2577",
						"random()": "infinite",
						"reveal(bytes32)": "infinite",
						"setSealedSeed(bytes32)": "infinite",
						"test(bytes32)": "630"
					}
				},
				"methodIdentifiers": {
					"donors(uint256)": "4abfa163",
					"enterLottery(address[])": "c129800d",
					"getWinner(bytes32)": "1e5f9149",
					"managerpool()": "dedfe223",
					"random()": "5ec01e4d",
					"reveal(bytes32)": "701fd0f1",
					"setSealedSeed(bytes32)": "41114538",
					"test(bytes32)": "99372321"
				}
			},
			"storageLayout": {
				"storage": [
					{
						"astId": 24,
						"contract": "contracts/Lottery.sol:Lottery",
						"label": "managerpool",
						"offset": 0,
						"slot": "0",
						"type": "t_address"
					},
					{
						"astId": 27,
						"contract": "contracts/Lottery.sol:Lottery",
						"label": "donors",
						"offset": 0,
						"slot": "1",
						"type": "t_array(t_address)dyn_storage"
					},
					{
						"astId": 29,
						"contract": "contracts/Lottery.sol:Lottery",
						"label": "sealedSeed",
						"offset": 0,
						"slot": "2",
						"type": "t_bytes32"
					},
					{
						"astId": 31,
						"contract": "contracts/Lottery.sol:Lottery",
						"label": "seedSet",
						"offset": 0,
						"slot": "3",
						"type": "t_bool"
					},
					{
						"astId": 33,
						"contract": "contracts/Lottery.sol:Lottery",
						"label": "donationsClosed",
						"offset": 1,
						"slot": "3",
						"type": "t_bool"
					},
					{
						"astId": 35,
						"contract": "contracts/Lottery.sol:Lottery",
						"label": "storedBlockNumber",
						"offset": 0,
						"slot": "4",
						"type": "t_uint256"
					}
				],
				"types": {
					"t_address": {
						"encoding": "inplace",
						"label": "address",
						"numberOfBytes": "20"
					},
					"t_array(t_address)dyn_storage": {
						"base": "t_address",
						"encoding": "dynamic_array",
						"label": "address[]",
						"numberOfBytes": "32"
					},
					"t_bool": {
						"encoding": "inplace",
						"label": "bool",
						"numberOfBytes": "1"
					},
					"t_bytes32": {
						"encoding": "inplace",
						"label": "bytes32",
						"numberOfBytes": "32"
					},
					"t_uint256": {
						"encoding": "inplace",
						"label": "uint256",
						"numberOfBytes": "32"
					}
				}
			},
			"userdoc": {
				"kind": "user",
				"methods": {},
				"version": 1
			}
		}
	}
}