{
	"contracts/Lottery.sol": {
		"Lottery": {
			"abi": [
				{
					"inputs": [],
					"stateMutability": "nonpayable",
					"type": "constructor"
				},
				{
					"inputs": [
						{
							"internalType": "uint256",
							"name": "",
							"type": "uint256"
						}
					],
					"name": "donors",
					"outputs": [
						{
							"internalType": "address",
							"name": "",
							"type": "address"
						}
					],
					"stateMutability": "view",
					"type": "function"
				},
				{
					"inputs": [
						{
							"internalType": "address[]",
							"name": "_donators",
							"type": "address[]"
						},
						{
							"internalType": "bytes32",
							"name": "_sealedSeed",
							"type": "bytes32"
						}
					],
					"name": "enterLottery",
					"outputs": [
						{
							"internalType": "bool",
							"name": "",
							"type": "bool"
						}
					],
					"stateMutability": "nonpayable",
					"type": "function"
				},
				{
					"inputs": [
						{
							"internalType": "bytes32",
							"name": "_seed",
							"type": "bytes32"
						}
					],
					"name": "getWinner",
					"outputs": [
						{
							"internalType": "address",
							"name": "",
							"type": "address"
						}
					],
					"stateMutability": "nonpayable",
					"type": "function"
				},
				{
					"inputs": [],
					"name": "managerpool",
					"outputs": [
						{
							"internalType": "address",
							"name": "",
							"type": "address"
						}
					],
					"stateMutability": "view",
					"type": "function"
				},
				{
					"inputs": [],
					"name": "random",
					"outputs": [
						{
							"internalType": "uint256",
							"name": "",
							"type": "uint256"
						}
					],
					"stateMutability": "view",
					"type": "function"
				},
				{
					"inputs": [
						{
							"internalType": "bytes32",
							"name": "_seed",
							"type": "bytes32"
						}
					],
					"name": "reveal",
					"outputs": [
						{
							"internalType": "uint256",
							"name": "",
							"type": "uint256"
						}
					],
					"stateMutability": "nonpayable",
					"type": "function"
				},
				{
					"inputs": [
						{
							"internalType": "bytes32",
							"name": "_sealedSeed",
							"type": "bytes32"
						}
					],
					"name": "setSealedSeed",
					"outputs": [],
					"stateMutability": "nonpayable",
					"type": "function"
				},
				{
					"inputs": [
						{
							"internalType": "bytes32",
							"name": "_test",
							"type": "bytes32"
						}
					],
					"name": "test",
					"outputs": [
						{
							"internalType": "bool",
							"name": "",
							"type": "bool"
						}
					],
					"stateMutability": "nonpayable",
					"type": "function"
				}
			],
			"devdoc": {
				"kind": "dev",
				"methods": {},
				"version": 1
			},
			"evm": {
				"assembly": "    /* \"contracts/Lottery.sol\":92:2463  contract Lottery is ILottery{... */\n  mstore(0x40, 0x80)\n    /* \"contracts/Lottery.sol\":372:522  constructor(){... */\n  callvalue\n  dup1\n  iszero\n  tag_1\n  jumpi\n  0x00\n  dup1\n  revert\ntag_1:\n  pop\n    /* \"contracts/Lottery.sol\":410:420  msg.sender */\n  caller\n    /* \"contracts/Lottery.sol\":396:407  managerpool */\n  0x00\n  dup1\n    /* \"contracts/Lottery.sol\":396:420  managerpool = msg.sender */\n  0x0100\n  exp\n  dup2\n  sload\n  dup2\n  0xffffffffffffffffffffffffffffffffffffffff\n  mul\n  not\n  and\n  swap1\n  dup4\n  0xffffffffffffffffffffffffffffffffffffffff\n  and\n  mul\n  or\n  swap1\n  sstore\n  pop\n    /* \"contracts/Lottery.sol\":442:447  false */\n  0x00\n    /* \"contracts/Lottery.sol\":432:439  seedSet */\n  0x03\n  0x00\n    /* \"contracts/Lottery.sol\":432:447  seedSet = false */\n  0x0100\n  exp\n  dup2\n  sload\n  dup2\n  0xff\n  mul\n  not\n  and\n  swap1\n  dup4\n  iszero\n  iszero\n  mul\n  or\n  swap1\n  sstore\n  pop\n    /* \"contracts/Lottery.sol\":476:481  false */\n  0x00\n    /* \"contracts/Lottery.sol\":458:473  donationsClosed */\n  0x03\n  0x01\n    /* \"contracts/Lottery.sol\":458:481  donationsClosed = false */\n  0x0100\n  exp\n  dup2\n  sload\n  dup2\n  0xff\n  mul\n  not\n  and\n  swap1\n  dup4\n  iszero\n  iszero\n  mul\n  or\n  swap1\n  sstore\n  pop\n    /* \"contracts/Lottery.sol\":511:513  10 */\n  0x0a\n    /* \"contracts/Lottery.sol\":493:508  arraytestlength */\n  0x05\n    /* \"contracts/Lottery.sol\":493:513  arraytestlength = 10 */\n  dup2\n  swap1\n  sstore\n  pop\n    /* \"contracts/Lottery.sol\":92:2463  contract Lottery is ILottery{... */\n  dataSize(sub_0)\n  dup1\n  dataOffset(sub_0)\n  0x00\n  codecopy\n  0x00\n  return\nstop\n\nsub_0: assembly {\n        /* \"contracts/Lottery.sol\":92:2463  contract Lottery is ILottery{... */\n      mstore(0x40, 0x80)\n      callvalue\n      dup1\n      iszero\n      tag_1\n      jumpi\n      0x00\n      dup1\n      revert\n    tag_1:\n      pop\n      jumpi(tag_2, lt(calldatasize, 0x04))\n      shr(0xe0, calldataload(0x00))\n      dup1\n      0x5ec01e4d\n      gt\n      tag_11\n      jumpi\n      dup1\n      0x5ec01e4d\n      eq\n      tag_7\n      jumpi\n      dup1\n      0x701fd0f1\n      eq\n      tag_8\n      jumpi\n      dup1\n      0x99372321\n      eq\n      tag_9\n      jumpi\n      dup1\n      0xdedfe223\n      eq\n      tag_10\n      jumpi\n      jump(tag_2)\n    tag_11:\n      dup1\n      0x1e5f9149\n      eq\n      tag_3\n      jumpi\n      dup1\n      0x41114538\n      eq\n      tag_4\n      jumpi\n      dup1\n      0x4abfa163\n      eq\n      tag_5\n      jumpi\n      dup1\n      0x5c6b143c\n      eq\n      tag_6\n      jumpi\n    tag_2:\n      0x00\n      dup1\n      revert\n        /* \"contracts/Lottery.sol\":960:1147  function getWinner(bytes32 _seed) external returns(address){... */\n    tag_3:\n      tag_12\n      0x04\n      dup1\n      calldatasize\n      sub\n      dup2\n      add\n      swap1\n      tag_13\n      swap2\n      swap1\n      tag_14\n      jump\t// in\n    tag_13:\n      tag_15\n      jump\t// in\n    tag_12:\n      mload(0x40)\n      tag_16\n      swap2\n      swap1\n      tag_17\n      jump\t// in\n    tag_16:\n      mload(0x40)\n      dup1\n      swap2\n      sub\n      swap1\n      return\n        /* \"contracts/Lottery.sol\":1155:1499  function setSealedSeed(bytes32 _sealedSeed) public {... */\n    tag_4:\n      tag_18\n      0x04\n      dup1\n      calldatasize\n      sub\n      dup2\n      add\n      swap1\n      tag_19\n      swap2\n      swap1\n      tag_14\n      jump\t// in\n    tag_19:\n      tag_20\n      jump\t// in\n    tag_18:\n      stop\n        /* \"contracts/Lottery.sol\":161:184  address[] public donors */\n    tag_5:\n      tag_21\n      0x04\n      dup1\n      calldatasize\n      sub\n      dup2\n      add\n      swap1\n      tag_22\n      swap2\n      swap1\n      tag_23\n      jump\t// in\n    tag_22:\n      tag_24\n      jump\t// in\n    tag_21:\n      mload(0x40)\n      tag_25\n      swap2\n      swap1\n      tag_17\n      jump\t// in\n    tag_25:\n      mload(0x40)\n      dup1\n      swap2\n      sub\n      swap1\n      return\n        /* \"contracts/Lottery.sol\":759:952  function enterLottery(address[] memory _donators, bytes32 _sealedSeed) external returns (bool){... */\n    tag_6:\n      tag_26\n      0x04\n      dup1\n      calldatasize\n      sub\n      dup2\n      add\n      swap1\n      tag_27\n      swap2\n      swap1\n      tag_28\n      jump\t// in\n    tag_27:\n      tag_29\n      jump\t// in\n    tag_26:\n      mload(0x40)\n      tag_30\n      swap2\n      swap1\n      tag_31\n      jump\t// in\n    tag_30:\n      mload(0x40)\n      dup1\n      swap2\n      sub\n      swap1\n      return\n        /* \"contracts/Lottery.sol\":2202:2458  function random() public view returns (uint){... */\n    tag_7:\n      tag_32\n      tag_33\n      jump\t// in\n    tag_32:\n      mload(0x40)\n      tag_34\n      swap2\n      swap1\n      tag_35\n      jump\t// in\n    tag_34:\n      mload(0x40)\n      dup1\n      swap2\n      sub\n      swap1\n      return\n        /* \"contracts/Lottery.sol\":1507:1992  function reveal(bytes32 _seed) public returns (uint){... */\n    tag_8:\n      tag_36\n      0x04\n      dup1\n      calldatasize\n      sub\n      dup2\n      add\n      swap1\n      tag_37\n      swap2\n      swap1\n      tag_14\n      jump\t// in\n    tag_37:\n      tag_38\n      jump\t// in\n    tag_36:\n      mload(0x40)\n      tag_39\n      swap2\n      swap1\n      tag_35\n      jump\t// in\n    tag_39:\n      mload(0x40)\n      dup1\n      swap2\n      sub\n      swap1\n      return\n        /* \"contracts/Lottery.sol\":2025:2156  function test(bytes32 _test) public returns(bool) {... */\n    tag_9:\n      tag_40\n      0x04\n      dup1\n      calldatasize\n      sub\n      dup2\n      add\n      swap1\n      tag_41\n      swap2\n      swap1\n      tag_14\n      jump\t// in\n    tag_41:\n      tag_42\n      jump\t// in\n    tag_40:\n      mload(0x40)\n      tag_43\n      swap2\n      swap1\n      tag_31\n      jump\t// in\n    tag_43:\n      mload(0x40)\n      dup1\n      swap2\n      sub\n      swap1\n      return\n        /* \"contracts/Lottery.sol\":127:153  address public managerpool */\n    tag_10:\n      tag_44\n      tag_45\n      jump\t// in\n    tag_44:\n      mload(0x40)\n      tag_46\n      swap2\n      swap1\n      tag_17\n      jump\t// in\n    tag_46:\n      mload(0x40)\n      dup1\n      swap2\n      sub\n      swap1\n      return\n        /* \"contracts/Lottery.sol\":960:1147  function getWinner(bytes32 _seed) external returns(address){... */\n    tag_15:\n        /* \"contracts/Lottery.sol\":1011:1018  address */\n      0x00\n        /* \"contracts/Lottery.sol\":1030:1041  uint random */\n      dup1\n        /* \"contracts/Lottery.sol\":1044:1057  reveal(_seed) */\n      tag_48\n        /* \"contracts/Lottery.sol\":1051:1056  _seed */\n      dup4\n        /* \"contracts/Lottery.sol\":1044:1050  reveal */\n      tag_38\n        /* \"contracts/Lottery.sol\":1044:1057  reveal(_seed) */\n      jump\t// in\n    tag_48:\n        /* \"contracts/Lottery.sol\":1030:1057  uint random = reveal(_seed) */\n      swap1\n      pop\n        /* \"contracts/Lottery.sol\":1076:1086  msg.sender */\n      caller\n        /* \"contracts/Lottery.sol\":1069:1086  return msg.sender */\n      swap2\n      pop\n      pop\n        /* \"contracts/Lottery.sol\":960:1147  function getWinner(bytes32 _seed) external returns(address){... */\n      swap2\n      swap1\n      pop\n      jump\t// out\n        /* \"contracts/Lottery.sol\":1155:1499  function setSealedSeed(bytes32 _sealedSeed) public {... */\n    tag_20:\n        /* \"contracts/Lottery.sol\":1227:1234  seedSet */\n      0x03\n      0x00\n      swap1\n      sload\n      swap1\n      0x0100\n      exp\n      swap1\n      div\n      0xff\n      and\n        /* \"contracts/Lottery.sol\":1226:1234  !seedSet */\n      iszero\n        /* \"contracts/Lottery.sol\":1217:1258  require (!seedSet, \"seed is already set\") */\n      tag_50\n      jumpi\n      mload(0x40)\n      0x08c379a000000000000000000000000000000000000000000000000000000000\n      dup2\n      mstore\n      0x04\n      add\n      tag_51\n      swap1\n      tag_52\n      jump\t// in\n    tag_51:\n      mload(0x40)\n      dup1\n      swap2\n      sub\n      swap1\n      revert\n    tag_50:\n        /* \"contracts/Lottery.sol\":1292:1303  managerpool */\n      0x00\n      dup1\n      sload\n      swap1\n      0x0100\n      exp\n      swap1\n      div\n      0xffffffffffffffffffffffffffffffffffffffff\n      and\n        /* \"contracts/Lottery.sol\":1278:1303  msg.sender == managerpool */\n      0xffffffffffffffffffffffffffffffffffffffff\n      and\n        /* \"contracts/Lottery.sol\":1278:1288  msg.sender */\n      caller\n        /* \"contracts/Lottery.sol\":1278:1303  msg.sender == managerpool */\n      0xffffffffffffffffffffffffffffffffffffffff\n      and\n      eq\n        /* \"contracts/Lottery.sol\":1269:1347  require (msg.sender == managerpool, \"only managerpool can call this function\") */\n      tag_53\n      jumpi\n      mload(0x40)\n      0x08c379a000000000000000000000000000000000000000000000000000000000\n      dup2\n      mstore\n      0x04\n      add\n      tag_54\n      swap1\n      tag_55\n      jump\t// in\n    tag_54:\n      mload(0x40)\n      dup1\n      swap2\n      sub\n      swap1\n      revert\n    tag_53:\n        /* \"contracts/Lottery.sol\":1376:1380  true */\n      0x01\n        /* \"contracts/Lottery.sol\":1358:1373  donationsClosed */\n      0x03\n      0x01\n        /* \"contracts/Lottery.sol\":1358:1380  donationsClosed = true */\n      0x0100\n      exp\n      dup2\n      sload\n      dup2\n      0xff\n      mul\n      not\n      and\n      swap1\n      dup4\n      iszero\n      iszero\n      mul\n      or\n      swap1\n      sstore\n      pop\n        /* \"contracts/Lottery.sol\":1405:1416  _sealedSeed */\n      dup1\n        /* \"contracts/Lottery.sol\":1392:1402  sealedSeed */\n      0x02\n        /* \"contracts/Lottery.sol\":1392:1416  sealedSeed = _sealedSeed */\n      dup2\n      swap1\n      sstore\n      pop\n        /* \"contracts/Lottery.sol\":1463:1464  1 */\n      0x01\n        /* \"contracts/Lottery.sol\":1448:1460  block.number */\n      number\n        /* \"contracts/Lottery.sol\":1448:1464  block.number + 1 */\n      tag_56\n      swap2\n      swap1\n      tag_57\n      jump\t// in\n    tag_56:\n        /* \"contracts/Lottery.sol\":1428:1445  storedBlockNumber */\n      0x04\n        /* \"contracts/Lottery.sol\":1428:1464  storedBlockNumber = block.number + 1 */\n      dup2\n      swap1\n      sstore\n      pop\n        /* \"contracts/Lottery.sol\":1486:1490  true */\n      0x01\n        /* \"contracts/Lottery.sol\":1476:1483  seedSet */\n      0x03\n      0x00\n        /* \"contracts/Lottery.sol\":1476:1490  seedSet = true */\n      0x0100\n      exp\n      dup2\n      sload\n      dup2\n      0xff\n      mul\n      not\n      and\n      swap1\n      dup4\n      iszero\n      iszero\n      mul\n      or\n      swap1\n      sstore\n      pop\n        /* \"contracts/Lottery.sol\":1155:1499  function setSealedSeed(bytes32 _sealedSeed) public {... */\n      pop\n      jump\t// out\n        /* \"contracts/Lottery.sol\":161:184  address[] public donors */\n    tag_24:\n      0x01\n      dup2\n      dup2\n      sload\n      dup2\n      lt\n      tag_58\n      jumpi\n      0x00\n      dup1\n      revert\n    tag_58:\n      swap1\n      0x00\n      mstore\n      keccak256(0x00, 0x20)\n      add\n      0x00\n      swap2\n      pop\n      sload\n      swap1\n      0x0100\n      exp\n      swap1\n      div\n      0xffffffffffffffffffffffffffffffffffffffff\n      and\n      dup2\n      jump\t// out\n        /* \"contracts/Lottery.sol\":759:952  function enterLottery(address[] memory _donators, bytes32 _sealedSeed) external returns (bool){... */\n    tag_29:\n        /* \"contracts/Lottery.sol\":848:852  bool */\n      0x00\n        /* \"contracts/Lottery.sol\":873:882  _donators */\n      dup3\n        /* \"contracts/Lottery.sol\":864:870  donors */\n      0x01\n        /* \"contracts/Lottery.sol\":864:882  donors = _donators */\n      swap1\n      dup1\n      mload\n      swap1\n      0x20\n      add\n      swap1\n      tag_61\n      swap3\n      swap2\n      swap1\n      tag_62\n      jump\t// in\n    tag_61:\n      pop\n        /* \"contracts/Lottery.sol\":894:920  setSealedSeed(_sealedSeed) */\n      tag_63\n        /* \"contracts/Lottery.sol\":908:919  _sealedSeed */\n      dup3\n        /* \"contracts/Lottery.sol\":894:907  setSealedSeed */\n      tag_20\n        /* \"contracts/Lottery.sol\":894:920  setSealedSeed(_sealedSeed) */\n      jump\t// in\n    tag_63:\n        /* \"contracts/Lottery.sol\":939:943  true */\n      0x01\n        /* \"contracts/Lottery.sol\":932:943  return true */\n      swap1\n      pop\n        /* \"contracts/Lottery.sol\":759:952  function enterLottery(address[] memory _donators, bytes32 _sealedSeed) external returns (bool){... */\n      swap3\n      swap2\n      pop\n      pop\n      jump\t// out\n        /* \"contracts/Lottery.sol\":2202:2458  function random() public view returns (uint){... */\n    tag_33:\n        /* \"contracts/Lottery.sol\":2241:2245  uint */\n      0x00\n        /* \"contracts/Lottery.sol\":2257:2272  uint thisrandom */\n      dup1\n        /* \"contracts/Lottery.sol\":2329:2345  block.difficulty */\n      difficulty\n        /* \"contracts/Lottery.sol\":2347:2362  block.timestamp */\n      timestamp\n        /* \"contracts/Lottery.sol\":2364:2370  donors */\n      0x01\n        /* \"contracts/Lottery.sol\":2312:2371  abi.encodePacked(block.difficulty, block.timestamp, donors) */\n      add(0x20, mload(0x40))\n      tag_65\n      swap4\n      swap3\n      swap2\n      swap1\n      tag_66\n      jump\t// in\n    tag_65:\n      mload(0x40)\n      0x20\n      dup2\n      dup4\n      sub\n      sub\n      dup2\n      mstore\n      swap1\n      0x40\n      mstore\n        /* \"contracts/Lottery.sol\":2302:2372  keccak256(abi.encodePacked(block.difficulty, block.timestamp, donors)) */\n      dup1\n      mload\n      swap1\n      0x20\n      add\n      keccak256\n        /* \"contracts/Lottery.sol\":2297:2373  uint(keccak256(abi.encodePacked(block.difficulty, block.timestamp, donors))) */\n      0x00\n      shr\n        /* \"contracts/Lottery.sol\":2284:2373  thisrandom = uint(keccak256(abi.encodePacked(block.difficulty, block.timestamp, donors))) */\n      swap1\n      pop\n        /* \"contracts/Lottery.sol\":2384:2395  uint winner */\n      0x00\n        /* \"contracts/Lottery.sol\":2409:2424  arraytestlength */\n      sload(0x05)\n        /* \"contracts/Lottery.sol\":2398:2408  thisrandom */\n      dup3\n        /* \"contracts/Lottery.sol\":2398:2424  thisrandom%arraytestlength */\n      tag_67\n      swap2\n      swap1\n      tag_68\n      jump\t// in\n    tag_67:\n        /* \"contracts/Lottery.sol\":2384:2424  uint winner = thisrandom%arraytestlength */\n      swap1\n      pop\n        /* \"contracts/Lottery.sol\":2443:2449  winner */\n      dup1\n        /* \"contracts/Lottery.sol\":2436:2449  return winner */\n      swap3\n      pop\n      pop\n      pop\n        /* \"contracts/Lottery.sol\":2202:2458  function random() public view returns (uint){... */\n      swap1\n      jump\t// out\n        /* \"contracts/Lottery.sol\":1507:1992  function reveal(bytes32 _seed) public returns (uint){... */\n    tag_38:\n        /* \"contracts/Lottery.sol\":1554:1558  uint */\n      0x00\n        /* \"contracts/Lottery.sol\":1578:1585  seedSet */\n      0x03\n      0x00\n      swap1\n      sload\n      swap1\n      0x0100\n      exp\n      swap1\n      div\n      0xff\n      and\n        /* \"contracts/Lottery.sol\":1570:1609  require(seedSet, \"seed is not yet set\") */\n      tag_70\n      jumpi\n      mload(0x40)\n      0x08c379a000000000000000000000000000000000000000000000000000000000\n      dup2\n      mstore\n      0x04\n      add\n      tag_71\n      swap1\n      tag_72\n      jump\t// in\n    tag_71:\n      mload(0x40)\n      dup1\n      swap2\n      sub\n      swap1\n      revert\n    tag_70:\n        /* \"contracts/Lottery.sol\":1629:1644  donationsClosed */\n      0x03\n      0x01\n      swap1\n      sload\n      swap1\n      0x0100\n      exp\n      swap1\n      div\n      0xff\n      and\n        /* \"contracts/Lottery.sol\":1621:1677  require(donationsClosed, \"donations are not closed yet\") */\n      tag_73\n      jumpi\n      mload(0x40)\n      0x08c379a000000000000000000000000000000000000000000000000000000000\n      dup2\n      mstore\n      0x04\n      add\n      tag_74\n      swap1\n      tag_75\n      jump\t// in\n    tag_74:\n      mload(0x40)\n      dup1\n      swap2\n      sub\n      swap1\n      revert\n    tag_73:\n        /* \"contracts/Lottery.sol\":1717:1729  block.number */\n      number\n        /* \"contracts/Lottery.sol\":1697:1714  storedBlockNumber */\n      sload(0x04)\n        /* \"contracts/Lottery.sol\":1697:1729  storedBlockNumber < block.number */\n      lt\n        /* \"contracts/Lottery.sol\":1689:1730  require(storedBlockNumber < block.number) */\n      tag_76\n      jumpi\n      0x00\n      dup1\n      revert\n    tag_76:\n        /* \"contracts/Lottery.sol\":1793:1803  sealedSeed */\n      sload(0x02)\n        /* \"contracts/Lottery.sol\":1771:1781  msg.sender */\n      caller\n        /* \"contracts/Lottery.sol\":1783:1788  _seed */\n      dup4\n        /* \"contracts/Lottery.sol\":1760:1789  abi.encode(msg.sender, _seed) */\n      add(0x20, mload(0x40))\n      tag_77\n      swap3\n      swap2\n      swap1\n      tag_78\n      jump\t// in\n    tag_77:\n      mload(0x40)\n      0x20\n      dup2\n      dup4\n      sub\n      sub\n      dup2\n      mstore\n      swap1\n      0x40\n      mstore\n        /* \"contracts/Lottery.sol\":1750:1790  keccak256(abi.encode(msg.sender, _seed)) */\n      dup1\n      mload\n      swap1\n      0x20\n      add\n      keccak256\n        /* \"contracts/Lottery.sol\":1750:1803  keccak256(abi.encode(msg.sender, _seed))== sealedSeed */\n      eq\n        /* \"contracts/Lottery.sol\":1742:1804  require(keccak256(abi.encode(msg.sender, _seed))== sealedSeed) */\n      tag_79\n      jumpi\n      0x00\n      dup1\n      revert\n    tag_79:\n        /* \"contracts/Lottery.sol\":1816:1827  uint random */\n      0x00\n        /* \"contracts/Lottery.sol\":1856:1861  _seed */\n      dup3\n        /* \"contracts/Lottery.sol\":1873:1890  storedBlockNumber */\n      sload(0x04)\n        /* \"contracts/Lottery.sol\":1863:1891  blockhash(storedBlockNumber) */\n      blockhash\n        /* \"contracts/Lottery.sol\":1845:1892  abi.encode(_seed, blockhash(storedBlockNumber)) */\n      add(0x20, mload(0x40))\n      tag_80\n      swap3\n      swap2\n      swap1\n      tag_81\n      jump\t// in\n    tag_80:\n      mload(0x40)\n      0x20\n      dup2\n      dup4\n      sub\n      sub\n      dup2\n      mstore\n      swap1\n      0x40\n      mstore\n        /* \"contracts/Lottery.sol\":1835:1893  keccak256(abi.encode(_seed, blockhash(storedBlockNumber))) */\n      dup1\n      mload\n      swap1\n      0x20\n      add\n      keccak256\n        /* \"contracts/Lottery.sol\":1830:1894  uint(keccak256(abi.encode(_seed, blockhash(storedBlockNumber)))) */\n      0x00\n      shr\n        /* \"contracts/Lottery.sol\":1816:1894  uint random = uint(keccak256(abi.encode(_seed, blockhash(storedBlockNumber)))) */\n      swap1\n      pop\n        /* \"contracts/Lottery.sol\":1977:1983  random */\n      dup1\n        /* \"contracts/Lottery.sol\":1970:1983  return random */\n      swap2\n      pop\n      pop\n        /* \"contracts/Lottery.sol\":1507:1992  function reveal(bytes32 _seed) public returns (uint){... */\n      swap2\n      swap1\n      pop\n      jump\t// out\n        /* \"contracts/Lottery.sol\":2025:2156  function test(bytes32 _test) public returns(bool) {... */\n    tag_42:\n        /* \"contracts/Lottery.sol\":2069:2073  bool */\n      0x00\n        /* \"contracts/Lottery.sol\":2143:2147  true */\n      0x01\n        /* \"contracts/Lottery.sol\":2136:2147  return true */\n      swap1\n      pop\n        /* \"contracts/Lottery.sol\":2025:2156  function test(bytes32 _test) public returns(bool) {... */\n      swap2\n      swap1\n      pop\n      jump\t// out\n        /* \"contracts/Lottery.sol\":127:153  address public managerpool */\n    tag_45:\n      0x00\n      dup1\n      sload\n      swap1\n      0x0100\n      exp\n      swap1\n      div\n      0xffffffffffffffffffffffffffffffffffffffff\n      and\n      dup2\n      jump\t// out\n    tag_62:\n      dup3\n      dup1\n      sload\n      dup3\n      dup3\n      sstore\n      swap1\n      0x00\n      mstore\n      keccak256(0x00, 0x20)\n      swap1\n      dup2\n      add\n      swap3\n      dup3\n      iszero\n      tag_83\n      jumpi\n      swap2\n      0x20\n      mul\n      dup3\n      add\n    tag_84:\n      dup3\n      dup2\n      gt\n      iszero\n      tag_85\n      jumpi\n      dup3\n      mload\n      dup3\n      exp(0x0100, 0x00)\n      dup2\n      sload\n      dup2\n      0xffffffffffffffffffffffffffffffffffffffff\n      mul\n      not\n      and\n      swap1\n      dup4\n      0xffffffffffffffffffffffffffffffffffffffff\n      and\n      mul\n      or\n      swap1\n      sstore\n      pop\n      swap2\n      0x20\n      add\n      swap2\n      swap1\n      0x01\n      add\n      swap1\n      jump(tag_84)\n    tag_85:\n    tag_83:\n      pop\n      swap1\n      pop\n      tag_86\n      swap2\n      swap1\n      tag_87\n      jump\t// in\n    tag_86:\n      pop\n      swap1\n      jump\t// out\n    tag_87:\n    tag_88:\n      dup1\n      dup3\n      gt\n      iszero\n      tag_89\n      jumpi\n      0x00\n      dup2\n      0x00\n      swap1\n      sstore\n      pop\n      0x01\n      add\n      jump(tag_88)\n    tag_89:\n      pop\n      swap1\n      jump\t// out\n        /* \"#utility.yul\":7:82   */\n    tag_90:\n        /* \"#utility.yul\":40:46   */\n      0x00\n        /* \"#utility.yul\":73:75   */\n      0x40\n        /* \"#utility.yul\":67:76   */\n      mload\n        /* \"#utility.yul\":57:76   */\n      swap1\n      pop\n        /* \"#utility.yul\":7:82   */\n      swap1\n      jump\t// out\n        /* \"#utility.yul\":88:205   */\n    tag_91:\n        /* \"#utility.yul\":197:198   */\n      0x00\n        /* \"#utility.yul\":194:195   */\n      dup1\n        /* \"#utility.yul\":187:199   */\n      revert\n        /* \"#utility.yul\":211:328   */\n    tag_92:\n        /* \"#utility.yul\":320:321   */\n      0x00\n        /* \"#utility.yul\":317:318   */\n      dup1\n        /* \"#utility.yul\":310:322   */\n      revert\n        /* \"#utility.yul\":334:411   */\n    tag_93:\n        /* \"#utility.yul\":371:378   */\n      0x00\n        /* \"#utility.yul\":400:405   */\n      dup2\n        /* \"#utility.yul\":389:405   */\n      swap1\n      pop\n        /* \"#utility.yul\":334:411   */\n      swap2\n      swap1\n      pop\n      jump\t// out\n        /* \"#utility.yul\":417:539   */\n    tag_94:\n        /* \"#utility.yul\":490:514   */\n      tag_147\n        /* \"#utility.yul\":508:513   */\n      dup2\n        /* \"#utility.yul\":490:514   */\n      tag_93\n      jump\t// in\n    tag_147:\n        /* \"#utility.yul\":483:488   */\n      dup2\n        /* \"#utility.yul\":480:515   */\n      eq\n        /* \"#utility.yul\":470:533   */\n      tag_148\n      jumpi\n        /* \"#utility.yul\":529:530   */\n      0x00\n        /* \"#utility.yul\":526:527   */\n      dup1\n        /* \"#utility.yul\":519:531   */\n      revert\n        /* \"#utility.yul\":470:533   */\n    tag_148:\n        /* \"#utility.yul\":417:539   */\n      pop\n      jump\t// out\n        /* \"#utility.yul\":545:684   */\n    tag_95:\n        /* \"#utility.yul\":591:596   */\n      0x00\n        /* \"#utility.yul\":629:635   */\n      dup2\n        /* \"#utility.yul\":616:636   */\n      calldataload\n        /* \"#utility.yul\":607:636   */\n      swap1\n      pop\n        /* \"#utility.yul\":645:678   */\n      tag_150\n        /* \"#utility.yul\":672:677   */\n      dup2\n        /* \"#utility.yul\":645:678   */\n      tag_94\n      jump\t// in\n    tag_150:\n        /* \"#utility.yul\":545:684   */\n      swap3\n      swap2\n      pop\n      pop\n      jump\t// out\n        /* \"#utility.yul\":690:1019   */\n    tag_14:\n        /* \"#utility.yul\":749:755   */\n      0x00\n        /* \"#utility.yul\":798:800   */\n      0x20\n        /* \"#utility.yul\":786:795   */\n      dup3\n        /* \"#utility.yul\":777:784   */\n      dup5\n        /* \"#utility.yul\":773:796   */\n      sub\n        /* \"#utility.yul\":769:801   */\n      slt\n        /* \"#utility.yul\":766:885   */\n      iszero\n      tag_152\n      jumpi\n        /* \"#utility.yul\":804:883   */\n      tag_153\n      tag_91\n      jump\t// in\n    tag_153:\n        /* \"#utility.yul\":766:885   */\n    tag_152:\n        /* \"#utility.yul\":924:925   */\n      0x00\n        /* \"#utility.yul\":949:1002   */\n      tag_154\n        /* \"#utility.yul\":994:1001   */\n      dup5\n        /* \"#utility.yul\":985:991   */\n      dup3\n        /* \"#utility.yul\":974:983   */\n      dup6\n        /* \"#utility.yul\":970:992   */\n      add\n        /* \"#utility.yul\":949:1002   */\n      tag_95\n      jump\t// in\n    tag_154:\n        /* \"#utility.yul\":939:1002   */\n      swap2\n      pop\n        /* \"#utility.yul\":895:1012   */\n      pop\n        /* \"#utility.yul\":690:1019   */\n      swap3\n      swap2\n      pop\n      pop\n      jump\t// out\n        /* \"#utility.yul\":1025:1151   */\n    tag_96:\n        /* \"#utility.yul\":1062:1069   */\n      0x00\n        /* \"#utility.yul\":1102:1144   */\n      0xffffffffffffffffffffffffffffffffffffffff\n        /* \"#utility.yul\":1095:1100   */\n      dup3\n        /* \"#utility.yul\":1091:1145   */\n      and\n        /* \"#utility.yul\":1080:1145   */\n      swap1\n      pop\n        /* \"#utility.yul\":1025:1151   */\n      swap2\n      swap1\n      pop\n      jump\t// out\n        /* \"#utility.yul\":1157:1253   */\n    tag_97:\n        /* \"#utility.yul\":1194:1201   */\n      0x00\n        /* \"#utility.yul\":1223:1247   */\n      tag_157\n        /* \"#utility.yul\":1241:1246   */\n      dup3\n        /* \"#utility.yul\":1223:1247   */\n      tag_96\n      jump\t// in\n    tag_157:\n        /* \"#utility.yul\":1212:1247   */\n      swap1\n      pop\n        /* \"#utility.yul\":1157:1253   */\n      swap2\n      swap1\n      pop\n      jump\t// out\n        /* \"#utility.yul\":1259:1377   */\n    tag_98:\n        /* \"#utility.yul\":1346:1370   */\n      tag_159\n        /* \"#utility.yul\":1364:1369   */\n      dup2\n        /* \"#utility.yul\":1346:1370   */\n      tag_97\n      jump\t// in\n    tag_159:\n        /* \"#utility.yul\":1341:1344   */\n      dup3\n        /* \"#utility.yul\":1334:1371   */\n      mstore\n        /* \"#utility.yul\":1259:1377   */\n      pop\n      pop\n      jump\t// out\n        /* \"#utility.yul\":1383:1605   */\n    tag_17:\n        /* \"#utility.yul\":1476:1480   */\n      0x00\n        /* \"#utility.yul\":1514:1516   */\n      0x20\n        /* \"#utility.yul\":1503:1512   */\n      dup3\n        /* \"#utility.yul\":1499:1517   */\n      add\n        /* \"#utility.yul\":1491:1517   */\n      swap1\n      pop\n        /* \"#utility.yul\":1527:1598   */\n      tag_161\n        /* \"#utility.yul\":1595:1596   */\n      0x00\n        /* \"#utility.yul\":1584:1593   */\n      dup4\n        /* \"#utility.yul\":1580:1597   */\n      add\n        /* \"#utility.yul\":1571:1577   */\n      dup5\n        /* \"#utility.yul\":1527:1598   */\n      tag_98\n      jump\t// in\n    tag_161:\n        /* \"#utility.yul\":1383:1605   */\n      swap3\n      swap2\n      pop\n      pop\n      jump\t// out\n        /* \"#utility.yul\":1611:1688   */\n    tag_99:\n        /* \"#utility.yul\":1648:1655   */\n      0x00\n        /* \"#utility.yul\":1677:1682   */\n      dup2\n        /* \"#utility.yul\":1666:1682   */\n      swap1\n      pop\n        /* \"#utility.yul\":1611:1688   */\n      swap2\n      swap1\n      pop\n      jump\t// out\n        /* \"#utility.yul\":1694:1816   */\n    tag_100:\n        /* \"#utility.yul\":1767:1791   */\n      tag_164\n        /* \"#utility.yul\":1785:1790   */\n      dup2\n        /* \"#utility.yul\":1767:1791   */\n      tag_99\n      jump\t// in\n    tag_164:\n        /* \"#utility.yul\":1760:1765   */\n      dup2\n        /* \"#utility.yul\":1757:1792   */\n      eq\n        /* \"#utility.yul\":1747:1810   */\n      tag_165\n      jumpi\n        /* \"#utility.yul\":1806:1807   */\n      0x00\n        /* \"#utility.yul\":1803:1804   */\n      dup1\n        /* \"#utility.yul\":1796:1808   */\n      revert\n        /* \"#utility.yul\":1747:1810   */\n    tag_165:\n        /* \"#utility.yul\":1694:1816   */\n      pop\n      jump\t// out\n        /* \"#utility.yul\":1822:1961   */\n    tag_101:\n        /* \"#utility.yul\":1868:1873   */\n      0x00\n        /* \"#utility.yul\":1906:1912   */\n      dup2\n        /* \"#utility.yul\":1893:1913   */\n      calldataload\n        /* \"#utility.yul\":1884:1913   */\n      swap1\n      pop\n        /* \"#utility.yul\":1922:1955   */\n      tag_167\n        /* \"#utility.yul\":1949:1954   */\n      dup2\n        /* \"#utility.yul\":1922:1955   */\n      tag_100\n      jump\t// in\n    tag_167:\n        /* \"#utility.yul\":1822:1961   */\n      swap3\n      swap2\n      pop\n      pop\n      jump\t// out\n        /* \"#utility.yul\":1967:2296   */\n    tag_23:\n        /* \"#utility.yul\":2026:2032   */\n      0x00\n        /* \"#utility.yul\":2075:2077   */\n      0x20\n        /* \"#utility.yul\":2063:2072   */\n      dup3\n        /* \"#utility.yul\":2054:2061   */\n      dup5\n        /* \"#utility.yul\":2050:2073   */\n      sub\n        /* \"#utility.yul\":2046:2078   */\n      slt\n        /* \"#utility.yul\":2043:2162   */\n      iszero\n      tag_169\n      jumpi\n        /* \"#utility.yul\":2081:2160   */\n      tag_170\n      tag_91\n      jump\t// in\n    tag_170:\n        /* \"#utility.yul\":2043:2162   */\n    tag_169:\n        /* \"#utility.yul\":2201:2202   */\n      0x00\n        /* \"#utility.yul\":2226:2279   */\n      tag_171\n        /* \"#utility.yul\":2271:2278   */\n      dup5\n        /* \"#utility.yul\":2262:2268   */\n      dup3\n        /* \"#utility.yul\":2251:2260   */\n      dup6\n        /* \"#utility.yul\":2247:2269   */\n      add\n        /* \"#utility.yul\":2226:2279   */\n      tag_101\n      jump\t// in\n    tag_171:\n        /* \"#utility.yul\":2216:2279   */\n      swap2\n      pop\n        /* \"#utility.yul\":2172:2289   */\n      pop\n        /* \"#utility.yul\":1967:2296   */\n      swap3\n      swap2\n      pop\n      pop\n      jump\t// out\n        /* \"#utility.yul\":2302:2419   */\n    tag_102:\n        /* \"#utility.yul\":2411:2412   */\n      0x00\n        /* \"#utility.yul\":2408:2409   */\n      dup1\n        /* \"#utility.yul\":2401:2413   */\n      revert\n        /* \"#utility.yul\":2425:2527   */\n    tag_103:\n        /* \"#utility.yul\":2466:2472   */\n      0x00\n        /* \"#utility.yul\":2517:2519   */\n      0x1f\n        /* \"#utility.yul\":2513:2520   */\n      not\n        /* \"#utility.yul\":2508:2510   */\n      0x1f\n        /* \"#utility.yul\":2501:2506   */\n      dup4\n        /* \"#utility.yul\":2497:2511   */\n      add\n        /* \"#utility.yul\":2493:2521   */\n      and\n        /* \"#utility.yul\":2483:2521   */\n      swap1\n      pop\n        /* \"#utility.yul\":2425:2527   */\n      swap2\n      swap1\n      pop\n      jump\t// out\n        /* \"#utility.yul\":2533:2713   */\n    tag_104:\n        /* \"#utility.yul\":2581:2658   */\n      0x4e487b7100000000000000000000000000000000000000000000000000000000\n        /* \"#utility.yul\":2578:2579   */\n      0x00\n        /* \"#utility.yul\":2571:2659   */\n      mstore\n        /* \"#utility.yul\":2678:2682   */\n      0x41\n        /* \"#utility.yul\":2675:2676   */\n      0x04\n        /* \"#utility.yul\":2668:2683   */\n      mstore\n        /* \"#utility.yul\":2702:2706   */\n      0x24\n        /* \"#utility.yul\":2699:2700   */\n      0x00\n        /* \"#utility.yul\":2692:2707   */\n      revert\n        /* \"#utility.yul\":2719:3000   */\n    tag_105:\n        /* \"#utility.yul\":2802:2829   */\n      tag_176\n        /* \"#utility.yul\":2824:2828   */\n      dup3\n        /* \"#utility.yul\":2802:2829   */\n      tag_103\n      jump\t// in\n    tag_176:\n        /* \"#utility.yul\":2794:2800   */\n      dup2\n        /* \"#utility.yul\":2790:2830   */\n      add\n        /* \"#utility.yul\":2932:2938   */\n      dup2\n        /* \"#utility.yul\":2920:2930   */\n      dup2\n        /* \"#utility.yul\":2917:2939   */\n      lt\n        /* \"#utility.yul\":2896:2914   */\n      0xffffffffffffffff\n        /* \"#utility.yul\":2884:2894   */\n      dup3\n        /* \"#utility.yul\":2881:2915   */\n      gt\n        /* \"#utility.yul\":2878:2940   */\n      or\n        /* \"#utility.yul\":2875:2963   */\n      iszero\n      tag_177\n      jumpi\n        /* \"#utility.yul\":2943:2961   */\n      tag_178\n      tag_104\n      jump\t// in\n    tag_178:\n        /* \"#utility.yul\":2875:2963   */\n    tag_177:\n        /* \"#utility.yul\":2983:2993   */\n      dup1\n        /* \"#utility.yul\":2979:2981   */\n      0x40\n        /* \"#utility.yul\":2972:2994   */\n      mstore\n        /* \"#utility.yul\":2762:3000   */\n      pop\n        /* \"#utility.yul\":2719:3000   */\n      pop\n      pop\n      jump\t// out\n        /* \"#utility.yul\":3006:3135   */\n    tag_106:\n        /* \"#utility.yul\":3040:3046   */\n      0x00\n        /* \"#utility.yul\":3067:3087   */\n      tag_180\n      tag_90\n      jump\t// in\n    tag_180:\n        /* \"#utility.yul\":3057:3087   */\n      swap1\n      pop\n        /* \"#utility.yul\":3096:3129   */\n      tag_181\n        /* \"#utility.yul\":3124:3128   */\n      dup3\n        /* \"#utility.yul\":3116:3122   */\n      dup3\n        /* \"#utility.yul\":3096:3129   */\n      tag_105\n      jump\t// in\n    tag_181:\n        /* \"#utility.yul\":3006:3135   */\n      swap2\n      swap1\n      pop\n      jump\t// out\n        /* \"#utility.yul\":3141:3452   */\n    tag_107:\n        /* \"#utility.yul\":3218:3222   */\n      0x00\n        /* \"#utility.yul\":3308:3326   */\n      0xffffffffffffffff\n        /* \"#utility.yul\":3300:3306   */\n      dup3\n        /* \"#utility.yul\":3297:3327   */\n      gt\n        /* \"#utility.yul\":3294:3350   */\n      iszero\n      tag_183\n      jumpi\n        /* \"#utility.yul\":3330:3348   */\n      tag_184\n      tag_104\n      jump\t// in\n    tag_184:\n        /* \"#utility.yul\":3294:3350   */\n    tag_183:\n        /* \"#utility.yul\":3380:3384   */\n      0x20\n        /* \"#utility.yul\":3372:3378   */\n      dup3\n        /* \"#utility.yul\":3368:3385   */\n      mul\n        /* \"#utility.yul\":3360:3385   */\n      swap1\n      pop\n        /* \"#utility.yul\":3440:3444   */\n      0x20\n        /* \"#utility.yul\":3434:3438   */\n      dup2\n        /* \"#utility.yul\":3430:3445   */\n      add\n        /* \"#utility.yul\":3422:3445   */\n      swap1\n      pop\n        /* \"#utility.yul\":3141:3452   */\n      swap2\n      swap1\n      pop\n      jump\t// out\n        /* \"#utility.yul\":3458:3575   */\n    tag_108:\n        /* \"#utility.yul\":3567:3568   */\n      0x00\n        /* \"#utility.yul\":3564:3565   */\n      dup1\n        /* \"#utility.yul\":3557:3569   */\n      revert\n        /* \"#utility.yul\":3581:3703   */\n    tag_109:\n        /* \"#utility.yul\":3654:3678   */\n      tag_187\n        /* \"#utility.yul\":3672:3677   */\n      dup2\n        /* \"#utility.yul\":3654:3678   */\n      tag_97\n      jump\t// in\n    tag_187:\n        /* \"#utility.yul\":3647:3652   */\n      dup2\n        /* \"#utility.yul\":3644:3679   */\n      eq\n        /* \"#utility.yul\":3634:3697   */\n      tag_188\n      jumpi\n        /* \"#utility.yul\":3693:3694   */\n      0x00\n        /* \"#utility.yul\":3690:3691   */\n      dup1\n        /* \"#utility.yul\":3683:3695   */\n      revert\n        /* \"#utility.yul\":3634:3697   */\n    tag_188:\n        /* \"#utility.yul\":3581:3703   */\n      pop\n      jump\t// out\n        /* \"#utility.yul\":3709:3848   */\n    tag_110:\n        /* \"#utility.yul\":3755:3760   */\n      0x00\n        /* \"#utility.yul\":3793:3799   */\n      dup2\n        /* \"#utility.yul\":3780:3800   */\n      calldataload\n        /* \"#utility.yul\":3771:3800   */\n      swap1\n      pop\n        /* \"#utility.yul\":3809:3842   */\n      tag_190\n        /* \"#utility.yul\":3836:3841   */\n      dup2\n        /* \"#utility.yul\":3809:3842   */\n      tag_109\n      jump\t// in\n    tag_190:\n        /* \"#utility.yul\":3709:3848   */\n      swap3\n      swap2\n      pop\n      pop\n      jump\t// out\n        /* \"#utility.yul\":3871:4581   */\n    tag_111:\n        /* \"#utility.yul\":3967:3972   */\n      0x00\n        /* \"#utility.yul\":3992:4073   */\n      tag_192\n        /* \"#utility.yul\":4008:4072   */\n      tag_193\n        /* \"#utility.yul\":4065:4071   */\n      dup5\n        /* \"#utility.yul\":4008:4072   */\n      tag_107\n      jump\t// in\n    tag_193:\n        /* \"#utility.yul\":3992:4073   */\n      tag_106\n      jump\t// in\n    tag_192:\n        /* \"#utility.yul\":3983:4073   */\n      swap1\n      pop\n        /* \"#utility.yul\":4093:4098   */\n      dup1\n        /* \"#utility.yul\":4122:4128   */\n      dup4\n        /* \"#utility.yul\":4115:4120   */\n      dup3\n        /* \"#utility.yul\":4108:4129   */\n      mstore\n        /* \"#utility.yul\":4156:4160   */\n      0x20\n        /* \"#utility.yul\":4149:4154   */\n      dup3\n        /* \"#utility.yul\":4145:4161   */\n      add\n        /* \"#utility.yul\":4138:4161   */\n      swap1\n      pop\n        /* \"#utility.yul\":4209:4213   */\n      0x20\n        /* \"#utility.yul\":4201:4207   */\n      dup5\n        /* \"#utility.yul\":4197:4214   */\n      mul\n        /* \"#utility.yul\":4189:4195   */\n      dup4\n        /* \"#utility.yul\":4185:4215   */\n      add\n        /* \"#utility.yul\":4238:4241   */\n      dup6\n        /* \"#utility.yul\":4230:4236   */\n      dup2\n        /* \"#utility.yul\":4227:4242   */\n      gt\n        /* \"#utility.yul\":4224:4346   */\n      iszero\n      tag_194\n      jumpi\n        /* \"#utility.yul\":4257:4336   */\n      tag_195\n      tag_108\n      jump\t// in\n    tag_195:\n        /* \"#utility.yul\":4224:4346   */\n    tag_194:\n        /* \"#utility.yul\":4372:4378   */\n      dup4\n        /* \"#utility.yul\":4355:4575   */\n    tag_196:\n        /* \"#utility.yul\":4389:4395   */\n      dup2\n        /* \"#utility.yul\":4384:4387   */\n      dup2\n        /* \"#utility.yul\":4381:4396   */\n      lt\n        /* \"#utility.yul\":4355:4575   */\n      iszero\n      tag_198\n      jumpi\n        /* \"#utility.yul\":4464:4467   */\n      dup1\n        /* \"#utility.yul\":4493:4530   */\n      tag_199\n        /* \"#utility.yul\":4526:4529   */\n      dup9\n        /* \"#utility.yul\":4514:4524   */\n      dup3\n        /* \"#utility.yul\":4493:4530   */\n      tag_110\n      jump\t// in\n    tag_199:\n        /* \"#utility.yul\":4488:4491   */\n      dup5\n        /* \"#utility.yul\":4481:4531   */\n      mstore\n        /* \"#utility.yul\":4560:4564   */\n      0x20\n        /* \"#utility.yul\":4555:4558   */\n      dup5\n        /* \"#utility.yul\":4551:4565   */\n      add\n        /* \"#utility.yul\":4544:4565   */\n      swap4\n      pop\n        /* \"#utility.yul\":4431:4575   */\n      pop\n        /* \"#utility.yul\":4415:4419   */\n      0x20\n        /* \"#utility.yul\":4410:4413   */\n      dup2\n        /* \"#utility.yul\":4406:4420   */\n      add\n        /* \"#utility.yul\":4399:4420   */\n      swap1\n      pop\n        /* \"#utility.yul\":4355:4575   */\n      jump(tag_196)\n    tag_198:\n        /* \"#utility.yul\":4359:4380   */\n      pop\n        /* \"#utility.yul\":3973:4581   */\n      pop\n      pop\n        /* \"#utility.yul\":3871:4581   */\n      swap4\n      swap3\n      pop\n      pop\n      pop\n      jump\t// out\n        /* \"#utility.yul\":4604:4974   */\n    tag_112:\n        /* \"#utility.yul\":4675:4680   */\n      0x00\n        /* \"#utility.yul\":4724:4727   */\n      dup3\n        /* \"#utility.yul\":4717:4721   */\n      0x1f\n        /* \"#utility.yul\":4709:4715   */\n      dup4\n        /* \"#utility.yul\":4705:4722   */\n      add\n        /* \"#utility.yul\":4701:4728   */\n      slt\n        /* \"#utility.yul\":4691:4813   */\n      tag_201\n      jumpi\n        /* \"#utility.yul\":4732:4811   */\n      tag_202\n      tag_102\n      jump\t// in\n    tag_202:\n        /* \"#utility.yul\":4691:4813   */\n    tag_201:\n        /* \"#utility.yul\":4849:4855   */\n      dup2\n        /* \"#utility.yul\":4836:4856   */\n      calldataload\n        /* \"#utility.yul\":4874:4968   */\n      tag_203\n        /* \"#utility.yul\":4964:4967   */\n      dup5\n        /* \"#utility.yul\":4956:4962   */\n      dup3\n        /* \"#utility.yul\":4949:4953   */\n      0x20\n        /* \"#utility.yul\":4941:4947   */\n      dup7\n        /* \"#utility.yul\":4937:4954   */\n      add\n        /* \"#utility.yul\":4874:4968   */\n      tag_111\n      jump\t// in\n    tag_203:\n        /* \"#utility.yul\":4865:4968   */\n      swap2\n      pop\n        /* \"#utility.yul\":4681:4974   */\n      pop\n        /* \"#utility.yul\":4604:4974   */\n      swap3\n      swap2\n      pop\n      pop\n      jump\t// out\n        /* \"#utility.yul\":4980:5664   */\n    tag_28:\n        /* \"#utility.yul\":5073:5079   */\n      0x00\n        /* \"#utility.yul\":5081:5087   */\n      dup1\n        /* \"#utility.yul\":5130:5132   */\n      0x40\n        /* \"#utility.yul\":5118:5127   */\n      dup4\n        /* \"#utility.yul\":5109:5116   */\n      dup6\n        /* \"#utility.yul\":5105:5128   */\n      sub\n        /* \"#utility.yul\":5101:5133   */\n      slt\n        /* \"#utility.yul\":5098:5217   */\n      iszero\n      tag_205\n      jumpi\n        /* \"#utility.yul\":5136:5215   */\n      tag_206\n      tag_91\n      jump\t// in\n    tag_206:\n        /* \"#utility.yul\":5098:5217   */\n    tag_205:\n        /* \"#utility.yul\":5284:5285   */\n      0x00\n        /* \"#utility.yul\":5273:5282   */\n      dup4\n        /* \"#utility.yul\":5269:5286   */\n      add\n        /* \"#utility.yul\":5256:5287   */\n      calldataload\n        /* \"#utility.yul\":5314:5332   */\n      0xffffffffffffffff\n        /* \"#utility.yul\":5306:5312   */\n      dup2\n        /* \"#utility.yul\":5303:5333   */\n      gt\n        /* \"#utility.yul\":5300:5417   */\n      iszero\n      tag_207\n      jumpi\n        /* \"#utility.yul\":5336:5415   */\n      tag_208\n      tag_92\n      jump\t// in\n    tag_208:\n        /* \"#utility.yul\":5300:5417   */\n    tag_207:\n        /* \"#utility.yul\":5441:5519   */\n      tag_209\n        /* \"#utility.yul\":5511:5518   */\n      dup6\n        /* \"#utility.yul\":5502:5508   */\n      dup3\n        /* \"#utility.yul\":5491:5500   */\n      dup7\n        /* \"#utility.yul\":5487:5509   */\n      add\n        /* \"#utility.yul\":5441:5519   */\n      tag_112\n      jump\t// in\n    tag_209:\n        /* \"#utility.yul\":5431:5519   */\n      swap3\n      pop\n        /* \"#utility.yul\":5227:5529   */\n      pop\n        /* \"#utility.yul\":5568:5570   */\n      0x20\n        /* \"#utility.yul\":5594:5647   */\n      tag_210\n        /* \"#utility.yul\":5639:5646   */\n      dup6\n        /* \"#utility.yul\":5630:5636   */\n      dup3\n        /* \"#utility.yul\":5619:5628   */\n      dup7\n        /* \"#utility.yul\":5615:5637   */\n      add\n        /* \"#utility.yul\":5594:5647   */\n      tag_95\n      jump\t// in\n    tag_210:\n        /* \"#utility.yul\":5584:5647   */\n      swap2\n      pop\n        /* \"#utility.yul\":5539:5657   */\n      pop\n        /* \"#utility.yul\":4980:5664   */\n      swap3\n      pop\n      swap3\n      swap1\n      pop\n      jump\t// out\n        /* \"#utility.yul\":5670:5760   */\n    tag_113:\n        /* \"#utility.yul\":5704:5711   */\n      0x00\n        /* \"#utility.yul\":5747:5752   */\n      dup2\n        /* \"#utility.yul\":5740:5753   */\n      iszero\n        /* \"#utility.yul\":5733:5754   */\n      iszero\n        /* \"#utility.yul\":5722:5754   */\n      swap1\n      pop\n        /* \"#utility.yul\":5670:5760   */\n      swap2\n      swap1\n      pop\n      jump\t// out\n        /* \"#utility.yul\":5766:5875   */\n    tag_114:\n        /* \"#utility.yul\":5847:5868   */\n      tag_213\n        /* \"#utility.yul\":5862:5867   */\n      dup2\n        /* \"#utility.yul\":5847:5868   */\n      tag_113\n      jump\t// in\n    tag_213:\n        /* \"#utility.yul\":5842:5845   */\n      dup3\n        /* \"#utility.yul\":5835:5869   */\n      mstore\n        /* \"#utility.yul\":5766:5875   */\n      pop\n      pop\n      jump\t// out\n        /* \"#utility.yul\":5881:6091   */\n    tag_31:\n        /* \"#utility.yul\":5968:5972   */\n      0x00\n        /* \"#utility.yul\":6006:6008   */\n      0x20\n        /* \"#utility.yul\":5995:6004   */\n      dup3\n        /* \"#utility.yul\":5991:6009   */\n      add\n        /* \"#utility.yul\":5983:6009   */\n      swap1\n      pop\n        /* \"#utility.yul\":6019:6084   */\n      tag_215\n        /* \"#utility.yul\":6081:6082   */\n      0x00\n        /* \"#utility.yul\":6070:6079   */\n      dup4\n        /* \"#utility.yul\":6066:6083   */\n      add\n        /* \"#utility.yul\":6057:6063   */\n      dup5\n        /* \"#utility.yul\":6019:6084   */\n      tag_114\n      jump\t// in\n    tag_215:\n        /* \"#utility.yul\":5881:6091   */\n      swap3\n      swap2\n      pop\n      pop\n      jump\t// out\n        /* \"#utility.yul\":6097:6215   */\n    tag_115:\n        /* \"#utility.yul\":6184:6208   */\n      tag_217\n        /* \"#utility.yul\":6202:6207   */\n      dup2\n        /* \"#utility.yul\":6184:6208   */\n      tag_99\n      jump\t// in\n    tag_217:\n        /* \"#utility.yul\":6179:6182   */\n      dup3\n        /* \"#utility.yul\":6172:6209   */\n      mstore\n        /* \"#utility.yul\":6097:6215   */\n      pop\n      pop\n      jump\t// out\n        /* \"#utility.yul\":6221:6443   */\n    tag_35:\n        /* \"#utility.yul\":6314:6318   */\n      0x00\n        /* \"#utility.yul\":6352:6354   */\n      0x20\n        /* \"#utility.yul\":6341:6350   */\n      dup3\n        /* \"#utility.yul\":6337:6355   */\n      add\n        /* \"#utility.yul\":6329:6355   */\n      swap1\n      pop\n        /* \"#utility.yul\":6365:6436   */\n      tag_219\n        /* \"#utility.yul\":6433:6434   */\n      0x00\n        /* \"#utility.yul\":6422:6431   */\n      dup4\n        /* \"#utility.yul\":6418:6435   */\n      add\n        /* \"#utility.yul\":6409:6415   */\n      dup5\n        /* \"#utility.yul\":6365:6436   */\n      tag_115\n      jump\t// in\n    tag_219:\n        /* \"#utility.yul\":6221:6443   */\n      swap3\n      swap2\n      pop\n      pop\n      jump\t// out\n        /* \"#utility.yul\":6449:6618   */\n    tag_116:\n        /* \"#utility.yul\":6533:6544   */\n      0x00\n        /* \"#utility.yul\":6567:6573   */\n      dup3\n        /* \"#utility.yul\":6562:6565   */\n      dup3\n        /* \"#utility.yul\":6555:6574   */\n      mstore\n        /* \"#utility.yul\":6607:6611   */\n      0x20\n        /* \"#utility.yul\":6602:6605   */\n      dup3\n        /* \"#utility.yul\":6598:6612   */\n      add\n        /* \"#utility.yul\":6583:6612   */\n      swap1\n      pop\n        /* \"#utility.yul\":6449:6618   */\n      swap3\n      swap2\n      pop\n      pop\n      jump\t// out\n        /* \"#utility.yul\":6624:6793   */\n    tag_117:\n        /* \"#utility.yul\":6764:6785   */\n      0x7365656420697320616c72656164792073657400000000000000000000000000\n        /* \"#utility.yul\":6760:6761   */\n      0x00\n        /* \"#utility.yul\":6752:6758   */\n      dup3\n        /* \"#utility.yul\":6748:6762   */\n      add\n        /* \"#utility.yul\":6741:6786   */\n      mstore\n        /* \"#utility.yul\":6624:6793   */\n      pop\n      jump\t// out\n        /* \"#utility.yul\":6799:7165   */\n    tag_118:\n        /* \"#utility.yul\":6941:6944   */\n      0x00\n        /* \"#utility.yul\":6962:7029   */\n      tag_223\n        /* \"#utility.yul\":7026:7028   */\n      0x13\n        /* \"#utility.yul\":7021:7024   */\n      dup4\n        /* \"#utility.yul\":6962:7029   */\n      tag_116\n      jump\t// in\n    tag_223:\n        /* \"#utility.yul\":6955:7029   */\n      swap2\n      pop\n        /* \"#utility.yul\":7038:7131   */\n      tag_224\n        /* \"#utility.yul\":7127:7130   */\n      dup3\n        /* \"#utility.yul\":7038:7131   */\n      tag_117\n      jump\t// in\n    tag_224:\n        /* \"#utility.yul\":7156:7158   */\n      0x20\n        /* \"#utility.yul\":7151:7154   */\n      dup3\n        /* \"#utility.yul\":7147:7159   */\n      add\n        /* \"#utility.yul\":7140:7159   */\n      swap1\n      pop\n        /* \"#utility.yul\":6799:7165   */\n      swap2\n      swap1\n      pop\n      jump\t// out\n        /* \"#utility.yul\":7171:7590   */\n    tag_52:\n        /* \"#utility.yul\":7337:7341   */\n      0x00\n        /* \"#utility.yul\":7375:7377   */\n      0x20\n        /* \"#utility.yul\":7364:7373   */\n      dup3\n        /* \"#utility.yul\":7360:7378   */\n      add\n        /* \"#utility.yul\":7352:7378   */\n      swap1\n      pop\n        /* \"#utility.yul\":7424:7433   */\n      dup2\n        /* \"#utility.yul\":7418:7422   */\n      dup2\n        /* \"#utility.yul\":7414:7434   */\n      sub\n        /* \"#utility.yul\":7410:7411   */\n      0x00\n        /* \"#utility.yul\":7399:7408   */\n      dup4\n        /* \"#utility.yul\":7395:7412   */\n      add\n        /* \"#utility.yul\":7388:7435   */\n      mstore\n        /* \"#utility.yul\":7452:7583   */\n      tag_226\n        /* \"#utility.yul\":7578:7582   */\n      dup2\n        /* \"#utility.yul\":7452:7583   */\n      tag_118\n      jump\t// in\n    tag_226:\n        /* \"#utility.yul\":7444:7583   */\n      swap1\n      pop\n        /* \"#utility.yul\":7171:7590   */\n      swap2\n      swap1\n      pop\n      jump\t// out\n        /* \"#utility.yul\":7596:7822   */\n    tag_119:\n        /* \"#utility.yul\":7736:7770   */\n      0x6f6e6c79206d616e61676572706f6f6c2063616e2063616c6c20746869732066\n        /* \"#utility.yul\":7732:7733   */\n      0x00\n        /* \"#utility.yul\":7724:7730   */\n      dup3\n        /* \"#utility.yul\":7720:7734   */\n      add\n        /* \"#utility.yul\":7713:7771   */\n      mstore\n        /* \"#utility.yul\":7805:7814   */\n      0x756e6374696f6e00000000000000000000000000000000000000000000000000\n        /* \"#utility.yul\":7800:7802   */\n      0x20\n        /* \"#utility.yul\":7792:7798   */\n      dup3\n        /* \"#utility.yul\":7788:7803   */\n      add\n        /* \"#utility.yul\":7781:7815   */\n      mstore\n        /* \"#utility.yul\":7596:7822   */\n      pop\n      jump\t// out\n        /* \"#utility.yul\":7828:8194   */\n    tag_120:\n        /* \"#utility.yul\":7970:7973   */\n      0x00\n        /* \"#utility.yul\":7991:8058   */\n      tag_229\n        /* \"#utility.yul\":8055:8057   */\n      0x27\n        /* \"#utility.yul\":8050:8053   */\n      dup4\n        /* \"#utility.yul\":7991:8058   */\n      tag_116\n      jump\t// in\n    tag_229:\n        /* \"#utility.yul\":7984:8058   */\n      swap2\n      pop\n        /* \"#utility.yul\":8067:8160   */\n      tag_230\n        /* \"#utility.yul\":8156:8159   */\n      dup3\n        /* \"#utility.yul\":8067:8160   */\n      tag_119\n      jump\t// in\n    tag_230:\n        /* \"#utility.yul\":8185:8187   */\n      0x40\n        /* \"#utility.yul\":8180:8183   */\n      dup3\n        /* \"#utility.yul\":8176:8188   */\n      add\n        /* \"#utility.yul\":8169:8188   */\n      swap1\n      pop\n        /* \"#utility.yul\":7828:8194   */\n      swap2\n      swap1\n      pop\n      jump\t// out\n        /* \"#utility.yul\":8200:8619   */\n    tag_55:\n        /* \"#utility.yul\":8366:8370   */\n      0x00\n        /* \"#utility.yul\":8404:8406   */\n      0x20\n        /* \"#utility.yul\":8393:8402   */\n      dup3\n        /* \"#utility.yul\":8389:8407   */\n      add\n        /* \"#utility.yul\":8381:8407   */\n      swap1\n      pop\n        /* \"#utility.yul\":8453:8462   */\n      dup2\n        /* \"#utility.yul\":8447:8451   */\n      dup2\n        /* \"#utility.yul\":8443:8463   */\n      sub\n        /* \"#utility.yul\":8439:8440   */\n      0x00\n        /* \"#utility.yul\":8428:8437   */\n      dup4\n        /* \"#utility.yul\":8424:8441   */\n      add\n        /* \"#utility.yul\":8417:8464   */\n      mstore\n        /* \"#utility.yul\":8481:8612   */\n      tag_232\n        /* \"#utility.yul\":8607:8611   */\n      dup2\n        /* \"#utility.yul\":8481:8612   */\n      tag_120\n      jump\t// in\n    tag_232:\n        /* \"#utility.yul\":8473:8612   */\n      swap1\n      pop\n        /* \"#utility.yul\":8200:8619   */\n      swap2\n      swap1\n      pop\n      jump\t// out\n        /* \"#utility.yul\":8625:8805   */\n    tag_121:\n        /* \"#utility.yul\":8673:8750   */\n      0x4e487b7100000000000000000000000000000000000000000000000000000000\n        /* \"#utility.yul\":8670:8671   */\n      0x00\n        /* \"#utility.yul\":8663:8751   */\n      mstore\n        /* \"#utility.yul\":8770:8774   */\n      0x11\n        /* \"#utility.yul\":8767:8768   */\n      0x04\n        /* \"#utility.yul\":8760:8775   */\n      mstore\n        /* \"#utility.yul\":8794:8798   */\n      0x24\n        /* \"#utility.yul\":8791:8792   */\n      0x00\n        /* \"#utility.yul\":8784:8799   */\n      revert\n        /* \"#utility.yul\":8811:9116   */\n    tag_57:\n        /* \"#utility.yul\":8851:8854   */\n      0x00\n        /* \"#utility.yul\":8870:8890   */\n      tag_235\n        /* \"#utility.yul\":8888:8889   */\n      dup3\n        /* \"#utility.yul\":8870:8890   */\n      tag_99\n      jump\t// in\n    tag_235:\n        /* \"#utility.yul\":8865:8890   */\n      swap2\n      pop\n        /* \"#utility.yul\":8904:8924   */\n      tag_236\n        /* \"#utility.yul\":8922:8923   */\n      dup4\n        /* \"#utility.yul\":8904:8924   */\n      tag_99\n      jump\t// in\n    tag_236:\n        /* \"#utility.yul\":8899:8924   */\n      swap3\n      pop\n        /* \"#utility.yul\":9058:9059   */\n      dup3\n        /* \"#utility.yul\":8990:9056   */\n      0xffffffffffffffffffffffffffffffffffffffffffffffffffffffffffffffff\n        /* \"#utility.yul\":8986:9060   */\n      sub\n        /* \"#utility.yul\":8983:8984   */\n      dup3\n        /* \"#utility.yul\":8980:9061   */\n      gt\n        /* \"#utility.yul\":8977:9084   */\n      iszero\n      tag_237\n      jumpi\n        /* \"#utility.yul\":9064:9082   */\n      tag_238\n      tag_121\n      jump\t// in\n    tag_238:\n        /* \"#utility.yul\":8977:9084   */\n    tag_237:\n        /* \"#utility.yul\":9108:9109   */\n      dup3\n        /* \"#utility.yul\":9105:9106   */\n      dup3\n        /* \"#utility.yul\":9101:9110   */\n      add\n        /* \"#utility.yul\":9094:9110   */\n      swap1\n      pop\n        /* \"#utility.yul\":8811:9116   */\n      swap3\n      swap2\n      pop\n      pop\n      jump\t// out\n        /* \"#utility.yul\":9122:9201   */\n    tag_122:\n        /* \"#utility.yul\":9161:9168   */\n      0x00\n        /* \"#utility.yul\":9190:9195   */\n      dup2\n        /* \"#utility.yul\":9179:9195   */\n      swap1\n      pop\n        /* \"#utility.yul\":9122:9201   */\n      swap2\n      swap1\n      pop\n      jump\t// out\n        /* \"#utility.yul\":9207:9364   */\n    tag_123:\n        /* \"#utility.yul\":9312:9357   */\n      tag_241\n        /* \"#utility.yul\":9332:9356   */\n      tag_242\n        /* \"#utility.yul\":9350:9355   */\n      dup3\n        /* \"#utility.yul\":9332:9356   */\n      tag_99\n      jump\t// in\n    tag_242:\n        /* \"#utility.yul\":9312:9357   */\n      tag_122\n      jump\t// in\n    tag_241:\n        /* \"#utility.yul\":9307:9310   */\n      dup3\n        /* \"#utility.yul\":9300:9358   */\n      mstore\n        /* \"#utility.yul\":9207:9364   */\n      pop\n      pop\n      jump\t// out\n        /* \"#utility.yul\":9370:9481   */\n    tag_124:\n        /* \"#utility.yul\":9434:9440   */\n      0x00\n        /* \"#utility.yul\":9468:9473   */\n      dup2\n        /* \"#utility.yul\":9462:9474   */\n      sload\n        /* \"#utility.yul\":9452:9474   */\n      swap1\n      pop\n        /* \"#utility.yul\":9370:9481   */\n      swap2\n      swap1\n      pop\n      jump\t// out\n        /* \"#utility.yul\":9487:9650   */\n    tag_125:\n        /* \"#utility.yul\":9604:9615   */\n      0x00\n        /* \"#utility.yul\":9641:9644   */\n      dup2\n        /* \"#utility.yul\":9626:9644   */\n      swap1\n      pop\n        /* \"#utility.yul\":9487:9650   */\n      swap3\n      swap2\n      pop\n      pop\n      jump\t// out\n        /* \"#utility.yul\":9656:9812   */\n    tag_126:\n        /* \"#utility.yul\":9720:9724   */\n      0x00\n        /* \"#utility.yul\":9743:9746   */\n      dup2\n        /* \"#utility.yul\":9735:9746   */\n      swap1\n      pop\n        /* \"#utility.yul\":9766:9769   */\n      dup2\n        /* \"#utility.yul\":9763:9764   */\n      0x00\n        /* \"#utility.yul\":9756:9770   */\n      mstore\n        /* \"#utility.yul\":9800:9804   */\n      0x20\n        /* \"#utility.yul\":9797:9798   */\n      0x00\n        /* \"#utility.yul\":9787:9805   */\n      keccak256\n        /* \"#utility.yul\":9779:9805   */\n      swap1\n      pop\n        /* \"#utility.yul\":9656:9812   */\n      swap2\n      swap1\n      pop\n      jump\t// out\n        /* \"#utility.yul\":9818:9934   */\n    tag_127:\n        /* \"#utility.yul\":9903:9927   */\n      tag_247\n        /* \"#utility.yul\":9921:9926   */\n      dup2\n        /* \"#utility.yul\":9903:9927   */\n      tag_97\n      jump\t// in\n    tag_247:\n        /* \"#utility.yul\":9898:9901   */\n      dup3\n        /* \"#utility.yul\":9891:9928   */\n      mstore\n        /* \"#utility.yul\":9818:9934   */\n      pop\n      pop\n      jump\t// out\n        /* \"#utility.yul\":9940:10135   */\n    tag_128:\n        /* \"#utility.yul\":10017:10027   */\n      0x00\n        /* \"#utility.yul\":10038:10092   */\n      tag_249\n        /* \"#utility.yul\":10088:10091   */\n      dup4\n        /* \"#utility.yul\":10080:10086   */\n      dup4\n        /* \"#utility.yul\":10038:10092   */\n      tag_127\n      jump\t// in\n    tag_249:\n        /* \"#utility.yul\":10124:10128   */\n      0x20\n        /* \"#utility.yul\":10119:10122   */\n      dup4\n        /* \"#utility.yul\":10115:10129   */\n      add\n        /* \"#utility.yul\":10101:10129   */\n      swap1\n      pop\n        /* \"#utility.yul\":9940:10135   */\n      swap3\n      swap2\n      pop\n      pop\n      jump\t// out\n        /* \"#utility.yul\":10141:10243   */\n    tag_129:\n        /* \"#utility.yul\":10183:10191   */\n      0x00\n        /* \"#utility.yul\":10230:10235   */\n      dup2\n        /* \"#utility.yul\":10227:10228   */\n      0x00\n        /* \"#utility.yul\":10223:10236   */\n      shr\n        /* \"#utility.yul\":10202:10236   */\n      swap1\n      pop\n        /* \"#utility.yul\":10141:10243   */\n      swap2\n      swap1\n      pop\n      jump\t// out\n        /* \"#utility.yul\":10249:10388   */\n    tag_130:\n        /* \"#utility.yul\":10299:10306   */\n      0x00\n        /* \"#utility.yul\":10339:10381   */\n      0xffffffffffffffffffffffffffffffffffffffff\n        /* \"#utility.yul\":10332:10337   */\n      dup3\n        /* \"#utility.yul\":10328:10382   */\n      and\n        /* \"#utility.yul\":10317:10382   */\n      swap1\n      pop\n        /* \"#utility.yul\":10249:10388   */\n      swap2\n      swap1\n      pop\n      jump\t// out\n        /* \"#utility.yul\":10394:10560   */\n    tag_131:\n        /* \"#utility.yul\":10463:10468   */\n      0x00\n        /* \"#utility.yul\":10488:10554   */\n      tag_253\n        /* \"#utility.yul\":10519:10553   */\n      tag_254\n        /* \"#utility.yul\":10542:10552   */\n      dup4\n        /* \"#utility.yul\":10519:10553   */\n      tag_129\n      jump\t// in\n    tag_254:\n        /* \"#utility.yul\":10488:10554   */\n      tag_130\n      jump\t// in\n    tag_253:\n        /* \"#utility.yul\":10479:10554   */\n      swap1\n      pop\n        /* \"#utility.yul\":10394:10560   */\n      swap2\n      swap1\n      pop\n      jump\t// out\n        /* \"#utility.yul\":10566:10710   */\n    tag_132:\n        /* \"#utility.yul\":10621:10626   */\n      0x00\n        /* \"#utility.yul\":10646:10703   */\n      tag_256\n        /* \"#utility.yul\":10697:10701   */\n      dup3\n        /* \"#utility.yul\":10691:10702   */\n      sload\n        /* \"#utility.yul\":10646:10703   */\n      tag_131\n      jump\t// in\n    tag_256:\n        /* \"#utility.yul\":10637:10703   */\n      swap1\n      pop\n        /* \"#utility.yul\":10566:10710   */\n      swap2\n      swap1\n      pop\n      jump\t// out\n        /* \"#utility.yul\":10716:10826   */\n    tag_133:\n        /* \"#utility.yul\":10783:10787   */\n      0x00\n        /* \"#utility.yul\":10815:10819   */\n      0x01\n        /* \"#utility.yul\":10810:10813   */\n      dup3\n        /* \"#utility.yul\":10806:10820   */\n      add\n        /* \"#utility.yul\":10798:10820   */\n      swap1\n      pop\n        /* \"#utility.yul\":10716:10826   */\n      swap2\n      swap1\n      pop\n      jump\t// out\n        /* \"#utility.yul\":10862:11657   */\n    tag_134:\n        /* \"#utility.yul\":10996:10999   */\n      0x00\n        /* \"#utility.yul\":11025:11076   */\n      tag_259\n        /* \"#utility.yul\":11070:11075   */\n      dup3\n        /* \"#utility.yul\":11025:11076   */\n      tag_124\n      jump\t// in\n    tag_259:\n        /* \"#utility.yul\":11092:11196   */\n      tag_260\n        /* \"#utility.yul\":11189:11195   */\n      dup2\n        /* \"#utility.yul\":11184:11187   */\n      dup6\n        /* \"#utility.yul\":11092:11196   */\n      tag_125\n      jump\t// in\n    tag_260:\n        /* \"#utility.yul\":11085:11196   */\n      swap4\n      pop\n        /* \"#utility.yul\":11220:11273   */\n      tag_261\n        /* \"#utility.yul\":11267:11272   */\n      dup4\n        /* \"#utility.yul\":11220:11273   */\n      tag_126\n      jump\t// in\n    tag_261:\n        /* \"#utility.yul\":11296:11303   */\n      dup1\n        /* \"#utility.yul\":11327:11328   */\n      0x00\n        /* \"#utility.yul\":11312:11632   */\n    tag_262:\n        /* \"#utility.yul\":11337:11343   */\n      dup4\n        /* \"#utility.yul\":11334:11335   */\n      dup2\n        /* \"#utility.yul\":11331:11344   */\n      lt\n        /* \"#utility.yul\":11312:11632   */\n      iszero\n      tag_264\n      jumpi\n        /* \"#utility.yul\":11407:11451   */\n      tag_265\n        /* \"#utility.yul\":11444:11450   */\n      dup3\n        /* \"#utility.yul\":11407:11451   */\n      tag_132\n      jump\t// in\n    tag_265:\n        /* \"#utility.yul\":11471:11542   */\n      tag_266\n        /* \"#utility.yul\":11538:11541   */\n      dup9\n        /* \"#utility.yul\":11523:11536   */\n      dup3\n        /* \"#utility.yul\":11471:11542   */\n      tag_128\n      jump\t// in\n    tag_266:\n        /* \"#utility.yul\":11464:11542   */\n      swap8\n      pop\n        /* \"#utility.yul\":11565:11622   */\n      tag_267\n        /* \"#utility.yul\":11615:11621   */\n      dup4\n        /* \"#utility.yul\":11565:11622   */\n      tag_133\n      jump\t// in\n    tag_267:\n        /* \"#utility.yul\":11555:11622   */\n      swap3\n      pop\n        /* \"#utility.yul\":11372:11632   */\n      pop\n        /* \"#utility.yul\":11359:11360   */\n      0x01\n        /* \"#utility.yul\":11356:11357   */\n      dup2\n        /* \"#utility.yul\":11352:11361   */\n      add\n        /* \"#utility.yul\":11347:11361   */\n      swap1\n      pop\n        /* \"#utility.yul\":11312:11632   */\n      jump(tag_262)\n    tag_264:\n        /* \"#utility.yul\":11316:11330   */\n      pop\n        /* \"#utility.yul\":11648:11651   */\n      dup6\n        /* \"#utility.yul\":11641:11651   */\n      swap4\n      pop\n        /* \"#utility.yul\":11001:11657   */\n      pop\n      pop\n      pop\n        /* \"#utility.yul\":10862:11657   */\n      swap3\n      swap2\n      pop\n      pop\n      jump\t// out\n        /* \"#utility.yul\":11663:12274   */\n    tag_66:\n        /* \"#utility.yul\":11878:11881   */\n      0x00\n        /* \"#utility.yul\":11893:11968   */\n      tag_269\n        /* \"#utility.yul\":11964:11967   */\n      dup3\n        /* \"#utility.yul\":11955:11961   */\n      dup7\n        /* \"#utility.yul\":11893:11968   */\n      tag_123\n      jump\t// in\n    tag_269:\n        /* \"#utility.yul\":11993:11995   */\n      0x20\n        /* \"#utility.yul\":11988:11991   */\n      dup3\n        /* \"#utility.yul\":11984:11996   */\n      add\n        /* \"#utility.yul\":11977:11996   */\n      swap2\n      pop\n        /* \"#utility.yul\":12006:12081   */\n      tag_270\n        /* \"#utility.yul\":12077:12080   */\n      dup3\n        /* \"#utility.yul\":12068:12074   */\n      dup6\n        /* \"#utility.yul\":12006:12081   */\n      tag_123\n      jump\t// in\n    tag_270:\n        /* \"#utility.yul\":12106:12108   */\n      0x20\n        /* \"#utility.yul\":12101:12104   */\n      dup3\n        /* \"#utility.yul\":12097:12109   */\n      add\n        /* \"#utility.yul\":12090:12109   */\n      swap2\n      pop\n        /* \"#utility.yul\":12126:12248   */\n      tag_271\n        /* \"#utility.yul\":12244:12247   */\n      dup3\n        /* \"#utility.yul\":12235:12241   */\n      dup5\n        /* \"#utility.yul\":12126:12248   */\n      tag_134\n      jump\t// in\n    tag_271:\n        /* \"#utility.yul\":12119:12248   */\n      swap2\n      pop\n        /* \"#utility.yul\":12265:12268   */\n      dup2\n        /* \"#utility.yul\":12258:12268   */\n      swap1\n      pop\n        /* \"#utility.yul\":11663:12274   */\n      swap5\n      swap4\n      pop\n      pop\n      pop\n      pop\n      jump\t// out\n        /* \"#utility.yul\":12280:12460   */\n    tag_135:\n        /* \"#utility.yul\":12328:12405   */\n      0x4e487b7100000000000000000000000000000000000000000000000000000000\n        /* \"#utility.yul\":12325:12326   */\n      0x00\n        /* \"#utility.yul\":12318:12406   */\n      mstore\n        /* \"#utility.yul\":12425:12429   */\n      0x12\n        /* \"#utility.yul\":12422:12423   */\n      0x04\n        /* \"#utility.yul\":12415:12430   */\n      mstore\n        /* \"#utility.yul\":12449:12453   */\n      0x24\n        /* \"#utility.yul\":12446:12447   */\n      0x00\n        /* \"#utility.yul\":12439:12454   */\n      revert\n        /* \"#utility.yul\":12466:12642   */\n    tag_68:\n        /* \"#utility.yul\":12498:12499   */\n      0x00\n        /* \"#utility.yul\":12515:12535   */\n      tag_274\n        /* \"#utility.yul\":12533:12534   */\n      dup3\n        /* \"#utility.yul\":12515:12535   */\n      tag_99\n      jump\t// in\n    tag_274:\n        /* \"#utility.yul\":12510:12535   */\n      swap2\n      pop\n        /* \"#utility.yul\":12549:12569   */\n      tag_275\n        /* \"#utility.yul\":12567:12568   */\n      dup4\n        /* \"#utility.yul\":12549:12569   */\n      tag_99\n      jump\t// in\n    tag_275:\n        /* \"#utility.yul\":12544:12569   */\n      swap3\n      pop\n        /* \"#utility.yul\":12588:12589   */\n      dup3\n        /* \"#utility.yul\":12578:12613   */\n      tag_276\n      jumpi\n        /* \"#utility.yul\":12593:12611   */\n      tag_277\n      tag_135\n      jump\t// in\n    tag_277:\n        /* \"#utility.yul\":12578:12613   */\n    tag_276:\n        /* \"#utility.yul\":12634:12635   */\n      dup3\n        /* \"#utility.yul\":12631:12632   */\n      dup3\n        /* \"#utility.yul\":12627:12636   */\n      mod\n        /* \"#utility.yul\":12622:12636   */\n      swap1\n      pop\n        /* \"#utility.yul\":12466:12642   */\n      swap3\n      swap2\n      pop\n      pop\n      jump\t// out\n        /* \"#utility.yul\":12648:12817   */\n    tag_136:\n        /* \"#utility.yul\":12788:12809   */\n      0x73656564206973206e6f74207965742073657400000000000000000000000000\n        /* \"#utility.yul\":12784:12785   */\n      0x00\n        /* \"#utility.yul\":12776:12782   */\n      dup3\n        /* \"#utility.yul\":12772:12786   */\n      add\n        /* \"#utility.yul\":12765:12810   */\n      mstore\n        /* \"#utility.yul\":12648:12817   */\n      pop\n      jump\t// out\n        /* \"#utility.yul\":12823:13189   */\n    tag_137:\n        /* \"#utility.yul\":12965:12968   */\n      0x00\n        /* \"#utility.yul\":12986:13053   */\n      tag_280\n        /* \"#utility.yul\":13050:13052   */\n      0x13\n        /* \"#utility.yul\":13045:13048   */\n      dup4\n        /* \"#utility.yul\":12986:13053   */\n      tag_116\n      jump\t// in\n    tag_280:\n        /* \"#utility.yul\":12979:13053   */\n      swap2\n      pop\n        /* \"#utility.yul\":13062:13155   */\n      tag_281\n        /* \"#utility.yul\":13151:13154   */\n      dup3\n        /* \"#utility.yul\":13062:13155   */\n      tag_136\n      jump\t// in\n    tag_281:\n        /* \"#utility.yul\":13180:13182   */\n      0x20\n        /* \"#utility.yul\":13175:13178   */\n      dup3\n        /* \"#utility.yul\":13171:13183   */\n      add\n        /* \"#utility.yul\":13164:13183   */\n      swap1\n      pop\n        /* \"#utility.yul\":12823:13189   */\n      swap2\n      swap1\n      pop\n      jump\t// out\n        /* \"#utility.yul\":13195:13614   */\n    tag_72:\n        /* \"#utility.yul\":13361:13365   */\n      0x00\n        /* \"#utility.yul\":13399:13401   */\n      0x20\n        /* \"#utility.yul\":13388:13397   */\n      dup3\n        /* \"#utility.yul\":13384:13402   */\n      add\n        /* \"#utility.yul\":13376:13402   */\n      swap1\n      pop\n        /* \"#utility.yul\":13448:13457   */\n      dup2\n        /* \"#utility.yul\":13442:13446   */\n      dup2\n        /* \"#utility.yul\":13438:13458   */\n      sub\n        /* \"#utility.yul\":13434:13435   */\n      0x00\n        /* \"#utility.yul\":13423:13432   */\n      dup4\n        /* \"#utility.yul\":13419:13436   */\n      add\n        /* \"#utility.yul\":13412:13459   */\n      mstore\n        /* \"#utility.yul\":13476:13607   */\n      tag_283\n        /* \"#utility.yul\":13602:13606   */\n      dup2\n        /* \"#utility.yul\":13476:13607   */\n      tag_137\n      jump\t// in\n    tag_283:\n        /* \"#utility.yul\":13468:13607   */\n      swap1\n      pop\n        /* \"#utility.yul\":13195:13614   */\n      swap2\n      swap1\n      pop\n      jump\t// out\n        /* \"#utility.yul\":13620:13798   */\n    tag_138:\n        /* \"#utility.yul\":13760:13790   */\n      0x646f6e6174696f6e7320617265206e6f7420636c6f7365642079657400000000\n        /* \"#utility.yul\":13756:13757   */\n      0x00\n        /* \"#utility.yul\":13748:13754   */\n      dup3\n        /* \"#utility.yul\":13744:13758   */\n      add\n        /* \"#utility.yul\":13737:13791   */\n      mstore\n        /* \"#utility.yul\":13620:13798   */\n      pop\n      jump\t// out\n        /* \"#utility.yul\":13804:14170   */\n    tag_139:\n        /* \"#utility.yul\":13946:13949   */\n      0x00\n        /* \"#utility.yul\":13967:14034   */\n      tag_286\n        /* \"#utility.yul\":14031:14033   */\n      0x1c\n        /* \"#utility.yul\":14026:14029   */\n      dup4\n        /* \"#utility.yul\":13967:14034   */\n      tag_116\n      jump\t// in\n    tag_286:\n        /* \"#utility.yul\":13960:14034   */\n      swap2\n      pop\n        /* \"#utility.yul\":14043:14136   */\n      tag_287\n        /* \"#utility.yul\":14132:14135   */\n      dup3\n        /* \"#utility.yul\":14043:14136   */\n      tag_138\n      jump\t// in\n    tag_287:\n        /* \"#utility.yul\":14161:14163   */\n      0x20\n        /* \"#utility.yul\":14156:14159   */\n      dup3\n        /* \"#utility.yul\":14152:14164   */\n      add\n        /* \"#utility.yul\":14145:14164   */\n      swap1\n      pop\n        /* \"#utility.yul\":13804:14170   */\n      swap2\n      swap1\n      pop\n      jump\t// out\n        /* \"#utility.yul\":14176:14595   */\n    tag_75:\n        /* \"#utility.yul\":14342:14346   */\n      0x00\n        /* \"#utility.yul\":14380:14382   */\n      0x20\n        /* \"#utility.yul\":14369:14378   */\n      dup3\n        /* \"#utility.yul\":14365:14383   */\n      add\n        /* \"#utility.yul\":14357:14383   */\n      swap1\n      pop\n        /* \"#utility.yul\":14429:14438   */\n      dup2\n        /* \"#utility.yul\":14423:14427   */\n      dup2\n        /* \"#utility.yul\":14419:14439   */\n      sub\n        /* \"#utility.yul\":14415:14416   */\n      0x00\n        /* \"#utility.yul\":14404:14413   */\n      dup4\n        /* \"#utility.yul\":14400:14417   */\n      add\n        /* \"#utility.yul\":14393:14440   */\n      mstore\n        /* \"#utility.yul\":14457:14588   */\n      tag_289\n        /* \"#utility.yul\":14583:14587   */\n      dup2\n        /* \"#utility.yul\":14457:14588   */\n      tag_139\n      jump\t// in\n    tag_289:\n        /* \"#utility.yul\":14449:14588   */\n      swap1\n      pop\n        /* \"#utility.yul\":14176:14595   */\n      swap2\n      swap1\n      pop\n      jump\t// out\n        /* \"#utility.yul\":14601:14719   */\n    tag_140:\n        /* \"#utility.yul\":14688:14712   */\n      tag_291\n        /* \"#utility.yul\":14706:14711   */\n      dup2\n        /* \"#utility.yul\":14688:14712   */\n      tag_93\n      jump\t// in\n    tag_291:\n        /* \"#utility.yul\":14683:14686   */\n      dup3\n        /* \"#utility.yul\":14676:14713   */\n      mstore\n        /* \"#utility.yul\":14601:14719   */\n      pop\n      pop\n      jump\t// out\n        /* \"#utility.yul\":14725:15057   */\n    tag_78:\n        /* \"#utility.yul\":14846:14850   */\n      0x00\n        /* \"#utility.yul\":14884:14886   */\n      0x40\n        /* \"#utility.yul\":14873:14882   */\n      dup3\n        /* \"#utility.yul\":14869:14887   */\n      add\n        /* \"#utility.yul\":14861:14887   */\n      swap1\n      pop\n        /* \"#utility.yul\":14897:14968   */\n      tag_293\n        /* \"#utility.yul\":14965:14966   */\n      0x00\n        /* \"#utility.yul\":14954:14963   */\n      dup4\n        /* \"#utility.yul\":14950:14967   */\n      add\n        /* \"#utility.yul\":14941:14947   */\n      dup6\n        /* \"#utility.yul\":14897:14968   */\n      tag_98\n      jump\t// in\n    tag_293:\n        /* \"#utility.yul\":14978:15050   */\n      tag_294\n        /* \"#utility.yul\":15046:15048   */\n      0x20\n        /* \"#utility.yul\":15035:15044   */\n      dup4\n        /* \"#utility.yul\":15031:15049   */\n      add\n        /* \"#utility.yul\":15022:15028   */\n      dup5\n        /* \"#utility.yul\":14978:15050   */\n      tag_140\n      jump\t// in\n    tag_294:\n        /* \"#utility.yul\":14725:15057   */\n      swap4\n      swap3\n      pop\n      pop\n      pop\n      jump\t// out\n        /* \"#utility.yul\":15063:15395   */\n    tag_81:\n        /* \"#utility.yul\":15184:15188   */\n      0x00\n        /* \"#utility.yul\":15222:15224   */\n      0x40\n        /* \"#utility.yul\":15211:15220   */\n      dup3\n        /* \"#utility.yul\":15207:15225   */\n      add\n        /* \"#utility.yul\":15199:15225   */\n      swap1\n      pop\n        /* \"#utility.yul\":15235:15306   */\n      tag_296\n        /* \"#utility.yul\":15303:15304   */\n      0x00\n        /* \"#utility.yul\":15292:15301   */\n      dup4\n        /* \"#utility.yul\":15288:15305   */\n      add\n        /* \"#utility.yul\":15279:15285   */\n      dup6\n        /* \"#utility.yul\":15235:15306   */\n      tag_140\n      jump\t// in\n    tag_296:\n        /* \"#utility.yul\":15316:15388   */\n      tag_297\n        /* \"#utility.yul\":15384:15386   */\n      0x20\n        /* \"#utility.yul\":15373:15382   */\n      dup4\n        /* \"#utility.yul\":15369:15387   */\n      add\n        /* \"#utility.yul\":15360:15366   */\n      dup5\n        /* \"#utility.yul\":15316:15388   */\n      tag_140\n      jump\t// in\n    tag_297:\n        /* \"#utility.yul\":15063:15395   */\n      swap4\n      swap3\n      pop\n      pop\n      pop\n      jump\t// out\n\n    auxdata: 0xa264697066735822122066e93086d341432a0a536dcd0006efa3b4335ebc2eb2f6d7059146d6f779eedc64736f6c634300080d0033\n}\n",
				"bytecode": {
					"linkReferences": {},
					"object": "608060405234801561001057600080fd5b50336000806101000a81548173ffffffffffffffffffffffffffffffffffffffff021916908373ffffffffffffffffffffffffffffffffffffffff1602179055506000600360006101000a81548160ff0219169083151502179055506000600360016101000a81548160ff021916908315150217905550600a600581905550610e1e8061009e6000396000f3fe608060405234801561001057600080fd5b50600436106100885760003560e01c80635ec01e4d1161005b5780635ec01e4d14610139578063701fd0f1146101575780639937232114610187578063dedfe223146101b757610088565b80631e5f91491461008d57806341114538146100bd5780634abfa163146100d95780635c6b143c14610109575b600080fd5b6100a760048036038101906100a29190610616565b6101d5565b6040516100b49190610684565b60405180910390f35b6100d760048036038101906100d29190610616565b6101ec565b005b6100f360048036038101906100ee91906106d5565b61031d565b6040516101009190610684565b60405180910390f35b610123600480360381019061011e9190610887565b61035c565b60405161013091906108fe565b60405180910390f35b610141610388565b60405161014e9190610928565b60405180910390f35b610171600480360381019061016c9190610616565b6103d6565b60405161017e9190610928565b60405180910390f35b6101a1600480360381019061019c9190610616565b6104f6565b6040516101ae91906108fe565b60405180910390f35b6101bf610501565b6040516101cc9190610684565b60405180910390f35b6000806101e1836103d6565b905033915050919050565b600360009054906101000a900460ff161561023c576040517f08c379a0000000000000000000000000000000000000000000000000000000008152600401610233906109a0565b60405180910390fd5b60008054906101000a900473ffffffffffffffffffffffffffffffffffffffff1673ffffffffffffffffffffffffffffffffffffffff163373ffffffffffffffffffffffffffffffffffffffff16146102ca576040517f08c379a00000000000000000000000000000000000000000000000000000000081526004016102c190610a32565b60405180910390fd5b6001600360016101000a81548160ff021916908315150217905550806002819055506001436102f99190610a81565b6004819055506001600360006101000a81548160ff02191690831515021790555050565b6001818154811061032d57600080fd5b906000526020600020016000915054906101000a900473ffffffffffffffffffffffffffffffffffffffff1681565b60008260019080519060200190610374929190610525565b5061037e826101ec565b6001905092915050565b600080444260016040516020016103a193929190610c16565b6040516020818303038152906040528051906020012060001c90506000600554826103cc9190610c7e565b9050809250505090565b6000600360009054906101000a900460ff16610427576040517f08c379a000000000000000000000000000000000000000000000000000000000815260040161041e90610cfb565b60405180910390fd5b600360019054906101000a900460ff16610476576040517f08c379a000000000000000000000000000000000000000000000000000000000815260040161046d90610d67565b60405180910390fd5b436004541061048457600080fd5b600254338360405160200161049a929190610d96565b60405160208183030381529060405280519060200120146104ba57600080fd5b600082600454406040516020016104d2929190610dbf565b6040516020818303038152906040528051906020012060001c905080915050919050565b600060019050919050565b60008054906101000a900473ffffffffffffffffffffffffffffffffffffffff1681565b82805482825590600052602060002090810192821561059e579160200282015b8281111561059d5782518260006101000a81548173ffffffffffffffffffffffffffffffffffffffff021916908373ffffffffffffffffffffffffffffffffffffffff16021790555091602001919060010190610545565b5b5090506105ab91906105af565b5090565b5b808211156105c85760008160009055506001016105b0565b5090565b6000604051905090565b600080fd5b600080fd5b6000819050919050565b6105f3816105e0565b81146105fe57600080fd5b50565b600081359050610610816105ea565b92915050565b60006020828403121561062c5761062b6105d6565b5b600061063a84828501610601565b91505092915050565b600073ffffffffffffffffffffffffffffffffffffffff82169050919050565b600061066e82610643565b9050919050565b61067e81610663565b82525050565b60006020820190506106996000830184610675565b92915050565b6000819050919050565b6106b28161069f565b81146106bd57600080fd5b50565b6000813590506106cf816106a9565b92915050565b6000602082840312156106eb576106ea6105d6565b5b60006106f9848285016106c0565b91505092915050565b600080fd5b6000601f19601f8301169050919050565b7f4e487b7100000000000000000000000000000000000000000000000000000000600052604160045260246000fd5b61075082610707565b810181811067ffffffffffffffff8211171561076f5761076e610718565b5b80604052505050565b60006107826105cc565b905061078e8282610747565b919050565b600067ffffffffffffffff8211156107ae576107ad610718565b5b602082029050602081019050919050565b600080fd5b6107cd81610663565b81146107d857600080fd5b50565b6000813590506107ea816107c4565b92915050565b60006108036107fe84610793565b610778565b90508083825260208201905060208402830185811115610826576108256107bf565b5b835b8181101561084f578061083b88826107db565b845260208401935050602081019050610828565b5050509392505050565b600082601f83011261086e5761086d610702565b5b813561087e8482602086016107f0565b91505092915050565b6000806040838503121561089e5761089d6105d6565b5b600083013567ffffffffffffffff8111156108bc576108bb6105db565b5b6108c885828601610859565b92505060206108d985828601610601565b9150509250929050565b60008115159050919050565b6108f8816108e3565b82525050565b600060208201905061091360008301846108ef565b92915050565b6109228161069f565b82525050565b600060208201905061093d6000830184610919565b92915050565b600082825260208201905092915050565b7f7365656420697320616c72656164792073657400000000000000000000000000600082015250565b600061098a601383610943565b915061099582610954565b602082019050919050565b600060208201905081810360008301526109b98161097d565b9050919050565b7f6f6e6c79206d616e61676572706f6f6c2063616e2063616c6c2074686973206660008201527f756e6374696f6e00000000000000000000000000000000000000000000000000602082015250565b6000610a1c602783610943565b9150610a27826109c0565b604082019050919050565b60006020820190508181036000830152610a4b81610a0f565b9050919050565b7f4e487b7100000000000000000000000000000000000000000000000000000000600052601160045260246000fd5b6000610a8c8261069f565b9150610a978361069f565b9250827fffffffffffffffffffffffffffffffffffffffffffffffffffffffffffffffff03821115610acc57610acb610a52565b5b828201905092915050565b6000819050919050565b610af2610aed8261069f565b610ad7565b82525050565b600081549050919050565b600081905092915050565b60008190508160005260206000209050919050565b610b2c81610663565b82525050565b6000610b3e8383610b23565b60208301905092915050565b60008160001c9050919050565b600073ffffffffffffffffffffffffffffffffffffffff82169050919050565b6000610b8a610b8583610b4a565b610b57565b9050919050565b6000610b9d8254610b77565b9050919050565b6000600182019050919050565b6000610bbc82610af8565b610bc68185610b03565b9350610bd183610b0e565b8060005b83811015610c0957610be682610b91565b610bf08882610b32565b9750610bfb83610ba4565b925050600181019050610bd5565b5085935050505092915050565b6000610c228286610ae1565b602082019150610c328285610ae1565b602082019150610c428284610bb1565b9150819050949350505050565b7f4e487b7100000000000000000000000000000000000000000000000000000000600052601260045260246000fd5b6000610c898261069f565b9150610c948361069f565b925082610ca457610ca3610c4f565b5b828206905092915050565b7f73656564206973206e6f74207965742073657400000000000000000000000000600082015250565b6000610ce5601383610943565b9150610cf082610caf565b602082019050919050565b60006020820190508181036000830152610d1481610cd8565b9050919050565b7f646f6e6174696f6e7320617265206e6f7420636c6f7365642079657400000000600082015250565b6000610d51601c83610943565b9150610d5c82610d1b565b602082019050919050565b60006020820190508181036000830152610d8081610d44565b9050919050565b610d90816105e0565b82525050565b6000604082019050610dab6000830185610675565b610db86020830184610d87565b9392505050565b6000604082019050610dd46000830185610d87565b610de16020830184610d87565b939250505056fea264697066735822122066e93086d341432a0a536dcd0006efa3b4335ebc2eb2f6d7059146d6f779eedc64736f6c634300080d0033",
					"opcodes": "PUSH1 0x80 PUSH1 0x40 MSTORE CALLVALUE DUP1 ISZERO PUSH2 0x10 JUMPI PUSH1 0x0 DUP1 REVERT JUMPDEST POP CALLER PUSH1 0x0 DUP1 PUSH2 0x100 EXP DUP2 SLOAD DUP2 PUSH20 0xFFFFFFFFFFFFFFFFFFFFFFFFFFFFFFFFFFFFFFFF MUL NOT AND SWAP1 DUP4 PUSH20 0xFFFFFFFFFFFFFFFFFFFFFFFFFFFFFFFFFFFFFFFF AND MUL OR SWAP1 SSTORE POP PUSH1 0x0 PUSH1 0x3 PUSH1 0x0 PUSH2 0x100 EXP DUP2 SLOAD DUP2 PUSH1 0xFF MUL NOT AND SWAP1 DUP4 ISZERO ISZERO MUL OR SWAP1 SSTORE POP PUSH1 0x0 PUSH1 0x3 PUSH1 0x1 PUSH2 0x100 EXP DUP2 SLOAD DUP2 PUSH1 0xFF MUL NOT AND SWAP1 DUP4 ISZERO ISZERO MUL OR SWAP1 SSTORE POP PUSH1 0xA PUSH1 0x5 DUP2 SWAP1 SSTORE POP PUSH2 0xE1E DUP1 PUSH2 0x9E PUSH1 0x0 CODECOPY PUSH1 0x0 RETURN INVALID PUSH1 0x80 PUSH1 0x40 MSTORE CALLVALUE DUP1 ISZERO PUSH2 0x10 JUMPI PUSH1 0x0 DUP1 REVERT JUMPDEST POP PUSH1 0x4 CALLDATASIZE LT PUSH2 0x88 JUMPI PUSH1 0x0 CALLDATALOAD PUSH1 0xE0 SHR DUP1 PUSH4 0x5EC01E4D GT PUSH2 0x5B JUMPI DUP1 PUSH4 0x5EC01E4D EQ PUSH2 0x139 JUMPI DUP1 PUSH4 0x701FD0F1 EQ PUSH2 0x157 JUMPI DUP1 PUSH4 0x99372321 EQ PUSH2 0x187 JUMPI DUP1 PUSH4 0xDEDFE223 EQ PUSH2 0x1B7 JUMPI PUSH2 0x88 JUMP JUMPDEST DUP1 PUSH4 0x1E5F9149 EQ PUSH2 0x8D JUMPI DUP1 PUSH4 0x41114538 EQ PUSH2 0xBD JUMPI DUP1 PUSH4 0x4ABFA163 EQ PUSH2 0xD9 JUMPI DUP1 PUSH4 0x5C6B143C EQ PUSH2 0x109 JUMPI JUMPDEST PUSH1 0x0 DUP1 REVERT JUMPDEST PUSH2 0xA7 PUSH1 0x4 DUP1 CALLDATASIZE SUB DUP2 ADD SWAP1 PUSH2 0xA2 SWAP2 SWAP1 PUSH2 0x616 JUMP JUMPDEST PUSH2 0x1D5 JUMP JUMPDEST PUSH1 0x40 MLOAD PUSH2 0xB4 SWAP2 SWAP1 PUSH2 0x684 JUMP JUMPDEST PUSH1 0x40 MLOAD DUP1 SWAP2 SUB SWAP1 RETURN JUMPDEST PUSH2 0xD7 PUSH1 0x4 DUP1 CALLDATASIZE SUB DUP2 ADD SWAP1 PUSH2 0xD2 SWAP2 SWAP1 PUSH2 0x616 JUMP JUMPDEST PUSH2 0x1EC JUMP JUMPDEST STOP JUMPDEST PUSH2 0xF3 PUSH1 0x4 DUP1 CALLDATASIZE SUB DUP2 ADD SWAP1 PUSH2 0xEE SWAP2 SWAP1 PUSH2 0x6D5 JUMP JUMPDEST PUSH2 0x31D JUMP JUMPDEST PUSH1 0x40 MLOAD PUSH2 0x100 SWAP2 SWAP1 PUSH2 0x684 JUMP JUMPDEST PUSH1 0x40 MLOAD DUP1 SWAP2 SUB SWAP1 RETURN JUMPDEST PUSH2 0x123 PUSH1 0x4 DUP1 CALLDATASIZE SUB DUP2 ADD SWAP1 PUSH2 0x11E SWAP2 SWAP1 PUSH2 0x887 JUMP JUMPDEST PUSH2 0x35C JUMP JUMPDEST PUSH1 0x40 MLOAD PUSH2 0x130 SWAP2 SWAP1 PUSH2 0x8FE JUMP JUMPDEST PUSH1 0x40 MLOAD DUP1 SWAP2 SUB SWAP1 RETURN JUMPDEST PUSH2 0x141 PUSH2 0x388 JUMP JUMPDEST PUSH1 0x40 MLOAD PUSH2 0x14E SWAP2 SWAP1 PUSH2 0x928 JUMP JUMPDEST PUSH1 0x40 MLOAD DUP1 SWAP2 SUB SWAP1 RETURN JUMPDEST PUSH2 0x171 PUSH1 0x4 DUP1 CALLDATASIZE SUB DUP2 ADD SWAP1 PUSH2 0x16C SWAP2 SWAP1 PUSH2 0x616 JUMP JUMPDEST PUSH2 0x3D6 JUMP JUMPDEST PUSH1 0x40 MLOAD PUSH2 0x17E SWAP2 SWAP1 PUSH2 0x928 JUMP JUMPDEST PUSH1 0x40 MLOAD DUP1 SWAP2 SUB SWAP1 RETURN JUMPDEST PUSH2 0x1A1 PUSH1 0x4 DUP1 CALLDATASIZE SUB DUP2 ADD SWAP1 PUSH2 0x19C SWAP2 SWAP1 PUSH2 0x616 JUMP JUMPDEST PUSH2 0x4F6 JUMP JUMPDEST PUSH1 0x40 MLOAD PUSH2 0x1AE SWAP2 SWAP1 PUSH2 0x8FE JUMP JUMPDEST PUSH1 0x40 MLOAD DUP1 SWAP2 SUB SWAP1 RETURN JUMPDEST PUSH2 0x1BF PUSH2 0x501 JUMP JUMPDEST PUSH1 0x40 MLOAD PUSH2 0x1CC SWAP2 SWAP1 PUSH2 0x684 JUMP JUMPDEST PUSH1 0x40 MLOAD DUP1 SWAP2 SUB SWAP1 RETURN JUMPDEST PUSH1 0x0 DUP1 PUSH2 0x1E1 DUP4 PUSH2 0x3D6 JUMP JUMPDEST SWAP1 POP CALLER SWAP2 POP POP SWAP2 SWAP1 POP JUMP JUMPDEST PUSH1 0x3 PUSH1 0x0 SWAP1 SLOAD SWAP1 PUSH2 0x100 EXP SWAP1 DIV PUSH1 0xFF AND ISZERO PUSH2 0x23C JUMPI PUSH1 0x40 MLOAD PUSH32 0x8C379A000000000000000000000000000000000000000000000000000000000 DUP2 MSTORE PUSH1 0x4 ADD PUSH2 0x233 SWAP1 PUSH2 0x9A0 JUMP JUMPDEST PUSH1 0x40 MLOAD DUP1 SWAP2 SUB SWAP1 REVERT JUMPDEST PUSH1 0x0 DUP1 SLOAD SWAP1 PUSH2 0x100 EXP SWAP1 DIV PUSH20 0xFFFFFFFFFFFFFFFFFFFFFFFFFFFFFFFFFFFFFFFF AND PUSH20 0xFFFFFFFFFFFFFFFFFFFFFFFFFFFFFFFFFFFFFFFF AND CALLER PUSH20 0xFFFFFFFFFFFFFFFFFFFFFFFFFFFFFFFFFFFFFFFF AND EQ PUSH2 0x2CA JUMPI PUSH1 0x40 MLOAD PUSH32 0x8C379A000000000000000000000000000000000000000000000000000000000 DUP2 MSTORE PUSH1 0x4 ADD PUSH2 0x2C1 SWAP1 PUSH2 0xA32 JUMP JUMPDEST PUSH1 0x40 MLOAD DUP1 SWAP2 SUB SWAP1 REVERT JUMPDEST PUSH1 0x1 PUSH1 0x3 PUSH1 0x1 PUSH2 0x100 EXP DUP2 SLOAD DUP2 PUSH1 0xFF MUL NOT AND SWAP1 DUP4 ISZERO ISZERO MUL OR SWAP1 SSTORE POP DUP1 PUSH1 0x2 DUP2 SWAP1 SSTORE POP PUSH1 0x1 NUMBER PUSH2 0x2F9 SWAP2 SWAP1 PUSH2 0xA81 JUMP JUMPDEST PUSH1 0x4 DUP2 SWAP1 SSTORE POP PUSH1 0x1 PUSH1 0x3 PUSH1 0x0 PUSH2 0x100 EXP DUP2 SLOAD DUP2 PUSH1 0xFF MUL NOT AND SWAP1 DUP4 ISZERO ISZERO MUL OR SWAP1 SSTORE POP POP JUMP JUMPDEST PUSH1 0x1 DUP2 DUP2 SLOAD DUP2 LT PUSH2 0x32D JUMPI PUSH1 0x0 DUP1 REVERT JUMPDEST SWAP1 PUSH1 0x0 MSTORE PUSH1 0x20 PUSH1 0x0 KECCAK256 ADD PUSH1 0x0 SWAP2 POP SLOAD SWAP1 PUSH2 0x100 EXP SWAP1 DIV PUSH20 0xFFFFFFFFFFFFFFFFFFFFFFFFFFFFFFFFFFFFFFFF AND DUP2 JUMP JUMPDEST PUSH1 0x0 DUP3 PUSH1 0x1 SWAP1 DUP1 MLOAD SWAP1 PUSH1 0x20 ADD SWAP1 PUSH2 0x374 SWAP3 SWAP2 SWAP1 PUSH2 0x525 JUMP JUMPDEST POP PUSH2 0x37E DUP3 PUSH2 0x1EC JUMP JUMPDEST PUSH1 0x1 SWAP1 POP SWAP3 SWAP2 POP POP JUMP JUMPDEST PUSH1 0x0 DUP1 DIFFICULTY TIMESTAMP PUSH1 0x1 PUSH1 0x40 MLOAD PUSH1 0x20 ADD PUSH2 0x3A1 SWAP4 SWAP3 SWAP2 SWAP1 PUSH2 0xC16 JUMP JUMPDEST PUSH1 0x40 MLOAD PUSH1 0x20 DUP2 DUP4 SUB SUB DUP2 MSTORE SWAP1 PUSH1 0x40 MSTORE DUP1 MLOAD SWAP1 PUSH1 0x20 ADD KECCAK256 PUSH1 0x0 SHR SWAP1 POP PUSH1 0x0 PUSH1 0x5 SLOAD DUP3 PUSH2 0x3CC SWAP2 SWAP1 PUSH2 0xC7E JUMP JUMPDEST SWAP1 POP DUP1 SWAP3 POP POP POP SWAP1 JUMP JUMPDEST PUSH1 0x0 PUSH1 0x3 PUSH1 0x0 SWAP1 SLOAD SWAP1 PUSH2 0x100 EXP SWAP1 DIV PUSH1 0xFF AND PUSH2 0x427 JUMPI PUSH1 0x40 MLOAD PUSH32 0x8C379A000000000000000000000000000000000000000000000000000000000 DUP2 MSTORE PUSH1 0x4 ADD PUSH2 0x41E SWAP1 PUSH2 0xCFB JUMP JUMPDEST PUSH1 0x40 MLOAD DUP1 SWAP2 SUB SWAP1 REVERT JUMPDEST PUSH1 0x3 PUSH1 0x1 SWAP1 SLOAD SWAP1 PUSH2 0x100 EXP SWAP1 DIV PUSH1 0xFF AND PUSH2 0x476 JUMPI PUSH1 0x40 MLOAD PUSH32 0x8C379A000000000000000000000000000000000000000000000000000000000 DUP2 MSTORE PUSH1 0x4 ADD PUSH2 0x46D SWAP1 PUSH2 0xD67 JUMP JUMPDEST PUSH1 0x40 MLOAD DUP1 SWAP2 SUB SWAP1 REVERT JUMPDEST NUMBER PUSH1 0x4 SLOAD LT PUSH2 0x484 JUMPI PUSH1 0x0 DUP1 REVERT JUMPDEST PUSH1 0x2 SLOAD CALLER DUP4 PUSH1 0x40 MLOAD PUSH1 0x20 ADD PUSH2 0x49A SWAP3 SWAP2 SWAP1 PUSH2 0xD96 JUMP JUMPDEST PUSH1 0x40 MLOAD PUSH1 0x20 DUP2 DUP4 SUB SUB DUP2 MSTORE SWAP1 PUSH1 0x40 MSTORE DUP1 MLOAD SWAP1 PUSH1 0x20 ADD KECCAK256 EQ PUSH2 0x4BA JUMPI PUSH1 0x0 DUP1 REVERT JUMPDEST PUSH1 0x0 DUP3 PUSH1 0x4 SLOAD BLOCKHASH PUSH1 0x40 MLOAD PUSH1 0x20 ADD PUSH2 0x4D2 SWAP3 SWAP2 SWAP1 PUSH2 0xDBF JUMP JUMPDEST PUSH1 0x40 MLOAD PUSH1 0x20 DUP2 DUP4 SUB SUB DUP2 MSTORE SWAP1 PUSH1 0x40 MSTORE DUP1 MLOAD SWAP1 PUSH1 0x20 ADD KECCAK256 PUSH1 0x0 SHR SWAP1 POP DUP1 SWAP2 POP POP SWAP2 SWAP1 POP JUMP JUMPDEST PUSH1 0x0 PUSH1 0x1 SWAP1 POP SWAP2 SWAP1 POP JUMP JUMPDEST PUSH1 0x0 DUP1 SLOAD SWAP1 PUSH2 0x100 EXP SWAP1 DIV PUSH20 0xFFFFFFFFFFFFFFFFFFFFFFFFFFFFFFFFFFFFFFFF AND DUP2 JUMP JUMPDEST DUP3 DUP1 SLOAD DUP3 DUP3 SSTORE SWAP1 PUSH1 0x0 MSTORE PUSH1 0x20 PUSH1 0x0 KECCAK256 SWAP1 DUP2 ADD SWAP3 DUP3 ISZERO PUSH2 0x59E JUMPI SWAP2 PUSH1 0x20 MUL DUP3 ADD JUMPDEST DUP3 DUP2 GT ISZERO PUSH2 0x59D JUMPI DUP3 MLOAD DUP3 PUSH1 0x0 PUSH2 0x100 EXP DUP2 SLOAD DUP2 PUSH20 0xFFFFFFFFFFFFFFFFFFFFFFFFFFFFFFFFFFFFFFFF MUL NOT AND SWAP1 DUP4 PUSH20 0xFFFFFFFFFFFFFFFFFFFFFFFFFFFFFFFFFFFFFFFF AND MUL OR SWAP1 SSTORE POP SWAP2 PUSH1 0x20 ADD SWAP2 SWAP1 PUSH1 0x1 ADD SWAP1 PUSH2 0x545 JUMP JUMPDEST JUMPDEST POP SWAP1 POP PUSH2 0x5AB SWAP2 SWAP1 PUSH2 0x5AF JUMP JUMPDEST POP SWAP1 JUMP JUMPDEST JUMPDEST DUP1 DUP3 GT ISZERO PUSH2 0x5C8 JUMPI PUSH1 0x0 DUP2 PUSH1 0x0 SWAP1 SSTORE POP PUSH1 0x1 ADD PUSH2 0x5B0 JUMP JUMPDEST POP SWAP1 JUMP JUMPDEST PUSH1 0x0 PUSH1 0x40 MLOAD SWAP1 POP SWAP1 JUMP JUMPDEST PUSH1 0x0 DUP1 REVERT JUMPDEST PUSH1 0x0 DUP1 REVERT JUMPDEST PUSH1 0x0 DUP2 SWAP1 POP SWAP2 SWAP1 POP JUMP JUMPDEST PUSH2 0x5F3 DUP2 PUSH2 0x5E0 JUMP JUMPDEST DUP2 EQ PUSH2 0x5FE JUMPI PUSH1 0x0 DUP1 REVERT JUMPDEST POP JUMP JUMPDEST PUSH1 0x0 DUP2 CALLDATALOAD SWAP1 POP PUSH2 0x610 DUP2 PUSH2 0x5EA JUMP JUMPDEST SWAP3 SWAP2 POP POP JUMP JUMPDEST PUSH1 0x0 PUSH1 0x20 DUP3 DUP5 SUB SLT ISZERO PUSH2 0x62C JUMPI PUSH2 0x62B PUSH2 0x5D6 JUMP JUMPDEST JUMPDEST PUSH1 0x0 PUSH2 0x63A DUP5 DUP3 DUP6 ADD PUSH2 0x601 JUMP JUMPDEST SWAP2 POP POP SWAP3 SWAP2 POP POP JUMP JUMPDEST PUSH1 0x0 PUSH20 0xFFFFFFFFFFFFFFFFFFFFFFFFFFFFFFFFFFFFFFFF DUP3 AND SWAP1 POP SWAP2 SWAP1 POP JUMP JUMPDEST PUSH1 0x0 PUSH2 0x66E DUP3 PUSH2 0x643 JUMP JUMPDEST SWAP1 POP SWAP2 SWAP1 POP JUMP JUMPDEST PUSH2 0x67E DUP2 PUSH2 0x663 JUMP JUMPDEST DUP3 MSTORE POP POP JUMP JUMPDEST PUSH1 0x0 PUSH1 0x20 DUP3 ADD SWAP1 POP PUSH2 0x699 PUSH1 0x0 DUP4 ADD DUP5 PUSH2 0x675 JUMP JUMPDEST SWAP3 SWAP2 POP POP JUMP JUMPDEST PUSH1 0x0 DUP2 SWAP1 POP SWAP2 SWAP1 POP JUMP JUMPDEST PUSH2 0x6B2 DUP2 PUSH2 0x69F JUMP JUMPDEST DUP2 EQ PUSH2 0x6BD JUMPI PUSH1 0x0 DUP1 REVERT JUMPDEST POP JUMP JUMPDEST PUSH1 0x0 DUP2 CALLDATALOAD SWAP1 POP PUSH2 0x6CF DUP2 PUSH2 0x6A9 JUMP JUMPDEST SWAP3 SWAP2 POP POP JUMP JUMPDEST PUSH1 0x0 PUSH1 0x20 DUP3 DUP5 SUB SLT ISZERO PUSH2 0x6EB JUMPI PUSH2 0x6EA PUSH2 0x5D6 JUMP JUMPDEST JUMPDEST PUSH1 0x0 PUSH2 0x6F9 DUP5 DUP3 DUP6 ADD PUSH2 0x6C0 JUMP JUMPDEST SWAP2 POP POP SWAP3 SWAP2 POP POP JUMP JUMPDEST PUSH1 0x0 DUP1 REVERT JUMPDEST PUSH1 0x0 PUSH1 0x1F NOT PUSH1 0x1F DUP4 ADD AND SWAP1 POP SWAP2 SWAP1 POP JUMP JUMPDEST PUSH32 0x4E487B7100000000000000000000000000000000000000000000000000000000 PUSH1 0x0 MSTORE PUSH1 0x41 PUSH1 0x4 MSTORE PUSH1 0x24 PUSH1 0x0 REVERT JUMPDEST PUSH2 0x750 DUP3 PUSH2 0x707 JUMP JUMPDEST DUP2 ADD DUP2 DUP2 LT PUSH8 0xFFFFFFFFFFFFFFFF DUP3 GT OR ISZERO PUSH2 0x76F JUMPI PUSH2 0x76E PUSH2 0x718 JUMP JUMPDEST JUMPDEST DUP1 PUSH1 0x40 MSTORE POP POP POP JUMP JUMPDEST PUSH1 0x0 PUSH2 0x782 PUSH2 0x5CC JUMP JUMPDEST SWAP1 POP PUSH2 0x78E DUP3 DUP3 PUSH2 0x747 JUMP JUMPDEST SWAP2 SWAP1 POP JUMP JUMPDEST PUSH1 0x0 PUSH8 0xFFFFFFFFFFFFFFFF DUP3 GT ISZERO PUSH2 0x7AE JUMPI PUSH2 0x7AD PUSH2 0x718 JUMP JUMPDEST JUMPDEST PUSH1 0x20 DUP3 MUL SWAP1 POP PUSH1 0x20 DUP2 ADD SWAP1 POP SWAP2 SWAP1 POP JUMP JUMPDEST PUSH1 0x0 DUP1 REVERT JUMPDEST PUSH2 0x7CD DUP2 PUSH2 0x663 JUMP JUMPDEST DUP2 EQ PUSH2 0x7D8 JUMPI PUSH1 0x0 DUP1 REVERT JUMPDEST POP JUMP JUMPDEST PUSH1 0x0 DUP2 CALLDATALOAD SWAP1 POP PUSH2 0x7EA DUP2 PUSH2 0x7C4 JUMP JUMPDEST SWAP3 SWAP2 POP POP JUMP JUMPDEST PUSH1 0x0 PUSH2 0x803 PUSH2 0x7FE DUP5 PUSH2 0x793 JUMP JUMPDEST PUSH2 0x778 JUMP JUMPDEST SWAP1 POP DUP1 DUP4 DUP3 MSTORE PUSH1 0x20 DUP3 ADD SWAP1 POP PUSH1 0x20 DUP5 MUL DUP4 ADD DUP6 DUP2 GT ISZERO PUSH2 0x826 JUMPI PUSH2 0x825 PUSH2 0x7BF JUMP JUMPDEST JUMPDEST DUP4 JUMPDEST DUP2 DUP2 LT ISZERO PUSH2 0x84F JUMPI DUP1 PUSH2 0x83B DUP9 DUP3 PUSH2 0x7DB JUMP JUMPDEST DUP5 MSTORE PUSH1 0x20 DUP5 ADD SWAP4 POP POP PUSH1 0x20 DUP2 ADD SWAP1 POP PUSH2 0x828 JUMP JUMPDEST POP POP POP SWAP4 SWAP3 POP POP POP JUMP JUMPDEST PUSH1 0x0 DUP3 PUSH1 0x1F DUP4 ADD SLT PUSH2 0x86E JUMPI PUSH2 0x86D PUSH2 0x702 JUMP JUMPDEST JUMPDEST DUP2 CALLDATALOAD PUSH2 0x87E DUP5 DUP3 PUSH1 0x20 DUP7 ADD PUSH2 0x7F0 JUMP JUMPDEST SWAP2 POP POP SWAP3 SWAP2 POP POP JUMP JUMPDEST PUSH1 0x0 DUP1 PUSH1 0x40 DUP4 DUP6 SUB SLT ISZERO PUSH2 0x89E JUMPI PUSH2 0x89D PUSH2 0x5D6 JUMP JUMPDEST JUMPDEST PUSH1 0x0 DUP4 ADD CALLDATALOAD PUSH8 0xFFFFFFFFFFFFFFFF DUP2 GT ISZERO PUSH2 0x8BC JUMPI PUSH2 0x8BB PUSH2 0x5DB JUMP JUMPDEST JUMPDEST PUSH2 0x8C8 DUP6 DUP3 DUP7 ADD PUSH2 0x859 JUMP JUMPDEST SWAP3 POP POP PUSH1 0x20 PUSH2 0x8D9 DUP6 DUP3 DUP7 ADD PUSH2 0x601 JUMP JUMPDEST SWAP2 POP POP SWAP3 POP SWAP3 SWAP1 POP JUMP JUMPDEST PUSH1 0x0 DUP2 ISZERO ISZERO SWAP1 POP SWAP2 SWAP1 POP JUMP JUMPDEST PUSH2 0x8F8 DUP2 PUSH2 0x8E3 JUMP JUMPDEST DUP3 MSTORE POP POP JUMP JUMPDEST PUSH1 0x0 PUSH1 0x20 DUP3 ADD SWAP1 POP PUSH2 0x913 PUSH1 0x0 DUP4 ADD DUP5 PUSH2 0x8EF JUMP JUMPDEST SWAP3 SWAP2 POP POP JUMP JUMPDEST PUSH2 0x922 DUP2 PUSH2 0x69F JUMP JUMPDEST DUP3 MSTORE POP POP JUMP JUMPDEST PUSH1 0x0 PUSH1 0x20 DUP3 ADD SWAP1 POP PUSH2 0x93D PUSH1 0x0 DUP4 ADD DUP5 PUSH2 0x919 JUMP JUMPDEST SWAP3 SWAP2 POP POP JUMP JUMPDEST PUSH1 0x0 DUP3 DUP3 MSTORE PUSH1 0x20 DUP3 ADD SWAP1 POP SWAP3 SWAP2 POP POP JUMP JUMPDEST PUSH32 0x7365656420697320616C72656164792073657400000000000000000000000000 PUSH1 0x0 DUP3 ADD MSTORE POP JUMP JUMPDEST PUSH1 0x0 PUSH2 0x98A PUSH1 0x13 DUP4 PUSH2 0x943 JUMP JUMPDEST SWAP2 POP PUSH2 0x995 DUP3 PUSH2 0x954 JUMP JUMPDEST PUSH1 0x20 DUP3 ADD SWAP1 POP SWAP2 SWAP1 POP JUMP JUMPDEST PUSH1 0x0 PUSH1 0x20 DUP3 ADD SWAP1 POP DUP2 DUP2 SUB PUSH1 0x0 DUP4 ADD MSTORE PUSH2 0x9B9 DUP2 PUSH2 0x97D JUMP JUMPDEST SWAP1 POP SWAP2 SWAP1 POP JUMP JUMPDEST PUSH32 0x6F6E6C79206D616E61676572706F6F6C2063616E2063616C6C20746869732066 PUSH1 0x0 DUP3 ADD MSTORE PUSH32 0x756E6374696F6E00000000000000000000000000000000000000000000000000 PUSH1 0x20 DUP3 ADD MSTORE POP JUMP JUMPDEST PUSH1 0x0 PUSH2 0xA1C PUSH1 0x27 DUP4 PUSH2 0x943 JUMP JUMPDEST SWAP2 POP PUSH2 0xA27 DUP3 PUSH2 0x9C0 JUMP JUMPDEST PUSH1 0x40 DUP3 ADD SWAP1 POP SWAP2 SWAP1 POP JUMP JUMPDEST PUSH1 0x0 PUSH1 0x20 DUP3 ADD SWAP1 POP DUP2 DUP2 SUB PUSH1 0x0 DUP4 ADD MSTORE PUSH2 0xA4B DUP2 PUSH2 0xA0F JUMP JUMPDEST SWAP1 POP SWAP2 SWAP1 POP JUMP JUMPDEST PUSH32 0x4E487B7100000000000000000000000000000000000000000000000000000000 PUSH1 0x0 MSTORE PUSH1 0x11 PUSH1 0x4 MSTORE PUSH1 0x24 PUSH1 0x0 REVERT JUMPDEST PUSH1 0x0 PUSH2 0xA8C DUP3 PUSH2 0x69F JUMP JUMPDEST SWAP2 POP PUSH2 0xA97 DUP4 PUSH2 0x69F JUMP JUMPDEST SWAP3 POP DUP3 PUSH32 0xFFFFFFFFFFFFFFFFFFFFFFFFFFFFFFFFFFFFFFFFFFFFFFFFFFFFFFFFFFFFFFFF SUB DUP3 GT ISZERO PUSH2 0xACC JUMPI PUSH2 0xACB PUSH2 0xA52 JUMP JUMPDEST JUMPDEST DUP3 DUP3 ADD SWAP1 POP SWAP3 SWAP2 POP POP JUMP JUMPDEST PUSH1 0x0 DUP2 SWAP1 POP SWAP2 SWAP1 POP JUMP JUMPDEST PUSH2 0xAF2 PUSH2 0xAED DUP3 PUSH2 0x69F JUMP JUMPDEST PUSH2 0xAD7 JUMP JUMPDEST DUP3 MSTORE POP POP JUMP JUMPDEST PUSH1 0x0 DUP2 SLOAD SWAP1 POP SWAP2 SWAP1 POP JUMP JUMPDEST PUSH1 0x0 DUP2 SWAP1 POP SWAP3 SWAP2 POP POP JUMP JUMPDEST PUSH1 0x0 DUP2 SWAP1 POP DUP2 PUSH1 0x0 MSTORE PUSH1 0x20 PUSH1 0x0 KECCAK256 SWAP1 POP SWAP2 SWAP1 POP JUMP JUMPDEST PUSH2 0xB2C DUP2 PUSH2 0x663 JUMP JUMPDEST DUP3 MSTORE POP POP JUMP JUMPDEST PUSH1 0x0 PUSH2 0xB3E DUP4 DUP4 PUSH2 0xB23 JUMP JUMPDEST PUSH1 0x20 DUP4 ADD SWAP1 POP SWAP3 SWAP2 POP POP JUMP JUMPDEST PUSH1 0x0 DUP2 PUSH1 0x0 SHR SWAP1 POP SWAP2 SWAP1 POP JUMP JUMPDEST PUSH1 0x0 PUSH20 0xFFFFFFFFFFFFFFFFFFFFFFFFFFFFFFFFFFFFFFFF DUP3 AND SWAP1 POP SWAP2 SWAP1 POP JUMP JUMPDEST PUSH1 0x0 PUSH2 0xB8A PUSH2 0xB85 DUP4 PUSH2 0xB4A JUMP JUMPDEST PUSH2 0xB57 JUMP JUMPDEST SWAP1 POP SWAP2 SWAP1 POP JUMP JUMPDEST PUSH1 0x0 PUSH2 0xB9D DUP3 SLOAD PUSH2 0xB77 JUMP JUMPDEST SWAP1 POP SWAP2 SWAP1 POP JUMP JUMPDEST PUSH1 0x0 PUSH1 0x1 DUP3 ADD SWAP1 POP SWAP2 SWAP1 POP JUMP JUMPDEST PUSH1 0x0 PUSH2 0xBBC DUP3 PUSH2 0xAF8 JUMP JUMPDEST PUSH2 0xBC6 DUP2 DUP6 PUSH2 0xB03 JUMP JUMPDEST SWAP4 POP PUSH2 0xBD1 DUP4 PUSH2 0xB0E JUMP JUMPDEST DUP1 PUSH1 0x0 JUMPDEST DUP4 DUP2 LT ISZERO PUSH2 0xC09 JUMPI PUSH2 0xBE6 DUP3 PUSH2 0xB91 JUMP JUMPDEST PUSH2 0xBF0 DUP9 DUP3 PUSH2 0xB32 JUMP JUMPDEST SWAP8 POP PUSH2 0xBFB DUP4 PUSH2 0xBA4 JUMP JUMPDEST SWAP3 POP POP PUSH1 0x1 DUP2 ADD SWAP1 POP PUSH2 0xBD5 JUMP JUMPDEST POP DUP6 SWAP4 POP POP POP POP SWAP3 SWAP2 POP POP JUMP JUMPDEST PUSH1 0x0 PUSH2 0xC22 DUP3 DUP7 PUSH2 0xAE1 JUMP JUMPDEST PUSH1 0x20 DUP3 ADD SWAP2 POP PUSH2 0xC32 DUP3 DUP6 PUSH2 0xAE1 JUMP JUMPDEST PUSH1 0x20 DUP3 ADD SWAP2 POP PUSH2 0xC42 DUP3 DUP5 PUSH2 0xBB1 JUMP JUMPDEST SWAP2 POP DUP2 SWAP1 POP SWAP5 SWAP4 POP POP POP POP JUMP JUMPDEST PUSH32 0x4E487B7100000000000000000000000000000000000000000000000000000000 PUSH1 0x0 MSTORE PUSH1 0x12 PUSH1 0x4 MSTORE PUSH1 0x24 PUSH1 0x0 REVERT JUMPDEST PUSH1 0x0 PUSH2 0xC89 DUP3 PUSH2 0x69F JUMP JUMPDEST SWAP2 POP PUSH2 0xC94 DUP4 PUSH2 0x69F JUMP JUMPDEST SWAP3 POP DUP3 PUSH2 0xCA4 JUMPI PUSH2 0xCA3 PUSH2 0xC4F JUMP JUMPDEST JUMPDEST DUP3 DUP3 MOD SWAP1 POP SWAP3 SWAP2 POP POP JUMP JUMPDEST PUSH32 0x73656564206973206E6F74207965742073657400000000000000000000000000 PUSH1 0x0 DUP3 ADD MSTORE POP JUMP JUMPDEST PUSH1 0x0 PUSH2 0xCE5 PUSH1 0x13 DUP4 PUSH2 0x943 JUMP JUMPDEST SWAP2 POP PUSH2 0xCF0 DUP3 PUSH2 0xCAF JUMP JUMPDEST PUSH1 0x20 DUP3 ADD SWAP1 POP SWAP2 SWAP1 POP JUMP JUMPDEST PUSH1 0x0 PUSH1 0x20 DUP3 ADD SWAP1 POP DUP2 DUP2 SUB PUSH1 0x0 DUP4 ADD MSTORE PUSH2 0xD14 DUP2 PUSH2 0xCD8 JUMP JUMPDEST SWAP1 POP SWAP2 SWAP1 POP JUMP JUMPDEST PUSH32 0x646F6E6174696F6E7320617265206E6F7420636C6F7365642079657400000000 PUSH1 0x0 DUP3 ADD MSTORE POP JUMP JUMPDEST PUSH1 0x0 PUSH2 0xD51 PUSH1 0x1C DUP4 PUSH2 0x943 JUMP JUMPDEST SWAP2 POP PUSH2 0xD5C DUP3 PUSH2 0xD1B JUMP JUMPDEST PUSH1 0x20 DUP3 ADD SWAP1 POP SWAP2 SWAP1 POP JUMP JUMPDEST PUSH1 0x0 PUSH1 0x20 DUP3 ADD SWAP1 POP DUP2 DUP2 SUB PUSH1 0x0 DUP4 ADD MSTORE PUSH2 0xD80 DUP2 PUSH2 0xD44 JUMP JUMPDEST SWAP1 POP SWAP2 SWAP1 POP JUMP JUMPDEST PUSH2 0xD90 DUP2 PUSH2 0x5E0 JUMP JUMPDEST DUP3 MSTORE POP POP JUMP JUMPDEST PUSH1 0x0 PUSH1 0x40 DUP3 ADD SWAP1 POP PUSH2 0xDAB PUSH1 0x0 DUP4 ADD DUP6 PUSH2 0x675 JUMP JUMPDEST PUSH2 0xDB8 PUSH1 0x20 DUP4 ADD DUP5 PUSH2 0xD87 JUMP JUMPDEST SWAP4 SWAP3 POP POP POP JUMP JUMPDEST PUSH1 0x0 PUSH1 0x40 DUP3 ADD SWAP1 POP PUSH2 0xDD4 PUSH1 0x0 DUP4 ADD DUP6 PUSH2 0xD87 JUMP JUMPDEST PUSH2 0xDE1 PUSH1 0x20 DUP4 ADD DUP5 PUSH2 0xD87 JUMP JUMPDEST SWAP4 SWAP3 POP POP POP JUMP INVALID LOG2 PUSH5 0x6970667358 0x22 SLT KECCAK256 PUSH7 0xE93086D341432A EXP MSTORE8 PUSH14 0xCD0006EFA3B4335EBC2EB2F6D705 SWAP2 CHAINID 0xD6 0xF7 PUSH26 0xEEDC64736F6C634300080D003300000000000000000000000000 "
				},
				"gasEstimates": {
					"creation": {
						"codeDepositCost": "722800",
						"executionCost": "95717",
						"totalCost": "818517"
					},
					"external": {
						"donors(uint256)": "5001",
						"enterLottery(address[],bytes32)": "infinite",
						"getWinner(bytes32)": "infinite",
						"managerpool()": "2577",
						"random()": "infinite",
						"reveal(bytes32)": "infinite",
						"setSealedSeed(bytes32)": "infinite",
						"test(bytes32)": "652"
					}
				},
				"methodIdentifiers": {
					"donors(uint256)": "4abfa163",
					"enterLottery(address[],bytes32)": "5c6b143c",
					"getWinner(bytes32)": "1e5f9149",
					"managerpool()": "dedfe223",
					"random()": "5ec01e4d",
					"reveal(bytes32)": "701fd0f1",
					"setSealedSeed(bytes32)": "41114538",
					"test(bytes32)": "99372321"
				}
			},
			"storageLayout": {
				"storage": [
					{
						"astId": 26,
						"contract": "contracts/Lottery.sol:Lottery",
						"label": "managerpool",
						"offset": 0,
						"slot": "0",
						"type": "t_address"
					},
					{
						"astId": 29,
						"contract": "contracts/Lottery.sol:Lottery",
						"label": "donors",
						"offset": 0,
						"slot": "1",
						"type": "t_array(t_address)dyn_storage"
					},
					{
						"astId": 31,
						"contract": "contracts/Lottery.sol:Lottery",
						"label": "sealedSeed",
						"offset": 0,
						"slot": "2",
						"type": "t_bytes32"
					},
					{
						"astId": 33,
						"contract": "contracts/Lottery.sol:Lottery",
						"label": "seedSet",
						"offset": 0,
						"slot": "3",
						"type": "t_bool"
					},
					{
						"astId": 35,
						"contract": "contracts/Lottery.sol:Lottery",
						"label": "donationsClosed",
						"offset": 1,
						"slot": "3",
						"type": "t_bool"
					},
					{
						"astId": 37,
						"contract": "contracts/Lottery.sol:Lottery",
						"label": "storedBlockNumber",
						"offset": 0,
						"slot": "4",
						"type": "t_uint256"
					},
					{
						"astId": 39,
						"contract": "contracts/Lottery.sol:Lottery",
						"label": "arraytestlength",
						"offset": 0,
						"slot": "5",
						"type": "t_uint256"
					}
				],
				"types": {
					"t_address": {
						"encoding": "inplace",
						"label": "address",
						"numberOfBytes": "20"
					},
					"t_array(t_address)dyn_storage": {
						"base": "t_address",
						"encoding": "dynamic_array",
						"label": "address[]",
						"numberOfBytes": "32"
					},
					"t_bool": {
						"encoding": "inplace",
						"label": "bool",
						"numberOfBytes": "1"
					},
					"t_bytes32": {
						"encoding": "inplace",
						"label": "bytes32",
						"numberOfBytes": "32"
					},
					"t_uint256": {
						"encoding": "inplace",
						"label": "uint256",
						"numberOfBytes": "32"
					}
				}
			},
			"userdoc": {
				"kind": "user",
				"methods": {},
				"version": 1
			}
		}
	}
}