{
	"contracts/donationspool.sol": {
		"Spendenpool": {
			"abi": [
				{
					"inputs": [],
					"stateMutability": "nonpayable",
					"type": "constructor"
				},
				{
					"inputs": [],
					"name": "charyteam",
					"outputs": [
						{
							"internalType": "address",
							"name": "",
							"type": "address"
						}
					],
					"stateMutability": "view",
					"type": "function"
				},
				{
					"inputs": [],
					"name": "closeDonations",
					"outputs": [],
					"stateMutability": "nonpayable",
					"type": "function"
				},
				{
					"inputs": [],
					"name": "doLottery",
					"outputs": [
						{
							"internalType": "address",
							"name": "",
							"type": "address"
						}
					],
					"stateMutability": "payable",
					"type": "function"
				},
				{
					"inputs": [],
					"name": "donate",
					"outputs": [],
					"stateMutability": "payable",
					"type": "function"
				},
				{
					"inputs": [
						{
							"internalType": "uint256",
							"name": "",
							"type": "uint256"
						}
					],
					"name": "donators",
					"outputs": [
						{
							"internalType": "address",
							"name": "",
							"type": "address"
						}
					],
					"stateMutability": "view",
					"type": "function"
				},
				{
					"inputs": [],
					"name": "getBalance",
					"outputs": [
						{
							"internalType": "uint256",
							"name": "",
							"type": "uint256"
						}
					],
					"stateMutability": "view",
					"type": "function"
				},
				{
					"inputs": [],
					"name": "getCTBalance",
					"outputs": [
						{
							"internalType": "uint256",
							"name": "",
							"type": "uint256"
						}
					],
					"stateMutability": "view",
					"type": "function"
				},
				{
					"inputs": [
						{
							"internalType": "address",
							"name": "_lotteryContract",
							"type": "address"
						}
					],
					"name": "initiateLottery",
					"outputs": [],
					"stateMutability": "nonpayable",
					"type": "function"
				},
				{
					"inputs": [
						{
							"internalType": "address",
							"name": "_votingAddress",
							"type": "address"
						}
					],
					"name": "initiateVoting",
					"outputs": [],
					"stateMutability": "nonpayable",
					"type": "function"
				},
				{
					"inputs": [],
					"name": "lotterycontract",
					"outputs": [
						{
							"internalType": "address",
							"name": "",
							"type": "address"
						}
					],
					"stateMutability": "view",
					"type": "function"
				},
				{
					"inputs": [],
					"name": "lotterywinner",
					"outputs": [
						{
							"internalType": "address payable",
							"name": "",
							"type": "address"
						}
					],
					"stateMutability": "view",
					"type": "function"
				},
				{
					"inputs": [
						{
							"internalType": "uint256",
							"name": "",
							"type": "uint256"
						}
					],
					"name": "projects",
					"outputs": [
						{
							"internalType": "address payable",
							"name": "",
							"type": "address"
						}
					],
					"stateMutability": "view",
					"type": "function"
				},
				{
					"inputs": [],
					"name": "sendCT",
					"outputs": [],
					"stateMutability": "payable",
					"type": "function"
				},
				{
					"inputs": [],
					"name": "sendDonations",
					"outputs": [],
					"stateMutability": "payable",
					"type": "function"
				},
				{
					"inputs": [],
					"name": "sendWinn",
					"outputs": [],
					"stateMutability": "payable",
					"type": "function"
				},
				{
					"inputs": [],
					"name": "startTime",
					"outputs": [
						{
							"internalType": "uint256",
							"name": "",
							"type": "uint256"
						}
					],
					"stateMutability": "view",
					"type": "function"
				},
				{
					"inputs": [],
					"name": "updateVoting",
					"outputs": [
						{
							"internalType": "address[]",
							"name": "",
							"type": "address[]"
						}
					],
					"stateMutability": "nonpayable",
					"type": "function"
				},
				{
					"inputs": [
						{
							"internalType": "uint256",
							"name": "",
							"type": "uint256"
						}
					],
					"name": "voters",
					"outputs": [
						{
							"internalType": "address",
							"name": "",
							"type": "address"
						}
					],
					"stateMutability": "view",
					"type": "function"
				},
				{
					"inputs": [],
					"name": "votingcontract",
					"outputs": [
						{
							"internalType": "address",
							"name": "",
							"type": "address"
						}
					],
					"stateMutability": "view",
					"type": "function"
				},
				{
					"inputs": [],
					"name": "votingresult",
					"outputs": [
						{
							"internalType": "uint256",
							"name": "",
							"type": "uint256"
						}
					],
					"stateMutability": "nonpayable",
					"type": "function"
				}
			],
			"devdoc": {
				"kind": "dev",
				"methods": {},
				"version": 1
			},
			"evm": {
				"assembly": "    /* \"contracts/donationspool.sol\":470:4838  contract Spendenpool{... */\n  mstore(0x40, 0x80)\n    /* \"contracts/donationspool.sol\":925:929  true */\n  0x01\n    /* \"contracts/donationspool.sol\":904:929  bool donationsopen = true */\n  0x08\n  exp(0x0100, 0x00)\n  dup2\n  sload\n  dup2\n  0xff\n  mul\n  not\n  and\n  swap1\n  dup4\n  iszero\n  iszero\n  mul\n  or\n  swap1\n  sstore\n  pop\n    /* \"contracts/donationspool.sol\":961:976  block.timestamp */\n  timestamp\n    /* \"contracts/donationspool.sol\":937:976  uint public startTime = block.timestamp */\n  0x09\n  sstore\n    /* \"contracts/donationspool.sol\":1124:1188  constructor () public {... */\n  callvalue\n  dup1\n  iszero\n  tag_1\n  jumpi\n  0x00\n  dup1\n  revert\ntag_1:\n  pop\n    /* \"contracts/donationspool.sol\":1169:1179  msg.sender */\n  caller\n    /* \"contracts/donationspool.sol\":1157:1166  charyteam */\n  0x00\n  dup1\n    /* \"contracts/donationspool.sol\":1157:1179  charyteam = msg.sender */\n  0x0100\n  exp\n  dup2\n  sload\n  dup2\n  0xffffffffffffffffffffffffffffffffffffffff\n  mul\n  not\n  and\n  swap1\n  dup4\n  0xffffffffffffffffffffffffffffffffffffffff\n  and\n  mul\n  or\n  swap1\n  sstore\n  pop\n    /* \"contracts/donationspool.sol\":470:4838  contract Spendenpool{... */\n  dataSize(sub_0)\n  dup1\n  dataOffset(sub_0)\n  0x00\n  codecopy\n  0x00\n  return\nstop\n\nsub_0: assembly {\n        /* \"contracts/donationspool.sol\":470:4838  contract Spendenpool{... */\n      mstore(0x40, 0x80)\n      jumpi(tag_1, lt(calldatasize, 0x04))\n      shr(0xe0, calldataload(0x00))\n      dup1\n      0x8d6a8b80\n      gt\n      tag_22\n      jumpi\n      dup1\n      0xc236b4c3\n      gt\n      tag_23\n      jumpi\n      dup1\n      0xc236b4c3\n      eq\n      tag_17\n      jumpi\n      dup1\n      0xcad65b70\n      eq\n      tag_18\n      jumpi\n      dup1\n      0xd1286e65\n      eq\n      tag_19\n      jumpi\n      dup1\n      0xda58c7d9\n      eq\n      tag_20\n      jumpi\n      dup1\n      0xed88c68e\n      eq\n      tag_21\n      jumpi\n      jump(tag_1)\n    tag_23:\n      dup1\n      0x8d6a8b80\n      eq\n      tag_12\n      jumpi\n      dup1\n      0x99e7f8c2\n      eq\n      tag_13\n      jumpi\n      dup1\n      0x9e992987\n      eq\n      tag_14\n      jumpi\n      dup1\n      0xac62f566\n      eq\n      tag_15\n      jumpi\n      dup1\n      0xacc9c6b4\n      eq\n      tag_16\n      jumpi\n      jump(tag_1)\n    tag_22:\n      dup1\n      0x5bc036c4\n      gt\n      tag_24\n      jumpi\n      dup1\n      0x5bc036c4\n      eq\n      tag_7\n      jumpi\n      dup1\n      0x78e97925\n      eq\n      tag_8\n      jumpi\n      dup1\n      0x7c4444ff\n      eq\n      tag_9\n      jumpi\n      dup1\n      0x82caff48\n      eq\n      tag_10\n      jumpi\n      dup1\n      0x86e899a2\n      eq\n      tag_11\n      jumpi\n      jump(tag_1)\n    tag_24:\n      dup1\n      0x107046bd\n      eq\n      tag_2\n      jumpi\n      dup1\n      0x12065fe0\n      eq\n      tag_3\n      jumpi\n      dup1\n      0x2e708fa8\n      eq\n      tag_4\n      jumpi\n      dup1\n      0x54235142\n      eq\n      tag_5\n      jumpi\n      dup1\n      0x583fa3a8\n      eq\n      tag_6\n      jumpi\n    tag_1:\n      0x00\n      dup1\n      revert\n        /* \"contracts/donationspool.sol\":683:716  address payable[] public projects */\n    tag_2:\n      callvalue\n      dup1\n      iszero\n      tag_25\n      jumpi\n      0x00\n      dup1\n      revert\n    tag_25:\n      pop\n      tag_26\n      0x04\n      dup1\n      calldatasize\n      sub\n      dup2\n      add\n      swap1\n      tag_27\n      swap2\n      swap1\n      tag_28\n      jump\t// in\n    tag_27:\n      tag_29\n      jump\t// in\n    tag_26:\n      mload(0x40)\n      tag_30\n      swap2\n      swap1\n      tag_31\n      jump\t// in\n    tag_30:\n      mload(0x40)\n      dup1\n      swap2\n      sub\n      swap1\n      return\n        /* \"contracts/donationspool.sol\":2760:2894  function getBalance() public view returns(uint) {... */\n    tag_3:\n      callvalue\n      dup1\n      iszero\n      tag_32\n      jumpi\n      0x00\n      dup1\n      revert\n    tag_32:\n      pop\n      tag_33\n      tag_34\n      jump\t// in\n    tag_33:\n      mload(0x40)\n      tag_35\n      swap2\n      swap1\n      tag_36\n      jump\t// in\n    tag_35:\n      mload(0x40)\n      dup1\n      swap2\n      sub\n      swap1\n      return\n        /* \"contracts/donationspool.sol\":763:792  address public votingcontract */\n    tag_4:\n      callvalue\n      dup1\n      iszero\n      tag_37\n      jumpi\n      0x00\n      dup1\n      revert\n    tag_37:\n      pop\n      tag_38\n      tag_39\n      jump\t// in\n    tag_38:\n      mload(0x40)\n      tag_40\n      swap2\n      swap1\n      tag_41\n      jump\t// in\n    tag_40:\n      mload(0x40)\n      dup1\n      swap2\n      sub\n      swap1\n      return\n        /* \"contracts/donationspool.sol\":3001:3166  function getCTBalance() public view onlyCharyteam returns(uint) {... */\n    tag_5:\n      callvalue\n      dup1\n      iszero\n      tag_42\n      jumpi\n      0x00\n      dup1\n      revert\n    tag_42:\n      pop\n      tag_43\n      tag_44\n      jump\t// in\n    tag_43:\n      mload(0x40)\n      tag_45\n      swap2\n      swap1\n      tag_36\n      jump\t// in\n    tag_45:\n      mload(0x40)\n      dup1\n      swap2\n      sub\n      swap1\n      return\n        /* \"contracts/donationspool.sol\":4077:4413  function doLottery() payable public donationsclosed returns(address) {... */\n    tag_6:\n      tag_46\n      tag_47\n      jump\t// in\n    tag_46:\n      mload(0x40)\n      tag_48\n      swap2\n      swap1\n      tag_41\n      jump\t// in\n    tag_48:\n      mload(0x40)\n      dup1\n      swap2\n      sub\n      swap1\n      return\n        /* \"contracts/donationspool.sol\":4421:4648  function sendWinn() payable public donationsclosed onlyCharyteam {... */\n    tag_7:\n      tag_49\n      tag_50\n      jump\t// in\n    tag_49:\n      stop\n        /* \"contracts/donationspool.sol\":937:976  uint public startTime = block.timestamp */\n    tag_8:\n      callvalue\n      dup1\n      iszero\n      tag_51\n      jumpi\n      0x00\n      dup1\n      revert\n    tag_51:\n      pop\n      tag_52\n      tag_53\n      jump\t// in\n    tag_52:\n      mload(0x40)\n      tag_54\n      swap2\n      swap1\n      tag_36\n      jump\t// in\n    tag_54:\n      mload(0x40)\n      dup1\n      swap2\n      sub\n      swap1\n      return\n        /* \"contracts/donationspool.sol\":3227:3545  function sendCT() payable public {... */\n    tag_9:\n      tag_55\n      tag_56\n      jump\t// in\n    tag_55:\n      stop\n        /* \"contracts/donationspool.sol\":1807:1960  function initiateVoting(address _votingAddress) external {... */\n    tag_10:\n      callvalue\n      dup1\n      iszero\n      tag_57\n      jumpi\n      0x00\n      dup1\n      revert\n    tag_57:\n      pop\n      tag_58\n      0x04\n      dup1\n      calldatasize\n      sub\n      dup2\n      add\n      swap1\n      tag_59\n      swap2\n      swap1\n      tag_60\n      jump\t// in\n    tag_59:\n      tag_61\n      jump\t// in\n    tag_58:\n      stop\n        /* \"contracts/donationspool.sol\":3836:3975  function votingresult() public returns (uint) {... */\n    tag_11:\n      callvalue\n      dup1\n      iszero\n      tag_62\n      jumpi\n      0x00\n      dup1\n      revert\n    tag_62:\n      pop\n      tag_63\n      tag_64\n      jump\t// in\n    tag_63:\n      mload(0x40)\n      tag_65\n      swap2\n      swap1\n      tag_36\n      jump\t// in\n    tag_65:\n      mload(0x40)\n      dup1\n      swap2\n      sub\n      swap1\n      return\n        /* \"contracts/donationspool.sol\":800:830  address public lotterycontract */\n    tag_12:\n      callvalue\n      dup1\n      iszero\n      tag_66\n      jumpi\n      0x00\n      dup1\n      revert\n    tag_66:\n      pop\n      tag_67\n      tag_68\n      jump\t// in\n    tag_67:\n      mload(0x40)\n      tag_69\n      swap2\n      swap1\n      tag_41\n      jump\t// in\n    tag_69:\n      mload(0x40)\n      dup1\n      swap2\n      sub\n      swap1\n      return\n        /* \"contracts/donationspool.sol\":3593:3771  function closeDonations() public {... */\n    tag_13:\n      callvalue\n      dup1\n      iszero\n      tag_70\n      jumpi\n      0x00\n      dup1\n      revert\n    tag_70:\n      pop\n      tag_71\n      tag_72\n      jump\t// in\n    tag_71:\n      stop\n        /* \"contracts/donationspool.sol\":1968:2082  function initiateLottery(address _lotteryContract) external {... */\n    tag_14:\n      callvalue\n      dup1\n      iszero\n      tag_73\n      jumpi\n      0x00\n      dup1\n      revert\n    tag_73:\n      pop\n      tag_74\n      0x04\n      dup1\n      calldatasize\n      sub\n      dup2\n      add\n      swap1\n      tag_75\n      swap2\n      swap1\n      tag_60\n      jump\t// in\n    tag_75:\n      tag_76\n      jump\t// in\n    tag_74:\n      stop\n        /* \"contracts/donationspool.sol\":547:572  address[] public donators */\n    tag_15:\n      callvalue\n      dup1\n      iszero\n      tag_77\n      jumpi\n      0x00\n      dup1\n      revert\n    tag_77:\n      pop\n      tag_78\n      0x04\n      dup1\n      calldatasize\n      sub\n      dup2\n      add\n      swap1\n      tag_79\n      swap2\n      swap1\n      tag_28\n      jump\t// in\n    tag_79:\n      tag_80\n      jump\t// in\n    tag_78:\n      mload(0x40)\n      tag_81\n      swap2\n      swap1\n      tag_41\n      jump\t// in\n    tag_81:\n      mload(0x40)\n      dup1\n      swap2\n      sub\n      swap1\n      return\n        /* \"contracts/donationspool.sol\":2494:2733  function updateVoting() public returns(address[] memory){... */\n    tag_16:\n      callvalue\n      dup1\n      iszero\n      tag_82\n      jumpi\n      0x00\n      dup1\n      revert\n    tag_82:\n      pop\n      tag_83\n      tag_84\n      jump\t// in\n    tag_83:\n      mload(0x40)\n      tag_85\n      swap2\n      swap1\n      tag_86\n      jump\t// in\n    tag_85:\n      mload(0x40)\n      dup1\n      swap2\n      sub\n      swap1\n      return\n        /* \"contracts/donationspool.sol\":838:874  address payable public lotterywinner */\n    tag_17:\n      callvalue\n      dup1\n      iszero\n      tag_87\n      jumpi\n      0x00\n      dup1\n      revert\n    tag_87:\n      pop\n      tag_88\n      tag_89\n      jump\t// in\n    tag_88:\n      mload(0x40)\n      tag_90\n      swap2\n      swap1\n      tag_31\n      jump\t// in\n    tag_90:\n      mload(0x40)\n      dup1\n      swap2\n      sub\n      swap1\n      return\n        /* \"contracts/donationspool.sol\":4654:4831  function sendDonations() payable public donationsclosed onlyCharyteam {... */\n    tag_18:\n      tag_91\n      tag_92\n      jump\t// in\n    tag_91:\n      stop\n        /* \"contracts/donationspool.sol\":515:539  address public charyteam */\n    tag_19:\n      callvalue\n      dup1\n      iszero\n      tag_93\n      jumpi\n      0x00\n      dup1\n      revert\n    tag_93:\n      pop\n      tag_94\n      tag_95\n      jump\t// in\n    tag_94:\n      mload(0x40)\n      tag_96\n      swap2\n      swap1\n      tag_41\n      jump\t// in\n    tag_96:\n      mload(0x40)\n      dup1\n      swap2\n      sub\n      swap1\n      return\n        /* \"contracts/donationspool.sol\":621:644  address[] public voters */\n    tag_20:\n      callvalue\n      dup1\n      iszero\n      tag_97\n      jumpi\n      0x00\n      dup1\n      revert\n    tag_97:\n      pop\n      tag_98\n      0x04\n      dup1\n      calldatasize\n      sub\n      dup2\n      add\n      swap1\n      tag_99\n      swap2\n      swap1\n      tag_28\n      jump\t// in\n    tag_99:\n      tag_100\n      jump\t// in\n    tag_98:\n      mload(0x40)\n      tag_101\n      swap2\n      swap1\n      tag_41\n      jump\t// in\n    tag_101:\n      mload(0x40)\n      dup1\n      swap2\n      sub\n      swap1\n      return\n        /* \"contracts/donationspool.sol\":2118:2484  function donate() payable public {... */\n    tag_21:\n      tag_102\n      tag_103\n      jump\t// in\n    tag_102:\n      stop\n        /* \"contracts/donationspool.sol\":683:716  address payable[] public projects */\n    tag_29:\n      0x03\n      dup2\n      dup2\n      sload\n      dup2\n      lt\n      tag_104\n      jumpi\n      0x00\n      dup1\n      revert\n    tag_104:\n      swap1\n      0x00\n      mstore\n      keccak256(0x00, 0x20)\n      add\n      0x00\n      swap2\n      pop\n      sload\n      swap1\n      0x0100\n      exp\n      swap1\n      div\n      0xffffffffffffffffffffffffffffffffffffffff\n      and\n      dup2\n      jump\t// out\n        /* \"contracts/donationspool.sol\":2760:2894  function getBalance() public view returns(uint) {... */\n    tag_34:\n        /* \"contracts/donationspool.sol\":2802:2806  uint */\n      0x00\n        /* \"contracts/donationspool.sol\":2864:2885  address(this).balance */\n      selfbalance\n        /* \"contracts/donationspool.sol\":2857:2885  return address(this).balance */\n      swap1\n      pop\n        /* \"contracts/donationspool.sol\":2760:2894  function getBalance() public view returns(uint) {... */\n      swap1\n      jump\t// out\n        /* \"contracts/donationspool.sol\":763:792  address public votingcontract */\n    tag_39:\n      0x04\n      0x00\n      swap1\n      sload\n      swap1\n      0x0100\n      exp\n      swap1\n      div\n      0xffffffffffffffffffffffffffffffffffffffff\n      and\n      dup2\n      jump\t// out\n        /* \"contracts/donationspool.sol\":3001:3166  function getCTBalance() public view onlyCharyteam returns(uint) {... */\n    tag_44:\n        /* \"contracts/donationspool.sol\":3059:3063  uint */\n      0x00\n        /* \"contracts/donationspool.sol\":1531:1540  charyteam */\n      dup1\n      0x00\n      swap1\n      sload\n      swap1\n      0x0100\n      exp\n      swap1\n      div\n      0xffffffffffffffffffffffffffffffffffffffff\n      and\n        /* \"contracts/donationspool.sol\":1517:1540  msg.sender == charyteam */\n      0xffffffffffffffffffffffffffffffffffffffff\n      and\n        /* \"contracts/donationspool.sol\":1517:1527  msg.sender */\n      caller\n        /* \"contracts/donationspool.sol\":1517:1540  msg.sender == charyteam */\n      0xffffffffffffffffffffffffffffffffffffffff\n      and\n      eq\n        /* \"contracts/donationspool.sol\":1509:1582  require(msg.sender == charyteam, \"only CharyTeam can call this function\") */\n      tag_108\n      jumpi\n      mload(0x40)\n      0x08c379a000000000000000000000000000000000000000000000000000000000\n      dup2\n      mstore\n      0x04\n      add\n      tag_109\n      swap1\n      tag_110\n      jump\t// in\n    tag_109:\n      mload(0x40)\n      dup1\n      swap2\n      sub\n      swap1\n      revert\n    tag_108:\n        /* \"contracts/donationspool.sol\":3090:3132  0xB302F922B24420f3A3048ddDC4E2761CE37Ea098 */\n      0xb302f922b24420f3a3048dddc4e2761ce37ea098\n        /* \"contracts/donationspool.sol\":3083:3143  IERC20(0xB302F922B24420f3A3048ddDC4E2761CE37Ea098).balanceOf */\n      0xffffffffffffffffffffffffffffffffffffffff\n      and\n      0x70a08231\n        /* \"contracts/donationspool.sol\":3152:3156  this */\n      address\n        /* \"contracts/donationspool.sol\":3083:3158  IERC20(0xB302F922B24420f3A3048ddDC4E2761CE37Ea098).balanceOf(address(this)) */\n      mload(0x40)\n      dup3\n      0xffffffff\n      and\n      0xe0\n      shl\n      dup2\n      mstore\n      0x04\n      add\n      tag_112\n      swap2\n      swap1\n      tag_41\n      jump\t// in\n    tag_112:\n      0x20\n      mload(0x40)\n      dup1\n      dup4\n      sub\n      dup2\n      dup7\n      gas\n      staticcall\n      iszero\n      dup1\n      iszero\n      tag_114\n      jumpi\n      returndatasize\n      0x00\n      dup1\n      returndatacopy\n      revert(0x00, returndatasize)\n    tag_114:\n      pop\n      pop\n      pop\n      pop\n      mload(0x40)\n      returndatasize\n      not(0x1f)\n      0x1f\n      dup3\n      add\n      and\n      dup3\n      add\n      dup1\n      0x40\n      mstore\n      pop\n      dup2\n      add\n      swap1\n      tag_115\n      swap2\n      swap1\n      tag_116\n      jump\t// in\n    tag_115:\n        /* \"contracts/donationspool.sol\":3076:3158  return IERC20(0xB302F922B24420f3A3048ddDC4E2761CE37Ea098).balanceOf(address(this)) */\n      swap1\n      pop\n        /* \"contracts/donationspool.sol\":3001:3166  function getCTBalance() public view onlyCharyteam returns(uint) {... */\n      swap1\n      jump\t// out\n        /* \"contracts/donationspool.sol\":4077:4413  function doLottery() payable public donationsclosed returns(address) {... */\n    tag_47:\n        /* \"contracts/donationspool.sol\":4137:4144  address */\n      0x00\n        /* \"contracts/donationspool.sol\":1360:1365  false */\n      dup1\n        /* \"contracts/donationspool.sol\":1343:1365  donationsopen == false */\n      iszero\n      iszero\n        /* \"contracts/donationspool.sol\":1343:1356  donationsopen */\n      0x08\n      0x00\n      swap1\n      sload\n      swap1\n      0x0100\n      exp\n      swap1\n      div\n      0xff\n      and\n        /* \"contracts/donationspool.sol\":1343:1365  donationsopen == false */\n      iszero\n      iszero\n      eq\n        /* \"contracts/donationspool.sol\":1335:1405  require(donationsopen == false, \"Spenden werden nicht mehr gesammelt\") */\n      tag_118\n      jumpi\n      mload(0x40)\n      0x08c379a000000000000000000000000000000000000000000000000000000000\n      dup2\n      mstore\n      0x04\n      add\n      tag_119\n      swap1\n      tag_120\n      jump\t// in\n    tag_119:\n      mload(0x40)\n      dup1\n      swap2\n      sub\n      swap1\n      revert\n    tag_118:\n        /* \"contracts/donationspool.sol\":4157:4167  ILottery l */\n      0x00\n        /* \"contracts/donationspool.sol\":4179:4194  lotterycontract */\n      0x05\n      0x00\n      swap1\n      sload\n      swap1\n      0x0100\n      exp\n      swap1\n      div\n      0xffffffffffffffffffffffffffffffffffffffff\n      and\n        /* \"contracts/donationspool.sol\":4157:4195  ILottery l = ILottery(lotterycontract) */\n      swap1\n      pop\n        /* \"contracts/donationspool.sol\":4207:4208  l */\n      dup1\n        /* \"contracts/donationspool.sol\":4207:4221  l.enterLottery */\n      0xffffffffffffffffffffffffffffffffffffffff\n      and\n      0xc129800d\n        /* \"contracts/donationspool.sol\":4222:4230  donators */\n      0x01\n        /* \"contracts/donationspool.sol\":4207:4231  l.enterLottery(donators) */\n      mload(0x40)\n      dup3\n      0xffffffff\n      and\n      0xe0\n      shl\n      dup2\n      mstore\n      0x04\n      add\n      tag_122\n      swap2\n      swap1\n      tag_123\n      jump\t// in\n    tag_122:\n      0x20\n      mload(0x40)\n      dup1\n      dup4\n      sub\n      dup2\n      0x00\n      dup8\n      gas\n      call\n      iszero\n      dup1\n      iszero\n      tag_125\n      jumpi\n      returndatasize\n      0x00\n      dup1\n      returndatacopy\n      revert(0x00, returndatasize)\n    tag_125:\n      pop\n      pop\n      pop\n      pop\n      mload(0x40)\n      returndatasize\n      not(0x1f)\n      0x1f\n      dup3\n      add\n      and\n      dup3\n      add\n      dup1\n      0x40\n      mstore\n      pop\n      dup2\n      add\n      swap1\n      tag_126\n      swap2\n      swap1\n      tag_127\n      jump\t// in\n    tag_126:\n      pop\n        /* \"contracts/donationspool.sol\":4266:4267  l */\n      dup1\n        /* \"contracts/donationspool.sol\":4266:4277  l.getWinner */\n      0xffffffffffffffffffffffffffffffffffffffff\n      and\n      0x8e7ea5b2\n        /* \"contracts/donationspool.sol\":4266:4279  l.getWinner() */\n      mload(0x40)\n      dup2\n      0xffffffff\n      and\n      0xe0\n      shl\n      dup2\n      mstore\n      0x04\n      add\n      0x20\n      mload(0x40)\n      dup1\n      dup4\n      sub\n      dup2\n      0x00\n      dup8\n      gas\n      call\n      iszero\n      dup1\n      iszero\n      tag_129\n      jumpi\n      returndatasize\n      0x00\n      dup1\n      returndatacopy\n      revert(0x00, returndatasize)\n    tag_129:\n      pop\n      pop\n      pop\n      pop\n      mload(0x40)\n      returndatasize\n      not(0x1f)\n      0x1f\n      dup3\n      add\n      and\n      dup3\n      add\n      dup1\n      0x40\n      mstore\n      pop\n      dup2\n      add\n      swap1\n      tag_130\n      swap2\n      swap1\n      tag_131\n      jump\t// in\n    tag_130:\n        /* \"contracts/donationspool.sol\":4242:4255  lotterywinner */\n      0x06\n      0x00\n        /* \"contracts/donationspool.sol\":4242:4280  lotterywinner = payable(l.getWinner()) */\n      0x0100\n      exp\n      dup2\n      sload\n      dup2\n      0xffffffffffffffffffffffffffffffffffffffff\n      mul\n      not\n      and\n      swap1\n      dup4\n      0xffffffffffffffffffffffffffffffffffffffff\n      and\n      mul\n      or\n      swap1\n      sstore\n      pop\n        /* \"contracts/donationspool.sol\":4299:4312  lotterywinner */\n      0x06\n      0x00\n      swap1\n      sload\n      swap1\n      0x0100\n      exp\n      swap1\n      div\n      0xffffffffffffffffffffffffffffffffffffffff\n      and\n        /* \"contracts/donationspool.sol\":4292:4312  return lotterywinner */\n      swap2\n      pop\n      pop\n        /* \"contracts/donationspool.sol\":4077:4413  function doLottery() payable public donationsclosed returns(address) {... */\n      swap1\n      jump\t// out\n        /* \"contracts/donationspool.sol\":4421:4648  function sendWinn() payable public donationsclosed onlyCharyteam {... */\n    tag_50:\n        /* \"contracts/donationspool.sol\":1360:1365  false */\n      0x00\n        /* \"contracts/donationspool.sol\":1343:1365  donationsopen == false */\n      iszero\n      iszero\n        /* \"contracts/donationspool.sol\":1343:1356  donationsopen */\n      0x08\n      0x00\n      swap1\n      sload\n      swap1\n      0x0100\n      exp\n      swap1\n      div\n      0xff\n      and\n        /* \"contracts/donationspool.sol\":1343:1365  donationsopen == false */\n      iszero\n      iszero\n      eq\n        /* \"contracts/donationspool.sol\":1335:1405  require(donationsopen == false, \"Spenden werden nicht mehr gesammelt\") */\n      tag_133\n      jumpi\n      mload(0x40)\n      0x08c379a000000000000000000000000000000000000000000000000000000000\n      dup2\n      mstore\n      0x04\n      add\n      tag_134\n      swap1\n      tag_120\n      jump\t// in\n    tag_134:\n      mload(0x40)\n      dup1\n      swap2\n      sub\n      swap1\n      revert\n    tag_133:\n        /* \"contracts/donationspool.sol\":1531:1540  charyteam */\n      0x00\n      dup1\n      sload\n      swap1\n      0x0100\n      exp\n      swap1\n      div\n      0xffffffffffffffffffffffffffffffffffffffff\n      and\n        /* \"contracts/donationspool.sol\":1517:1540  msg.sender == charyteam */\n      0xffffffffffffffffffffffffffffffffffffffff\n      and\n        /* \"contracts/donationspool.sol\":1517:1527  msg.sender */\n      caller\n        /* \"contracts/donationspool.sol\":1517:1540  msg.sender == charyteam */\n      0xffffffffffffffffffffffffffffffffffffffff\n      and\n      eq\n        /* \"contracts/donationspool.sol\":1509:1582  require(msg.sender == charyteam, \"only CharyTeam can call this function\") */\n      tag_136\n      jumpi\n      mload(0x40)\n      0x08c379a000000000000000000000000000000000000000000000000000000000\n      dup2\n      mstore\n      0x04\n      add\n      tag_137\n      swap1\n      tag_110\n      jump\t// in\n    tag_137:\n      mload(0x40)\n      dup1\n      swap2\n      sub\n      swap1\n      revert\n    tag_136:\n        /* \"contracts/donationspool.sol\":4497:4512  uint thisamount */\n      0x00\n        /* \"contracts/donationspool.sol\":4515:4536  address(this).balance */\n      selfbalance\n        /* \"contracts/donationspool.sol\":4497:4536  uint thisamount = address(this).balance */\n      swap1\n      pop\n        /* \"contracts/donationspool.sol\":4548:4566  uint lotteryamount */\n      0x00\n        /* \"contracts/donationspool.sol\":4588:4590  10 */\n      0x0a\n        /* \"contracts/donationspool.sol\":4582:4585  100 */\n      0x64\n        /* \"contracts/donationspool.sol\":4569:4579  thisamount */\n      dup4\n        /* \"contracts/donationspool.sol\":4569:4585  thisamount / 100 */\n      tag_139\n      swap2\n      swap1\n      tag_140\n      jump\t// in\n    tag_139:\n        /* \"contracts/donationspool.sol\":4569:4590  thisamount / 100 * 10 */\n      tag_141\n      swap2\n      swap1\n      tag_142\n      jump\t// in\n    tag_141:\n        /* \"contracts/donationspool.sol\":4548:4590  uint lotteryamount = thisamount / 100 * 10 */\n      swap1\n      pop\n        /* \"contracts/donationspool.sol\":4602:4615  lotterywinner */\n      0x06\n      0x00\n      swap1\n      sload\n      swap1\n      0x0100\n      exp\n      swap1\n      div\n      0xffffffffffffffffffffffffffffffffffffffff\n      and\n        /* \"contracts/donationspool.sol\":4602:4624  lotterywinner.transfer */\n      0xffffffffffffffffffffffffffffffffffffffff\n      and\n        /* \"contracts/donationspool.sol\":4602:4639  lotterywinner.transfer(lotteryamount) */\n      0x08fc\n        /* \"contracts/donationspool.sol\":4625:4638  lotteryamount */\n      dup3\n        /* \"contracts/donationspool.sol\":4602:4639  lotterywinner.transfer(lotteryamount) */\n      swap1\n      dup2\n      iszero\n      mul\n      swap1\n      mload(0x40)\n      0x00\n      mload(0x40)\n      dup1\n      dup4\n      sub\n      dup2\n      dup6\n      dup9\n      dup9\n      call\n      swap4\n      pop\n      pop\n      pop\n      pop\n      iszero\n      dup1\n      iszero\n      tag_144\n      jumpi\n      returndatasize\n      0x00\n      dup1\n      returndatacopy\n      revert(0x00, returndatasize)\n    tag_144:\n      pop\n        /* \"contracts/donationspool.sol\":4486:4648  {... */\n      pop\n      pop\n        /* \"contracts/donationspool.sol\":4421:4648  function sendWinn() payable public donationsclosed onlyCharyteam {... */\n      jump\t// out\n        /* \"contracts/donationspool.sol\":937:976  uint public startTime = block.timestamp */\n    tag_53:\n      sload(0x09)\n      dup2\n      jump\t// out\n        /* \"contracts/donationspool.sol\":3227:3545  function sendCT() payable public {... */\n    tag_56:\n        /* \"contracts/donationspool.sol\":3306:3317  uint tempCT */\n      0x00\n        /* \"contracts/donationspool.sol\":3327:3369  0xB302F922B24420f3A3048ddDC4E2761CE37Ea098 */\n      0xb302f922b24420f3a3048dddc4e2761ce37ea098\n        /* \"contracts/donationspool.sol\":3320:3380  IERC20(0xB302F922B24420f3A3048ddDC4E2761CE37Ea098).balanceOf */\n      0xffffffffffffffffffffffffffffffffffffffff\n      and\n      0x70a08231\n        /* \"contracts/donationspool.sol\":3381:3391  msg.sender */\n      caller\n        /* \"contracts/donationspool.sol\":3320:3392  IERC20(0xB302F922B24420f3A3048ddDC4E2761CE37Ea098).balanceOf(msg.sender) */\n      mload(0x40)\n      dup3\n      0xffffffff\n      and\n      0xe0\n      shl\n      dup2\n      mstore\n      0x04\n      add\n      tag_146\n      swap2\n      swap1\n      tag_41\n      jump\t// in\n    tag_146:\n      0x20\n      mload(0x40)\n      dup1\n      dup4\n      sub\n      dup2\n      dup7\n      gas\n      staticcall\n      iszero\n      dup1\n      iszero\n      tag_148\n      jumpi\n      returndatasize\n      0x00\n      dup1\n      returndatacopy\n      revert(0x00, returndatasize)\n    tag_148:\n      pop\n      pop\n      pop\n      pop\n      mload(0x40)\n      returndatasize\n      not(0x1f)\n      0x1f\n      dup3\n      add\n      and\n      dup3\n      add\n      dup1\n      0x40\n      mstore\n      pop\n      dup2\n      add\n      swap1\n      tag_149\n      swap2\n      swap1\n      tag_116\n      jump\t// in\n    tag_149:\n        /* \"contracts/donationspool.sol\":3306:3392  uint tempCT = IERC20(0xB302F922B24420f3A3048ddDC4E2761CE37Ea098).balanceOf(msg.sender) */\n      swap1\n      pop\n        /* \"contracts/donationspool.sol\":3421:3422  0 */\n      0x00\n        /* \"contracts/donationspool.sol\":3411:3417  tempCT */\n      dup2\n        /* \"contracts/donationspool.sol\":3411:3422  tempCT == 0 */\n      eq\n        /* \"contracts/donationspool.sol\":3403:3450  require(tempCT == 0, \"sender already has a CT\") */\n      tag_150\n      jumpi\n      mload(0x40)\n      0x08c379a000000000000000000000000000000000000000000000000000000000\n      dup2\n      mstore\n      0x04\n      add\n      tag_151\n      swap1\n      tag_152\n      jump\t// in\n    tag_151:\n      mload(0x40)\n      dup1\n      swap2\n      sub\n      swap1\n      revert\n    tag_150:\n        /* \"contracts/donationspool.sol\":3469:3511  0xB302F922B24420f3A3048ddDC4E2761CE37Ea098 */\n      0xb302f922b24420f3a3048dddc4e2761ce37ea098\n        /* \"contracts/donationspool.sol\":3462:3521  IERC20(0xB302F922B24420f3A3048ddDC4E2761CE37Ea098).transfer */\n      0xffffffffffffffffffffffffffffffffffffffff\n      and\n      0xa9059cbb\n        /* \"contracts/donationspool.sol\":3522:3532  msg.sender */\n      caller\n        /* \"contracts/donationspool.sol\":3534:3535  1 */\n      0x01\n        /* \"contracts/donationspool.sol\":3462:3536  IERC20(0xB302F922B24420f3A3048ddDC4E2761CE37Ea098).transfer(msg.sender, 1) */\n      mload(0x40)\n      dup4\n      0xffffffff\n      and\n      0xe0\n      shl\n      dup2\n      mstore\n      0x04\n      add\n      tag_153\n      swap3\n      swap2\n      swap1\n      tag_154\n      jump\t// in\n    tag_153:\n      0x20\n      mload(0x40)\n      dup1\n      dup4\n      sub\n      dup2\n      0x00\n      dup8\n      gas\n      call\n      iszero\n      dup1\n      iszero\n      tag_156\n      jumpi\n      returndatasize\n      0x00\n      dup1\n      returndatacopy\n      revert(0x00, returndatasize)\n    tag_156:\n      pop\n      pop\n      pop\n      pop\n      mload(0x40)\n      returndatasize\n      not(0x1f)\n      0x1f\n      dup3\n      add\n      and\n      dup3\n      add\n      dup1\n      0x40\n      mstore\n      pop\n      dup2\n      add\n      swap1\n      tag_157\n      swap2\n      swap1\n      tag_127\n      jump\t// in\n    tag_157:\n      pop\n        /* \"contracts/donationspool.sol\":3260:3545  {... */\n      pop\n        /* \"contracts/donationspool.sol\":3227:3545  function sendCT() payable public {... */\n      jump\t// out\n        /* \"contracts/donationspool.sol\":1807:1960  function initiateVoting(address _votingAddress) external {... */\n    tag_61:\n        /* \"contracts/donationspool.sol\":1937:1951  _votingAddress */\n      dup1\n        /* \"contracts/donationspool.sol\":1920:1934  votingcontract */\n      0x04\n      0x00\n        /* \"contracts/donationspool.sol\":1920:1951  votingcontract = _votingAddress */\n      0x0100\n      exp\n      dup2\n      sload\n      dup2\n      0xffffffffffffffffffffffffffffffffffffffff\n      mul\n      not\n      and\n      swap1\n      dup4\n      0xffffffffffffffffffffffffffffffffffffffff\n      and\n      mul\n      or\n      swap1\n      sstore\n      pop\n        /* \"contracts/donationspool.sol\":1807:1960  function initiateVoting(address _votingAddress) external {... */\n      pop\n      jump\t// out\n        /* \"contracts/donationspool.sol\":3836:3975  function votingresult() public returns (uint) {... */\n    tag_64:\n        /* \"contracts/donationspool.sol\":3876:3880  uint */\n      0x00\n        /* \"contracts/donationspool.sol\":3893:3902  IVoting v */\n      dup1\n        /* \"contracts/donationspool.sol\":3913:3927  votingcontract */\n      0x04\n      0x00\n      swap1\n      sload\n      swap1\n      0x0100\n      exp\n      swap1\n      div\n      0xffffffffffffffffffffffffffffffffffffffff\n      and\n        /* \"contracts/donationspool.sol\":3893:3928  IVoting v = IVoting(votingcontract) */\n      swap1\n      pop\n        /* \"contracts/donationspool.sol\":3947:3948  v */\n      dup1\n        /* \"contracts/donationspool.sol\":3947:3964  v.getVotingWinner */\n      0xffffffffffffffffffffffffffffffffffffffff\n      and\n      0x94bec071\n        /* \"contracts/donationspool.sol\":3947:3966  v.getVotingWinner() */\n      mload(0x40)\n      dup2\n      0xffffffff\n      and\n      0xe0\n      shl\n      dup2\n      mstore\n      0x04\n      add\n      0x20\n      mload(0x40)\n      dup1\n      dup4\n      sub\n      dup2\n      0x00\n      dup8\n      gas\n      call\n      iszero\n      dup1\n      iszero\n      tag_161\n      jumpi\n      returndatasize\n      0x00\n      dup1\n      returndatacopy\n      revert(0x00, returndatasize)\n    tag_161:\n      pop\n      pop\n      pop\n      pop\n      mload(0x40)\n      returndatasize\n      not(0x1f)\n      0x1f\n      dup3\n      add\n      and\n      dup3\n      add\n      dup1\n      0x40\n      mstore\n      pop\n      dup2\n      add\n      swap1\n      tag_162\n      swap2\n      swap1\n      tag_116\n      jump\t// in\n    tag_162:\n        /* \"contracts/donationspool.sol\":3940:3966  return v.getVotingWinner() */\n      swap2\n      pop\n      pop\n        /* \"contracts/donationspool.sol\":3836:3975  function votingresult() public returns (uint) {... */\n      swap1\n      jump\t// out\n        /* \"contracts/donationspool.sol\":800:830  address public lotterycontract */\n    tag_68:\n      0x05\n      0x00\n      swap1\n      sload\n      swap1\n      0x0100\n      exp\n      swap1\n      div\n      0xffffffffffffffffffffffffffffffffffffffff\n      and\n      dup2\n      jump\t// out\n        /* \"contracts/donationspool.sol\":3593:3771  function closeDonations() public {... */\n    tag_72:\n        /* \"contracts/donationspool.sol\":3757:3762  false */\n      0x00\n        /* \"contracts/donationspool.sol\":3741:3754  donationsopen */\n      0x08\n      0x00\n        /* \"contracts/donationspool.sol\":3741:3762  donationsopen = false */\n      0x0100\n      exp\n      dup2\n      sload\n      dup2\n      0xff\n      mul\n      not\n      and\n      swap1\n      dup4\n      iszero\n      iszero\n      mul\n      or\n      swap1\n      sstore\n      pop\n        /* \"contracts/donationspool.sol\":3593:3771  function closeDonations() public {... */\n      jump\t// out\n        /* \"contracts/donationspool.sol\":1968:2082  function initiateLottery(address _lotteryContract) external {... */\n    tag_76:\n        /* \"contracts/donationspool.sol\":2057:2073  _lotteryContract */\n      dup1\n        /* \"contracts/donationspool.sol\":2039:2054  lotterycontract */\n      0x05\n      0x00\n        /* \"contracts/donationspool.sol\":2039:2073  lotterycontract = _lotteryContract */\n      0x0100\n      exp\n      dup2\n      sload\n      dup2\n      0xffffffffffffffffffffffffffffffffffffffff\n      mul\n      not\n      and\n      swap1\n      dup4\n      0xffffffffffffffffffffffffffffffffffffffff\n      and\n      mul\n      or\n      swap1\n      sstore\n      pop\n        /* \"contracts/donationspool.sol\":1968:2082  function initiateLottery(address _lotteryContract) external {... */\n      pop\n      jump\t// out\n        /* \"contracts/donationspool.sol\":547:572  address[] public donators */\n    tag_80:\n      0x01\n      dup2\n      dup2\n      sload\n      dup2\n      lt\n      tag_165\n      jumpi\n      0x00\n      dup1\n      revert\n    tag_165:\n      swap1\n      0x00\n      mstore\n      keccak256(0x00, 0x20)\n      add\n      0x00\n      swap2\n      pop\n      sload\n      swap1\n      0x0100\n      exp\n      swap1\n      div\n      0xffffffffffffffffffffffffffffffffffffffff\n      and\n      dup2\n      jump\t// out\n        /* \"contracts/donationspool.sol\":2494:2733  function updateVoting() public returns(address[] memory){... */\n    tag_84:\n        /* \"contracts/donationspool.sol\":2533:2549  address[] memory */\n      0x60\n        /* \"contracts/donationspool.sol\":2615:2624  IVoting v */\n      0x00\n        /* \"contracts/donationspool.sol\":2635:2649  votingcontract */\n      0x04\n      0x00\n      swap1\n      sload\n      swap1\n      0x0100\n      exp\n      swap1\n      div\n      0xffffffffffffffffffffffffffffffffffffffff\n      and\n        /* \"contracts/donationspool.sol\":2615:2650  IVoting v = IVoting(votingcontract) */\n      swap1\n      pop\n        /* \"contracts/donationspool.sol\":2671:2672  v */\n      dup1\n        /* \"contracts/donationspool.sol\":2671:2682  v.getVoters */\n      0xffffffffffffffffffffffffffffffffffffffff\n      and\n      0xcdd72253\n        /* \"contracts/donationspool.sol\":2671:2684  v.getVoters() */\n      mload(0x40)\n      dup2\n      0xffffffff\n      and\n      0xe0\n      shl\n      dup2\n      mstore\n      0x04\n      add\n      0x00\n      mload(0x40)\n      dup1\n      dup4\n      sub\n      dup2\n      0x00\n      dup8\n      gas\n      call\n      iszero\n      dup1\n      iszero\n      tag_169\n      jumpi\n      returndatasize\n      0x00\n      dup1\n      returndatacopy\n      revert(0x00, returndatasize)\n    tag_169:\n      pop\n      pop\n      pop\n      pop\n      mload(0x40)\n      returndatasize\n      0x00\n      dup3\n      returndatacopy\n      returndatasize\n      not(0x1f)\n      0x1f\n      dup3\n      add\n      and\n      dup3\n      add\n      dup1\n      0x40\n      mstore\n      pop\n      dup2\n      add\n      swap1\n      tag_170\n      swap2\n      swap1\n      tag_171\n      jump\t// in\n    tag_170:\n        /* \"contracts/donationspool.sol\":2662:2668  voters */\n      0x02\n        /* \"contracts/donationspool.sol\":2662:2684  voters = v.getVoters() */\n      swap1\n      dup1\n      mload\n      swap1\n      0x20\n      add\n      swap1\n      tag_172\n      swap3\n      swap2\n      swap1\n      tag_173\n      jump\t// in\n    tag_172:\n      pop\n        /* \"contracts/donationspool.sol\":2718:2724  voters */\n      0x02\n        /* \"contracts/donationspool.sol\":2711:2724  return voters */\n      dup1\n      sload\n      dup1\n      0x20\n      mul\n      0x20\n      add\n      mload(0x40)\n      swap1\n      dup2\n      add\n      0x40\n      mstore\n      dup1\n      swap3\n      swap2\n      swap1\n      dup2\n      dup2\n      mstore\n      0x20\n      add\n      dup3\n      dup1\n      sload\n      dup1\n      iszero\n      tag_174\n      jumpi\n      0x20\n      mul\n      dup3\n      add\n      swap2\n      swap1\n      0x00\n      mstore\n      keccak256(0x00, 0x20)\n      swap1\n    tag_175:\n      dup2\n      0x00\n      swap1\n      sload\n      swap1\n      0x0100\n      exp\n      swap1\n      div\n      0xffffffffffffffffffffffffffffffffffffffff\n      and\n      0xffffffffffffffffffffffffffffffffffffffff\n      and\n      dup2\n      mstore\n      0x20\n      add\n      swap1\n      0x01\n      add\n      swap1\n      dup1\n      dup4\n      gt\n      tag_175\n      jumpi\n    tag_174:\n      pop\n      pop\n      pop\n      pop\n      pop\n      swap2\n      pop\n      pop\n        /* \"contracts/donationspool.sol\":2494:2733  function updateVoting() public returns(address[] memory){... */\n      swap1\n      jump\t// out\n        /* \"contracts/donationspool.sol\":838:874  address payable public lotterywinner */\n    tag_89:\n      0x06\n      0x00\n      swap1\n      sload\n      swap1\n      0x0100\n      exp\n      swap1\n      div\n      0xffffffffffffffffffffffffffffffffffffffff\n      and\n      dup2\n      jump\t// out\n        /* \"contracts/donationspool.sol\":4654:4831  function sendDonations() payable public donationsclosed onlyCharyteam {... */\n    tag_92:\n        /* \"contracts/donationspool.sol\":1360:1365  false */\n      0x00\n        /* \"contracts/donationspool.sol\":1343:1365  donationsopen == false */\n      iszero\n      iszero\n        /* \"contracts/donationspool.sol\":1343:1356  donationsopen */\n      0x08\n      0x00\n      swap1\n      sload\n      swap1\n      0x0100\n      exp\n      swap1\n      div\n      0xff\n      and\n        /* \"contracts/donationspool.sol\":1343:1365  donationsopen == false */\n      iszero\n      iszero\n      eq\n        /* \"contracts/donationspool.sol\":1335:1405  require(donationsopen == false, \"Spenden werden nicht mehr gesammelt\") */\n      tag_177\n      jumpi\n      mload(0x40)\n      0x08c379a000000000000000000000000000000000000000000000000000000000\n      dup2\n      mstore\n      0x04\n      add\n      tag_178\n      swap1\n      tag_120\n      jump\t// in\n    tag_178:\n      mload(0x40)\n      dup1\n      swap2\n      sub\n      swap1\n      revert\n    tag_177:\n        /* \"contracts/donationspool.sol\":1531:1540  charyteam */\n      0x00\n      dup1\n      sload\n      swap1\n      0x0100\n      exp\n      swap1\n      div\n      0xffffffffffffffffffffffffffffffffffffffff\n      and\n        /* \"contracts/donationspool.sol\":1517:1540  msg.sender == charyteam */\n      0xffffffffffffffffffffffffffffffffffffffff\n      and\n        /* \"contracts/donationspool.sol\":1517:1527  msg.sender */\n      caller\n        /* \"contracts/donationspool.sol\":1517:1540  msg.sender == charyteam */\n      0xffffffffffffffffffffffffffffffffffffffff\n      and\n      eq\n        /* \"contracts/donationspool.sol\":1509:1582  require(msg.sender == charyteam, \"only CharyTeam can call this function\") */\n      tag_180\n      jumpi\n      mload(0x40)\n      0x08c379a000000000000000000000000000000000000000000000000000000000\n      dup2\n      mstore\n      0x04\n      add\n      tag_181\n      swap1\n      tag_110\n      jump\t// in\n    tag_181:\n      mload(0x40)\n      dup1\n      swap2\n      sub\n      swap1\n      revert\n    tag_180:\n        /* \"contracts/donationspool.sol\":4735:4750  uint thisamount */\n      0x00\n        /* \"contracts/donationspool.sol\":4753:4774  address(this).balance */\n      selfbalance\n        /* \"contracts/donationspool.sol\":4735:4774  uint thisamount = address(this).balance */\n      swap1\n      pop\n        /* \"contracts/donationspool.sol\":4724:4831  {... */\n      pop\n        /* \"contracts/donationspool.sol\":4654:4831  function sendDonations() payable public donationsclosed onlyCharyteam {... */\n      jump\t// out\n        /* \"contracts/donationspool.sol\":515:539  address public charyteam */\n    tag_95:\n      0x00\n      dup1\n      sload\n      swap1\n      0x0100\n      exp\n      swap1\n      div\n      0xffffffffffffffffffffffffffffffffffffffff\n      and\n      dup2\n      jump\t// out\n        /* \"contracts/donationspool.sol\":621:644  address[] public voters */\n    tag_100:\n      0x02\n      dup2\n      dup2\n      sload\n      dup2\n      lt\n      tag_183\n      jumpi\n      0x00\n      dup1\n      revert\n    tag_183:\n      swap1\n      0x00\n      mstore\n      keccak256(0x00, 0x20)\n      add\n      0x00\n      swap2\n      pop\n      sload\n      swap1\n      0x0100\n      exp\n      swap1\n      div\n      0xffffffffffffffffffffffffffffffffffffffff\n      and\n      dup2\n      jump\t// out\n        /* \"contracts/donationspool.sol\":2118:2484  function donate() payable public {... */\n    tag_103:\n        /* \"contracts/donationspool.sol\":2210:2219  0.1 ether */\n      0x016345785d8a0000\n        /* \"contracts/donationspool.sol\":2197:2206  msg.value */\n      callvalue\n        /* \"contracts/donationspool.sol\":2197:2219  msg.value >= 0.1 ether */\n      lt\n      iszero\n        /* \"contracts/donationspool.sol\":2189:2251  require(msg.value >= 0.1 ether, \"Invest minimum of 0.1 ether\") */\n      tag_186\n      jumpi\n      mload(0x40)\n      0x08c379a000000000000000000000000000000000000000000000000000000000\n      dup2\n      mstore\n      0x04\n      add\n      tag_187\n      swap1\n      tag_188\n      jump\t// in\n    tag_187:\n      mload(0x40)\n      dup1\n      swap2\n      sub\n      swap1\n      revert\n    tag_186:\n        /* \"contracts/donationspool.sol\":2304:2312  donators */\n      0x01\n        /* \"contracts/donationspool.sol\":2318:2328  msg.sender */\n      caller\n        /* \"contracts/donationspool.sol\":2304:2329  donators.push(msg.sender) */\n      swap1\n      dup1\n      0x01\n      dup2\n      sload\n      add\n      dup1\n      dup3\n      sstore\n      dup1\n      swap2\n      pop\n      pop\n      0x01\n      swap1\n      sub\n      swap1\n      0x00\n      mstore\n      keccak256(0x00, 0x20)\n      add\n      0x00\n      swap1\n      swap2\n      swap1\n      swap2\n      swap1\n      swap2\n      0x0100\n      exp\n      dup2\n      sload\n      dup2\n      0xffffffffffffffffffffffffffffffffffffffff\n      mul\n      not\n      and\n      swap1\n      dup4\n      0xffffffffffffffffffffffffffffffffffffffff\n      and\n      mul\n      or\n      swap1\n      sstore\n      pop\n        /* \"contracts/donationspool.sol\":2348:2390  0xB302F922B24420f3A3048ddDC4E2761CE37Ea098 */\n      0xb302f922b24420f3a3048dddc4e2761ce37ea098\n        /* \"contracts/donationspool.sol\":2341:2401  IERC20(0xB302F922B24420f3A3048ddDC4E2761CE37Ea098).allowance */\n      0xffffffffffffffffffffffffffffffffffffffff\n      and\n      0xdd62ed3e\n        /* \"contracts/donationspool.sol\":2402:2412  msg.sender */\n      caller\n        /* \"contracts/donationspool.sol\":2422:2426  this */\n      address\n        /* \"contracts/donationspool.sol\":2341:2428  IERC20(0xB302F922B24420f3A3048ddDC4E2761CE37Ea098).allowance(msg.sender, address(this)) */\n      mload(0x40)\n      dup4\n      0xffffffff\n      and\n      0xe0\n      shl\n      dup2\n      mstore\n      0x04\n      add\n      tag_190\n      swap3\n      swap2\n      swap1\n      tag_191\n      jump\t// in\n    tag_190:\n      0x20\n      mload(0x40)\n      dup1\n      dup4\n      sub\n      dup2\n      dup7\n      gas\n      staticcall\n      iszero\n      dup1\n      iszero\n      tag_193\n      jumpi\n      returndatasize\n      0x00\n      dup1\n      returndatacopy\n      revert(0x00, returndatasize)\n    tag_193:\n      pop\n      pop\n      pop\n      pop\n      mload(0x40)\n      returndatasize\n      not(0x1f)\n      0x1f\n      dup3\n      add\n      and\n      dup3\n      add\n      dup1\n      0x40\n      mstore\n      pop\n      dup2\n      add\n      swap1\n      tag_194\n      swap2\n      swap1\n      tag_116\n      jump\t// in\n    tag_194:\n      pop\n        /* \"contracts/donationspool.sol\":2439:2447  sendCT() */\n      tag_195\n        /* \"contracts/donationspool.sol\":2439:2445  sendCT */\n      tag_56\n        /* \"contracts/donationspool.sol\":2439:2447  sendCT() */\n      jump\t// in\n    tag_195:\n        /* \"contracts/donationspool.sol\":2118:2484  function donate() payable public {... */\n      jump\t// out\n    tag_173:\n      dup3\n      dup1\n      sload\n      dup3\n      dup3\n      sstore\n      swap1\n      0x00\n      mstore\n      keccak256(0x00, 0x20)\n      swap1\n      dup2\n      add\n      swap3\n      dup3\n      iszero\n      tag_196\n      jumpi\n      swap2\n      0x20\n      mul\n      dup3\n      add\n    tag_197:\n      dup3\n      dup2\n      gt\n      iszero\n      tag_198\n      jumpi\n      dup3\n      mload\n      dup3\n      exp(0x0100, 0x00)\n      dup2\n      sload\n      dup2\n      0xffffffffffffffffffffffffffffffffffffffff\n      mul\n      not\n      and\n      swap1\n      dup4\n      0xffffffffffffffffffffffffffffffffffffffff\n      and\n      mul\n      or\n      swap1\n      sstore\n      pop\n      swap2\n      0x20\n      add\n      swap2\n      swap1\n      0x01\n      add\n      swap1\n      jump(tag_197)\n    tag_198:\n    tag_196:\n      pop\n      swap1\n      pop\n      tag_199\n      swap2\n      swap1\n      tag_200\n      jump\t// in\n    tag_199:\n      pop\n      swap1\n      jump\t// out\n    tag_200:\n    tag_201:\n      dup1\n      dup3\n      gt\n      iszero\n      tag_202\n      jumpi\n      0x00\n      dup2\n      0x00\n      swap1\n      sstore\n      pop\n      0x01\n      add\n      jump(tag_201)\n    tag_202:\n      pop\n      swap1\n      jump\t// out\n        /* \"#utility.yul\":7:82   */\n    tag_203:\n        /* \"#utility.yul\":40:46   */\n      0x00\n        /* \"#utility.yul\":73:75   */\n      0x40\n        /* \"#utility.yul\":67:76   */\n      mload\n        /* \"#utility.yul\":57:76   */\n      swap1\n      pop\n        /* \"#utility.yul\":7:82   */\n      swap1\n      jump\t// out\n        /* \"#utility.yul\":88:205   */\n    tag_204:\n        /* \"#utility.yul\":197:198   */\n      0x00\n        /* \"#utility.yul\":194:195   */\n      dup1\n        /* \"#utility.yul\":187:199   */\n      revert\n        /* \"#utility.yul\":211:328   */\n    tag_205:\n        /* \"#utility.yul\":320:321   */\n      0x00\n        /* \"#utility.yul\":317:318   */\n      dup1\n        /* \"#utility.yul\":310:322   */\n      revert\n        /* \"#utility.yul\":334:411   */\n    tag_206:\n        /* \"#utility.yul\":371:378   */\n      0x00\n        /* \"#utility.yul\":400:405   */\n      dup2\n        /* \"#utility.yul\":389:405   */\n      swap1\n      pop\n        /* \"#utility.yul\":334:411   */\n      swap2\n      swap1\n      pop\n      jump\t// out\n        /* \"#utility.yul\":417:539   */\n    tag_207:\n        /* \"#utility.yul\":490:514   */\n      tag_267\n        /* \"#utility.yul\":508:513   */\n      dup2\n        /* \"#utility.yul\":490:514   */\n      tag_206\n      jump\t// in\n    tag_267:\n        /* \"#utility.yul\":483:488   */\n      dup2\n        /* \"#utility.yul\":480:515   */\n      eq\n        /* \"#utility.yul\":470:533   */\n      tag_268\n      jumpi\n        /* \"#utility.yul\":529:530   */\n      0x00\n        /* \"#utility.yul\":526:527   */\n      dup1\n        /* \"#utility.yul\":519:531   */\n      revert\n        /* \"#utility.yul\":470:533   */\n    tag_268:\n        /* \"#utility.yul\":417:539   */\n      pop\n      jump\t// out\n        /* \"#utility.yul\":545:684   */\n    tag_208:\n        /* \"#utility.yul\":591:596   */\n      0x00\n        /* \"#utility.yul\":629:635   */\n      dup2\n        /* \"#utility.yul\":616:636   */\n      calldataload\n        /* \"#utility.yul\":607:636   */\n      swap1\n      pop\n        /* \"#utility.yul\":645:678   */\n      tag_270\n        /* \"#utility.yul\":672:677   */\n      dup2\n        /* \"#utility.yul\":645:678   */\n      tag_207\n      jump\t// in\n    tag_270:\n        /* \"#utility.yul\":545:684   */\n      swap3\n      swap2\n      pop\n      pop\n      jump\t// out\n        /* \"#utility.yul\":690:1019   */\n    tag_28:\n        /* \"#utility.yul\":749:755   */\n      0x00\n        /* \"#utility.yul\":798:800   */\n      0x20\n        /* \"#utility.yul\":786:795   */\n      dup3\n        /* \"#utility.yul\":777:784   */\n      dup5\n        /* \"#utility.yul\":773:796   */\n      sub\n        /* \"#utility.yul\":769:801   */\n      slt\n        /* \"#utility.yul\":766:885   */\n      iszero\n      tag_272\n      jumpi\n        /* \"#utility.yul\":804:883   */\n      tag_273\n      tag_204\n      jump\t// in\n    tag_273:\n        /* \"#utility.yul\":766:885   */\n    tag_272:\n        /* \"#utility.yul\":924:925   */\n      0x00\n        /* \"#utility.yul\":949:1002   */\n      tag_274\n        /* \"#utility.yul\":994:1001   */\n      dup5\n        /* \"#utility.yul\":985:991   */\n      dup3\n        /* \"#utility.yul\":974:983   */\n      dup6\n        /* \"#utility.yul\":970:992   */\n      add\n        /* \"#utility.yul\":949:1002   */\n      tag_208\n      jump\t// in\n    tag_274:\n        /* \"#utility.yul\":939:1002   */\n      swap2\n      pop\n        /* \"#utility.yul\":895:1012   */\n      pop\n        /* \"#utility.yul\":690:1019   */\n      swap3\n      swap2\n      pop\n      pop\n      jump\t// out\n        /* \"#utility.yul\":1025:1151   */\n    tag_209:\n        /* \"#utility.yul\":1062:1069   */\n      0x00\n        /* \"#utility.yul\":1102:1144   */\n      0xffffffffffffffffffffffffffffffffffffffff\n        /* \"#utility.yul\":1095:1100   */\n      dup3\n        /* \"#utility.yul\":1091:1145   */\n      and\n        /* \"#utility.yul\":1080:1145   */\n      swap1\n      pop\n        /* \"#utility.yul\":1025:1151   */\n      swap2\n      swap1\n      pop\n      jump\t// out\n        /* \"#utility.yul\":1157:1261   */\n    tag_210:\n        /* \"#utility.yul\":1202:1209   */\n      0x00\n        /* \"#utility.yul\":1231:1255   */\n      tag_277\n        /* \"#utility.yul\":1249:1254   */\n      dup3\n        /* \"#utility.yul\":1231:1255   */\n      tag_209\n      jump\t// in\n    tag_277:\n        /* \"#utility.yul\":1220:1255   */\n      swap1\n      pop\n        /* \"#utility.yul\":1157:1261   */\n      swap2\n      swap1\n      pop\n      jump\t// out\n        /* \"#utility.yul\":1267:1409   */\n    tag_211:\n        /* \"#utility.yul\":1370:1402   */\n      tag_279\n        /* \"#utility.yul\":1396:1401   */\n      dup2\n        /* \"#utility.yul\":1370:1402   */\n      tag_210\n      jump\t// in\n    tag_279:\n        /* \"#utility.yul\":1365:1368   */\n      dup3\n        /* \"#utility.yul\":1358:1403   */\n      mstore\n        /* \"#utility.yul\":1267:1409   */\n      pop\n      pop\n      jump\t// out\n        /* \"#utility.yul\":1415:1669   */\n    tag_31:\n        /* \"#utility.yul\":1524:1528   */\n      0x00\n        /* \"#utility.yul\":1562:1564   */\n      0x20\n        /* \"#utility.yul\":1551:1560   */\n      dup3\n        /* \"#utility.yul\":1547:1565   */\n      add\n        /* \"#utility.yul\":1539:1565   */\n      swap1\n      pop\n        /* \"#utility.yul\":1575:1662   */\n      tag_281\n        /* \"#utility.yul\":1659:1660   */\n      0x00\n        /* \"#utility.yul\":1648:1657   */\n      dup4\n        /* \"#utility.yul\":1644:1661   */\n      add\n        /* \"#utility.yul\":1635:1641   */\n      dup5\n        /* \"#utility.yul\":1575:1662   */\n      tag_211\n      jump\t// in\n    tag_281:\n        /* \"#utility.yul\":1415:1669   */\n      swap3\n      swap2\n      pop\n      pop\n      jump\t// out\n        /* \"#utility.yul\":1675:1793   */\n    tag_212:\n        /* \"#utility.yul\":1762:1786   */\n      tag_283\n        /* \"#utility.yul\":1780:1785   */\n      dup2\n        /* \"#utility.yul\":1762:1786   */\n      tag_206\n      jump\t// in\n    tag_283:\n        /* \"#utility.yul\":1757:1760   */\n      dup3\n        /* \"#utility.yul\":1750:1787   */\n      mstore\n        /* \"#utility.yul\":1675:1793   */\n      pop\n      pop\n      jump\t// out\n        /* \"#utility.yul\":1799:2021   */\n    tag_36:\n        /* \"#utility.yul\":1892:1896   */\n      0x00\n        /* \"#utility.yul\":1930:1932   */\n      0x20\n        /* \"#utility.yul\":1919:1928   */\n      dup3\n        /* \"#utility.yul\":1915:1933   */\n      add\n        /* \"#utility.yul\":1907:1933   */\n      swap1\n      pop\n        /* \"#utility.yul\":1943:2014   */\n      tag_285\n        /* \"#utility.yul\":2011:2012   */\n      0x00\n        /* \"#utility.yul\":2000:2009   */\n      dup4\n        /* \"#utility.yul\":1996:2013   */\n      add\n        /* \"#utility.yul\":1987:1993   */\n      dup5\n        /* \"#utility.yul\":1943:2014   */\n      tag_212\n      jump\t// in\n    tag_285:\n        /* \"#utility.yul\":1799:2021   */\n      swap3\n      swap2\n      pop\n      pop\n      jump\t// out\n        /* \"#utility.yul\":2027:2123   */\n    tag_213:\n        /* \"#utility.yul\":2064:2071   */\n      0x00\n        /* \"#utility.yul\":2093:2117   */\n      tag_287\n        /* \"#utility.yul\":2111:2116   */\n      dup3\n        /* \"#utility.yul\":2093:2117   */\n      tag_209\n      jump\t// in\n    tag_287:\n        /* \"#utility.yul\":2082:2117   */\n      swap1\n      pop\n        /* \"#utility.yul\":2027:2123   */\n      swap2\n      swap1\n      pop\n      jump\t// out\n        /* \"#utility.yul\":2129:2247   */\n    tag_214:\n        /* \"#utility.yul\":2216:2240   */\n      tag_289\n        /* \"#utility.yul\":2234:2239   */\n      dup2\n        /* \"#utility.yul\":2216:2240   */\n      tag_213\n      jump\t// in\n    tag_289:\n        /* \"#utility.yul\":2211:2214   */\n      dup3\n        /* \"#utility.yul\":2204:2241   */\n      mstore\n        /* \"#utility.yul\":2129:2247   */\n      pop\n      pop\n      jump\t// out\n        /* \"#utility.yul\":2253:2475   */\n    tag_41:\n        /* \"#utility.yul\":2346:2350   */\n      0x00\n        /* \"#utility.yul\":2384:2386   */\n      0x20\n        /* \"#utility.yul\":2373:2382   */\n      dup3\n        /* \"#utility.yul\":2369:2387   */\n      add\n        /* \"#utility.yul\":2361:2387   */\n      swap1\n      pop\n        /* \"#utility.yul\":2397:2468   */\n      tag_291\n        /* \"#utility.yul\":2465:2466   */\n      0x00\n        /* \"#utility.yul\":2454:2463   */\n      dup4\n        /* \"#utility.yul\":2450:2467   */\n      add\n        /* \"#utility.yul\":2441:2447   */\n      dup5\n        /* \"#utility.yul\":2397:2468   */\n      tag_214\n      jump\t// in\n    tag_291:\n        /* \"#utility.yul\":2253:2475   */\n      swap3\n      swap2\n      pop\n      pop\n      jump\t// out\n        /* \"#utility.yul\":2481:2603   */\n    tag_215:\n        /* \"#utility.yul\":2554:2578   */\n      tag_293\n        /* \"#utility.yul\":2572:2577   */\n      dup2\n        /* \"#utility.yul\":2554:2578   */\n      tag_213\n      jump\t// in\n    tag_293:\n        /* \"#utility.yul\":2547:2552   */\n      dup2\n        /* \"#utility.yul\":2544:2579   */\n      eq\n        /* \"#utility.yul\":2534:2597   */\n      tag_294\n      jumpi\n        /* \"#utility.yul\":2593:2594   */\n      0x00\n        /* \"#utility.yul\":2590:2591   */\n      dup1\n        /* \"#utility.yul\":2583:2595   */\n      revert\n        /* \"#utility.yul\":2534:2597   */\n    tag_294:\n        /* \"#utility.yul\":2481:2603   */\n      pop\n      jump\t// out\n        /* \"#utility.yul\":2609:2748   */\n    tag_216:\n        /* \"#utility.yul\":2655:2660   */\n      0x00\n        /* \"#utility.yul\":2693:2699   */\n      dup2\n        /* \"#utility.yul\":2680:2700   */\n      calldataload\n        /* \"#utility.yul\":2671:2700   */\n      swap1\n      pop\n        /* \"#utility.yul\":2709:2742   */\n      tag_296\n        /* \"#utility.yul\":2736:2741   */\n      dup2\n        /* \"#utility.yul\":2709:2742   */\n      tag_215\n      jump\t// in\n    tag_296:\n        /* \"#utility.yul\":2609:2748   */\n      swap3\n      swap2\n      pop\n      pop\n      jump\t// out\n        /* \"#utility.yul\":2754:3083   */\n    tag_60:\n        /* \"#utility.yul\":2813:2819   */\n      0x00\n        /* \"#utility.yul\":2862:2864   */\n      0x20\n        /* \"#utility.yul\":2850:2859   */\n      dup3\n        /* \"#utility.yul\":2841:2848   */\n      dup5\n        /* \"#utility.yul\":2837:2860   */\n      sub\n        /* \"#utility.yul\":2833:2865   */\n      slt\n        /* \"#utility.yul\":2830:2949   */\n      iszero\n      tag_298\n      jumpi\n        /* \"#utility.yul\":2868:2947   */\n      tag_299\n      tag_204\n      jump\t// in\n    tag_299:\n        /* \"#utility.yul\":2830:2949   */\n    tag_298:\n        /* \"#utility.yul\":2988:2989   */\n      0x00\n        /* \"#utility.yul\":3013:3066   */\n      tag_300\n        /* \"#utility.yul\":3058:3065   */\n      dup5\n        /* \"#utility.yul\":3049:3055   */\n      dup3\n        /* \"#utility.yul\":3038:3047   */\n      dup6\n        /* \"#utility.yul\":3034:3056   */\n      add\n        /* \"#utility.yul\":3013:3066   */\n      tag_216\n      jump\t// in\n    tag_300:\n        /* \"#utility.yul\":3003:3066   */\n      swap2\n      pop\n        /* \"#utility.yul\":2959:3076   */\n      pop\n        /* \"#utility.yul\":2754:3083   */\n      swap3\n      swap2\n      pop\n      pop\n      jump\t// out\n        /* \"#utility.yul\":3089:3203   */\n    tag_217:\n        /* \"#utility.yul\":3156:3162   */\n      0x00\n        /* \"#utility.yul\":3190:3195   */\n      dup2\n        /* \"#utility.yul\":3184:3196   */\n      mload\n        /* \"#utility.yul\":3174:3196   */\n      swap1\n      pop\n        /* \"#utility.yul\":3089:3203   */\n      swap2\n      swap1\n      pop\n      jump\t// out\n        /* \"#utility.yul\":3209:3393   */\n    tag_218:\n        /* \"#utility.yul\":3308:3319   */\n      0x00\n        /* \"#utility.yul\":3342:3348   */\n      dup3\n        /* \"#utility.yul\":3337:3340   */\n      dup3\n        /* \"#utility.yul\":3330:3349   */\n      mstore\n        /* \"#utility.yul\":3382:3386   */\n      0x20\n        /* \"#utility.yul\":3377:3380   */\n      dup3\n        /* \"#utility.yul\":3373:3387   */\n      add\n        /* \"#utility.yul\":3358:3387   */\n      swap1\n      pop\n        /* \"#utility.yul\":3209:3393   */\n      swap3\n      swap2\n      pop\n      pop\n      jump\t// out\n        /* \"#utility.yul\":3399:3531   */\n    tag_219:\n        /* \"#utility.yul\":3466:3470   */\n      0x00\n        /* \"#utility.yul\":3489:3492   */\n      dup2\n        /* \"#utility.yul\":3481:3492   */\n      swap1\n      pop\n        /* \"#utility.yul\":3519:3523   */\n      0x20\n        /* \"#utility.yul\":3514:3517   */\n      dup3\n        /* \"#utility.yul\":3510:3524   */\n      add\n        /* \"#utility.yul\":3502:3524   */\n      swap1\n      pop\n        /* \"#utility.yul\":3399:3531   */\n      swap2\n      swap1\n      pop\n      jump\t// out\n        /* \"#utility.yul\":3537:3645   */\n    tag_220:\n        /* \"#utility.yul\":3614:3638   */\n      tag_305\n        /* \"#utility.yul\":3632:3637   */\n      dup2\n        /* \"#utility.yul\":3614:3638   */\n      tag_213\n      jump\t// in\n    tag_305:\n        /* \"#utility.yul\":3609:3612   */\n      dup3\n        /* \"#utility.yul\":3602:3639   */\n      mstore\n        /* \"#utility.yul\":3537:3645   */\n      pop\n      pop\n      jump\t// out\n        /* \"#utility.yul\":3651:3830   */\n    tag_221:\n        /* \"#utility.yul\":3720:3730   */\n      0x00\n        /* \"#utility.yul\":3741:3787   */\n      tag_307\n        /* \"#utility.yul\":3783:3786   */\n      dup4\n        /* \"#utility.yul\":3775:3781   */\n      dup4\n        /* \"#utility.yul\":3741:3787   */\n      tag_220\n      jump\t// in\n    tag_307:\n        /* \"#utility.yul\":3819:3823   */\n      0x20\n        /* \"#utility.yul\":3814:3817   */\n      dup4\n        /* \"#utility.yul\":3810:3824   */\n      add\n        /* \"#utility.yul\":3796:3824   */\n      swap1\n      pop\n        /* \"#utility.yul\":3651:3830   */\n      swap3\n      swap2\n      pop\n      pop\n      jump\t// out\n        /* \"#utility.yul\":3836:3949   */\n    tag_222:\n        /* \"#utility.yul\":3906:3910   */\n      0x00\n        /* \"#utility.yul\":3938:3942   */\n      0x20\n        /* \"#utility.yul\":3933:3936   */\n      dup3\n        /* \"#utility.yul\":3929:3943   */\n      add\n        /* \"#utility.yul\":3921:3943   */\n      swap1\n      pop\n        /* \"#utility.yul\":3836:3949   */\n      swap2\n      swap1\n      pop\n      jump\t// out\n        /* \"#utility.yul\":3985:4717   */\n    tag_223:\n        /* \"#utility.yul\":4104:4107   */\n      0x00\n        /* \"#utility.yul\":4133:4187   */\n      tag_310\n        /* \"#utility.yul\":4181:4186   */\n      dup3\n        /* \"#utility.yul\":4133:4187   */\n      tag_217\n      jump\t// in\n    tag_310:\n        /* \"#utility.yul\":4203:4289   */\n      tag_311\n        /* \"#utility.yul\":4282:4288   */\n      dup2\n        /* \"#utility.yul\":4277:4280   */\n      dup6\n        /* \"#utility.yul\":4203:4289   */\n      tag_218\n      jump\t// in\n    tag_311:\n        /* \"#utility.yul\":4196:4289   */\n      swap4\n      pop\n        /* \"#utility.yul\":4313:4369   */\n      tag_312\n        /* \"#utility.yul\":4363:4368   */\n      dup4\n        /* \"#utility.yul\":4313:4369   */\n      tag_219\n      jump\t// in\n    tag_312:\n        /* \"#utility.yul\":4392:4399   */\n      dup1\n        /* \"#utility.yul\":4423:4424   */\n      0x00\n        /* \"#utility.yul\":4408:4692   */\n    tag_313:\n        /* \"#utility.yul\":4433:4439   */\n      dup4\n        /* \"#utility.yul\":4430:4431   */\n      dup2\n        /* \"#utility.yul\":4427:4440   */\n      lt\n        /* \"#utility.yul\":4408:4692   */\n      iszero\n      tag_315\n      jumpi\n        /* \"#utility.yul\":4509:4515   */\n      dup2\n        /* \"#utility.yul\":4503:4516   */\n      mload\n        /* \"#utility.yul\":4536:4599   */\n      tag_316\n        /* \"#utility.yul\":4595:4598   */\n      dup9\n        /* \"#utility.yul\":4580:4593   */\n      dup3\n        /* \"#utility.yul\":4536:4599   */\n      tag_221\n      jump\t// in\n    tag_316:\n        /* \"#utility.yul\":4529:4599   */\n      swap8\n      pop\n        /* \"#utility.yul\":4622:4682   */\n      tag_317\n        /* \"#utility.yul\":4675:4681   */\n      dup4\n        /* \"#utility.yul\":4622:4682   */\n      tag_222\n      jump\t// in\n    tag_317:\n        /* \"#utility.yul\":4612:4682   */\n      swap3\n      pop\n        /* \"#utility.yul\":4468:4692   */\n      pop\n        /* \"#utility.yul\":4455:4456   */\n      0x01\n        /* \"#utility.yul\":4452:4453   */\n      dup2\n        /* \"#utility.yul\":4448:4457   */\n      add\n        /* \"#utility.yul\":4443:4457   */\n      swap1\n      pop\n        /* \"#utility.yul\":4408:4692   */\n      jump(tag_313)\n    tag_315:\n        /* \"#utility.yul\":4412:4426   */\n      pop\n        /* \"#utility.yul\":4708:4711   */\n      dup6\n        /* \"#utility.yul\":4701:4711   */\n      swap4\n      pop\n        /* \"#utility.yul\":4109:4717   */\n      pop\n      pop\n      pop\n        /* \"#utility.yul\":3985:4717   */\n      swap3\n      swap2\n      pop\n      pop\n      jump\t// out\n        /* \"#utility.yul\":4723:5096   */\n    tag_86:\n        /* \"#utility.yul\":4866:4870   */\n      0x00\n        /* \"#utility.yul\":4904:4906   */\n      0x20\n        /* \"#utility.yul\":4893:4902   */\n      dup3\n        /* \"#utility.yul\":4889:4907   */\n      add\n        /* \"#utility.yul\":4881:4907   */\n      swap1\n      pop\n        /* \"#utility.yul\":4953:4962   */\n      dup2\n        /* \"#utility.yul\":4947:4951   */\n      dup2\n        /* \"#utility.yul\":4943:4963   */\n      sub\n        /* \"#utility.yul\":4939:4940   */\n      0x00\n        /* \"#utility.yul\":4928:4937   */\n      dup4\n        /* \"#utility.yul\":4924:4941   */\n      add\n        /* \"#utility.yul\":4917:4964   */\n      mstore\n        /* \"#utility.yul\":4981:5089   */\n      tag_319\n        /* \"#utility.yul\":5084:5088   */\n      dup2\n        /* \"#utility.yul\":5075:5081   */\n      dup5\n        /* \"#utility.yul\":4981:5089   */\n      tag_223\n      jump\t// in\n    tag_319:\n        /* \"#utility.yul\":4973:5089   */\n      swap1\n      pop\n        /* \"#utility.yul\":4723:5096   */\n      swap3\n      swap2\n      pop\n      pop\n      jump\t// out\n        /* \"#utility.yul\":5102:5271   */\n    tag_224:\n        /* \"#utility.yul\":5186:5197   */\n      0x00\n        /* \"#utility.yul\":5220:5226   */\n      dup3\n        /* \"#utility.yul\":5215:5218   */\n      dup3\n        /* \"#utility.yul\":5208:5227   */\n      mstore\n        /* \"#utility.yul\":5260:5264   */\n      0x20\n        /* \"#utility.yul\":5255:5258   */\n      dup3\n        /* \"#utility.yul\":5251:5265   */\n      add\n        /* \"#utility.yul\":5236:5265   */\n      swap1\n      pop\n        /* \"#utility.yul\":5102:5271   */\n      swap3\n      swap2\n      pop\n      pop\n      jump\t// out\n        /* \"#utility.yul\":5277:5501   */\n    tag_225:\n        /* \"#utility.yul\":5417:5451   */\n      0x6f6e6c792043686172795465616d2063616e2063616c6c20746869732066756e\n        /* \"#utility.yul\":5413:5414   */\n      0x00\n        /* \"#utility.yul\":5405:5411   */\n      dup3\n        /* \"#utility.yul\":5401:5415   */\n      add\n        /* \"#utility.yul\":5394:5452   */\n      mstore\n        /* \"#utility.yul\":5486:5493   */\n      0x6374696f6e000000000000000000000000000000000000000000000000000000\n        /* \"#utility.yul\":5481:5483   */\n      0x20\n        /* \"#utility.yul\":5473:5479   */\n      dup3\n        /* \"#utility.yul\":5469:5484   */\n      add\n        /* \"#utility.yul\":5462:5494   */\n      mstore\n        /* \"#utility.yul\":5277:5501   */\n      pop\n      jump\t// out\n        /* \"#utility.yul\":5507:5873   */\n    tag_226:\n        /* \"#utility.yul\":5649:5652   */\n      0x00\n        /* \"#utility.yul\":5670:5737   */\n      tag_323\n        /* \"#utility.yul\":5734:5736   */\n      0x25\n        /* \"#utility.yul\":5729:5732   */\n      dup4\n        /* \"#utility.yul\":5670:5737   */\n      tag_224\n      jump\t// in\n    tag_323:\n        /* \"#utility.yul\":5663:5737   */\n      swap2\n      pop\n        /* \"#utility.yul\":5746:5839   */\n      tag_324\n        /* \"#utility.yul\":5835:5838   */\n      dup3\n        /* \"#utility.yul\":5746:5839   */\n      tag_225\n      jump\t// in\n    tag_324:\n        /* \"#utility.yul\":5864:5866   */\n      0x40\n        /* \"#utility.yul\":5859:5862   */\n      dup3\n        /* \"#utility.yul\":5855:5867   */\n      add\n        /* \"#utility.yul\":5848:5867   */\n      swap1\n      pop\n        /* \"#utility.yul\":5507:5873   */\n      swap2\n      swap1\n      pop\n      jump\t// out\n        /* \"#utility.yul\":5879:6298   */\n    tag_110:\n        /* \"#utility.yul\":6045:6049   */\n      0x00\n        /* \"#utility.yul\":6083:6085   */\n      0x20\n        /* \"#utility.yul\":6072:6081   */\n      dup3\n        /* \"#utility.yul\":6068:6086   */\n      add\n        /* \"#utility.yul\":6060:6086   */\n      swap1\n      pop\n        /* \"#utility.yul\":6132:6141   */\n      dup2\n        /* \"#utility.yul\":6126:6130   */\n      dup2\n        /* \"#utility.yul\":6122:6142   */\n      sub\n        /* \"#utility.yul\":6118:6119   */\n      0x00\n        /* \"#utility.yul\":6107:6116   */\n      dup4\n        /* \"#utility.yul\":6103:6120   */\n      add\n        /* \"#utility.yul\":6096:6143   */\n      mstore\n        /* \"#utility.yul\":6160:6291   */\n      tag_326\n        /* \"#utility.yul\":6286:6290   */\n      dup2\n        /* \"#utility.yul\":6160:6291   */\n      tag_226\n      jump\t// in\n    tag_326:\n        /* \"#utility.yul\":6152:6291   */\n      swap1\n      pop\n        /* \"#utility.yul\":5879:6298   */\n      swap2\n      swap1\n      pop\n      jump\t// out\n        /* \"#utility.yul\":6304:6447   */\n    tag_227:\n        /* \"#utility.yul\":6361:6366   */\n      0x00\n        /* \"#utility.yul\":6392:6398   */\n      dup2\n        /* \"#utility.yul\":6386:6399   */\n      mload\n        /* \"#utility.yul\":6377:6399   */\n      swap1\n      pop\n        /* \"#utility.yul\":6408:6441   */\n      tag_328\n        /* \"#utility.yul\":6435:6440   */\n      dup2\n        /* \"#utility.yul\":6408:6441   */\n      tag_207\n      jump\t// in\n    tag_328:\n        /* \"#utility.yul\":6304:6447   */\n      swap3\n      swap2\n      pop\n      pop\n      jump\t// out\n        /* \"#utility.yul\":6453:6804   */\n    tag_116:\n        /* \"#utility.yul\":6523:6529   */\n      0x00\n        /* \"#utility.yul\":6572:6574   */\n      0x20\n        /* \"#utility.yul\":6560:6569   */\n      dup3\n        /* \"#utility.yul\":6551:6558   */\n      dup5\n        /* \"#utility.yul\":6547:6570   */\n      sub\n        /* \"#utility.yul\":6543:6575   */\n      slt\n        /* \"#utility.yul\":6540:6659   */\n      iszero\n      tag_330\n      jumpi\n        /* \"#utility.yul\":6578:6657   */\n      tag_331\n      tag_204\n      jump\t// in\n    tag_331:\n        /* \"#utility.yul\":6540:6659   */\n    tag_330:\n        /* \"#utility.yul\":6698:6699   */\n      0x00\n        /* \"#utility.yul\":6723:6787   */\n      tag_332\n        /* \"#utility.yul\":6779:6786   */\n      dup5\n        /* \"#utility.yul\":6770:6776   */\n      dup3\n        /* \"#utility.yul\":6759:6768   */\n      dup6\n        /* \"#utility.yul\":6755:6777   */\n      add\n        /* \"#utility.yul\":6723:6787   */\n      tag_227\n      jump\t// in\n    tag_332:\n        /* \"#utility.yul\":6713:6787   */\n      swap2\n      pop\n        /* \"#utility.yul\":6669:6797   */\n      pop\n        /* \"#utility.yul\":6453:6804   */\n      swap3\n      swap2\n      pop\n      pop\n      jump\t// out\n        /* \"#utility.yul\":6810:7032   */\n    tag_228:\n        /* \"#utility.yul\":6950:6984   */\n      0x5370656e64656e2077657264656e206e69636874206d65687220676573616d6d\n        /* \"#utility.yul\":6946:6947   */\n      0x00\n        /* \"#utility.yul\":6938:6944   */\n      dup3\n        /* \"#utility.yul\":6934:6948   */\n      add\n        /* \"#utility.yul\":6927:6985   */\n      mstore\n        /* \"#utility.yul\":7019:7024   */\n      0x656c740000000000000000000000000000000000000000000000000000000000\n        /* \"#utility.yul\":7014:7016   */\n      0x20\n        /* \"#utility.yul\":7006:7012   */\n      dup3\n        /* \"#utility.yul\":7002:7017   */\n      add\n        /* \"#utility.yul\":6995:7025   */\n      mstore\n        /* \"#utility.yul\":6810:7032   */\n      pop\n      jump\t// out\n        /* \"#utility.yul\":7038:7404   */\n    tag_229:\n        /* \"#utility.yul\":7180:7183   */\n      0x00\n        /* \"#utility.yul\":7201:7268   */\n      tag_335\n        /* \"#utility.yul\":7265:7267   */\n      0x23\n        /* \"#utility.yul\":7260:7263   */\n      dup4\n        /* \"#utility.yul\":7201:7268   */\n      tag_224\n      jump\t// in\n    tag_335:\n        /* \"#utility.yul\":7194:7268   */\n      swap2\n      pop\n        /* \"#utility.yul\":7277:7370   */\n      tag_336\n        /* \"#utility.yul\":7366:7369   */\n      dup3\n        /* \"#utility.yul\":7277:7370   */\n      tag_228\n      jump\t// in\n    tag_336:\n        /* \"#utility.yul\":7395:7397   */\n      0x40\n        /* \"#utility.yul\":7390:7393   */\n      dup3\n        /* \"#utility.yul\":7386:7398   */\n      add\n        /* \"#utility.yul\":7379:7398   */\n      swap1\n      pop\n        /* \"#utility.yul\":7038:7404   */\n      swap2\n      swap1\n      pop\n      jump\t// out\n        /* \"#utility.yul\":7410:7829   */\n    tag_120:\n        /* \"#utility.yul\":7576:7580   */\n      0x00\n        /* \"#utility.yul\":7614:7616   */\n      0x20\n        /* \"#utility.yul\":7603:7612   */\n      dup3\n        /* \"#utility.yul\":7599:7617   */\n      add\n        /* \"#utility.yul\":7591:7617   */\n      swap1\n      pop\n        /* \"#utility.yul\":7663:7672   */\n      dup2\n        /* \"#utility.yul\":7657:7661   */\n      dup2\n        /* \"#utility.yul\":7653:7673   */\n      sub\n        /* \"#utility.yul\":7649:7650   */\n      0x00\n        /* \"#utility.yul\":7638:7647   */\n      dup4\n        /* \"#utility.yul\":7634:7651   */\n      add\n        /* \"#utility.yul\":7627:7674   */\n      mstore\n        /* \"#utility.yul\":7691:7822   */\n      tag_338\n        /* \"#utility.yul\":7817:7821   */\n      dup2\n        /* \"#utility.yul\":7691:7822   */\n      tag_229\n      jump\t// in\n    tag_338:\n        /* \"#utility.yul\":7683:7822   */\n      swap1\n      pop\n        /* \"#utility.yul\":7410:7829   */\n      swap2\n      swap1\n      pop\n      jump\t// out\n        /* \"#utility.yul\":7835:7946   */\n    tag_230:\n        /* \"#utility.yul\":7899:7905   */\n      0x00\n        /* \"#utility.yul\":7933:7938   */\n      dup2\n        /* \"#utility.yul\":7927:7939   */\n      sload\n        /* \"#utility.yul\":7917:7939   */\n      swap1\n      pop\n        /* \"#utility.yul\":7835:7946   */\n      swap2\n      swap1\n      pop\n      jump\t// out\n        /* \"#utility.yul\":7952:8108   */\n    tag_231:\n        /* \"#utility.yul\":8016:8020   */\n      0x00\n        /* \"#utility.yul\":8039:8042   */\n      dup2\n        /* \"#utility.yul\":8031:8042   */\n      swap1\n      pop\n        /* \"#utility.yul\":8062:8065   */\n      dup2\n        /* \"#utility.yul\":8059:8060   */\n      0x00\n        /* \"#utility.yul\":8052:8066   */\n      mstore\n        /* \"#utility.yul\":8096:8100   */\n      0x20\n        /* \"#utility.yul\":8093:8094   */\n      0x00\n        /* \"#utility.yul\":8083:8101   */\n      keccak256\n        /* \"#utility.yul\":8075:8101   */\n      swap1\n      pop\n        /* \"#utility.yul\":7952:8108   */\n      swap2\n      swap1\n      pop\n      jump\t// out\n        /* \"#utility.yul\":8114:8216   */\n    tag_232:\n        /* \"#utility.yul\":8156:8164   */\n      0x00\n        /* \"#utility.yul\":8203:8208   */\n      dup2\n        /* \"#utility.yul\":8200:8201   */\n      0x00\n        /* \"#utility.yul\":8196:8209   */\n      shr\n        /* \"#utility.yul\":8175:8209   */\n      swap1\n      pop\n        /* \"#utility.yul\":8114:8216   */\n      swap2\n      swap1\n      pop\n      jump\t// out\n        /* \"#utility.yul\":8222:8361   */\n    tag_233:\n        /* \"#utility.yul\":8272:8279   */\n      0x00\n        /* \"#utility.yul\":8312:8354   */\n      0xffffffffffffffffffffffffffffffffffffffff\n        /* \"#utility.yul\":8305:8310   */\n      dup3\n        /* \"#utility.yul\":8301:8355   */\n      and\n        /* \"#utility.yul\":8290:8355   */\n      swap1\n      pop\n        /* \"#utility.yul\":8222:8361   */\n      swap2\n      swap1\n      pop\n      jump\t// out\n        /* \"#utility.yul\":8367:8533   */\n    tag_234:\n        /* \"#utility.yul\":8436:8441   */\n      0x00\n        /* \"#utility.yul\":8461:8527   */\n      tag_344\n        /* \"#utility.yul\":8492:8526   */\n      tag_345\n        /* \"#utility.yul\":8515:8525   */\n      dup4\n        /* \"#utility.yul\":8492:8526   */\n      tag_232\n      jump\t// in\n    tag_345:\n        /* \"#utility.yul\":8461:8527   */\n      tag_233\n      jump\t// in\n    tag_344:\n        /* \"#utility.yul\":8452:8527   */\n      swap1\n      pop\n        /* \"#utility.yul\":8367:8533   */\n      swap2\n      swap1\n      pop\n      jump\t// out\n        /* \"#utility.yul\":8539:8683   */\n    tag_235:\n        /* \"#utility.yul\":8594:8599   */\n      0x00\n        /* \"#utility.yul\":8619:8676   */\n      tag_347\n        /* \"#utility.yul\":8670:8674   */\n      dup3\n        /* \"#utility.yul\":8664:8675   */\n      sload\n        /* \"#utility.yul\":8619:8676   */\n      tag_234\n      jump\t// in\n    tag_347:\n        /* \"#utility.yul\":8610:8676   */\n      swap1\n      pop\n        /* \"#utility.yul\":8539:8683   */\n      swap2\n      swap1\n      pop\n      jump\t// out\n        /* \"#utility.yul\":8689:8799   */\n    tag_236:\n        /* \"#utility.yul\":8756:8760   */\n      0x00\n        /* \"#utility.yul\":8788:8792   */\n      0x01\n        /* \"#utility.yul\":8783:8786   */\n      dup3\n        /* \"#utility.yul\":8779:8793   */\n      add\n        /* \"#utility.yul\":8771:8793   */\n      swap1\n      pop\n        /* \"#utility.yul\":8689:8799   */\n      swap2\n      swap1\n      pop\n      jump\t// out\n        /* \"#utility.yul\":8835:9586   */\n    tag_237:\n        /* \"#utility.yul\":8951:8954   */\n      0x00\n        /* \"#utility.yul\":8980:9031   */\n      tag_350\n        /* \"#utility.yul\":9025:9030   */\n      dup3\n        /* \"#utility.yul\":8980:9031   */\n      tag_230\n      jump\t// in\n    tag_350:\n        /* \"#utility.yul\":9047:9133   */\n      tag_351\n        /* \"#utility.yul\":9126:9132   */\n      dup2\n        /* \"#utility.yul\":9121:9124   */\n      dup6\n        /* \"#utility.yul\":9047:9133   */\n      tag_218\n      jump\t// in\n    tag_351:\n        /* \"#utility.yul\":9040:9133   */\n      swap4\n      pop\n        /* \"#utility.yul\":9157:9210   */\n      tag_352\n        /* \"#utility.yul\":9204:9209   */\n      dup4\n        /* \"#utility.yul\":9157:9210   */\n      tag_231\n      jump\t// in\n    tag_352:\n        /* \"#utility.yul\":9233:9240   */\n      dup1\n        /* \"#utility.yul\":9264:9265   */\n      0x00\n        /* \"#utility.yul\":9249:9561   */\n    tag_353:\n        /* \"#utility.yul\":9274:9280   */\n      dup4\n        /* \"#utility.yul\":9271:9272   */\n      dup2\n        /* \"#utility.yul\":9268:9281   */\n      lt\n        /* \"#utility.yul\":9249:9561   */\n      iszero\n      tag_355\n      jumpi\n        /* \"#utility.yul\":9344:9388   */\n      tag_356\n        /* \"#utility.yul\":9381:9387   */\n      dup3\n        /* \"#utility.yul\":9344:9388   */\n      tag_235\n      jump\t// in\n    tag_356:\n        /* \"#utility.yul\":9408:9471   */\n      tag_357\n        /* \"#utility.yul\":9467:9470   */\n      dup9\n        /* \"#utility.yul\":9452:9465   */\n      dup3\n        /* \"#utility.yul\":9408:9471   */\n      tag_221\n      jump\t// in\n    tag_357:\n        /* \"#utility.yul\":9401:9471   */\n      swap8\n      pop\n        /* \"#utility.yul\":9494:9551   */\n      tag_358\n        /* \"#utility.yul\":9544:9550   */\n      dup4\n        /* \"#utility.yul\":9494:9551   */\n      tag_236\n      jump\t// in\n    tag_358:\n        /* \"#utility.yul\":9484:9551   */\n      swap3\n      pop\n        /* \"#utility.yul\":9309:9561   */\n      pop\n        /* \"#utility.yul\":9296:9297   */\n      0x01\n        /* \"#utility.yul\":9293:9294   */\n      dup2\n        /* \"#utility.yul\":9289:9298   */\n      add\n        /* \"#utility.yul\":9284:9298   */\n      swap1\n      pop\n        /* \"#utility.yul\":9249:9561   */\n      jump(tag_353)\n    tag_355:\n        /* \"#utility.yul\":9253:9267   */\n      pop\n        /* \"#utility.yul\":9577:9580   */\n      dup6\n        /* \"#utility.yul\":9570:9580   */\n      swap4\n      pop\n        /* \"#utility.yul\":8956:9586   */\n      pop\n      pop\n      pop\n        /* \"#utility.yul\":8835:9586   */\n      swap3\n      swap2\n      pop\n      pop\n      jump\t// out\n        /* \"#utility.yul\":9592:9959   */\n    tag_123:\n        /* \"#utility.yul\":9732:9736   */\n      0x00\n        /* \"#utility.yul\":9770:9772   */\n      0x20\n        /* \"#utility.yul\":9759:9768   */\n      dup3\n        /* \"#utility.yul\":9755:9773   */\n      add\n        /* \"#utility.yul\":9747:9773   */\n      swap1\n      pop\n        /* \"#utility.yul\":9819:9828   */\n      dup2\n        /* \"#utility.yul\":9813:9817   */\n      dup2\n        /* \"#utility.yul\":9809:9829   */\n      sub\n        /* \"#utility.yul\":9805:9806   */\n      0x00\n        /* \"#utility.yul\":9794:9803   */\n      dup4\n        /* \"#utility.yul\":9790:9807   */\n      add\n        /* \"#utility.yul\":9783:9830   */\n      mstore\n        /* \"#utility.yul\":9847:9952   */\n      tag_360\n        /* \"#utility.yul\":9947:9951   */\n      dup2\n        /* \"#utility.yul\":9938:9944   */\n      dup5\n        /* \"#utility.yul\":9847:9952   */\n      tag_237\n      jump\t// in\n    tag_360:\n        /* \"#utility.yul\":9839:9952   */\n      swap1\n      pop\n        /* \"#utility.yul\":9592:9959   */\n      swap3\n      swap2\n      pop\n      pop\n      jump\t// out\n        /* \"#utility.yul\":9965:10055   */\n    tag_238:\n        /* \"#utility.yul\":9999:10006   */\n      0x00\n        /* \"#utility.yul\":10042:10047   */\n      dup2\n        /* \"#utility.yul\":10035:10048   */\n      iszero\n        /* \"#utility.yul\":10028:10049   */\n      iszero\n        /* \"#utility.yul\":10017:10049   */\n      swap1\n      pop\n        /* \"#utility.yul\":9965:10055   */\n      swap2\n      swap1\n      pop\n      jump\t// out\n        /* \"#utility.yul\":10061:10177   */\n    tag_239:\n        /* \"#utility.yul\":10131:10152   */\n      tag_363\n        /* \"#utility.yul\":10146:10151   */\n      dup2\n        /* \"#utility.yul\":10131:10152   */\n      tag_238\n      jump\t// in\n    tag_363:\n        /* \"#utility.yul\":10124:10129   */\n      dup2\n        /* \"#utility.yul\":10121:10153   */\n      eq\n        /* \"#utility.yul\":10111:10171   */\n      tag_364\n      jumpi\n        /* \"#utility.yul\":10167:10168   */\n      0x00\n        /* \"#utility.yul\":10164:10165   */\n      dup1\n        /* \"#utility.yul\":10157:10169   */\n      revert\n        /* \"#utility.yul\":10111:10171   */\n    tag_364:\n        /* \"#utility.yul\":10061:10177   */\n      pop\n      jump\t// out\n        /* \"#utility.yul\":10183:10320   */\n    tag_240:\n        /* \"#utility.yul\":10237:10242   */\n      0x00\n        /* \"#utility.yul\":10268:10274   */\n      dup2\n        /* \"#utility.yul\":10262:10275   */\n      mload\n        /* \"#utility.yul\":10253:10275   */\n      swap1\n      pop\n        /* \"#utility.yul\":10284:10314   */\n      tag_366\n        /* \"#utility.yul\":10308:10313   */\n      dup2\n        /* \"#utility.yul\":10284:10314   */\n      tag_239\n      jump\t// in\n    tag_366:\n        /* \"#utility.yul\":10183:10320   */\n      swap3\n      swap2\n      pop\n      pop\n      jump\t// out\n        /* \"#utility.yul\":10326:10671   */\n    tag_127:\n        /* \"#utility.yul\":10393:10399   */\n      0x00\n        /* \"#utility.yul\":10442:10444   */\n      0x20\n        /* \"#utility.yul\":10430:10439   */\n      dup3\n        /* \"#utility.yul\":10421:10428   */\n      dup5\n        /* \"#utility.yul\":10417:10440   */\n      sub\n        /* \"#utility.yul\":10413:10445   */\n      slt\n        /* \"#utility.yul\":10410:10529   */\n      iszero\n      tag_368\n      jumpi\n        /* \"#utility.yul\":10448:10527   */\n      tag_369\n      tag_204\n      jump\t// in\n    tag_369:\n        /* \"#utility.yul\":10410:10529   */\n    tag_368:\n        /* \"#utility.yul\":10568:10569   */\n      0x00\n        /* \"#utility.yul\":10593:10654   */\n      tag_370\n        /* \"#utility.yul\":10646:10653   */\n      dup5\n        /* \"#utility.yul\":10637:10643   */\n      dup3\n        /* \"#utility.yul\":10626:10635   */\n      dup6\n        /* \"#utility.yul\":10622:10644   */\n      add\n        /* \"#utility.yul\":10593:10654   */\n      tag_240\n      jump\t// in\n    tag_370:\n        /* \"#utility.yul\":10583:10654   */\n      swap2\n      pop\n        /* \"#utility.yul\":10539:10664   */\n      pop\n        /* \"#utility.yul\":10326:10671   */\n      swap3\n      swap2\n      pop\n      pop\n      jump\t// out\n        /* \"#utility.yul\":10677:10820   */\n    tag_241:\n        /* \"#utility.yul\":10734:10739   */\n      0x00\n        /* \"#utility.yul\":10765:10771   */\n      dup2\n        /* \"#utility.yul\":10759:10772   */\n      mload\n        /* \"#utility.yul\":10750:10772   */\n      swap1\n      pop\n        /* \"#utility.yul\":10781:10814   */\n      tag_372\n        /* \"#utility.yul\":10808:10813   */\n      dup2\n        /* \"#utility.yul\":10781:10814   */\n      tag_215\n      jump\t// in\n    tag_372:\n        /* \"#utility.yul\":10677:10820   */\n      swap3\n      swap2\n      pop\n      pop\n      jump\t// out\n        /* \"#utility.yul\":10826:11177   */\n    tag_131:\n        /* \"#utility.yul\":10896:10902   */\n      0x00\n        /* \"#utility.yul\":10945:10947   */\n      0x20\n        /* \"#utility.yul\":10933:10942   */\n      dup3\n        /* \"#utility.yul\":10924:10931   */\n      dup5\n        /* \"#utility.yul\":10920:10943   */\n      sub\n        /* \"#utility.yul\":10916:10948   */\n      slt\n        /* \"#utility.yul\":10913:11032   */\n      iszero\n      tag_374\n      jumpi\n        /* \"#utility.yul\":10951:11030   */\n      tag_375\n      tag_204\n      jump\t// in\n    tag_375:\n        /* \"#utility.yul\":10913:11032   */\n    tag_374:\n        /* \"#utility.yul\":11071:11072   */\n      0x00\n        /* \"#utility.yul\":11096:11160   */\n      tag_376\n        /* \"#utility.yul\":11152:11159   */\n      dup5\n        /* \"#utility.yul\":11143:11149   */\n      dup3\n        /* \"#utility.yul\":11132:11141   */\n      dup6\n        /* \"#utility.yul\":11128:11150   */\n      add\n        /* \"#utility.yul\":11096:11160   */\n      tag_241\n      jump\t// in\n    tag_376:\n        /* \"#utility.yul\":11086:11160   */\n      swap2\n      pop\n        /* \"#utility.yul\":11042:11170   */\n      pop\n        /* \"#utility.yul\":10826:11177   */\n      swap3\n      swap2\n      pop\n      pop\n      jump\t// out\n        /* \"#utility.yul\":11183:11363   */\n    tag_242:\n        /* \"#utility.yul\":11231:11308   */\n      0x4e487b7100000000000000000000000000000000000000000000000000000000\n        /* \"#utility.yul\":11228:11229   */\n      0x00\n        /* \"#utility.yul\":11221:11309   */\n      mstore\n        /* \"#utility.yul\":11328:11332   */\n      0x12\n        /* \"#utility.yul\":11325:11326   */\n      0x04\n        /* \"#utility.yul\":11318:11333   */\n      mstore\n        /* \"#utility.yul\":11352:11356   */\n      0x24\n        /* \"#utility.yul\":11349:11350   */\n      0x00\n        /* \"#utility.yul\":11342:11357   */\n      revert\n        /* \"#utility.yul\":11369:11549   */\n    tag_243:\n        /* \"#utility.yul\":11417:11494   */\n      0x4e487b7100000000000000000000000000000000000000000000000000000000\n        /* \"#utility.yul\":11414:11415   */\n      0x00\n        /* \"#utility.yul\":11407:11495   */\n      mstore\n        /* \"#utility.yul\":11514:11518   */\n      0x11\n        /* \"#utility.yul\":11511:11512   */\n      0x04\n        /* \"#utility.yul\":11504:11519   */\n      mstore\n        /* \"#utility.yul\":11538:11542   */\n      0x24\n        /* \"#utility.yul\":11535:11536   */\n      0x00\n        /* \"#utility.yul\":11528:11543   */\n      revert\n        /* \"#utility.yul\":11555:11740   */\n    tag_140:\n        /* \"#utility.yul\":11595:11596   */\n      0x00\n        /* \"#utility.yul\":11612:11632   */\n      tag_380\n        /* \"#utility.yul\":11630:11631   */\n      dup3\n        /* \"#utility.yul\":11612:11632   */\n      tag_206\n      jump\t// in\n    tag_380:\n        /* \"#utility.yul\":11607:11632   */\n      swap2\n      pop\n        /* \"#utility.yul\":11646:11666   */\n      tag_381\n        /* \"#utility.yul\":11664:11665   */\n      dup4\n        /* \"#utility.yul\":11646:11666   */\n      tag_206\n      jump\t// in\n    tag_381:\n        /* \"#utility.yul\":11641:11666   */\n      swap3\n      pop\n        /* \"#utility.yul\":11685:11686   */\n      dup3\n        /* \"#utility.yul\":11675:11710   */\n      tag_382\n      jumpi\n        /* \"#utility.yul\":11690:11708   */\n      tag_383\n      tag_242\n      jump\t// in\n    tag_383:\n        /* \"#utility.yul\":11675:11710   */\n    tag_382:\n        /* \"#utility.yul\":11732:11733   */\n      dup3\n        /* \"#utility.yul\":11729:11730   */\n      dup3\n        /* \"#utility.yul\":11725:11734   */\n      div\n        /* \"#utility.yul\":11720:11734   */\n      swap1\n      pop\n        /* \"#utility.yul\":11555:11740   */\n      swap3\n      swap2\n      pop\n      pop\n      jump\t// out\n        /* \"#utility.yul\":11746:12094   */\n    tag_142:\n        /* \"#utility.yul\":11786:11793   */\n      0x00\n        /* \"#utility.yul\":11809:11829   */\n      tag_385\n        /* \"#utility.yul\":11827:11828   */\n      dup3\n        /* \"#utility.yul\":11809:11829   */\n      tag_206\n      jump\t// in\n    tag_385:\n        /* \"#utility.yul\":11804:11829   */\n      swap2\n      pop\n        /* \"#utility.yul\":11843:11863   */\n      tag_386\n        /* \"#utility.yul\":11861:11862   */\n      dup4\n        /* \"#utility.yul\":11843:11863   */\n      tag_206\n      jump\t// in\n    tag_386:\n        /* \"#utility.yul\":11838:11863   */\n      swap3\n      pop\n        /* \"#utility.yul\":12031:12032   */\n      dup2\n        /* \"#utility.yul\":11963:12029   */\n      0xffffffffffffffffffffffffffffffffffffffffffffffffffffffffffffffff\n        /* \"#utility.yul\":11959:12033   */\n      div\n        /* \"#utility.yul\":11956:11957   */\n      dup4\n        /* \"#utility.yul\":11953:12034   */\n      gt\n        /* \"#utility.yul\":11948:11949   */\n      dup3\n        /* \"#utility.yul\":11941:11950   */\n      iszero\n        /* \"#utility.yul\":11934:11951   */\n      iszero\n        /* \"#utility.yul\":11930:12035   */\n      and\n        /* \"#utility.yul\":11927:12058   */\n      iszero\n      tag_387\n      jumpi\n        /* \"#utility.yul\":12038:12056   */\n      tag_388\n      tag_243\n      jump\t// in\n    tag_388:\n        /* \"#utility.yul\":11927:12058   */\n    tag_387:\n        /* \"#utility.yul\":12086:12087   */\n      dup3\n        /* \"#utility.yul\":12083:12084   */\n      dup3\n        /* \"#utility.yul\":12079:12088   */\n      mul\n        /* \"#utility.yul\":12068:12088   */\n      swap1\n      pop\n        /* \"#utility.yul\":11746:12094   */\n      swap3\n      swap2\n      pop\n      pop\n      jump\t// out\n        /* \"#utility.yul\":12100:12273   */\n    tag_244:\n        /* \"#utility.yul\":12240:12265   */\n      0x73656e64657220616c7265616479206861732061204354000000000000000000\n        /* \"#utility.yul\":12236:12237   */\n      0x00\n        /* \"#utility.yul\":12228:12234   */\n      dup3\n        /* \"#utility.yul\":12224:12238   */\n      add\n        /* \"#utility.yul\":12217:12266   */\n      mstore\n        /* \"#utility.yul\":12100:12273   */\n      pop\n      jump\t// out\n        /* \"#utility.yul\":12279:12645   */\n    tag_245:\n        /* \"#utility.yul\":12421:12424   */\n      0x00\n        /* \"#utility.yul\":12442:12509   */\n      tag_391\n        /* \"#utility.yul\":12506:12508   */\n      0x17\n        /* \"#utility.yul\":12501:12504   */\n      dup4\n        /* \"#utility.yul\":12442:12509   */\n      tag_224\n      jump\t// in\n    tag_391:\n        /* \"#utility.yul\":12435:12509   */\n      swap2\n      pop\n        /* \"#utility.yul\":12518:12611   */\n      tag_392\n        /* \"#utility.yul\":12607:12610   */\n      dup3\n        /* \"#utility.yul\":12518:12611   */\n      tag_244\n      jump\t// in\n    tag_392:\n        /* \"#utility.yul\":12636:12638   */\n      0x20\n        /* \"#utility.yul\":12631:12634   */\n      dup3\n        /* \"#utility.yul\":12627:12639   */\n      add\n        /* \"#utility.yul\":12620:12639   */\n      swap1\n      pop\n        /* \"#utility.yul\":12279:12645   */\n      swap2\n      swap1\n      pop\n      jump\t// out\n        /* \"#utility.yul\":12651:13070   */\n    tag_152:\n        /* \"#utility.yul\":12817:12821   */\n      0x00\n        /* \"#utility.yul\":12855:12857   */\n      0x20\n        /* \"#utility.yul\":12844:12853   */\n      dup3\n        /* \"#utility.yul\":12840:12858   */\n      add\n        /* \"#utility.yul\":12832:12858   */\n      swap1\n      pop\n        /* \"#utility.yul\":12904:12913   */\n      dup2\n        /* \"#utility.yul\":12898:12902   */\n      dup2\n        /* \"#utility.yul\":12894:12914   */\n      sub\n        /* \"#utility.yul\":12890:12891   */\n      0x00\n        /* \"#utility.yul\":12879:12888   */\n      dup4\n        /* \"#utility.yul\":12875:12892   */\n      add\n        /* \"#utility.yul\":12868:12915   */\n      mstore\n        /* \"#utility.yul\":12932:13063   */\n      tag_394\n        /* \"#utility.yul\":13058:13062   */\n      dup2\n        /* \"#utility.yul\":12932:13063   */\n      tag_245\n      jump\t// in\n    tag_394:\n        /* \"#utility.yul\":12924:13063   */\n      swap1\n      pop\n        /* \"#utility.yul\":12651:13070   */\n      swap2\n      swap1\n      pop\n      jump\t// out\n        /* \"#utility.yul\":13076:13161   */\n    tag_246:\n        /* \"#utility.yul\":13121:13128   */\n      0x00\n        /* \"#utility.yul\":13150:13155   */\n      dup2\n        /* \"#utility.yul\":13139:13155   */\n      swap1\n      pop\n        /* \"#utility.yul\":13076:13161   */\n      swap2\n      swap1\n      pop\n      jump\t// out\n        /* \"#utility.yul\":13167:13227   */\n    tag_247:\n        /* \"#utility.yul\":13195:13198   */\n      0x00\n        /* \"#utility.yul\":13216:13221   */\n      dup2\n        /* \"#utility.yul\":13209:13221   */\n      swap1\n      pop\n        /* \"#utility.yul\":13167:13227   */\n      swap2\n      swap1\n      pop\n      jump\t// out\n        /* \"#utility.yul\":13233:13391   */\n    tag_248:\n        /* \"#utility.yul\":13291:13300   */\n      0x00\n        /* \"#utility.yul\":13324:13385   */\n      tag_398\n        /* \"#utility.yul\":13342:13384   */\n      tag_399\n        /* \"#utility.yul\":13351:13383   */\n      tag_400\n        /* \"#utility.yul\":13377:13382   */\n      dup5\n        /* \"#utility.yul\":13351:13383   */\n      tag_246\n      jump\t// in\n    tag_400:\n        /* \"#utility.yul\":13342:13384   */\n      tag_247\n      jump\t// in\n    tag_399:\n        /* \"#utility.yul\":13324:13385   */\n      tag_206\n      jump\t// in\n    tag_398:\n        /* \"#utility.yul\":13311:13385   */\n      swap1\n      pop\n        /* \"#utility.yul\":13233:13391   */\n      swap2\n      swap1\n      pop\n      jump\t// out\n        /* \"#utility.yul\":13397:13544   */\n    tag_249:\n        /* \"#utility.yul\":13492:13537   */\n      tag_402\n        /* \"#utility.yul\":13531:13536   */\n      dup2\n        /* \"#utility.yul\":13492:13537   */\n      tag_248\n      jump\t// in\n    tag_402:\n        /* \"#utility.yul\":13487:13490   */\n      dup3\n        /* \"#utility.yul\":13480:13538   */\n      mstore\n        /* \"#utility.yul\":13397:13544   */\n      pop\n      pop\n      jump\t// out\n        /* \"#utility.yul\":13550:13898   */\n    tag_154:\n        /* \"#utility.yul\":13679:13683   */\n      0x00\n        /* \"#utility.yul\":13717:13719   */\n      0x40\n        /* \"#utility.yul\":13706:13715   */\n      dup3\n        /* \"#utility.yul\":13702:13720   */\n      add\n        /* \"#utility.yul\":13694:13720   */\n      swap1\n      pop\n        /* \"#utility.yul\":13730:13801   */\n      tag_404\n        /* \"#utility.yul\":13798:13799   */\n      0x00\n        /* \"#utility.yul\":13787:13796   */\n      dup4\n        /* \"#utility.yul\":13783:13800   */\n      add\n        /* \"#utility.yul\":13774:13780   */\n      dup6\n        /* \"#utility.yul\":13730:13801   */\n      tag_214\n      jump\t// in\n    tag_404:\n        /* \"#utility.yul\":13811:13891   */\n      tag_405\n        /* \"#utility.yul\":13887:13889   */\n      0x20\n        /* \"#utility.yul\":13876:13885   */\n      dup4\n        /* \"#utility.yul\":13872:13890   */\n      add\n        /* \"#utility.yul\":13863:13869   */\n      dup5\n        /* \"#utility.yul\":13811:13891   */\n      tag_249\n      jump\t// in\n    tag_405:\n        /* \"#utility.yul\":13550:13898   */\n      swap4\n      swap3\n      pop\n      pop\n      pop\n      jump\t// out\n        /* \"#utility.yul\":13904:14021   */\n    tag_250:\n        /* \"#utility.yul\":14013:14014   */\n      0x00\n        /* \"#utility.yul\":14010:14011   */\n      dup1\n        /* \"#utility.yul\":14003:14015   */\n      revert\n        /* \"#utility.yul\":14027:14129   */\n    tag_251:\n        /* \"#utility.yul\":14068:14074   */\n      0x00\n        /* \"#utility.yul\":14119:14121   */\n      0x1f\n        /* \"#utility.yul\":14115:14122   */\n      not\n        /* \"#utility.yul\":14110:14112   */\n      0x1f\n        /* \"#utility.yul\":14103:14108   */\n      dup4\n        /* \"#utility.yul\":14099:14113   */\n      add\n        /* \"#utility.yul\":14095:14123   */\n      and\n        /* \"#utility.yul\":14085:14123   */\n      swap1\n      pop\n        /* \"#utility.yul\":14027:14129   */\n      swap2\n      swap1\n      pop\n      jump\t// out\n        /* \"#utility.yul\":14135:14315   */\n    tag_252:\n        /* \"#utility.yul\":14183:14260   */\n      0x4e487b7100000000000000000000000000000000000000000000000000000000\n        /* \"#utility.yul\":14180:14181   */\n      0x00\n        /* \"#utility.yul\":14173:14261   */\n      mstore\n        /* \"#utility.yul\":14280:14284   */\n      0x41\n        /* \"#utility.yul\":14277:14278   */\n      0x04\n        /* \"#utility.yul\":14270:14285   */\n      mstore\n        /* \"#utility.yul\":14304:14308   */\n      0x24\n        /* \"#utility.yul\":14301:14302   */\n      0x00\n        /* \"#utility.yul\":14294:14309   */\n      revert\n        /* \"#utility.yul\":14321:14602   */\n    tag_253:\n        /* \"#utility.yul\":14404:14431   */\n      tag_410\n        /* \"#utility.yul\":14426:14430   */\n      dup3\n        /* \"#utility.yul\":14404:14431   */\n      tag_251\n      jump\t// in\n    tag_410:\n        /* \"#utility.yul\":14396:14402   */\n      dup2\n        /* \"#utility.yul\":14392:14432   */\n      add\n        /* \"#utility.yul\":14534:14540   */\n      dup2\n        /* \"#utility.yul\":14522:14532   */\n      dup2\n        /* \"#utility.yul\":14519:14541   */\n      lt\n        /* \"#utility.yul\":14498:14516   */\n      0xffffffffffffffff\n        /* \"#utility.yul\":14486:14496   */\n      dup3\n        /* \"#utility.yul\":14483:14517   */\n      gt\n        /* \"#utility.yul\":14480:14542   */\n      or\n        /* \"#utility.yul\":14477:14565   */\n      iszero\n      tag_411\n      jumpi\n        /* \"#utility.yul\":14545:14563   */\n      tag_412\n      tag_252\n      jump\t// in\n    tag_412:\n        /* \"#utility.yul\":14477:14565   */\n    tag_411:\n        /* \"#utility.yul\":14585:14595   */\n      dup1\n        /* \"#utility.yul\":14581:14583   */\n      0x40\n        /* \"#utility.yul\":14574:14596   */\n      mstore\n        /* \"#utility.yul\":14364:14602   */\n      pop\n        /* \"#utility.yul\":14321:14602   */\n      pop\n      pop\n      jump\t// out\n        /* \"#utility.yul\":14608:14737   */\n    tag_254:\n        /* \"#utility.yul\":14642:14648   */\n      0x00\n        /* \"#utility.yul\":14669:14689   */\n      tag_414\n      tag_203\n      jump\t// in\n    tag_414:\n        /* \"#utility.yul\":14659:14689   */\n      swap1\n      pop\n        /* \"#utility.yul\":14698:14731   */\n      tag_415\n        /* \"#utility.yul\":14726:14730   */\n      dup3\n        /* \"#utility.yul\":14718:14724   */\n      dup3\n        /* \"#utility.yul\":14698:14731   */\n      tag_253\n      jump\t// in\n    tag_415:\n        /* \"#utility.yul\":14608:14737   */\n      swap2\n      swap1\n      pop\n      jump\t// out\n        /* \"#utility.yul\":14743:15054   */\n    tag_255:\n        /* \"#utility.yul\":14820:14824   */\n      0x00\n        /* \"#utility.yul\":14910:14928   */\n      0xffffffffffffffff\n        /* \"#utility.yul\":14902:14908   */\n      dup3\n        /* \"#utility.yul\":14899:14929   */\n      gt\n        /* \"#utility.yul\":14896:14952   */\n      iszero\n      tag_417\n      jumpi\n        /* \"#utility.yul\":14932:14950   */\n      tag_418\n      tag_252\n      jump\t// in\n    tag_418:\n        /* \"#utility.yul\":14896:14952   */\n    tag_417:\n        /* \"#utility.yul\":14982:14986   */\n      0x20\n        /* \"#utility.yul\":14974:14980   */\n      dup3\n        /* \"#utility.yul\":14970:14987   */\n      mul\n        /* \"#utility.yul\":14962:14987   */\n      swap1\n      pop\n        /* \"#utility.yul\":15042:15046   */\n      0x20\n        /* \"#utility.yul\":15036:15040   */\n      dup2\n        /* \"#utility.yul\":15032:15047   */\n      add\n        /* \"#utility.yul\":15024:15047   */\n      swap1\n      pop\n        /* \"#utility.yul\":14743:15054   */\n      swap2\n      swap1\n      pop\n      jump\t// out\n        /* \"#utility.yul\":15060:15177   */\n    tag_256:\n        /* \"#utility.yul\":15169:15170   */\n      0x00\n        /* \"#utility.yul\":15166:15167   */\n      dup1\n        /* \"#utility.yul\":15159:15171   */\n      revert\n        /* \"#utility.yul\":15200:15932   */\n    tag_257:\n        /* \"#utility.yul\":15307:15312   */\n      0x00\n        /* \"#utility.yul\":15332:15413   */\n      tag_421\n        /* \"#utility.yul\":15348:15412   */\n      tag_422\n        /* \"#utility.yul\":15405:15411   */\n      dup5\n        /* \"#utility.yul\":15348:15412   */\n      tag_255\n      jump\t// in\n    tag_422:\n        /* \"#utility.yul\":15332:15413   */\n      tag_254\n      jump\t// in\n    tag_421:\n        /* \"#utility.yul\":15323:15413   */\n      swap1\n      pop\n        /* \"#utility.yul\":15433:15438   */\n      dup1\n        /* \"#utility.yul\":15462:15468   */\n      dup4\n        /* \"#utility.yul\":15455:15460   */\n      dup3\n        /* \"#utility.yul\":15448:15469   */\n      mstore\n        /* \"#utility.yul\":15496:15500   */\n      0x20\n        /* \"#utility.yul\":15489:15494   */\n      dup3\n        /* \"#utility.yul\":15485:15501   */\n      add\n        /* \"#utility.yul\":15478:15501   */\n      swap1\n      pop\n        /* \"#utility.yul\":15549:15553   */\n      0x20\n        /* \"#utility.yul\":15541:15547   */\n      dup5\n        /* \"#utility.yul\":15537:15554   */\n      mul\n        /* \"#utility.yul\":15529:15535   */\n      dup4\n        /* \"#utility.yul\":15525:15555   */\n      add\n        /* \"#utility.yul\":15578:15581   */\n      dup6\n        /* \"#utility.yul\":15570:15576   */\n      dup2\n        /* \"#utility.yul\":15567:15582   */\n      gt\n        /* \"#utility.yul\":15564:15686   */\n      iszero\n      tag_423\n      jumpi\n        /* \"#utility.yul\":15597:15676   */\n      tag_424\n      tag_256\n      jump\t// in\n    tag_424:\n        /* \"#utility.yul\":15564:15686   */\n    tag_423:\n        /* \"#utility.yul\":15712:15718   */\n      dup4\n        /* \"#utility.yul\":15695:15926   */\n    tag_425:\n        /* \"#utility.yul\":15729:15735   */\n      dup2\n        /* \"#utility.yul\":15724:15727   */\n      dup2\n        /* \"#utility.yul\":15721:15736   */\n      lt\n        /* \"#utility.yul\":15695:15926   */\n      iszero\n      tag_427\n      jumpi\n        /* \"#utility.yul\":15804:15807   */\n      dup1\n        /* \"#utility.yul\":15833:15881   */\n      tag_428\n        /* \"#utility.yul\":15877:15880   */\n      dup9\n        /* \"#utility.yul\":15865:15875   */\n      dup3\n        /* \"#utility.yul\":15833:15881   */\n      tag_241\n      jump\t// in\n    tag_428:\n        /* \"#utility.yul\":15828:15831   */\n      dup5\n        /* \"#utility.yul\":15821:15882   */\n      mstore\n        /* \"#utility.yul\":15911:15915   */\n      0x20\n        /* \"#utility.yul\":15906:15909   */\n      dup5\n        /* \"#utility.yul\":15902:15916   */\n      add\n        /* \"#utility.yul\":15895:15916   */\n      swap4\n      pop\n        /* \"#utility.yul\":15771:15926   */\n      pop\n        /* \"#utility.yul\":15755:15759   */\n      0x20\n        /* \"#utility.yul\":15750:15753   */\n      dup2\n        /* \"#utility.yul\":15746:15760   */\n      add\n        /* \"#utility.yul\":15739:15760   */\n      swap1\n      pop\n        /* \"#utility.yul\":15695:15926   */\n      jump(tag_425)\n    tag_427:\n        /* \"#utility.yul\":15699:15720   */\n      pop\n        /* \"#utility.yul\":15313:15932   */\n      pop\n      pop\n        /* \"#utility.yul\":15200:15932   */\n      swap4\n      swap3\n      pop\n      pop\n      pop\n      jump\t// out\n        /* \"#utility.yul\":15955:16340   */\n    tag_258:\n        /* \"#utility.yul\":16037:16042   */\n      0x00\n        /* \"#utility.yul\":16086:16089   */\n      dup3\n        /* \"#utility.yul\":16079:16083   */\n      0x1f\n        /* \"#utility.yul\":16071:16077   */\n      dup4\n        /* \"#utility.yul\":16067:16084   */\n      add\n        /* \"#utility.yul\":16063:16090   */\n      slt\n        /* \"#utility.yul\":16053:16175   */\n      tag_430\n      jumpi\n        /* \"#utility.yul\":16094:16173   */\n      tag_431\n      tag_250\n      jump\t// in\n    tag_431:\n        /* \"#utility.yul\":16053:16175   */\n    tag_430:\n        /* \"#utility.yul\":16204:16210   */\n      dup2\n        /* \"#utility.yul\":16198:16211   */\n      mload\n        /* \"#utility.yul\":16229:16334   */\n      tag_432\n        /* \"#utility.yul\":16330:16333   */\n      dup5\n        /* \"#utility.yul\":16322:16328   */\n      dup3\n        /* \"#utility.yul\":16315:16319   */\n      0x20\n        /* \"#utility.yul\":16307:16313   */\n      dup7\n        /* \"#utility.yul\":16303:16320   */\n      add\n        /* \"#utility.yul\":16229:16334   */\n      tag_257\n      jump\t// in\n    tag_432:\n        /* \"#utility.yul\":16220:16334   */\n      swap2\n      pop\n        /* \"#utility.yul\":16043:16340   */\n      pop\n        /* \"#utility.yul\":15955:16340   */\n      swap3\n      swap2\n      pop\n      pop\n      jump\t// out\n        /* \"#utility.yul\":16346:16900   */\n    tag_171:\n        /* \"#utility.yul\":16441:16447   */\n      0x00\n        /* \"#utility.yul\":16490:16492   */\n      0x20\n        /* \"#utility.yul\":16478:16487   */\n      dup3\n        /* \"#utility.yul\":16469:16476   */\n      dup5\n        /* \"#utility.yul\":16465:16488   */\n      sub\n        /* \"#utility.yul\":16461:16493   */\n      slt\n        /* \"#utility.yul\":16458:16577   */\n      iszero\n      tag_434\n      jumpi\n        /* \"#utility.yul\":16496:16575   */\n      tag_435\n      tag_204\n      jump\t// in\n    tag_435:\n        /* \"#utility.yul\":16458:16577   */\n    tag_434:\n        /* \"#utility.yul\":16637:16638   */\n      0x00\n        /* \"#utility.yul\":16626:16635   */\n      dup3\n        /* \"#utility.yul\":16622:16639   */\n      add\n        /* \"#utility.yul\":16616:16640   */\n      mload\n        /* \"#utility.yul\":16667:16685   */\n      0xffffffffffffffff\n        /* \"#utility.yul\":16659:16665   */\n      dup2\n        /* \"#utility.yul\":16656:16686   */\n      gt\n        /* \"#utility.yul\":16653:16770   */\n      iszero\n      tag_436\n      jumpi\n        /* \"#utility.yul\":16689:16768   */\n      tag_437\n      tag_205\n      jump\t// in\n    tag_437:\n        /* \"#utility.yul\":16653:16770   */\n    tag_436:\n        /* \"#utility.yul\":16794:16883   */\n      tag_438\n        /* \"#utility.yul\":16875:16882   */\n      dup5\n        /* \"#utility.yul\":16866:16872   */\n      dup3\n        /* \"#utility.yul\":16855:16864   */\n      dup6\n        /* \"#utility.yul\":16851:16873   */\n      add\n        /* \"#utility.yul\":16794:16883   */\n      tag_258\n      jump\t// in\n    tag_438:\n        /* \"#utility.yul\":16784:16883   */\n      swap2\n      pop\n        /* \"#utility.yul\":16587:16893   */\n      pop\n        /* \"#utility.yul\":16346:16900   */\n      swap3\n      swap2\n      pop\n      pop\n      jump\t// out\n        /* \"#utility.yul\":16906:17083   */\n    tag_259:\n        /* \"#utility.yul\":17046:17075   */\n      0x496e76657374206d696e696d756d206f6620302e312065746865720000000000\n        /* \"#utility.yul\":17042:17043   */\n      0x00\n        /* \"#utility.yul\":17034:17040   */\n      dup3\n        /* \"#utility.yul\":17030:17044   */\n      add\n        /* \"#utility.yul\":17023:17076   */\n      mstore\n        /* \"#utility.yul\":16906:17083   */\n      pop\n      jump\t// out\n        /* \"#utility.yul\":17089:17455   */\n    tag_260:\n        /* \"#utility.yul\":17231:17234   */\n      0x00\n        /* \"#utility.yul\":17252:17319   */\n      tag_441\n        /* \"#utility.yul\":17316:17318   */\n      0x1b\n        /* \"#utility.yul\":17311:17314   */\n      dup4\n        /* \"#utility.yul\":17252:17319   */\n      tag_224\n      jump\t// in\n    tag_441:\n        /* \"#utility.yul\":17245:17319   */\n      swap2\n      pop\n        /* \"#utility.yul\":17328:17421   */\n      tag_442\n        /* \"#utility.yul\":17417:17420   */\n      dup3\n        /* \"#utility.yul\":17328:17421   */\n      tag_259\n      jump\t// in\n    tag_442:\n        /* \"#utility.yul\":17446:17448   */\n      0x20\n        /* \"#utility.yul\":17441:17444   */\n      dup3\n        /* \"#utility.yul\":17437:17449   */\n      add\n        /* \"#utility.yul\":17430:17449   */\n      swap1\n      pop\n        /* \"#utility.yul\":17089:17455   */\n      swap2\n      swap1\n      pop\n      jump\t// out\n        /* \"#utility.yul\":17461:17880   */\n    tag_188:\n        /* \"#utility.yul\":17627:17631   */\n      0x00\n        /* \"#utility.yul\":17665:17667   */\n      0x20\n        /* \"#utility.yul\":17654:17663   */\n      dup3\n        /* \"#utility.yul\":17650:17668   */\n      add\n        /* \"#utility.yul\":17642:17668   */\n      swap1\n      pop\n        /* \"#utility.yul\":17714:17723   */\n      dup2\n        /* \"#utility.yul\":17708:17712   */\n      dup2\n        /* \"#utility.yul\":17704:17724   */\n      sub\n        /* \"#utility.yul\":17700:17701   */\n      0x00\n        /* \"#utility.yul\":17689:17698   */\n      dup4\n        /* \"#utility.yul\":17685:17702   */\n      add\n        /* \"#utility.yul\":17678:17725   */\n      mstore\n        /* \"#utility.yul\":17742:17873   */\n      tag_444\n        /* \"#utility.yul\":17868:17872   */\n      dup2\n        /* \"#utility.yul\":17742:17873   */\n      tag_260\n      jump\t// in\n    tag_444:\n        /* \"#utility.yul\":17734:17873   */\n      swap1\n      pop\n        /* \"#utility.yul\":17461:17880   */\n      swap2\n      swap1\n      pop\n      jump\t// out\n        /* \"#utility.yul\":17886:18218   */\n    tag_191:\n        /* \"#utility.yul\":18007:18011   */\n      0x00\n        /* \"#utility.yul\":18045:18047   */\n      0x40\n        /* \"#utility.yul\":18034:18043   */\n      dup3\n        /* \"#utility.yul\":18030:18048   */\n      add\n        /* \"#utility.yul\":18022:18048   */\n      swap1\n      pop\n        /* \"#utility.yul\":18058:18129   */\n      tag_446\n        /* \"#utility.yul\":18126:18127   */\n      0x00\n        /* \"#utility.yul\":18115:18124   */\n      dup4\n        /* \"#utility.yul\":18111:18128   */\n      add\n        /* \"#utility.yul\":18102:18108   */\n      dup6\n        /* \"#utility.yul\":18058:18129   */\n      tag_214\n      jump\t// in\n    tag_446:\n        /* \"#utility.yul\":18139:18211   */\n      tag_447\n        /* \"#utility.yul\":18207:18209   */\n      0x20\n        /* \"#utility.yul\":18196:18205   */\n      dup4\n        /* \"#utility.yul\":18192:18210   */\n      add\n        /* \"#utility.yul\":18183:18189   */\n      dup5\n        /* \"#utility.yul\":18139:18211   */\n      tag_214\n      jump\t// in\n    tag_447:\n        /* \"#utility.yul\":17886:18218   */\n      swap4\n      swap3\n      pop\n      pop\n      pop\n      jump\t// out\n\n    auxdata: 0xa26469706673582212208feca35d24302ea67bf309e3b64b0856350b84451a9711416b4f4777b222a67a64736f6c634300080d0033\n}\n",
				"bytecode": {
					"linkReferences": {},
					"object": "60806040526001600860006101000a81548160ff0219169083151502179055504260095534801561002f57600080fd5b50336000806101000a81548173ffffffffffffffffffffffffffffffffffffffff021916908373ffffffffffffffffffffffffffffffffffffffff160217905550611a778061007f6000396000f3fe60806040526004361061011f5760003560e01c80638d6a8b80116100a0578063c236b4c311610064578063c236b4c314610366578063cad65b7014610391578063d1286e651461039b578063da58c7d9146103c6578063ed88c68e146104035761011f565b80638d6a8b801461029357806399e7f8c2146102be5780639e992987146102d5578063ac62f566146102fe578063acc9c6b41461033b5761011f565b80635bc036c4116100e75780635bc036c41461020057806378e979251461020a5780637c4444ff1461023557806382caff481461023f57806386e899a2146102685761011f565b8063107046bd1461012457806312065fe0146101615780632e708fa81461018c57806354235142146101b7578063583fa3a8146101e2575b600080fd5b34801561013057600080fd5b5061014b600480360381019061014691906110f3565b61040d565b6040516101589190611161565b60405180910390f35b34801561016d57600080fd5b5061017661044c565b604051610183919061118b565b60405180910390f35b34801561019857600080fd5b506101a1610454565b6040516101ae91906111c7565b60405180910390f35b3480156101c357600080fd5b506101cc61047a565b6040516101d9919061118b565b60405180910390f35b6101ea61059e565b6040516101f791906111c7565b60405180910390f35b610208610774565b005b34801561021657600080fd5b5061021f6108e7565b60405161022c919061118b565b60405180910390f35b61023d6108ed565b005b34801561024b57600080fd5b506102666004803603810190610261919061120e565b610a59565b005b34801561027457600080fd5b5061027d610a9d565b60405161028a919061118b565b60405180910390f35b34801561029f57600080fd5b506102a8610b3c565b6040516102b591906111c7565b60405180910390f35b3480156102ca57600080fd5b506102d3610b62565b005b3480156102e157600080fd5b506102fc60048036038101906102f7919061120e565b610b7f565b005b34801561030a57600080fd5b50610325600480360381019061032091906110f3565b610bc3565b60405161033291906111c7565b60405180910390f35b34801561034757600080fd5b50610350610c02565b60405161035d91906112f9565b60405180910390f35b34801561037257600080fd5b5061037b610d44565b6040516103889190611161565b60405180910390f35b610399610d6a565b005b3480156103a757600080fd5b506103b0610e56565b6040516103bd91906111c7565b60405180910390f35b3480156103d257600080fd5b506103ed60048036038101906103e891906110f3565b610e7a565b6040516103fa91906111c7565b60405180910390f35b61040b610eb9565b005b6003818154811061041d57600080fd5b906000526020600020016000915054906101000a900473ffffffffffffffffffffffffffffffffffffffff1681565b600047905090565b600460009054906101000a900473ffffffffffffffffffffffffffffffffffffffff1681565b60008060009054906101000a900473ffffffffffffffffffffffffffffffffffffffff1673ffffffffffffffffffffffffffffffffffffffff163373ffffffffffffffffffffffffffffffffffffffff161461050b576040517f08c379a00000000000000000000000000000000000000000000000000000000081526004016105029061139e565b60405180910390fd5b73b302f922b24420f3a3048dddc4e2761ce37ea09873ffffffffffffffffffffffffffffffffffffffff166370a08231306040518263ffffffff1660e01b815260040161055891906111c7565b602060405180830381865afa158015610575573d6000803e3d6000fd5b505050506040513d601f19601f8201168201806040525081019061059991906113d3565b905090565b6000801515600860009054906101000a900460ff161515146105f5576040517f08c379a00000000000000000000000000000000000000000000000000000000081526004016105ec90611472565b60405180910390fd5b6000600560009054906101000a900473ffffffffffffffffffffffffffffffffffffffff1690508073ffffffffffffffffffffffffffffffffffffffff1663c129800d60016040518263ffffffff1660e01b8152600401610656919061157e565b6020604051808303816000875af1158015610675573d6000803e3d6000fd5b505050506040513d601f19601f8201168201806040525081019061069991906115d8565b508073ffffffffffffffffffffffffffffffffffffffff16638e7ea5b26040518163ffffffff1660e01b81526004016020604051808303816000875af11580156106e7573d6000803e3d6000fd5b505050506040513d601f19601f8201168201806040525081019061070b919061161a565b600660006101000a81548173ffffffffffffffffffffffffffffffffffffffff021916908373ffffffffffffffffffffffffffffffffffffffff160217905550600660009054906101000a900473ffffffffffffffffffffffffffffffffffffffff1691505090565b60001515600860009054906101000a900460ff161515146107ca576040517f08c379a00000000000000000000000000000000000000000000000000000000081526004016107c190611472565b60405180910390fd5b60008054906101000a900473ffffffffffffffffffffffffffffffffffffffff1673ffffffffffffffffffffffffffffffffffffffff163373ffffffffffffffffffffffffffffffffffffffff1614610858576040517f08c379a000000000000000000000000000000000000000000000000000000000815260040161084f9061139e565b60405180910390fd5b60004790506000600a60648361086e91906116a5565b61087891906116d6565b9050600660009054906101000a900473ffffffffffffffffffffffffffffffffffffffff1673ffffffffffffffffffffffffffffffffffffffff166108fc829081150290604051600060405180830381858888f193505050501580156108e2573d6000803e3d6000fd5b505050565b60095481565b600073b302f922b24420f3a3048dddc4e2761ce37ea09873ffffffffffffffffffffffffffffffffffffffff166370a08231336040518263ffffffff1660e01b815260040161093c91906111c7565b602060405180830381865afa158015610959573d6000803e3d6000fd5b505050506040513d601f19601f8201168201806040525081019061097d91906113d3565b9050600081146109c2576040517f08c379a00000000000000000000000000000000000000000000000000000000081526004016109b99061177c565b60405180910390fd5b73b302f922b24420f3a3048dddc4e2761ce37ea09873ffffffffffffffffffffffffffffffffffffffff1663a9059cbb3360016040518363ffffffff1660e01b8152600401610a129291906117e1565b6020604051808303816000875af1158015610a31573d6000803e3d6000fd5b505050506040513d601f19601f82011682018060405250810190610a5591906115d8565b5050565b80600460006101000a81548173ffffffffffffffffffffffffffffffffffffffff021916908373ffffffffffffffffffffffffffffffffffffffff16021790555050565b600080600460009054906101000a900473ffffffffffffffffffffffffffffffffffffffff1690508073ffffffffffffffffffffffffffffffffffffffff166394bec0716040518163ffffffff1660e01b81526004016020604051808303816000875af1158015610b12573d6000803e3d6000fd5b505050506040513d601f19601f82011682018060405250810190610b3691906113d3565b91505090565b600560009054906101000a900473ffffffffffffffffffffffffffffffffffffffff1681565b6000600860006101000a81548160ff021916908315150217905550565b80600560006101000a81548173ffffffffffffffffffffffffffffffffffffffff021916908373ffffffffffffffffffffffffffffffffffffffff16021790555050565b60018181548110610bd357600080fd5b906000526020600020016000915054906101000a900473ffffffffffffffffffffffffffffffffffffffff1681565b60606000600460009054906101000a900473ffffffffffffffffffffffffffffffffffffffff1690508073ffffffffffffffffffffffffffffffffffffffff1663cdd722536040518163ffffffff1660e01b81526004016000604051808303816000875af1158015610c78573d6000803e3d6000fd5b505050506040513d6000823e3d601f19601f82011682018060405250810190610ca19190611963565b60029080519060200190610cb6929190611002565b506002805480602002602001604051908101604052809291908181526020018280548015610d3957602002820191906000526020600020905b8160009054906101000a900473ffffffffffffffffffffffffffffffffffffffff1673ffffffffffffffffffffffffffffffffffffffff1681526020019060010190808311610cef575b505050505091505090565b600660009054906101000a900473ffffffffffffffffffffffffffffffffffffffff1681565b60001515600860009054906101000a900460ff16151514610dc0576040517f08c379a0000000000000000000000000000000000000000000000000000000008152600401610db790611472565b60405180910390fd5b60008054906101000a900473ffffffffffffffffffffffffffffffffffffffff1673ffffffffffffffffffffffffffffffffffffffff163373ffffffffffffffffffffffffffffffffffffffff1614610e4e576040517f08c379a0000000000000000000000000000000000000000000000000000000008152600401610e459061139e565b60405180910390fd5b600047905050565b60008054906101000a900473ffffffffffffffffffffffffffffffffffffffff1681565b60028181548110610e8a57600080fd5b906000526020600020016000915054906101000a900473ffffffffffffffffffffffffffffffffffffffff1681565b67016345785d8a0000341015610f04576040517f08c379a0000000000000000000000000000000000000000000000000000000008152600401610efb906119f8565b60405180910390fd5b6001339080600181540180825580915050600190039060005260206000200160009091909190916101000a81548173ffffffffffffffffffffffffffffffffffffffff021916908373ffffffffffffffffffffffffffffffffffffffff16021790555073b302f922b24420f3a3048dddc4e2761ce37ea09873ffffffffffffffffffffffffffffffffffffffff1663dd62ed3e33306040518363ffffffff1660e01b8152600401610fb6929190611a18565b602060405180830381865afa158015610fd3573d6000803e3d6000fd5b505050506040513d601f19601f82011682018060405250810190610ff791906113d3565b506110006108ed565b565b82805482825590600052602060002090810192821561107b579160200282015b8281111561107a5782518260006101000a81548173ffffffffffffffffffffffffffffffffffffffff021916908373ffffffffffffffffffffffffffffffffffffffff16021790555091602001919060010190611022565b5b509050611088919061108c565b5090565b5b808211156110a557600081600090555060010161108d565b5090565b6000604051905090565b600080fd5b600080fd5b6000819050919050565b6110d0816110bd565b81146110db57600080fd5b50565b6000813590506110ed816110c7565b92915050565b600060208284031215611109576111086110b3565b5b6000611117848285016110de565b91505092915050565b600073ffffffffffffffffffffffffffffffffffffffff82169050919050565b600061114b82611120565b9050919050565b61115b81611140565b82525050565b60006020820190506111766000830184611152565b92915050565b611185816110bd565b82525050565b60006020820190506111a0600083018461117c565b92915050565b60006111b182611120565b9050919050565b6111c1816111a6565b82525050565b60006020820190506111dc60008301846111b8565b92915050565b6111eb816111a6565b81146111f657600080fd5b50565b600081359050611208816111e2565b92915050565b600060208284031215611224576112236110b3565b5b6000611232848285016111f9565b91505092915050565b600081519050919050565b600082825260208201905092915050565b6000819050602082019050919050565b611270816111a6565b82525050565b60006112828383611267565b60208301905092915050565b6000602082019050919050565b60006112a68261123b565b6112b08185611246565b93506112bb83611257565b8060005b838110156112ec5781516112d38882611276565b97506112de8361128e565b9250506001810190506112bf565b5085935050505092915050565b60006020820190508181036000830152611313818461129b565b905092915050565b600082825260208201905092915050565b7f6f6e6c792043686172795465616d2063616e2063616c6c20746869732066756e60008201527f6374696f6e000000000000000000000000000000000000000000000000000000602082015250565b600061138860258361131b565b91506113938261132c565b604082019050919050565b600060208201905081810360008301526113b78161137b565b9050919050565b6000815190506113cd816110c7565b92915050565b6000602082840312156113e9576113e86110b3565b5b60006113f7848285016113be565b91505092915050565b7f5370656e64656e2077657264656e206e69636874206d65687220676573616d6d60008201527f656c740000000000000000000000000000000000000000000000000000000000602082015250565b600061145c60238361131b565b915061146782611400565b604082019050919050565b6000602082019050818103600083015261148b8161144f565b9050919050565b600081549050919050565b60008190508160005260206000209050919050565b60008160001c9050919050565b600073ffffffffffffffffffffffffffffffffffffffff82169050919050565b60006114f26114ed836114b2565b6114bf565b9050919050565b600061150582546114df565b9050919050565b6000600182019050919050565b600061152482611492565b61152e8185611246565b93506115398361149d565b8060005b838110156115715761154e826114f9565b6115588882611276565b97506115638361150c565b92505060018101905061153d565b5085935050505092915050565b600060208201905081810360008301526115988184611519565b905092915050565b60008115159050919050565b6115b5816115a0565b81146115c057600080fd5b50565b6000815190506115d2816115ac565b92915050565b6000602082840312156115ee576115ed6110b3565b5b60006115fc848285016115c3565b91505092915050565b600081519050611614816111e2565b92915050565b6000602082840312156116305761162f6110b3565b5b600061163e84828501611605565b91505092915050565b7f4e487b7100000000000000000000000000000000000000000000000000000000600052601260045260246000fd5b7f4e487b7100000000000000000000000000000000000000000000000000000000600052601160045260246000fd5b60006116b0826110bd565b91506116bb836110bd565b9250826116cb576116ca611647565b5b828204905092915050565b60006116e1826110bd565b91506116ec836110bd565b9250817fffffffffffffffffffffffffffffffffffffffffffffffffffffffffffffffff048311821515161561172557611724611676565b5b828202905092915050565b7f73656e64657220616c7265616479206861732061204354000000000000000000600082015250565b600061176660178361131b565b915061177182611730565b602082019050919050565b6000602082019050818103600083015261179581611759565b9050919050565b6000819050919050565b6000819050919050565b60006117cb6117c66117c18461179c565b6117a6565b6110bd565b9050919050565b6117db816117b0565b82525050565b60006040820190506117f660008301856111b8565b61180360208301846117d2565b9392505050565b600080fd5b6000601f19601f8301169050919050565b7f4e487b7100000000000000000000000000000000000000000000000000000000600052604160045260246000fd5b6118588261180f565b810181811067ffffffffffffffff8211171561187757611876611820565b5b80604052505050565b600061188a6110a9565b9050611896828261184f565b919050565b600067ffffffffffffffff8211156118b6576118b5611820565b5b602082029050602081019050919050565b600080fd5b60006118df6118da8461189b565b611880565b90508083825260208201905060208402830185811115611902576119016118c7565b5b835b8181101561192b57806119178882611605565b845260208401935050602081019050611904565b5050509392505050565b600082601f83011261194a5761194961180a565b5b815161195a8482602086016118cc565b91505092915050565b600060208284031215611979576119786110b3565b5b600082015167ffffffffffffffff811115611997576119966110b8565b5b6119a384828501611935565b91505092915050565b7f496e76657374206d696e696d756d206f6620302e312065746865720000000000600082015250565b60006119e2601b8361131b565b91506119ed826119ac565b602082019050919050565b60006020820190508181036000830152611a11816119d5565b9050919050565b6000604082019050611a2d60008301856111b8565b611a3a60208301846111b8565b939250505056fea26469706673582212208feca35d24302ea67bf309e3b64b0856350b84451a9711416b4f4777b222a67a64736f6c634300080d0033",
					"opcodes": "PUSH1 0x80 PUSH1 0x40 MSTORE PUSH1 0x1 PUSH1 0x8 PUSH1 0x0 PUSH2 0x100 EXP DUP2 SLOAD DUP2 PUSH1 0xFF MUL NOT AND SWAP1 DUP4 ISZERO ISZERO MUL OR SWAP1 SSTORE POP TIMESTAMP PUSH1 0x9 SSTORE CALLVALUE DUP1 ISZERO PUSH2 0x2F JUMPI PUSH1 0x0 DUP1 REVERT JUMPDEST POP CALLER PUSH1 0x0 DUP1 PUSH2 0x100 EXP DUP2 SLOAD DUP2 PUSH20 0xFFFFFFFFFFFFFFFFFFFFFFFFFFFFFFFFFFFFFFFF MUL NOT AND SWAP1 DUP4 PUSH20 0xFFFFFFFFFFFFFFFFFFFFFFFFFFFFFFFFFFFFFFFF AND MUL OR SWAP1 SSTORE POP PUSH2 0x1A77 DUP1 PUSH2 0x7F PUSH1 0x0 CODECOPY PUSH1 0x0 RETURN INVALID PUSH1 0x80 PUSH1 0x40 MSTORE PUSH1 0x4 CALLDATASIZE LT PUSH2 0x11F JUMPI PUSH1 0x0 CALLDATALOAD PUSH1 0xE0 SHR DUP1 PUSH4 0x8D6A8B80 GT PUSH2 0xA0 JUMPI DUP1 PUSH4 0xC236B4C3 GT PUSH2 0x64 JUMPI DUP1 PUSH4 0xC236B4C3 EQ PUSH2 0x366 JUMPI DUP1 PUSH4 0xCAD65B70 EQ PUSH2 0x391 JUMPI DUP1 PUSH4 0xD1286E65 EQ PUSH2 0x39B JUMPI DUP1 PUSH4 0xDA58C7D9 EQ PUSH2 0x3C6 JUMPI DUP1 PUSH4 0xED88C68E EQ PUSH2 0x403 JUMPI PUSH2 0x11F JUMP JUMPDEST DUP1 PUSH4 0x8D6A8B80 EQ PUSH2 0x293 JUMPI DUP1 PUSH4 0x99E7F8C2 EQ PUSH2 0x2BE JUMPI DUP1 PUSH4 0x9E992987 EQ PUSH2 0x2D5 JUMPI DUP1 PUSH4 0xAC62F566 EQ PUSH2 0x2FE JUMPI DUP1 PUSH4 0xACC9C6B4 EQ PUSH2 0x33B JUMPI PUSH2 0x11F JUMP JUMPDEST DUP1 PUSH4 0x5BC036C4 GT PUSH2 0xE7 JUMPI DUP1 PUSH4 0x5BC036C4 EQ PUSH2 0x200 JUMPI DUP1 PUSH4 0x78E97925 EQ PUSH2 0x20A JUMPI DUP1 PUSH4 0x7C4444FF EQ PUSH2 0x235 JUMPI DUP1 PUSH4 0x82CAFF48 EQ PUSH2 0x23F JUMPI DUP1 PUSH4 0x86E899A2 EQ PUSH2 0x268 JUMPI PUSH2 0x11F JUMP JUMPDEST DUP1 PUSH4 0x107046BD EQ PUSH2 0x124 JUMPI DUP1 PUSH4 0x12065FE0 EQ PUSH2 0x161 JUMPI DUP1 PUSH4 0x2E708FA8 EQ PUSH2 0x18C JUMPI DUP1 PUSH4 0x54235142 EQ PUSH2 0x1B7 JUMPI DUP1 PUSH4 0x583FA3A8 EQ PUSH2 0x1E2 JUMPI JUMPDEST PUSH1 0x0 DUP1 REVERT JUMPDEST CALLVALUE DUP1 ISZERO PUSH2 0x130 JUMPI PUSH1 0x0 DUP1 REVERT JUMPDEST POP PUSH2 0x14B PUSH1 0x4 DUP1 CALLDATASIZE SUB DUP2 ADD SWAP1 PUSH2 0x146 SWAP2 SWAP1 PUSH2 0x10F3 JUMP JUMPDEST PUSH2 0x40D JUMP JUMPDEST PUSH1 0x40 MLOAD PUSH2 0x158 SWAP2 SWAP1 PUSH2 0x1161 JUMP JUMPDEST PUSH1 0x40 MLOAD DUP1 SWAP2 SUB SWAP1 RETURN JUMPDEST CALLVALUE DUP1 ISZERO PUSH2 0x16D JUMPI PUSH1 0x0 DUP1 REVERT JUMPDEST POP PUSH2 0x176 PUSH2 0x44C JUMP JUMPDEST PUSH1 0x40 MLOAD PUSH2 0x183 SWAP2 SWAP1 PUSH2 0x118B JUMP JUMPDEST PUSH1 0x40 MLOAD DUP1 SWAP2 SUB SWAP1 RETURN JUMPDEST CALLVALUE DUP1 ISZERO PUSH2 0x198 JUMPI PUSH1 0x0 DUP1 REVERT JUMPDEST POP PUSH2 0x1A1 PUSH2 0x454 JUMP JUMPDEST PUSH1 0x40 MLOAD PUSH2 0x1AE SWAP2 SWAP1 PUSH2 0x11C7 JUMP JUMPDEST PUSH1 0x40 MLOAD DUP1 SWAP2 SUB SWAP1 RETURN JUMPDEST CALLVALUE DUP1 ISZERO PUSH2 0x1C3 JUMPI PUSH1 0x0 DUP1 REVERT JUMPDEST POP PUSH2 0x1CC PUSH2 0x47A JUMP JUMPDEST PUSH1 0x40 MLOAD PUSH2 0x1D9 SWAP2 SWAP1 PUSH2 0x118B JUMP JUMPDEST PUSH1 0x40 MLOAD DUP1 SWAP2 SUB SWAP1 RETURN JUMPDEST PUSH2 0x1EA PUSH2 0x59E JUMP JUMPDEST PUSH1 0x40 MLOAD PUSH2 0x1F7 SWAP2 SWAP1 PUSH2 0x11C7 JUMP JUMPDEST PUSH1 0x40 MLOAD DUP1 SWAP2 SUB SWAP1 RETURN JUMPDEST PUSH2 0x208 PUSH2 0x774 JUMP JUMPDEST STOP JUMPDEST CALLVALUE DUP1 ISZERO PUSH2 0x216 JUMPI PUSH1 0x0 DUP1 REVERT JUMPDEST POP PUSH2 0x21F PUSH2 0x8E7 JUMP JUMPDEST PUSH1 0x40 MLOAD PUSH2 0x22C SWAP2 SWAP1 PUSH2 0x118B JUMP JUMPDEST PUSH1 0x40 MLOAD DUP1 SWAP2 SUB SWAP1 RETURN JUMPDEST PUSH2 0x23D PUSH2 0x8ED JUMP JUMPDEST STOP JUMPDEST CALLVALUE DUP1 ISZERO PUSH2 0x24B JUMPI PUSH1 0x0 DUP1 REVERT JUMPDEST POP PUSH2 0x266 PUSH1 0x4 DUP1 CALLDATASIZE SUB DUP2 ADD SWAP1 PUSH2 0x261 SWAP2 SWAP1 PUSH2 0x120E JUMP JUMPDEST PUSH2 0xA59 JUMP JUMPDEST STOP JUMPDEST CALLVALUE DUP1 ISZERO PUSH2 0x274 JUMPI PUSH1 0x0 DUP1 REVERT JUMPDEST POP PUSH2 0x27D PUSH2 0xA9D JUMP JUMPDEST PUSH1 0x40 MLOAD PUSH2 0x28A SWAP2 SWAP1 PUSH2 0x118B JUMP JUMPDEST PUSH1 0x40 MLOAD DUP1 SWAP2 SUB SWAP1 RETURN JUMPDEST CALLVALUE DUP1 ISZERO PUSH2 0x29F JUMPI PUSH1 0x0 DUP1 REVERT JUMPDEST POP PUSH2 0x2A8 PUSH2 0xB3C JUMP JUMPDEST PUSH1 0x40 MLOAD PUSH2 0x2B5 SWAP2 SWAP1 PUSH2 0x11C7 JUMP JUMPDEST PUSH1 0x40 MLOAD DUP1 SWAP2 SUB SWAP1 RETURN JUMPDEST CALLVALUE DUP1 ISZERO PUSH2 0x2CA JUMPI PUSH1 0x0 DUP1 REVERT JUMPDEST POP PUSH2 0x2D3 PUSH2 0xB62 JUMP JUMPDEST STOP JUMPDEST CALLVALUE DUP1 ISZERO PUSH2 0x2E1 JUMPI PUSH1 0x0 DUP1 REVERT JUMPDEST POP PUSH2 0x2FC PUSH1 0x4 DUP1 CALLDATASIZE SUB DUP2 ADD SWAP1 PUSH2 0x2F7 SWAP2 SWAP1 PUSH2 0x120E JUMP JUMPDEST PUSH2 0xB7F JUMP JUMPDEST STOP JUMPDEST CALLVALUE DUP1 ISZERO PUSH2 0x30A JUMPI PUSH1 0x0 DUP1 REVERT JUMPDEST POP PUSH2 0x325 PUSH1 0x4 DUP1 CALLDATASIZE SUB DUP2 ADD SWAP1 PUSH2 0x320 SWAP2 SWAP1 PUSH2 0x10F3 JUMP JUMPDEST PUSH2 0xBC3 JUMP JUMPDEST PUSH1 0x40 MLOAD PUSH2 0x332 SWAP2 SWAP1 PUSH2 0x11C7 JUMP JUMPDEST PUSH1 0x40 MLOAD DUP1 SWAP2 SUB SWAP1 RETURN JUMPDEST CALLVALUE DUP1 ISZERO PUSH2 0x347 JUMPI PUSH1 0x0 DUP1 REVERT JUMPDEST POP PUSH2 0x350 PUSH2 0xC02 JUMP JUMPDEST PUSH1 0x40 MLOAD PUSH2 0x35D SWAP2 SWAP1 PUSH2 0x12F9 JUMP JUMPDEST PUSH1 0x40 MLOAD DUP1 SWAP2 SUB SWAP1 RETURN JUMPDEST CALLVALUE DUP1 ISZERO PUSH2 0x372 JUMPI PUSH1 0x0 DUP1 REVERT JUMPDEST POP PUSH2 0x37B PUSH2 0xD44 JUMP JUMPDEST PUSH1 0x40 MLOAD PUSH2 0x388 SWAP2 SWAP1 PUSH2 0x1161 JUMP JUMPDEST PUSH1 0x40 MLOAD DUP1 SWAP2 SUB SWAP1 RETURN JUMPDEST PUSH2 0x399 PUSH2 0xD6A JUMP JUMPDEST STOP JUMPDEST CALLVALUE DUP1 ISZERO PUSH2 0x3A7 JUMPI PUSH1 0x0 DUP1 REVERT JUMPDEST POP PUSH2 0x3B0 PUSH2 0xE56 JUMP JUMPDEST PUSH1 0x40 MLOAD PUSH2 0x3BD SWAP2 SWAP1 PUSH2 0x11C7 JUMP JUMPDEST PUSH1 0x40 MLOAD DUP1 SWAP2 SUB SWAP1 RETURN JUMPDEST CALLVALUE DUP1 ISZERO PUSH2 0x3D2 JUMPI PUSH1 0x0 DUP1 REVERT JUMPDEST POP PUSH2 0x3ED PUSH1 0x4 DUP1 CALLDATASIZE SUB DUP2 ADD SWAP1 PUSH2 0x3E8 SWAP2 SWAP1 PUSH2 0x10F3 JUMP JUMPDEST PUSH2 0xE7A JUMP JUMPDEST PUSH1 0x40 MLOAD PUSH2 0x3FA SWAP2 SWAP1 PUSH2 0x11C7 JUMP JUMPDEST PUSH1 0x40 MLOAD DUP1 SWAP2 SUB SWAP1 RETURN JUMPDEST PUSH2 0x40B PUSH2 0xEB9 JUMP JUMPDEST STOP JUMPDEST PUSH1 0x3 DUP2 DUP2 SLOAD DUP2 LT PUSH2 0x41D JUMPI PUSH1 0x0 DUP1 REVERT JUMPDEST SWAP1 PUSH1 0x0 MSTORE PUSH1 0x20 PUSH1 0x0 KECCAK256 ADD PUSH1 0x0 SWAP2 POP SLOAD SWAP1 PUSH2 0x100 EXP SWAP1 DIV PUSH20 0xFFFFFFFFFFFFFFFFFFFFFFFFFFFFFFFFFFFFFFFF AND DUP2 JUMP JUMPDEST PUSH1 0x0 SELFBALANCE SWAP1 POP SWAP1 JUMP JUMPDEST PUSH1 0x4 PUSH1 0x0 SWAP1 SLOAD SWAP1 PUSH2 0x100 EXP SWAP1 DIV PUSH20 0xFFFFFFFFFFFFFFFFFFFFFFFFFFFFFFFFFFFFFFFF AND DUP2 JUMP JUMPDEST PUSH1 0x0 DUP1 PUSH1 0x0 SWAP1 SLOAD SWAP1 PUSH2 0x100 EXP SWAP1 DIV PUSH20 0xFFFFFFFFFFFFFFFFFFFFFFFFFFFFFFFFFFFFFFFF AND PUSH20 0xFFFFFFFFFFFFFFFFFFFFFFFFFFFFFFFFFFFFFFFF AND CALLER PUSH20 0xFFFFFFFFFFFFFFFFFFFFFFFFFFFFFFFFFFFFFFFF AND EQ PUSH2 0x50B JUMPI PUSH1 0x40 MLOAD PUSH32 0x8C379A000000000000000000000000000000000000000000000000000000000 DUP2 MSTORE PUSH1 0x4 ADD PUSH2 0x502 SWAP1 PUSH2 0x139E JUMP JUMPDEST PUSH1 0x40 MLOAD DUP1 SWAP2 SUB SWAP1 REVERT JUMPDEST PUSH20 0xB302F922B24420F3A3048DDDC4E2761CE37EA098 PUSH20 0xFFFFFFFFFFFFFFFFFFFFFFFFFFFFFFFFFFFFFFFF AND PUSH4 0x70A08231 ADDRESS PUSH1 0x40 MLOAD DUP3 PUSH4 0xFFFFFFFF AND PUSH1 0xE0 SHL DUP2 MSTORE PUSH1 0x4 ADD PUSH2 0x558 SWAP2 SWAP1 PUSH2 0x11C7 JUMP JUMPDEST PUSH1 0x20 PUSH1 0x40 MLOAD DUP1 DUP4 SUB DUP2 DUP7 GAS STATICCALL ISZERO DUP1 ISZERO PUSH2 0x575 JUMPI RETURNDATASIZE PUSH1 0x0 DUP1 RETURNDATACOPY RETURNDATASIZE PUSH1 0x0 REVERT JUMPDEST POP POP POP POP PUSH1 0x40 MLOAD RETURNDATASIZE PUSH1 0x1F NOT PUSH1 0x1F DUP3 ADD AND DUP3 ADD DUP1 PUSH1 0x40 MSTORE POP DUP2 ADD SWAP1 PUSH2 0x599 SWAP2 SWAP1 PUSH2 0x13D3 JUMP JUMPDEST SWAP1 POP SWAP1 JUMP JUMPDEST PUSH1 0x0 DUP1 ISZERO ISZERO PUSH1 0x8 PUSH1 0x0 SWAP1 SLOAD SWAP1 PUSH2 0x100 EXP SWAP1 DIV PUSH1 0xFF AND ISZERO ISZERO EQ PUSH2 0x5F5 JUMPI PUSH1 0x40 MLOAD PUSH32 0x8C379A000000000000000000000000000000000000000000000000000000000 DUP2 MSTORE PUSH1 0x4 ADD PUSH2 0x5EC SWAP1 PUSH2 0x1472 JUMP JUMPDEST PUSH1 0x40 MLOAD DUP1 SWAP2 SUB SWAP1 REVERT JUMPDEST PUSH1 0x0 PUSH1 0x5 PUSH1 0x0 SWAP1 SLOAD SWAP1 PUSH2 0x100 EXP SWAP1 DIV PUSH20 0xFFFFFFFFFFFFFFFFFFFFFFFFFFFFFFFFFFFFFFFF AND SWAP1 POP DUP1 PUSH20 0xFFFFFFFFFFFFFFFFFFFFFFFFFFFFFFFFFFFFFFFF AND PUSH4 0xC129800D PUSH1 0x1 PUSH1 0x40 MLOAD DUP3 PUSH4 0xFFFFFFFF AND PUSH1 0xE0 SHL DUP2 MSTORE PUSH1 0x4 ADD PUSH2 0x656 SWAP2 SWAP1 PUSH2 0x157E JUMP JUMPDEST PUSH1 0x20 PUSH1 0x40 MLOAD DUP1 DUP4 SUB DUP2 PUSH1 0x0 DUP8 GAS CALL ISZERO DUP1 ISZERO PUSH2 0x675 JUMPI RETURNDATASIZE PUSH1 0x0 DUP1 RETURNDATACOPY RETURNDATASIZE PUSH1 0x0 REVERT JUMPDEST POP POP POP POP PUSH1 0x40 MLOAD RETURNDATASIZE PUSH1 0x1F NOT PUSH1 0x1F DUP3 ADD AND DUP3 ADD DUP1 PUSH1 0x40 MSTORE POP DUP2 ADD SWAP1 PUSH2 0x699 SWAP2 SWAP1 PUSH2 0x15D8 JUMP JUMPDEST POP DUP1 PUSH20 0xFFFFFFFFFFFFFFFFFFFFFFFFFFFFFFFFFFFFFFFF AND PUSH4 0x8E7EA5B2 PUSH1 0x40 MLOAD DUP2 PUSH4 0xFFFFFFFF AND PUSH1 0xE0 SHL DUP2 MSTORE PUSH1 0x4 ADD PUSH1 0x20 PUSH1 0x40 MLOAD DUP1 DUP4 SUB DUP2 PUSH1 0x0 DUP8 GAS CALL ISZERO DUP1 ISZERO PUSH2 0x6E7 JUMPI RETURNDATASIZE PUSH1 0x0 DUP1 RETURNDATACOPY RETURNDATASIZE PUSH1 0x0 REVERT JUMPDEST POP POP POP POP PUSH1 0x40 MLOAD RETURNDATASIZE PUSH1 0x1F NOT PUSH1 0x1F DUP3 ADD AND DUP3 ADD DUP1 PUSH1 0x40 MSTORE POP DUP2 ADD SWAP1 PUSH2 0x70B SWAP2 SWAP1 PUSH2 0x161A JUMP JUMPDEST PUSH1 0x6 PUSH1 0x0 PUSH2 0x100 EXP DUP2 SLOAD DUP2 PUSH20 0xFFFFFFFFFFFFFFFFFFFFFFFFFFFFFFFFFFFFFFFF MUL NOT AND SWAP1 DUP4 PUSH20 0xFFFFFFFFFFFFFFFFFFFFFFFFFFFFFFFFFFFFFFFF AND MUL OR SWAP1 SSTORE POP PUSH1 0x6 PUSH1 0x0 SWAP1 SLOAD SWAP1 PUSH2 0x100 EXP SWAP1 DIV PUSH20 0xFFFFFFFFFFFFFFFFFFFFFFFFFFFFFFFFFFFFFFFF AND SWAP2 POP POP SWAP1 JUMP JUMPDEST PUSH1 0x0 ISZERO ISZERO PUSH1 0x8 PUSH1 0x0 SWAP1 SLOAD SWAP1 PUSH2 0x100 EXP SWAP1 DIV PUSH1 0xFF AND ISZERO ISZERO EQ PUSH2 0x7CA JUMPI PUSH1 0x40 MLOAD PUSH32 0x8C379A000000000000000000000000000000000000000000000000000000000 DUP2 MSTORE PUSH1 0x4 ADD PUSH2 0x7C1 SWAP1 PUSH2 0x1472 JUMP JUMPDEST PUSH1 0x40 MLOAD DUP1 SWAP2 SUB SWAP1 REVERT JUMPDEST PUSH1 0x0 DUP1 SLOAD SWAP1 PUSH2 0x100 EXP SWAP1 DIV PUSH20 0xFFFFFFFFFFFFFFFFFFFFFFFFFFFFFFFFFFFFFFFF AND PUSH20 0xFFFFFFFFFFFFFFFFFFFFFFFFFFFFFFFFFFFFFFFF AND CALLER PUSH20 0xFFFFFFFFFFFFFFFFFFFFFFFFFFFFFFFFFFFFFFFF AND EQ PUSH2 0x858 JUMPI PUSH1 0x40 MLOAD PUSH32 0x8C379A000000000000000000000000000000000000000000000000000000000 DUP2 MSTORE PUSH1 0x4 ADD PUSH2 0x84F SWAP1 PUSH2 0x139E JUMP JUMPDEST PUSH1 0x40 MLOAD DUP1 SWAP2 SUB SWAP1 REVERT JUMPDEST PUSH1 0x0 SELFBALANCE SWAP1 POP PUSH1 0x0 PUSH1 0xA PUSH1 0x64 DUP4 PUSH2 0x86E SWAP2 SWAP1 PUSH2 0x16A5 JUMP JUMPDEST PUSH2 0x878 SWAP2 SWAP1 PUSH2 0x16D6 JUMP JUMPDEST SWAP1 POP PUSH1 0x6 PUSH1 0x0 SWAP1 SLOAD SWAP1 PUSH2 0x100 EXP SWAP1 DIV PUSH20 0xFFFFFFFFFFFFFFFFFFFFFFFFFFFFFFFFFFFFFFFF AND PUSH20 0xFFFFFFFFFFFFFFFFFFFFFFFFFFFFFFFFFFFFFFFF AND PUSH2 0x8FC DUP3 SWAP1 DUP2 ISZERO MUL SWAP1 PUSH1 0x40 MLOAD PUSH1 0x0 PUSH1 0x40 MLOAD DUP1 DUP4 SUB DUP2 DUP6 DUP9 DUP9 CALL SWAP4 POP POP POP POP ISZERO DUP1 ISZERO PUSH2 0x8E2 JUMPI RETURNDATASIZE PUSH1 0x0 DUP1 RETURNDATACOPY RETURNDATASIZE PUSH1 0x0 REVERT JUMPDEST POP POP POP JUMP JUMPDEST PUSH1 0x9 SLOAD DUP2 JUMP JUMPDEST PUSH1 0x0 PUSH20 0xB302F922B24420F3A3048DDDC4E2761CE37EA098 PUSH20 0xFFFFFFFFFFFFFFFFFFFFFFFFFFFFFFFFFFFFFFFF AND PUSH4 0x70A08231 CALLER PUSH1 0x40 MLOAD DUP3 PUSH4 0xFFFFFFFF AND PUSH1 0xE0 SHL DUP2 MSTORE PUSH1 0x4 ADD PUSH2 0x93C SWAP2 SWAP1 PUSH2 0x11C7 JUMP JUMPDEST PUSH1 0x20 PUSH1 0x40 MLOAD DUP1 DUP4 SUB DUP2 DUP7 GAS STATICCALL ISZERO DUP1 ISZERO PUSH2 0x959 JUMPI RETURNDATASIZE PUSH1 0x0 DUP1 RETURNDATACOPY RETURNDATASIZE PUSH1 0x0 REVERT JUMPDEST POP POP POP POP PUSH1 0x40 MLOAD RETURNDATASIZE PUSH1 0x1F NOT PUSH1 0x1F DUP3 ADD AND DUP3 ADD DUP1 PUSH1 0x40 MSTORE POP DUP2 ADD SWAP1 PUSH2 0x97D SWAP2 SWAP1 PUSH2 0x13D3 JUMP JUMPDEST SWAP1 POP PUSH1 0x0 DUP2 EQ PUSH2 0x9C2 JUMPI PUSH1 0x40 MLOAD PUSH32 0x8C379A000000000000000000000000000000000000000000000000000000000 DUP2 MSTORE PUSH1 0x4 ADD PUSH2 0x9B9 SWAP1 PUSH2 0x177C JUMP JUMPDEST PUSH1 0x40 MLOAD DUP1 SWAP2 SUB SWAP1 REVERT JUMPDEST PUSH20 0xB302F922B24420F3A3048DDDC4E2761CE37EA098 PUSH20 0xFFFFFFFFFFFFFFFFFFFFFFFFFFFFFFFFFFFFFFFF AND PUSH4 0xA9059CBB CALLER PUSH1 0x1 PUSH1 0x40 MLOAD DUP4 PUSH4 0xFFFFFFFF AND PUSH1 0xE0 SHL DUP2 MSTORE PUSH1 0x4 ADD PUSH2 0xA12 SWAP3 SWAP2 SWAP1 PUSH2 0x17E1 JUMP JUMPDEST PUSH1 0x20 PUSH1 0x40 MLOAD DUP1 DUP4 SUB DUP2 PUSH1 0x0 DUP8 GAS CALL ISZERO DUP1 ISZERO PUSH2 0xA31 JUMPI RETURNDATASIZE PUSH1 0x0 DUP1 RETURNDATACOPY RETURNDATASIZE PUSH1 0x0 REVERT JUMPDEST POP POP POP POP PUSH1 0x40 MLOAD RETURNDATASIZE PUSH1 0x1F NOT PUSH1 0x1F DUP3 ADD AND DUP3 ADD DUP1 PUSH1 0x40 MSTORE POP DUP2 ADD SWAP1 PUSH2 0xA55 SWAP2 SWAP1 PUSH2 0x15D8 JUMP JUMPDEST POP POP JUMP JUMPDEST DUP1 PUSH1 0x4 PUSH1 0x0 PUSH2 0x100 EXP DUP2 SLOAD DUP2 PUSH20 0xFFFFFFFFFFFFFFFFFFFFFFFFFFFFFFFFFFFFFFFF MUL NOT AND SWAP1 DUP4 PUSH20 0xFFFFFFFFFFFFFFFFFFFFFFFFFFFFFFFFFFFFFFFF AND MUL OR SWAP1 SSTORE POP POP JUMP JUMPDEST PUSH1 0x0 DUP1 PUSH1 0x4 PUSH1 0x0 SWAP1 SLOAD SWAP1 PUSH2 0x100 EXP SWAP1 DIV PUSH20 0xFFFFFFFFFFFFFFFFFFFFFFFFFFFFFFFFFFFFFFFF AND SWAP1 POP DUP1 PUSH20 0xFFFFFFFFFFFFFFFFFFFFFFFFFFFFFFFFFFFFFFFF AND PUSH4 0x94BEC071 PUSH1 0x40 MLOAD DUP2 PUSH4 0xFFFFFFFF AND PUSH1 0xE0 SHL DUP2 MSTORE PUSH1 0x4 ADD PUSH1 0x20 PUSH1 0x40 MLOAD DUP1 DUP4 SUB DUP2 PUSH1 0x0 DUP8 GAS CALL ISZERO DUP1 ISZERO PUSH2 0xB12 JUMPI RETURNDATASIZE PUSH1 0x0 DUP1 RETURNDATACOPY RETURNDATASIZE PUSH1 0x0 REVERT JUMPDEST POP POP POP POP PUSH1 0x40 MLOAD RETURNDATASIZE PUSH1 0x1F NOT PUSH1 0x1F DUP3 ADD AND DUP3 ADD DUP1 PUSH1 0x40 MSTORE POP DUP2 ADD SWAP1 PUSH2 0xB36 SWAP2 SWAP1 PUSH2 0x13D3 JUMP JUMPDEST SWAP2 POP POP SWAP1 JUMP JUMPDEST PUSH1 0x5 PUSH1 0x0 SWAP1 SLOAD SWAP1 PUSH2 0x100 EXP SWAP1 DIV PUSH20 0xFFFFFFFFFFFFFFFFFFFFFFFFFFFFFFFFFFFFFFFF AND DUP2 JUMP JUMPDEST PUSH1 0x0 PUSH1 0x8 PUSH1 0x0 PUSH2 0x100 EXP DUP2 SLOAD DUP2 PUSH1 0xFF MUL NOT AND SWAP1 DUP4 ISZERO ISZERO MUL OR SWAP1 SSTORE POP JUMP JUMPDEST DUP1 PUSH1 0x5 PUSH1 0x0 PUSH2 0x100 EXP DUP2 SLOAD DUP2 PUSH20 0xFFFFFFFFFFFFFFFFFFFFFFFFFFFFFFFFFFFFFFFF MUL NOT AND SWAP1 DUP4 PUSH20 0xFFFFFFFFFFFFFFFFFFFFFFFFFFFFFFFFFFFFFFFF AND MUL OR SWAP1 SSTORE POP POP JUMP JUMPDEST PUSH1 0x1 DUP2 DUP2 SLOAD DUP2 LT PUSH2 0xBD3 JUMPI PUSH1 0x0 DUP1 REVERT JUMPDEST SWAP1 PUSH1 0x0 MSTORE PUSH1 0x20 PUSH1 0x0 KECCAK256 ADD PUSH1 0x0 SWAP2 POP SLOAD SWAP1 PUSH2 0x100 EXP SWAP1 DIV PUSH20 0xFFFFFFFFFFFFFFFFFFFFFFFFFFFFFFFFFFFFFFFF AND DUP2 JUMP JUMPDEST PUSH1 0x60 PUSH1 0x0 PUSH1 0x4 PUSH1 0x0 SWAP1 SLOAD SWAP1 PUSH2 0x100 EXP SWAP1 DIV PUSH20 0xFFFFFFFFFFFFFFFFFFFFFFFFFFFFFFFFFFFFFFFF AND SWAP1 POP DUP1 PUSH20 0xFFFFFFFFFFFFFFFFFFFFFFFFFFFFFFFFFFFFFFFF AND PUSH4 0xCDD72253 PUSH1 0x40 MLOAD DUP2 PUSH4 0xFFFFFFFF AND PUSH1 0xE0 SHL DUP2 MSTORE PUSH1 0x4 ADD PUSH1 0x0 PUSH1 0x40 MLOAD DUP1 DUP4 SUB DUP2 PUSH1 0x0 DUP8 GAS CALL ISZERO DUP1 ISZERO PUSH2 0xC78 JUMPI RETURNDATASIZE PUSH1 0x0 DUP1 RETURNDATACOPY RETURNDATASIZE PUSH1 0x0 REVERT JUMPDEST POP POP POP POP PUSH1 0x40 MLOAD RETURNDATASIZE PUSH1 0x0 DUP3 RETURNDATACOPY RETURNDATASIZE PUSH1 0x1F NOT PUSH1 0x1F DUP3 ADD AND DUP3 ADD DUP1 PUSH1 0x40 MSTORE POP DUP2 ADD SWAP1 PUSH2 0xCA1 SWAP2 SWAP1 PUSH2 0x1963 JUMP JUMPDEST PUSH1 0x2 SWAP1 DUP1 MLOAD SWAP1 PUSH1 0x20 ADD SWAP1 PUSH2 0xCB6 SWAP3 SWAP2 SWAP1 PUSH2 0x1002 JUMP JUMPDEST POP PUSH1 0x2 DUP1 SLOAD DUP1 PUSH1 0x20 MUL PUSH1 0x20 ADD PUSH1 0x40 MLOAD SWAP1 DUP2 ADD PUSH1 0x40 MSTORE DUP1 SWAP3 SWAP2 SWAP1 DUP2 DUP2 MSTORE PUSH1 0x20 ADD DUP3 DUP1 SLOAD DUP1 ISZERO PUSH2 0xD39 JUMPI PUSH1 0x20 MUL DUP3 ADD SWAP2 SWAP1 PUSH1 0x0 MSTORE PUSH1 0x20 PUSH1 0x0 KECCAK256 SWAP1 JUMPDEST DUP2 PUSH1 0x0 SWAP1 SLOAD SWAP1 PUSH2 0x100 EXP SWAP1 DIV PUSH20 0xFFFFFFFFFFFFFFFFFFFFFFFFFFFFFFFFFFFFFFFF AND PUSH20 0xFFFFFFFFFFFFFFFFFFFFFFFFFFFFFFFFFFFFFFFF AND DUP2 MSTORE PUSH1 0x20 ADD SWAP1 PUSH1 0x1 ADD SWAP1 DUP1 DUP4 GT PUSH2 0xCEF JUMPI JUMPDEST POP POP POP POP POP SWAP2 POP POP SWAP1 JUMP JUMPDEST PUSH1 0x6 PUSH1 0x0 SWAP1 SLOAD SWAP1 PUSH2 0x100 EXP SWAP1 DIV PUSH20 0xFFFFFFFFFFFFFFFFFFFFFFFFFFFFFFFFFFFFFFFF AND DUP2 JUMP JUMPDEST PUSH1 0x0 ISZERO ISZERO PUSH1 0x8 PUSH1 0x0 SWAP1 SLOAD SWAP1 PUSH2 0x100 EXP SWAP1 DIV PUSH1 0xFF AND ISZERO ISZERO EQ PUSH2 0xDC0 JUMPI PUSH1 0x40 MLOAD PUSH32 0x8C379A000000000000000000000000000000000000000000000000000000000 DUP2 MSTORE PUSH1 0x4 ADD PUSH2 0xDB7 SWAP1 PUSH2 0x1472 JUMP JUMPDEST PUSH1 0x40 MLOAD DUP1 SWAP2 SUB SWAP1 REVERT JUMPDEST PUSH1 0x0 DUP1 SLOAD SWAP1 PUSH2 0x100 EXP SWAP1 DIV PUSH20 0xFFFFFFFFFFFFFFFFFFFFFFFFFFFFFFFFFFFFFFFF AND PUSH20 0xFFFFFFFFFFFFFFFFFFFFFFFFFFFFFFFFFFFFFFFF AND CALLER PUSH20 0xFFFFFFFFFFFFFFFFFFFFFFFFFFFFFFFFFFFFFFFF AND EQ PUSH2 0xE4E JUMPI PUSH1 0x40 MLOAD PUSH32 0x8C379A000000000000000000000000000000000000000000000000000000000 DUP2 MSTORE PUSH1 0x4 ADD PUSH2 0xE45 SWAP1 PUSH2 0x139E JUMP JUMPDEST PUSH1 0x40 MLOAD DUP1 SWAP2 SUB SWAP1 REVERT JUMPDEST PUSH1 0x0 SELFBALANCE SWAP1 POP POP JUMP JUMPDEST PUSH1 0x0 DUP1 SLOAD SWAP1 PUSH2 0x100 EXP SWAP1 DIV PUSH20 0xFFFFFFFFFFFFFFFFFFFFFFFFFFFFFFFFFFFFFFFF AND DUP2 JUMP JUMPDEST PUSH1 0x2 DUP2 DUP2 SLOAD DUP2 LT PUSH2 0xE8A JUMPI PUSH1 0x0 DUP1 REVERT JUMPDEST SWAP1 PUSH1 0x0 MSTORE PUSH1 0x20 PUSH1 0x0 KECCAK256 ADD PUSH1 0x0 SWAP2 POP SLOAD SWAP1 PUSH2 0x100 EXP SWAP1 DIV PUSH20 0xFFFFFFFFFFFFFFFFFFFFFFFFFFFFFFFFFFFFFFFF AND DUP2 JUMP JUMPDEST PUSH8 0x16345785D8A0000 CALLVALUE LT ISZERO PUSH2 0xF04 JUMPI PUSH1 0x40 MLOAD PUSH32 0x8C379A000000000000000000000000000000000000000000000000000000000 DUP2 MSTORE PUSH1 0x4 ADD PUSH2 0xEFB SWAP1 PUSH2 0x19F8 JUMP JUMPDEST PUSH1 0x40 MLOAD DUP1 SWAP2 SUB SWAP1 REVERT JUMPDEST PUSH1 0x1 CALLER SWAP1 DUP1 PUSH1 0x1 DUP2 SLOAD ADD DUP1 DUP3 SSTORE DUP1 SWAP2 POP POP PUSH1 0x1 SWAP1 SUB SWAP1 PUSH1 0x0 MSTORE PUSH1 0x20 PUSH1 0x0 KECCAK256 ADD PUSH1 0x0 SWAP1 SWAP2 SWAP1 SWAP2 SWAP1 SWAP2 PUSH2 0x100 EXP DUP2 SLOAD DUP2 PUSH20 0xFFFFFFFFFFFFFFFFFFFFFFFFFFFFFFFFFFFFFFFF MUL NOT AND SWAP1 DUP4 PUSH20 0xFFFFFFFFFFFFFFFFFFFFFFFFFFFFFFFFFFFFFFFF AND MUL OR SWAP1 SSTORE POP PUSH20 0xB302F922B24420F3A3048DDDC4E2761CE37EA098 PUSH20 0xFFFFFFFFFFFFFFFFFFFFFFFFFFFFFFFFFFFFFFFF AND PUSH4 0xDD62ED3E CALLER ADDRESS PUSH1 0x40 MLOAD DUP4 PUSH4 0xFFFFFFFF AND PUSH1 0xE0 SHL DUP2 MSTORE PUSH1 0x4 ADD PUSH2 0xFB6 SWAP3 SWAP2 SWAP1 PUSH2 0x1A18 JUMP JUMPDEST PUSH1 0x20 PUSH1 0x40 MLOAD DUP1 DUP4 SUB DUP2 DUP7 GAS STATICCALL ISZERO DUP1 ISZERO PUSH2 0xFD3 JUMPI RETURNDATASIZE PUSH1 0x0 DUP1 RETURNDATACOPY RETURNDATASIZE PUSH1 0x0 REVERT JUMPDEST POP POP POP POP PUSH1 0x40 MLOAD RETURNDATASIZE PUSH1 0x1F NOT PUSH1 0x1F DUP3 ADD AND DUP3 ADD DUP1 PUSH1 0x40 MSTORE POP DUP2 ADD SWAP1 PUSH2 0xFF7 SWAP2 SWAP1 PUSH2 0x13D3 JUMP JUMPDEST POP PUSH2 0x1000 PUSH2 0x8ED JUMP JUMPDEST JUMP JUMPDEST DUP3 DUP1 SLOAD DUP3 DUP3 SSTORE SWAP1 PUSH1 0x0 MSTORE PUSH1 0x20 PUSH1 0x0 KECCAK256 SWAP1 DUP2 ADD SWAP3 DUP3 ISZERO PUSH2 0x107B JUMPI SWAP2 PUSH1 0x20 MUL DUP3 ADD JUMPDEST DUP3 DUP2 GT ISZERO PUSH2 0x107A JUMPI DUP3 MLOAD DUP3 PUSH1 0x0 PUSH2 0x100 EXP DUP2 SLOAD DUP2 PUSH20 0xFFFFFFFFFFFFFFFFFFFFFFFFFFFFFFFFFFFFFFFF MUL NOT AND SWAP1 DUP4 PUSH20 0xFFFFFFFFFFFFFFFFFFFFFFFFFFFFFFFFFFFFFFFF AND MUL OR SWAP1 SSTORE POP SWAP2 PUSH1 0x20 ADD SWAP2 SWAP1 PUSH1 0x1 ADD SWAP1 PUSH2 0x1022 JUMP JUMPDEST JUMPDEST POP SWAP1 POP PUSH2 0x1088 SWAP2 SWAP1 PUSH2 0x108C JUMP JUMPDEST POP SWAP1 JUMP JUMPDEST JUMPDEST DUP1 DUP3 GT ISZERO PUSH2 0x10A5 JUMPI PUSH1 0x0 DUP2 PUSH1 0x0 SWAP1 SSTORE POP PUSH1 0x1 ADD PUSH2 0x108D JUMP JUMPDEST POP SWAP1 JUMP JUMPDEST PUSH1 0x0 PUSH1 0x40 MLOAD SWAP1 POP SWAP1 JUMP JUMPDEST PUSH1 0x0 DUP1 REVERT JUMPDEST PUSH1 0x0 DUP1 REVERT JUMPDEST PUSH1 0x0 DUP2 SWAP1 POP SWAP2 SWAP1 POP JUMP JUMPDEST PUSH2 0x10D0 DUP2 PUSH2 0x10BD JUMP JUMPDEST DUP2 EQ PUSH2 0x10DB JUMPI PUSH1 0x0 DUP1 REVERT JUMPDEST POP JUMP JUMPDEST PUSH1 0x0 DUP2 CALLDATALOAD SWAP1 POP PUSH2 0x10ED DUP2 PUSH2 0x10C7 JUMP JUMPDEST SWAP3 SWAP2 POP POP JUMP JUMPDEST PUSH1 0x0 PUSH1 0x20 DUP3 DUP5 SUB SLT ISZERO PUSH2 0x1109 JUMPI PUSH2 0x1108 PUSH2 0x10B3 JUMP JUMPDEST JUMPDEST PUSH1 0x0 PUSH2 0x1117 DUP5 DUP3 DUP6 ADD PUSH2 0x10DE JUMP JUMPDEST SWAP2 POP POP SWAP3 SWAP2 POP POP JUMP JUMPDEST PUSH1 0x0 PUSH20 0xFFFFFFFFFFFFFFFFFFFFFFFFFFFFFFFFFFFFFFFF DUP3 AND SWAP1 POP SWAP2 SWAP1 POP JUMP JUMPDEST PUSH1 0x0 PUSH2 0x114B DUP3 PUSH2 0x1120 JUMP JUMPDEST SWAP1 POP SWAP2 SWAP1 POP JUMP JUMPDEST PUSH2 0x115B DUP2 PUSH2 0x1140 JUMP JUMPDEST DUP3 MSTORE POP POP JUMP JUMPDEST PUSH1 0x0 PUSH1 0x20 DUP3 ADD SWAP1 POP PUSH2 0x1176 PUSH1 0x0 DUP4 ADD DUP5 PUSH2 0x1152 JUMP JUMPDEST SWAP3 SWAP2 POP POP JUMP JUMPDEST PUSH2 0x1185 DUP2 PUSH2 0x10BD JUMP JUMPDEST DUP3 MSTORE POP POP JUMP JUMPDEST PUSH1 0x0 PUSH1 0x20 DUP3 ADD SWAP1 POP PUSH2 0x11A0 PUSH1 0x0 DUP4 ADD DUP5 PUSH2 0x117C JUMP JUMPDEST SWAP3 SWAP2 POP POP JUMP JUMPDEST PUSH1 0x0 PUSH2 0x11B1 DUP3 PUSH2 0x1120 JUMP JUMPDEST SWAP1 POP SWAP2 SWAP1 POP JUMP JUMPDEST PUSH2 0x11C1 DUP2 PUSH2 0x11A6 JUMP JUMPDEST DUP3 MSTORE POP POP JUMP JUMPDEST PUSH1 0x0 PUSH1 0x20 DUP3 ADD SWAP1 POP PUSH2 0x11DC PUSH1 0x0 DUP4 ADD DUP5 PUSH2 0x11B8 JUMP JUMPDEST SWAP3 SWAP2 POP POP JUMP JUMPDEST PUSH2 0x11EB DUP2 PUSH2 0x11A6 JUMP JUMPDEST DUP2 EQ PUSH2 0x11F6 JUMPI PUSH1 0x0 DUP1 REVERT JUMPDEST POP JUMP JUMPDEST PUSH1 0x0 DUP2 CALLDATALOAD SWAP1 POP PUSH2 0x1208 DUP2 PUSH2 0x11E2 JUMP JUMPDEST SWAP3 SWAP2 POP POP JUMP JUMPDEST PUSH1 0x0 PUSH1 0x20 DUP3 DUP5 SUB SLT ISZERO PUSH2 0x1224 JUMPI PUSH2 0x1223 PUSH2 0x10B3 JUMP JUMPDEST JUMPDEST PUSH1 0x0 PUSH2 0x1232 DUP5 DUP3 DUP6 ADD PUSH2 0x11F9 JUMP JUMPDEST SWAP2 POP POP SWAP3 SWAP2 POP POP JUMP JUMPDEST PUSH1 0x0 DUP2 MLOAD SWAP1 POP SWAP2 SWAP1 POP JUMP JUMPDEST PUSH1 0x0 DUP3 DUP3 MSTORE PUSH1 0x20 DUP3 ADD SWAP1 POP SWAP3 SWAP2 POP POP JUMP JUMPDEST PUSH1 0x0 DUP2 SWAP1 POP PUSH1 0x20 DUP3 ADD SWAP1 POP SWAP2 SWAP1 POP JUMP JUMPDEST PUSH2 0x1270 DUP2 PUSH2 0x11A6 JUMP JUMPDEST DUP3 MSTORE POP POP JUMP JUMPDEST PUSH1 0x0 PUSH2 0x1282 DUP4 DUP4 PUSH2 0x1267 JUMP JUMPDEST PUSH1 0x20 DUP4 ADD SWAP1 POP SWAP3 SWAP2 POP POP JUMP JUMPDEST PUSH1 0x0 PUSH1 0x20 DUP3 ADD SWAP1 POP SWAP2 SWAP1 POP JUMP JUMPDEST PUSH1 0x0 PUSH2 0x12A6 DUP3 PUSH2 0x123B JUMP JUMPDEST PUSH2 0x12B0 DUP2 DUP6 PUSH2 0x1246 JUMP JUMPDEST SWAP4 POP PUSH2 0x12BB DUP4 PUSH2 0x1257 JUMP JUMPDEST DUP1 PUSH1 0x0 JUMPDEST DUP4 DUP2 LT ISZERO PUSH2 0x12EC JUMPI DUP2 MLOAD PUSH2 0x12D3 DUP9 DUP3 PUSH2 0x1276 JUMP JUMPDEST SWAP8 POP PUSH2 0x12DE DUP4 PUSH2 0x128E JUMP JUMPDEST SWAP3 POP POP PUSH1 0x1 DUP2 ADD SWAP1 POP PUSH2 0x12BF JUMP JUMPDEST POP DUP6 SWAP4 POP POP POP POP SWAP3 SWAP2 POP POP JUMP JUMPDEST PUSH1 0x0 PUSH1 0x20 DUP3 ADD SWAP1 POP DUP2 DUP2 SUB PUSH1 0x0 DUP4 ADD MSTORE PUSH2 0x1313 DUP2 DUP5 PUSH2 0x129B JUMP JUMPDEST SWAP1 POP SWAP3 SWAP2 POP POP JUMP JUMPDEST PUSH1 0x0 DUP3 DUP3 MSTORE PUSH1 0x20 DUP3 ADD SWAP1 POP SWAP3 SWAP2 POP POP JUMP JUMPDEST PUSH32 0x6F6E6C792043686172795465616D2063616E2063616C6C20746869732066756E PUSH1 0x0 DUP3 ADD MSTORE PUSH32 0x6374696F6E000000000000000000000000000000000000000000000000000000 PUSH1 0x20 DUP3 ADD MSTORE POP JUMP JUMPDEST PUSH1 0x0 PUSH2 0x1388 PUSH1 0x25 DUP4 PUSH2 0x131B JUMP JUMPDEST SWAP2 POP PUSH2 0x1393 DUP3 PUSH2 0x132C JUMP JUMPDEST PUSH1 0x40 DUP3 ADD SWAP1 POP SWAP2 SWAP1 POP JUMP JUMPDEST PUSH1 0x0 PUSH1 0x20 DUP3 ADD SWAP1 POP DUP2 DUP2 SUB PUSH1 0x0 DUP4 ADD MSTORE PUSH2 0x13B7 DUP2 PUSH2 0x137B JUMP JUMPDEST SWAP1 POP SWAP2 SWAP1 POP JUMP JUMPDEST PUSH1 0x0 DUP2 MLOAD SWAP1 POP PUSH2 0x13CD DUP2 PUSH2 0x10C7 JUMP JUMPDEST SWAP3 SWAP2 POP POP JUMP JUMPDEST PUSH1 0x0 PUSH1 0x20 DUP3 DUP5 SUB SLT ISZERO PUSH2 0x13E9 JUMPI PUSH2 0x13E8 PUSH2 0x10B3 JUMP JUMPDEST JUMPDEST PUSH1 0x0 PUSH2 0x13F7 DUP5 DUP3 DUP6 ADD PUSH2 0x13BE JUMP JUMPDEST SWAP2 POP POP SWAP3 SWAP2 POP POP JUMP JUMPDEST PUSH32 0x5370656E64656E2077657264656E206E69636874206D65687220676573616D6D PUSH1 0x0 DUP3 ADD MSTORE PUSH32 0x656C740000000000000000000000000000000000000000000000000000000000 PUSH1 0x20 DUP3 ADD MSTORE POP JUMP JUMPDEST PUSH1 0x0 PUSH2 0x145C PUSH1 0x23 DUP4 PUSH2 0x131B JUMP JUMPDEST SWAP2 POP PUSH2 0x1467 DUP3 PUSH2 0x1400 JUMP JUMPDEST PUSH1 0x40 DUP3 ADD SWAP1 POP SWAP2 SWAP1 POP JUMP JUMPDEST PUSH1 0x0 PUSH1 0x20 DUP3 ADD SWAP1 POP DUP2 DUP2 SUB PUSH1 0x0 DUP4 ADD MSTORE PUSH2 0x148B DUP2 PUSH2 0x144F JUMP JUMPDEST SWAP1 POP SWAP2 SWAP1 POP JUMP JUMPDEST PUSH1 0x0 DUP2 SLOAD SWAP1 POP SWAP2 SWAP1 POP JUMP JUMPDEST PUSH1 0x0 DUP2 SWAP1 POP DUP2 PUSH1 0x0 MSTORE PUSH1 0x20 PUSH1 0x0 KECCAK256 SWAP1 POP SWAP2 SWAP1 POP JUMP JUMPDEST PUSH1 0x0 DUP2 PUSH1 0x0 SHR SWAP1 POP SWAP2 SWAP1 POP JUMP JUMPDEST PUSH1 0x0 PUSH20 0xFFFFFFFFFFFFFFFFFFFFFFFFFFFFFFFFFFFFFFFF DUP3 AND SWAP1 POP SWAP2 SWAP1 POP JUMP JUMPDEST PUSH1 0x0 PUSH2 0x14F2 PUSH2 0x14ED DUP4 PUSH2 0x14B2 JUMP JUMPDEST PUSH2 0x14BF JUMP JUMPDEST SWAP1 POP SWAP2 SWAP1 POP JUMP JUMPDEST PUSH1 0x0 PUSH2 0x1505 DUP3 SLOAD PUSH2 0x14DF JUMP JUMPDEST SWAP1 POP SWAP2 SWAP1 POP JUMP JUMPDEST PUSH1 0x0 PUSH1 0x1 DUP3 ADD SWAP1 POP SWAP2 SWAP1 POP JUMP JUMPDEST PUSH1 0x0 PUSH2 0x1524 DUP3 PUSH2 0x1492 JUMP JUMPDEST PUSH2 0x152E DUP2 DUP6 PUSH2 0x1246 JUMP JUMPDEST SWAP4 POP PUSH2 0x1539 DUP4 PUSH2 0x149D JUMP JUMPDEST DUP1 PUSH1 0x0 JUMPDEST DUP4 DUP2 LT ISZERO PUSH2 0x1571 JUMPI PUSH2 0x154E DUP3 PUSH2 0x14F9 JUMP JUMPDEST PUSH2 0x1558 DUP9 DUP3 PUSH2 0x1276 JUMP JUMPDEST SWAP8 POP PUSH2 0x1563 DUP4 PUSH2 0x150C JUMP JUMPDEST SWAP3 POP POP PUSH1 0x1 DUP2 ADD SWAP1 POP PUSH2 0x153D JUMP JUMPDEST POP DUP6 SWAP4 POP POP POP POP SWAP3 SWAP2 POP POP JUMP JUMPDEST PUSH1 0x0 PUSH1 0x20 DUP3 ADD SWAP1 POP DUP2 DUP2 SUB PUSH1 0x0 DUP4 ADD MSTORE PUSH2 0x1598 DUP2 DUP5 PUSH2 0x1519 JUMP JUMPDEST SWAP1 POP SWAP3 SWAP2 POP POP JUMP JUMPDEST PUSH1 0x0 DUP2 ISZERO ISZERO SWAP1 POP SWAP2 SWAP1 POP JUMP JUMPDEST PUSH2 0x15B5 DUP2 PUSH2 0x15A0 JUMP JUMPDEST DUP2 EQ PUSH2 0x15C0 JUMPI PUSH1 0x0 DUP1 REVERT JUMPDEST POP JUMP JUMPDEST PUSH1 0x0 DUP2 MLOAD SWAP1 POP PUSH2 0x15D2 DUP2 PUSH2 0x15AC JUMP JUMPDEST SWAP3 SWAP2 POP POP JUMP JUMPDEST PUSH1 0x0 PUSH1 0x20 DUP3 DUP5 SUB SLT ISZERO PUSH2 0x15EE JUMPI PUSH2 0x15ED PUSH2 0x10B3 JUMP JUMPDEST JUMPDEST PUSH1 0x0 PUSH2 0x15FC DUP5 DUP3 DUP6 ADD PUSH2 0x15C3 JUMP JUMPDEST SWAP2 POP POP SWAP3 SWAP2 POP POP JUMP JUMPDEST PUSH1 0x0 DUP2 MLOAD SWAP1 POP PUSH2 0x1614 DUP2 PUSH2 0x11E2 JUMP JUMPDEST SWAP3 SWAP2 POP POP JUMP JUMPDEST PUSH1 0x0 PUSH1 0x20 DUP3 DUP5 SUB SLT ISZERO PUSH2 0x1630 JUMPI PUSH2 0x162F PUSH2 0x10B3 JUMP JUMPDEST JUMPDEST PUSH1 0x0 PUSH2 0x163E DUP5 DUP3 DUP6 ADD PUSH2 0x1605 JUMP JUMPDEST SWAP2 POP POP SWAP3 SWAP2 POP POP JUMP JUMPDEST PUSH32 0x4E487B7100000000000000000000000000000000000000000000000000000000 PUSH1 0x0 MSTORE PUSH1 0x12 PUSH1 0x4 MSTORE PUSH1 0x24 PUSH1 0x0 REVERT JUMPDEST PUSH32 0x4E487B7100000000000000000000000000000000000000000000000000000000 PUSH1 0x0 MSTORE PUSH1 0x11 PUSH1 0x4 MSTORE PUSH1 0x24 PUSH1 0x0 REVERT JUMPDEST PUSH1 0x0 PUSH2 0x16B0 DUP3 PUSH2 0x10BD JUMP JUMPDEST SWAP2 POP PUSH2 0x16BB DUP4 PUSH2 0x10BD JUMP JUMPDEST SWAP3 POP DUP3 PUSH2 0x16CB JUMPI PUSH2 0x16CA PUSH2 0x1647 JUMP JUMPDEST JUMPDEST DUP3 DUP3 DIV SWAP1 POP SWAP3 SWAP2 POP POP JUMP JUMPDEST PUSH1 0x0 PUSH2 0x16E1 DUP3 PUSH2 0x10BD JUMP JUMPDEST SWAP2 POP PUSH2 0x16EC DUP4 PUSH2 0x10BD JUMP JUMPDEST SWAP3 POP DUP2 PUSH32 0xFFFFFFFFFFFFFFFFFFFFFFFFFFFFFFFFFFFFFFFFFFFFFFFFFFFFFFFFFFFFFFFF DIV DUP4 GT DUP3 ISZERO ISZERO AND ISZERO PUSH2 0x1725 JUMPI PUSH2 0x1724 PUSH2 0x1676 JUMP JUMPDEST JUMPDEST DUP3 DUP3 MUL SWAP1 POP SWAP3 SWAP2 POP POP JUMP JUMPDEST PUSH32 0x73656E64657220616C7265616479206861732061204354000000000000000000 PUSH1 0x0 DUP3 ADD MSTORE POP JUMP JUMPDEST PUSH1 0x0 PUSH2 0x1766 PUSH1 0x17 DUP4 PUSH2 0x131B JUMP JUMPDEST SWAP2 POP PUSH2 0x1771 DUP3 PUSH2 0x1730 JUMP JUMPDEST PUSH1 0x20 DUP3 ADD SWAP1 POP SWAP2 SWAP1 POP JUMP JUMPDEST PUSH1 0x0 PUSH1 0x20 DUP3 ADD SWAP1 POP DUP2 DUP2 SUB PUSH1 0x0 DUP4 ADD MSTORE PUSH2 0x1795 DUP2 PUSH2 0x1759 JUMP JUMPDEST SWAP1 POP SWAP2 SWAP1 POP JUMP JUMPDEST PUSH1 0x0 DUP2 SWAP1 POP SWAP2 SWAP1 POP JUMP JUMPDEST PUSH1 0x0 DUP2 SWAP1 POP SWAP2 SWAP1 POP JUMP JUMPDEST PUSH1 0x0 PUSH2 0x17CB PUSH2 0x17C6 PUSH2 0x17C1 DUP5 PUSH2 0x179C JUMP JUMPDEST PUSH2 0x17A6 JUMP JUMPDEST PUSH2 0x10BD JUMP JUMPDEST SWAP1 POP SWAP2 SWAP1 POP JUMP JUMPDEST PUSH2 0x17DB DUP2 PUSH2 0x17B0 JUMP JUMPDEST DUP3 MSTORE POP POP JUMP JUMPDEST PUSH1 0x0 PUSH1 0x40 DUP3 ADD SWAP1 POP PUSH2 0x17F6 PUSH1 0x0 DUP4 ADD DUP6 PUSH2 0x11B8 JUMP JUMPDEST PUSH2 0x1803 PUSH1 0x20 DUP4 ADD DUP5 PUSH2 0x17D2 JUMP JUMPDEST SWAP4 SWAP3 POP POP POP JUMP JUMPDEST PUSH1 0x0 DUP1 REVERT JUMPDEST PUSH1 0x0 PUSH1 0x1F NOT PUSH1 0x1F DUP4 ADD AND SWAP1 POP SWAP2 SWAP1 POP JUMP JUMPDEST PUSH32 0x4E487B7100000000000000000000000000000000000000000000000000000000 PUSH1 0x0 MSTORE PUSH1 0x41 PUSH1 0x4 MSTORE PUSH1 0x24 PUSH1 0x0 REVERT JUMPDEST PUSH2 0x1858 DUP3 PUSH2 0x180F JUMP JUMPDEST DUP2 ADD DUP2 DUP2 LT PUSH8 0xFFFFFFFFFFFFFFFF DUP3 GT OR ISZERO PUSH2 0x1877 JUMPI PUSH2 0x1876 PUSH2 0x1820 JUMP JUMPDEST JUMPDEST DUP1 PUSH1 0x40 MSTORE POP POP POP JUMP JUMPDEST PUSH1 0x0 PUSH2 0x188A PUSH2 0x10A9 JUMP JUMPDEST SWAP1 POP PUSH2 0x1896 DUP3 DUP3 PUSH2 0x184F JUMP JUMPDEST SWAP2 SWAP1 POP JUMP JUMPDEST PUSH1 0x0 PUSH8 0xFFFFFFFFFFFFFFFF DUP3 GT ISZERO PUSH2 0x18B6 JUMPI PUSH2 0x18B5 PUSH2 0x1820 JUMP JUMPDEST JUMPDEST PUSH1 0x20 DUP3 MUL SWAP1 POP PUSH1 0x20 DUP2 ADD SWAP1 POP SWAP2 SWAP1 POP JUMP JUMPDEST PUSH1 0x0 DUP1 REVERT JUMPDEST PUSH1 0x0 PUSH2 0x18DF PUSH2 0x18DA DUP5 PUSH2 0x189B JUMP JUMPDEST PUSH2 0x1880 JUMP JUMPDEST SWAP1 POP DUP1 DUP4 DUP3 MSTORE PUSH1 0x20 DUP3 ADD SWAP1 POP PUSH1 0x20 DUP5 MUL DUP4 ADD DUP6 DUP2 GT ISZERO PUSH2 0x1902 JUMPI PUSH2 0x1901 PUSH2 0x18C7 JUMP JUMPDEST JUMPDEST DUP4 JUMPDEST DUP2 DUP2 LT ISZERO PUSH2 0x192B JUMPI DUP1 PUSH2 0x1917 DUP9 DUP3 PUSH2 0x1605 JUMP JUMPDEST DUP5 MSTORE PUSH1 0x20 DUP5 ADD SWAP4 POP POP PUSH1 0x20 DUP2 ADD SWAP1 POP PUSH2 0x1904 JUMP JUMPDEST POP POP POP SWAP4 SWAP3 POP POP POP JUMP JUMPDEST PUSH1 0x0 DUP3 PUSH1 0x1F DUP4 ADD SLT PUSH2 0x194A JUMPI PUSH2 0x1949 PUSH2 0x180A JUMP JUMPDEST JUMPDEST DUP2 MLOAD PUSH2 0x195A DUP5 DUP3 PUSH1 0x20 DUP7 ADD PUSH2 0x18CC JUMP JUMPDEST SWAP2 POP POP SWAP3 SWAP2 POP POP JUMP JUMPDEST PUSH1 0x0 PUSH1 0x20 DUP3 DUP5 SUB SLT ISZERO PUSH2 0x1979 JUMPI PUSH2 0x1978 PUSH2 0x10B3 JUMP JUMPDEST JUMPDEST PUSH1 0x0 DUP3 ADD MLOAD PUSH8 0xFFFFFFFFFFFFFFFF DUP2 GT ISZERO PUSH2 0x1997 JUMPI PUSH2 0x1996 PUSH2 0x10B8 JUMP JUMPDEST JUMPDEST PUSH2 0x19A3 DUP5 DUP3 DUP6 ADD PUSH2 0x1935 JUMP JUMPDEST SWAP2 POP POP SWAP3 SWAP2 POP POP JUMP JUMPDEST PUSH32 0x496E76657374206D696E696D756D206F6620302E312065746865720000000000 PUSH1 0x0 DUP3 ADD MSTORE POP JUMP JUMPDEST PUSH1 0x0 PUSH2 0x19E2 PUSH1 0x1B DUP4 PUSH2 0x131B JUMP JUMPDEST SWAP2 POP PUSH2 0x19ED DUP3 PUSH2 0x19AC JUMP JUMPDEST PUSH1 0x20 DUP3 ADD SWAP1 POP SWAP2 SWAP1 POP JUMP JUMPDEST PUSH1 0x0 PUSH1 0x20 DUP3 ADD SWAP1 POP DUP2 DUP2 SUB PUSH1 0x0 DUP4 ADD MSTORE PUSH2 0x1A11 DUP2 PUSH2 0x19D5 JUMP JUMPDEST SWAP1 POP SWAP2 SWAP1 POP JUMP JUMPDEST PUSH1 0x0 PUSH1 0x40 DUP3 ADD SWAP1 POP PUSH2 0x1A2D PUSH1 0x0 DUP4 ADD DUP6 PUSH2 0x11B8 JUMP JUMPDEST PUSH2 0x1A3A PUSH1 0x20 DUP4 ADD DUP5 PUSH2 0x11B8 JUMP JUMPDEST SWAP4 SWAP3 POP POP POP JUMP INVALID LOG2 PUSH5 0x6970667358 0x22 SLT KECCAK256 DUP16 0xEC LOG3 0x5D 0x24 ADDRESS 0x2E 0xA6 PUSH28 0xF309E3B64B0856350B84451A9711416B4F4777B222A67A64736F6C63 NUMBER STOP ADDMOD 0xD STOP CALLER "
				},
				"gasEstimates": {
					"creation": {
						"codeDepositCost": "1355000",
						"executionCost": "72048",
						"totalCost": "1427048"
					},
					"external": {
						"charyteam()": "2577",
						"closeDonations()": "24456",
						"doLottery()": "infinite",
						"donate()": "infinite",
						"donators(uint256)": "5045",
						"getBalance()": "385",
						"getCTBalance()": "infinite",
						"initiateLottery(address)": "24789",
						"initiateVoting(address)": "24811",
						"lotterycontract()": "2537",
						"lotterywinner()": "2536",
						"projects(uint256)": "4980",
						"sendCT()": "infinite",
						"sendDonations()": "4809",
						"sendWinn()": "infinite",
						"startTime()": "2474",
						"updateVoting()": "infinite",
						"voters(uint256)": "5044",
						"votingcontract()": "2582",
						"votingresult()": "infinite"
					}
				},
				"methodIdentifiers": {
					"charyteam()": "d1286e65",
					"closeDonations()": "99e7f8c2",
					"doLottery()": "583fa3a8",
					"donate()": "ed88c68e",
					"donators(uint256)": "ac62f566",
					"getBalance()": "12065fe0",
					"getCTBalance()": "54235142",
					"initiateLottery(address)": "9e992987",
					"initiateVoting(address)": "82caff48",
					"lotterycontract()": "8d6a8b80",
					"lotterywinner()": "c236b4c3",
					"projects(uint256)": "107046bd",
					"sendCT()": "7c4444ff",
					"sendDonations()": "cad65b70",
					"sendWinn()": "5bc036c4",
					"startTime()": "78e97925",
					"updateVoting()": "acc9c6b4",
					"voters(uint256)": "da58c7d9",
					"votingcontract()": "2e708fa8",
					"votingresult()": "86e899a2"
				}
			},
			"storageLayout": {
				"storage": [
					{
						"astId": 45,
						"contract": "contracts/donationspool.sol:Spendenpool",
						"label": "charyteam",
						"offset": 0,
						"slot": "0",
						"type": "t_address"
					},
					{
						"astId": 48,
						"contract": "contracts/donationspool.sol:Spendenpool",
						"label": "donators",
						"offset": 0,
						"slot": "1",
						"type": "t_array(t_address)dyn_storage"
					},
					{
						"astId": 51,
						"contract": "contracts/donationspool.sol:Spendenpool",
						"label": "voters",
						"offset": 0,
						"slot": "2",
						"type": "t_array(t_address)dyn_storage"
					},
					{
						"astId": 54,
						"contract": "contracts/donationspool.sol:Spendenpool",
						"label": "projects",
						"offset": 0,
						"slot": "3",
						"type": "t_array(t_address_payable)dyn_storage"
					},
					{
						"astId": 56,
						"contract": "contracts/donationspool.sol:Spendenpool",
						"label": "votingcontract",
						"offset": 0,
						"slot": "4",
						"type": "t_address"
					},
					{
						"astId": 58,
						"contract": "contracts/donationspool.sol:Spendenpool",
						"label": "lotterycontract",
						"offset": 0,
						"slot": "5",
						"type": "t_address"
					},
					{
						"astId": 60,
						"contract": "contracts/donationspool.sol:Spendenpool",
						"label": "lotterywinner",
						"offset": 0,
						"slot": "6",
						"type": "t_address_payable"
					},
					{
						"astId": 62,
						"contract": "contracts/donationspool.sol:Spendenpool",
						"label": "donations",
						"offset": 0,
						"slot": "7",
						"type": "t_uint256"
					},
					{
						"astId": 65,
						"contract": "contracts/donationspool.sol:Spendenpool",
						"label": "donationsopen",
						"offset": 0,
						"slot": "8",
						"type": "t_bool"
					},
					{
						"astId": 69,
						"contract": "contracts/donationspool.sol:Spendenpool",
						"label": "startTime",
						"offset": 0,
						"slot": "9",
						"type": "t_uint256"
					}
				],
				"types": {
					"t_address": {
						"encoding": "inplace",
						"label": "address",
						"numberOfBytes": "20"
					},
					"t_address_payable": {
						"encoding": "inplace",
						"label": "address payable",
						"numberOfBytes": "20"
					},
					"t_array(t_address)dyn_storage": {
						"base": "t_address",
						"encoding": "dynamic_array",
						"label": "address[]",
						"numberOfBytes": "32"
					},
					"t_array(t_address_payable)dyn_storage": {
						"base": "t_address_payable",
						"encoding": "dynamic_array",
						"label": "address payable[]",
						"numberOfBytes": "32"
					},
					"t_bool": {
						"encoding": "inplace",
						"label": "bool",
						"numberOfBytes": "1"
					},
					"t_uint256": {
						"encoding": "inplace",
						"label": "uint256",
						"numberOfBytes": "32"
					}
				}
			},
			"userdoc": {
				"kind": "user",
				"methods": {},
				"version": 1
			}
		}
	}
}