{
	"contracts/Lottery.sol": {
		"Lottery": {
			"abi": [
				{
					"inputs": [],
					"stateMutability": "nonpayable",
					"type": "constructor"
				},
				{
					"inputs": [
						{
							"internalType": "uint256",
							"name": "",
							"type": "uint256"
						}
					],
					"name": "donors",
					"outputs": [
						{
							"internalType": "address",
							"name": "",
							"type": "address"
						}
					],
					"stateMutability": "view",
					"type": "function"
				},
				{
					"inputs": [
						{
							"internalType": "address[]",
							"name": "_donators",
							"type": "address[]"
						},
						{
							"internalType": "bytes32",
							"name": "_sealedSeed",
							"type": "bytes32"
						}
					],
					"name": "enterLottery",
					"outputs": [
						{
							"internalType": "bool",
							"name": "",
							"type": "bool"
						}
					],
					"stateMutability": "nonpayable",
					"type": "function"
				},
				{
					"inputs": [
						{
							"internalType": "bytes32",
							"name": "_seed",
							"type": "bytes32"
						}
					],
					"name": "getWinner",
					"outputs": [
						{
							"internalType": "address",
							"name": "",
							"type": "address"
						}
					],
					"stateMutability": "nonpayable",
					"type": "function"
				},
				{
					"inputs": [],
					"name": "managerpool",
					"outputs": [
						{
							"internalType": "address",
							"name": "",
							"type": "address"
						}
					],
					"stateMutability": "view",
					"type": "function"
				},
				{
					"inputs": [
						{
							"internalType": "bytes32",
							"name": "_seed",
							"type": "bytes32"
						}
					],
					"name": "reveal",
					"outputs": [
						{
							"internalType": "uint256",
							"name": "",
							"type": "uint256"
						}
					],
					"stateMutability": "nonpayable",
					"type": "function"
				},
				{
					"inputs": [
						{
							"internalType": "bytes32",
							"name": "_sealedSeed",
							"type": "bytes32"
						}
					],
					"name": "setSealedSeed",
					"outputs": [],
					"stateMutability": "nonpayable",
					"type": "function"
				},
				{
					"inputs": [
						{
							"internalType": "bytes20",
							"name": "_test",
							"type": "bytes20"
						}
					],
					"name": "test",
					"outputs": [
						{
							"internalType": "bool",
							"name": "",
							"type": "bool"
						}
					],
					"stateMutability": "nonpayable",
					"type": "function"
				}
			],
			"devdoc": {
				"kind": "dev",
				"methods": {},
				"version": 1
			},
			"evm": {
				"assembly": "    /* \"contracts/Lottery.sol\":92:1824  contract Lottery is ILottery{... */\n  mstore(0x40, 0x80)\n    /* \"contracts/Lottery.sol\":344:462  constructor(){... */\n  callvalue\n  dup1\n  iszero\n  tag_1\n  jumpi\n  0x00\n  dup1\n  revert\ntag_1:\n  pop\n    /* \"contracts/Lottery.sol\":382:392  msg.sender */\n  caller\n    /* \"contracts/Lottery.sol\":368:379  managerpool */\n  0x00\n  dup1\n    /* \"contracts/Lottery.sol\":368:392  managerpool = msg.sender */\n  0x0100\n  exp\n  dup2\n  sload\n  dup2\n  0xffffffffffffffffffffffffffffffffffffffff\n  mul\n  not\n  and\n  swap1\n  dup4\n  0xffffffffffffffffffffffffffffffffffffffff\n  and\n  mul\n  or\n  swap1\n  sstore\n  pop\n    /* \"contracts/Lottery.sol\":414:419  false */\n  0x00\n    /* \"contracts/Lottery.sol\":404:411  seedSet */\n  0x03\n  0x00\n    /* \"contracts/Lottery.sol\":404:419  seedSet = false */\n  0x0100\n  exp\n  dup2\n  sload\n  dup2\n  0xff\n  mul\n  not\n  and\n  swap1\n  dup4\n  iszero\n  iszero\n  mul\n  or\n  swap1\n  sstore\n  pop\n    /* \"contracts/Lottery.sol\":448:453  false */\n  0x00\n    /* \"contracts/Lottery.sol\":430:445  donationsClosed */\n  0x03\n  0x01\n    /* \"contracts/Lottery.sol\":430:453  donationsClosed = false */\n  0x0100\n  exp\n  dup2\n  sload\n  dup2\n  0xff\n  mul\n  not\n  and\n  swap1\n  dup4\n  iszero\n  iszero\n  mul\n  or\n  swap1\n  sstore\n  pop\n    /* \"contracts/Lottery.sol\":92:1824  contract Lottery is ILottery{... */\n  dataSize(sub_0)\n  dup1\n  dataOffset(sub_0)\n  0x00\n  codecopy\n  0x00\n  return\nstop\n\nsub_0: assembly {\n        /* \"contracts/Lottery.sol\":92:1824  contract Lottery is ILottery{... */\n      mstore(0x40, 0x80)\n      callvalue\n      dup1\n      iszero\n      tag_1\n      jumpi\n      0x00\n      dup1\n      revert\n    tag_1:\n      pop\n      jumpi(tag_2, lt(calldatasize, 0x04))\n      shr(0xe0, calldataload(0x00))\n      dup1\n      0x4abfa163\n      gt\n      tag_10\n      jumpi\n      dup1\n      0x4abfa163\n      eq\n      tag_6\n      jumpi\n      dup1\n      0x5c6b143c\n      eq\n      tag_7\n      jumpi\n      dup1\n      0x701fd0f1\n      eq\n      tag_8\n      jumpi\n      dup1\n      0xdedfe223\n      eq\n      tag_9\n      jumpi\n      jump(tag_2)\n    tag_10:\n      dup1\n      0x1e5f9149\n      eq\n      tag_3\n      jumpi\n      dup1\n      0x41114538\n      eq\n      tag_4\n      jumpi\n      dup1\n      0x42c9cc1c\n      eq\n      tag_5\n      jumpi\n    tag_2:\n      0x00\n      dup1\n      revert\n        /* \"contracts/Lottery.sol\":673:860  function getWinner(bytes32 _seed) external returns(address){... */\n    tag_3:\n      tag_11\n      0x04\n      dup1\n      calldatasize\n      sub\n      dup2\n      add\n      swap1\n      tag_12\n      swap2\n      swap1\n      tag_13\n      jump\t// in\n    tag_12:\n      tag_14\n      jump\t// in\n    tag_11:\n      mload(0x40)\n      tag_15\n      swap2\n      swap1\n      tag_16\n      jump\t// in\n    tag_15:\n      mload(0x40)\n      dup1\n      swap2\n      sub\n      swap1\n      return\n        /* \"contracts/Lottery.sol\":868:1212  function setSealedSeed(bytes32 _sealedSeed) public {... */\n    tag_4:\n      tag_17\n      0x04\n      dup1\n      calldatasize\n      sub\n      dup2\n      add\n      swap1\n      tag_18\n      swap2\n      swap1\n      tag_13\n      jump\t// in\n    tag_18:\n      tag_19\n      jump\t// in\n    tag_17:\n      stop\n        /* \"contracts/Lottery.sol\":1711:1819  function test(bytes20 _test) public returns(bool) {... */\n    tag_5:\n      tag_20\n      0x04\n      dup1\n      calldatasize\n      sub\n      dup2\n      add\n      swap1\n      tag_21\n      swap2\n      swap1\n      tag_22\n      jump\t// in\n    tag_21:\n      tag_23\n      jump\t// in\n    tag_20:\n      mload(0x40)\n      tag_24\n      swap2\n      swap1\n      tag_25\n      jump\t// in\n    tag_24:\n      mload(0x40)\n      dup1\n      swap2\n      sub\n      swap1\n      return\n        /* \"contracts/Lottery.sol\":161:184  address[] public donors */\n    tag_6:\n      tag_26\n      0x04\n      dup1\n      calldatasize\n      sub\n      dup2\n      add\n      swap1\n      tag_27\n      swap2\n      swap1\n      tag_28\n      jump\t// in\n    tag_27:\n      tag_29\n      jump\t// in\n    tag_26:\n      mload(0x40)\n      tag_30\n      swap2\n      swap1\n      tag_16\n      jump\t// in\n    tag_30:\n      mload(0x40)\n      dup1\n      swap2\n      sub\n      swap1\n      return\n        /* \"contracts/Lottery.sol\":472:665  function enterLottery(address[] memory _donators, bytes32 _sealedSeed) external returns (bool){... */\n    tag_7:\n      tag_31\n      0x04\n      dup1\n      calldatasize\n      sub\n      dup2\n      add\n      swap1\n      tag_32\n      swap2\n      swap1\n      tag_33\n      jump\t// in\n    tag_32:\n      tag_34\n      jump\t// in\n    tag_31:\n      mload(0x40)\n      tag_35\n      swap2\n      swap1\n      tag_25\n      jump\t// in\n    tag_35:\n      mload(0x40)\n      dup1\n      swap2\n      sub\n      swap1\n      return\n        /* \"contracts/Lottery.sol\":1220:1705  function reveal(bytes32 _seed) public returns (uint){... */\n    tag_8:\n      tag_36\n      0x04\n      dup1\n      calldatasize\n      sub\n      dup2\n      add\n      swap1\n      tag_37\n      swap2\n      swap1\n      tag_13\n      jump\t// in\n    tag_37:\n      tag_38\n      jump\t// in\n    tag_36:\n      mload(0x40)\n      tag_39\n      swap2\n      swap1\n      tag_40\n      jump\t// in\n    tag_39:\n      mload(0x40)\n      dup1\n      swap2\n      sub\n      swap1\n      return\n        /* \"contracts/Lottery.sol\":127:153  address public managerpool */\n    tag_9:\n      tag_41\n      tag_42\n      jump\t// in\n    tag_41:\n      mload(0x40)\n      tag_43\n      swap2\n      swap1\n      tag_16\n      jump\t// in\n    tag_43:\n      mload(0x40)\n      dup1\n      swap2\n      sub\n      swap1\n      return\n        /* \"contracts/Lottery.sol\":673:860  function getWinner(bytes32 _seed) external returns(address){... */\n    tag_14:\n        /* \"contracts/Lottery.sol\":724:731  address */\n      0x00\n        /* \"contracts/Lottery.sol\":743:754  uint random */\n      dup1\n        /* \"contracts/Lottery.sol\":757:770  reveal(_seed) */\n      tag_45\n        /* \"contracts/Lottery.sol\":764:769  _seed */\n      dup4\n        /* \"contracts/Lottery.sol\":757:763  reveal */\n      tag_38\n        /* \"contracts/Lottery.sol\":757:770  reveal(_seed) */\n      jump\t// in\n    tag_45:\n        /* \"contracts/Lottery.sol\":743:770  uint random = reveal(_seed) */\n      swap1\n      pop\n        /* \"contracts/Lottery.sol\":789:799  msg.sender */\n      caller\n        /* \"contracts/Lottery.sol\":782:799  return msg.sender */\n      swap2\n      pop\n      pop\n        /* \"contracts/Lottery.sol\":673:860  function getWinner(bytes32 _seed) external returns(address){... */\n      swap2\n      swap1\n      pop\n      jump\t// out\n        /* \"contracts/Lottery.sol\":868:1212  function setSealedSeed(bytes32 _sealedSeed) public {... */\n    tag_19:\n        /* \"contracts/Lottery.sol\":940:947  seedSet */\n      0x03\n      0x00\n      swap1\n      sload\n      swap1\n      0x0100\n      exp\n      swap1\n      div\n      0xff\n      and\n        /* \"contracts/Lottery.sol\":939:947  !seedSet */\n      iszero\n        /* \"contracts/Lottery.sol\":930:971  require (!seedSet, \"seed is already set\") */\n      tag_47\n      jumpi\n      mload(0x40)\n      0x08c379a000000000000000000000000000000000000000000000000000000000\n      dup2\n      mstore\n      0x04\n      add\n      tag_48\n      swap1\n      tag_49\n      jump\t// in\n    tag_48:\n      mload(0x40)\n      dup1\n      swap2\n      sub\n      swap1\n      revert\n    tag_47:\n        /* \"contracts/Lottery.sol\":1005:1016  managerpool */\n      0x00\n      dup1\n      sload\n      swap1\n      0x0100\n      exp\n      swap1\n      div\n      0xffffffffffffffffffffffffffffffffffffffff\n      and\n        /* \"contracts/Lottery.sol\":991:1016  msg.sender == managerpool */\n      0xffffffffffffffffffffffffffffffffffffffff\n      and\n        /* \"contracts/Lottery.sol\":991:1001  msg.sender */\n      caller\n        /* \"contracts/Lottery.sol\":991:1016  msg.sender == managerpool */\n      0xffffffffffffffffffffffffffffffffffffffff\n      and\n      eq\n        /* \"contracts/Lottery.sol\":982:1060  require (msg.sender == managerpool, \"only managerpool can call this function\") */\n      tag_50\n      jumpi\n      mload(0x40)\n      0x08c379a000000000000000000000000000000000000000000000000000000000\n      dup2\n      mstore\n      0x04\n      add\n      tag_51\n      swap1\n      tag_52\n      jump\t// in\n    tag_51:\n      mload(0x40)\n      dup1\n      swap2\n      sub\n      swap1\n      revert\n    tag_50:\n        /* \"contracts/Lottery.sol\":1089:1093  true */\n      0x01\n        /* \"contracts/Lottery.sol\":1071:1086  donationsClosed */\n      0x03\n      0x01\n        /* \"contracts/Lottery.sol\":1071:1093  donationsClosed = true */\n      0x0100\n      exp\n      dup2\n      sload\n      dup2\n      0xff\n      mul\n      not\n      and\n      swap1\n      dup4\n      iszero\n      iszero\n      mul\n      or\n      swap1\n      sstore\n      pop\n        /* \"contracts/Lottery.sol\":1118:1129  _sealedSeed */\n      dup1\n        /* \"contracts/Lottery.sol\":1105:1115  sealedSeed */\n      0x02\n        /* \"contracts/Lottery.sol\":1105:1129  sealedSeed = _sealedSeed */\n      dup2\n      swap1\n      sstore\n      pop\n        /* \"contracts/Lottery.sol\":1176:1177  1 */\n      0x01\n        /* \"contracts/Lottery.sol\":1161:1173  block.number */\n      number\n        /* \"contracts/Lottery.sol\":1161:1177  block.number + 1 */\n      tag_53\n      swap2\n      swap1\n      tag_54\n      jump\t// in\n    tag_53:\n        /* \"contracts/Lottery.sol\":1141:1158  storedBlockNumber */\n      0x04\n        /* \"contracts/Lottery.sol\":1141:1177  storedBlockNumber = block.number + 1 */\n      dup2\n      swap1\n      sstore\n      pop\n        /* \"contracts/Lottery.sol\":1199:1203  true */\n      0x01\n        /* \"contracts/Lottery.sol\":1189:1196  seedSet */\n      0x03\n      0x00\n        /* \"contracts/Lottery.sol\":1189:1203  seedSet = true */\n      0x0100\n      exp\n      dup2\n      sload\n      dup2\n      0xff\n      mul\n      not\n      and\n      swap1\n      dup4\n      iszero\n      iszero\n      mul\n      or\n      swap1\n      sstore\n      pop\n        /* \"contracts/Lottery.sol\":868:1212  function setSealedSeed(bytes32 _sealedSeed) public {... */\n      pop\n      jump\t// out\n        /* \"contracts/Lottery.sol\":1711:1819  function test(bytes20 _test) public returns(bool) {... */\n    tag_23:\n        /* \"contracts/Lottery.sol\":1755:1759  bool */\n      0x00\n        /* \"contracts/Lottery.sol\":1711:1819  function test(bytes20 _test) public returns(bool) {... */\n      swap2\n      swap1\n      pop\n      jump\t// out\n        /* \"contracts/Lottery.sol\":161:184  address[] public donors */\n    tag_29:\n      0x01\n      dup2\n      dup2\n      sload\n      dup2\n      lt\n      tag_56\n      jumpi\n      0x00\n      dup1\n      revert\n    tag_56:\n      swap1\n      0x00\n      mstore\n      keccak256(0x00, 0x20)\n      add\n      0x00\n      swap2\n      pop\n      sload\n      swap1\n      0x0100\n      exp\n      swap1\n      div\n      0xffffffffffffffffffffffffffffffffffffffff\n      and\n      dup2\n      jump\t// out\n        /* \"contracts/Lottery.sol\":472:665  function enterLottery(address[] memory _donators, bytes32 _sealedSeed) external returns (bool){... */\n    tag_34:\n        /* \"contracts/Lottery.sol\":561:565  bool */\n      0x00\n        /* \"contracts/Lottery.sol\":586:595  _donators */\n      dup3\n        /* \"contracts/Lottery.sol\":577:583  donors */\n      0x01\n        /* \"contracts/Lottery.sol\":577:595  donors = _donators */\n      swap1\n      dup1\n      mload\n      swap1\n      0x20\n      add\n      swap1\n      tag_59\n      swap3\n      swap2\n      swap1\n      tag_60\n      jump\t// in\n    tag_59:\n      pop\n        /* \"contracts/Lottery.sol\":607:633  setSealedSeed(_sealedSeed) */\n      tag_61\n        /* \"contracts/Lottery.sol\":621:632  _sealedSeed */\n      dup3\n        /* \"contracts/Lottery.sol\":607:620  setSealedSeed */\n      tag_19\n        /* \"contracts/Lottery.sol\":607:633  setSealedSeed(_sealedSeed) */\n      jump\t// in\n    tag_61:\n        /* \"contracts/Lottery.sol\":652:656  true */\n      0x01\n        /* \"contracts/Lottery.sol\":645:656  return true */\n      swap1\n      pop\n        /* \"contracts/Lottery.sol\":472:665  function enterLottery(address[] memory _donators, bytes32 _sealedSeed) external returns (bool){... */\n      swap3\n      swap2\n      pop\n      pop\n      jump\t// out\n        /* \"contracts/Lottery.sol\":1220:1705  function reveal(bytes32 _seed) public returns (uint){... */\n    tag_38:\n        /* \"contracts/Lottery.sol\":1267:1271  uint */\n      0x00\n        /* \"contracts/Lottery.sol\":1291:1298  seedSet */\n      0x03\n      0x00\n      swap1\n      sload\n      swap1\n      0x0100\n      exp\n      swap1\n      div\n      0xff\n      and\n        /* \"contracts/Lottery.sol\":1283:1322  require(seedSet, \"seed is not yet set\") */\n      tag_63\n      jumpi\n      mload(0x40)\n      0x08c379a000000000000000000000000000000000000000000000000000000000\n      dup2\n      mstore\n      0x04\n      add\n      tag_64\n      swap1\n      tag_65\n      jump\t// in\n    tag_64:\n      mload(0x40)\n      dup1\n      swap2\n      sub\n      swap1\n      revert\n    tag_63:\n        /* \"contracts/Lottery.sol\":1342:1357  donationsClosed */\n      0x03\n      0x01\n      swap1\n      sload\n      swap1\n      0x0100\n      exp\n      swap1\n      div\n      0xff\n      and\n        /* \"contracts/Lottery.sol\":1334:1390  require(donationsClosed, \"donations are not closed yet\") */\n      tag_66\n      jumpi\n      mload(0x40)\n      0x08c379a000000000000000000000000000000000000000000000000000000000\n      dup2\n      mstore\n      0x04\n      add\n      tag_67\n      swap1\n      tag_68\n      jump\t// in\n    tag_67:\n      mload(0x40)\n      dup1\n      swap2\n      sub\n      swap1\n      revert\n    tag_66:\n        /* \"contracts/Lottery.sol\":1430:1442  block.number */\n      number\n        /* \"contracts/Lottery.sol\":1410:1427  storedBlockNumber */\n      sload(0x04)\n        /* \"contracts/Lottery.sol\":1410:1442  storedBlockNumber < block.number */\n      lt\n        /* \"contracts/Lottery.sol\":1402:1443  require(storedBlockNumber < block.number) */\n      tag_69\n      jumpi\n      0x00\n      dup1\n      revert\n    tag_69:\n        /* \"contracts/Lottery.sol\":1506:1516  sealedSeed */\n      sload(0x02)\n        /* \"contracts/Lottery.sol\":1484:1494  msg.sender */\n      caller\n        /* \"contracts/Lottery.sol\":1496:1501  _seed */\n      dup4\n        /* \"contracts/Lottery.sol\":1473:1502  abi.encode(msg.sender, _seed) */\n      add(0x20, mload(0x40))\n      tag_70\n      swap3\n      swap2\n      swap1\n      tag_71\n      jump\t// in\n    tag_70:\n      mload(0x40)\n      0x20\n      dup2\n      dup4\n      sub\n      sub\n      dup2\n      mstore\n      swap1\n      0x40\n      mstore\n        /* \"contracts/Lottery.sol\":1463:1503  keccak256(abi.encode(msg.sender, _seed)) */\n      dup1\n      mload\n      swap1\n      0x20\n      add\n      keccak256\n        /* \"contracts/Lottery.sol\":1463:1516  keccak256(abi.encode(msg.sender, _seed))== sealedSeed */\n      eq\n        /* \"contracts/Lottery.sol\":1455:1517  require(keccak256(abi.encode(msg.sender, _seed))== sealedSeed) */\n      tag_72\n      jumpi\n      0x00\n      dup1\n      revert\n    tag_72:\n        /* \"contracts/Lottery.sol\":1529:1540  uint random */\n      0x00\n        /* \"contracts/Lottery.sol\":1569:1574  _seed */\n      dup3\n        /* \"contracts/Lottery.sol\":1586:1603  storedBlockNumber */\n      sload(0x04)\n        /* \"contracts/Lottery.sol\":1576:1604  blockhash(storedBlockNumber) */\n      blockhash\n        /* \"contracts/Lottery.sol\":1558:1605  abi.encode(_seed, blockhash(storedBlockNumber)) */\n      add(0x20, mload(0x40))\n      tag_73\n      swap3\n      swap2\n      swap1\n      tag_74\n      jump\t// in\n    tag_73:\n      mload(0x40)\n      0x20\n      dup2\n      dup4\n      sub\n      sub\n      dup2\n      mstore\n      swap1\n      0x40\n      mstore\n        /* \"contracts/Lottery.sol\":1548:1606  keccak256(abi.encode(_seed, blockhash(storedBlockNumber))) */\n      dup1\n      mload\n      swap1\n      0x20\n      add\n      keccak256\n        /* \"contracts/Lottery.sol\":1543:1607  uint(keccak256(abi.encode(_seed, blockhash(storedBlockNumber)))) */\n      0x00\n      shr\n        /* \"contracts/Lottery.sol\":1529:1607  uint random = uint(keccak256(abi.encode(_seed, blockhash(storedBlockNumber)))) */\n      swap1\n      pop\n        /* \"contracts/Lottery.sol\":1690:1696  random */\n      dup1\n        /* \"contracts/Lottery.sol\":1683:1696  return random */\n      swap2\n      pop\n      pop\n        /* \"contracts/Lottery.sol\":1220:1705  function reveal(bytes32 _seed) public returns (uint){... */\n      swap2\n      swap1\n      pop\n      jump\t// out\n        /* \"contracts/Lottery.sol\":127:153  address public managerpool */\n    tag_42:\n      0x00\n      dup1\n      sload\n      swap1\n      0x0100\n      exp\n      swap1\n      div\n      0xffffffffffffffffffffffffffffffffffffffff\n      and\n      dup2\n      jump\t// out\n    tag_60:\n      dup3\n      dup1\n      sload\n      dup3\n      dup3\n      sstore\n      swap1\n      0x00\n      mstore\n      keccak256(0x00, 0x20)\n      swap1\n      dup2\n      add\n      swap3\n      dup3\n      iszero\n      tag_75\n      jumpi\n      swap2\n      0x20\n      mul\n      dup3\n      add\n    tag_76:\n      dup3\n      dup2\n      gt\n      iszero\n      tag_77\n      jumpi\n      dup3\n      mload\n      dup3\n      exp(0x0100, 0x00)\n      dup2\n      sload\n      dup2\n      0xffffffffffffffffffffffffffffffffffffffff\n      mul\n      not\n      and\n      swap1\n      dup4\n      0xffffffffffffffffffffffffffffffffffffffff\n      and\n      mul\n      or\n      swap1\n      sstore\n      pop\n      swap2\n      0x20\n      add\n      swap2\n      swap1\n      0x01\n      add\n      swap1\n      jump(tag_76)\n    tag_77:\n    tag_75:\n      pop\n      swap1\n      pop\n      tag_78\n      swap2\n      swap1\n      tag_79\n      jump\t// in\n    tag_78:\n      pop\n      swap1\n      jump\t// out\n    tag_79:\n    tag_80:\n      dup1\n      dup3\n      gt\n      iszero\n      tag_81\n      jumpi\n      0x00\n      dup2\n      0x00\n      swap1\n      sstore\n      pop\n      0x01\n      add\n      jump(tag_80)\n    tag_81:\n      pop\n      swap1\n      jump\t// out\n        /* \"#utility.yul\":7:82   */\n    tag_82:\n        /* \"#utility.yul\":40:46   */\n      0x00\n        /* \"#utility.yul\":73:75   */\n      0x40\n        /* \"#utility.yul\":67:76   */\n      mload\n        /* \"#utility.yul\":57:76   */\n      swap1\n      pop\n        /* \"#utility.yul\":7:82   */\n      swap1\n      jump\t// out\n        /* \"#utility.yul\":88:205   */\n    tag_83:\n        /* \"#utility.yul\":197:198   */\n      0x00\n        /* \"#utility.yul\":194:195   */\n      dup1\n        /* \"#utility.yul\":187:199   */\n      revert\n        /* \"#utility.yul\":211:328   */\n    tag_84:\n        /* \"#utility.yul\":320:321   */\n      0x00\n        /* \"#utility.yul\":317:318   */\n      dup1\n        /* \"#utility.yul\":310:322   */\n      revert\n        /* \"#utility.yul\":334:411   */\n    tag_85:\n        /* \"#utility.yul\":371:378   */\n      0x00\n        /* \"#utility.yul\":400:405   */\n      dup2\n        /* \"#utility.yul\":389:405   */\n      swap1\n      pop\n        /* \"#utility.yul\":334:411   */\n      swap2\n      swap1\n      pop\n      jump\t// out\n        /* \"#utility.yul\":417:539   */\n    tag_86:\n        /* \"#utility.yul\":490:514   */\n      tag_128\n        /* \"#utility.yul\":508:513   */\n      dup2\n        /* \"#utility.yul\":490:514   */\n      tag_85\n      jump\t// in\n    tag_128:\n        /* \"#utility.yul\":483:488   */\n      dup2\n        /* \"#utility.yul\":480:515   */\n      eq\n        /* \"#utility.yul\":470:533   */\n      tag_129\n      jumpi\n        /* \"#utility.yul\":529:530   */\n      0x00\n        /* \"#utility.yul\":526:527   */\n      dup1\n        /* \"#utility.yul\":519:531   */\n      revert\n        /* \"#utility.yul\":470:533   */\n    tag_129:\n        /* \"#utility.yul\":417:539   */\n      pop\n      jump\t// out\n        /* \"#utility.yul\":545:684   */\n    tag_87:\n        /* \"#utility.yul\":591:596   */\n      0x00\n        /* \"#utility.yul\":629:635   */\n      dup2\n        /* \"#utility.yul\":616:636   */\n      calldataload\n        /* \"#utility.yul\":607:636   */\n      swap1\n      pop\n        /* \"#utility.yul\":645:678   */\n      tag_131\n        /* \"#utility.yul\":672:677   */\n      dup2\n        /* \"#utility.yul\":645:678   */\n      tag_86\n      jump\t// in\n    tag_131:\n        /* \"#utility.yul\":545:684   */\n      swap3\n      swap2\n      pop\n      pop\n      jump\t// out\n        /* \"#utility.yul\":690:1019   */\n    tag_13:\n        /* \"#utility.yul\":749:755   */\n      0x00\n        /* \"#utility.yul\":798:800   */\n      0x20\n        /* \"#utility.yul\":786:795   */\n      dup3\n        /* \"#utility.yul\":777:784   */\n      dup5\n        /* \"#utility.yul\":773:796   */\n      sub\n        /* \"#utility.yul\":769:801   */\n      slt\n        /* \"#utility.yul\":766:885   */\n      iszero\n      tag_133\n      jumpi\n        /* \"#utility.yul\":804:883   */\n      tag_134\n      tag_83\n      jump\t// in\n    tag_134:\n        /* \"#utility.yul\":766:885   */\n    tag_133:\n        /* \"#utility.yul\":924:925   */\n      0x00\n        /* \"#utility.yul\":949:1002   */\n      tag_135\n        /* \"#utility.yul\":994:1001   */\n      dup5\n        /* \"#utility.yul\":985:991   */\n      dup3\n        /* \"#utility.yul\":974:983   */\n      dup6\n        /* \"#utility.yul\":970:992   */\n      add\n        /* \"#utility.yul\":949:1002   */\n      tag_87\n      jump\t// in\n    tag_135:\n        /* \"#utility.yul\":939:1002   */\n      swap2\n      pop\n        /* \"#utility.yul\":895:1012   */\n      pop\n        /* \"#utility.yul\":690:1019   */\n      swap3\n      swap2\n      pop\n      pop\n      jump\t// out\n        /* \"#utility.yul\":1025:1151   */\n    tag_88:\n        /* \"#utility.yul\":1062:1069   */\n      0x00\n        /* \"#utility.yul\":1102:1144   */\n      0xffffffffffffffffffffffffffffffffffffffff\n        /* \"#utility.yul\":1095:1100   */\n      dup3\n        /* \"#utility.yul\":1091:1145   */\n      and\n        /* \"#utility.yul\":1080:1145   */\n      swap1\n      pop\n        /* \"#utility.yul\":1025:1151   */\n      swap2\n      swap1\n      pop\n      jump\t// out\n        /* \"#utility.yul\":1157:1253   */\n    tag_89:\n        /* \"#utility.yul\":1194:1201   */\n      0x00\n        /* \"#utility.yul\":1223:1247   */\n      tag_138\n        /* \"#utility.yul\":1241:1246   */\n      dup3\n        /* \"#utility.yul\":1223:1247   */\n      tag_88\n      jump\t// in\n    tag_138:\n        /* \"#utility.yul\":1212:1247   */\n      swap1\n      pop\n        /* \"#utility.yul\":1157:1253   */\n      swap2\n      swap1\n      pop\n      jump\t// out\n        /* \"#utility.yul\":1259:1377   */\n    tag_90:\n        /* \"#utility.yul\":1346:1370   */\n      tag_140\n        /* \"#utility.yul\":1364:1369   */\n      dup2\n        /* \"#utility.yul\":1346:1370   */\n      tag_89\n      jump\t// in\n    tag_140:\n        /* \"#utility.yul\":1341:1344   */\n      dup3\n        /* \"#utility.yul\":1334:1371   */\n      mstore\n        /* \"#utility.yul\":1259:1377   */\n      pop\n      pop\n      jump\t// out\n        /* \"#utility.yul\":1383:1605   */\n    tag_16:\n        /* \"#utility.yul\":1476:1480   */\n      0x00\n        /* \"#utility.yul\":1514:1516   */\n      0x20\n        /* \"#utility.yul\":1503:1512   */\n      dup3\n        /* \"#utility.yul\":1499:1517   */\n      add\n        /* \"#utility.yul\":1491:1517   */\n      swap1\n      pop\n        /* \"#utility.yul\":1527:1598   */\n      tag_142\n        /* \"#utility.yul\":1595:1596   */\n      0x00\n        /* \"#utility.yul\":1584:1593   */\n      dup4\n        /* \"#utility.yul\":1580:1597   */\n      add\n        /* \"#utility.yul\":1571:1577   */\n      dup5\n        /* \"#utility.yul\":1527:1598   */\n      tag_90\n      jump\t// in\n    tag_142:\n        /* \"#utility.yul\":1383:1605   */\n      swap3\n      swap2\n      pop\n      pop\n      jump\t// out\n        /* \"#utility.yul\":1611:1761   */\n    tag_91:\n        /* \"#utility.yul\":1648:1655   */\n      0x00\n        /* \"#utility.yul\":1688:1754   */\n      0xffffffffffffffffffffffffffffffffffffffff000000000000000000000000\n        /* \"#utility.yul\":1681:1686   */\n      dup3\n        /* \"#utility.yul\":1677:1755   */\n      and\n        /* \"#utility.yul\":1666:1755   */\n      swap1\n      pop\n        /* \"#utility.yul\":1611:1761   */\n      swap2\n      swap1\n      pop\n      jump\t// out\n        /* \"#utility.yul\":1767:1889   */\n    tag_92:\n        /* \"#utility.yul\":1840:1864   */\n      tag_145\n        /* \"#utility.yul\":1858:1863   */\n      dup2\n        /* \"#utility.yul\":1840:1864   */\n      tag_91\n      jump\t// in\n    tag_145:\n        /* \"#utility.yul\":1833:1838   */\n      dup2\n        /* \"#utility.yul\":1830:1865   */\n      eq\n        /* \"#utility.yul\":1820:1883   */\n      tag_146\n      jumpi\n        /* \"#utility.yul\":1879:1880   */\n      0x00\n        /* \"#utility.yul\":1876:1877   */\n      dup1\n        /* \"#utility.yul\":1869:1881   */\n      revert\n        /* \"#utility.yul\":1820:1883   */\n    tag_146:\n        /* \"#utility.yul\":1767:1889   */\n      pop\n      jump\t// out\n        /* \"#utility.yul\":1895:2034   */\n    tag_93:\n        /* \"#utility.yul\":1941:1946   */\n      0x00\n        /* \"#utility.yul\":1979:1985   */\n      dup2\n        /* \"#utility.yul\":1966:1986   */\n      calldataload\n        /* \"#utility.yul\":1957:1986   */\n      swap1\n      pop\n        /* \"#utility.yul\":1995:2028   */\n      tag_148\n        /* \"#utility.yul\":2022:2027   */\n      dup2\n        /* \"#utility.yul\":1995:2028   */\n      tag_92\n      jump\t// in\n    tag_148:\n        /* \"#utility.yul\":1895:2034   */\n      swap3\n      swap2\n      pop\n      pop\n      jump\t// out\n        /* \"#utility.yul\":2040:2369   */\n    tag_22:\n        /* \"#utility.yul\":2099:2105   */\n      0x00\n        /* \"#utility.yul\":2148:2150   */\n      0x20\n        /* \"#utility.yul\":2136:2145   */\n      dup3\n        /* \"#utility.yul\":2127:2134   */\n      dup5\n        /* \"#utility.yul\":2123:2146   */\n      sub\n        /* \"#utility.yul\":2119:2151   */\n      slt\n        /* \"#utility.yul\":2116:2235   */\n      iszero\n      tag_150\n      jumpi\n        /* \"#utility.yul\":2154:2233   */\n      tag_151\n      tag_83\n      jump\t// in\n    tag_151:\n        /* \"#utility.yul\":2116:2235   */\n    tag_150:\n        /* \"#utility.yul\":2274:2275   */\n      0x00\n        /* \"#utility.yul\":2299:2352   */\n      tag_152\n        /* \"#utility.yul\":2344:2351   */\n      dup5\n        /* \"#utility.yul\":2335:2341   */\n      dup3\n        /* \"#utility.yul\":2324:2333   */\n      dup6\n        /* \"#utility.yul\":2320:2342   */\n      add\n        /* \"#utility.yul\":2299:2352   */\n      tag_93\n      jump\t// in\n    tag_152:\n        /* \"#utility.yul\":2289:2352   */\n      swap2\n      pop\n        /* \"#utility.yul\":2245:2362   */\n      pop\n        /* \"#utility.yul\":2040:2369   */\n      swap3\n      swap2\n      pop\n      pop\n      jump\t// out\n        /* \"#utility.yul\":2375:2465   */\n    tag_94:\n        /* \"#utility.yul\":2409:2416   */\n      0x00\n        /* \"#utility.yul\":2452:2457   */\n      dup2\n        /* \"#utility.yul\":2445:2458   */\n      iszero\n        /* \"#utility.yul\":2438:2459   */\n      iszero\n        /* \"#utility.yul\":2427:2459   */\n      swap1\n      pop\n        /* \"#utility.yul\":2375:2465   */\n      swap2\n      swap1\n      pop\n      jump\t// out\n        /* \"#utility.yul\":2471:2580   */\n    tag_95:\n        /* \"#utility.yul\":2552:2573   */\n      tag_155\n        /* \"#utility.yul\":2567:2572   */\n      dup2\n        /* \"#utility.yul\":2552:2573   */\n      tag_94\n      jump\t// in\n    tag_155:\n        /* \"#utility.yul\":2547:2550   */\n      dup3\n        /* \"#utility.yul\":2540:2574   */\n      mstore\n        /* \"#utility.yul\":2471:2580   */\n      pop\n      pop\n      jump\t// out\n        /* \"#utility.yul\":2586:2796   */\n    tag_25:\n        /* \"#utility.yul\":2673:2677   */\n      0x00\n        /* \"#utility.yul\":2711:2713   */\n      0x20\n        /* \"#utility.yul\":2700:2709   */\n      dup3\n        /* \"#utility.yul\":2696:2714   */\n      add\n        /* \"#utility.yul\":2688:2714   */\n      swap1\n      pop\n        /* \"#utility.yul\":2724:2789   */\n      tag_157\n        /* \"#utility.yul\":2786:2787   */\n      0x00\n        /* \"#utility.yul\":2775:2784   */\n      dup4\n        /* \"#utility.yul\":2771:2788   */\n      add\n        /* \"#utility.yul\":2762:2768   */\n      dup5\n        /* \"#utility.yul\":2724:2789   */\n      tag_95\n      jump\t// in\n    tag_157:\n        /* \"#utility.yul\":2586:2796   */\n      swap3\n      swap2\n      pop\n      pop\n      jump\t// out\n        /* \"#utility.yul\":2802:2879   */\n    tag_96:\n        /* \"#utility.yul\":2839:2846   */\n      0x00\n        /* \"#utility.yul\":2868:2873   */\n      dup2\n        /* \"#utility.yul\":2857:2873   */\n      swap1\n      pop\n        /* \"#utility.yul\":2802:2879   */\n      swap2\n      swap1\n      pop\n      jump\t// out\n        /* \"#utility.yul\":2885:3007   */\n    tag_97:\n        /* \"#utility.yul\":2958:2982   */\n      tag_160\n        /* \"#utility.yul\":2976:2981   */\n      dup2\n        /* \"#utility.yul\":2958:2982   */\n      tag_96\n      jump\t// in\n    tag_160:\n        /* \"#utility.yul\":2951:2956   */\n      dup2\n        /* \"#utility.yul\":2948:2983   */\n      eq\n        /* \"#utility.yul\":2938:3001   */\n      tag_161\n      jumpi\n        /* \"#utility.yul\":2997:2998   */\n      0x00\n        /* \"#utility.yul\":2994:2995   */\n      dup1\n        /* \"#utility.yul\":2987:2999   */\n      revert\n        /* \"#utility.yul\":2938:3001   */\n    tag_161:\n        /* \"#utility.yul\":2885:3007   */\n      pop\n      jump\t// out\n        /* \"#utility.yul\":3013:3152   */\n    tag_98:\n        /* \"#utility.yul\":3059:3064   */\n      0x00\n        /* \"#utility.yul\":3097:3103   */\n      dup2\n        /* \"#utility.yul\":3084:3104   */\n      calldataload\n        /* \"#utility.yul\":3075:3104   */\n      swap1\n      pop\n        /* \"#utility.yul\":3113:3146   */\n      tag_163\n        /* \"#utility.yul\":3140:3145   */\n      dup2\n        /* \"#utility.yul\":3113:3146   */\n      tag_97\n      jump\t// in\n    tag_163:\n        /* \"#utility.yul\":3013:3152   */\n      swap3\n      swap2\n      pop\n      pop\n      jump\t// out\n        /* \"#utility.yul\":3158:3487   */\n    tag_28:\n        /* \"#utility.yul\":3217:3223   */\n      0x00\n        /* \"#utility.yul\":3266:3268   */\n      0x20\n        /* \"#utility.yul\":3254:3263   */\n      dup3\n        /* \"#utility.yul\":3245:3252   */\n      dup5\n        /* \"#utility.yul\":3241:3264   */\n      sub\n        /* \"#utility.yul\":3237:3269   */\n      slt\n        /* \"#utility.yul\":3234:3353   */\n      iszero\n      tag_165\n      jumpi\n        /* \"#utility.yul\":3272:3351   */\n      tag_166\n      tag_83\n      jump\t// in\n    tag_166:\n        /* \"#utility.yul\":3234:3353   */\n    tag_165:\n        /* \"#utility.yul\":3392:3393   */\n      0x00\n        /* \"#utility.yul\":3417:3470   */\n      tag_167\n        /* \"#utility.yul\":3462:3469   */\n      dup5\n        /* \"#utility.yul\":3453:3459   */\n      dup3\n        /* \"#utility.yul\":3442:3451   */\n      dup6\n        /* \"#utility.yul\":3438:3460   */\n      add\n        /* \"#utility.yul\":3417:3470   */\n      tag_98\n      jump\t// in\n    tag_167:\n        /* \"#utility.yul\":3407:3470   */\n      swap2\n      pop\n        /* \"#utility.yul\":3363:3480   */\n      pop\n        /* \"#utility.yul\":3158:3487   */\n      swap3\n      swap2\n      pop\n      pop\n      jump\t// out\n        /* \"#utility.yul\":3493:3610   */\n    tag_99:\n        /* \"#utility.yul\":3602:3603   */\n      0x00\n        /* \"#utility.yul\":3599:3600   */\n      dup1\n        /* \"#utility.yul\":3592:3604   */\n      revert\n        /* \"#utility.yul\":3616:3718   */\n    tag_100:\n        /* \"#utility.yul\":3657:3663   */\n      0x00\n        /* \"#utility.yul\":3708:3710   */\n      0x1f\n        /* \"#utility.yul\":3704:3711   */\n      not\n        /* \"#utility.yul\":3699:3701   */\n      0x1f\n        /* \"#utility.yul\":3692:3697   */\n      dup4\n        /* \"#utility.yul\":3688:3702   */\n      add\n        /* \"#utility.yul\":3684:3712   */\n      and\n        /* \"#utility.yul\":3674:3712   */\n      swap1\n      pop\n        /* \"#utility.yul\":3616:3718   */\n      swap2\n      swap1\n      pop\n      jump\t// out\n        /* \"#utility.yul\":3724:3904   */\n    tag_101:\n        /* \"#utility.yul\":3772:3849   */\n      0x4e487b7100000000000000000000000000000000000000000000000000000000\n        /* \"#utility.yul\":3769:3770   */\n      0x00\n        /* \"#utility.yul\":3762:3850   */\n      mstore\n        /* \"#utility.yul\":3869:3873   */\n      0x41\n        /* \"#utility.yul\":3866:3867   */\n      0x04\n        /* \"#utility.yul\":3859:3874   */\n      mstore\n        /* \"#utility.yul\":3893:3897   */\n      0x24\n        /* \"#utility.yul\":3890:3891   */\n      0x00\n        /* \"#utility.yul\":3883:3898   */\n      revert\n        /* \"#utility.yul\":3910:4191   */\n    tag_102:\n        /* \"#utility.yul\":3993:4020   */\n      tag_172\n        /* \"#utility.yul\":4015:4019   */\n      dup3\n        /* \"#utility.yul\":3993:4020   */\n      tag_100\n      jump\t// in\n    tag_172:\n        /* \"#utility.yul\":3985:3991   */\n      dup2\n        /* \"#utility.yul\":3981:4021   */\n      add\n        /* \"#utility.yul\":4123:4129   */\n      dup2\n        /* \"#utility.yul\":4111:4121   */\n      dup2\n        /* \"#utility.yul\":4108:4130   */\n      lt\n        /* \"#utility.yul\":4087:4105   */\n      0xffffffffffffffff\n        /* \"#utility.yul\":4075:4085   */\n      dup3\n        /* \"#utility.yul\":4072:4106   */\n      gt\n        /* \"#utility.yul\":4069:4131   */\n      or\n        /* \"#utility.yul\":4066:4154   */\n      iszero\n      tag_173\n      jumpi\n        /* \"#utility.yul\":4134:4152   */\n      tag_174\n      tag_101\n      jump\t// in\n    tag_174:\n        /* \"#utility.yul\":4066:4154   */\n    tag_173:\n        /* \"#utility.yul\":4174:4184   */\n      dup1\n        /* \"#utility.yul\":4170:4172   */\n      0x40\n        /* \"#utility.yul\":4163:4185   */\n      mstore\n        /* \"#utility.yul\":3953:4191   */\n      pop\n        /* \"#utility.yul\":3910:4191   */\n      pop\n      pop\n      jump\t// out\n        /* \"#utility.yul\":4197:4326   */\n    tag_103:\n        /* \"#utility.yul\":4231:4237   */\n      0x00\n        /* \"#utility.yul\":4258:4278   */\n      tag_176\n      tag_82\n      jump\t// in\n    tag_176:\n        /* \"#utility.yul\":4248:4278   */\n      swap1\n      pop\n        /* \"#utility.yul\":4287:4320   */\n      tag_177\n        /* \"#utility.yul\":4315:4319   */\n      dup3\n        /* \"#utility.yul\":4307:4313   */\n      dup3\n        /* \"#utility.yul\":4287:4320   */\n      tag_102\n      jump\t// in\n    tag_177:\n        /* \"#utility.yul\":4197:4326   */\n      swap2\n      swap1\n      pop\n      jump\t// out\n        /* \"#utility.yul\":4332:4643   */\n    tag_104:\n        /* \"#utility.yul\":4409:4413   */\n      0x00\n        /* \"#utility.yul\":4499:4517   */\n      0xffffffffffffffff\n        /* \"#utility.yul\":4491:4497   */\n      dup3\n        /* \"#utility.yul\":4488:4518   */\n      gt\n        /* \"#utility.yul\":4485:4541   */\n      iszero\n      tag_179\n      jumpi\n        /* \"#utility.yul\":4521:4539   */\n      tag_180\n      tag_101\n      jump\t// in\n    tag_180:\n        /* \"#utility.yul\":4485:4541   */\n    tag_179:\n        /* \"#utility.yul\":4571:4575   */\n      0x20\n        /* \"#utility.yul\":4563:4569   */\n      dup3\n        /* \"#utility.yul\":4559:4576   */\n      mul\n        /* \"#utility.yul\":4551:4576   */\n      swap1\n      pop\n        /* \"#utility.yul\":4631:4635   */\n      0x20\n        /* \"#utility.yul\":4625:4629   */\n      dup2\n        /* \"#utility.yul\":4621:4636   */\n      add\n        /* \"#utility.yul\":4613:4636   */\n      swap1\n      pop\n        /* \"#utility.yul\":4332:4643   */\n      swap2\n      swap1\n      pop\n      jump\t// out\n        /* \"#utility.yul\":4649:4766   */\n    tag_105:\n        /* \"#utility.yul\":4758:4759   */\n      0x00\n        /* \"#utility.yul\":4755:4756   */\n      dup1\n        /* \"#utility.yul\":4748:4760   */\n      revert\n        /* \"#utility.yul\":4772:4894   */\n    tag_106:\n        /* \"#utility.yul\":4845:4869   */\n      tag_183\n        /* \"#utility.yul\":4863:4868   */\n      dup2\n        /* \"#utility.yul\":4845:4869   */\n      tag_89\n      jump\t// in\n    tag_183:\n        /* \"#utility.yul\":4838:4843   */\n      dup2\n        /* \"#utility.yul\":4835:4870   */\n      eq\n        /* \"#utility.yul\":4825:4888   */\n      tag_184\n      jumpi\n        /* \"#utility.yul\":4884:4885   */\n      0x00\n        /* \"#utility.yul\":4881:4882   */\n      dup1\n        /* \"#utility.yul\":4874:4886   */\n      revert\n        /* \"#utility.yul\":4825:4888   */\n    tag_184:\n        /* \"#utility.yul\":4772:4894   */\n      pop\n      jump\t// out\n        /* \"#utility.yul\":4900:5039   */\n    tag_107:\n        /* \"#utility.yul\":4946:4951   */\n      0x00\n        /* \"#utility.yul\":4984:4990   */\n      dup2\n        /* \"#utility.yul\":4971:4991   */\n      calldataload\n        /* \"#utility.yul\":4962:4991   */\n      swap1\n      pop\n        /* \"#utility.yul\":5000:5033   */\n      tag_186\n        /* \"#utility.yul\":5027:5032   */\n      dup2\n        /* \"#utility.yul\":5000:5033   */\n      tag_106\n      jump\t// in\n    tag_186:\n        /* \"#utility.yul\":4900:5039   */\n      swap3\n      swap2\n      pop\n      pop\n      jump\t// out\n        /* \"#utility.yul\":5062:5772   */\n    tag_108:\n        /* \"#utility.yul\":5158:5163   */\n      0x00\n        /* \"#utility.yul\":5183:5264   */\n      tag_188\n        /* \"#utility.yul\":5199:5263   */\n      tag_189\n        /* \"#utility.yul\":5256:5262   */\n      dup5\n        /* \"#utility.yul\":5199:5263   */\n      tag_104\n      jump\t// in\n    tag_189:\n        /* \"#utility.yul\":5183:5264   */\n      tag_103\n      jump\t// in\n    tag_188:\n        /* \"#utility.yul\":5174:5264   */\n      swap1\n      pop\n        /* \"#utility.yul\":5284:5289   */\n      dup1\n        /* \"#utility.yul\":5313:5319   */\n      dup4\n        /* \"#utility.yul\":5306:5311   */\n      dup3\n        /* \"#utility.yul\":5299:5320   */\n      mstore\n        /* \"#utility.yul\":5347:5351   */\n      0x20\n        /* \"#utility.yul\":5340:5345   */\n      dup3\n        /* \"#utility.yul\":5336:5352   */\n      add\n        /* \"#utility.yul\":5329:5352   */\n      swap1\n      pop\n        /* \"#utility.yul\":5400:5404   */\n      0x20\n        /* \"#utility.yul\":5392:5398   */\n      dup5\n        /* \"#utility.yul\":5388:5405   */\n      mul\n        /* \"#utility.yul\":5380:5386   */\n      dup4\n        /* \"#utility.yul\":5376:5406   */\n      add\n        /* \"#utility.yul\":5429:5432   */\n      dup6\n        /* \"#utility.yul\":5421:5427   */\n      dup2\n        /* \"#utility.yul\":5418:5433   */\n      gt\n        /* \"#utility.yul\":5415:5537   */\n      iszero\n      tag_190\n      jumpi\n        /* \"#utility.yul\":5448:5527   */\n      tag_191\n      tag_105\n      jump\t// in\n    tag_191:\n        /* \"#utility.yul\":5415:5537   */\n    tag_190:\n        /* \"#utility.yul\":5563:5569   */\n      dup4\n        /* \"#utility.yul\":5546:5766   */\n    tag_192:\n        /* \"#utility.yul\":5580:5586   */\n      dup2\n        /* \"#utility.yul\":5575:5578   */\n      dup2\n        /* \"#utility.yul\":5572:5587   */\n      lt\n        /* \"#utility.yul\":5546:5766   */\n      iszero\n      tag_194\n      jumpi\n        /* \"#utility.yul\":5655:5658   */\n      dup1\n        /* \"#utility.yul\":5684:5721   */\n      tag_195\n        /* \"#utility.yul\":5717:5720   */\n      dup9\n        /* \"#utility.yul\":5705:5715   */\n      dup3\n        /* \"#utility.yul\":5684:5721   */\n      tag_107\n      jump\t// in\n    tag_195:\n        /* \"#utility.yul\":5679:5682   */\n      dup5\n        /* \"#utility.yul\":5672:5722   */\n      mstore\n        /* \"#utility.yul\":5751:5755   */\n      0x20\n        /* \"#utility.yul\":5746:5749   */\n      dup5\n        /* \"#utility.yul\":5742:5756   */\n      add\n        /* \"#utility.yul\":5735:5756   */\n      swap4\n      pop\n        /* \"#utility.yul\":5622:5766   */\n      pop\n        /* \"#utility.yul\":5606:5610   */\n      0x20\n        /* \"#utility.yul\":5601:5604   */\n      dup2\n        /* \"#utility.yul\":5597:5611   */\n      add\n        /* \"#utility.yul\":5590:5611   */\n      swap1\n      pop\n        /* \"#utility.yul\":5546:5766   */\n      jump(tag_192)\n    tag_194:\n        /* \"#utility.yul\":5550:5571   */\n      pop\n        /* \"#utility.yul\":5164:5772   */\n      pop\n      pop\n        /* \"#utility.yul\":5062:5772   */\n      swap4\n      swap3\n      pop\n      pop\n      pop\n      jump\t// out\n        /* \"#utility.yul\":5795:6165   */\n    tag_109:\n        /* \"#utility.yul\":5866:5871   */\n      0x00\n        /* \"#utility.yul\":5915:5918   */\n      dup3\n        /* \"#utility.yul\":5908:5912   */\n      0x1f\n        /* \"#utility.yul\":5900:5906   */\n      dup4\n        /* \"#utility.yul\":5896:5913   */\n      add\n        /* \"#utility.yul\":5892:5919   */\n      slt\n        /* \"#utility.yul\":5882:6004   */\n      tag_197\n      jumpi\n        /* \"#utility.yul\":5923:6002   */\n      tag_198\n      tag_99\n      jump\t// in\n    tag_198:\n        /* \"#utility.yul\":5882:6004   */\n    tag_197:\n        /* \"#utility.yul\":6040:6046   */\n      dup2\n        /* \"#utility.yul\":6027:6047   */\n      calldataload\n        /* \"#utility.yul\":6065:6159   */\n      tag_199\n        /* \"#utility.yul\":6155:6158   */\n      dup5\n        /* \"#utility.yul\":6147:6153   */\n      dup3\n        /* \"#utility.yul\":6140:6144   */\n      0x20\n        /* \"#utility.yul\":6132:6138   */\n      dup7\n        /* \"#utility.yul\":6128:6145   */\n      add\n        /* \"#utility.yul\":6065:6159   */\n      tag_108\n      jump\t// in\n    tag_199:\n        /* \"#utility.yul\":6056:6159   */\n      swap2\n      pop\n        /* \"#utility.yul\":5872:6165   */\n      pop\n        /* \"#utility.yul\":5795:6165   */\n      swap3\n      swap2\n      pop\n      pop\n      jump\t// out\n        /* \"#utility.yul\":6171:6855   */\n    tag_33:\n        /* \"#utility.yul\":6264:6270   */\n      0x00\n        /* \"#utility.yul\":6272:6278   */\n      dup1\n        /* \"#utility.yul\":6321:6323   */\n      0x40\n        /* \"#utility.yul\":6309:6318   */\n      dup4\n        /* \"#utility.yul\":6300:6307   */\n      dup6\n        /* \"#utility.yul\":6296:6319   */\n      sub\n        /* \"#utility.yul\":6292:6324   */\n      slt\n        /* \"#utility.yul\":6289:6408   */\n      iszero\n      tag_201\n      jumpi\n        /* \"#utility.yul\":6327:6406   */\n      tag_202\n      tag_83\n      jump\t// in\n    tag_202:\n        /* \"#utility.yul\":6289:6408   */\n    tag_201:\n        /* \"#utility.yul\":6475:6476   */\n      0x00\n        /* \"#utility.yul\":6464:6473   */\n      dup4\n        /* \"#utility.yul\":6460:6477   */\n      add\n        /* \"#utility.yul\":6447:6478   */\n      calldataload\n        /* \"#utility.yul\":6505:6523   */\n      0xffffffffffffffff\n        /* \"#utility.yul\":6497:6503   */\n      dup2\n        /* \"#utility.yul\":6494:6524   */\n      gt\n        /* \"#utility.yul\":6491:6608   */\n      iszero\n      tag_203\n      jumpi\n        /* \"#utility.yul\":6527:6606   */\n      tag_204\n      tag_84\n      jump\t// in\n    tag_204:\n        /* \"#utility.yul\":6491:6608   */\n    tag_203:\n        /* \"#utility.yul\":6632:6710   */\n      tag_205\n        /* \"#utility.yul\":6702:6709   */\n      dup6\n        /* \"#utility.yul\":6693:6699   */\n      dup3\n        /* \"#utility.yul\":6682:6691   */\n      dup7\n        /* \"#utility.yul\":6678:6700   */\n      add\n        /* \"#utility.yul\":6632:6710   */\n      tag_109\n      jump\t// in\n    tag_205:\n        /* \"#utility.yul\":6622:6710   */\n      swap3\n      pop\n        /* \"#utility.yul\":6418:6720   */\n      pop\n        /* \"#utility.yul\":6759:6761   */\n      0x20\n        /* \"#utility.yul\":6785:6838   */\n      tag_206\n        /* \"#utility.yul\":6830:6837   */\n      dup6\n        /* \"#utility.yul\":6821:6827   */\n      dup3\n        /* \"#utility.yul\":6810:6819   */\n      dup7\n        /* \"#utility.yul\":6806:6828   */\n      add\n        /* \"#utility.yul\":6785:6838   */\n      tag_87\n      jump\t// in\n    tag_206:\n        /* \"#utility.yul\":6775:6838   */\n      swap2\n      pop\n        /* \"#utility.yul\":6730:6848   */\n      pop\n        /* \"#utility.yul\":6171:6855   */\n      swap3\n      pop\n      swap3\n      swap1\n      pop\n      jump\t// out\n        /* \"#utility.yul\":6861:6979   */\n    tag_110:\n        /* \"#utility.yul\":6948:6972   */\n      tag_208\n        /* \"#utility.yul\":6966:6971   */\n      dup2\n        /* \"#utility.yul\":6948:6972   */\n      tag_96\n      jump\t// in\n    tag_208:\n        /* \"#utility.yul\":6943:6946   */\n      dup3\n        /* \"#utility.yul\":6936:6973   */\n      mstore\n        /* \"#utility.yul\":6861:6979   */\n      pop\n      pop\n      jump\t// out\n        /* \"#utility.yul\":6985:7207   */\n    tag_40:\n        /* \"#utility.yul\":7078:7082   */\n      0x00\n        /* \"#utility.yul\":7116:7118   */\n      0x20\n        /* \"#utility.yul\":7105:7114   */\n      dup3\n        /* \"#utility.yul\":7101:7119   */\n      add\n        /* \"#utility.yul\":7093:7119   */\n      swap1\n      pop\n        /* \"#utility.yul\":7129:7200   */\n      tag_210\n        /* \"#utility.yul\":7197:7198   */\n      0x00\n        /* \"#utility.yul\":7186:7195   */\n      dup4\n        /* \"#utility.yul\":7182:7199   */\n      add\n        /* \"#utility.yul\":7173:7179   */\n      dup5\n        /* \"#utility.yul\":7129:7200   */\n      tag_110\n      jump\t// in\n    tag_210:\n        /* \"#utility.yul\":6985:7207   */\n      swap3\n      swap2\n      pop\n      pop\n      jump\t// out\n        /* \"#utility.yul\":7213:7382   */\n    tag_111:\n        /* \"#utility.yul\":7297:7308   */\n      0x00\n        /* \"#utility.yul\":7331:7337   */\n      dup3\n        /* \"#utility.yul\":7326:7329   */\n      dup3\n        /* \"#utility.yul\":7319:7338   */\n      mstore\n        /* \"#utility.yul\":7371:7375   */\n      0x20\n        /* \"#utility.yul\":7366:7369   */\n      dup3\n        /* \"#utility.yul\":7362:7376   */\n      add\n        /* \"#utility.yul\":7347:7376   */\n      swap1\n      pop\n        /* \"#utility.yul\":7213:7382   */\n      swap3\n      swap2\n      pop\n      pop\n      jump\t// out\n        /* \"#utility.yul\":7388:7557   */\n    tag_112:\n        /* \"#utility.yul\":7528:7549   */\n      0x7365656420697320616c72656164792073657400000000000000000000000000\n        /* \"#utility.yul\":7524:7525   */\n      0x00\n        /* \"#utility.yul\":7516:7522   */\n      dup3\n        /* \"#utility.yul\":7512:7526   */\n      add\n        /* \"#utility.yul\":7505:7550   */\n      mstore\n        /* \"#utility.yul\":7388:7557   */\n      pop\n      jump\t// out\n        /* \"#utility.yul\":7563:7929   */\n    tag_113:\n        /* \"#utility.yul\":7705:7708   */\n      0x00\n        /* \"#utility.yul\":7726:7793   */\n      tag_214\n        /* \"#utility.yul\":7790:7792   */\n      0x13\n        /* \"#utility.yul\":7785:7788   */\n      dup4\n        /* \"#utility.yul\":7726:7793   */\n      tag_111\n      jump\t// in\n    tag_214:\n        /* \"#utility.yul\":7719:7793   */\n      swap2\n      pop\n        /* \"#utility.yul\":7802:7895   */\n      tag_215\n        /* \"#utility.yul\":7891:7894   */\n      dup3\n        /* \"#utility.yul\":7802:7895   */\n      tag_112\n      jump\t// in\n    tag_215:\n        /* \"#utility.yul\":7920:7922   */\n      0x20\n        /* \"#utility.yul\":7915:7918   */\n      dup3\n        /* \"#utility.yul\":7911:7923   */\n      add\n        /* \"#utility.yul\":7904:7923   */\n      swap1\n      pop\n        /* \"#utility.yul\":7563:7929   */\n      swap2\n      swap1\n      pop\n      jump\t// out\n        /* \"#utility.yul\":7935:8354   */\n    tag_49:\n        /* \"#utility.yul\":8101:8105   */\n      0x00\n        /* \"#utility.yul\":8139:8141   */\n      0x20\n        /* \"#utility.yul\":8128:8137   */\n      dup3\n        /* \"#utility.yul\":8124:8142   */\n      add\n        /* \"#utility.yul\":8116:8142   */\n      swap1\n      pop\n        /* \"#utility.yul\":8188:8197   */\n      dup2\n        /* \"#utility.yul\":8182:8186   */\n      dup2\n        /* \"#utility.yul\":8178:8198   */\n      sub\n        /* \"#utility.yul\":8174:8175   */\n      0x00\n        /* \"#utility.yul\":8163:8172   */\n      dup4\n        /* \"#utility.yul\":8159:8176   */\n      add\n        /* \"#utility.yul\":8152:8199   */\n      mstore\n        /* \"#utility.yul\":8216:8347   */\n      tag_217\n        /* \"#utility.yul\":8342:8346   */\n      dup2\n        /* \"#utility.yul\":8216:8347   */\n      tag_113\n      jump\t// in\n    tag_217:\n        /* \"#utility.yul\":8208:8347   */\n      swap1\n      pop\n        /* \"#utility.yul\":7935:8354   */\n      swap2\n      swap1\n      pop\n      jump\t// out\n        /* \"#utility.yul\":8360:8586   */\n    tag_114:\n        /* \"#utility.yul\":8500:8534   */\n      0x6f6e6c79206d616e61676572706f6f6c2063616e2063616c6c20746869732066\n        /* \"#utility.yul\":8496:8497   */\n      0x00\n        /* \"#utility.yul\":8488:8494   */\n      dup3\n        /* \"#utility.yul\":8484:8498   */\n      add\n        /* \"#utility.yul\":8477:8535   */\n      mstore\n        /* \"#utility.yul\":8569:8578   */\n      0x756e6374696f6e00000000000000000000000000000000000000000000000000\n        /* \"#utility.yul\":8564:8566   */\n      0x20\n        /* \"#utility.yul\":8556:8562   */\n      dup3\n        /* \"#utility.yul\":8552:8567   */\n      add\n        /* \"#utility.yul\":8545:8579   */\n      mstore\n        /* \"#utility.yul\":8360:8586   */\n      pop\n      jump\t// out\n        /* \"#utility.yul\":8592:8958   */\n    tag_115:\n        /* \"#utility.yul\":8734:8737   */\n      0x00\n        /* \"#utility.yul\":8755:8822   */\n      tag_220\n        /* \"#utility.yul\":8819:8821   */\n      0x27\n        /* \"#utility.yul\":8814:8817   */\n      dup4\n        /* \"#utility.yul\":8755:8822   */\n      tag_111\n      jump\t// in\n    tag_220:\n        /* \"#utility.yul\":8748:8822   */\n      swap2\n      pop\n        /* \"#utility.yul\":8831:8924   */\n      tag_221\n        /* \"#utility.yul\":8920:8923   */\n      dup3\n        /* \"#utility.yul\":8831:8924   */\n      tag_114\n      jump\t// in\n    tag_221:\n        /* \"#utility.yul\":8949:8951   */\n      0x40\n        /* \"#utility.yul\":8944:8947   */\n      dup3\n        /* \"#utility.yul\":8940:8952   */\n      add\n        /* \"#utility.yul\":8933:8952   */\n      swap1\n      pop\n        /* \"#utility.yul\":8592:8958   */\n      swap2\n      swap1\n      pop\n      jump\t// out\n        /* \"#utility.yul\":8964:9383   */\n    tag_52:\n        /* \"#utility.yul\":9130:9134   */\n      0x00\n        /* \"#utility.yul\":9168:9170   */\n      0x20\n        /* \"#utility.yul\":9157:9166   */\n      dup3\n        /* \"#utility.yul\":9153:9171   */\n      add\n        /* \"#utility.yul\":9145:9171   */\n      swap1\n      pop\n        /* \"#utility.yul\":9217:9226   */\n      dup2\n        /* \"#utility.yul\":9211:9215   */\n      dup2\n        /* \"#utility.yul\":9207:9227   */\n      sub\n        /* \"#utility.yul\":9203:9204   */\n      0x00\n        /* \"#utility.yul\":9192:9201   */\n      dup4\n        /* \"#utility.yul\":9188:9205   */\n      add\n        /* \"#utility.yul\":9181:9228   */\n      mstore\n        /* \"#utility.yul\":9245:9376   */\n      tag_223\n        /* \"#utility.yul\":9371:9375   */\n      dup2\n        /* \"#utility.yul\":9245:9376   */\n      tag_115\n      jump\t// in\n    tag_223:\n        /* \"#utility.yul\":9237:9376   */\n      swap1\n      pop\n        /* \"#utility.yul\":8964:9383   */\n      swap2\n      swap1\n      pop\n      jump\t// out\n        /* \"#utility.yul\":9389:9569   */\n    tag_116:\n        /* \"#utility.yul\":9437:9514   */\n      0x4e487b7100000000000000000000000000000000000000000000000000000000\n        /* \"#utility.yul\":9434:9435   */\n      0x00\n        /* \"#utility.yul\":9427:9515   */\n      mstore\n        /* \"#utility.yul\":9534:9538   */\n      0x11\n        /* \"#utility.yul\":9531:9532   */\n      0x04\n        /* \"#utility.yul\":9524:9539   */\n      mstore\n        /* \"#utility.yul\":9558:9562   */\n      0x24\n        /* \"#utility.yul\":9555:9556   */\n      0x00\n        /* \"#utility.yul\":9548:9563   */\n      revert\n        /* \"#utility.yul\":9575:9880   */\n    tag_54:\n        /* \"#utility.yul\":9615:9618   */\n      0x00\n        /* \"#utility.yul\":9634:9654   */\n      tag_226\n        /* \"#utility.yul\":9652:9653   */\n      dup3\n        /* \"#utility.yul\":9634:9654   */\n      tag_96\n      jump\t// in\n    tag_226:\n        /* \"#utility.yul\":9629:9654   */\n      swap2\n      pop\n        /* \"#utility.yul\":9668:9688   */\n      tag_227\n        /* \"#utility.yul\":9686:9687   */\n      dup4\n        /* \"#utility.yul\":9668:9688   */\n      tag_96\n      jump\t// in\n    tag_227:\n        /* \"#utility.yul\":9663:9688   */\n      swap3\n      pop\n        /* \"#utility.yul\":9822:9823   */\n      dup3\n        /* \"#utility.yul\":9754:9820   */\n      0xffffffffffffffffffffffffffffffffffffffffffffffffffffffffffffffff\n        /* \"#utility.yul\":9750:9824   */\n      sub\n        /* \"#utility.yul\":9747:9748   */\n      dup3\n        /* \"#utility.yul\":9744:9825   */\n      gt\n        /* \"#utility.yul\":9741:9848   */\n      iszero\n      tag_228\n      jumpi\n        /* \"#utility.yul\":9828:9846   */\n      tag_229\n      tag_116\n      jump\t// in\n    tag_229:\n        /* \"#utility.yul\":9741:9848   */\n    tag_228:\n        /* \"#utility.yul\":9872:9873   */\n      dup3\n        /* \"#utility.yul\":9869:9870   */\n      dup3\n        /* \"#utility.yul\":9865:9874   */\n      add\n        /* \"#utility.yul\":9858:9874   */\n      swap1\n      pop\n        /* \"#utility.yul\":9575:9880   */\n      swap3\n      swap2\n      pop\n      pop\n      jump\t// out\n        /* \"#utility.yul\":9886:10055   */\n    tag_117:\n        /* \"#utility.yul\":10026:10047   */\n      0x73656564206973206e6f74207965742073657400000000000000000000000000\n        /* \"#utility.yul\":10022:10023   */\n      0x00\n        /* \"#utility.yul\":10014:10020   */\n      dup3\n        /* \"#utility.yul\":10010:10024   */\n      add\n        /* \"#utility.yul\":10003:10048   */\n      mstore\n        /* \"#utility.yul\":9886:10055   */\n      pop\n      jump\t// out\n        /* \"#utility.yul\":10061:10427   */\n    tag_118:\n        /* \"#utility.yul\":10203:10206   */\n      0x00\n        /* \"#utility.yul\":10224:10291   */\n      tag_232\n        /* \"#utility.yul\":10288:10290   */\n      0x13\n        /* \"#utility.yul\":10283:10286   */\n      dup4\n        /* \"#utility.yul\":10224:10291   */\n      tag_111\n      jump\t// in\n    tag_232:\n        /* \"#utility.yul\":10217:10291   */\n      swap2\n      pop\n        /* \"#utility.yul\":10300:10393   */\n      tag_233\n        /* \"#utility.yul\":10389:10392   */\n      dup3\n        /* \"#utility.yul\":10300:10393   */\n      tag_117\n      jump\t// in\n    tag_233:\n        /* \"#utility.yul\":10418:10420   */\n      0x20\n        /* \"#utility.yul\":10413:10416   */\n      dup3\n        /* \"#utility.yul\":10409:10421   */\n      add\n        /* \"#utility.yul\":10402:10421   */\n      swap1\n      pop\n        /* \"#utility.yul\":10061:10427   */\n      swap2\n      swap1\n      pop\n      jump\t// out\n        /* \"#utility.yul\":10433:10852   */\n    tag_65:\n        /* \"#utility.yul\":10599:10603   */\n      0x00\n        /* \"#utility.yul\":10637:10639   */\n      0x20\n        /* \"#utility.yul\":10626:10635   */\n      dup3\n        /* \"#utility.yul\":10622:10640   */\n      add\n        /* \"#utility.yul\":10614:10640   */\n      swap1\n      pop\n        /* \"#utility.yul\":10686:10695   */\n      dup2\n        /* \"#utility.yul\":10680:10684   */\n      dup2\n        /* \"#utility.yul\":10676:10696   */\n      sub\n        /* \"#utility.yul\":10672:10673   */\n      0x00\n        /* \"#utility.yul\":10661:10670   */\n      dup4\n        /* \"#utility.yul\":10657:10674   */\n      add\n        /* \"#utility.yul\":10650:10697   */\n      mstore\n        /* \"#utility.yul\":10714:10845   */\n      tag_235\n        /* \"#utility.yul\":10840:10844   */\n      dup2\n        /* \"#utility.yul\":10714:10845   */\n      tag_118\n      jump\t// in\n    tag_235:\n        /* \"#utility.yul\":10706:10845   */\n      swap1\n      pop\n        /* \"#utility.yul\":10433:10852   */\n      swap2\n      swap1\n      pop\n      jump\t// out\n        /* \"#utility.yul\":10858:11036   */\n    tag_119:\n        /* \"#utility.yul\":10998:11028   */\n      0x646f6e6174696f6e7320617265206e6f7420636c6f7365642079657400000000\n        /* \"#utility.yul\":10994:10995   */\n      0x00\n        /* \"#utility.yul\":10986:10992   */\n      dup3\n        /* \"#utility.yul\":10982:10996   */\n      add\n        /* \"#utility.yul\":10975:11029   */\n      mstore\n        /* \"#utility.yul\":10858:11036   */\n      pop\n      jump\t// out\n        /* \"#utility.yul\":11042:11408   */\n    tag_120:\n        /* \"#utility.yul\":11184:11187   */\n      0x00\n        /* \"#utility.yul\":11205:11272   */\n      tag_238\n        /* \"#utility.yul\":11269:11271   */\n      0x1c\n        /* \"#utility.yul\":11264:11267   */\n      dup4\n        /* \"#utility.yul\":11205:11272   */\n      tag_111\n      jump\t// in\n    tag_238:\n        /* \"#utility.yul\":11198:11272   */\n      swap2\n      pop\n        /* \"#utility.yul\":11281:11374   */\n      tag_239\n        /* \"#utility.yul\":11370:11373   */\n      dup3\n        /* \"#utility.yul\":11281:11374   */\n      tag_119\n      jump\t// in\n    tag_239:\n        /* \"#utility.yul\":11399:11401   */\n      0x20\n        /* \"#utility.yul\":11394:11397   */\n      dup3\n        /* \"#utility.yul\":11390:11402   */\n      add\n        /* \"#utility.yul\":11383:11402   */\n      swap1\n      pop\n        /* \"#utility.yul\":11042:11408   */\n      swap2\n      swap1\n      pop\n      jump\t// out\n        /* \"#utility.yul\":11414:11833   */\n    tag_68:\n        /* \"#utility.yul\":11580:11584   */\n      0x00\n        /* \"#utility.yul\":11618:11620   */\n      0x20\n        /* \"#utility.yul\":11607:11616   */\n      dup3\n        /* \"#utility.yul\":11603:11621   */\n      add\n        /* \"#utility.yul\":11595:11621   */\n      swap1\n      pop\n        /* \"#utility.yul\":11667:11676   */\n      dup2\n        /* \"#utility.yul\":11661:11665   */\n      dup2\n        /* \"#utility.yul\":11657:11677   */\n      sub\n        /* \"#utility.yul\":11653:11654   */\n      0x00\n        /* \"#utility.yul\":11642:11651   */\n      dup4\n        /* \"#utility.yul\":11638:11655   */\n      add\n        /* \"#utility.yul\":11631:11678   */\n      mstore\n        /* \"#utility.yul\":11695:11826   */\n      tag_241\n        /* \"#utility.yul\":11821:11825   */\n      dup2\n        /* \"#utility.yul\":11695:11826   */\n      tag_120\n      jump\t// in\n    tag_241:\n        /* \"#utility.yul\":11687:11826   */\n      swap1\n      pop\n        /* \"#utility.yul\":11414:11833   */\n      swap2\n      swap1\n      pop\n      jump\t// out\n        /* \"#utility.yul\":11839:11957   */\n    tag_121:\n        /* \"#utility.yul\":11926:11950   */\n      tag_243\n        /* \"#utility.yul\":11944:11949   */\n      dup2\n        /* \"#utility.yul\":11926:11950   */\n      tag_85\n      jump\t// in\n    tag_243:\n        /* \"#utility.yul\":11921:11924   */\n      dup3\n        /* \"#utility.yul\":11914:11951   */\n      mstore\n        /* \"#utility.yul\":11839:11957   */\n      pop\n      pop\n      jump\t// out\n        /* \"#utility.yul\":11963:12295   */\n    tag_71:\n        /* \"#utility.yul\":12084:12088   */\n      0x00\n        /* \"#utility.yul\":12122:12124   */\n      0x40\n        /* \"#utility.yul\":12111:12120   */\n      dup3\n        /* \"#utility.yul\":12107:12125   */\n      add\n        /* \"#utility.yul\":12099:12125   */\n      swap1\n      pop\n        /* \"#utility.yul\":12135:12206   */\n      tag_245\n        /* \"#utility.yul\":12203:12204   */\n      0x00\n        /* \"#utility.yul\":12192:12201   */\n      dup4\n        /* \"#utility.yul\":12188:12205   */\n      add\n        /* \"#utility.yul\":12179:12185   */\n      dup6\n        /* \"#utility.yul\":12135:12206   */\n      tag_90\n      jump\t// in\n    tag_245:\n        /* \"#utility.yul\":12216:12288   */\n      tag_246\n        /* \"#utility.yul\":12284:12286   */\n      0x20\n        /* \"#utility.yul\":12273:12282   */\n      dup4\n        /* \"#utility.yul\":12269:12287   */\n      add\n        /* \"#utility.yul\":12260:12266   */\n      dup5\n        /* \"#utility.yul\":12216:12288   */\n      tag_121\n      jump\t// in\n    tag_246:\n        /* \"#utility.yul\":11963:12295   */\n      swap4\n      swap3\n      pop\n      pop\n      pop\n      jump\t// out\n        /* \"#utility.yul\":12301:12633   */\n    tag_74:\n        /* \"#utility.yul\":12422:12426   */\n      0x00\n        /* \"#utility.yul\":12460:12462   */\n      0x40\n        /* \"#utility.yul\":12449:12458   */\n      dup3\n        /* \"#utility.yul\":12445:12463   */\n      add\n        /* \"#utility.yul\":12437:12463   */\n      swap1\n      pop\n        /* \"#utility.yul\":12473:12544   */\n      tag_248\n        /* \"#utility.yul\":12541:12542   */\n      0x00\n        /* \"#utility.yul\":12530:12539   */\n      dup4\n        /* \"#utility.yul\":12526:12543   */\n      add\n        /* \"#utility.yul\":12517:12523   */\n      dup6\n        /* \"#utility.yul\":12473:12544   */\n      tag_121\n      jump\t// in\n    tag_248:\n        /* \"#utility.yul\":12554:12626   */\n      tag_249\n        /* \"#utility.yul\":12622:12624   */\n      0x20\n        /* \"#utility.yul\":12611:12620   */\n      dup4\n        /* \"#utility.yul\":12607:12625   */\n      add\n        /* \"#utility.yul\":12598:12604   */\n      dup5\n        /* \"#utility.yul\":12554:12626   */\n      tag_121\n      jump\t// in\n    tag_249:\n        /* \"#utility.yul\":12301:12633   */\n      swap4\n      swap3\n      pop\n      pop\n      pop\n      jump\t// out\n\n    auxdata: 0xa2646970667358221220fb37ee75e88d9e2023aad23607601ad5e0a6a2511154b7525d77f6e0cd48674164736f6c634300080d0033\n}\n",
				"bytecode": {
					"linkReferences": {},
					"object": "608060405234801561001057600080fd5b50336000806101000a81548173ffffffffffffffffffffffffffffffffffffffff021916908373ffffffffffffffffffffffffffffffffffffffff1602179055506000600360006101000a81548160ff0219169083151502179055506000600360016101000a81548160ff021916908315150217905550610c50806100966000396000f3fe608060405234801561001057600080fd5b506004361061007d5760003560e01c80634abfa1631161005b5780634abfa163146100fe5780635c6b143c1461012e578063701fd0f11461015e578063dedfe2231461018e5761007d565b80631e5f91491461008257806341114538146100b257806342c9cc1c146100ce575b600080fd5b61009c6004803603810190610097919061059b565b6101ac565b6040516100a99190610609565b60405180910390f35b6100cc60048036038101906100c7919061059b565b6101c3565b005b6100e860048036038101906100e3919061067c565b6102f4565b6040516100f591906106c4565b60405180910390f35b61011860048036038101906101139190610715565b6102fb565b6040516101259190610609565b60405180910390f35b610148600480360381019061014391906108c7565b61033a565b60405161015591906106c4565b60405180910390f35b6101786004803603810190610173919061059b565b610366565b6040516101859190610932565b60405180910390f35b610196610486565b6040516101a39190610609565b60405180910390f35b6000806101b883610366565b905033915050919050565b600360009054906101000a900460ff1615610213576040517f08c379a000000000000000000000000000000000000000000000000000000000815260040161020a906109aa565b60405180910390fd5b60008054906101000a900473ffffffffffffffffffffffffffffffffffffffff1673ffffffffffffffffffffffffffffffffffffffff163373ffffffffffffffffffffffffffffffffffffffff16146102a1576040517f08c379a000000000000000000000000000000000000000000000000000000000815260040161029890610a3c565b60405180910390fd5b6001600360016101000a81548160ff021916908315150217905550806002819055506001436102d09190610a8b565b6004819055506001600360006101000a81548160ff02191690831515021790555050565b6000919050565b6001818154811061030b57600080fd5b906000526020600020016000915054906101000a900473ffffffffffffffffffffffffffffffffffffffff1681565b600082600190805190602001906103529291906104aa565b5061035c826101c3565b6001905092915050565b6000600360009054906101000a900460ff166103b7576040517f08c379a00000000000000000000000000000000000000000000000000000000081526004016103ae90610b2d565b60405180910390fd5b600360019054906101000a900460ff16610406576040517f08c379a00000000000000000000000000000000000000000000000000000000081526004016103fd90610b99565b60405180910390fd5b436004541061041457600080fd5b600254338360405160200161042a929190610bc8565b604051602081830303815290604052805190602001201461044a57600080fd5b60008260045440604051602001610462929190610bf1565b6040516020818303038152906040528051906020012060001c905080915050919050565b60008054906101000a900473ffffffffffffffffffffffffffffffffffffffff1681565b828054828255906000526020600020908101928215610523579160200282015b828111156105225782518260006101000a81548173ffffffffffffffffffffffffffffffffffffffff021916908373ffffffffffffffffffffffffffffffffffffffff160217905550916020019190600101906104ca565b5b5090506105309190610534565b5090565b5b8082111561054d576000816000905550600101610535565b5090565b6000604051905090565b600080fd5b600080fd5b6000819050919050565b61057881610565565b811461058357600080fd5b50565b6000813590506105958161056f565b92915050565b6000602082840312156105b1576105b061055b565b5b60006105bf84828501610586565b91505092915050565b600073ffffffffffffffffffffffffffffffffffffffff82169050919050565b60006105f3826105c8565b9050919050565b610603816105e8565b82525050565b600060208201905061061e60008301846105fa565b92915050565b60007fffffffffffffffffffffffffffffffffffffffff00000000000000000000000082169050919050565b61065981610624565b811461066457600080fd5b50565b60008135905061067681610650565b92915050565b6000602082840312156106925761069161055b565b5b60006106a084828501610667565b91505092915050565b60008115159050919050565b6106be816106a9565b82525050565b60006020820190506106d960008301846106b5565b92915050565b6000819050919050565b6106f2816106df565b81146106fd57600080fd5b50565b60008135905061070f816106e9565b92915050565b60006020828403121561072b5761072a61055b565b5b600061073984828501610700565b91505092915050565b600080fd5b6000601f19601f8301169050919050565b7f4e487b7100000000000000000000000000000000000000000000000000000000600052604160045260246000fd5b61079082610747565b810181811067ffffffffffffffff821117156107af576107ae610758565b5b80604052505050565b60006107c2610551565b90506107ce8282610787565b919050565b600067ffffffffffffffff8211156107ee576107ed610758565b5b602082029050602081019050919050565b600080fd5b61080d816105e8565b811461081857600080fd5b50565b60008135905061082a81610804565b92915050565b600061084361083e846107d3565b6107b8565b90508083825260208201905060208402830185811115610866576108656107ff565b5b835b8181101561088f578061087b888261081b565b845260208401935050602081019050610868565b5050509392505050565b600082601f8301126108ae576108ad610742565b5b81356108be848260208601610830565b91505092915050565b600080604083850312156108de576108dd61055b565b5b600083013567ffffffffffffffff8111156108fc576108fb610560565b5b61090885828601610899565b925050602061091985828601610586565b9150509250929050565b61092c816106df565b82525050565b60006020820190506109476000830184610923565b92915050565b600082825260208201905092915050565b7f7365656420697320616c72656164792073657400000000000000000000000000600082015250565b600061099460138361094d565b915061099f8261095e565b602082019050919050565b600060208201905081810360008301526109c381610987565b9050919050565b7f6f6e6c79206d616e61676572706f6f6c2063616e2063616c6c2074686973206660008201527f756e6374696f6e00000000000000000000000000000000000000000000000000602082015250565b6000610a2660278361094d565b9150610a31826109ca565b604082019050919050565b60006020820190508181036000830152610a5581610a19565b9050919050565b7f4e487b7100000000000000000000000000000000000000000000000000000000600052601160045260246000fd5b6000610a96826106df565b9150610aa1836106df565b9250827fffffffffffffffffffffffffffffffffffffffffffffffffffffffffffffffff03821115610ad657610ad5610a5c565b5b828201905092915050565b7f73656564206973206e6f74207965742073657400000000000000000000000000600082015250565b6000610b1760138361094d565b9150610b2282610ae1565b602082019050919050565b60006020820190508181036000830152610b4681610b0a565b9050919050565b7f646f6e6174696f6e7320617265206e6f7420636c6f7365642079657400000000600082015250565b6000610b83601c8361094d565b9150610b8e82610b4d565b602082019050919050565b60006020820190508181036000830152610bb281610b76565b9050919050565b610bc281610565565b82525050565b6000604082019050610bdd60008301856105fa565b610bea6020830184610bb9565b9392505050565b6000604082019050610c066000830185610bb9565b610c136020830184610bb9565b939250505056fea2646970667358221220fb37ee75e88d9e2023aad23607601ad5e0a6a2511154b7525d77f6e0cd48674164736f6c634300080d0033",
					"opcodes": "PUSH1 0x80 PUSH1 0x40 MSTORE CALLVALUE DUP1 ISZERO PUSH2 0x10 JUMPI PUSH1 0x0 DUP1 REVERT JUMPDEST POP CALLER PUSH1 0x0 DUP1 PUSH2 0x100 EXP DUP2 SLOAD DUP2 PUSH20 0xFFFFFFFFFFFFFFFFFFFFFFFFFFFFFFFFFFFFFFFF MUL NOT AND SWAP1 DUP4 PUSH20 0xFFFFFFFFFFFFFFFFFFFFFFFFFFFFFFFFFFFFFFFF AND MUL OR SWAP1 SSTORE POP PUSH1 0x0 PUSH1 0x3 PUSH1 0x0 PUSH2 0x100 EXP DUP2 SLOAD DUP2 PUSH1 0xFF MUL NOT AND SWAP1 DUP4 ISZERO ISZERO MUL OR SWAP1 SSTORE POP PUSH1 0x0 PUSH1 0x3 PUSH1 0x1 PUSH2 0x100 EXP DUP2 SLOAD DUP2 PUSH1 0xFF MUL NOT AND SWAP1 DUP4 ISZERO ISZERO MUL OR SWAP1 SSTORE POP PUSH2 0xC50 DUP1 PUSH2 0x96 PUSH1 0x0 CODECOPY PUSH1 0x0 RETURN INVALID PUSH1 0x80 PUSH1 0x40 MSTORE CALLVALUE DUP1 ISZERO PUSH2 0x10 JUMPI PUSH1 0x0 DUP1 REVERT JUMPDEST POP PUSH1 0x4 CALLDATASIZE LT PUSH2 0x7D JUMPI PUSH1 0x0 CALLDATALOAD PUSH1 0xE0 SHR DUP1 PUSH4 0x4ABFA163 GT PUSH2 0x5B JUMPI DUP1 PUSH4 0x4ABFA163 EQ PUSH2 0xFE JUMPI DUP1 PUSH4 0x5C6B143C EQ PUSH2 0x12E JUMPI DUP1 PUSH4 0x701FD0F1 EQ PUSH2 0x15E JUMPI DUP1 PUSH4 0xDEDFE223 EQ PUSH2 0x18E JUMPI PUSH2 0x7D JUMP JUMPDEST DUP1 PUSH4 0x1E5F9149 EQ PUSH2 0x82 JUMPI DUP1 PUSH4 0x41114538 EQ PUSH2 0xB2 JUMPI DUP1 PUSH4 0x42C9CC1C EQ PUSH2 0xCE JUMPI JUMPDEST PUSH1 0x0 DUP1 REVERT JUMPDEST PUSH2 0x9C PUSH1 0x4 DUP1 CALLDATASIZE SUB DUP2 ADD SWAP1 PUSH2 0x97 SWAP2 SWAP1 PUSH2 0x59B JUMP JUMPDEST PUSH2 0x1AC JUMP JUMPDEST PUSH1 0x40 MLOAD PUSH2 0xA9 SWAP2 SWAP1 PUSH2 0x609 JUMP JUMPDEST PUSH1 0x40 MLOAD DUP1 SWAP2 SUB SWAP1 RETURN JUMPDEST PUSH2 0xCC PUSH1 0x4 DUP1 CALLDATASIZE SUB DUP2 ADD SWAP1 PUSH2 0xC7 SWAP2 SWAP1 PUSH2 0x59B JUMP JUMPDEST PUSH2 0x1C3 JUMP JUMPDEST STOP JUMPDEST PUSH2 0xE8 PUSH1 0x4 DUP1 CALLDATASIZE SUB DUP2 ADD SWAP1 PUSH2 0xE3 SWAP2 SWAP1 PUSH2 0x67C JUMP JUMPDEST PUSH2 0x2F4 JUMP JUMPDEST PUSH1 0x40 MLOAD PUSH2 0xF5 SWAP2 SWAP1 PUSH2 0x6C4 JUMP JUMPDEST PUSH1 0x40 MLOAD DUP1 SWAP2 SUB SWAP1 RETURN JUMPDEST PUSH2 0x118 PUSH1 0x4 DUP1 CALLDATASIZE SUB DUP2 ADD SWAP1 PUSH2 0x113 SWAP2 SWAP1 PUSH2 0x715 JUMP JUMPDEST PUSH2 0x2FB JUMP JUMPDEST PUSH1 0x40 MLOAD PUSH2 0x125 SWAP2 SWAP1 PUSH2 0x609 JUMP JUMPDEST PUSH1 0x40 MLOAD DUP1 SWAP2 SUB SWAP1 RETURN JUMPDEST PUSH2 0x148 PUSH1 0x4 DUP1 CALLDATASIZE SUB DUP2 ADD SWAP1 PUSH2 0x143 SWAP2 SWAP1 PUSH2 0x8C7 JUMP JUMPDEST PUSH2 0x33A JUMP JUMPDEST PUSH1 0x40 MLOAD PUSH2 0x155 SWAP2 SWAP1 PUSH2 0x6C4 JUMP JUMPDEST PUSH1 0x40 MLOAD DUP1 SWAP2 SUB SWAP1 RETURN JUMPDEST PUSH2 0x178 PUSH1 0x4 DUP1 CALLDATASIZE SUB DUP2 ADD SWAP1 PUSH2 0x173 SWAP2 SWAP1 PUSH2 0x59B JUMP JUMPDEST PUSH2 0x366 JUMP JUMPDEST PUSH1 0x40 MLOAD PUSH2 0x185 SWAP2 SWAP1 PUSH2 0x932 JUMP JUMPDEST PUSH1 0x40 MLOAD DUP1 SWAP2 SUB SWAP1 RETURN JUMPDEST PUSH2 0x196 PUSH2 0x486 JUMP JUMPDEST PUSH1 0x40 MLOAD PUSH2 0x1A3 SWAP2 SWAP1 PUSH2 0x609 JUMP JUMPDEST PUSH1 0x40 MLOAD DUP1 SWAP2 SUB SWAP1 RETURN JUMPDEST PUSH1 0x0 DUP1 PUSH2 0x1B8 DUP4 PUSH2 0x366 JUMP JUMPDEST SWAP1 POP CALLER SWAP2 POP POP SWAP2 SWAP1 POP JUMP JUMPDEST PUSH1 0x3 PUSH1 0x0 SWAP1 SLOAD SWAP1 PUSH2 0x100 EXP SWAP1 DIV PUSH1 0xFF AND ISZERO PUSH2 0x213 JUMPI PUSH1 0x40 MLOAD PUSH32 0x8C379A000000000000000000000000000000000000000000000000000000000 DUP2 MSTORE PUSH1 0x4 ADD PUSH2 0x20A SWAP1 PUSH2 0x9AA JUMP JUMPDEST PUSH1 0x40 MLOAD DUP1 SWAP2 SUB SWAP1 REVERT JUMPDEST PUSH1 0x0 DUP1 SLOAD SWAP1 PUSH2 0x100 EXP SWAP1 DIV PUSH20 0xFFFFFFFFFFFFFFFFFFFFFFFFFFFFFFFFFFFFFFFF AND PUSH20 0xFFFFFFFFFFFFFFFFFFFFFFFFFFFFFFFFFFFFFFFF AND CALLER PUSH20 0xFFFFFFFFFFFFFFFFFFFFFFFFFFFFFFFFFFFFFFFF AND EQ PUSH2 0x2A1 JUMPI PUSH1 0x40 MLOAD PUSH32 0x8C379A000000000000000000000000000000000000000000000000000000000 DUP2 MSTORE PUSH1 0x4 ADD PUSH2 0x298 SWAP1 PUSH2 0xA3C JUMP JUMPDEST PUSH1 0x40 MLOAD DUP1 SWAP2 SUB SWAP1 REVERT JUMPDEST PUSH1 0x1 PUSH1 0x3 PUSH1 0x1 PUSH2 0x100 EXP DUP2 SLOAD DUP2 PUSH1 0xFF MUL NOT AND SWAP1 DUP4 ISZERO ISZERO MUL OR SWAP1 SSTORE POP DUP1 PUSH1 0x2 DUP2 SWAP1 SSTORE POP PUSH1 0x1 NUMBER PUSH2 0x2D0 SWAP2 SWAP1 PUSH2 0xA8B JUMP JUMPDEST PUSH1 0x4 DUP2 SWAP1 SSTORE POP PUSH1 0x1 PUSH1 0x3 PUSH1 0x0 PUSH2 0x100 EXP DUP2 SLOAD DUP2 PUSH1 0xFF MUL NOT AND SWAP1 DUP4 ISZERO ISZERO MUL OR SWAP1 SSTORE POP POP JUMP JUMPDEST PUSH1 0x0 SWAP2 SWAP1 POP JUMP JUMPDEST PUSH1 0x1 DUP2 DUP2 SLOAD DUP2 LT PUSH2 0x30B JUMPI PUSH1 0x0 DUP1 REVERT JUMPDEST SWAP1 PUSH1 0x0 MSTORE PUSH1 0x20 PUSH1 0x0 KECCAK256 ADD PUSH1 0x0 SWAP2 POP SLOAD SWAP1 PUSH2 0x100 EXP SWAP1 DIV PUSH20 0xFFFFFFFFFFFFFFFFFFFFFFFFFFFFFFFFFFFFFFFF AND DUP2 JUMP JUMPDEST PUSH1 0x0 DUP3 PUSH1 0x1 SWAP1 DUP1 MLOAD SWAP1 PUSH1 0x20 ADD SWAP1 PUSH2 0x352 SWAP3 SWAP2 SWAP1 PUSH2 0x4AA JUMP JUMPDEST POP PUSH2 0x35C DUP3 PUSH2 0x1C3 JUMP JUMPDEST PUSH1 0x1 SWAP1 POP SWAP3 SWAP2 POP POP JUMP JUMPDEST PUSH1 0x0 PUSH1 0x3 PUSH1 0x0 SWAP1 SLOAD SWAP1 PUSH2 0x100 EXP SWAP1 DIV PUSH1 0xFF AND PUSH2 0x3B7 JUMPI PUSH1 0x40 MLOAD PUSH32 0x8C379A000000000000000000000000000000000000000000000000000000000 DUP2 MSTORE PUSH1 0x4 ADD PUSH2 0x3AE SWAP1 PUSH2 0xB2D JUMP JUMPDEST PUSH1 0x40 MLOAD DUP1 SWAP2 SUB SWAP1 REVERT JUMPDEST PUSH1 0x3 PUSH1 0x1 SWAP1 SLOAD SWAP1 PUSH2 0x100 EXP SWAP1 DIV PUSH1 0xFF AND PUSH2 0x406 JUMPI PUSH1 0x40 MLOAD PUSH32 0x8C379A000000000000000000000000000000000000000000000000000000000 DUP2 MSTORE PUSH1 0x4 ADD PUSH2 0x3FD SWAP1 PUSH2 0xB99 JUMP JUMPDEST PUSH1 0x40 MLOAD DUP1 SWAP2 SUB SWAP1 REVERT JUMPDEST NUMBER PUSH1 0x4 SLOAD LT PUSH2 0x414 JUMPI PUSH1 0x0 DUP1 REVERT JUMPDEST PUSH1 0x2 SLOAD CALLER DUP4 PUSH1 0x40 MLOAD PUSH1 0x20 ADD PUSH2 0x42A SWAP3 SWAP2 SWAP1 PUSH2 0xBC8 JUMP JUMPDEST PUSH1 0x40 MLOAD PUSH1 0x20 DUP2 DUP4 SUB SUB DUP2 MSTORE SWAP1 PUSH1 0x40 MSTORE DUP1 MLOAD SWAP1 PUSH1 0x20 ADD KECCAK256 EQ PUSH2 0x44A JUMPI PUSH1 0x0 DUP1 REVERT JUMPDEST PUSH1 0x0 DUP3 PUSH1 0x4 SLOAD BLOCKHASH PUSH1 0x40 MLOAD PUSH1 0x20 ADD PUSH2 0x462 SWAP3 SWAP2 SWAP1 PUSH2 0xBF1 JUMP JUMPDEST PUSH1 0x40 MLOAD PUSH1 0x20 DUP2 DUP4 SUB SUB DUP2 MSTORE SWAP1 PUSH1 0x40 MSTORE DUP1 MLOAD SWAP1 PUSH1 0x20 ADD KECCAK256 PUSH1 0x0 SHR SWAP1 POP DUP1 SWAP2 POP POP SWAP2 SWAP1 POP JUMP JUMPDEST PUSH1 0x0 DUP1 SLOAD SWAP1 PUSH2 0x100 EXP SWAP1 DIV PUSH20 0xFFFFFFFFFFFFFFFFFFFFFFFFFFFFFFFFFFFFFFFF AND DUP2 JUMP JUMPDEST DUP3 DUP1 SLOAD DUP3 DUP3 SSTORE SWAP1 PUSH1 0x0 MSTORE PUSH1 0x20 PUSH1 0x0 KECCAK256 SWAP1 DUP2 ADD SWAP3 DUP3 ISZERO PUSH2 0x523 JUMPI SWAP2 PUSH1 0x20 MUL DUP3 ADD JUMPDEST DUP3 DUP2 GT ISZERO PUSH2 0x522 JUMPI DUP3 MLOAD DUP3 PUSH1 0x0 PUSH2 0x100 EXP DUP2 SLOAD DUP2 PUSH20 0xFFFFFFFFFFFFFFFFFFFFFFFFFFFFFFFFFFFFFFFF MUL NOT AND SWAP1 DUP4 PUSH20 0xFFFFFFFFFFFFFFFFFFFFFFFFFFFFFFFFFFFFFFFF AND MUL OR SWAP1 SSTORE POP SWAP2 PUSH1 0x20 ADD SWAP2 SWAP1 PUSH1 0x1 ADD SWAP1 PUSH2 0x4CA JUMP JUMPDEST JUMPDEST POP SWAP1 POP PUSH2 0x530 SWAP2 SWAP1 PUSH2 0x534 JUMP JUMPDEST POP SWAP1 JUMP JUMPDEST JUMPDEST DUP1 DUP3 GT ISZERO PUSH2 0x54D JUMPI PUSH1 0x0 DUP2 PUSH1 0x0 SWAP1 SSTORE POP PUSH1 0x1 ADD PUSH2 0x535 JUMP JUMPDEST POP SWAP1 JUMP JUMPDEST PUSH1 0x0 PUSH1 0x40 MLOAD SWAP1 POP SWAP1 JUMP JUMPDEST PUSH1 0x0 DUP1 REVERT JUMPDEST PUSH1 0x0 DUP1 REVERT JUMPDEST PUSH1 0x0 DUP2 SWAP1 POP SWAP2 SWAP1 POP JUMP JUMPDEST PUSH2 0x578 DUP2 PUSH2 0x565 JUMP JUMPDEST DUP2 EQ PUSH2 0x583 JUMPI PUSH1 0x0 DUP1 REVERT JUMPDEST POP JUMP JUMPDEST PUSH1 0x0 DUP2 CALLDATALOAD SWAP1 POP PUSH2 0x595 DUP2 PUSH2 0x56F JUMP JUMPDEST SWAP3 SWAP2 POP POP JUMP JUMPDEST PUSH1 0x0 PUSH1 0x20 DUP3 DUP5 SUB SLT ISZERO PUSH2 0x5B1 JUMPI PUSH2 0x5B0 PUSH2 0x55B JUMP JUMPDEST JUMPDEST PUSH1 0x0 PUSH2 0x5BF DUP5 DUP3 DUP6 ADD PUSH2 0x586 JUMP JUMPDEST SWAP2 POP POP SWAP3 SWAP2 POP POP JUMP JUMPDEST PUSH1 0x0 PUSH20 0xFFFFFFFFFFFFFFFFFFFFFFFFFFFFFFFFFFFFFFFF DUP3 AND SWAP1 POP SWAP2 SWAP1 POP JUMP JUMPDEST PUSH1 0x0 PUSH2 0x5F3 DUP3 PUSH2 0x5C8 JUMP JUMPDEST SWAP1 POP SWAP2 SWAP1 POP JUMP JUMPDEST PUSH2 0x603 DUP2 PUSH2 0x5E8 JUMP JUMPDEST DUP3 MSTORE POP POP JUMP JUMPDEST PUSH1 0x0 PUSH1 0x20 DUP3 ADD SWAP1 POP PUSH2 0x61E PUSH1 0x0 DUP4 ADD DUP5 PUSH2 0x5FA JUMP JUMPDEST SWAP3 SWAP2 POP POP JUMP JUMPDEST PUSH1 0x0 PUSH32 0xFFFFFFFFFFFFFFFFFFFFFFFFFFFFFFFFFFFFFFFF000000000000000000000000 DUP3 AND SWAP1 POP SWAP2 SWAP1 POP JUMP JUMPDEST PUSH2 0x659 DUP2 PUSH2 0x624 JUMP JUMPDEST DUP2 EQ PUSH2 0x664 JUMPI PUSH1 0x0 DUP1 REVERT JUMPDEST POP JUMP JUMPDEST PUSH1 0x0 DUP2 CALLDATALOAD SWAP1 POP PUSH2 0x676 DUP2 PUSH2 0x650 JUMP JUMPDEST SWAP3 SWAP2 POP POP JUMP JUMPDEST PUSH1 0x0 PUSH1 0x20 DUP3 DUP5 SUB SLT ISZERO PUSH2 0x692 JUMPI PUSH2 0x691 PUSH2 0x55B JUMP JUMPDEST JUMPDEST PUSH1 0x0 PUSH2 0x6A0 DUP5 DUP3 DUP6 ADD PUSH2 0x667 JUMP JUMPDEST SWAP2 POP POP SWAP3 SWAP2 POP POP JUMP JUMPDEST PUSH1 0x0 DUP2 ISZERO ISZERO SWAP1 POP SWAP2 SWAP1 POP JUMP JUMPDEST PUSH2 0x6BE DUP2 PUSH2 0x6A9 JUMP JUMPDEST DUP3 MSTORE POP POP JUMP JUMPDEST PUSH1 0x0 PUSH1 0x20 DUP3 ADD SWAP1 POP PUSH2 0x6D9 PUSH1 0x0 DUP4 ADD DUP5 PUSH2 0x6B5 JUMP JUMPDEST SWAP3 SWAP2 POP POP JUMP JUMPDEST PUSH1 0x0 DUP2 SWAP1 POP SWAP2 SWAP1 POP JUMP JUMPDEST PUSH2 0x6F2 DUP2 PUSH2 0x6DF JUMP JUMPDEST DUP2 EQ PUSH2 0x6FD JUMPI PUSH1 0x0 DUP1 REVERT JUMPDEST POP JUMP JUMPDEST PUSH1 0x0 DUP2 CALLDATALOAD SWAP1 POP PUSH2 0x70F DUP2 PUSH2 0x6E9 JUMP JUMPDEST SWAP3 SWAP2 POP POP JUMP JUMPDEST PUSH1 0x0 PUSH1 0x20 DUP3 DUP5 SUB SLT ISZERO PUSH2 0x72B JUMPI PUSH2 0x72A PUSH2 0x55B JUMP JUMPDEST JUMPDEST PUSH1 0x0 PUSH2 0x739 DUP5 DUP3 DUP6 ADD PUSH2 0x700 JUMP JUMPDEST SWAP2 POP POP SWAP3 SWAP2 POP POP JUMP JUMPDEST PUSH1 0x0 DUP1 REVERT JUMPDEST PUSH1 0x0 PUSH1 0x1F NOT PUSH1 0x1F DUP4 ADD AND SWAP1 POP SWAP2 SWAP1 POP JUMP JUMPDEST PUSH32 0x4E487B7100000000000000000000000000000000000000000000000000000000 PUSH1 0x0 MSTORE PUSH1 0x41 PUSH1 0x4 MSTORE PUSH1 0x24 PUSH1 0x0 REVERT JUMPDEST PUSH2 0x790 DUP3 PUSH2 0x747 JUMP JUMPDEST DUP2 ADD DUP2 DUP2 LT PUSH8 0xFFFFFFFFFFFFFFFF DUP3 GT OR ISZERO PUSH2 0x7AF JUMPI PUSH2 0x7AE PUSH2 0x758 JUMP JUMPDEST JUMPDEST DUP1 PUSH1 0x40 MSTORE POP POP POP JUMP JUMPDEST PUSH1 0x0 PUSH2 0x7C2 PUSH2 0x551 JUMP JUMPDEST SWAP1 POP PUSH2 0x7CE DUP3 DUP3 PUSH2 0x787 JUMP JUMPDEST SWAP2 SWAP1 POP JUMP JUMPDEST PUSH1 0x0 PUSH8 0xFFFFFFFFFFFFFFFF DUP3 GT ISZERO PUSH2 0x7EE JUMPI PUSH2 0x7ED PUSH2 0x758 JUMP JUMPDEST JUMPDEST PUSH1 0x20 DUP3 MUL SWAP1 POP PUSH1 0x20 DUP2 ADD SWAP1 POP SWAP2 SWAP1 POP JUMP JUMPDEST PUSH1 0x0 DUP1 REVERT JUMPDEST PUSH2 0x80D DUP2 PUSH2 0x5E8 JUMP JUMPDEST DUP2 EQ PUSH2 0x818 JUMPI PUSH1 0x0 DUP1 REVERT JUMPDEST POP JUMP JUMPDEST PUSH1 0x0 DUP2 CALLDATALOAD SWAP1 POP PUSH2 0x82A DUP2 PUSH2 0x804 JUMP JUMPDEST SWAP3 SWAP2 POP POP JUMP JUMPDEST PUSH1 0x0 PUSH2 0x843 PUSH2 0x83E DUP5 PUSH2 0x7D3 JUMP JUMPDEST PUSH2 0x7B8 JUMP JUMPDEST SWAP1 POP DUP1 DUP4 DUP3 MSTORE PUSH1 0x20 DUP3 ADD SWAP1 POP PUSH1 0x20 DUP5 MUL DUP4 ADD DUP6 DUP2 GT ISZERO PUSH2 0x866 JUMPI PUSH2 0x865 PUSH2 0x7FF JUMP JUMPDEST JUMPDEST DUP4 JUMPDEST DUP2 DUP2 LT ISZERO PUSH2 0x88F JUMPI DUP1 PUSH2 0x87B DUP9 DUP3 PUSH2 0x81B JUMP JUMPDEST DUP5 MSTORE PUSH1 0x20 DUP5 ADD SWAP4 POP POP PUSH1 0x20 DUP2 ADD SWAP1 POP PUSH2 0x868 JUMP JUMPDEST POP POP POP SWAP4 SWAP3 POP POP POP JUMP JUMPDEST PUSH1 0x0 DUP3 PUSH1 0x1F DUP4 ADD SLT PUSH2 0x8AE JUMPI PUSH2 0x8AD PUSH2 0x742 JUMP JUMPDEST JUMPDEST DUP2 CALLDATALOAD PUSH2 0x8BE DUP5 DUP3 PUSH1 0x20 DUP7 ADD PUSH2 0x830 JUMP JUMPDEST SWAP2 POP POP SWAP3 SWAP2 POP POP JUMP JUMPDEST PUSH1 0x0 DUP1 PUSH1 0x40 DUP4 DUP6 SUB SLT ISZERO PUSH2 0x8DE JUMPI PUSH2 0x8DD PUSH2 0x55B JUMP JUMPDEST JUMPDEST PUSH1 0x0 DUP4 ADD CALLDATALOAD PUSH8 0xFFFFFFFFFFFFFFFF DUP2 GT ISZERO PUSH2 0x8FC JUMPI PUSH2 0x8FB PUSH2 0x560 JUMP JUMPDEST JUMPDEST PUSH2 0x908 DUP6 DUP3 DUP7 ADD PUSH2 0x899 JUMP JUMPDEST SWAP3 POP POP PUSH1 0x20 PUSH2 0x919 DUP6 DUP3 DUP7 ADD PUSH2 0x586 JUMP JUMPDEST SWAP2 POP POP SWAP3 POP SWAP3 SWAP1 POP JUMP JUMPDEST PUSH2 0x92C DUP2 PUSH2 0x6DF JUMP JUMPDEST DUP3 MSTORE POP POP JUMP JUMPDEST PUSH1 0x0 PUSH1 0x20 DUP3 ADD SWAP1 POP PUSH2 0x947 PUSH1 0x0 DUP4 ADD DUP5 PUSH2 0x923 JUMP JUMPDEST SWAP3 SWAP2 POP POP JUMP JUMPDEST PUSH1 0x0 DUP3 DUP3 MSTORE PUSH1 0x20 DUP3 ADD SWAP1 POP SWAP3 SWAP2 POP POP JUMP JUMPDEST PUSH32 0x7365656420697320616C72656164792073657400000000000000000000000000 PUSH1 0x0 DUP3 ADD MSTORE POP JUMP JUMPDEST PUSH1 0x0 PUSH2 0x994 PUSH1 0x13 DUP4 PUSH2 0x94D JUMP JUMPDEST SWAP2 POP PUSH2 0x99F DUP3 PUSH2 0x95E JUMP JUMPDEST PUSH1 0x20 DUP3 ADD SWAP1 POP SWAP2 SWAP1 POP JUMP JUMPDEST PUSH1 0x0 PUSH1 0x20 DUP3 ADD SWAP1 POP DUP2 DUP2 SUB PUSH1 0x0 DUP4 ADD MSTORE PUSH2 0x9C3 DUP2 PUSH2 0x987 JUMP JUMPDEST SWAP1 POP SWAP2 SWAP1 POP JUMP JUMPDEST PUSH32 0x6F6E6C79206D616E61676572706F6F6C2063616E2063616C6C20746869732066 PUSH1 0x0 DUP3 ADD MSTORE PUSH32 0x756E6374696F6E00000000000000000000000000000000000000000000000000 PUSH1 0x20 DUP3 ADD MSTORE POP JUMP JUMPDEST PUSH1 0x0 PUSH2 0xA26 PUSH1 0x27 DUP4 PUSH2 0x94D JUMP JUMPDEST SWAP2 POP PUSH2 0xA31 DUP3 PUSH2 0x9CA JUMP JUMPDEST PUSH1 0x40 DUP3 ADD SWAP1 POP SWAP2 SWAP1 POP JUMP JUMPDEST PUSH1 0x0 PUSH1 0x20 DUP3 ADD SWAP1 POP DUP2 DUP2 SUB PUSH1 0x0 DUP4 ADD MSTORE PUSH2 0xA55 DUP2 PUSH2 0xA19 JUMP JUMPDEST SWAP1 POP SWAP2 SWAP1 POP JUMP JUMPDEST PUSH32 0x4E487B7100000000000000000000000000000000000000000000000000000000 PUSH1 0x0 MSTORE PUSH1 0x11 PUSH1 0x4 MSTORE PUSH1 0x24 PUSH1 0x0 REVERT JUMPDEST PUSH1 0x0 PUSH2 0xA96 DUP3 PUSH2 0x6DF JUMP JUMPDEST SWAP2 POP PUSH2 0xAA1 DUP4 PUSH2 0x6DF JUMP JUMPDEST SWAP3 POP DUP3 PUSH32 0xFFFFFFFFFFFFFFFFFFFFFFFFFFFFFFFFFFFFFFFFFFFFFFFFFFFFFFFFFFFFFFFF SUB DUP3 GT ISZERO PUSH2 0xAD6 JUMPI PUSH2 0xAD5 PUSH2 0xA5C JUMP JUMPDEST JUMPDEST DUP3 DUP3 ADD SWAP1 POP SWAP3 SWAP2 POP POP JUMP JUMPDEST PUSH32 0x73656564206973206E6F74207965742073657400000000000000000000000000 PUSH1 0x0 DUP3 ADD MSTORE POP JUMP JUMPDEST PUSH1 0x0 PUSH2 0xB17 PUSH1 0x13 DUP4 PUSH2 0x94D JUMP JUMPDEST SWAP2 POP PUSH2 0xB22 DUP3 PUSH2 0xAE1 JUMP JUMPDEST PUSH1 0x20 DUP3 ADD SWAP1 POP SWAP2 SWAP1 POP JUMP JUMPDEST PUSH1 0x0 PUSH1 0x20 DUP3 ADD SWAP1 POP DUP2 DUP2 SUB PUSH1 0x0 DUP4 ADD MSTORE PUSH2 0xB46 DUP2 PUSH2 0xB0A JUMP JUMPDEST SWAP1 POP SWAP2 SWAP1 POP JUMP JUMPDEST PUSH32 0x646F6E6174696F6E7320617265206E6F7420636C6F7365642079657400000000 PUSH1 0x0 DUP3 ADD MSTORE POP JUMP JUMPDEST PUSH1 0x0 PUSH2 0xB83 PUSH1 0x1C DUP4 PUSH2 0x94D JUMP JUMPDEST SWAP2 POP PUSH2 0xB8E DUP3 PUSH2 0xB4D JUMP JUMPDEST PUSH1 0x20 DUP3 ADD SWAP1 POP SWAP2 SWAP1 POP JUMP JUMPDEST PUSH1 0x0 PUSH1 0x20 DUP3 ADD SWAP1 POP DUP2 DUP2 SUB PUSH1 0x0 DUP4 ADD MSTORE PUSH2 0xBB2 DUP2 PUSH2 0xB76 JUMP JUMPDEST SWAP1 POP SWAP2 SWAP1 POP JUMP JUMPDEST PUSH2 0xBC2 DUP2 PUSH2 0x565 JUMP JUMPDEST DUP3 MSTORE POP POP JUMP JUMPDEST PUSH1 0x0 PUSH1 0x40 DUP3 ADD SWAP1 POP PUSH2 0xBDD PUSH1 0x0 DUP4 ADD DUP6 PUSH2 0x5FA JUMP JUMPDEST PUSH2 0xBEA PUSH1 0x20 DUP4 ADD DUP5 PUSH2 0xBB9 JUMP JUMPDEST SWAP4 SWAP3 POP POP POP JUMP JUMPDEST PUSH1 0x0 PUSH1 0x40 DUP3 ADD SWAP1 POP PUSH2 0xC06 PUSH1 0x0 DUP4 ADD DUP6 PUSH2 0xBB9 JUMP JUMPDEST PUSH2 0xC13 PUSH1 0x20 DUP4 ADD DUP5 PUSH2 0xBB9 JUMP JUMPDEST SWAP4 SWAP3 POP POP POP JUMP INVALID LOG2 PUSH5 0x6970667358 0x22 SLT KECCAK256 0xFB CALLDATACOPY 0xEE PUSH22 0xE88D9E2023AAD23607601AD5E0A6A2511154B7525D77 0xF6 0xE0 0xCD BASEFEE PUSH8 0x4164736F6C634300 ADDMOD 0xD STOP CALLER "
				},
				"gasEstimates": {
					"creation": {
						"codeDepositCost": "630400",
						"executionCost": "73514",
						"totalCost": "703914"
					},
					"external": {
						"donors(uint256)": "4956",
						"enterLottery(address[],bytes32)": "infinite",
						"getWinner(bytes32)": "infinite",
						"managerpool()": "2577",
						"reveal(bytes32)": "infinite",
						"setSealedSeed(bytes32)": "infinite",
						"test(bytes20)": "651"
					}
				},
				"methodIdentifiers": {
					"donors(uint256)": "4abfa163",
					"enterLottery(address[],bytes32)": "5c6b143c",
					"getWinner(bytes32)": "1e5f9149",
					"managerpool()": "dedfe223",
					"reveal(bytes32)": "701fd0f1",
					"setSealedSeed(bytes32)": "41114538",
					"test(bytes20)": "42c9cc1c"
				}
			},
			"storageLayout": {
				"storage": [
					{
						"astId": 26,
						"contract": "contracts/Lottery.sol:Lottery",
						"label": "managerpool",
						"offset": 0,
						"slot": "0",
						"type": "t_address"
					},
					{
						"astId": 29,
						"contract": "contracts/Lottery.sol:Lottery",
						"label": "donors",
						"offset": 0,
						"slot": "1",
						"type": "t_array(t_address)dyn_storage"
					},
					{
						"astId": 31,
						"contract": "contracts/Lottery.sol:Lottery",
						"label": "sealedSeed",
						"offset": 0,
						"slot": "2",
						"type": "t_bytes32"
					},
					{
						"astId": 33,
						"contract": "contracts/Lottery.sol:Lottery",
						"label": "seedSet",
						"offset": 0,
						"slot": "3",
						"type": "t_bool"
					},
					{
						"astId": 35,
						"contract": "contracts/Lottery.sol:Lottery",
						"label": "donationsClosed",
						"offset": 1,
						"slot": "3",
						"type": "t_bool"
					},
					{
						"astId": 37,
						"contract": "contracts/Lottery.sol:Lottery",
						"label": "storedBlockNumber",
						"offset": 0,
						"slot": "4",
						"type": "t_uint256"
					}
				],
				"types": {
					"t_address": {
						"encoding": "inplace",
						"label": "address",
						"numberOfBytes": "20"
					},
					"t_array(t_address)dyn_storage": {
						"base": "t_address",
						"encoding": "dynamic_array",
						"label": "address[]",
						"numberOfBytes": "32"
					},
					"t_bool": {
						"encoding": "inplace",
						"label": "bool",
						"numberOfBytes": "1"
					},
					"t_bytes32": {
						"encoding": "inplace",
						"label": "bytes32",
						"numberOfBytes": "32"
					},
					"t_uint256": {
						"encoding": "inplace",
						"label": "uint256",
						"numberOfBytes": "32"
					}
				}
			},
			"userdoc": {
				"kind": "user",
				"methods": {},
				"version": 1
			}
		}
	}
}