{
	"contracts/Lottery.sol": {
		"Lottery": {
			"abi": [
				{
					"inputs": [],
					"stateMutability": "nonpayable",
					"type": "constructor"
				},
				{
					"inputs": [
						{
							"internalType": "uint256",
							"name": "",
							"type": "uint256"
						}
					],
					"name": "donors",
					"outputs": [
						{
							"internalType": "address",
							"name": "",
							"type": "address"
						}
					],
					"stateMutability": "view",
					"type": "function"
				},
				{
					"inputs": [
						{
							"internalType": "address[]",
							"name": "_donators",
							"type": "address[]"
						}
					],
					"name": "enterLottery",
					"outputs": [
						{
							"internalType": "bool",
							"name": "",
							"type": "bool"
						}
					],
					"stateMutability": "nonpayable",
					"type": "function"
				},
				{
					"inputs": [],
					"name": "getWinner",
					"outputs": [
						{
							"internalType": "address",
							"name": "",
							"type": "address"
						}
					],
					"stateMutability": "nonpayable",
					"type": "function"
				},
				{
					"inputs": [],
					"name": "managerpool",
					"outputs": [
						{
							"internalType": "address",
							"name": "",
							"type": "address"
						}
					],
					"stateMutability": "view",
					"type": "function"
				},
				{
					"inputs": [],
					"name": "random",
					"outputs": [
						{
							"internalType": "uint256",
							"name": "",
							"type": "uint256"
						}
					],
					"stateMutability": "view",
					"type": "function"
				},
				{
					"inputs": [
						{
							"internalType": "bytes32",
							"name": "_seed",
							"type": "bytes32"
						}
					],
					"name": "reveal",
					"outputs": [
						{
							"internalType": "uint256",
							"name": "",
							"type": "uint256"
						}
					],
					"stateMutability": "nonpayable",
					"type": "function"
				},
				{
					"inputs": [
						{
							"internalType": "bytes32",
							"name": "_sealedSeed",
							"type": "bytes32"
						}
					],
					"name": "setSealedSeed",
					"outputs": [],
					"stateMutability": "nonpayable",
					"type": "function"
				},
				{
					"inputs": [
						{
							"internalType": "bytes32",
							"name": "_test",
							"type": "bytes32"
						}
					],
					"name": "test",
					"outputs": [
						{
							"internalType": "bool",
							"name": "",
							"type": "bool"
						}
					],
					"stateMutability": "nonpayable",
					"type": "function"
				}
			],
			"devdoc": {
				"kind": "dev",
				"methods": {},
				"version": 1
			},
			"evm": {
				"assembly": "    /* \"contracts/Lottery.sol\":92:2460  contract Lottery is ILottery{... */\n  mstore(0x40, 0x80)\n    /* \"contracts/Lottery.sol\":344:463  constructor(){... */\n  callvalue\n  dup1\n  iszero\n  tag_1\n  jumpi\n  0x00\n  dup1\n  revert\ntag_1:\n  pop\n    /* \"contracts/Lottery.sol\":382:392  msg.sender */\n  caller\n    /* \"contracts/Lottery.sol\":368:379  managerpool */\n  0x00\n  dup1\n    /* \"contracts/Lottery.sol\":368:392  managerpool = msg.sender */\n  0x0100\n  exp\n  dup2\n  sload\n  dup2\n  0xffffffffffffffffffffffffffffffffffffffff\n  mul\n  not\n  and\n  swap1\n  dup4\n  0xffffffffffffffffffffffffffffffffffffffff\n  and\n  mul\n  or\n  swap1\n  sstore\n  pop\n    /* \"contracts/Lottery.sol\":414:419  false */\n  0x00\n    /* \"contracts/Lottery.sol\":404:411  seedSet */\n  0x03\n  0x00\n    /* \"contracts/Lottery.sol\":404:419  seedSet = false */\n  0x0100\n  exp\n  dup2\n  sload\n  dup2\n  0xff\n  mul\n  not\n  and\n  swap1\n  dup4\n  iszero\n  iszero\n  mul\n  or\n  swap1\n  sstore\n  pop\n    /* \"contracts/Lottery.sol\":448:453  false */\n  0x00\n    /* \"contracts/Lottery.sol\":430:445  donationsClosed */\n  0x03\n  0x01\n    /* \"contracts/Lottery.sol\":430:453  donationsClosed = false */\n  0x0100\n  exp\n  dup2\n  sload\n  dup2\n  0xff\n  mul\n  not\n  and\n  swap1\n  dup4\n  iszero\n  iszero\n  mul\n  or\n  swap1\n  sstore\n  pop\n    /* \"contracts/Lottery.sol\":92:2460  contract Lottery is ILottery{... */\n  dataSize(sub_0)\n  dup1\n  dataOffset(sub_0)\n  0x00\n  codecopy\n  0x00\n  return\nstop\n\nsub_0: assembly {\n        /* \"contracts/Lottery.sol\":92:2460  contract Lottery is ILottery{... */\n      mstore(0x40, 0x80)\n      callvalue\n      dup1\n      iszero\n      tag_1\n      jumpi\n      0x00\n      dup1\n      revert\n    tag_1:\n      pop\n      jumpi(tag_2, lt(calldatasize, 0x04))\n      shr(0xe0, calldataload(0x00))\n      dup1\n      0x8e7ea5b2\n      gt\n      tag_11\n      jumpi\n      dup1\n      0x8e7ea5b2\n      eq\n      tag_7\n      jumpi\n      dup1\n      0x99372321\n      eq\n      tag_8\n      jumpi\n      dup1\n      0xc129800d\n      eq\n      tag_9\n      jumpi\n      dup1\n      0xdedfe223\n      eq\n      tag_10\n      jumpi\n      jump(tag_2)\n    tag_11:\n      dup1\n      0x41114538\n      eq\n      tag_3\n      jumpi\n      dup1\n      0x4abfa163\n      eq\n      tag_4\n      jumpi\n      dup1\n      0x5ec01e4d\n      eq\n      tag_5\n      jumpi\n      dup1\n      0x701fd0f1\n      eq\n      tag_6\n      jumpi\n    tag_2:\n      0x00\n      dup1\n      revert\n        /* \"contracts/Lottery.sol\":1154:1498  function setSealedSeed(bytes32 _sealedSeed) public {... */\n    tag_3:\n      tag_12\n      0x04\n      dup1\n      calldatasize\n      sub\n      dup2\n      add\n      swap1\n      tag_13\n      swap2\n      swap1\n      tag_14\n      jump\t// in\n    tag_13:\n      tag_15\n      jump\t// in\n    tag_12:\n      stop\n        /* \"contracts/Lottery.sol\":161:184  address[] public donors */\n    tag_4:\n      tag_16\n      0x04\n      dup1\n      calldatasize\n      sub\n      dup2\n      add\n      swap1\n      tag_17\n      swap2\n      swap1\n      tag_18\n      jump\t// in\n    tag_17:\n      tag_19\n      jump\t// in\n    tag_16:\n      mload(0x40)\n      tag_20\n      swap2\n      swap1\n      tag_21\n      jump\t// in\n    tag_20:\n      mload(0x40)\n      dup1\n      swap2\n      sub\n      swap1\n      return\n        /* \"contracts/Lottery.sol\":2201:2455  function random() public view returns (uint){... */\n    tag_5:\n      tag_22\n      tag_23\n      jump\t// in\n    tag_22:\n      mload(0x40)\n      tag_24\n      swap2\n      swap1\n      tag_25\n      jump\t// in\n    tag_24:\n      mload(0x40)\n      dup1\n      swap2\n      sub\n      swap1\n      return\n        /* \"contracts/Lottery.sol\":1506:1991  function reveal(bytes32 _seed) public returns (uint){... */\n    tag_6:\n      tag_26\n      0x04\n      dup1\n      calldatasize\n      sub\n      dup2\n      add\n      swap1\n      tag_27\n      swap2\n      swap1\n      tag_14\n      jump\t// in\n    tag_27:\n      tag_28\n      jump\t// in\n    tag_26:\n      mload(0x40)\n      tag_29\n      swap2\n      swap1\n      tag_25\n      jump\t// in\n    tag_29:\n      mload(0x40)\n      dup1\n      swap2\n      sub\n      swap1\n      return\n        /* \"contracts/Lottery.sol\":937:1146  function getWinner() external returns(address){... */\n    tag_7:\n      tag_30\n      tag_31\n      jump\t// in\n    tag_30:\n      mload(0x40)\n      tag_32\n      swap2\n      swap1\n      tag_21\n      jump\t// in\n    tag_32:\n      mload(0x40)\n      dup1\n      swap2\n      sub\n      swap1\n      return\n        /* \"contracts/Lottery.sol\":2024:2155  function test(bytes32 _test) public returns(bool) {... */\n    tag_8:\n      tag_33\n      0x04\n      dup1\n      calldatasize\n      sub\n      dup2\n      add\n      swap1\n      tag_34\n      swap2\n      swap1\n      tag_14\n      jump\t// in\n    tag_34:\n      tag_35\n      jump\t// in\n    tag_33:\n      mload(0x40)\n      tag_36\n      swap2\n      swap1\n      tag_37\n      jump\t// in\n    tag_36:\n      mload(0x40)\n      dup1\n      swap2\n      sub\n      swap1\n      return\n        /* \"contracts/Lottery.sol\":700:834  function enterLottery(address[] memory _donators) external returns (bool){... */\n    tag_9:\n      tag_38\n      0x04\n      dup1\n      calldatasize\n      sub\n      dup2\n      add\n      swap1\n      tag_39\n      swap2\n      swap1\n      tag_40\n      jump\t// in\n    tag_39:\n      tag_41\n      jump\t// in\n    tag_38:\n      mload(0x40)\n      tag_42\n      swap2\n      swap1\n      tag_37\n      jump\t// in\n    tag_42:\n      mload(0x40)\n      dup1\n      swap2\n      sub\n      swap1\n      return\n        /* \"contracts/Lottery.sol\":127:153  address public managerpool */\n    tag_10:\n      tag_43\n      tag_44\n      jump\t// in\n    tag_43:\n      mload(0x40)\n      tag_45\n      swap2\n      swap1\n      tag_21\n      jump\t// in\n    tag_45:\n      mload(0x40)\n      dup1\n      swap2\n      sub\n      swap1\n      return\n        /* \"contracts/Lottery.sol\":1154:1498  function setSealedSeed(bytes32 _sealedSeed) public {... */\n    tag_15:\n        /* \"contracts/Lottery.sol\":1226:1233  seedSet */\n      0x03\n      0x00\n      swap1\n      sload\n      swap1\n      0x0100\n      exp\n      swap1\n      div\n      0xff\n      and\n        /* \"contracts/Lottery.sol\":1225:1233  !seedSet */\n      iszero\n        /* \"contracts/Lottery.sol\":1216:1257  require (!seedSet, \"seed is already set\") */\n      tag_47\n      jumpi\n      mload(0x40)\n      0x08c379a000000000000000000000000000000000000000000000000000000000\n      dup2\n      mstore\n      0x04\n      add\n      tag_48\n      swap1\n      tag_49\n      jump\t// in\n    tag_48:\n      mload(0x40)\n      dup1\n      swap2\n      sub\n      swap1\n      revert\n    tag_47:\n        /* \"contracts/Lottery.sol\":1291:1302  managerpool */\n      0x00\n      dup1\n      sload\n      swap1\n      0x0100\n      exp\n      swap1\n      div\n      0xffffffffffffffffffffffffffffffffffffffff\n      and\n        /* \"contracts/Lottery.sol\":1277:1302  msg.sender == managerpool */\n      0xffffffffffffffffffffffffffffffffffffffff\n      and\n        /* \"contracts/Lottery.sol\":1277:1287  msg.sender */\n      caller\n        /* \"contracts/Lottery.sol\":1277:1302  msg.sender == managerpool */\n      0xffffffffffffffffffffffffffffffffffffffff\n      and\n      eq\n        /* \"contracts/Lottery.sol\":1268:1346  require (msg.sender == managerpool, \"only managerpool can call this function\") */\n      tag_50\n      jumpi\n      mload(0x40)\n      0x08c379a000000000000000000000000000000000000000000000000000000000\n      dup2\n      mstore\n      0x04\n      add\n      tag_51\n      swap1\n      tag_52\n      jump\t// in\n    tag_51:\n      mload(0x40)\n      dup1\n      swap2\n      sub\n      swap1\n      revert\n    tag_50:\n        /* \"contracts/Lottery.sol\":1375:1379  true */\n      0x01\n        /* \"contracts/Lottery.sol\":1357:1372  donationsClosed */\n      0x03\n      0x01\n        /* \"contracts/Lottery.sol\":1357:1379  donationsClosed = true */\n      0x0100\n      exp\n      dup2\n      sload\n      dup2\n      0xff\n      mul\n      not\n      and\n      swap1\n      dup4\n      iszero\n      iszero\n      mul\n      or\n      swap1\n      sstore\n      pop\n        /* \"contracts/Lottery.sol\":1404:1415  _sealedSeed */\n      dup1\n        /* \"contracts/Lottery.sol\":1391:1401  sealedSeed */\n      0x02\n        /* \"contracts/Lottery.sol\":1391:1415  sealedSeed = _sealedSeed */\n      dup2\n      swap1\n      sstore\n      pop\n        /* \"contracts/Lottery.sol\":1462:1463  1 */\n      0x01\n        /* \"contracts/Lottery.sol\":1447:1459  block.number */\n      number\n        /* \"contracts/Lottery.sol\":1447:1463  block.number + 1 */\n      tag_53\n      swap2\n      swap1\n      tag_54\n      jump\t// in\n    tag_53:\n        /* \"contracts/Lottery.sol\":1427:1444  storedBlockNumber */\n      0x04\n        /* \"contracts/Lottery.sol\":1427:1463  storedBlockNumber = block.number + 1 */\n      dup2\n      swap1\n      sstore\n      pop\n        /* \"contracts/Lottery.sol\":1485:1489  true */\n      0x01\n        /* \"contracts/Lottery.sol\":1475:1482  seedSet */\n      0x03\n      0x00\n        /* \"contracts/Lottery.sol\":1475:1489  seedSet = true */\n      0x0100\n      exp\n      dup2\n      sload\n      dup2\n      0xff\n      mul\n      not\n      and\n      swap1\n      dup4\n      iszero\n      iszero\n      mul\n      or\n      swap1\n      sstore\n      pop\n        /* \"contracts/Lottery.sol\":1154:1498  function setSealedSeed(bytes32 _sealedSeed) public {... */\n      pop\n      jump\t// out\n        /* \"contracts/Lottery.sol\":161:184  address[] public donors */\n    tag_19:\n      0x01\n      dup2\n      dup2\n      sload\n      dup2\n      lt\n      tag_55\n      jumpi\n      0x00\n      dup1\n      revert\n    tag_55:\n      swap1\n      0x00\n      mstore\n      keccak256(0x00, 0x20)\n      add\n      0x00\n      swap2\n      pop\n      sload\n      swap1\n      0x0100\n      exp\n      swap1\n      div\n      0xffffffffffffffffffffffffffffffffffffffff\n      and\n      dup2\n      jump\t// out\n        /* \"contracts/Lottery.sol\":2201:2455  function random() public view returns (uint){... */\n    tag_23:\n        /* \"contracts/Lottery.sol\":2240:2244  uint */\n      0x00\n        /* \"contracts/Lottery.sol\":2256:2271  uint thisrandom */\n      dup1\n        /* \"contracts/Lottery.sol\":2328:2344  block.difficulty */\n      difficulty\n        /* \"contracts/Lottery.sol\":2346:2361  block.timestamp */\n      timestamp\n        /* \"contracts/Lottery.sol\":2363:2369  donors */\n      0x01\n        /* \"contracts/Lottery.sol\":2311:2370  abi.encodePacked(block.difficulty, block.timestamp, donors) */\n      add(0x20, mload(0x40))\n      tag_58\n      swap4\n      swap3\n      swap2\n      swap1\n      tag_59\n      jump\t// in\n    tag_58:\n      mload(0x40)\n      0x20\n      dup2\n      dup4\n      sub\n      sub\n      dup2\n      mstore\n      swap1\n      0x40\n      mstore\n        /* \"contracts/Lottery.sol\":2301:2371  keccak256(abi.encodePacked(block.difficulty, block.timestamp, donors)) */\n      dup1\n      mload\n      swap1\n      0x20\n      add\n      keccak256\n        /* \"contracts/Lottery.sol\":2296:2372  uint(keccak256(abi.encodePacked(block.difficulty, block.timestamp, donors))) */\n      0x00\n      shr\n        /* \"contracts/Lottery.sol\":2283:2372  thisrandom = uint(keccak256(abi.encodePacked(block.difficulty, block.timestamp, donors))) */\n      swap1\n      pop\n        /* \"contracts/Lottery.sol\":2383:2394  uint winner */\n      0x00\n        /* \"contracts/Lottery.sol\":2408:2414  donors */\n      0x01\n        /* \"contracts/Lottery.sol\":2408:2421  donors.length */\n      dup1\n      sload\n      swap1\n      pop\n        /* \"contracts/Lottery.sol\":2397:2407  thisrandom */\n      dup3\n        /* \"contracts/Lottery.sol\":2397:2421  thisrandom%donors.length */\n      tag_60\n      swap2\n      swap1\n      tag_61\n      jump\t// in\n    tag_60:\n        /* \"contracts/Lottery.sol\":2383:2421  uint winner = thisrandom%donors.length */\n      swap1\n      pop\n        /* \"contracts/Lottery.sol\":2440:2446  winner */\n      dup1\n        /* \"contracts/Lottery.sol\":2433:2446  return winner */\n      swap3\n      pop\n      pop\n      pop\n        /* \"contracts/Lottery.sol\":2201:2455  function random() public view returns (uint){... */\n      swap1\n      jump\t// out\n        /* \"contracts/Lottery.sol\":1506:1991  function reveal(bytes32 _seed) public returns (uint){... */\n    tag_28:\n        /* \"contracts/Lottery.sol\":1553:1557  uint */\n      0x00\n        /* \"contracts/Lottery.sol\":1577:1584  seedSet */\n      0x03\n      0x00\n      swap1\n      sload\n      swap1\n      0x0100\n      exp\n      swap1\n      div\n      0xff\n      and\n        /* \"contracts/Lottery.sol\":1569:1608  require(seedSet, \"seed is not yet set\") */\n      tag_63\n      jumpi\n      mload(0x40)\n      0x08c379a000000000000000000000000000000000000000000000000000000000\n      dup2\n      mstore\n      0x04\n      add\n      tag_64\n      swap1\n      tag_65\n      jump\t// in\n    tag_64:\n      mload(0x40)\n      dup1\n      swap2\n      sub\n      swap1\n      revert\n    tag_63:\n        /* \"contracts/Lottery.sol\":1628:1643  donationsClosed */\n      0x03\n      0x01\n      swap1\n      sload\n      swap1\n      0x0100\n      exp\n      swap1\n      div\n      0xff\n      and\n        /* \"contracts/Lottery.sol\":1620:1676  require(donationsClosed, \"donations are not closed yet\") */\n      tag_66\n      jumpi\n      mload(0x40)\n      0x08c379a000000000000000000000000000000000000000000000000000000000\n      dup2\n      mstore\n      0x04\n      add\n      tag_67\n      swap1\n      tag_68\n      jump\t// in\n    tag_67:\n      mload(0x40)\n      dup1\n      swap2\n      sub\n      swap1\n      revert\n    tag_66:\n        /* \"contracts/Lottery.sol\":1716:1728  block.number */\n      number\n        /* \"contracts/Lottery.sol\":1696:1713  storedBlockNumber */\n      sload(0x04)\n        /* \"contracts/Lottery.sol\":1696:1728  storedBlockNumber < block.number */\n      lt\n        /* \"contracts/Lottery.sol\":1688:1729  require(storedBlockNumber < block.number) */\n      tag_69\n      jumpi\n      0x00\n      dup1\n      revert\n    tag_69:\n        /* \"contracts/Lottery.sol\":1792:1802  sealedSeed */\n      sload(0x02)\n        /* \"contracts/Lottery.sol\":1770:1780  msg.sender */\n      caller\n        /* \"contracts/Lottery.sol\":1782:1787  _seed */\n      dup4\n        /* \"contracts/Lottery.sol\":1759:1788  abi.encode(msg.sender, _seed) */\n      add(0x20, mload(0x40))\n      tag_70\n      swap3\n      swap2\n      swap1\n      tag_71\n      jump\t// in\n    tag_70:\n      mload(0x40)\n      0x20\n      dup2\n      dup4\n      sub\n      sub\n      dup2\n      mstore\n      swap1\n      0x40\n      mstore\n        /* \"contracts/Lottery.sol\":1749:1789  keccak256(abi.encode(msg.sender, _seed)) */\n      dup1\n      mload\n      swap1\n      0x20\n      add\n      keccak256\n        /* \"contracts/Lottery.sol\":1749:1802  keccak256(abi.encode(msg.sender, _seed))== sealedSeed */\n      eq\n        /* \"contracts/Lottery.sol\":1741:1803  require(keccak256(abi.encode(msg.sender, _seed))== sealedSeed) */\n      tag_72\n      jumpi\n      0x00\n      dup1\n      revert\n    tag_72:\n        /* \"contracts/Lottery.sol\":1815:1826  uint random */\n      0x00\n        /* \"contracts/Lottery.sol\":1855:1860  _seed */\n      dup3\n        /* \"contracts/Lottery.sol\":1872:1889  storedBlockNumber */\n      sload(0x04)\n        /* \"contracts/Lottery.sol\":1862:1890  blockhash(storedBlockNumber) */\n      blockhash\n        /* \"contracts/Lottery.sol\":1844:1891  abi.encode(_seed, blockhash(storedBlockNumber)) */\n      add(0x20, mload(0x40))\n      tag_73\n      swap3\n      swap2\n      swap1\n      tag_74\n      jump\t// in\n    tag_73:\n      mload(0x40)\n      0x20\n      dup2\n      dup4\n      sub\n      sub\n      dup2\n      mstore\n      swap1\n      0x40\n      mstore\n        /* \"contracts/Lottery.sol\":1834:1892  keccak256(abi.encode(_seed, blockhash(storedBlockNumber))) */\n      dup1\n      mload\n      swap1\n      0x20\n      add\n      keccak256\n        /* \"contracts/Lottery.sol\":1829:1893  uint(keccak256(abi.encode(_seed, blockhash(storedBlockNumber)))) */\n      0x00\n      shr\n        /* \"contracts/Lottery.sol\":1815:1893  uint random = uint(keccak256(abi.encode(_seed, blockhash(storedBlockNumber)))) */\n      swap1\n      pop\n        /* \"contracts/Lottery.sol\":1976:1982  random */\n      dup1\n        /* \"contracts/Lottery.sol\":1969:1982  return random */\n      swap2\n      pop\n      pop\n        /* \"contracts/Lottery.sol\":1506:1991  function reveal(bytes32 _seed) public returns (uint){... */\n      swap2\n      swap1\n      pop\n      jump\t// out\n        /* \"contracts/Lottery.sol\":937:1146  function getWinner() external returns(address){... */\n    tag_31:\n        /* \"contracts/Lottery.sol\":975:982  address */\n      0x00\n        /* \"contracts/Lottery.sol\":1035:1052  uint numberwinner */\n      dup1\n        /* \"contracts/Lottery.sol\":1055:1063  random() */\n      tag_76\n        /* \"contracts/Lottery.sol\":1055:1061  random */\n      tag_23\n        /* \"contracts/Lottery.sol\":1055:1063  random() */\n      jump\t// in\n    tag_76:\n        /* \"contracts/Lottery.sol\":1035:1063  uint numberwinner = random() */\n      swap1\n      pop\n        /* \"contracts/Lottery.sol\":1075:1089  address winner */\n      0x00\n        /* \"contracts/Lottery.sol\":1092:1098  donors */\n      0x01\n        /* \"contracts/Lottery.sol\":1099:1111  numberwinner */\n      dup3\n        /* \"contracts/Lottery.sol\":1092:1112  donors[numberwinner] */\n      dup2\n      sload\n      dup2\n      lt\n      tag_77\n      jumpi\n      tag_78\n      tag_79\n      jump\t// in\n    tag_78:\n    tag_77:\n      swap1\n      0x00\n      mstore\n      keccak256(0x00, 0x20)\n      add\n      0x00\n      swap1\n      sload\n      swap1\n      0x0100\n      exp\n      swap1\n      div\n      0xffffffffffffffffffffffffffffffffffffffff\n      and\n        /* \"contracts/Lottery.sol\":1075:1112  address winner = donors[numberwinner] */\n      swap1\n      pop\n        /* \"contracts/Lottery.sol\":1131:1137  winner */\n      dup1\n        /* \"contracts/Lottery.sol\":1124:1137  return winner */\n      swap3\n      pop\n      pop\n      pop\n        /* \"contracts/Lottery.sol\":937:1146  function getWinner() external returns(address){... */\n      swap1\n      jump\t// out\n        /* \"contracts/Lottery.sol\":2024:2155  function test(bytes32 _test) public returns(bool) {... */\n    tag_35:\n        /* \"contracts/Lottery.sol\":2068:2072  bool */\n      0x00\n        /* \"contracts/Lottery.sol\":2142:2146  true */\n      0x01\n        /* \"contracts/Lottery.sol\":2135:2146  return true */\n      swap1\n      pop\n        /* \"contracts/Lottery.sol\":2024:2155  function test(bytes32 _test) public returns(bool) {... */\n      swap2\n      swap1\n      pop\n      jump\t// out\n        /* \"contracts/Lottery.sol\":700:834  function enterLottery(address[] memory _donators) external returns (bool){... */\n    tag_41:\n        /* \"contracts/Lottery.sol\":768:772  bool */\n      0x00\n        /* \"contracts/Lottery.sol\":793:802  _donators */\n      dup2\n        /* \"contracts/Lottery.sol\":784:790  donors */\n      0x01\n        /* \"contracts/Lottery.sol\":784:802  donors = _donators */\n      swap1\n      dup1\n      mload\n      swap1\n      0x20\n      add\n      swap1\n      tag_83\n      swap3\n      swap2\n      swap1\n      tag_84\n      jump\t// in\n    tag_83:\n      pop\n        /* \"contracts/Lottery.sol\":821:825  true */\n      0x01\n        /* \"contracts/Lottery.sol\":814:825  return true */\n      swap1\n      pop\n        /* \"contracts/Lottery.sol\":700:834  function enterLottery(address[] memory _donators) external returns (bool){... */\n      swap2\n      swap1\n      pop\n      jump\t// out\n        /* \"contracts/Lottery.sol\":127:153  address public managerpool */\n    tag_44:\n      0x00\n      dup1\n      sload\n      swap1\n      0x0100\n      exp\n      swap1\n      div\n      0xffffffffffffffffffffffffffffffffffffffff\n      and\n      dup2\n      jump\t// out\n    tag_84:\n      dup3\n      dup1\n      sload\n      dup3\n      dup3\n      sstore\n      swap1\n      0x00\n      mstore\n      keccak256(0x00, 0x20)\n      swap1\n      dup2\n      add\n      swap3\n      dup3\n      iszero\n      tag_85\n      jumpi\n      swap2\n      0x20\n      mul\n      dup3\n      add\n    tag_86:\n      dup3\n      dup2\n      gt\n      iszero\n      tag_87\n      jumpi\n      dup3\n      mload\n      dup3\n      exp(0x0100, 0x00)\n      dup2\n      sload\n      dup2\n      0xffffffffffffffffffffffffffffffffffffffff\n      mul\n      not\n      and\n      swap1\n      dup4\n      0xffffffffffffffffffffffffffffffffffffffff\n      and\n      mul\n      or\n      swap1\n      sstore\n      pop\n      swap2\n      0x20\n      add\n      swap2\n      swap1\n      0x01\n      add\n      swap1\n      jump(tag_86)\n    tag_87:\n    tag_85:\n      pop\n      swap1\n      pop\n      tag_88\n      swap2\n      swap1\n      tag_89\n      jump\t// in\n    tag_88:\n      pop\n      swap1\n      jump\t// out\n    tag_89:\n    tag_90:\n      dup1\n      dup3\n      gt\n      iszero\n      tag_91\n      jumpi\n      0x00\n      dup2\n      0x00\n      swap1\n      sstore\n      pop\n      0x01\n      add\n      jump(tag_90)\n    tag_91:\n      pop\n      swap1\n      jump\t// out\n        /* \"#utility.yul\":7:82   */\n    tag_92:\n        /* \"#utility.yul\":40:46   */\n      0x00\n        /* \"#utility.yul\":73:75   */\n      0x40\n        /* \"#utility.yul\":67:76   */\n      mload\n        /* \"#utility.yul\":57:76   */\n      swap1\n      pop\n        /* \"#utility.yul\":7:82   */\n      swap1\n      jump\t// out\n        /* \"#utility.yul\":88:205   */\n    tag_93:\n        /* \"#utility.yul\":197:198   */\n      0x00\n        /* \"#utility.yul\":194:195   */\n      dup1\n        /* \"#utility.yul\":187:199   */\n      revert\n        /* \"#utility.yul\":211:328   */\n    tag_94:\n        /* \"#utility.yul\":320:321   */\n      0x00\n        /* \"#utility.yul\":317:318   */\n      dup1\n        /* \"#utility.yul\":310:322   */\n      revert\n        /* \"#utility.yul\":334:411   */\n    tag_95:\n        /* \"#utility.yul\":371:378   */\n      0x00\n        /* \"#utility.yul\":400:405   */\n      dup2\n        /* \"#utility.yul\":389:405   */\n      swap1\n      pop\n        /* \"#utility.yul\":334:411   */\n      swap2\n      swap1\n      pop\n      jump\t// out\n        /* \"#utility.yul\":417:539   */\n    tag_96:\n        /* \"#utility.yul\":490:514   */\n      tag_149\n        /* \"#utility.yul\":508:513   */\n      dup2\n        /* \"#utility.yul\":490:514   */\n      tag_95\n      jump\t// in\n    tag_149:\n        /* \"#utility.yul\":483:488   */\n      dup2\n        /* \"#utility.yul\":480:515   */\n      eq\n        /* \"#utility.yul\":470:533   */\n      tag_150\n      jumpi\n        /* \"#utility.yul\":529:530   */\n      0x00\n        /* \"#utility.yul\":526:527   */\n      dup1\n        /* \"#utility.yul\":519:531   */\n      revert\n        /* \"#utility.yul\":470:533   */\n    tag_150:\n        /* \"#utility.yul\":417:539   */\n      pop\n      jump\t// out\n        /* \"#utility.yul\":545:684   */\n    tag_97:\n        /* \"#utility.yul\":591:596   */\n      0x00\n        /* \"#utility.yul\":629:635   */\n      dup2\n        /* \"#utility.yul\":616:636   */\n      calldataload\n        /* \"#utility.yul\":607:636   */\n      swap1\n      pop\n        /* \"#utility.yul\":645:678   */\n      tag_152\n        /* \"#utility.yul\":672:677   */\n      dup2\n        /* \"#utility.yul\":645:678   */\n      tag_96\n      jump\t// in\n    tag_152:\n        /* \"#utility.yul\":545:684   */\n      swap3\n      swap2\n      pop\n      pop\n      jump\t// out\n        /* \"#utility.yul\":690:1019   */\n    tag_14:\n        /* \"#utility.yul\":749:755   */\n      0x00\n        /* \"#utility.yul\":798:800   */\n      0x20\n        /* \"#utility.yul\":786:795   */\n      dup3\n        /* \"#utility.yul\":777:784   */\n      dup5\n        /* \"#utility.yul\":773:796   */\n      sub\n        /* \"#utility.yul\":769:801   */\n      slt\n        /* \"#utility.yul\":766:885   */\n      iszero\n      tag_154\n      jumpi\n        /* \"#utility.yul\":804:883   */\n      tag_155\n      tag_93\n      jump\t// in\n    tag_155:\n        /* \"#utility.yul\":766:885   */\n    tag_154:\n        /* \"#utility.yul\":924:925   */\n      0x00\n        /* \"#utility.yul\":949:1002   */\n      tag_156\n        /* \"#utility.yul\":994:1001   */\n      dup5\n        /* \"#utility.yul\":985:991   */\n      dup3\n        /* \"#utility.yul\":974:983   */\n      dup6\n        /* \"#utility.yul\":970:992   */\n      add\n        /* \"#utility.yul\":949:1002   */\n      tag_97\n      jump\t// in\n    tag_156:\n        /* \"#utility.yul\":939:1002   */\n      swap2\n      pop\n        /* \"#utility.yul\":895:1012   */\n      pop\n        /* \"#utility.yul\":690:1019   */\n      swap3\n      swap2\n      pop\n      pop\n      jump\t// out\n        /* \"#utility.yul\":1025:1102   */\n    tag_98:\n        /* \"#utility.yul\":1062:1069   */\n      0x00\n        /* \"#utility.yul\":1091:1096   */\n      dup2\n        /* \"#utility.yul\":1080:1096   */\n      swap1\n      pop\n        /* \"#utility.yul\":1025:1102   */\n      swap2\n      swap1\n      pop\n      jump\t// out\n        /* \"#utility.yul\":1108:1230   */\n    tag_99:\n        /* \"#utility.yul\":1181:1205   */\n      tag_159\n        /* \"#utility.yul\":1199:1204   */\n      dup2\n        /* \"#utility.yul\":1181:1205   */\n      tag_98\n      jump\t// in\n    tag_159:\n        /* \"#utility.yul\":1174:1179   */\n      dup2\n        /* \"#utility.yul\":1171:1206   */\n      eq\n        /* \"#utility.yul\":1161:1224   */\n      tag_160\n      jumpi\n        /* \"#utility.yul\":1220:1221   */\n      0x00\n        /* \"#utility.yul\":1217:1218   */\n      dup1\n        /* \"#utility.yul\":1210:1222   */\n      revert\n        /* \"#utility.yul\":1161:1224   */\n    tag_160:\n        /* \"#utility.yul\":1108:1230   */\n      pop\n      jump\t// out\n        /* \"#utility.yul\":1236:1375   */\n    tag_100:\n        /* \"#utility.yul\":1282:1287   */\n      0x00\n        /* \"#utility.yul\":1320:1326   */\n      dup2\n        /* \"#utility.yul\":1307:1327   */\n      calldataload\n        /* \"#utility.yul\":1298:1327   */\n      swap1\n      pop\n        /* \"#utility.yul\":1336:1369   */\n      tag_162\n        /* \"#utility.yul\":1363:1368   */\n      dup2\n        /* \"#utility.yul\":1336:1369   */\n      tag_99\n      jump\t// in\n    tag_162:\n        /* \"#utility.yul\":1236:1375   */\n      swap3\n      swap2\n      pop\n      pop\n      jump\t// out\n        /* \"#utility.yul\":1381:1710   */\n    tag_18:\n        /* \"#utility.yul\":1440:1446   */\n      0x00\n        /* \"#utility.yul\":1489:1491   */\n      0x20\n        /* \"#utility.yul\":1477:1486   */\n      dup3\n        /* \"#utility.yul\":1468:1475   */\n      dup5\n        /* \"#utility.yul\":1464:1487   */\n      sub\n        /* \"#utility.yul\":1460:1492   */\n      slt\n        /* \"#utility.yul\":1457:1576   */\n      iszero\n      tag_164\n      jumpi\n        /* \"#utility.yul\":1495:1574   */\n      tag_165\n      tag_93\n      jump\t// in\n    tag_165:\n        /* \"#utility.yul\":1457:1576   */\n    tag_164:\n        /* \"#utility.yul\":1615:1616   */\n      0x00\n        /* \"#utility.yul\":1640:1693   */\n      tag_166\n        /* \"#utility.yul\":1685:1692   */\n      dup5\n        /* \"#utility.yul\":1676:1682   */\n      dup3\n        /* \"#utility.yul\":1665:1674   */\n      dup6\n        /* \"#utility.yul\":1661:1683   */\n      add\n        /* \"#utility.yul\":1640:1693   */\n      tag_100\n      jump\t// in\n    tag_166:\n        /* \"#utility.yul\":1630:1693   */\n      swap2\n      pop\n        /* \"#utility.yul\":1586:1703   */\n      pop\n        /* \"#utility.yul\":1381:1710   */\n      swap3\n      swap2\n      pop\n      pop\n      jump\t// out\n        /* \"#utility.yul\":1716:1842   */\n    tag_101:\n        /* \"#utility.yul\":1753:1760   */\n      0x00\n        /* \"#utility.yul\":1793:1835   */\n      0xffffffffffffffffffffffffffffffffffffffff\n        /* \"#utility.yul\":1786:1791   */\n      dup3\n        /* \"#utility.yul\":1782:1836   */\n      and\n        /* \"#utility.yul\":1771:1836   */\n      swap1\n      pop\n        /* \"#utility.yul\":1716:1842   */\n      swap2\n      swap1\n      pop\n      jump\t// out\n        /* \"#utility.yul\":1848:1944   */\n    tag_102:\n        /* \"#utility.yul\":1885:1892   */\n      0x00\n        /* \"#utility.yul\":1914:1938   */\n      tag_169\n        /* \"#utility.yul\":1932:1937   */\n      dup3\n        /* \"#utility.yul\":1914:1938   */\n      tag_101\n      jump\t// in\n    tag_169:\n        /* \"#utility.yul\":1903:1938   */\n      swap1\n      pop\n        /* \"#utility.yul\":1848:1944   */\n      swap2\n      swap1\n      pop\n      jump\t// out\n        /* \"#utility.yul\":1950:2068   */\n    tag_103:\n        /* \"#utility.yul\":2037:2061   */\n      tag_171\n        /* \"#utility.yul\":2055:2060   */\n      dup2\n        /* \"#utility.yul\":2037:2061   */\n      tag_102\n      jump\t// in\n    tag_171:\n        /* \"#utility.yul\":2032:2035   */\n      dup3\n        /* \"#utility.yul\":2025:2062   */\n      mstore\n        /* \"#utility.yul\":1950:2068   */\n      pop\n      pop\n      jump\t// out\n        /* \"#utility.yul\":2074:2296   */\n    tag_21:\n        /* \"#utility.yul\":2167:2171   */\n      0x00\n        /* \"#utility.yul\":2205:2207   */\n      0x20\n        /* \"#utility.yul\":2194:2203   */\n      dup3\n        /* \"#utility.yul\":2190:2208   */\n      add\n        /* \"#utility.yul\":2182:2208   */\n      swap1\n      pop\n        /* \"#utility.yul\":2218:2289   */\n      tag_173\n        /* \"#utility.yul\":2286:2287   */\n      0x00\n        /* \"#utility.yul\":2275:2284   */\n      dup4\n        /* \"#utility.yul\":2271:2288   */\n      add\n        /* \"#utility.yul\":2262:2268   */\n      dup5\n        /* \"#utility.yul\":2218:2289   */\n      tag_103\n      jump\t// in\n    tag_173:\n        /* \"#utility.yul\":2074:2296   */\n      swap3\n      swap2\n      pop\n      pop\n      jump\t// out\n        /* \"#utility.yul\":2302:2420   */\n    tag_104:\n        /* \"#utility.yul\":2389:2413   */\n      tag_175\n        /* \"#utility.yul\":2407:2412   */\n      dup2\n        /* \"#utility.yul\":2389:2413   */\n      tag_98\n      jump\t// in\n    tag_175:\n        /* \"#utility.yul\":2384:2387   */\n      dup3\n        /* \"#utility.yul\":2377:2414   */\n      mstore\n        /* \"#utility.yul\":2302:2420   */\n      pop\n      pop\n      jump\t// out\n        /* \"#utility.yul\":2426:2648   */\n    tag_25:\n        /* \"#utility.yul\":2519:2523   */\n      0x00\n        /* \"#utility.yul\":2557:2559   */\n      0x20\n        /* \"#utility.yul\":2546:2555   */\n      dup3\n        /* \"#utility.yul\":2542:2560   */\n      add\n        /* \"#utility.yul\":2534:2560   */\n      swap1\n      pop\n        /* \"#utility.yul\":2570:2641   */\n      tag_177\n        /* \"#utility.yul\":2638:2639   */\n      0x00\n        /* \"#utility.yul\":2627:2636   */\n      dup4\n        /* \"#utility.yul\":2623:2640   */\n      add\n        /* \"#utility.yul\":2614:2620   */\n      dup5\n        /* \"#utility.yul\":2570:2641   */\n      tag_104\n      jump\t// in\n    tag_177:\n        /* \"#utility.yul\":2426:2648   */\n      swap3\n      swap2\n      pop\n      pop\n      jump\t// out\n        /* \"#utility.yul\":2654:2744   */\n    tag_105:\n        /* \"#utility.yul\":2688:2695   */\n      0x00\n        /* \"#utility.yul\":2731:2736   */\n      dup2\n        /* \"#utility.yul\":2724:2737   */\n      iszero\n        /* \"#utility.yul\":2717:2738   */\n      iszero\n        /* \"#utility.yul\":2706:2738   */\n      swap1\n      pop\n        /* \"#utility.yul\":2654:2744   */\n      swap2\n      swap1\n      pop\n      jump\t// out\n        /* \"#utility.yul\":2750:2859   */\n    tag_106:\n        /* \"#utility.yul\":2831:2852   */\n      tag_180\n        /* \"#utility.yul\":2846:2851   */\n      dup2\n        /* \"#utility.yul\":2831:2852   */\n      tag_105\n      jump\t// in\n    tag_180:\n        /* \"#utility.yul\":2826:2829   */\n      dup3\n        /* \"#utility.yul\":2819:2853   */\n      mstore\n        /* \"#utility.yul\":2750:2859   */\n      pop\n      pop\n      jump\t// out\n        /* \"#utility.yul\":2865:3075   */\n    tag_37:\n        /* \"#utility.yul\":2952:2956   */\n      0x00\n        /* \"#utility.yul\":2990:2992   */\n      0x20\n        /* \"#utility.yul\":2979:2988   */\n      dup3\n        /* \"#utility.yul\":2975:2993   */\n      add\n        /* \"#utility.yul\":2967:2993   */\n      swap1\n      pop\n        /* \"#utility.yul\":3003:3068   */\n      tag_182\n        /* \"#utility.yul\":3065:3066   */\n      0x00\n        /* \"#utility.yul\":3054:3063   */\n      dup4\n        /* \"#utility.yul\":3050:3067   */\n      add\n        /* \"#utility.yul\":3041:3047   */\n      dup5\n        /* \"#utility.yul\":3003:3068   */\n      tag_106\n      jump\t// in\n    tag_182:\n        /* \"#utility.yul\":2865:3075   */\n      swap3\n      swap2\n      pop\n      pop\n      jump\t// out\n        /* \"#utility.yul\":3081:3198   */\n    tag_107:\n        /* \"#utility.yul\":3190:3191   */\n      0x00\n        /* \"#utility.yul\":3187:3188   */\n      dup1\n        /* \"#utility.yul\":3180:3192   */\n      revert\n        /* \"#utility.yul\":3204:3306   */\n    tag_108:\n        /* \"#utility.yul\":3245:3251   */\n      0x00\n        /* \"#utility.yul\":3296:3298   */\n      0x1f\n        /* \"#utility.yul\":3292:3299   */\n      not\n        /* \"#utility.yul\":3287:3289   */\n      0x1f\n        /* \"#utility.yul\":3280:3285   */\n      dup4\n        /* \"#utility.yul\":3276:3290   */\n      add\n        /* \"#utility.yul\":3272:3300   */\n      and\n        /* \"#utility.yul\":3262:3300   */\n      swap1\n      pop\n        /* \"#utility.yul\":3204:3306   */\n      swap2\n      swap1\n      pop\n      jump\t// out\n        /* \"#utility.yul\":3312:3492   */\n    tag_109:\n        /* \"#utility.yul\":3360:3437   */\n      0x4e487b7100000000000000000000000000000000000000000000000000000000\n        /* \"#utility.yul\":3357:3358   */\n      0x00\n        /* \"#utility.yul\":3350:3438   */\n      mstore\n        /* \"#utility.yul\":3457:3461   */\n      0x41\n        /* \"#utility.yul\":3454:3455   */\n      0x04\n        /* \"#utility.yul\":3447:3462   */\n      mstore\n        /* \"#utility.yul\":3481:3485   */\n      0x24\n        /* \"#utility.yul\":3478:3479   */\n      0x00\n        /* \"#utility.yul\":3471:3486   */\n      revert\n        /* \"#utility.yul\":3498:3779   */\n    tag_110:\n        /* \"#utility.yul\":3581:3608   */\n      tag_187\n        /* \"#utility.yul\":3603:3607   */\n      dup3\n        /* \"#utility.yul\":3581:3608   */\n      tag_108\n      jump\t// in\n    tag_187:\n        /* \"#utility.yul\":3573:3579   */\n      dup2\n        /* \"#utility.yul\":3569:3609   */\n      add\n        /* \"#utility.yul\":3711:3717   */\n      dup2\n        /* \"#utility.yul\":3699:3709   */\n      dup2\n        /* \"#utility.yul\":3696:3718   */\n      lt\n        /* \"#utility.yul\":3675:3693   */\n      0xffffffffffffffff\n        /* \"#utility.yul\":3663:3673   */\n      dup3\n        /* \"#utility.yul\":3660:3694   */\n      gt\n        /* \"#utility.yul\":3657:3719   */\n      or\n        /* \"#utility.yul\":3654:3742   */\n      iszero\n      tag_188\n      jumpi\n        /* \"#utility.yul\":3722:3740   */\n      tag_189\n      tag_109\n      jump\t// in\n    tag_189:\n        /* \"#utility.yul\":3654:3742   */\n    tag_188:\n        /* \"#utility.yul\":3762:3772   */\n      dup1\n        /* \"#utility.yul\":3758:3760   */\n      0x40\n        /* \"#utility.yul\":3751:3773   */\n      mstore\n        /* \"#utility.yul\":3541:3779   */\n      pop\n        /* \"#utility.yul\":3498:3779   */\n      pop\n      pop\n      jump\t// out\n        /* \"#utility.yul\":3785:3914   */\n    tag_111:\n        /* \"#utility.yul\":3819:3825   */\n      0x00\n        /* \"#utility.yul\":3846:3866   */\n      tag_191\n      tag_92\n      jump\t// in\n    tag_191:\n        /* \"#utility.yul\":3836:3866   */\n      swap1\n      pop\n        /* \"#utility.yul\":3875:3908   */\n      tag_192\n        /* \"#utility.yul\":3903:3907   */\n      dup3\n        /* \"#utility.yul\":3895:3901   */\n      dup3\n        /* \"#utility.yul\":3875:3908   */\n      tag_110\n      jump\t// in\n    tag_192:\n        /* \"#utility.yul\":3785:3914   */\n      swap2\n      swap1\n      pop\n      jump\t// out\n        /* \"#utility.yul\":3920:4231   */\n    tag_112:\n        /* \"#utility.yul\":3997:4001   */\n      0x00\n        /* \"#utility.yul\":4087:4105   */\n      0xffffffffffffffff\n        /* \"#utility.yul\":4079:4085   */\n      dup3\n        /* \"#utility.yul\":4076:4106   */\n      gt\n        /* \"#utility.yul\":4073:4129   */\n      iszero\n      tag_194\n      jumpi\n        /* \"#utility.yul\":4109:4127   */\n      tag_195\n      tag_109\n      jump\t// in\n    tag_195:\n        /* \"#utility.yul\":4073:4129   */\n    tag_194:\n        /* \"#utility.yul\":4159:4163   */\n      0x20\n        /* \"#utility.yul\":4151:4157   */\n      dup3\n        /* \"#utility.yul\":4147:4164   */\n      mul\n        /* \"#utility.yul\":4139:4164   */\n      swap1\n      pop\n        /* \"#utility.yul\":4219:4223   */\n      0x20\n        /* \"#utility.yul\":4213:4217   */\n      dup2\n        /* \"#utility.yul\":4209:4224   */\n      add\n        /* \"#utility.yul\":4201:4224   */\n      swap1\n      pop\n        /* \"#utility.yul\":3920:4231   */\n      swap2\n      swap1\n      pop\n      jump\t// out\n        /* \"#utility.yul\":4237:4354   */\n    tag_113:\n        /* \"#utility.yul\":4346:4347   */\n      0x00\n        /* \"#utility.yul\":4343:4344   */\n      dup1\n        /* \"#utility.yul\":4336:4348   */\n      revert\n        /* \"#utility.yul\":4360:4482   */\n    tag_114:\n        /* \"#utility.yul\":4433:4457   */\n      tag_198\n        /* \"#utility.yul\":4451:4456   */\n      dup2\n        /* \"#utility.yul\":4433:4457   */\n      tag_102\n      jump\t// in\n    tag_198:\n        /* \"#utility.yul\":4426:4431   */\n      dup2\n        /* \"#utility.yul\":4423:4458   */\n      eq\n        /* \"#utility.yul\":4413:4476   */\n      tag_199\n      jumpi\n        /* \"#utility.yul\":4472:4473   */\n      0x00\n        /* \"#utility.yul\":4469:4470   */\n      dup1\n        /* \"#utility.yul\":4462:4474   */\n      revert\n        /* \"#utility.yul\":4413:4476   */\n    tag_199:\n        /* \"#utility.yul\":4360:4482   */\n      pop\n      jump\t// out\n        /* \"#utility.yul\":4488:4627   */\n    tag_115:\n        /* \"#utility.yul\":4534:4539   */\n      0x00\n        /* \"#utility.yul\":4572:4578   */\n      dup2\n        /* \"#utility.yul\":4559:4579   */\n      calldataload\n        /* \"#utility.yul\":4550:4579   */\n      swap1\n      pop\n        /* \"#utility.yul\":4588:4621   */\n      tag_201\n        /* \"#utility.yul\":4615:4620   */\n      dup2\n        /* \"#utility.yul\":4588:4621   */\n      tag_114\n      jump\t// in\n    tag_201:\n        /* \"#utility.yul\":4488:4627   */\n      swap3\n      swap2\n      pop\n      pop\n      jump\t// out\n        /* \"#utility.yul\":4650:5360   */\n    tag_116:\n        /* \"#utility.yul\":4746:4751   */\n      0x00\n        /* \"#utility.yul\":4771:4852   */\n      tag_203\n        /* \"#utility.yul\":4787:4851   */\n      tag_204\n        /* \"#utility.yul\":4844:4850   */\n      dup5\n        /* \"#utility.yul\":4787:4851   */\n      tag_112\n      jump\t// in\n    tag_204:\n        /* \"#utility.yul\":4771:4852   */\n      tag_111\n      jump\t// in\n    tag_203:\n        /* \"#utility.yul\":4762:4852   */\n      swap1\n      pop\n        /* \"#utility.yul\":4872:4877   */\n      dup1\n        /* \"#utility.yul\":4901:4907   */\n      dup4\n        /* \"#utility.yul\":4894:4899   */\n      dup3\n        /* \"#utility.yul\":4887:4908   */\n      mstore\n        /* \"#utility.yul\":4935:4939   */\n      0x20\n        /* \"#utility.yul\":4928:4933   */\n      dup3\n        /* \"#utility.yul\":4924:4940   */\n      add\n        /* \"#utility.yul\":4917:4940   */\n      swap1\n      pop\n        /* \"#utility.yul\":4988:4992   */\n      0x20\n        /* \"#utility.yul\":4980:4986   */\n      dup5\n        /* \"#utility.yul\":4976:4993   */\n      mul\n        /* \"#utility.yul\":4968:4974   */\n      dup4\n        /* \"#utility.yul\":4964:4994   */\n      add\n        /* \"#utility.yul\":5017:5020   */\n      dup6\n        /* \"#utility.yul\":5009:5015   */\n      dup2\n        /* \"#utility.yul\":5006:5021   */\n      gt\n        /* \"#utility.yul\":5003:5125   */\n      iszero\n      tag_205\n      jumpi\n        /* \"#utility.yul\":5036:5115   */\n      tag_206\n      tag_113\n      jump\t// in\n    tag_206:\n        /* \"#utility.yul\":5003:5125   */\n    tag_205:\n        /* \"#utility.yul\":5151:5157   */\n      dup4\n        /* \"#utility.yul\":5134:5354   */\n    tag_207:\n        /* \"#utility.yul\":5168:5174   */\n      dup2\n        /* \"#utility.yul\":5163:5166   */\n      dup2\n        /* \"#utility.yul\":5160:5175   */\n      lt\n        /* \"#utility.yul\":5134:5354   */\n      iszero\n      tag_209\n      jumpi\n        /* \"#utility.yul\":5243:5246   */\n      dup1\n        /* \"#utility.yul\":5272:5309   */\n      tag_210\n        /* \"#utility.yul\":5305:5308   */\n      dup9\n        /* \"#utility.yul\":5293:5303   */\n      dup3\n        /* \"#utility.yul\":5272:5309   */\n      tag_115\n      jump\t// in\n    tag_210:\n        /* \"#utility.yul\":5267:5270   */\n      dup5\n        /* \"#utility.yul\":5260:5310   */\n      mstore\n        /* \"#utility.yul\":5339:5343   */\n      0x20\n        /* \"#utility.yul\":5334:5337   */\n      dup5\n        /* \"#utility.yul\":5330:5344   */\n      add\n        /* \"#utility.yul\":5323:5344   */\n      swap4\n      pop\n        /* \"#utility.yul\":5210:5354   */\n      pop\n        /* \"#utility.yul\":5194:5198   */\n      0x20\n        /* \"#utility.yul\":5189:5192   */\n      dup2\n        /* \"#utility.yul\":5185:5199   */\n      add\n        /* \"#utility.yul\":5178:5199   */\n      swap1\n      pop\n        /* \"#utility.yul\":5134:5354   */\n      jump(tag_207)\n    tag_209:\n        /* \"#utility.yul\":5138:5159   */\n      pop\n        /* \"#utility.yul\":4752:5360   */\n      pop\n      pop\n        /* \"#utility.yul\":4650:5360   */\n      swap4\n      swap3\n      pop\n      pop\n      pop\n      jump\t// out\n        /* \"#utility.yul\":5383:5753   */\n    tag_117:\n        /* \"#utility.yul\":5454:5459   */\n      0x00\n        /* \"#utility.yul\":5503:5506   */\n      dup3\n        /* \"#utility.yul\":5496:5500   */\n      0x1f\n        /* \"#utility.yul\":5488:5494   */\n      dup4\n        /* \"#utility.yul\":5484:5501   */\n      add\n        /* \"#utility.yul\":5480:5507   */\n      slt\n        /* \"#utility.yul\":5470:5592   */\n      tag_212\n      jumpi\n        /* \"#utility.yul\":5511:5590   */\n      tag_213\n      tag_107\n      jump\t// in\n    tag_213:\n        /* \"#utility.yul\":5470:5592   */\n    tag_212:\n        /* \"#utility.yul\":5628:5634   */\n      dup2\n        /* \"#utility.yul\":5615:5635   */\n      calldataload\n        /* \"#utility.yul\":5653:5747   */\n      tag_214\n        /* \"#utility.yul\":5743:5746   */\n      dup5\n        /* \"#utility.yul\":5735:5741   */\n      dup3\n        /* \"#utility.yul\":5728:5732   */\n      0x20\n        /* \"#utility.yul\":5720:5726   */\n      dup7\n        /* \"#utility.yul\":5716:5733   */\n      add\n        /* \"#utility.yul\":5653:5747   */\n      tag_116\n      jump\t// in\n    tag_214:\n        /* \"#utility.yul\":5644:5747   */\n      swap2\n      pop\n        /* \"#utility.yul\":5460:5753   */\n      pop\n        /* \"#utility.yul\":5383:5753   */\n      swap3\n      swap2\n      pop\n      pop\n      jump\t// out\n        /* \"#utility.yul\":5759:6298   */\n    tag_40:\n        /* \"#utility.yul\":5843:5849   */\n      0x00\n        /* \"#utility.yul\":5892:5894   */\n      0x20\n        /* \"#utility.yul\":5880:5889   */\n      dup3\n        /* \"#utility.yul\":5871:5878   */\n      dup5\n        /* \"#utility.yul\":5867:5890   */\n      sub\n        /* \"#utility.yul\":5863:5895   */\n      slt\n        /* \"#utility.yul\":5860:5979   */\n      iszero\n      tag_216\n      jumpi\n        /* \"#utility.yul\":5898:5977   */\n      tag_217\n      tag_93\n      jump\t// in\n    tag_217:\n        /* \"#utility.yul\":5860:5979   */\n    tag_216:\n        /* \"#utility.yul\":6046:6047   */\n      0x00\n        /* \"#utility.yul\":6035:6044   */\n      dup3\n        /* \"#utility.yul\":6031:6048   */\n      add\n        /* \"#utility.yul\":6018:6049   */\n      calldataload\n        /* \"#utility.yul\":6076:6094   */\n      0xffffffffffffffff\n        /* \"#utility.yul\":6068:6074   */\n      dup2\n        /* \"#utility.yul\":6065:6095   */\n      gt\n        /* \"#utility.yul\":6062:6179   */\n      iszero\n      tag_218\n      jumpi\n        /* \"#utility.yul\":6098:6177   */\n      tag_219\n      tag_94\n      jump\t// in\n    tag_219:\n        /* \"#utility.yul\":6062:6179   */\n    tag_218:\n        /* \"#utility.yul\":6203:6281   */\n      tag_220\n        /* \"#utility.yul\":6273:6280   */\n      dup5\n        /* \"#utility.yul\":6264:6270   */\n      dup3\n        /* \"#utility.yul\":6253:6262   */\n      dup6\n        /* \"#utility.yul\":6249:6271   */\n      add\n        /* \"#utility.yul\":6203:6281   */\n      tag_117\n      jump\t// in\n    tag_220:\n        /* \"#utility.yul\":6193:6281   */\n      swap2\n      pop\n        /* \"#utility.yul\":5989:6291   */\n      pop\n        /* \"#utility.yul\":5759:6298   */\n      swap3\n      swap2\n      pop\n      pop\n      jump\t// out\n        /* \"#utility.yul\":6304:6473   */\n    tag_118:\n        /* \"#utility.yul\":6388:6399   */\n      0x00\n        /* \"#utility.yul\":6422:6428   */\n      dup3\n        /* \"#utility.yul\":6417:6420   */\n      dup3\n        /* \"#utility.yul\":6410:6429   */\n      mstore\n        /* \"#utility.yul\":6462:6466   */\n      0x20\n        /* \"#utility.yul\":6457:6460   */\n      dup3\n        /* \"#utility.yul\":6453:6467   */\n      add\n        /* \"#utility.yul\":6438:6467   */\n      swap1\n      pop\n        /* \"#utility.yul\":6304:6473   */\n      swap3\n      swap2\n      pop\n      pop\n      jump\t// out\n        /* \"#utility.yul\":6479:6648   */\n    tag_119:\n        /* \"#utility.yul\":6619:6640   */\n      0x7365656420697320616c72656164792073657400000000000000000000000000\n        /* \"#utility.yul\":6615:6616   */\n      0x00\n        /* \"#utility.yul\":6607:6613   */\n      dup3\n        /* \"#utility.yul\":6603:6617   */\n      add\n        /* \"#utility.yul\":6596:6641   */\n      mstore\n        /* \"#utility.yul\":6479:6648   */\n      pop\n      jump\t// out\n        /* \"#utility.yul\":6654:7020   */\n    tag_120:\n        /* \"#utility.yul\":6796:6799   */\n      0x00\n        /* \"#utility.yul\":6817:6884   */\n      tag_224\n        /* \"#utility.yul\":6881:6883   */\n      0x13\n        /* \"#utility.yul\":6876:6879   */\n      dup4\n        /* \"#utility.yul\":6817:6884   */\n      tag_118\n      jump\t// in\n    tag_224:\n        /* \"#utility.yul\":6810:6884   */\n      swap2\n      pop\n        /* \"#utility.yul\":6893:6986   */\n      tag_225\n        /* \"#utility.yul\":6982:6985   */\n      dup3\n        /* \"#utility.yul\":6893:6986   */\n      tag_119\n      jump\t// in\n    tag_225:\n        /* \"#utility.yul\":7011:7013   */\n      0x20\n        /* \"#utility.yul\":7006:7009   */\n      dup3\n        /* \"#utility.yul\":7002:7014   */\n      add\n        /* \"#utility.yul\":6995:7014   */\n      swap1\n      pop\n        /* \"#utility.yul\":6654:7020   */\n      swap2\n      swap1\n      pop\n      jump\t// out\n        /* \"#utility.yul\":7026:7445   */\n    tag_49:\n        /* \"#utility.yul\":7192:7196   */\n      0x00\n        /* \"#utility.yul\":7230:7232   */\n      0x20\n        /* \"#utility.yul\":7219:7228   */\n      dup3\n        /* \"#utility.yul\":7215:7233   */\n      add\n        /* \"#utility.yul\":7207:7233   */\n      swap1\n      pop\n        /* \"#utility.yul\":7279:7288   */\n      dup2\n        /* \"#utility.yul\":7273:7277   */\n      dup2\n        /* \"#utility.yul\":7269:7289   */\n      sub\n        /* \"#utility.yul\":7265:7266   */\n      0x00\n        /* \"#utility.yul\":7254:7263   */\n      dup4\n        /* \"#utility.yul\":7250:7267   */\n      add\n        /* \"#utility.yul\":7243:7290   */\n      mstore\n        /* \"#utility.yul\":7307:7438   */\n      tag_227\n        /* \"#utility.yul\":7433:7437   */\n      dup2\n        /* \"#utility.yul\":7307:7438   */\n      tag_120\n      jump\t// in\n    tag_227:\n        /* \"#utility.yul\":7299:7438   */\n      swap1\n      pop\n        /* \"#utility.yul\":7026:7445   */\n      swap2\n      swap1\n      pop\n      jump\t// out\n        /* \"#utility.yul\":7451:7677   */\n    tag_121:\n        /* \"#utility.yul\":7591:7625   */\n      0x6f6e6c79206d616e61676572706f6f6c2063616e2063616c6c20746869732066\n        /* \"#utility.yul\":7587:7588   */\n      0x00\n        /* \"#utility.yul\":7579:7585   */\n      dup3\n        /* \"#utility.yul\":7575:7589   */\n      add\n        /* \"#utility.yul\":7568:7626   */\n      mstore\n        /* \"#utility.yul\":7660:7669   */\n      0x756e6374696f6e00000000000000000000000000000000000000000000000000\n        /* \"#utility.yul\":7655:7657   */\n      0x20\n        /* \"#utility.yul\":7647:7653   */\n      dup3\n        /* \"#utility.yul\":7643:7658   */\n      add\n        /* \"#utility.yul\":7636:7670   */\n      mstore\n        /* \"#utility.yul\":7451:7677   */\n      pop\n      jump\t// out\n        /* \"#utility.yul\":7683:8049   */\n    tag_122:\n        /* \"#utility.yul\":7825:7828   */\n      0x00\n        /* \"#utility.yul\":7846:7913   */\n      tag_230\n        /* \"#utility.yul\":7910:7912   */\n      0x27\n        /* \"#utility.yul\":7905:7908   */\n      dup4\n        /* \"#utility.yul\":7846:7913   */\n      tag_118\n      jump\t// in\n    tag_230:\n        /* \"#utility.yul\":7839:7913   */\n      swap2\n      pop\n        /* \"#utility.yul\":7922:8015   */\n      tag_231\n        /* \"#utility.yul\":8011:8014   */\n      dup3\n        /* \"#utility.yul\":7922:8015   */\n      tag_121\n      jump\t// in\n    tag_231:\n        /* \"#utility.yul\":8040:8042   */\n      0x40\n        /* \"#utility.yul\":8035:8038   */\n      dup3\n        /* \"#utility.yul\":8031:8043   */\n      add\n        /* \"#utility.yul\":8024:8043   */\n      swap1\n      pop\n        /* \"#utility.yul\":7683:8049   */\n      swap2\n      swap1\n      pop\n      jump\t// out\n        /* \"#utility.yul\":8055:8474   */\n    tag_52:\n        /* \"#utility.yul\":8221:8225   */\n      0x00\n        /* \"#utility.yul\":8259:8261   */\n      0x20\n        /* \"#utility.yul\":8248:8257   */\n      dup3\n        /* \"#utility.yul\":8244:8262   */\n      add\n        /* \"#utility.yul\":8236:8262   */\n      swap1\n      pop\n        /* \"#utility.yul\":8308:8317   */\n      dup2\n        /* \"#utility.yul\":8302:8306   */\n      dup2\n        /* \"#utility.yul\":8298:8318   */\n      sub\n        /* \"#utility.yul\":8294:8295   */\n      0x00\n        /* \"#utility.yul\":8283:8292   */\n      dup4\n        /* \"#utility.yul\":8279:8296   */\n      add\n        /* \"#utility.yul\":8272:8319   */\n      mstore\n        /* \"#utility.yul\":8336:8467   */\n      tag_233\n        /* \"#utility.yul\":8462:8466   */\n      dup2\n        /* \"#utility.yul\":8336:8467   */\n      tag_122\n      jump\t// in\n    tag_233:\n        /* \"#utility.yul\":8328:8467   */\n      swap1\n      pop\n        /* \"#utility.yul\":8055:8474   */\n      swap2\n      swap1\n      pop\n      jump\t// out\n        /* \"#utility.yul\":8480:8660   */\n    tag_123:\n        /* \"#utility.yul\":8528:8605   */\n      0x4e487b7100000000000000000000000000000000000000000000000000000000\n        /* \"#utility.yul\":8525:8526   */\n      0x00\n        /* \"#utility.yul\":8518:8606   */\n      mstore\n        /* \"#utility.yul\":8625:8629   */\n      0x11\n        /* \"#utility.yul\":8622:8623   */\n      0x04\n        /* \"#utility.yul\":8615:8630   */\n      mstore\n        /* \"#utility.yul\":8649:8653   */\n      0x24\n        /* \"#utility.yul\":8646:8647   */\n      0x00\n        /* \"#utility.yul\":8639:8654   */\n      revert\n        /* \"#utility.yul\":8666:8971   */\n    tag_54:\n        /* \"#utility.yul\":8706:8709   */\n      0x00\n        /* \"#utility.yul\":8725:8745   */\n      tag_236\n        /* \"#utility.yul\":8743:8744   */\n      dup3\n        /* \"#utility.yul\":8725:8745   */\n      tag_98\n      jump\t// in\n    tag_236:\n        /* \"#utility.yul\":8720:8745   */\n      swap2\n      pop\n        /* \"#utility.yul\":8759:8779   */\n      tag_237\n        /* \"#utility.yul\":8777:8778   */\n      dup4\n        /* \"#utility.yul\":8759:8779   */\n      tag_98\n      jump\t// in\n    tag_237:\n        /* \"#utility.yul\":8754:8779   */\n      swap3\n      pop\n        /* \"#utility.yul\":8913:8914   */\n      dup3\n        /* \"#utility.yul\":8845:8911   */\n      0xffffffffffffffffffffffffffffffffffffffffffffffffffffffffffffffff\n        /* \"#utility.yul\":8841:8915   */\n      sub\n        /* \"#utility.yul\":8838:8839   */\n      dup3\n        /* \"#utility.yul\":8835:8916   */\n      gt\n        /* \"#utility.yul\":8832:8939   */\n      iszero\n      tag_238\n      jumpi\n        /* \"#utility.yul\":8919:8937   */\n      tag_239\n      tag_123\n      jump\t// in\n    tag_239:\n        /* \"#utility.yul\":8832:8939   */\n    tag_238:\n        /* \"#utility.yul\":8963:8964   */\n      dup3\n        /* \"#utility.yul\":8960:8961   */\n      dup3\n        /* \"#utility.yul\":8956:8965   */\n      add\n        /* \"#utility.yul\":8949:8965   */\n      swap1\n      pop\n        /* \"#utility.yul\":8666:8971   */\n      swap3\n      swap2\n      pop\n      pop\n      jump\t// out\n        /* \"#utility.yul\":8977:9056   */\n    tag_124:\n        /* \"#utility.yul\":9016:9023   */\n      0x00\n        /* \"#utility.yul\":9045:9050   */\n      dup2\n        /* \"#utility.yul\":9034:9050   */\n      swap1\n      pop\n        /* \"#utility.yul\":8977:9056   */\n      swap2\n      swap1\n      pop\n      jump\t// out\n        /* \"#utility.yul\":9062:9219   */\n    tag_125:\n        /* \"#utility.yul\":9167:9212   */\n      tag_242\n        /* \"#utility.yul\":9187:9211   */\n      tag_243\n        /* \"#utility.yul\":9205:9210   */\n      dup3\n        /* \"#utility.yul\":9187:9211   */\n      tag_98\n      jump\t// in\n    tag_243:\n        /* \"#utility.yul\":9167:9212   */\n      tag_124\n      jump\t// in\n    tag_242:\n        /* \"#utility.yul\":9162:9165   */\n      dup3\n        /* \"#utility.yul\":9155:9213   */\n      mstore\n        /* \"#utility.yul\":9062:9219   */\n      pop\n      pop\n      jump\t// out\n        /* \"#utility.yul\":9225:9336   */\n    tag_126:\n        /* \"#utility.yul\":9289:9295   */\n      0x00\n        /* \"#utility.yul\":9323:9328   */\n      dup2\n        /* \"#utility.yul\":9317:9329   */\n      sload\n        /* \"#utility.yul\":9307:9329   */\n      swap1\n      pop\n        /* \"#utility.yul\":9225:9336   */\n      swap2\n      swap1\n      pop\n      jump\t// out\n        /* \"#utility.yul\":9342:9505   */\n    tag_127:\n        /* \"#utility.yul\":9459:9470   */\n      0x00\n        /* \"#utility.yul\":9496:9499   */\n      dup2\n        /* \"#utility.yul\":9481:9499   */\n      swap1\n      pop\n        /* \"#utility.yul\":9342:9505   */\n      swap3\n      swap2\n      pop\n      pop\n      jump\t// out\n        /* \"#utility.yul\":9511:9667   */\n    tag_128:\n        /* \"#utility.yul\":9575:9579   */\n      0x00\n        /* \"#utility.yul\":9598:9601   */\n      dup2\n        /* \"#utility.yul\":9590:9601   */\n      swap1\n      pop\n        /* \"#utility.yul\":9621:9624   */\n      dup2\n        /* \"#utility.yul\":9618:9619   */\n      0x00\n        /* \"#utility.yul\":9611:9625   */\n      mstore\n        /* \"#utility.yul\":9655:9659   */\n      0x20\n        /* \"#utility.yul\":9652:9653   */\n      0x00\n        /* \"#utility.yul\":9642:9660   */\n      keccak256\n        /* \"#utility.yul\":9634:9660   */\n      swap1\n      pop\n        /* \"#utility.yul\":9511:9667   */\n      swap2\n      swap1\n      pop\n      jump\t// out\n        /* \"#utility.yul\":9673:9789   */\n    tag_129:\n        /* \"#utility.yul\":9758:9782   */\n      tag_248\n        /* \"#utility.yul\":9776:9781   */\n      dup2\n        /* \"#utility.yul\":9758:9782   */\n      tag_102\n      jump\t// in\n    tag_248:\n        /* \"#utility.yul\":9753:9756   */\n      dup3\n        /* \"#utility.yul\":9746:9783   */\n      mstore\n        /* \"#utility.yul\":9673:9789   */\n      pop\n      pop\n      jump\t// out\n        /* \"#utility.yul\":9795:9990   */\n    tag_130:\n        /* \"#utility.yul\":9872:9882   */\n      0x00\n        /* \"#utility.yul\":9893:9947   */\n      tag_250\n        /* \"#utility.yul\":9943:9946   */\n      dup4\n        /* \"#utility.yul\":9935:9941   */\n      dup4\n        /* \"#utility.yul\":9893:9947   */\n      tag_129\n      jump\t// in\n    tag_250:\n        /* \"#utility.yul\":9979:9983   */\n      0x20\n        /* \"#utility.yul\":9974:9977   */\n      dup4\n        /* \"#utility.yul\":9970:9984   */\n      add\n        /* \"#utility.yul\":9956:9984   */\n      swap1\n      pop\n        /* \"#utility.yul\":9795:9990   */\n      swap3\n      swap2\n      pop\n      pop\n      jump\t// out\n        /* \"#utility.yul\":9996:10098   */\n    tag_131:\n        /* \"#utility.yul\":10038:10046   */\n      0x00\n        /* \"#utility.yul\":10085:10090   */\n      dup2\n        /* \"#utility.yul\":10082:10083   */\n      0x00\n        /* \"#utility.yul\":10078:10091   */\n      shr\n        /* \"#utility.yul\":10057:10091   */\n      swap1\n      pop\n        /* \"#utility.yul\":9996:10098   */\n      swap2\n      swap1\n      pop\n      jump\t// out\n        /* \"#utility.yul\":10104:10243   */\n    tag_132:\n        /* \"#utility.yul\":10154:10161   */\n      0x00\n        /* \"#utility.yul\":10194:10236   */\n      0xffffffffffffffffffffffffffffffffffffffff\n        /* \"#utility.yul\":10187:10192   */\n      dup3\n        /* \"#utility.yul\":10183:10237   */\n      and\n        /* \"#utility.yul\":10172:10237   */\n      swap1\n      pop\n        /* \"#utility.yul\":10104:10243   */\n      swap2\n      swap1\n      pop\n      jump\t// out\n        /* \"#utility.yul\":10249:10415   */\n    tag_133:\n        /* \"#utility.yul\":10318:10323   */\n      0x00\n        /* \"#utility.yul\":10343:10409   */\n      tag_254\n        /* \"#utility.yul\":10374:10408   */\n      tag_255\n        /* \"#utility.yul\":10397:10407   */\n      dup4\n        /* \"#utility.yul\":10374:10408   */\n      tag_131\n      jump\t// in\n    tag_255:\n        /* \"#utility.yul\":10343:10409   */\n      tag_132\n      jump\t// in\n    tag_254:\n        /* \"#utility.yul\":10334:10409   */\n      swap1\n      pop\n        /* \"#utility.yul\":10249:10415   */\n      swap2\n      swap1\n      pop\n      jump\t// out\n        /* \"#utility.yul\":10421:10565   */\n    tag_134:\n        /* \"#utility.yul\":10476:10481   */\n      0x00\n        /* \"#utility.yul\":10501:10558   */\n      tag_257\n        /* \"#utility.yul\":10552:10556   */\n      dup3\n        /* \"#utility.yul\":10546:10557   */\n      sload\n        /* \"#utility.yul\":10501:10558   */\n      tag_133\n      jump\t// in\n    tag_257:\n        /* \"#utility.yul\":10492:10558   */\n      swap1\n      pop\n        /* \"#utility.yul\":10421:10565   */\n      swap2\n      swap1\n      pop\n      jump\t// out\n        /* \"#utility.yul\":10571:10681   */\n    tag_135:\n        /* \"#utility.yul\":10638:10642   */\n      0x00\n        /* \"#utility.yul\":10670:10674   */\n      0x01\n        /* \"#utility.yul\":10665:10668   */\n      dup3\n        /* \"#utility.yul\":10661:10675   */\n      add\n        /* \"#utility.yul\":10653:10675   */\n      swap1\n      pop\n        /* \"#utility.yul\":10571:10681   */\n      swap2\n      swap1\n      pop\n      jump\t// out\n        /* \"#utility.yul\":10717:11512   */\n    tag_136:\n        /* \"#utility.yul\":10851:10854   */\n      0x00\n        /* \"#utility.yul\":10880:10931   */\n      tag_260\n        /* \"#utility.yul\":10925:10930   */\n      dup3\n        /* \"#utility.yul\":10880:10931   */\n      tag_126\n      jump\t// in\n    tag_260:\n        /* \"#utility.yul\":10947:11051   */\n      tag_261\n        /* \"#utility.yul\":11044:11050   */\n      dup2\n        /* \"#utility.yul\":11039:11042   */\n      dup6\n        /* \"#utility.yul\":10947:11051   */\n      tag_127\n      jump\t// in\n    tag_261:\n        /* \"#utility.yul\":10940:11051   */\n      swap4\n      pop\n        /* \"#utility.yul\":11075:11128   */\n      tag_262\n        /* \"#utility.yul\":11122:11127   */\n      dup4\n        /* \"#utility.yul\":11075:11128   */\n      tag_128\n      jump\t// in\n    tag_262:\n        /* \"#utility.yul\":11151:11158   */\n      dup1\n        /* \"#utility.yul\":11182:11183   */\n      0x00\n        /* \"#utility.yul\":11167:11487   */\n    tag_263:\n        /* \"#utility.yul\":11192:11198   */\n      dup4\n        /* \"#utility.yul\":11189:11190   */\n      dup2\n        /* \"#utility.yul\":11186:11199   */\n      lt\n        /* \"#utility.yul\":11167:11487   */\n      iszero\n      tag_265\n      jumpi\n        /* \"#utility.yul\":11262:11306   */\n      tag_266\n        /* \"#utility.yul\":11299:11305   */\n      dup3\n        /* \"#utility.yul\":11262:11306   */\n      tag_134\n      jump\t// in\n    tag_266:\n        /* \"#utility.yul\":11326:11397   */\n      tag_267\n        /* \"#utility.yul\":11393:11396   */\n      dup9\n        /* \"#utility.yul\":11378:11391   */\n      dup3\n        /* \"#utility.yul\":11326:11397   */\n      tag_130\n      jump\t// in\n    tag_267:\n        /* \"#utility.yul\":11319:11397   */\n      swap8\n      pop\n        /* \"#utility.yul\":11420:11477   */\n      tag_268\n        /* \"#utility.yul\":11470:11476   */\n      dup4\n        /* \"#utility.yul\":11420:11477   */\n      tag_135\n      jump\t// in\n    tag_268:\n        /* \"#utility.yul\":11410:11477   */\n      swap3\n      pop\n        /* \"#utility.yul\":11227:11487   */\n      pop\n        /* \"#utility.yul\":11214:11215   */\n      0x01\n        /* \"#utility.yul\":11211:11212   */\n      dup2\n        /* \"#utility.yul\":11207:11216   */\n      add\n        /* \"#utility.yul\":11202:11216   */\n      swap1\n      pop\n        /* \"#utility.yul\":11167:11487   */\n      jump(tag_263)\n    tag_265:\n        /* \"#utility.yul\":11171:11185   */\n      pop\n        /* \"#utility.yul\":11503:11506   */\n      dup6\n        /* \"#utility.yul\":11496:11506   */\n      swap4\n      pop\n        /* \"#utility.yul\":10856:11512   */\n      pop\n      pop\n      pop\n        /* \"#utility.yul\":10717:11512   */\n      swap3\n      swap2\n      pop\n      pop\n      jump\t// out\n        /* \"#utility.yul\":11518:12129   */\n    tag_59:\n        /* \"#utility.yul\":11733:11736   */\n      0x00\n        /* \"#utility.yul\":11748:11823   */\n      tag_270\n        /* \"#utility.yul\":11819:11822   */\n      dup3\n        /* \"#utility.yul\":11810:11816   */\n      dup7\n        /* \"#utility.yul\":11748:11823   */\n      tag_125\n      jump\t// in\n    tag_270:\n        /* \"#utility.yul\":11848:11850   */\n      0x20\n        /* \"#utility.yul\":11843:11846   */\n      dup3\n        /* \"#utility.yul\":11839:11851   */\n      add\n        /* \"#utility.yul\":11832:11851   */\n      swap2\n      pop\n        /* \"#utility.yul\":11861:11936   */\n      tag_271\n        /* \"#utility.yul\":11932:11935   */\n      dup3\n        /* \"#utility.yul\":11923:11929   */\n      dup6\n        /* \"#utility.yul\":11861:11936   */\n      tag_125\n      jump\t// in\n    tag_271:\n        /* \"#utility.yul\":11961:11963   */\n      0x20\n        /* \"#utility.yul\":11956:11959   */\n      dup3\n        /* \"#utility.yul\":11952:11964   */\n      add\n        /* \"#utility.yul\":11945:11964   */\n      swap2\n      pop\n        /* \"#utility.yul\":11981:12103   */\n      tag_272\n        /* \"#utility.yul\":12099:12102   */\n      dup3\n        /* \"#utility.yul\":12090:12096   */\n      dup5\n        /* \"#utility.yul\":11981:12103   */\n      tag_136\n      jump\t// in\n    tag_272:\n        /* \"#utility.yul\":11974:12103   */\n      swap2\n      pop\n        /* \"#utility.yul\":12120:12123   */\n      dup2\n        /* \"#utility.yul\":12113:12123   */\n      swap1\n      pop\n        /* \"#utility.yul\":11518:12129   */\n      swap5\n      swap4\n      pop\n      pop\n      pop\n      pop\n      jump\t// out\n        /* \"#utility.yul\":12135:12315   */\n    tag_137:\n        /* \"#utility.yul\":12183:12260   */\n      0x4e487b7100000000000000000000000000000000000000000000000000000000\n        /* \"#utility.yul\":12180:12181   */\n      0x00\n        /* \"#utility.yul\":12173:12261   */\n      mstore\n        /* \"#utility.yul\":12280:12284   */\n      0x12\n        /* \"#utility.yul\":12277:12278   */\n      0x04\n        /* \"#utility.yul\":12270:12285   */\n      mstore\n        /* \"#utility.yul\":12304:12308   */\n      0x24\n        /* \"#utility.yul\":12301:12302   */\n      0x00\n        /* \"#utility.yul\":12294:12309   */\n      revert\n        /* \"#utility.yul\":12321:12497   */\n    tag_61:\n        /* \"#utility.yul\":12353:12354   */\n      0x00\n        /* \"#utility.yul\":12370:12390   */\n      tag_275\n        /* \"#utility.yul\":12388:12389   */\n      dup3\n        /* \"#utility.yul\":12370:12390   */\n      tag_98\n      jump\t// in\n    tag_275:\n        /* \"#utility.yul\":12365:12390   */\n      swap2\n      pop\n        /* \"#utility.yul\":12404:12424   */\n      tag_276\n        /* \"#utility.yul\":12422:12423   */\n      dup4\n        /* \"#utility.yul\":12404:12424   */\n      tag_98\n      jump\t// in\n    tag_276:\n        /* \"#utility.yul\":12399:12424   */\n      swap3\n      pop\n        /* \"#utility.yul\":12443:12444   */\n      dup3\n        /* \"#utility.yul\":12433:12468   */\n      tag_277\n      jumpi\n        /* \"#utility.yul\":12448:12466   */\n      tag_278\n      tag_137\n      jump\t// in\n    tag_278:\n        /* \"#utility.yul\":12433:12468   */\n    tag_277:\n        /* \"#utility.yul\":12489:12490   */\n      dup3\n        /* \"#utility.yul\":12486:12487   */\n      dup3\n        /* \"#utility.yul\":12482:12491   */\n      mod\n        /* \"#utility.yul\":12477:12491   */\n      swap1\n      pop\n        /* \"#utility.yul\":12321:12497   */\n      swap3\n      swap2\n      pop\n      pop\n      jump\t// out\n        /* \"#utility.yul\":12503:12672   */\n    tag_138:\n        /* \"#utility.yul\":12643:12664   */\n      0x73656564206973206e6f74207965742073657400000000000000000000000000\n        /* \"#utility.yul\":12639:12640   */\n      0x00\n        /* \"#utility.yul\":12631:12637   */\n      dup3\n        /* \"#utility.yul\":12627:12641   */\n      add\n        /* \"#utility.yul\":12620:12665   */\n      mstore\n        /* \"#utility.yul\":12503:12672   */\n      pop\n      jump\t// out\n        /* \"#utility.yul\":12678:13044   */\n    tag_139:\n        /* \"#utility.yul\":12820:12823   */\n      0x00\n        /* \"#utility.yul\":12841:12908   */\n      tag_281\n        /* \"#utility.yul\":12905:12907   */\n      0x13\n        /* \"#utility.yul\":12900:12903   */\n      dup4\n        /* \"#utility.yul\":12841:12908   */\n      tag_118\n      jump\t// in\n    tag_281:\n        /* \"#utility.yul\":12834:12908   */\n      swap2\n      pop\n        /* \"#utility.yul\":12917:13010   */\n      tag_282\n        /* \"#utility.yul\":13006:13009   */\n      dup3\n        /* \"#utility.yul\":12917:13010   */\n      tag_138\n      jump\t// in\n    tag_282:\n        /* \"#utility.yul\":13035:13037   */\n      0x20\n        /* \"#utility.yul\":13030:13033   */\n      dup3\n        /* \"#utility.yul\":13026:13038   */\n      add\n        /* \"#utility.yul\":13019:13038   */\n      swap1\n      pop\n        /* \"#utility.yul\":12678:13044   */\n      swap2\n      swap1\n      pop\n      jump\t// out\n        /* \"#utility.yul\":13050:13469   */\n    tag_65:\n        /* \"#utility.yul\":13216:13220   */\n      0x00\n        /* \"#utility.yul\":13254:13256   */\n      0x20\n        /* \"#utility.yul\":13243:13252   */\n      dup3\n        /* \"#utility.yul\":13239:13257   */\n      add\n        /* \"#utility.yul\":13231:13257   */\n      swap1\n      pop\n        /* \"#utility.yul\":13303:13312   */\n      dup2\n        /* \"#utility.yul\":13297:13301   */\n      dup2\n        /* \"#utility.yul\":13293:13313   */\n      sub\n        /* \"#utility.yul\":13289:13290   */\n      0x00\n        /* \"#utility.yul\":13278:13287   */\n      dup4\n        /* \"#utility.yul\":13274:13291   */\n      add\n        /* \"#utility.yul\":13267:13314   */\n      mstore\n        /* \"#utility.yul\":13331:13462   */\n      tag_284\n        /* \"#utility.yul\":13457:13461   */\n      dup2\n        /* \"#utility.yul\":13331:13462   */\n      tag_139\n      jump\t// in\n    tag_284:\n        /* \"#utility.yul\":13323:13462   */\n      swap1\n      pop\n        /* \"#utility.yul\":13050:13469   */\n      swap2\n      swap1\n      pop\n      jump\t// out\n        /* \"#utility.yul\":13475:13653   */\n    tag_140:\n        /* \"#utility.yul\":13615:13645   */\n      0x646f6e6174696f6e7320617265206e6f7420636c6f7365642079657400000000\n        /* \"#utility.yul\":13611:13612   */\n      0x00\n        /* \"#utility.yul\":13603:13609   */\n      dup3\n        /* \"#utility.yul\":13599:13613   */\n      add\n        /* \"#utility.yul\":13592:13646   */\n      mstore\n        /* \"#utility.yul\":13475:13653   */\n      pop\n      jump\t// out\n        /* \"#utility.yul\":13659:14025   */\n    tag_141:\n        /* \"#utility.yul\":13801:13804   */\n      0x00\n        /* \"#utility.yul\":13822:13889   */\n      tag_287\n        /* \"#utility.yul\":13886:13888   */\n      0x1c\n        /* \"#utility.yul\":13881:13884   */\n      dup4\n        /* \"#utility.yul\":13822:13889   */\n      tag_118\n      jump\t// in\n    tag_287:\n        /* \"#utility.yul\":13815:13889   */\n      swap2\n      pop\n        /* \"#utility.yul\":13898:13991   */\n      tag_288\n        /* \"#utility.yul\":13987:13990   */\n      dup3\n        /* \"#utility.yul\":13898:13991   */\n      tag_140\n      jump\t// in\n    tag_288:\n        /* \"#utility.yul\":14016:14018   */\n      0x20\n        /* \"#utility.yul\":14011:14014   */\n      dup3\n        /* \"#utility.yul\":14007:14019   */\n      add\n        /* \"#utility.yul\":14000:14019   */\n      swap1\n      pop\n        /* \"#utility.yul\":13659:14025   */\n      swap2\n      swap1\n      pop\n      jump\t// out\n        /* \"#utility.yul\":14031:14450   */\n    tag_68:\n        /* \"#utility.yul\":14197:14201   */\n      0x00\n        /* \"#utility.yul\":14235:14237   */\n      0x20\n        /* \"#utility.yul\":14224:14233   */\n      dup3\n        /* \"#utility.yul\":14220:14238   */\n      add\n        /* \"#utility.yul\":14212:14238   */\n      swap1\n      pop\n        /* \"#utility.yul\":14284:14293   */\n      dup2\n        /* \"#utility.yul\":14278:14282   */\n      dup2\n        /* \"#utility.yul\":14274:14294   */\n      sub\n        /* \"#utility.yul\":14270:14271   */\n      0x00\n        /* \"#utility.yul\":14259:14268   */\n      dup4\n        /* \"#utility.yul\":14255:14272   */\n      add\n        /* \"#utility.yul\":14248:14295   */\n      mstore\n        /* \"#utility.yul\":14312:14443   */\n      tag_290\n        /* \"#utility.yul\":14438:14442   */\n      dup2\n        /* \"#utility.yul\":14312:14443   */\n      tag_141\n      jump\t// in\n    tag_290:\n        /* \"#utility.yul\":14304:14443   */\n      swap1\n      pop\n        /* \"#utility.yul\":14031:14450   */\n      swap2\n      swap1\n      pop\n      jump\t// out\n        /* \"#utility.yul\":14456:14574   */\n    tag_142:\n        /* \"#utility.yul\":14543:14567   */\n      tag_292\n        /* \"#utility.yul\":14561:14566   */\n      dup2\n        /* \"#utility.yul\":14543:14567   */\n      tag_95\n      jump\t// in\n    tag_292:\n        /* \"#utility.yul\":14538:14541   */\n      dup3\n        /* \"#utility.yul\":14531:14568   */\n      mstore\n        /* \"#utility.yul\":14456:14574   */\n      pop\n      pop\n      jump\t// out\n        /* \"#utility.yul\":14580:14912   */\n    tag_71:\n        /* \"#utility.yul\":14701:14705   */\n      0x00\n        /* \"#utility.yul\":14739:14741   */\n      0x40\n        /* \"#utility.yul\":14728:14737   */\n      dup3\n        /* \"#utility.yul\":14724:14742   */\n      add\n        /* \"#utility.yul\":14716:14742   */\n      swap1\n      pop\n        /* \"#utility.yul\":14752:14823   */\n      tag_294\n        /* \"#utility.yul\":14820:14821   */\n      0x00\n        /* \"#utility.yul\":14809:14818   */\n      dup4\n        /* \"#utility.yul\":14805:14822   */\n      add\n        /* \"#utility.yul\":14796:14802   */\n      dup6\n        /* \"#utility.yul\":14752:14823   */\n      tag_103\n      jump\t// in\n    tag_294:\n        /* \"#utility.yul\":14833:14905   */\n      tag_295\n        /* \"#utility.yul\":14901:14903   */\n      0x20\n        /* \"#utility.yul\":14890:14899   */\n      dup4\n        /* \"#utility.yul\":14886:14904   */\n      add\n        /* \"#utility.yul\":14877:14883   */\n      dup5\n        /* \"#utility.yul\":14833:14905   */\n      tag_142\n      jump\t// in\n    tag_295:\n        /* \"#utility.yul\":14580:14912   */\n      swap4\n      swap3\n      pop\n      pop\n      pop\n      jump\t// out\n        /* \"#utility.yul\":14918:15250   */\n    tag_74:\n        /* \"#utility.yul\":15039:15043   */\n      0x00\n        /* \"#utility.yul\":15077:15079   */\n      0x40\n        /* \"#utility.yul\":15066:15075   */\n      dup3\n        /* \"#utility.yul\":15062:15080   */\n      add\n        /* \"#utility.yul\":15054:15080   */\n      swap1\n      pop\n        /* \"#utility.yul\":15090:15161   */\n      tag_297\n        /* \"#utility.yul\":15158:15159   */\n      0x00\n        /* \"#utility.yul\":15147:15156   */\n      dup4\n        /* \"#utility.yul\":15143:15160   */\n      add\n        /* \"#utility.yul\":15134:15140   */\n      dup6\n        /* \"#utility.yul\":15090:15161   */\n      tag_142\n      jump\t// in\n    tag_297:\n        /* \"#utility.yul\":15171:15243   */\n      tag_298\n        /* \"#utility.yul\":15239:15241   */\n      0x20\n        /* \"#utility.yul\":15228:15237   */\n      dup4\n        /* \"#utility.yul\":15224:15242   */\n      add\n        /* \"#utility.yul\":15215:15221   */\n      dup5\n        /* \"#utility.yul\":15171:15243   */\n      tag_142\n      jump\t// in\n    tag_298:\n        /* \"#utility.yul\":14918:15250   */\n      swap4\n      swap3\n      pop\n      pop\n      pop\n      jump\t// out\n        /* \"#utility.yul\":15256:15436   */\n    tag_79:\n        /* \"#utility.yul\":15304:15381   */\n      0x4e487b7100000000000000000000000000000000000000000000000000000000\n        /* \"#utility.yul\":15301:15302   */\n      0x00\n        /* \"#utility.yul\":15294:15382   */\n      mstore\n        /* \"#utility.yul\":15401:15405   */\n      0x32\n        /* \"#utility.yul\":15398:15399   */\n      0x04\n        /* \"#utility.yul\":15391:15406   */\n      mstore\n        /* \"#utility.yul\":15425:15429   */\n      0x24\n        /* \"#utility.yul\":15422:15423   */\n      0x00\n        /* \"#utility.yul\":15415:15430   */\n      revert\n\n    auxdata: 0xa2646970667358221220d0644001d3cc709db0e3664f9fe6b35e503c392d76a65d1f0d81c944b41c350864736f6c634300080d0033\n}\n",
				"bytecode": {
					"linkReferences": {},
					"object": "608060405234801561001057600080fd5b50336000806101000a81548173ffffffffffffffffffffffffffffffffffffffff021916908373ffffffffffffffffffffffffffffffffffffffff1602179055506000600360006101000a81548160ff0219169083151502179055506000600360016101000a81548160ff021916908315150217905550610e62806100966000396000f3fe608060405234801561001057600080fd5b50600436106100885760003560e01c80638e7ea5b21161005b5780638e7ea5b2146101275780639937232114610145578063c129800d14610175578063dedfe223146101a557610088565b8063411145381461008d5780634abfa163146100a95780635ec01e4d146100d9578063701fd0f1146100f7575b600080fd5b6100a760048036038101906100a2919061063e565b6101c3565b005b6100c360048036038101906100be91906106a1565b6102f4565b6040516100d0919061070f565b60405180910390f35b6100e1610333565b6040516100ee9190610739565b60405180910390f35b610111600480360381019061010c919061063e565b610384565b60405161011e9190610739565b60405180910390f35b61012f6104a4565b60405161013c919061070f565b60405180910390f35b61015f600480360381019061015a919061063e565b6104fc565b60405161016c919061076f565b60405180910390f35b61018f600480360381019061018a919061090f565b610507565b60405161019c919061076f565b60405180910390f35b6101ad610529565b6040516101ba919061070f565b60405180910390f35b600360009054906101000a900460ff1615610213576040517f08c379a000000000000000000000000000000000000000000000000000000000815260040161020a906109b5565b60405180910390fd5b60008054906101000a900473ffffffffffffffffffffffffffffffffffffffff1673ffffffffffffffffffffffffffffffffffffffff163373ffffffffffffffffffffffffffffffffffffffff16146102a1576040517f08c379a000000000000000000000000000000000000000000000000000000000815260040161029890610a47565b60405180910390fd5b6001600360016101000a81548160ff021916908315150217905550806002819055506001436102d09190610a96565b6004819055506001600360006101000a81548160ff02191690831515021790555050565b6001818154811061030457600080fd5b906000526020600020016000915054906101000a900473ffffffffffffffffffffffffffffffffffffffff1681565b6000804442600160405160200161034c93929190610c2b565b6040516020818303038152906040528051906020012060001c905060006001805490508261037a9190610c93565b9050809250505090565b6000600360009054906101000a900460ff166103d5576040517f08c379a00000000000000000000000000000000000000000000000000000000081526004016103cc90610d10565b60405180910390fd5b600360019054906101000a900460ff16610424576040517f08c379a000000000000000000000000000000000000000000000000000000000815260040161041b90610d7c565b60405180910390fd5b436004541061043257600080fd5b6002543383604051602001610448929190610dab565b604051602081830303815290604052805190602001201461046857600080fd5b60008260045440604051602001610480929190610dd4565b6040516020818303038152906040528051906020012060001c905080915050919050565b6000806104af610333565b90506000600182815481106104c7576104c6610dfd565b5b9060005260206000200160009054906101000a900473ffffffffffffffffffffffffffffffffffffffff169050809250505090565b600060019050919050565b6000816001908051906020019061051f92919061054d565b5060019050919050565b60008054906101000a900473ffffffffffffffffffffffffffffffffffffffff1681565b8280548282559060005260206000209081019282156105c6579160200282015b828111156105c55782518260006101000a81548173ffffffffffffffffffffffffffffffffffffffff021916908373ffffffffffffffffffffffffffffffffffffffff1602179055509160200191906001019061056d565b5b5090506105d391906105d7565b5090565b5b808211156105f05760008160009055506001016105d8565b5090565b6000604051905090565b600080fd5b600080fd5b6000819050919050565b61061b81610608565b811461062657600080fd5b50565b60008135905061063881610612565b92915050565b600060208284031215610654576106536105fe565b5b600061066284828501610629565b91505092915050565b6000819050919050565b61067e8161066b565b811461068957600080fd5b50565b60008135905061069b81610675565b92915050565b6000602082840312156106b7576106b66105fe565b5b60006106c58482850161068c565b91505092915050565b600073ffffffffffffffffffffffffffffffffffffffff82169050919050565b60006106f9826106ce565b9050919050565b610709816106ee565b82525050565b60006020820190506107246000830184610700565b92915050565b6107338161066b565b82525050565b600060208201905061074e600083018461072a565b92915050565b60008115159050919050565b61076981610754565b82525050565b60006020820190506107846000830184610760565b92915050565b600080fd5b6000601f19601f8301169050919050565b7f4e487b7100000000000000000000000000000000000000000000000000000000600052604160045260246000fd5b6107d88261078f565b810181811067ffffffffffffffff821117156107f7576107f66107a0565b5b80604052505050565b600061080a6105f4565b905061081682826107cf565b919050565b600067ffffffffffffffff821115610836576108356107a0565b5b602082029050602081019050919050565b600080fd5b610855816106ee565b811461086057600080fd5b50565b6000813590506108728161084c565b92915050565b600061088b6108868461081b565b610800565b905080838252602082019050602084028301858111156108ae576108ad610847565b5b835b818110156108d757806108c38882610863565b8452602084019350506020810190506108b0565b5050509392505050565b600082601f8301126108f6576108f561078a565b5b8135610906848260208601610878565b91505092915050565b600060208284031215610925576109246105fe565b5b600082013567ffffffffffffffff81111561094357610942610603565b5b61094f848285016108e1565b91505092915050565b600082825260208201905092915050565b7f7365656420697320616c72656164792073657400000000000000000000000000600082015250565b600061099f601383610958565b91506109aa82610969565b602082019050919050565b600060208201905081810360008301526109ce81610992565b9050919050565b7f6f6e6c79206d616e61676572706f6f6c2063616e2063616c6c2074686973206660008201527f756e6374696f6e00000000000000000000000000000000000000000000000000602082015250565b6000610a31602783610958565b9150610a3c826109d5565b604082019050919050565b60006020820190508181036000830152610a6081610a24565b9050919050565b7f4e487b7100000000000000000000000000000000000000000000000000000000600052601160045260246000fd5b6000610aa18261066b565b9150610aac8361066b565b9250827fffffffffffffffffffffffffffffffffffffffffffffffffffffffffffffffff03821115610ae157610ae0610a67565b5b828201905092915050565b6000819050919050565b610b07610b028261066b565b610aec565b82525050565b600081549050919050565b600081905092915050565b60008190508160005260206000209050919050565b610b41816106ee565b82525050565b6000610b538383610b38565b60208301905092915050565b60008160001c9050919050565b600073ffffffffffffffffffffffffffffffffffffffff82169050919050565b6000610b9f610b9a83610b5f565b610b6c565b9050919050565b6000610bb28254610b8c565b9050919050565b6000600182019050919050565b6000610bd182610b0d565b610bdb8185610b18565b9350610be683610b23565b8060005b83811015610c1e57610bfb82610ba6565b610c058882610b47565b9750610c1083610bb9565b925050600181019050610bea565b5085935050505092915050565b6000610c378286610af6565b602082019150610c478285610af6565b602082019150610c578284610bc6565b9150819050949350505050565b7f4e487b7100000000000000000000000000000000000000000000000000000000600052601260045260246000fd5b6000610c9e8261066b565b9150610ca98361066b565b925082610cb957610cb8610c64565b5b828206905092915050565b7f73656564206973206e6f74207965742073657400000000000000000000000000600082015250565b6000610cfa601383610958565b9150610d0582610cc4565b602082019050919050565b60006020820190508181036000830152610d2981610ced565b9050919050565b7f646f6e6174696f6e7320617265206e6f7420636c6f7365642079657400000000600082015250565b6000610d66601c83610958565b9150610d7182610d30565b602082019050919050565b60006020820190508181036000830152610d9581610d59565b9050919050565b610da581610608565b82525050565b6000604082019050610dc06000830185610700565b610dcd6020830184610d9c565b9392505050565b6000604082019050610de96000830185610d9c565b610df66020830184610d9c565b9392505050565b7f4e487b7100000000000000000000000000000000000000000000000000000000600052603260045260246000fdfea2646970667358221220d0644001d3cc709db0e3664f9fe6b35e503c392d76a65d1f0d81c944b41c350864736f6c634300080d0033",
					"opcodes": "PUSH1 0x80 PUSH1 0x40 MSTORE CALLVALUE DUP1 ISZERO PUSH2 0x10 JUMPI PUSH1 0x0 DUP1 REVERT JUMPDEST POP CALLER PUSH1 0x0 DUP1 PUSH2 0x100 EXP DUP2 SLOAD DUP2 PUSH20 0xFFFFFFFFFFFFFFFFFFFFFFFFFFFFFFFFFFFFFFFF MUL NOT AND SWAP1 DUP4 PUSH20 0xFFFFFFFFFFFFFFFFFFFFFFFFFFFFFFFFFFFFFFFF AND MUL OR SWAP1 SSTORE POP PUSH1 0x0 PUSH1 0x3 PUSH1 0x0 PUSH2 0x100 EXP DUP2 SLOAD DUP2 PUSH1 0xFF MUL NOT AND SWAP1 DUP4 ISZERO ISZERO MUL OR SWAP1 SSTORE POP PUSH1 0x0 PUSH1 0x3 PUSH1 0x1 PUSH2 0x100 EXP DUP2 SLOAD DUP2 PUSH1 0xFF MUL NOT AND SWAP1 DUP4 ISZERO ISZERO MUL OR SWAP1 SSTORE POP PUSH2 0xE62 DUP1 PUSH2 0x96 PUSH1 0x0 CODECOPY PUSH1 0x0 RETURN INVALID PUSH1 0x80 PUSH1 0x40 MSTORE CALLVALUE DUP1 ISZERO PUSH2 0x10 JUMPI PUSH1 0x0 DUP1 REVERT JUMPDEST POP PUSH1 0x4 CALLDATASIZE LT PUSH2 0x88 JUMPI PUSH1 0x0 CALLDATALOAD PUSH1 0xE0 SHR DUP1 PUSH4 0x8E7EA5B2 GT PUSH2 0x5B JUMPI DUP1 PUSH4 0x8E7EA5B2 EQ PUSH2 0x127 JUMPI DUP1 PUSH4 0x99372321 EQ PUSH2 0x145 JUMPI DUP1 PUSH4 0xC129800D EQ PUSH2 0x175 JUMPI DUP1 PUSH4 0xDEDFE223 EQ PUSH2 0x1A5 JUMPI PUSH2 0x88 JUMP JUMPDEST DUP1 PUSH4 0x41114538 EQ PUSH2 0x8D JUMPI DUP1 PUSH4 0x4ABFA163 EQ PUSH2 0xA9 JUMPI DUP1 PUSH4 0x5EC01E4D EQ PUSH2 0xD9 JUMPI DUP1 PUSH4 0x701FD0F1 EQ PUSH2 0xF7 JUMPI JUMPDEST PUSH1 0x0 DUP1 REVERT JUMPDEST PUSH2 0xA7 PUSH1 0x4 DUP1 CALLDATASIZE SUB DUP2 ADD SWAP1 PUSH2 0xA2 SWAP2 SWAP1 PUSH2 0x63E JUMP JUMPDEST PUSH2 0x1C3 JUMP JUMPDEST STOP JUMPDEST PUSH2 0xC3 PUSH1 0x4 DUP1 CALLDATASIZE SUB DUP2 ADD SWAP1 PUSH2 0xBE SWAP2 SWAP1 PUSH2 0x6A1 JUMP JUMPDEST PUSH2 0x2F4 JUMP JUMPDEST PUSH1 0x40 MLOAD PUSH2 0xD0 SWAP2 SWAP1 PUSH2 0x70F JUMP JUMPDEST PUSH1 0x40 MLOAD DUP1 SWAP2 SUB SWAP1 RETURN JUMPDEST PUSH2 0xE1 PUSH2 0x333 JUMP JUMPDEST PUSH1 0x40 MLOAD PUSH2 0xEE SWAP2 SWAP1 PUSH2 0x739 JUMP JUMPDEST PUSH1 0x40 MLOAD DUP1 SWAP2 SUB SWAP1 RETURN JUMPDEST PUSH2 0x111 PUSH1 0x4 DUP1 CALLDATASIZE SUB DUP2 ADD SWAP1 PUSH2 0x10C SWAP2 SWAP1 PUSH2 0x63E JUMP JUMPDEST PUSH2 0x384 JUMP JUMPDEST PUSH1 0x40 MLOAD PUSH2 0x11E SWAP2 SWAP1 PUSH2 0x739 JUMP JUMPDEST PUSH1 0x40 MLOAD DUP1 SWAP2 SUB SWAP1 RETURN JUMPDEST PUSH2 0x12F PUSH2 0x4A4 JUMP JUMPDEST PUSH1 0x40 MLOAD PUSH2 0x13C SWAP2 SWAP1 PUSH2 0x70F JUMP JUMPDEST PUSH1 0x40 MLOAD DUP1 SWAP2 SUB SWAP1 RETURN JUMPDEST PUSH2 0x15F PUSH1 0x4 DUP1 CALLDATASIZE SUB DUP2 ADD SWAP1 PUSH2 0x15A SWAP2 SWAP1 PUSH2 0x63E JUMP JUMPDEST PUSH2 0x4FC JUMP JUMPDEST PUSH1 0x40 MLOAD PUSH2 0x16C SWAP2 SWAP1 PUSH2 0x76F JUMP JUMPDEST PUSH1 0x40 MLOAD DUP1 SWAP2 SUB SWAP1 RETURN JUMPDEST PUSH2 0x18F PUSH1 0x4 DUP1 CALLDATASIZE SUB DUP2 ADD SWAP1 PUSH2 0x18A SWAP2 SWAP1 PUSH2 0x90F JUMP JUMPDEST PUSH2 0x507 JUMP JUMPDEST PUSH1 0x40 MLOAD PUSH2 0x19C SWAP2 SWAP1 PUSH2 0x76F JUMP JUMPDEST PUSH1 0x40 MLOAD DUP1 SWAP2 SUB SWAP1 RETURN JUMPDEST PUSH2 0x1AD PUSH2 0x529 JUMP JUMPDEST PUSH1 0x40 MLOAD PUSH2 0x1BA SWAP2 SWAP1 PUSH2 0x70F JUMP JUMPDEST PUSH1 0x40 MLOAD DUP1 SWAP2 SUB SWAP1 RETURN JUMPDEST PUSH1 0x3 PUSH1 0x0 SWAP1 SLOAD SWAP1 PUSH2 0x100 EXP SWAP1 DIV PUSH1 0xFF AND ISZERO PUSH2 0x213 JUMPI PUSH1 0x40 MLOAD PUSH32 0x8C379A000000000000000000000000000000000000000000000000000000000 DUP2 MSTORE PUSH1 0x4 ADD PUSH2 0x20A SWAP1 PUSH2 0x9B5 JUMP JUMPDEST PUSH1 0x40 MLOAD DUP1 SWAP2 SUB SWAP1 REVERT JUMPDEST PUSH1 0x0 DUP1 SLOAD SWAP1 PUSH2 0x100 EXP SWAP1 DIV PUSH20 0xFFFFFFFFFFFFFFFFFFFFFFFFFFFFFFFFFFFFFFFF AND PUSH20 0xFFFFFFFFFFFFFFFFFFFFFFFFFFFFFFFFFFFFFFFF AND CALLER PUSH20 0xFFFFFFFFFFFFFFFFFFFFFFFFFFFFFFFFFFFFFFFF AND EQ PUSH2 0x2A1 JUMPI PUSH1 0x40 MLOAD PUSH32 0x8C379A000000000000000000000000000000000000000000000000000000000 DUP2 MSTORE PUSH1 0x4 ADD PUSH2 0x298 SWAP1 PUSH2 0xA47 JUMP JUMPDEST PUSH1 0x40 MLOAD DUP1 SWAP2 SUB SWAP1 REVERT JUMPDEST PUSH1 0x1 PUSH1 0x3 PUSH1 0x1 PUSH2 0x100 EXP DUP2 SLOAD DUP2 PUSH1 0xFF MUL NOT AND SWAP1 DUP4 ISZERO ISZERO MUL OR SWAP1 SSTORE POP DUP1 PUSH1 0x2 DUP2 SWAP1 SSTORE POP PUSH1 0x1 NUMBER PUSH2 0x2D0 SWAP2 SWAP1 PUSH2 0xA96 JUMP JUMPDEST PUSH1 0x4 DUP2 SWAP1 SSTORE POP PUSH1 0x1 PUSH1 0x3 PUSH1 0x0 PUSH2 0x100 EXP DUP2 SLOAD DUP2 PUSH1 0xFF MUL NOT AND SWAP1 DUP4 ISZERO ISZERO MUL OR SWAP1 SSTORE POP POP JUMP JUMPDEST PUSH1 0x1 DUP2 DUP2 SLOAD DUP2 LT PUSH2 0x304 JUMPI PUSH1 0x0 DUP1 REVERT JUMPDEST SWAP1 PUSH1 0x0 MSTORE PUSH1 0x20 PUSH1 0x0 KECCAK256 ADD PUSH1 0x0 SWAP2 POP SLOAD SWAP1 PUSH2 0x100 EXP SWAP1 DIV PUSH20 0xFFFFFFFFFFFFFFFFFFFFFFFFFFFFFFFFFFFFFFFF AND DUP2 JUMP JUMPDEST PUSH1 0x0 DUP1 DIFFICULTY TIMESTAMP PUSH1 0x1 PUSH1 0x40 MLOAD PUSH1 0x20 ADD PUSH2 0x34C SWAP4 SWAP3 SWAP2 SWAP1 PUSH2 0xC2B JUMP JUMPDEST PUSH1 0x40 MLOAD PUSH1 0x20 DUP2 DUP4 SUB SUB DUP2 MSTORE SWAP1 PUSH1 0x40 MSTORE DUP1 MLOAD SWAP1 PUSH1 0x20 ADD KECCAK256 PUSH1 0x0 SHR SWAP1 POP PUSH1 0x0 PUSH1 0x1 DUP1 SLOAD SWAP1 POP DUP3 PUSH2 0x37A SWAP2 SWAP1 PUSH2 0xC93 JUMP JUMPDEST SWAP1 POP DUP1 SWAP3 POP POP POP SWAP1 JUMP JUMPDEST PUSH1 0x0 PUSH1 0x3 PUSH1 0x0 SWAP1 SLOAD SWAP1 PUSH2 0x100 EXP SWAP1 DIV PUSH1 0xFF AND PUSH2 0x3D5 JUMPI PUSH1 0x40 MLOAD PUSH32 0x8C379A000000000000000000000000000000000000000000000000000000000 DUP2 MSTORE PUSH1 0x4 ADD PUSH2 0x3CC SWAP1 PUSH2 0xD10 JUMP JUMPDEST PUSH1 0x40 MLOAD DUP1 SWAP2 SUB SWAP1 REVERT JUMPDEST PUSH1 0x3 PUSH1 0x1 SWAP1 SLOAD SWAP1 PUSH2 0x100 EXP SWAP1 DIV PUSH1 0xFF AND PUSH2 0x424 JUMPI PUSH1 0x40 MLOAD PUSH32 0x8C379A000000000000000000000000000000000000000000000000000000000 DUP2 MSTORE PUSH1 0x4 ADD PUSH2 0x41B SWAP1 PUSH2 0xD7C JUMP JUMPDEST PUSH1 0x40 MLOAD DUP1 SWAP2 SUB SWAP1 REVERT JUMPDEST NUMBER PUSH1 0x4 SLOAD LT PUSH2 0x432 JUMPI PUSH1 0x0 DUP1 REVERT JUMPDEST PUSH1 0x2 SLOAD CALLER DUP4 PUSH1 0x40 MLOAD PUSH1 0x20 ADD PUSH2 0x448 SWAP3 SWAP2 SWAP1 PUSH2 0xDAB JUMP JUMPDEST PUSH1 0x40 MLOAD PUSH1 0x20 DUP2 DUP4 SUB SUB DUP2 MSTORE SWAP1 PUSH1 0x40 MSTORE DUP1 MLOAD SWAP1 PUSH1 0x20 ADD KECCAK256 EQ PUSH2 0x468 JUMPI PUSH1 0x0 DUP1 REVERT JUMPDEST PUSH1 0x0 DUP3 PUSH1 0x4 SLOAD BLOCKHASH PUSH1 0x40 MLOAD PUSH1 0x20 ADD PUSH2 0x480 SWAP3 SWAP2 SWAP1 PUSH2 0xDD4 JUMP JUMPDEST PUSH1 0x40 MLOAD PUSH1 0x20 DUP2 DUP4 SUB SUB DUP2 MSTORE SWAP1 PUSH1 0x40 MSTORE DUP1 MLOAD SWAP1 PUSH1 0x20 ADD KECCAK256 PUSH1 0x0 SHR SWAP1 POP DUP1 SWAP2 POP POP SWAP2 SWAP1 POP JUMP JUMPDEST PUSH1 0x0 DUP1 PUSH2 0x4AF PUSH2 0x333 JUMP JUMPDEST SWAP1 POP PUSH1 0x0 PUSH1 0x1 DUP3 DUP2 SLOAD DUP2 LT PUSH2 0x4C7 JUMPI PUSH2 0x4C6 PUSH2 0xDFD JUMP JUMPDEST JUMPDEST SWAP1 PUSH1 0x0 MSTORE PUSH1 0x20 PUSH1 0x0 KECCAK256 ADD PUSH1 0x0 SWAP1 SLOAD SWAP1 PUSH2 0x100 EXP SWAP1 DIV PUSH20 0xFFFFFFFFFFFFFFFFFFFFFFFFFFFFFFFFFFFFFFFF AND SWAP1 POP DUP1 SWAP3 POP POP POP SWAP1 JUMP JUMPDEST PUSH1 0x0 PUSH1 0x1 SWAP1 POP SWAP2 SWAP1 POP JUMP JUMPDEST PUSH1 0x0 DUP2 PUSH1 0x1 SWAP1 DUP1 MLOAD SWAP1 PUSH1 0x20 ADD SWAP1 PUSH2 0x51F SWAP3 SWAP2 SWAP1 PUSH2 0x54D JUMP JUMPDEST POP PUSH1 0x1 SWAP1 POP SWAP2 SWAP1 POP JUMP JUMPDEST PUSH1 0x0 DUP1 SLOAD SWAP1 PUSH2 0x100 EXP SWAP1 DIV PUSH20 0xFFFFFFFFFFFFFFFFFFFFFFFFFFFFFFFFFFFFFFFF AND DUP2 JUMP JUMPDEST DUP3 DUP1 SLOAD DUP3 DUP3 SSTORE SWAP1 PUSH1 0x0 MSTORE PUSH1 0x20 PUSH1 0x0 KECCAK256 SWAP1 DUP2 ADD SWAP3 DUP3 ISZERO PUSH2 0x5C6 JUMPI SWAP2 PUSH1 0x20 MUL DUP3 ADD JUMPDEST DUP3 DUP2 GT ISZERO PUSH2 0x5C5 JUMPI DUP3 MLOAD DUP3 PUSH1 0x0 PUSH2 0x100 EXP DUP2 SLOAD DUP2 PUSH20 0xFFFFFFFFFFFFFFFFFFFFFFFFFFFFFFFFFFFFFFFF MUL NOT AND SWAP1 DUP4 PUSH20 0xFFFFFFFFFFFFFFFFFFFFFFFFFFFFFFFFFFFFFFFF AND MUL OR SWAP1 SSTORE POP SWAP2 PUSH1 0x20 ADD SWAP2 SWAP1 PUSH1 0x1 ADD SWAP1 PUSH2 0x56D JUMP JUMPDEST JUMPDEST POP SWAP1 POP PUSH2 0x5D3 SWAP2 SWAP1 PUSH2 0x5D7 JUMP JUMPDEST POP SWAP1 JUMP JUMPDEST JUMPDEST DUP1 DUP3 GT ISZERO PUSH2 0x5F0 JUMPI PUSH1 0x0 DUP2 PUSH1 0x0 SWAP1 SSTORE POP PUSH1 0x1 ADD PUSH2 0x5D8 JUMP JUMPDEST POP SWAP1 JUMP JUMPDEST PUSH1 0x0 PUSH1 0x40 MLOAD SWAP1 POP SWAP1 JUMP JUMPDEST PUSH1 0x0 DUP1 REVERT JUMPDEST PUSH1 0x0 DUP1 REVERT JUMPDEST PUSH1 0x0 DUP2 SWAP1 POP SWAP2 SWAP1 POP JUMP JUMPDEST PUSH2 0x61B DUP2 PUSH2 0x608 JUMP JUMPDEST DUP2 EQ PUSH2 0x626 JUMPI PUSH1 0x0 DUP1 REVERT JUMPDEST POP JUMP JUMPDEST PUSH1 0x0 DUP2 CALLDATALOAD SWAP1 POP PUSH2 0x638 DUP2 PUSH2 0x612 JUMP JUMPDEST SWAP3 SWAP2 POP POP JUMP JUMPDEST PUSH1 0x0 PUSH1 0x20 DUP3 DUP5 SUB SLT ISZERO PUSH2 0x654 JUMPI PUSH2 0x653 PUSH2 0x5FE JUMP JUMPDEST JUMPDEST PUSH1 0x0 PUSH2 0x662 DUP5 DUP3 DUP6 ADD PUSH2 0x629 JUMP JUMPDEST SWAP2 POP POP SWAP3 SWAP2 POP POP JUMP JUMPDEST PUSH1 0x0 DUP2 SWAP1 POP SWAP2 SWAP1 POP JUMP JUMPDEST PUSH2 0x67E DUP2 PUSH2 0x66B JUMP JUMPDEST DUP2 EQ PUSH2 0x689 JUMPI PUSH1 0x0 DUP1 REVERT JUMPDEST POP JUMP JUMPDEST PUSH1 0x0 DUP2 CALLDATALOAD SWAP1 POP PUSH2 0x69B DUP2 PUSH2 0x675 JUMP JUMPDEST SWAP3 SWAP2 POP POP JUMP JUMPDEST PUSH1 0x0 PUSH1 0x20 DUP3 DUP5 SUB SLT ISZERO PUSH2 0x6B7 JUMPI PUSH2 0x6B6 PUSH2 0x5FE JUMP JUMPDEST JUMPDEST PUSH1 0x0 PUSH2 0x6C5 DUP5 DUP3 DUP6 ADD PUSH2 0x68C JUMP JUMPDEST SWAP2 POP POP SWAP3 SWAP2 POP POP JUMP JUMPDEST PUSH1 0x0 PUSH20 0xFFFFFFFFFFFFFFFFFFFFFFFFFFFFFFFFFFFFFFFF DUP3 AND SWAP1 POP SWAP2 SWAP1 POP JUMP JUMPDEST PUSH1 0x0 PUSH2 0x6F9 DUP3 PUSH2 0x6CE JUMP JUMPDEST SWAP1 POP SWAP2 SWAP1 POP JUMP JUMPDEST PUSH2 0x709 DUP2 PUSH2 0x6EE JUMP JUMPDEST DUP3 MSTORE POP POP JUMP JUMPDEST PUSH1 0x0 PUSH1 0x20 DUP3 ADD SWAP1 POP PUSH2 0x724 PUSH1 0x0 DUP4 ADD DUP5 PUSH2 0x700 JUMP JUMPDEST SWAP3 SWAP2 POP POP JUMP JUMPDEST PUSH2 0x733 DUP2 PUSH2 0x66B JUMP JUMPDEST DUP3 MSTORE POP POP JUMP JUMPDEST PUSH1 0x0 PUSH1 0x20 DUP3 ADD SWAP1 POP PUSH2 0x74E PUSH1 0x0 DUP4 ADD DUP5 PUSH2 0x72A JUMP JUMPDEST SWAP3 SWAP2 POP POP JUMP JUMPDEST PUSH1 0x0 DUP2 ISZERO ISZERO SWAP1 POP SWAP2 SWAP1 POP JUMP JUMPDEST PUSH2 0x769 DUP2 PUSH2 0x754 JUMP JUMPDEST DUP3 MSTORE POP POP JUMP JUMPDEST PUSH1 0x0 PUSH1 0x20 DUP3 ADD SWAP1 POP PUSH2 0x784 PUSH1 0x0 DUP4 ADD DUP5 PUSH2 0x760 JUMP JUMPDEST SWAP3 SWAP2 POP POP JUMP JUMPDEST PUSH1 0x0 DUP1 REVERT JUMPDEST PUSH1 0x0 PUSH1 0x1F NOT PUSH1 0x1F DUP4 ADD AND SWAP1 POP SWAP2 SWAP1 POP JUMP JUMPDEST PUSH32 0x4E487B7100000000000000000000000000000000000000000000000000000000 PUSH1 0x0 MSTORE PUSH1 0x41 PUSH1 0x4 MSTORE PUSH1 0x24 PUSH1 0x0 REVERT JUMPDEST PUSH2 0x7D8 DUP3 PUSH2 0x78F JUMP JUMPDEST DUP2 ADD DUP2 DUP2 LT PUSH8 0xFFFFFFFFFFFFFFFF DUP3 GT OR ISZERO PUSH2 0x7F7 JUMPI PUSH2 0x7F6 PUSH2 0x7A0 JUMP JUMPDEST JUMPDEST DUP1 PUSH1 0x40 MSTORE POP POP POP JUMP JUMPDEST PUSH1 0x0 PUSH2 0x80A PUSH2 0x5F4 JUMP JUMPDEST SWAP1 POP PUSH2 0x816 DUP3 DUP3 PUSH2 0x7CF JUMP JUMPDEST SWAP2 SWAP1 POP JUMP JUMPDEST PUSH1 0x0 PUSH8 0xFFFFFFFFFFFFFFFF DUP3 GT ISZERO PUSH2 0x836 JUMPI PUSH2 0x835 PUSH2 0x7A0 JUMP JUMPDEST JUMPDEST PUSH1 0x20 DUP3 MUL SWAP1 POP PUSH1 0x20 DUP2 ADD SWAP1 POP SWAP2 SWAP1 POP JUMP JUMPDEST PUSH1 0x0 DUP1 REVERT JUMPDEST PUSH2 0x855 DUP2 PUSH2 0x6EE JUMP JUMPDEST DUP2 EQ PUSH2 0x860 JUMPI PUSH1 0x0 DUP1 REVERT JUMPDEST POP JUMP JUMPDEST PUSH1 0x0 DUP2 CALLDATALOAD SWAP1 POP PUSH2 0x872 DUP2 PUSH2 0x84C JUMP JUMPDEST SWAP3 SWAP2 POP POP JUMP JUMPDEST PUSH1 0x0 PUSH2 0x88B PUSH2 0x886 DUP5 PUSH2 0x81B JUMP JUMPDEST PUSH2 0x800 JUMP JUMPDEST SWAP1 POP DUP1 DUP4 DUP3 MSTORE PUSH1 0x20 DUP3 ADD SWAP1 POP PUSH1 0x20 DUP5 MUL DUP4 ADD DUP6 DUP2 GT ISZERO PUSH2 0x8AE JUMPI PUSH2 0x8AD PUSH2 0x847 JUMP JUMPDEST JUMPDEST DUP4 JUMPDEST DUP2 DUP2 LT ISZERO PUSH2 0x8D7 JUMPI DUP1 PUSH2 0x8C3 DUP9 DUP3 PUSH2 0x863 JUMP JUMPDEST DUP5 MSTORE PUSH1 0x20 DUP5 ADD SWAP4 POP POP PUSH1 0x20 DUP2 ADD SWAP1 POP PUSH2 0x8B0 JUMP JUMPDEST POP POP POP SWAP4 SWAP3 POP POP POP JUMP JUMPDEST PUSH1 0x0 DUP3 PUSH1 0x1F DUP4 ADD SLT PUSH2 0x8F6 JUMPI PUSH2 0x8F5 PUSH2 0x78A JUMP JUMPDEST JUMPDEST DUP2 CALLDATALOAD PUSH2 0x906 DUP5 DUP3 PUSH1 0x20 DUP7 ADD PUSH2 0x878 JUMP JUMPDEST SWAP2 POP POP SWAP3 SWAP2 POP POP JUMP JUMPDEST PUSH1 0x0 PUSH1 0x20 DUP3 DUP5 SUB SLT ISZERO PUSH2 0x925 JUMPI PUSH2 0x924 PUSH2 0x5FE JUMP JUMPDEST JUMPDEST PUSH1 0x0 DUP3 ADD CALLDATALOAD PUSH8 0xFFFFFFFFFFFFFFFF DUP2 GT ISZERO PUSH2 0x943 JUMPI PUSH2 0x942 PUSH2 0x603 JUMP JUMPDEST JUMPDEST PUSH2 0x94F DUP5 DUP3 DUP6 ADD PUSH2 0x8E1 JUMP JUMPDEST SWAP2 POP POP SWAP3 SWAP2 POP POP JUMP JUMPDEST PUSH1 0x0 DUP3 DUP3 MSTORE PUSH1 0x20 DUP3 ADD SWAP1 POP SWAP3 SWAP2 POP POP JUMP JUMPDEST PUSH32 0x7365656420697320616C72656164792073657400000000000000000000000000 PUSH1 0x0 DUP3 ADD MSTORE POP JUMP JUMPDEST PUSH1 0x0 PUSH2 0x99F PUSH1 0x13 DUP4 PUSH2 0x958 JUMP JUMPDEST SWAP2 POP PUSH2 0x9AA DUP3 PUSH2 0x969 JUMP JUMPDEST PUSH1 0x20 DUP3 ADD SWAP1 POP SWAP2 SWAP1 POP JUMP JUMPDEST PUSH1 0x0 PUSH1 0x20 DUP3 ADD SWAP1 POP DUP2 DUP2 SUB PUSH1 0x0 DUP4 ADD MSTORE PUSH2 0x9CE DUP2 PUSH2 0x992 JUMP JUMPDEST SWAP1 POP SWAP2 SWAP1 POP JUMP JUMPDEST PUSH32 0x6F6E6C79206D616E61676572706F6F6C2063616E2063616C6C20746869732066 PUSH1 0x0 DUP3 ADD MSTORE PUSH32 0x756E6374696F6E00000000000000000000000000000000000000000000000000 PUSH1 0x20 DUP3 ADD MSTORE POP JUMP JUMPDEST PUSH1 0x0 PUSH2 0xA31 PUSH1 0x27 DUP4 PUSH2 0x958 JUMP JUMPDEST SWAP2 POP PUSH2 0xA3C DUP3 PUSH2 0x9D5 JUMP JUMPDEST PUSH1 0x40 DUP3 ADD SWAP1 POP SWAP2 SWAP1 POP JUMP JUMPDEST PUSH1 0x0 PUSH1 0x20 DUP3 ADD SWAP1 POP DUP2 DUP2 SUB PUSH1 0x0 DUP4 ADD MSTORE PUSH2 0xA60 DUP2 PUSH2 0xA24 JUMP JUMPDEST SWAP1 POP SWAP2 SWAP1 POP JUMP JUMPDEST PUSH32 0x4E487B7100000000000000000000000000000000000000000000000000000000 PUSH1 0x0 MSTORE PUSH1 0x11 PUSH1 0x4 MSTORE PUSH1 0x24 PUSH1 0x0 REVERT JUMPDEST PUSH1 0x0 PUSH2 0xAA1 DUP3 PUSH2 0x66B JUMP JUMPDEST SWAP2 POP PUSH2 0xAAC DUP4 PUSH2 0x66B JUMP JUMPDEST SWAP3 POP DUP3 PUSH32 0xFFFFFFFFFFFFFFFFFFFFFFFFFFFFFFFFFFFFFFFFFFFFFFFFFFFFFFFFFFFFFFFF SUB DUP3 GT ISZERO PUSH2 0xAE1 JUMPI PUSH2 0xAE0 PUSH2 0xA67 JUMP JUMPDEST JUMPDEST DUP3 DUP3 ADD SWAP1 POP SWAP3 SWAP2 POP POP JUMP JUMPDEST PUSH1 0x0 DUP2 SWAP1 POP SWAP2 SWAP1 POP JUMP JUMPDEST PUSH2 0xB07 PUSH2 0xB02 DUP3 PUSH2 0x66B JUMP JUMPDEST PUSH2 0xAEC JUMP JUMPDEST DUP3 MSTORE POP POP JUMP JUMPDEST PUSH1 0x0 DUP2 SLOAD SWAP1 POP SWAP2 SWAP1 POP JUMP JUMPDEST PUSH1 0x0 DUP2 SWAP1 POP SWAP3 SWAP2 POP POP JUMP JUMPDEST PUSH1 0x0 DUP2 SWAP1 POP DUP2 PUSH1 0x0 MSTORE PUSH1 0x20 PUSH1 0x0 KECCAK256 SWAP1 POP SWAP2 SWAP1 POP JUMP JUMPDEST PUSH2 0xB41 DUP2 PUSH2 0x6EE JUMP JUMPDEST DUP3 MSTORE POP POP JUMP JUMPDEST PUSH1 0x0 PUSH2 0xB53 DUP4 DUP4 PUSH2 0xB38 JUMP JUMPDEST PUSH1 0x20 DUP4 ADD SWAP1 POP SWAP3 SWAP2 POP POP JUMP JUMPDEST PUSH1 0x0 DUP2 PUSH1 0x0 SHR SWAP1 POP SWAP2 SWAP1 POP JUMP JUMPDEST PUSH1 0x0 PUSH20 0xFFFFFFFFFFFFFFFFFFFFFFFFFFFFFFFFFFFFFFFF DUP3 AND SWAP1 POP SWAP2 SWAP1 POP JUMP JUMPDEST PUSH1 0x0 PUSH2 0xB9F PUSH2 0xB9A DUP4 PUSH2 0xB5F JUMP JUMPDEST PUSH2 0xB6C JUMP JUMPDEST SWAP1 POP SWAP2 SWAP1 POP JUMP JUMPDEST PUSH1 0x0 PUSH2 0xBB2 DUP3 SLOAD PUSH2 0xB8C JUMP JUMPDEST SWAP1 POP SWAP2 SWAP1 POP JUMP JUMPDEST PUSH1 0x0 PUSH1 0x1 DUP3 ADD SWAP1 POP SWAP2 SWAP1 POP JUMP JUMPDEST PUSH1 0x0 PUSH2 0xBD1 DUP3 PUSH2 0xB0D JUMP JUMPDEST PUSH2 0xBDB DUP2 DUP6 PUSH2 0xB18 JUMP JUMPDEST SWAP4 POP PUSH2 0xBE6 DUP4 PUSH2 0xB23 JUMP JUMPDEST DUP1 PUSH1 0x0 JUMPDEST DUP4 DUP2 LT ISZERO PUSH2 0xC1E JUMPI PUSH2 0xBFB DUP3 PUSH2 0xBA6 JUMP JUMPDEST PUSH2 0xC05 DUP9 DUP3 PUSH2 0xB47 JUMP JUMPDEST SWAP8 POP PUSH2 0xC10 DUP4 PUSH2 0xBB9 JUMP JUMPDEST SWAP3 POP POP PUSH1 0x1 DUP2 ADD SWAP1 POP PUSH2 0xBEA JUMP JUMPDEST POP DUP6 SWAP4 POP POP POP POP SWAP3 SWAP2 POP POP JUMP JUMPDEST PUSH1 0x0 PUSH2 0xC37 DUP3 DUP7 PUSH2 0xAF6 JUMP JUMPDEST PUSH1 0x20 DUP3 ADD SWAP2 POP PUSH2 0xC47 DUP3 DUP6 PUSH2 0xAF6 JUMP JUMPDEST PUSH1 0x20 DUP3 ADD SWAP2 POP PUSH2 0xC57 DUP3 DUP5 PUSH2 0xBC6 JUMP JUMPDEST SWAP2 POP DUP2 SWAP1 POP SWAP5 SWAP4 POP POP POP POP JUMP JUMPDEST PUSH32 0x4E487B7100000000000000000000000000000000000000000000000000000000 PUSH1 0x0 MSTORE PUSH1 0x12 PUSH1 0x4 MSTORE PUSH1 0x24 PUSH1 0x0 REVERT JUMPDEST PUSH1 0x0 PUSH2 0xC9E DUP3 PUSH2 0x66B JUMP JUMPDEST SWAP2 POP PUSH2 0xCA9 DUP4 PUSH2 0x66B JUMP JUMPDEST SWAP3 POP DUP3 PUSH2 0xCB9 JUMPI PUSH2 0xCB8 PUSH2 0xC64 JUMP JUMPDEST JUMPDEST DUP3 DUP3 MOD SWAP1 POP SWAP3 SWAP2 POP POP JUMP JUMPDEST PUSH32 0x73656564206973206E6F74207965742073657400000000000000000000000000 PUSH1 0x0 DUP3 ADD MSTORE POP JUMP JUMPDEST PUSH1 0x0 PUSH2 0xCFA PUSH1 0x13 DUP4 PUSH2 0x958 JUMP JUMPDEST SWAP2 POP PUSH2 0xD05 DUP3 PUSH2 0xCC4 JUMP JUMPDEST PUSH1 0x20 DUP3 ADD SWAP1 POP SWAP2 SWAP1 POP JUMP JUMPDEST PUSH1 0x0 PUSH1 0x20 DUP3 ADD SWAP1 POP DUP2 DUP2 SUB PUSH1 0x0 DUP4 ADD MSTORE PUSH2 0xD29 DUP2 PUSH2 0xCED JUMP JUMPDEST SWAP1 POP SWAP2 SWAP1 POP JUMP JUMPDEST PUSH32 0x646F6E6174696F6E7320617265206E6F7420636C6F7365642079657400000000 PUSH1 0x0 DUP3 ADD MSTORE POP JUMP JUMPDEST PUSH1 0x0 PUSH2 0xD66 PUSH1 0x1C DUP4 PUSH2 0x958 JUMP JUMPDEST SWAP2 POP PUSH2 0xD71 DUP3 PUSH2 0xD30 JUMP JUMPDEST PUSH1 0x20 DUP3 ADD SWAP1 POP SWAP2 SWAP1 POP JUMP JUMPDEST PUSH1 0x0 PUSH1 0x20 DUP3 ADD SWAP1 POP DUP2 DUP2 SUB PUSH1 0x0 DUP4 ADD MSTORE PUSH2 0xD95 DUP2 PUSH2 0xD59 JUMP JUMPDEST SWAP1 POP SWAP2 SWAP1 POP JUMP JUMPDEST PUSH2 0xDA5 DUP2 PUSH2 0x608 JUMP JUMPDEST DUP3 MSTORE POP POP JUMP JUMPDEST PUSH1 0x0 PUSH1 0x40 DUP3 ADD SWAP1 POP PUSH2 0xDC0 PUSH1 0x0 DUP4 ADD DUP6 PUSH2 0x700 JUMP JUMPDEST PUSH2 0xDCD PUSH1 0x20 DUP4 ADD DUP5 PUSH2 0xD9C JUMP JUMPDEST SWAP4 SWAP3 POP POP POP JUMP JUMPDEST PUSH1 0x0 PUSH1 0x40 DUP3 ADD SWAP1 POP PUSH2 0xDE9 PUSH1 0x0 DUP4 ADD DUP6 PUSH2 0xD9C JUMP JUMPDEST PUSH2 0xDF6 PUSH1 0x20 DUP4 ADD DUP5 PUSH2 0xD9C JUMP JUMPDEST SWAP4 SWAP3 POP POP POP JUMP JUMPDEST PUSH32 0x4E487B7100000000000000000000000000000000000000000000000000000000 PUSH1 0x0 MSTORE PUSH1 0x32 PUSH1 0x4 MSTORE PUSH1 0x24 PUSH1 0x0 REVERT INVALID LOG2 PUSH5 0x6970667358 0x22 SLT KECCAK256 0xD0 PUSH5 0x4001D3CC70 SWAP14 0xB0 0xE3 PUSH7 0x4F9FE6B35E503C CODECOPY 0x2D PUSH23 0xA65D1F0D81C944B41C350864736F6C634300080D003300 "
				},
				"gasEstimates": {
					"creation": {
						"codeDepositCost": "736400",
						"executionCost": "73623",
						"totalCost": "810023"
					},
					"external": {
						"donors(uint256)": "4979",
						"enterLottery(address[])": "infinite",
						"getWinner()": "infinite",
						"managerpool()": "2577",
						"random()": "infinite",
						"reveal(bytes32)": "infinite",
						"setSealedSeed(bytes32)": "infinite",
						"test(bytes32)": "630"
					}
				},
				"methodIdentifiers": {
					"donors(uint256)": "4abfa163",
					"enterLottery(address[])": "c129800d",
					"getWinner()": "8e7ea5b2",
					"managerpool()": "dedfe223",
					"random()": "5ec01e4d",
					"reveal(bytes32)": "701fd0f1",
					"setSealedSeed(bytes32)": "41114538",
					"test(bytes32)": "99372321"
				}
			},
			"storageLayout": {
				"storage": [
					{
						"astId": 22,
						"contract": "contracts/Lottery.sol:Lottery",
						"label": "managerpool",
						"offset": 0,
						"slot": "0",
						"type": "t_address"
					},
					{
						"astId": 25,
						"contract": "contracts/Lottery.sol:Lottery",
						"label": "donors",
						"offset": 0,
						"slot": "1",
						"type": "t_array(t_address)dyn_storage"
					},
					{
						"astId": 27,
						"contract": "contracts/Lottery.sol:Lottery",
						"label": "sealedSeed",
						"offset": 0,
						"slot": "2",
						"type": "t_bytes32"
					},
					{
						"astId": 29,
						"contract": "contracts/Lottery.sol:Lottery",
						"label": "seedSet",
						"offset": 0,
						"slot": "3",
						"type": "t_bool"
					},
					{
						"astId": 31,
						"contract": "contracts/Lottery.sol:Lottery",
						"label": "donationsClosed",
						"offset": 1,
						"slot": "3",
						"type": "t_bool"
					},
					{
						"astId": 33,
						"contract": "contracts/Lottery.sol:Lottery",
						"label": "storedBlockNumber",
						"offset": 0,
						"slot": "4",
						"type": "t_uint256"
					}
				],
				"types": {
					"t_address": {
						"encoding": "inplace",
						"label": "address",
						"numberOfBytes": "20"
					},
					"t_array(t_address)dyn_storage": {
						"base": "t_address",
						"encoding": "dynamic_array",
						"label": "address[]",
						"numberOfBytes": "32"
					},
					"t_bool": {
						"encoding": "inplace",
						"label": "bool",
						"numberOfBytes": "1"
					},
					"t_bytes32": {
						"encoding": "inplace",
						"label": "bytes32",
						"numberOfBytes": "32"
					},
					"t_uint256": {
						"encoding": "inplace",
						"label": "uint256",
						"numberOfBytes": "32"
					}
				}
			},
			"userdoc": {
				"kind": "user",
				"methods": {},
				"version": 1
			}
		}
	}
}