{
	"contracts/Lottery.sol": {
		"Lottery": {
			"abi": [
				{
					"inputs": [],
					"stateMutability": "nonpayable",
					"type": "constructor"
				},
				{
					"inputs": [
						{
							"internalType": "uint256",
							"name": "",
							"type": "uint256"
						}
					],
					"name": "donors",
					"outputs": [
						{
							"internalType": "address",
							"name": "",
							"type": "address"
						}
					],
					"stateMutability": "view",
					"type": "function"
				},
				{
					"inputs": [
						{
							"internalType": "address[]",
							"name": "_donators",
							"type": "address[]"
						},
						{
							"internalType": "bytes32",
							"name": "_sealedSeed",
							"type": "bytes32"
						}
					],
					"name": "enterLottery",
					"outputs": [
						{
							"internalType": "bool",
							"name": "",
							"type": "bool"
						}
					],
					"stateMutability": "nonpayable",
					"type": "function"
				},
				{
					"inputs": [
						{
							"internalType": "bytes32",
							"name": "_seed",
							"type": "bytes32"
						}
					],
					"name": "getWinner",
					"outputs": [
						{
							"internalType": "address",
							"name": "",
							"type": "address"
						}
					],
					"stateMutability": "nonpayable",
					"type": "function"
				},
				{
					"inputs": [],
					"name": "managerpool",
					"outputs": [
						{
							"internalType": "address",
							"name": "",
							"type": "address"
						}
					],
					"stateMutability": "view",
					"type": "function"
				},
				{
					"inputs": [
						{
							"internalType": "bytes32",
							"name": "_seed",
							"type": "bytes32"
						}
					],
					"name": "reveal",
					"outputs": [
						{
							"internalType": "uint256",
							"name": "",
							"type": "uint256"
						}
					],
					"stateMutability": "nonpayable",
					"type": "function"
				},
				{
					"inputs": [
						{
							"internalType": "bytes32",
							"name": "_sealedSeed",
							"type": "bytes32"
						}
					],
					"name": "setSealedSeed",
					"outputs": [],
					"stateMutability": "nonpayable",
					"type": "function"
				}
			],
			"devdoc": {
				"kind": "dev",
				"methods": {},
				"version": 1
			},
			"evm": {
				"assembly": "    /* \"contracts/Lottery.sol\":92:1680  contract Lottery is ILottery{... */\n  mstore(0x40, 0x80)\n    /* \"contracts/Lottery.sol\":344:462  constructor(){... */\n  callvalue\n  dup1\n  iszero\n  tag_1\n  jumpi\n  0x00\n  dup1\n  revert\ntag_1:\n  pop\n    /* \"contracts/Lottery.sol\":382:392  msg.sender */\n  caller\n    /* \"contracts/Lottery.sol\":368:379  managerpool */\n  0x00\n  dup1\n    /* \"contracts/Lottery.sol\":368:392  managerpool = msg.sender */\n  0x0100\n  exp\n  dup2\n  sload\n  dup2\n  0xffffffffffffffffffffffffffffffffffffffff\n  mul\n  not\n  and\n  swap1\n  dup4\n  0xffffffffffffffffffffffffffffffffffffffff\n  and\n  mul\n  or\n  swap1\n  sstore\n  pop\n    /* \"contracts/Lottery.sol\":414:419  false */\n  0x00\n    /* \"contracts/Lottery.sol\":404:411  seedSet */\n  0x03\n  0x00\n    /* \"contracts/Lottery.sol\":404:419  seedSet = false */\n  0x0100\n  exp\n  dup2\n  sload\n  dup2\n  0xff\n  mul\n  not\n  and\n  swap1\n  dup4\n  iszero\n  iszero\n  mul\n  or\n  swap1\n  sstore\n  pop\n    /* \"contracts/Lottery.sol\":448:453  false */\n  0x00\n    /* \"contracts/Lottery.sol\":430:445  donationsClosed */\n  0x03\n  0x01\n    /* \"contracts/Lottery.sol\":430:453  donationsClosed = false */\n  0x0100\n  exp\n  dup2\n  sload\n  dup2\n  0xff\n  mul\n  not\n  and\n  swap1\n  dup4\n  iszero\n  iszero\n  mul\n  or\n  swap1\n  sstore\n  pop\n    /* \"contracts/Lottery.sol\":92:1680  contract Lottery is ILottery{... */\n  dataSize(sub_0)\n  dup1\n  dataOffset(sub_0)\n  0x00\n  codecopy\n  0x00\n  return\nstop\n\nsub_0: assembly {\n        /* \"contracts/Lottery.sol\":92:1680  contract Lottery is ILottery{... */\n      mstore(0x40, 0x80)\n      callvalue\n      dup1\n      iszero\n      tag_1\n      jumpi\n      0x00\n      dup1\n      revert\n    tag_1:\n      pop\n      jumpi(tag_2, lt(calldatasize, 0x04))\n      shr(0xe0, calldataload(0x00))\n      dup1\n      0x1e5f9149\n      eq\n      tag_3\n      jumpi\n      dup1\n      0x41114538\n      eq\n      tag_4\n      jumpi\n      dup1\n      0x4abfa163\n      eq\n      tag_5\n      jumpi\n      dup1\n      0x5c6b143c\n      eq\n      tag_6\n      jumpi\n      dup1\n      0x701fd0f1\n      eq\n      tag_7\n      jumpi\n      dup1\n      0xdedfe223\n      eq\n      tag_8\n      jumpi\n    tag_2:\n      0x00\n      dup1\n      revert\n        /* \"contracts/Lottery.sol\":673:830  function getWinner(bytes32 _seed) external returns(address){... */\n    tag_3:\n      tag_9\n      0x04\n      dup1\n      calldatasize\n      sub\n      dup2\n      add\n      swap1\n      tag_10\n      swap2\n      swap1\n      tag_11\n      jump\t// in\n    tag_10:\n      tag_12\n      jump\t// in\n    tag_9:\n      mload(0x40)\n      tag_13\n      swap2\n      swap1\n      tag_14\n      jump\t// in\n    tag_13:\n      mload(0x40)\n      dup1\n      swap2\n      sub\n      swap1\n      return\n        /* \"contracts/Lottery.sol\":838:1182  function setSealedSeed(bytes32 _sealedSeed) public {... */\n    tag_4:\n      tag_15\n      0x04\n      dup1\n      calldatasize\n      sub\n      dup2\n      add\n      swap1\n      tag_16\n      swap2\n      swap1\n      tag_11\n      jump\t// in\n    tag_16:\n      tag_17\n      jump\t// in\n    tag_15:\n      stop\n        /* \"contracts/Lottery.sol\":161:184  address[] public donors */\n    tag_5:\n      tag_18\n      0x04\n      dup1\n      calldatasize\n      sub\n      dup2\n      add\n      swap1\n      tag_19\n      swap2\n      swap1\n      tag_20\n      jump\t// in\n    tag_19:\n      tag_21\n      jump\t// in\n    tag_18:\n      mload(0x40)\n      tag_22\n      swap2\n      swap1\n      tag_14\n      jump\t// in\n    tag_22:\n      mload(0x40)\n      dup1\n      swap2\n      sub\n      swap1\n      return\n        /* \"contracts/Lottery.sol\":472:665  function enterLottery(address[] memory _donators, bytes32 _sealedSeed) external returns (bool){... */\n    tag_6:\n      tag_23\n      0x04\n      dup1\n      calldatasize\n      sub\n      dup2\n      add\n      swap1\n      tag_24\n      swap2\n      swap1\n      tag_25\n      jump\t// in\n    tag_24:\n      tag_26\n      jump\t// in\n    tag_23:\n      mload(0x40)\n      tag_27\n      swap2\n      swap1\n      tag_28\n      jump\t// in\n    tag_27:\n      mload(0x40)\n      dup1\n      swap2\n      sub\n      swap1\n      return\n        /* \"contracts/Lottery.sol\":1190:1675  function reveal(bytes32 _seed) public returns (uint){... */\n    tag_7:\n      tag_29\n      0x04\n      dup1\n      calldatasize\n      sub\n      dup2\n      add\n      swap1\n      tag_30\n      swap2\n      swap1\n      tag_11\n      jump\t// in\n    tag_30:\n      tag_31\n      jump\t// in\n    tag_29:\n      mload(0x40)\n      tag_32\n      swap2\n      swap1\n      tag_33\n      jump\t// in\n    tag_32:\n      mload(0x40)\n      dup1\n      swap2\n      sub\n      swap1\n      return\n        /* \"contracts/Lottery.sol\":127:153  address public managerpool */\n    tag_8:\n      tag_34\n      tag_35\n      jump\t// in\n    tag_34:\n      mload(0x40)\n      tag_36\n      swap2\n      swap1\n      tag_14\n      jump\t// in\n    tag_36:\n      mload(0x40)\n      dup1\n      swap2\n      sub\n      swap1\n      return\n        /* \"contracts/Lottery.sol\":673:830  function getWinner(bytes32 _seed) external returns(address){... */\n    tag_12:\n        /* \"contracts/Lottery.sol\":724:731  address */\n      0x00\n        /* \"contracts/Lottery.sol\":743:754  uint random */\n      dup1\n        /* \"contracts/Lottery.sol\":757:770  reveal(_seed) */\n      tag_38\n        /* \"contracts/Lottery.sol\":764:769  _seed */\n      dup4\n        /* \"contracts/Lottery.sol\":757:763  reveal */\n      tag_31\n        /* \"contracts/Lottery.sol\":757:770  reveal(_seed) */\n      jump\t// in\n    tag_38:\n        /* \"contracts/Lottery.sol\":743:770  uint random = reveal(_seed) */\n      swap1\n      pop\n        /* \"contracts/Lottery.sol\":789:799  msg.sender */\n      caller\n        /* \"contracts/Lottery.sol\":782:799  return msg.sender */\n      swap2\n      pop\n      pop\n        /* \"contracts/Lottery.sol\":673:830  function getWinner(bytes32 _seed) external returns(address){... */\n      swap2\n      swap1\n      pop\n      jump\t// out\n        /* \"contracts/Lottery.sol\":838:1182  function setSealedSeed(bytes32 _sealedSeed) public {... */\n    tag_17:\n        /* \"contracts/Lottery.sol\":910:917  seedSet */\n      0x03\n      0x00\n      swap1\n      sload\n      swap1\n      0x0100\n      exp\n      swap1\n      div\n      0xff\n      and\n        /* \"contracts/Lottery.sol\":909:917  !seedSet */\n      iszero\n        /* \"contracts/Lottery.sol\":900:941  require (!seedSet, \"seed is already set\") */\n      tag_40\n      jumpi\n      mload(0x40)\n      0x08c379a000000000000000000000000000000000000000000000000000000000\n      dup2\n      mstore\n      0x04\n      add\n      tag_41\n      swap1\n      tag_42\n      jump\t// in\n    tag_41:\n      mload(0x40)\n      dup1\n      swap2\n      sub\n      swap1\n      revert\n    tag_40:\n        /* \"contracts/Lottery.sol\":975:986  managerpool */\n      0x00\n      dup1\n      sload\n      swap1\n      0x0100\n      exp\n      swap1\n      div\n      0xffffffffffffffffffffffffffffffffffffffff\n      and\n        /* \"contracts/Lottery.sol\":961:986  msg.sender == managerpool */\n      0xffffffffffffffffffffffffffffffffffffffff\n      and\n        /* \"contracts/Lottery.sol\":961:971  msg.sender */\n      caller\n        /* \"contracts/Lottery.sol\":961:986  msg.sender == managerpool */\n      0xffffffffffffffffffffffffffffffffffffffff\n      and\n      eq\n        /* \"contracts/Lottery.sol\":952:1030  require (msg.sender == managerpool, \"only managerpool can call this function\") */\n      tag_43\n      jumpi\n      mload(0x40)\n      0x08c379a000000000000000000000000000000000000000000000000000000000\n      dup2\n      mstore\n      0x04\n      add\n      tag_44\n      swap1\n      tag_45\n      jump\t// in\n    tag_44:\n      mload(0x40)\n      dup1\n      swap2\n      sub\n      swap1\n      revert\n    tag_43:\n        /* \"contracts/Lottery.sol\":1059:1063  true */\n      0x01\n        /* \"contracts/Lottery.sol\":1041:1056  donationsClosed */\n      0x03\n      0x01\n        /* \"contracts/Lottery.sol\":1041:1063  donationsClosed = true */\n      0x0100\n      exp\n      dup2\n      sload\n      dup2\n      0xff\n      mul\n      not\n      and\n      swap1\n      dup4\n      iszero\n      iszero\n      mul\n      or\n      swap1\n      sstore\n      pop\n        /* \"contracts/Lottery.sol\":1088:1099  _sealedSeed */\n      dup1\n        /* \"contracts/Lottery.sol\":1075:1085  sealedSeed */\n      0x02\n        /* \"contracts/Lottery.sol\":1075:1099  sealedSeed = _sealedSeed */\n      dup2\n      swap1\n      sstore\n      pop\n        /* \"contracts/Lottery.sol\":1146:1147  1 */\n      0x01\n        /* \"contracts/Lottery.sol\":1131:1143  block.number */\n      number\n        /* \"contracts/Lottery.sol\":1131:1147  block.number + 1 */\n      tag_46\n      swap2\n      swap1\n      tag_47\n      jump\t// in\n    tag_46:\n        /* \"contracts/Lottery.sol\":1111:1128  storedBlockNumber */\n      0x04\n        /* \"contracts/Lottery.sol\":1111:1147  storedBlockNumber = block.number + 1 */\n      dup2\n      swap1\n      sstore\n      pop\n        /* \"contracts/Lottery.sol\":1169:1173  true */\n      0x01\n        /* \"contracts/Lottery.sol\":1159:1166  seedSet */\n      0x03\n      0x00\n        /* \"contracts/Lottery.sol\":1159:1173  seedSet = true */\n      0x0100\n      exp\n      dup2\n      sload\n      dup2\n      0xff\n      mul\n      not\n      and\n      swap1\n      dup4\n      iszero\n      iszero\n      mul\n      or\n      swap1\n      sstore\n      pop\n        /* \"contracts/Lottery.sol\":838:1182  function setSealedSeed(bytes32 _sealedSeed) public {... */\n      pop\n      jump\t// out\n        /* \"contracts/Lottery.sol\":161:184  address[] public donors */\n    tag_21:\n      0x01\n      dup2\n      dup2\n      sload\n      dup2\n      lt\n      tag_48\n      jumpi\n      0x00\n      dup1\n      revert\n    tag_48:\n      swap1\n      0x00\n      mstore\n      keccak256(0x00, 0x20)\n      add\n      0x00\n      swap2\n      pop\n      sload\n      swap1\n      0x0100\n      exp\n      swap1\n      div\n      0xffffffffffffffffffffffffffffffffffffffff\n      and\n      dup2\n      jump\t// out\n        /* \"contracts/Lottery.sol\":472:665  function enterLottery(address[] memory _donators, bytes32 _sealedSeed) external returns (bool){... */\n    tag_26:\n        /* \"contracts/Lottery.sol\":561:565  bool */\n      0x00\n        /* \"contracts/Lottery.sol\":586:595  _donators */\n      dup3\n        /* \"contracts/Lottery.sol\":577:583  donors */\n      0x01\n        /* \"contracts/Lottery.sol\":577:595  donors = _donators */\n      swap1\n      dup1\n      mload\n      swap1\n      0x20\n      add\n      swap1\n      tag_51\n      swap3\n      swap2\n      swap1\n      tag_52\n      jump\t// in\n    tag_51:\n      pop\n        /* \"contracts/Lottery.sol\":607:633  setSealedSeed(_sealedSeed) */\n      tag_53\n        /* \"contracts/Lottery.sol\":621:632  _sealedSeed */\n      dup3\n        /* \"contracts/Lottery.sol\":607:620  setSealedSeed */\n      tag_17\n        /* \"contracts/Lottery.sol\":607:633  setSealedSeed(_sealedSeed) */\n      jump\t// in\n    tag_53:\n        /* \"contracts/Lottery.sol\":652:656  true */\n      0x01\n        /* \"contracts/Lottery.sol\":645:656  return true */\n      swap1\n      pop\n        /* \"contracts/Lottery.sol\":472:665  function enterLottery(address[] memory _donators, bytes32 _sealedSeed) external returns (bool){... */\n      swap3\n      swap2\n      pop\n      pop\n      jump\t// out\n        /* \"contracts/Lottery.sol\":1190:1675  function reveal(bytes32 _seed) public returns (uint){... */\n    tag_31:\n        /* \"contracts/Lottery.sol\":1237:1241  uint */\n      0x00\n        /* \"contracts/Lottery.sol\":1261:1268  seedSet */\n      0x03\n      0x00\n      swap1\n      sload\n      swap1\n      0x0100\n      exp\n      swap1\n      div\n      0xff\n      and\n        /* \"contracts/Lottery.sol\":1253:1292  require(seedSet, \"seed is not yet set\") */\n      tag_55\n      jumpi\n      mload(0x40)\n      0x08c379a000000000000000000000000000000000000000000000000000000000\n      dup2\n      mstore\n      0x04\n      add\n      tag_56\n      swap1\n      tag_57\n      jump\t// in\n    tag_56:\n      mload(0x40)\n      dup1\n      swap2\n      sub\n      swap1\n      revert\n    tag_55:\n        /* \"contracts/Lottery.sol\":1312:1327  donationsClosed */\n      0x03\n      0x01\n      swap1\n      sload\n      swap1\n      0x0100\n      exp\n      swap1\n      div\n      0xff\n      and\n        /* \"contracts/Lottery.sol\":1304:1360  require(donationsClosed, \"donations are not closed yet\") */\n      tag_58\n      jumpi\n      mload(0x40)\n      0x08c379a000000000000000000000000000000000000000000000000000000000\n      dup2\n      mstore\n      0x04\n      add\n      tag_59\n      swap1\n      tag_60\n      jump\t// in\n    tag_59:\n      mload(0x40)\n      dup1\n      swap2\n      sub\n      swap1\n      revert\n    tag_58:\n        /* \"contracts/Lottery.sol\":1400:1412  block.number */\n      number\n        /* \"contracts/Lottery.sol\":1380:1397  storedBlockNumber */\n      sload(0x04)\n        /* \"contracts/Lottery.sol\":1380:1412  storedBlockNumber < block.number */\n      lt\n        /* \"contracts/Lottery.sol\":1372:1413  require(storedBlockNumber < block.number) */\n      tag_61\n      jumpi\n      0x00\n      dup1\n      revert\n    tag_61:\n        /* \"contracts/Lottery.sol\":1476:1486  sealedSeed */\n      sload(0x02)\n        /* \"contracts/Lottery.sol\":1454:1464  msg.sender */\n      caller\n        /* \"contracts/Lottery.sol\":1466:1471  _seed */\n      dup4\n        /* \"contracts/Lottery.sol\":1443:1472  abi.encode(msg.sender, _seed) */\n      add(0x20, mload(0x40))\n      tag_62\n      swap3\n      swap2\n      swap1\n      tag_63\n      jump\t// in\n    tag_62:\n      mload(0x40)\n      0x20\n      dup2\n      dup4\n      sub\n      sub\n      dup2\n      mstore\n      swap1\n      0x40\n      mstore\n        /* \"contracts/Lottery.sol\":1433:1473  keccak256(abi.encode(msg.sender, _seed)) */\n      dup1\n      mload\n      swap1\n      0x20\n      add\n      keccak256\n        /* \"contracts/Lottery.sol\":1433:1486  keccak256(abi.encode(msg.sender, _seed))== sealedSeed */\n      eq\n        /* \"contracts/Lottery.sol\":1425:1487  require(keccak256(abi.encode(msg.sender, _seed))== sealedSeed) */\n      tag_64\n      jumpi\n      0x00\n      dup1\n      revert\n    tag_64:\n        /* \"contracts/Lottery.sol\":1499:1510  uint random */\n      0x00\n        /* \"contracts/Lottery.sol\":1539:1544  _seed */\n      dup3\n        /* \"contracts/Lottery.sol\":1556:1573  storedBlockNumber */\n      sload(0x04)\n        /* \"contracts/Lottery.sol\":1546:1574  blockhash(storedBlockNumber) */\n      blockhash\n        /* \"contracts/Lottery.sol\":1528:1575  abi.encode(_seed, blockhash(storedBlockNumber)) */\n      add(0x20, mload(0x40))\n      tag_65\n      swap3\n      swap2\n      swap1\n      tag_66\n      jump\t// in\n    tag_65:\n      mload(0x40)\n      0x20\n      dup2\n      dup4\n      sub\n      sub\n      dup2\n      mstore\n      swap1\n      0x40\n      mstore\n        /* \"contracts/Lottery.sol\":1518:1576  keccak256(abi.encode(_seed, blockhash(storedBlockNumber))) */\n      dup1\n      mload\n      swap1\n      0x20\n      add\n      keccak256\n        /* \"contracts/Lottery.sol\":1513:1577  uint(keccak256(abi.encode(_seed, blockhash(storedBlockNumber)))) */\n      0x00\n      shr\n        /* \"contracts/Lottery.sol\":1499:1577  uint random = uint(keccak256(abi.encode(_seed, blockhash(storedBlockNumber)))) */\n      swap1\n      pop\n        /* \"contracts/Lottery.sol\":1660:1666  random */\n      dup1\n        /* \"contracts/Lottery.sol\":1653:1666  return random */\n      swap2\n      pop\n      pop\n        /* \"contracts/Lottery.sol\":1190:1675  function reveal(bytes32 _seed) public returns (uint){... */\n      swap2\n      swap1\n      pop\n      jump\t// out\n        /* \"contracts/Lottery.sol\":127:153  address public managerpool */\n    tag_35:\n      0x00\n      dup1\n      sload\n      swap1\n      0x0100\n      exp\n      swap1\n      div\n      0xffffffffffffffffffffffffffffffffffffffff\n      and\n      dup2\n      jump\t// out\n    tag_52:\n      dup3\n      dup1\n      sload\n      dup3\n      dup3\n      sstore\n      swap1\n      0x00\n      mstore\n      keccak256(0x00, 0x20)\n      swap1\n      dup2\n      add\n      swap3\n      dup3\n      iszero\n      tag_67\n      jumpi\n      swap2\n      0x20\n      mul\n      dup3\n      add\n    tag_68:\n      dup3\n      dup2\n      gt\n      iszero\n      tag_69\n      jumpi\n      dup3\n      mload\n      dup3\n      exp(0x0100, 0x00)\n      dup2\n      sload\n      dup2\n      0xffffffffffffffffffffffffffffffffffffffff\n      mul\n      not\n      and\n      swap1\n      dup4\n      0xffffffffffffffffffffffffffffffffffffffff\n      and\n      mul\n      or\n      swap1\n      sstore\n      pop\n      swap2\n      0x20\n      add\n      swap2\n      swap1\n      0x01\n      add\n      swap1\n      jump(tag_68)\n    tag_69:\n    tag_67:\n      pop\n      swap1\n      pop\n      tag_70\n      swap2\n      swap1\n      tag_71\n      jump\t// in\n    tag_70:\n      pop\n      swap1\n      jump\t// out\n    tag_71:\n    tag_72:\n      dup1\n      dup3\n      gt\n      iszero\n      tag_73\n      jumpi\n      0x00\n      dup2\n      0x00\n      swap1\n      sstore\n      pop\n      0x01\n      add\n      jump(tag_72)\n    tag_73:\n      pop\n      swap1\n      jump\t// out\n        /* \"#utility.yul\":7:82   */\n    tag_74:\n        /* \"#utility.yul\":40:46   */\n      0x00\n        /* \"#utility.yul\":73:75   */\n      0x40\n        /* \"#utility.yul\":67:76   */\n      mload\n        /* \"#utility.yul\":57:76   */\n      swap1\n      pop\n        /* \"#utility.yul\":7:82   */\n      swap1\n      jump\t// out\n        /* \"#utility.yul\":88:205   */\n    tag_75:\n        /* \"#utility.yul\":197:198   */\n      0x00\n        /* \"#utility.yul\":194:195   */\n      dup1\n        /* \"#utility.yul\":187:199   */\n      revert\n        /* \"#utility.yul\":211:328   */\n    tag_76:\n        /* \"#utility.yul\":320:321   */\n      0x00\n        /* \"#utility.yul\":317:318   */\n      dup1\n        /* \"#utility.yul\":310:322   */\n      revert\n        /* \"#utility.yul\":334:411   */\n    tag_77:\n        /* \"#utility.yul\":371:378   */\n      0x00\n        /* \"#utility.yul\":400:405   */\n      dup2\n        /* \"#utility.yul\":389:405   */\n      swap1\n      pop\n        /* \"#utility.yul\":334:411   */\n      swap2\n      swap1\n      pop\n      jump\t// out\n        /* \"#utility.yul\":417:539   */\n    tag_78:\n        /* \"#utility.yul\":490:514   */\n      tag_117\n        /* \"#utility.yul\":508:513   */\n      dup2\n        /* \"#utility.yul\":490:514   */\n      tag_77\n      jump\t// in\n    tag_117:\n        /* \"#utility.yul\":483:488   */\n      dup2\n        /* \"#utility.yul\":480:515   */\n      eq\n        /* \"#utility.yul\":470:533   */\n      tag_118\n      jumpi\n        /* \"#utility.yul\":529:530   */\n      0x00\n        /* \"#utility.yul\":526:527   */\n      dup1\n        /* \"#utility.yul\":519:531   */\n      revert\n        /* \"#utility.yul\":470:533   */\n    tag_118:\n        /* \"#utility.yul\":417:539   */\n      pop\n      jump\t// out\n        /* \"#utility.yul\":545:684   */\n    tag_79:\n        /* \"#utility.yul\":591:596   */\n      0x00\n        /* \"#utility.yul\":629:635   */\n      dup2\n        /* \"#utility.yul\":616:636   */\n      calldataload\n        /* \"#utility.yul\":607:636   */\n      swap1\n      pop\n        /* \"#utility.yul\":645:678   */\n      tag_120\n        /* \"#utility.yul\":672:677   */\n      dup2\n        /* \"#utility.yul\":645:678   */\n      tag_78\n      jump\t// in\n    tag_120:\n        /* \"#utility.yul\":545:684   */\n      swap3\n      swap2\n      pop\n      pop\n      jump\t// out\n        /* \"#utility.yul\":690:1019   */\n    tag_11:\n        /* \"#utility.yul\":749:755   */\n      0x00\n        /* \"#utility.yul\":798:800   */\n      0x20\n        /* \"#utility.yul\":786:795   */\n      dup3\n        /* \"#utility.yul\":777:784   */\n      dup5\n        /* \"#utility.yul\":773:796   */\n      sub\n        /* \"#utility.yul\":769:801   */\n      slt\n        /* \"#utility.yul\":766:885   */\n      iszero\n      tag_122\n      jumpi\n        /* \"#utility.yul\":804:883   */\n      tag_123\n      tag_75\n      jump\t// in\n    tag_123:\n        /* \"#utility.yul\":766:885   */\n    tag_122:\n        /* \"#utility.yul\":924:925   */\n      0x00\n        /* \"#utility.yul\":949:1002   */\n      tag_124\n        /* \"#utility.yul\":994:1001   */\n      dup5\n        /* \"#utility.yul\":985:991   */\n      dup3\n        /* \"#utility.yul\":974:983   */\n      dup6\n        /* \"#utility.yul\":970:992   */\n      add\n        /* \"#utility.yul\":949:1002   */\n      tag_79\n      jump\t// in\n    tag_124:\n        /* \"#utility.yul\":939:1002   */\n      swap2\n      pop\n        /* \"#utility.yul\":895:1012   */\n      pop\n        /* \"#utility.yul\":690:1019   */\n      swap3\n      swap2\n      pop\n      pop\n      jump\t// out\n        /* \"#utility.yul\":1025:1151   */\n    tag_80:\n        /* \"#utility.yul\":1062:1069   */\n      0x00\n        /* \"#utility.yul\":1102:1144   */\n      0xffffffffffffffffffffffffffffffffffffffff\n        /* \"#utility.yul\":1095:1100   */\n      dup3\n        /* \"#utility.yul\":1091:1145   */\n      and\n        /* \"#utility.yul\":1080:1145   */\n      swap1\n      pop\n        /* \"#utility.yul\":1025:1151   */\n      swap2\n      swap1\n      pop\n      jump\t// out\n        /* \"#utility.yul\":1157:1253   */\n    tag_81:\n        /* \"#utility.yul\":1194:1201   */\n      0x00\n        /* \"#utility.yul\":1223:1247   */\n      tag_127\n        /* \"#utility.yul\":1241:1246   */\n      dup3\n        /* \"#utility.yul\":1223:1247   */\n      tag_80\n      jump\t// in\n    tag_127:\n        /* \"#utility.yul\":1212:1247   */\n      swap1\n      pop\n        /* \"#utility.yul\":1157:1253   */\n      swap2\n      swap1\n      pop\n      jump\t// out\n        /* \"#utility.yul\":1259:1377   */\n    tag_82:\n        /* \"#utility.yul\":1346:1370   */\n      tag_129\n        /* \"#utility.yul\":1364:1369   */\n      dup2\n        /* \"#utility.yul\":1346:1370   */\n      tag_81\n      jump\t// in\n    tag_129:\n        /* \"#utility.yul\":1341:1344   */\n      dup3\n        /* \"#utility.yul\":1334:1371   */\n      mstore\n        /* \"#utility.yul\":1259:1377   */\n      pop\n      pop\n      jump\t// out\n        /* \"#utility.yul\":1383:1605   */\n    tag_14:\n        /* \"#utility.yul\":1476:1480   */\n      0x00\n        /* \"#utility.yul\":1514:1516   */\n      0x20\n        /* \"#utility.yul\":1503:1512   */\n      dup3\n        /* \"#utility.yul\":1499:1517   */\n      add\n        /* \"#utility.yul\":1491:1517   */\n      swap1\n      pop\n        /* \"#utility.yul\":1527:1598   */\n      tag_131\n        /* \"#utility.yul\":1595:1596   */\n      0x00\n        /* \"#utility.yul\":1584:1593   */\n      dup4\n        /* \"#utility.yul\":1580:1597   */\n      add\n        /* \"#utility.yul\":1571:1577   */\n      dup5\n        /* \"#utility.yul\":1527:1598   */\n      tag_82\n      jump\t// in\n    tag_131:\n        /* \"#utility.yul\":1383:1605   */\n      swap3\n      swap2\n      pop\n      pop\n      jump\t// out\n        /* \"#utility.yul\":1611:1688   */\n    tag_83:\n        /* \"#utility.yul\":1648:1655   */\n      0x00\n        /* \"#utility.yul\":1677:1682   */\n      dup2\n        /* \"#utility.yul\":1666:1682   */\n      swap1\n      pop\n        /* \"#utility.yul\":1611:1688   */\n      swap2\n      swap1\n      pop\n      jump\t// out\n        /* \"#utility.yul\":1694:1816   */\n    tag_84:\n        /* \"#utility.yul\":1767:1791   */\n      tag_134\n        /* \"#utility.yul\":1785:1790   */\n      dup2\n        /* \"#utility.yul\":1767:1791   */\n      tag_83\n      jump\t// in\n    tag_134:\n        /* \"#utility.yul\":1760:1765   */\n      dup2\n        /* \"#utility.yul\":1757:1792   */\n      eq\n        /* \"#utility.yul\":1747:1810   */\n      tag_135\n      jumpi\n        /* \"#utility.yul\":1806:1807   */\n      0x00\n        /* \"#utility.yul\":1803:1804   */\n      dup1\n        /* \"#utility.yul\":1796:1808   */\n      revert\n        /* \"#utility.yul\":1747:1810   */\n    tag_135:\n        /* \"#utility.yul\":1694:1816   */\n      pop\n      jump\t// out\n        /* \"#utility.yul\":1822:1961   */\n    tag_85:\n        /* \"#utility.yul\":1868:1873   */\n      0x00\n        /* \"#utility.yul\":1906:1912   */\n      dup2\n        /* \"#utility.yul\":1893:1913   */\n      calldataload\n        /* \"#utility.yul\":1884:1913   */\n      swap1\n      pop\n        /* \"#utility.yul\":1922:1955   */\n      tag_137\n        /* \"#utility.yul\":1949:1954   */\n      dup2\n        /* \"#utility.yul\":1922:1955   */\n      tag_84\n      jump\t// in\n    tag_137:\n        /* \"#utility.yul\":1822:1961   */\n      swap3\n      swap2\n      pop\n      pop\n      jump\t// out\n        /* \"#utility.yul\":1967:2296   */\n    tag_20:\n        /* \"#utility.yul\":2026:2032   */\n      0x00\n        /* \"#utility.yul\":2075:2077   */\n      0x20\n        /* \"#utility.yul\":2063:2072   */\n      dup3\n        /* \"#utility.yul\":2054:2061   */\n      dup5\n        /* \"#utility.yul\":2050:2073   */\n      sub\n        /* \"#utility.yul\":2046:2078   */\n      slt\n        /* \"#utility.yul\":2043:2162   */\n      iszero\n      tag_139\n      jumpi\n        /* \"#utility.yul\":2081:2160   */\n      tag_140\n      tag_75\n      jump\t// in\n    tag_140:\n        /* \"#utility.yul\":2043:2162   */\n    tag_139:\n        /* \"#utility.yul\":2201:2202   */\n      0x00\n        /* \"#utility.yul\":2226:2279   */\n      tag_141\n        /* \"#utility.yul\":2271:2278   */\n      dup5\n        /* \"#utility.yul\":2262:2268   */\n      dup3\n        /* \"#utility.yul\":2251:2260   */\n      dup6\n        /* \"#utility.yul\":2247:2269   */\n      add\n        /* \"#utility.yul\":2226:2279   */\n      tag_85\n      jump\t// in\n    tag_141:\n        /* \"#utility.yul\":2216:2279   */\n      swap2\n      pop\n        /* \"#utility.yul\":2172:2289   */\n      pop\n        /* \"#utility.yul\":1967:2296   */\n      swap3\n      swap2\n      pop\n      pop\n      jump\t// out\n        /* \"#utility.yul\":2302:2419   */\n    tag_86:\n        /* \"#utility.yul\":2411:2412   */\n      0x00\n        /* \"#utility.yul\":2408:2409   */\n      dup1\n        /* \"#utility.yul\":2401:2413   */\n      revert\n        /* \"#utility.yul\":2425:2527   */\n    tag_87:\n        /* \"#utility.yul\":2466:2472   */\n      0x00\n        /* \"#utility.yul\":2517:2519   */\n      0x1f\n        /* \"#utility.yul\":2513:2520   */\n      not\n        /* \"#utility.yul\":2508:2510   */\n      0x1f\n        /* \"#utility.yul\":2501:2506   */\n      dup4\n        /* \"#utility.yul\":2497:2511   */\n      add\n        /* \"#utility.yul\":2493:2521   */\n      and\n        /* \"#utility.yul\":2483:2521   */\n      swap1\n      pop\n        /* \"#utility.yul\":2425:2527   */\n      swap2\n      swap1\n      pop\n      jump\t// out\n        /* \"#utility.yul\":2533:2713   */\n    tag_88:\n        /* \"#utility.yul\":2581:2658   */\n      0x4e487b7100000000000000000000000000000000000000000000000000000000\n        /* \"#utility.yul\":2578:2579   */\n      0x00\n        /* \"#utility.yul\":2571:2659   */\n      mstore\n        /* \"#utility.yul\":2678:2682   */\n      0x41\n        /* \"#utility.yul\":2675:2676   */\n      0x04\n        /* \"#utility.yul\":2668:2683   */\n      mstore\n        /* \"#utility.yul\":2702:2706   */\n      0x24\n        /* \"#utility.yul\":2699:2700   */\n      0x00\n        /* \"#utility.yul\":2692:2707   */\n      revert\n        /* \"#utility.yul\":2719:3000   */\n    tag_89:\n        /* \"#utility.yul\":2802:2829   */\n      tag_146\n        /* \"#utility.yul\":2824:2828   */\n      dup3\n        /* \"#utility.yul\":2802:2829   */\n      tag_87\n      jump\t// in\n    tag_146:\n        /* \"#utility.yul\":2794:2800   */\n      dup2\n        /* \"#utility.yul\":2790:2830   */\n      add\n        /* \"#utility.yul\":2932:2938   */\n      dup2\n        /* \"#utility.yul\":2920:2930   */\n      dup2\n        /* \"#utility.yul\":2917:2939   */\n      lt\n        /* \"#utility.yul\":2896:2914   */\n      0xffffffffffffffff\n        /* \"#utility.yul\":2884:2894   */\n      dup3\n        /* \"#utility.yul\":2881:2915   */\n      gt\n        /* \"#utility.yul\":2878:2940   */\n      or\n        /* \"#utility.yul\":2875:2963   */\n      iszero\n      tag_147\n      jumpi\n        /* \"#utility.yul\":2943:2961   */\n      tag_148\n      tag_88\n      jump\t// in\n    tag_148:\n        /* \"#utility.yul\":2875:2963   */\n    tag_147:\n        /* \"#utility.yul\":2983:2993   */\n      dup1\n        /* \"#utility.yul\":2979:2981   */\n      0x40\n        /* \"#utility.yul\":2972:2994   */\n      mstore\n        /* \"#utility.yul\":2762:3000   */\n      pop\n        /* \"#utility.yul\":2719:3000   */\n      pop\n      pop\n      jump\t// out\n        /* \"#utility.yul\":3006:3135   */\n    tag_90:\n        /* \"#utility.yul\":3040:3046   */\n      0x00\n        /* \"#utility.yul\":3067:3087   */\n      tag_150\n      tag_74\n      jump\t// in\n    tag_150:\n        /* \"#utility.yul\":3057:3087   */\n      swap1\n      pop\n        /* \"#utility.yul\":3096:3129   */\n      tag_151\n        /* \"#utility.yul\":3124:3128   */\n      dup3\n        /* \"#utility.yul\":3116:3122   */\n      dup3\n        /* \"#utility.yul\":3096:3129   */\n      tag_89\n      jump\t// in\n    tag_151:\n        /* \"#utility.yul\":3006:3135   */\n      swap2\n      swap1\n      pop\n      jump\t// out\n        /* \"#utility.yul\":3141:3452   */\n    tag_91:\n        /* \"#utility.yul\":3218:3222   */\n      0x00\n        /* \"#utility.yul\":3308:3326   */\n      0xffffffffffffffff\n        /* \"#utility.yul\":3300:3306   */\n      dup3\n        /* \"#utility.yul\":3297:3327   */\n      gt\n        /* \"#utility.yul\":3294:3350   */\n      iszero\n      tag_153\n      jumpi\n        /* \"#utility.yul\":3330:3348   */\n      tag_154\n      tag_88\n      jump\t// in\n    tag_154:\n        /* \"#utility.yul\":3294:3350   */\n    tag_153:\n        /* \"#utility.yul\":3380:3384   */\n      0x20\n        /* \"#utility.yul\":3372:3378   */\n      dup3\n        /* \"#utility.yul\":3368:3385   */\n      mul\n        /* \"#utility.yul\":3360:3385   */\n      swap1\n      pop\n        /* \"#utility.yul\":3440:3444   */\n      0x20\n        /* \"#utility.yul\":3434:3438   */\n      dup2\n        /* \"#utility.yul\":3430:3445   */\n      add\n        /* \"#utility.yul\":3422:3445   */\n      swap1\n      pop\n        /* \"#utility.yul\":3141:3452   */\n      swap2\n      swap1\n      pop\n      jump\t// out\n        /* \"#utility.yul\":3458:3575   */\n    tag_92:\n        /* \"#utility.yul\":3567:3568   */\n      0x00\n        /* \"#utility.yul\":3564:3565   */\n      dup1\n        /* \"#utility.yul\":3557:3569   */\n      revert\n        /* \"#utility.yul\":3581:3703   */\n    tag_93:\n        /* \"#utility.yul\":3654:3678   */\n      tag_157\n        /* \"#utility.yul\":3672:3677   */\n      dup2\n        /* \"#utility.yul\":3654:3678   */\n      tag_81\n      jump\t// in\n    tag_157:\n        /* \"#utility.yul\":3647:3652   */\n      dup2\n        /* \"#utility.yul\":3644:3679   */\n      eq\n        /* \"#utility.yul\":3634:3697   */\n      tag_158\n      jumpi\n        /* \"#utility.yul\":3693:3694   */\n      0x00\n        /* \"#utility.yul\":3690:3691   */\n      dup1\n        /* \"#utility.yul\":3683:3695   */\n      revert\n        /* \"#utility.yul\":3634:3697   */\n    tag_158:\n        /* \"#utility.yul\":3581:3703   */\n      pop\n      jump\t// out\n        /* \"#utility.yul\":3709:3848   */\n    tag_94:\n        /* \"#utility.yul\":3755:3760   */\n      0x00\n        /* \"#utility.yul\":3793:3799   */\n      dup2\n        /* \"#utility.yul\":3780:3800   */\n      calldataload\n        /* \"#utility.yul\":3771:3800   */\n      swap1\n      pop\n        /* \"#utility.yul\":3809:3842   */\n      tag_160\n        /* \"#utility.yul\":3836:3841   */\n      dup2\n        /* \"#utility.yul\":3809:3842   */\n      tag_93\n      jump\t// in\n    tag_160:\n        /* \"#utility.yul\":3709:3848   */\n      swap3\n      swap2\n      pop\n      pop\n      jump\t// out\n        /* \"#utility.yul\":3871:4581   */\n    tag_95:\n        /* \"#utility.yul\":3967:3972   */\n      0x00\n        /* \"#utility.yul\":3992:4073   */\n      tag_162\n        /* \"#utility.yul\":4008:4072   */\n      tag_163\n        /* \"#utility.yul\":4065:4071   */\n      dup5\n        /* \"#utility.yul\":4008:4072   */\n      tag_91\n      jump\t// in\n    tag_163:\n        /* \"#utility.yul\":3992:4073   */\n      tag_90\n      jump\t// in\n    tag_162:\n        /* \"#utility.yul\":3983:4073   */\n      swap1\n      pop\n        /* \"#utility.yul\":4093:4098   */\n      dup1\n        /* \"#utility.yul\":4122:4128   */\n      dup4\n        /* \"#utility.yul\":4115:4120   */\n      dup3\n        /* \"#utility.yul\":4108:4129   */\n      mstore\n        /* \"#utility.yul\":4156:4160   */\n      0x20\n        /* \"#utility.yul\":4149:4154   */\n      dup3\n        /* \"#utility.yul\":4145:4161   */\n      add\n        /* \"#utility.yul\":4138:4161   */\n      swap1\n      pop\n        /* \"#utility.yul\":4209:4213   */\n      0x20\n        /* \"#utility.yul\":4201:4207   */\n      dup5\n        /* \"#utility.yul\":4197:4214   */\n      mul\n        /* \"#utility.yul\":4189:4195   */\n      dup4\n        /* \"#utility.yul\":4185:4215   */\n      add\n        /* \"#utility.yul\":4238:4241   */\n      dup6\n        /* \"#utility.yul\":4230:4236   */\n      dup2\n        /* \"#utility.yul\":4227:4242   */\n      gt\n        /* \"#utility.yul\":4224:4346   */\n      iszero\n      tag_164\n      jumpi\n        /* \"#utility.yul\":4257:4336   */\n      tag_165\n      tag_92\n      jump\t// in\n    tag_165:\n        /* \"#utility.yul\":4224:4346   */\n    tag_164:\n        /* \"#utility.yul\":4372:4378   */\n      dup4\n        /* \"#utility.yul\":4355:4575   */\n    tag_166:\n        /* \"#utility.yul\":4389:4395   */\n      dup2\n        /* \"#utility.yul\":4384:4387   */\n      dup2\n        /* \"#utility.yul\":4381:4396   */\n      lt\n        /* \"#utility.yul\":4355:4575   */\n      iszero\n      tag_168\n      jumpi\n        /* \"#utility.yul\":4464:4467   */\n      dup1\n        /* \"#utility.yul\":4493:4530   */\n      tag_169\n        /* \"#utility.yul\":4526:4529   */\n      dup9\n        /* \"#utility.yul\":4514:4524   */\n      dup3\n        /* \"#utility.yul\":4493:4530   */\n      tag_94\n      jump\t// in\n    tag_169:\n        /* \"#utility.yul\":4488:4491   */\n      dup5\n        /* \"#utility.yul\":4481:4531   */\n      mstore\n        /* \"#utility.yul\":4560:4564   */\n      0x20\n        /* \"#utility.yul\":4555:4558   */\n      dup5\n        /* \"#utility.yul\":4551:4565   */\n      add\n        /* \"#utility.yul\":4544:4565   */\n      swap4\n      pop\n        /* \"#utility.yul\":4431:4575   */\n      pop\n        /* \"#utility.yul\":4415:4419   */\n      0x20\n        /* \"#utility.yul\":4410:4413   */\n      dup2\n        /* \"#utility.yul\":4406:4420   */\n      add\n        /* \"#utility.yul\":4399:4420   */\n      swap1\n      pop\n        /* \"#utility.yul\":4355:4575   */\n      jump(tag_166)\n    tag_168:\n        /* \"#utility.yul\":4359:4380   */\n      pop\n        /* \"#utility.yul\":3973:4581   */\n      pop\n      pop\n        /* \"#utility.yul\":3871:4581   */\n      swap4\n      swap3\n      pop\n      pop\n      pop\n      jump\t// out\n        /* \"#utility.yul\":4604:4974   */\n    tag_96:\n        /* \"#utility.yul\":4675:4680   */\n      0x00\n        /* \"#utility.yul\":4724:4727   */\n      dup3\n        /* \"#utility.yul\":4717:4721   */\n      0x1f\n        /* \"#utility.yul\":4709:4715   */\n      dup4\n        /* \"#utility.yul\":4705:4722   */\n      add\n        /* \"#utility.yul\":4701:4728   */\n      slt\n        /* \"#utility.yul\":4691:4813   */\n      tag_171\n      jumpi\n        /* \"#utility.yul\":4732:4811   */\n      tag_172\n      tag_86\n      jump\t// in\n    tag_172:\n        /* \"#utility.yul\":4691:4813   */\n    tag_171:\n        /* \"#utility.yul\":4849:4855   */\n      dup2\n        /* \"#utility.yul\":4836:4856   */\n      calldataload\n        /* \"#utility.yul\":4874:4968   */\n      tag_173\n        /* \"#utility.yul\":4964:4967   */\n      dup5\n        /* \"#utility.yul\":4956:4962   */\n      dup3\n        /* \"#utility.yul\":4949:4953   */\n      0x20\n        /* \"#utility.yul\":4941:4947   */\n      dup7\n        /* \"#utility.yul\":4937:4954   */\n      add\n        /* \"#utility.yul\":4874:4968   */\n      tag_95\n      jump\t// in\n    tag_173:\n        /* \"#utility.yul\":4865:4968   */\n      swap2\n      pop\n        /* \"#utility.yul\":4681:4974   */\n      pop\n        /* \"#utility.yul\":4604:4974   */\n      swap3\n      swap2\n      pop\n      pop\n      jump\t// out\n        /* \"#utility.yul\":4980:5664   */\n    tag_25:\n        /* \"#utility.yul\":5073:5079   */\n      0x00\n        /* \"#utility.yul\":5081:5087   */\n      dup1\n        /* \"#utility.yul\":5130:5132   */\n      0x40\n        /* \"#utility.yul\":5118:5127   */\n      dup4\n        /* \"#utility.yul\":5109:5116   */\n      dup6\n        /* \"#utility.yul\":5105:5128   */\n      sub\n        /* \"#utility.yul\":5101:5133   */\n      slt\n        /* \"#utility.yul\":5098:5217   */\n      iszero\n      tag_175\n      jumpi\n        /* \"#utility.yul\":5136:5215   */\n      tag_176\n      tag_75\n      jump\t// in\n    tag_176:\n        /* \"#utility.yul\":5098:5217   */\n    tag_175:\n        /* \"#utility.yul\":5284:5285   */\n      0x00\n        /* \"#utility.yul\":5273:5282   */\n      dup4\n        /* \"#utility.yul\":5269:5286   */\n      add\n        /* \"#utility.yul\":5256:5287   */\n      calldataload\n        /* \"#utility.yul\":5314:5332   */\n      0xffffffffffffffff\n        /* \"#utility.yul\":5306:5312   */\n      dup2\n        /* \"#utility.yul\":5303:5333   */\n      gt\n        /* \"#utility.yul\":5300:5417   */\n      iszero\n      tag_177\n      jumpi\n        /* \"#utility.yul\":5336:5415   */\n      tag_178\n      tag_76\n      jump\t// in\n    tag_178:\n        /* \"#utility.yul\":5300:5417   */\n    tag_177:\n        /* \"#utility.yul\":5441:5519   */\n      tag_179\n        /* \"#utility.yul\":5511:5518   */\n      dup6\n        /* \"#utility.yul\":5502:5508   */\n      dup3\n        /* \"#utility.yul\":5491:5500   */\n      dup7\n        /* \"#utility.yul\":5487:5509   */\n      add\n        /* \"#utility.yul\":5441:5519   */\n      tag_96\n      jump\t// in\n    tag_179:\n        /* \"#utility.yul\":5431:5519   */\n      swap3\n      pop\n        /* \"#utility.yul\":5227:5529   */\n      pop\n        /* \"#utility.yul\":5568:5570   */\n      0x20\n        /* \"#utility.yul\":5594:5647   */\n      tag_180\n        /* \"#utility.yul\":5639:5646   */\n      dup6\n        /* \"#utility.yul\":5630:5636   */\n      dup3\n        /* \"#utility.yul\":5619:5628   */\n      dup7\n        /* \"#utility.yul\":5615:5637   */\n      add\n        /* \"#utility.yul\":5594:5647   */\n      tag_79\n      jump\t// in\n    tag_180:\n        /* \"#utility.yul\":5584:5647   */\n      swap2\n      pop\n        /* \"#utility.yul\":5539:5657   */\n      pop\n        /* \"#utility.yul\":4980:5664   */\n      swap3\n      pop\n      swap3\n      swap1\n      pop\n      jump\t// out\n        /* \"#utility.yul\":5670:5760   */\n    tag_97:\n        /* \"#utility.yul\":5704:5711   */\n      0x00\n        /* \"#utility.yul\":5747:5752   */\n      dup2\n        /* \"#utility.yul\":5740:5753   */\n      iszero\n        /* \"#utility.yul\":5733:5754   */\n      iszero\n        /* \"#utility.yul\":5722:5754   */\n      swap1\n      pop\n        /* \"#utility.yul\":5670:5760   */\n      swap2\n      swap1\n      pop\n      jump\t// out\n        /* \"#utility.yul\":5766:5875   */\n    tag_98:\n        /* \"#utility.yul\":5847:5868   */\n      tag_183\n        /* \"#utility.yul\":5862:5867   */\n      dup2\n        /* \"#utility.yul\":5847:5868   */\n      tag_97\n      jump\t// in\n    tag_183:\n        /* \"#utility.yul\":5842:5845   */\n      dup3\n        /* \"#utility.yul\":5835:5869   */\n      mstore\n        /* \"#utility.yul\":5766:5875   */\n      pop\n      pop\n      jump\t// out\n        /* \"#utility.yul\":5881:6091   */\n    tag_28:\n        /* \"#utility.yul\":5968:5972   */\n      0x00\n        /* \"#utility.yul\":6006:6008   */\n      0x20\n        /* \"#utility.yul\":5995:6004   */\n      dup3\n        /* \"#utility.yul\":5991:6009   */\n      add\n        /* \"#utility.yul\":5983:6009   */\n      swap1\n      pop\n        /* \"#utility.yul\":6019:6084   */\n      tag_185\n        /* \"#utility.yul\":6081:6082   */\n      0x00\n        /* \"#utility.yul\":6070:6079   */\n      dup4\n        /* \"#utility.yul\":6066:6083   */\n      add\n        /* \"#utility.yul\":6057:6063   */\n      dup5\n        /* \"#utility.yul\":6019:6084   */\n      tag_98\n      jump\t// in\n    tag_185:\n        /* \"#utility.yul\":5881:6091   */\n      swap3\n      swap2\n      pop\n      pop\n      jump\t// out\n        /* \"#utility.yul\":6097:6215   */\n    tag_99:\n        /* \"#utility.yul\":6184:6208   */\n      tag_187\n        /* \"#utility.yul\":6202:6207   */\n      dup2\n        /* \"#utility.yul\":6184:6208   */\n      tag_83\n      jump\t// in\n    tag_187:\n        /* \"#utility.yul\":6179:6182   */\n      dup3\n        /* \"#utility.yul\":6172:6209   */\n      mstore\n        /* \"#utility.yul\":6097:6215   */\n      pop\n      pop\n      jump\t// out\n        /* \"#utility.yul\":6221:6443   */\n    tag_33:\n        /* \"#utility.yul\":6314:6318   */\n      0x00\n        /* \"#utility.yul\":6352:6354   */\n      0x20\n        /* \"#utility.yul\":6341:6350   */\n      dup3\n        /* \"#utility.yul\":6337:6355   */\n      add\n        /* \"#utility.yul\":6329:6355   */\n      swap1\n      pop\n        /* \"#utility.yul\":6365:6436   */\n      tag_189\n        /* \"#utility.yul\":6433:6434   */\n      0x00\n        /* \"#utility.yul\":6422:6431   */\n      dup4\n        /* \"#utility.yul\":6418:6435   */\n      add\n        /* \"#utility.yul\":6409:6415   */\n      dup5\n        /* \"#utility.yul\":6365:6436   */\n      tag_99\n      jump\t// in\n    tag_189:\n        /* \"#utility.yul\":6221:6443   */\n      swap3\n      swap2\n      pop\n      pop\n      jump\t// out\n        /* \"#utility.yul\":6449:6618   */\n    tag_100:\n        /* \"#utility.yul\":6533:6544   */\n      0x00\n        /* \"#utility.yul\":6567:6573   */\n      dup3\n        /* \"#utility.yul\":6562:6565   */\n      dup3\n        /* \"#utility.yul\":6555:6574   */\n      mstore\n        /* \"#utility.yul\":6607:6611   */\n      0x20\n        /* \"#utility.yul\":6602:6605   */\n      dup3\n        /* \"#utility.yul\":6598:6612   */\n      add\n        /* \"#utility.yul\":6583:6612   */\n      swap1\n      pop\n        /* \"#utility.yul\":6449:6618   */\n      swap3\n      swap2\n      pop\n      pop\n      jump\t// out\n        /* \"#utility.yul\":6624:6793   */\n    tag_101:\n        /* \"#utility.yul\":6764:6785   */\n      0x7365656420697320616c72656164792073657400000000000000000000000000\n        /* \"#utility.yul\":6760:6761   */\n      0x00\n        /* \"#utility.yul\":6752:6758   */\n      dup3\n        /* \"#utility.yul\":6748:6762   */\n      add\n        /* \"#utility.yul\":6741:6786   */\n      mstore\n        /* \"#utility.yul\":6624:6793   */\n      pop\n      jump\t// out\n        /* \"#utility.yul\":6799:7165   */\n    tag_102:\n        /* \"#utility.yul\":6941:6944   */\n      0x00\n        /* \"#utility.yul\":6962:7029   */\n      tag_193\n        /* \"#utility.yul\":7026:7028   */\n      0x13\n        /* \"#utility.yul\":7021:7024   */\n      dup4\n        /* \"#utility.yul\":6962:7029   */\n      tag_100\n      jump\t// in\n    tag_193:\n        /* \"#utility.yul\":6955:7029   */\n      swap2\n      pop\n        /* \"#utility.yul\":7038:7131   */\n      tag_194\n        /* \"#utility.yul\":7127:7130   */\n      dup3\n        /* \"#utility.yul\":7038:7131   */\n      tag_101\n      jump\t// in\n    tag_194:\n        /* \"#utility.yul\":7156:7158   */\n      0x20\n        /* \"#utility.yul\":7151:7154   */\n      dup3\n        /* \"#utility.yul\":7147:7159   */\n      add\n        /* \"#utility.yul\":7140:7159   */\n      swap1\n      pop\n        /* \"#utility.yul\":6799:7165   */\n      swap2\n      swap1\n      pop\n      jump\t// out\n        /* \"#utility.yul\":7171:7590   */\n    tag_42:\n        /* \"#utility.yul\":7337:7341   */\n      0x00\n        /* \"#utility.yul\":7375:7377   */\n      0x20\n        /* \"#utility.yul\":7364:7373   */\n      dup3\n        /* \"#utility.yul\":7360:7378   */\n      add\n        /* \"#utility.yul\":7352:7378   */\n      swap1\n      pop\n        /* \"#utility.yul\":7424:7433   */\n      dup2\n        /* \"#utility.yul\":7418:7422   */\n      dup2\n        /* \"#utility.yul\":7414:7434   */\n      sub\n        /* \"#utility.yul\":7410:7411   */\n      0x00\n        /* \"#utility.yul\":7399:7408   */\n      dup4\n        /* \"#utility.yul\":7395:7412   */\n      add\n        /* \"#utility.yul\":7388:7435   */\n      mstore\n        /* \"#utility.yul\":7452:7583   */\n      tag_196\n        /* \"#utility.yul\":7578:7582   */\n      dup2\n        /* \"#utility.yul\":7452:7583   */\n      tag_102\n      jump\t// in\n    tag_196:\n        /* \"#utility.yul\":7444:7583   */\n      swap1\n      pop\n        /* \"#utility.yul\":7171:7590   */\n      swap2\n      swap1\n      pop\n      jump\t// out\n        /* \"#utility.yul\":7596:7822   */\n    tag_103:\n        /* \"#utility.yul\":7736:7770   */\n      0x6f6e6c79206d616e61676572706f6f6c2063616e2063616c6c20746869732066\n        /* \"#utility.yul\":7732:7733   */\n      0x00\n        /* \"#utility.yul\":7724:7730   */\n      dup3\n        /* \"#utility.yul\":7720:7734   */\n      add\n        /* \"#utility.yul\":7713:7771   */\n      mstore\n        /* \"#utility.yul\":7805:7814   */\n      0x756e6374696f6e00000000000000000000000000000000000000000000000000\n        /* \"#utility.yul\":7800:7802   */\n      0x20\n        /* \"#utility.yul\":7792:7798   */\n      dup3\n        /* \"#utility.yul\":7788:7803   */\n      add\n        /* \"#utility.yul\":7781:7815   */\n      mstore\n        /* \"#utility.yul\":7596:7822   */\n      pop\n      jump\t// out\n        /* \"#utility.yul\":7828:8194   */\n    tag_104:\n        /* \"#utility.yul\":7970:7973   */\n      0x00\n        /* \"#utility.yul\":7991:8058   */\n      tag_199\n        /* \"#utility.yul\":8055:8057   */\n      0x27\n        /* \"#utility.yul\":8050:8053   */\n      dup4\n        /* \"#utility.yul\":7991:8058   */\n      tag_100\n      jump\t// in\n    tag_199:\n        /* \"#utility.yul\":7984:8058   */\n      swap2\n      pop\n        /* \"#utility.yul\":8067:8160   */\n      tag_200\n        /* \"#utility.yul\":8156:8159   */\n      dup3\n        /* \"#utility.yul\":8067:8160   */\n      tag_103\n      jump\t// in\n    tag_200:\n        /* \"#utility.yul\":8185:8187   */\n      0x40\n        /* \"#utility.yul\":8180:8183   */\n      dup3\n        /* \"#utility.yul\":8176:8188   */\n      add\n        /* \"#utility.yul\":8169:8188   */\n      swap1\n      pop\n        /* \"#utility.yul\":7828:8194   */\n      swap2\n      swap1\n      pop\n      jump\t// out\n        /* \"#utility.yul\":8200:8619   */\n    tag_45:\n        /* \"#utility.yul\":8366:8370   */\n      0x00\n        /* \"#utility.yul\":8404:8406   */\n      0x20\n        /* \"#utility.yul\":8393:8402   */\n      dup3\n        /* \"#utility.yul\":8389:8407   */\n      add\n        /* \"#utility.yul\":8381:8407   */\n      swap1\n      pop\n        /* \"#utility.yul\":8453:8462   */\n      dup2\n        /* \"#utility.yul\":8447:8451   */\n      dup2\n        /* \"#utility.yul\":8443:8463   */\n      sub\n        /* \"#utility.yul\":8439:8440   */\n      0x00\n        /* \"#utility.yul\":8428:8437   */\n      dup4\n        /* \"#utility.yul\":8424:8441   */\n      add\n        /* \"#utility.yul\":8417:8464   */\n      mstore\n        /* \"#utility.yul\":8481:8612   */\n      tag_202\n        /* \"#utility.yul\":8607:8611   */\n      dup2\n        /* \"#utility.yul\":8481:8612   */\n      tag_104\n      jump\t// in\n    tag_202:\n        /* \"#utility.yul\":8473:8612   */\n      swap1\n      pop\n        /* \"#utility.yul\":8200:8619   */\n      swap2\n      swap1\n      pop\n      jump\t// out\n        /* \"#utility.yul\":8625:8805   */\n    tag_105:\n        /* \"#utility.yul\":8673:8750   */\n      0x4e487b7100000000000000000000000000000000000000000000000000000000\n        /* \"#utility.yul\":8670:8671   */\n      0x00\n        /* \"#utility.yul\":8663:8751   */\n      mstore\n        /* \"#utility.yul\":8770:8774   */\n      0x11\n        /* \"#utility.yul\":8767:8768   */\n      0x04\n        /* \"#utility.yul\":8760:8775   */\n      mstore\n        /* \"#utility.yul\":8794:8798   */\n      0x24\n        /* \"#utility.yul\":8791:8792   */\n      0x00\n        /* \"#utility.yul\":8784:8799   */\n      revert\n        /* \"#utility.yul\":8811:9116   */\n    tag_47:\n        /* \"#utility.yul\":8851:8854   */\n      0x00\n        /* \"#utility.yul\":8870:8890   */\n      tag_205\n        /* \"#utility.yul\":8888:8889   */\n      dup3\n        /* \"#utility.yul\":8870:8890   */\n      tag_83\n      jump\t// in\n    tag_205:\n        /* \"#utility.yul\":8865:8890   */\n      swap2\n      pop\n        /* \"#utility.yul\":8904:8924   */\n      tag_206\n        /* \"#utility.yul\":8922:8923   */\n      dup4\n        /* \"#utility.yul\":8904:8924   */\n      tag_83\n      jump\t// in\n    tag_206:\n        /* \"#utility.yul\":8899:8924   */\n      swap3\n      pop\n        /* \"#utility.yul\":9058:9059   */\n      dup3\n        /* \"#utility.yul\":8990:9056   */\n      0xffffffffffffffffffffffffffffffffffffffffffffffffffffffffffffffff\n        /* \"#utility.yul\":8986:9060   */\n      sub\n        /* \"#utility.yul\":8983:8984   */\n      dup3\n        /* \"#utility.yul\":8980:9061   */\n      gt\n        /* \"#utility.yul\":8977:9084   */\n      iszero\n      tag_207\n      jumpi\n        /* \"#utility.yul\":9064:9082   */\n      tag_208\n      tag_105\n      jump\t// in\n    tag_208:\n        /* \"#utility.yul\":8977:9084   */\n    tag_207:\n        /* \"#utility.yul\":9108:9109   */\n      dup3\n        /* \"#utility.yul\":9105:9106   */\n      dup3\n        /* \"#utility.yul\":9101:9110   */\n      add\n        /* \"#utility.yul\":9094:9110   */\n      swap1\n      pop\n        /* \"#utility.yul\":8811:9116   */\n      swap3\n      swap2\n      pop\n      pop\n      jump\t// out\n        /* \"#utility.yul\":9122:9291   */\n    tag_106:\n        /* \"#utility.yul\":9262:9283   */\n      0x73656564206973206e6f74207965742073657400000000000000000000000000\n        /* \"#utility.yul\":9258:9259   */\n      0x00\n        /* \"#utility.yul\":9250:9256   */\n      dup3\n        /* \"#utility.yul\":9246:9260   */\n      add\n        /* \"#utility.yul\":9239:9284   */\n      mstore\n        /* \"#utility.yul\":9122:9291   */\n      pop\n      jump\t// out\n        /* \"#utility.yul\":9297:9663   */\n    tag_107:\n        /* \"#utility.yul\":9439:9442   */\n      0x00\n        /* \"#utility.yul\":9460:9527   */\n      tag_211\n        /* \"#utility.yul\":9524:9526   */\n      0x13\n        /* \"#utility.yul\":9519:9522   */\n      dup4\n        /* \"#utility.yul\":9460:9527   */\n      tag_100\n      jump\t// in\n    tag_211:\n        /* \"#utility.yul\":9453:9527   */\n      swap2\n      pop\n        /* \"#utility.yul\":9536:9629   */\n      tag_212\n        /* \"#utility.yul\":9625:9628   */\n      dup3\n        /* \"#utility.yul\":9536:9629   */\n      tag_106\n      jump\t// in\n    tag_212:\n        /* \"#utility.yul\":9654:9656   */\n      0x20\n        /* \"#utility.yul\":9649:9652   */\n      dup3\n        /* \"#utility.yul\":9645:9657   */\n      add\n        /* \"#utility.yul\":9638:9657   */\n      swap1\n      pop\n        /* \"#utility.yul\":9297:9663   */\n      swap2\n      swap1\n      pop\n      jump\t// out\n        /* \"#utility.yul\":9669:10088   */\n    tag_57:\n        /* \"#utility.yul\":9835:9839   */\n      0x00\n        /* \"#utility.yul\":9873:9875   */\n      0x20\n        /* \"#utility.yul\":9862:9871   */\n      dup3\n        /* \"#utility.yul\":9858:9876   */\n      add\n        /* \"#utility.yul\":9850:9876   */\n      swap1\n      pop\n        /* \"#utility.yul\":9922:9931   */\n      dup2\n        /* \"#utility.yul\":9916:9920   */\n      dup2\n        /* \"#utility.yul\":9912:9932   */\n      sub\n        /* \"#utility.yul\":9908:9909   */\n      0x00\n        /* \"#utility.yul\":9897:9906   */\n      dup4\n        /* \"#utility.yul\":9893:9910   */\n      add\n        /* \"#utility.yul\":9886:9933   */\n      mstore\n        /* \"#utility.yul\":9950:10081   */\n      tag_214\n        /* \"#utility.yul\":10076:10080   */\n      dup2\n        /* \"#utility.yul\":9950:10081   */\n      tag_107\n      jump\t// in\n    tag_214:\n        /* \"#utility.yul\":9942:10081   */\n      swap1\n      pop\n        /* \"#utility.yul\":9669:10088   */\n      swap2\n      swap1\n      pop\n      jump\t// out\n        /* \"#utility.yul\":10094:10272   */\n    tag_108:\n        /* \"#utility.yul\":10234:10264   */\n      0x646f6e6174696f6e7320617265206e6f7420636c6f7365642079657400000000\n        /* \"#utility.yul\":10230:10231   */\n      0x00\n        /* \"#utility.yul\":10222:10228   */\n      dup3\n        /* \"#utility.yul\":10218:10232   */\n      add\n        /* \"#utility.yul\":10211:10265   */\n      mstore\n        /* \"#utility.yul\":10094:10272   */\n      pop\n      jump\t// out\n        /* \"#utility.yul\":10278:10644   */\n    tag_109:\n        /* \"#utility.yul\":10420:10423   */\n      0x00\n        /* \"#utility.yul\":10441:10508   */\n      tag_217\n        /* \"#utility.yul\":10505:10507   */\n      0x1c\n        /* \"#utility.yul\":10500:10503   */\n      dup4\n        /* \"#utility.yul\":10441:10508   */\n      tag_100\n      jump\t// in\n    tag_217:\n        /* \"#utility.yul\":10434:10508   */\n      swap2\n      pop\n        /* \"#utility.yul\":10517:10610   */\n      tag_218\n        /* \"#utility.yul\":10606:10609   */\n      dup3\n        /* \"#utility.yul\":10517:10610   */\n      tag_108\n      jump\t// in\n    tag_218:\n        /* \"#utility.yul\":10635:10637   */\n      0x20\n        /* \"#utility.yul\":10630:10633   */\n      dup3\n        /* \"#utility.yul\":10626:10638   */\n      add\n        /* \"#utility.yul\":10619:10638   */\n      swap1\n      pop\n        /* \"#utility.yul\":10278:10644   */\n      swap2\n      swap1\n      pop\n      jump\t// out\n        /* \"#utility.yul\":10650:11069   */\n    tag_60:\n        /* \"#utility.yul\":10816:10820   */\n      0x00\n        /* \"#utility.yul\":10854:10856   */\n      0x20\n        /* \"#utility.yul\":10843:10852   */\n      dup3\n        /* \"#utility.yul\":10839:10857   */\n      add\n        /* \"#utility.yul\":10831:10857   */\n      swap1\n      pop\n        /* \"#utility.yul\":10903:10912   */\n      dup2\n        /* \"#utility.yul\":10897:10901   */\n      dup2\n        /* \"#utility.yul\":10893:10913   */\n      sub\n        /* \"#utility.yul\":10889:10890   */\n      0x00\n        /* \"#utility.yul\":10878:10887   */\n      dup4\n        /* \"#utility.yul\":10874:10891   */\n      add\n        /* \"#utility.yul\":10867:10914   */\n      mstore\n        /* \"#utility.yul\":10931:11062   */\n      tag_220\n        /* \"#utility.yul\":11057:11061   */\n      dup2\n        /* \"#utility.yul\":10931:11062   */\n      tag_109\n      jump\t// in\n    tag_220:\n        /* \"#utility.yul\":10923:11062   */\n      swap1\n      pop\n        /* \"#utility.yul\":10650:11069   */\n      swap2\n      swap1\n      pop\n      jump\t// out\n        /* \"#utility.yul\":11075:11193   */\n    tag_110:\n        /* \"#utility.yul\":11162:11186   */\n      tag_222\n        /* \"#utility.yul\":11180:11185   */\n      dup2\n        /* \"#utility.yul\":11162:11186   */\n      tag_77\n      jump\t// in\n    tag_222:\n        /* \"#utility.yul\":11157:11160   */\n      dup3\n        /* \"#utility.yul\":11150:11187   */\n      mstore\n        /* \"#utility.yul\":11075:11193   */\n      pop\n      pop\n      jump\t// out\n        /* \"#utility.yul\":11199:11531   */\n    tag_63:\n        /* \"#utility.yul\":11320:11324   */\n      0x00\n        /* \"#utility.yul\":11358:11360   */\n      0x40\n        /* \"#utility.yul\":11347:11356   */\n      dup3\n        /* \"#utility.yul\":11343:11361   */\n      add\n        /* \"#utility.yul\":11335:11361   */\n      swap1\n      pop\n        /* \"#utility.yul\":11371:11442   */\n      tag_224\n        /* \"#utility.yul\":11439:11440   */\n      0x00\n        /* \"#utility.yul\":11428:11437   */\n      dup4\n        /* \"#utility.yul\":11424:11441   */\n      add\n        /* \"#utility.yul\":11415:11421   */\n      dup6\n        /* \"#utility.yul\":11371:11442   */\n      tag_82\n      jump\t// in\n    tag_224:\n        /* \"#utility.yul\":11452:11524   */\n      tag_225\n        /* \"#utility.yul\":11520:11522   */\n      0x20\n        /* \"#utility.yul\":11509:11518   */\n      dup4\n        /* \"#utility.yul\":11505:11523   */\n      add\n        /* \"#utility.yul\":11496:11502   */\n      dup5\n        /* \"#utility.yul\":11452:11524   */\n      tag_110\n      jump\t// in\n    tag_225:\n        /* \"#utility.yul\":11199:11531   */\n      swap4\n      swap3\n      pop\n      pop\n      pop\n      jump\t// out\n        /* \"#utility.yul\":11537:11869   */\n    tag_66:\n        /* \"#utility.yul\":11658:11662   */\n      0x00\n        /* \"#utility.yul\":11696:11698   */\n      0x40\n        /* \"#utility.yul\":11685:11694   */\n      dup3\n        /* \"#utility.yul\":11681:11699   */\n      add\n        /* \"#utility.yul\":11673:11699   */\n      swap1\n      pop\n        /* \"#utility.yul\":11709:11780   */\n      tag_227\n        /* \"#utility.yul\":11777:11778   */\n      0x00\n        /* \"#utility.yul\":11766:11775   */\n      dup4\n        /* \"#utility.yul\":11762:11779   */\n      add\n        /* \"#utility.yul\":11753:11759   */\n      dup6\n        /* \"#utility.yul\":11709:11780   */\n      tag_110\n      jump\t// in\n    tag_227:\n        /* \"#utility.yul\":11790:11862   */\n      tag_228\n        /* \"#utility.yul\":11858:11860   */\n      0x20\n        /* \"#utility.yul\":11847:11856   */\n      dup4\n        /* \"#utility.yul\":11843:11861   */\n      add\n        /* \"#utility.yul\":11834:11840   */\n      dup5\n        /* \"#utility.yul\":11790:11862   */\n      tag_110\n      jump\t// in\n    tag_228:\n        /* \"#utility.yul\":11537:11869   */\n      swap4\n      swap3\n      pop\n      pop\n      pop\n      jump\t// out\n\n    auxdata: 0xa2646970667358221220f61080cb628d1d397cdbf0a41a4ae84e085314ec19fe494657e2a6429c2cfa1164736f6c634300080d0033\n}\n",
				"bytecode": {
					"linkReferences": {},
					"object": "608060405234801561001057600080fd5b50336000806101000a81548173ffffffffffffffffffffffffffffffffffffffff021916908373ffffffffffffffffffffffffffffffffffffffff1602179055506000600360006101000a81548160ff0219169083151502179055506000600360016101000a81548160ff021916908315150217905550610b79806100966000396000f3fe608060405234801561001057600080fd5b50600436106100625760003560e01c80631e5f91491461006757806341114538146100975780634abfa163146100b35780635c6b143c146100e3578063701fd0f114610113578063dedfe22314610143575b600080fd5b610081600480360381019061007c9190610549565b610161565b60405161008e91906105b7565b60405180910390f35b6100b160048036038101906100ac9190610549565b610178565b005b6100cd60048036038101906100c89190610608565b6102a9565b6040516100da91906105b7565b60405180910390f35b6100fd60048036038101906100f891906107ba565b6102e8565b60405161010a9190610831565b60405180910390f35b61012d60048036038101906101289190610549565b610314565b60405161013a919061085b565b60405180910390f35b61014b610434565b60405161015891906105b7565b60405180910390f35b60008061016d83610314565b905033915050919050565b600360009054906101000a900460ff16156101c8576040517f08c379a00000000000000000000000000000000000000000000000000000000081526004016101bf906108d3565b60405180910390fd5b60008054906101000a900473ffffffffffffffffffffffffffffffffffffffff1673ffffffffffffffffffffffffffffffffffffffff163373ffffffffffffffffffffffffffffffffffffffff1614610256576040517f08c379a000000000000000000000000000000000000000000000000000000000815260040161024d90610965565b60405180910390fd5b6001600360016101000a81548160ff0219169083151502179055508060028190555060014361028591906109b4565b6004819055506001600360006101000a81548160ff02191690831515021790555050565b600181815481106102b957600080fd5b906000526020600020016000915054906101000a900473ffffffffffffffffffffffffffffffffffffffff1681565b60008260019080519060200190610300929190610458565b5061030a82610178565b6001905092915050565b6000600360009054906101000a900460ff16610365576040517f08c379a000000000000000000000000000000000000000000000000000000000815260040161035c90610a56565b60405180910390fd5b600360019054906101000a900460ff166103b4576040517f08c379a00000000000000000000000000000000000000000000000000000000081526004016103ab90610ac2565b60405180910390fd5b43600454106103c257600080fd5b60025433836040516020016103d8929190610af1565b60405160208183030381529060405280519060200120146103f857600080fd5b60008260045440604051602001610410929190610b1a565b6040516020818303038152906040528051906020012060001c905080915050919050565b60008054906101000a900473ffffffffffffffffffffffffffffffffffffffff1681565b8280548282559060005260206000209081019282156104d1579160200282015b828111156104d05782518260006101000a81548173ffffffffffffffffffffffffffffffffffffffff021916908373ffffffffffffffffffffffffffffffffffffffff16021790555091602001919060010190610478565b5b5090506104de91906104e2565b5090565b5b808211156104fb5760008160009055506001016104e3565b5090565b6000604051905090565b600080fd5b600080fd5b6000819050919050565b61052681610513565b811461053157600080fd5b50565b6000813590506105438161051d565b92915050565b60006020828403121561055f5761055e610509565b5b600061056d84828501610534565b91505092915050565b600073ffffffffffffffffffffffffffffffffffffffff82169050919050565b60006105a182610576565b9050919050565b6105b181610596565b82525050565b60006020820190506105cc60008301846105a8565b92915050565b6000819050919050565b6105e5816105d2565b81146105f057600080fd5b50565b600081359050610602816105dc565b92915050565b60006020828403121561061e5761061d610509565b5b600061062c848285016105f3565b91505092915050565b600080fd5b6000601f19601f8301169050919050565b7f4e487b7100000000000000000000000000000000000000000000000000000000600052604160045260246000fd5b6106838261063a565b810181811067ffffffffffffffff821117156106a2576106a161064b565b5b80604052505050565b60006106b56104ff565b90506106c1828261067a565b919050565b600067ffffffffffffffff8211156106e1576106e061064b565b5b602082029050602081019050919050565b600080fd5b61070081610596565b811461070b57600080fd5b50565b60008135905061071d816106f7565b92915050565b6000610736610731846106c6565b6106ab565b90508083825260208201905060208402830185811115610759576107586106f2565b5b835b81811015610782578061076e888261070e565b84526020840193505060208101905061075b565b5050509392505050565b600082601f8301126107a1576107a0610635565b5b81356107b1848260208601610723565b91505092915050565b600080604083850312156107d1576107d0610509565b5b600083013567ffffffffffffffff8111156107ef576107ee61050e565b5b6107fb8582860161078c565b925050602061080c85828601610534565b9150509250929050565b60008115159050919050565b61082b81610816565b82525050565b60006020820190506108466000830184610822565b92915050565b610855816105d2565b82525050565b6000602082019050610870600083018461084c565b92915050565b600082825260208201905092915050565b7f7365656420697320616c72656164792073657400000000000000000000000000600082015250565b60006108bd601383610876565b91506108c882610887565b602082019050919050565b600060208201905081810360008301526108ec816108b0565b9050919050565b7f6f6e6c79206d616e61676572706f6f6c2063616e2063616c6c2074686973206660008201527f756e6374696f6e00000000000000000000000000000000000000000000000000602082015250565b600061094f602783610876565b915061095a826108f3565b604082019050919050565b6000602082019050818103600083015261097e81610942565b9050919050565b7f4e487b7100000000000000000000000000000000000000000000000000000000600052601160045260246000fd5b60006109bf826105d2565b91506109ca836105d2565b9250827fffffffffffffffffffffffffffffffffffffffffffffffffffffffffffffffff038211156109ff576109fe610985565b5b828201905092915050565b7f73656564206973206e6f74207965742073657400000000000000000000000000600082015250565b6000610a40601383610876565b9150610a4b82610a0a565b602082019050919050565b60006020820190508181036000830152610a6f81610a33565b9050919050565b7f646f6e6174696f6e7320617265206e6f7420636c6f7365642079657400000000600082015250565b6000610aac601c83610876565b9150610ab782610a76565b602082019050919050565b60006020820190508181036000830152610adb81610a9f565b9050919050565b610aeb81610513565b82525050565b6000604082019050610b0660008301856105a8565b610b136020830184610ae2565b9392505050565b6000604082019050610b2f6000830185610ae2565b610b3c6020830184610ae2565b939250505056fea2646970667358221220f61080cb628d1d397cdbf0a41a4ae84e085314ec19fe494657e2a6429c2cfa1164736f6c634300080d0033",
					"opcodes": "PUSH1 0x80 PUSH1 0x40 MSTORE CALLVALUE DUP1 ISZERO PUSH2 0x10 JUMPI PUSH1 0x0 DUP1 REVERT JUMPDEST POP CALLER PUSH1 0x0 DUP1 PUSH2 0x100 EXP DUP2 SLOAD DUP2 PUSH20 0xFFFFFFFFFFFFFFFFFFFFFFFFFFFFFFFFFFFFFFFF MUL NOT AND SWAP1 DUP4 PUSH20 0xFFFFFFFFFFFFFFFFFFFFFFFFFFFFFFFFFFFFFFFF AND MUL OR SWAP1 SSTORE POP PUSH1 0x0 PUSH1 0x3 PUSH1 0x0 PUSH2 0x100 EXP DUP2 SLOAD DUP2 PUSH1 0xFF MUL NOT AND SWAP1 DUP4 ISZERO ISZERO MUL OR SWAP1 SSTORE POP PUSH1 0x0 PUSH1 0x3 PUSH1 0x1 PUSH2 0x100 EXP DUP2 SLOAD DUP2 PUSH1 0xFF MUL NOT AND SWAP1 DUP4 ISZERO ISZERO MUL OR SWAP1 SSTORE POP PUSH2 0xB79 DUP1 PUSH2 0x96 PUSH1 0x0 CODECOPY PUSH1 0x0 RETURN INVALID PUSH1 0x80 PUSH1 0x40 MSTORE CALLVALUE DUP1 ISZERO PUSH2 0x10 JUMPI PUSH1 0x0 DUP1 REVERT JUMPDEST POP PUSH1 0x4 CALLDATASIZE LT PUSH2 0x62 JUMPI PUSH1 0x0 CALLDATALOAD PUSH1 0xE0 SHR DUP1 PUSH4 0x1E5F9149 EQ PUSH2 0x67 JUMPI DUP1 PUSH4 0x41114538 EQ PUSH2 0x97 JUMPI DUP1 PUSH4 0x4ABFA163 EQ PUSH2 0xB3 JUMPI DUP1 PUSH4 0x5C6B143C EQ PUSH2 0xE3 JUMPI DUP1 PUSH4 0x701FD0F1 EQ PUSH2 0x113 JUMPI DUP1 PUSH4 0xDEDFE223 EQ PUSH2 0x143 JUMPI JUMPDEST PUSH1 0x0 DUP1 REVERT JUMPDEST PUSH2 0x81 PUSH1 0x4 DUP1 CALLDATASIZE SUB DUP2 ADD SWAP1 PUSH2 0x7C SWAP2 SWAP1 PUSH2 0x549 JUMP JUMPDEST PUSH2 0x161 JUMP JUMPDEST PUSH1 0x40 MLOAD PUSH2 0x8E SWAP2 SWAP1 PUSH2 0x5B7 JUMP JUMPDEST PUSH1 0x40 MLOAD DUP1 SWAP2 SUB SWAP1 RETURN JUMPDEST PUSH2 0xB1 PUSH1 0x4 DUP1 CALLDATASIZE SUB DUP2 ADD SWAP1 PUSH2 0xAC SWAP2 SWAP1 PUSH2 0x549 JUMP JUMPDEST PUSH2 0x178 JUMP JUMPDEST STOP JUMPDEST PUSH2 0xCD PUSH1 0x4 DUP1 CALLDATASIZE SUB DUP2 ADD SWAP1 PUSH2 0xC8 SWAP2 SWAP1 PUSH2 0x608 JUMP JUMPDEST PUSH2 0x2A9 JUMP JUMPDEST PUSH1 0x40 MLOAD PUSH2 0xDA SWAP2 SWAP1 PUSH2 0x5B7 JUMP JUMPDEST PUSH1 0x40 MLOAD DUP1 SWAP2 SUB SWAP1 RETURN JUMPDEST PUSH2 0xFD PUSH1 0x4 DUP1 CALLDATASIZE SUB DUP2 ADD SWAP1 PUSH2 0xF8 SWAP2 SWAP1 PUSH2 0x7BA JUMP JUMPDEST PUSH2 0x2E8 JUMP JUMPDEST PUSH1 0x40 MLOAD PUSH2 0x10A SWAP2 SWAP1 PUSH2 0x831 JUMP JUMPDEST PUSH1 0x40 MLOAD DUP1 SWAP2 SUB SWAP1 RETURN JUMPDEST PUSH2 0x12D PUSH1 0x4 DUP1 CALLDATASIZE SUB DUP2 ADD SWAP1 PUSH2 0x128 SWAP2 SWAP1 PUSH2 0x549 JUMP JUMPDEST PUSH2 0x314 JUMP JUMPDEST PUSH1 0x40 MLOAD PUSH2 0x13A SWAP2 SWAP1 PUSH2 0x85B JUMP JUMPDEST PUSH1 0x40 MLOAD DUP1 SWAP2 SUB SWAP1 RETURN JUMPDEST PUSH2 0x14B PUSH2 0x434 JUMP JUMPDEST PUSH1 0x40 MLOAD PUSH2 0x158 SWAP2 SWAP1 PUSH2 0x5B7 JUMP JUMPDEST PUSH1 0x40 MLOAD DUP1 SWAP2 SUB SWAP1 RETURN JUMPDEST PUSH1 0x0 DUP1 PUSH2 0x16D DUP4 PUSH2 0x314 JUMP JUMPDEST SWAP1 POP CALLER SWAP2 POP POP SWAP2 SWAP1 POP JUMP JUMPDEST PUSH1 0x3 PUSH1 0x0 SWAP1 SLOAD SWAP1 PUSH2 0x100 EXP SWAP1 DIV PUSH1 0xFF AND ISZERO PUSH2 0x1C8 JUMPI PUSH1 0x40 MLOAD PUSH32 0x8C379A000000000000000000000000000000000000000000000000000000000 DUP2 MSTORE PUSH1 0x4 ADD PUSH2 0x1BF SWAP1 PUSH2 0x8D3 JUMP JUMPDEST PUSH1 0x40 MLOAD DUP1 SWAP2 SUB SWAP1 REVERT JUMPDEST PUSH1 0x0 DUP1 SLOAD SWAP1 PUSH2 0x100 EXP SWAP1 DIV PUSH20 0xFFFFFFFFFFFFFFFFFFFFFFFFFFFFFFFFFFFFFFFF AND PUSH20 0xFFFFFFFFFFFFFFFFFFFFFFFFFFFFFFFFFFFFFFFF AND CALLER PUSH20 0xFFFFFFFFFFFFFFFFFFFFFFFFFFFFFFFFFFFFFFFF AND EQ PUSH2 0x256 JUMPI PUSH1 0x40 MLOAD PUSH32 0x8C379A000000000000000000000000000000000000000000000000000000000 DUP2 MSTORE PUSH1 0x4 ADD PUSH2 0x24D SWAP1 PUSH2 0x965 JUMP JUMPDEST PUSH1 0x40 MLOAD DUP1 SWAP2 SUB SWAP1 REVERT JUMPDEST PUSH1 0x1 PUSH1 0x3 PUSH1 0x1 PUSH2 0x100 EXP DUP2 SLOAD DUP2 PUSH1 0xFF MUL NOT AND SWAP1 DUP4 ISZERO ISZERO MUL OR SWAP1 SSTORE POP DUP1 PUSH1 0x2 DUP2 SWAP1 SSTORE POP PUSH1 0x1 NUMBER PUSH2 0x285 SWAP2 SWAP1 PUSH2 0x9B4 JUMP JUMPDEST PUSH1 0x4 DUP2 SWAP1 SSTORE POP PUSH1 0x1 PUSH1 0x3 PUSH1 0x0 PUSH2 0x100 EXP DUP2 SLOAD DUP2 PUSH1 0xFF MUL NOT AND SWAP1 DUP4 ISZERO ISZERO MUL OR SWAP1 SSTORE POP POP JUMP JUMPDEST PUSH1 0x1 DUP2 DUP2 SLOAD DUP2 LT PUSH2 0x2B9 JUMPI PUSH1 0x0 DUP1 REVERT JUMPDEST SWAP1 PUSH1 0x0 MSTORE PUSH1 0x20 PUSH1 0x0 KECCAK256 ADD PUSH1 0x0 SWAP2 POP SLOAD SWAP1 PUSH2 0x100 EXP SWAP1 DIV PUSH20 0xFFFFFFFFFFFFFFFFFFFFFFFFFFFFFFFFFFFFFFFF AND DUP2 JUMP JUMPDEST PUSH1 0x0 DUP3 PUSH1 0x1 SWAP1 DUP1 MLOAD SWAP1 PUSH1 0x20 ADD SWAP1 PUSH2 0x300 SWAP3 SWAP2 SWAP1 PUSH2 0x458 JUMP JUMPDEST POP PUSH2 0x30A DUP3 PUSH2 0x178 JUMP JUMPDEST PUSH1 0x1 SWAP1 POP SWAP3 SWAP2 POP POP JUMP JUMPDEST PUSH1 0x0 PUSH1 0x3 PUSH1 0x0 SWAP1 SLOAD SWAP1 PUSH2 0x100 EXP SWAP1 DIV PUSH1 0xFF AND PUSH2 0x365 JUMPI PUSH1 0x40 MLOAD PUSH32 0x8C379A000000000000000000000000000000000000000000000000000000000 DUP2 MSTORE PUSH1 0x4 ADD PUSH2 0x35C SWAP1 PUSH2 0xA56 JUMP JUMPDEST PUSH1 0x40 MLOAD DUP1 SWAP2 SUB SWAP1 REVERT JUMPDEST PUSH1 0x3 PUSH1 0x1 SWAP1 SLOAD SWAP1 PUSH2 0x100 EXP SWAP1 DIV PUSH1 0xFF AND PUSH2 0x3B4 JUMPI PUSH1 0x40 MLOAD PUSH32 0x8C379A000000000000000000000000000000000000000000000000000000000 DUP2 MSTORE PUSH1 0x4 ADD PUSH2 0x3AB SWAP1 PUSH2 0xAC2 JUMP JUMPDEST PUSH1 0x40 MLOAD DUP1 SWAP2 SUB SWAP1 REVERT JUMPDEST NUMBER PUSH1 0x4 SLOAD LT PUSH2 0x3C2 JUMPI PUSH1 0x0 DUP1 REVERT JUMPDEST PUSH1 0x2 SLOAD CALLER DUP4 PUSH1 0x40 MLOAD PUSH1 0x20 ADD PUSH2 0x3D8 SWAP3 SWAP2 SWAP1 PUSH2 0xAF1 JUMP JUMPDEST PUSH1 0x40 MLOAD PUSH1 0x20 DUP2 DUP4 SUB SUB DUP2 MSTORE SWAP1 PUSH1 0x40 MSTORE DUP1 MLOAD SWAP1 PUSH1 0x20 ADD KECCAK256 EQ PUSH2 0x3F8 JUMPI PUSH1 0x0 DUP1 REVERT JUMPDEST PUSH1 0x0 DUP3 PUSH1 0x4 SLOAD BLOCKHASH PUSH1 0x40 MLOAD PUSH1 0x20 ADD PUSH2 0x410 SWAP3 SWAP2 SWAP1 PUSH2 0xB1A JUMP JUMPDEST PUSH1 0x40 MLOAD PUSH1 0x20 DUP2 DUP4 SUB SUB DUP2 MSTORE SWAP1 PUSH1 0x40 MSTORE DUP1 MLOAD SWAP1 PUSH1 0x20 ADD KECCAK256 PUSH1 0x0 SHR SWAP1 POP DUP1 SWAP2 POP POP SWAP2 SWAP1 POP JUMP JUMPDEST PUSH1 0x0 DUP1 SLOAD SWAP1 PUSH2 0x100 EXP SWAP1 DIV PUSH20 0xFFFFFFFFFFFFFFFFFFFFFFFFFFFFFFFFFFFFFFFF AND DUP2 JUMP JUMPDEST DUP3 DUP1 SLOAD DUP3 DUP3 SSTORE SWAP1 PUSH1 0x0 MSTORE PUSH1 0x20 PUSH1 0x0 KECCAK256 SWAP1 DUP2 ADD SWAP3 DUP3 ISZERO PUSH2 0x4D1 JUMPI SWAP2 PUSH1 0x20 MUL DUP3 ADD JUMPDEST DUP3 DUP2 GT ISZERO PUSH2 0x4D0 JUMPI DUP3 MLOAD DUP3 PUSH1 0x0 PUSH2 0x100 EXP DUP2 SLOAD DUP2 PUSH20 0xFFFFFFFFFFFFFFFFFFFFFFFFFFFFFFFFFFFFFFFF MUL NOT AND SWAP1 DUP4 PUSH20 0xFFFFFFFFFFFFFFFFFFFFFFFFFFFFFFFFFFFFFFFF AND MUL OR SWAP1 SSTORE POP SWAP2 PUSH1 0x20 ADD SWAP2 SWAP1 PUSH1 0x1 ADD SWAP1 PUSH2 0x478 JUMP JUMPDEST JUMPDEST POP SWAP1 POP PUSH2 0x4DE SWAP2 SWAP1 PUSH2 0x4E2 JUMP JUMPDEST POP SWAP1 JUMP JUMPDEST JUMPDEST DUP1 DUP3 GT ISZERO PUSH2 0x4FB JUMPI PUSH1 0x0 DUP2 PUSH1 0x0 SWAP1 SSTORE POP PUSH1 0x1 ADD PUSH2 0x4E3 JUMP JUMPDEST POP SWAP1 JUMP JUMPDEST PUSH1 0x0 PUSH1 0x40 MLOAD SWAP1 POP SWAP1 JUMP JUMPDEST PUSH1 0x0 DUP1 REVERT JUMPDEST PUSH1 0x0 DUP1 REVERT JUMPDEST PUSH1 0x0 DUP2 SWAP1 POP SWAP2 SWAP1 POP JUMP JUMPDEST PUSH2 0x526 DUP2 PUSH2 0x513 JUMP JUMPDEST DUP2 EQ PUSH2 0x531 JUMPI PUSH1 0x0 DUP1 REVERT JUMPDEST POP JUMP JUMPDEST PUSH1 0x0 DUP2 CALLDATALOAD SWAP1 POP PUSH2 0x543 DUP2 PUSH2 0x51D JUMP JUMPDEST SWAP3 SWAP2 POP POP JUMP JUMPDEST PUSH1 0x0 PUSH1 0x20 DUP3 DUP5 SUB SLT ISZERO PUSH2 0x55F JUMPI PUSH2 0x55E PUSH2 0x509 JUMP JUMPDEST JUMPDEST PUSH1 0x0 PUSH2 0x56D DUP5 DUP3 DUP6 ADD PUSH2 0x534 JUMP JUMPDEST SWAP2 POP POP SWAP3 SWAP2 POP POP JUMP JUMPDEST PUSH1 0x0 PUSH20 0xFFFFFFFFFFFFFFFFFFFFFFFFFFFFFFFFFFFFFFFF DUP3 AND SWAP1 POP SWAP2 SWAP1 POP JUMP JUMPDEST PUSH1 0x0 PUSH2 0x5A1 DUP3 PUSH2 0x576 JUMP JUMPDEST SWAP1 POP SWAP2 SWAP1 POP JUMP JUMPDEST PUSH2 0x5B1 DUP2 PUSH2 0x596 JUMP JUMPDEST DUP3 MSTORE POP POP JUMP JUMPDEST PUSH1 0x0 PUSH1 0x20 DUP3 ADD SWAP1 POP PUSH2 0x5CC PUSH1 0x0 DUP4 ADD DUP5 PUSH2 0x5A8 JUMP JUMPDEST SWAP3 SWAP2 POP POP JUMP JUMPDEST PUSH1 0x0 DUP2 SWAP1 POP SWAP2 SWAP1 POP JUMP JUMPDEST PUSH2 0x5E5 DUP2 PUSH2 0x5D2 JUMP JUMPDEST DUP2 EQ PUSH2 0x5F0 JUMPI PUSH1 0x0 DUP1 REVERT JUMPDEST POP JUMP JUMPDEST PUSH1 0x0 DUP2 CALLDATALOAD SWAP1 POP PUSH2 0x602 DUP2 PUSH2 0x5DC JUMP JUMPDEST SWAP3 SWAP2 POP POP JUMP JUMPDEST PUSH1 0x0 PUSH1 0x20 DUP3 DUP5 SUB SLT ISZERO PUSH2 0x61E JUMPI PUSH2 0x61D PUSH2 0x509 JUMP JUMPDEST JUMPDEST PUSH1 0x0 PUSH2 0x62C DUP5 DUP3 DUP6 ADD PUSH2 0x5F3 JUMP JUMPDEST SWAP2 POP POP SWAP3 SWAP2 POP POP JUMP JUMPDEST PUSH1 0x0 DUP1 REVERT JUMPDEST PUSH1 0x0 PUSH1 0x1F NOT PUSH1 0x1F DUP4 ADD AND SWAP1 POP SWAP2 SWAP1 POP JUMP JUMPDEST PUSH32 0x4E487B7100000000000000000000000000000000000000000000000000000000 PUSH1 0x0 MSTORE PUSH1 0x41 PUSH1 0x4 MSTORE PUSH1 0x24 PUSH1 0x0 REVERT JUMPDEST PUSH2 0x683 DUP3 PUSH2 0x63A JUMP JUMPDEST DUP2 ADD DUP2 DUP2 LT PUSH8 0xFFFFFFFFFFFFFFFF DUP3 GT OR ISZERO PUSH2 0x6A2 JUMPI PUSH2 0x6A1 PUSH2 0x64B JUMP JUMPDEST JUMPDEST DUP1 PUSH1 0x40 MSTORE POP POP POP JUMP JUMPDEST PUSH1 0x0 PUSH2 0x6B5 PUSH2 0x4FF JUMP JUMPDEST SWAP1 POP PUSH2 0x6C1 DUP3 DUP3 PUSH2 0x67A JUMP JUMPDEST SWAP2 SWAP1 POP JUMP JUMPDEST PUSH1 0x0 PUSH8 0xFFFFFFFFFFFFFFFF DUP3 GT ISZERO PUSH2 0x6E1 JUMPI PUSH2 0x6E0 PUSH2 0x64B JUMP JUMPDEST JUMPDEST PUSH1 0x20 DUP3 MUL SWAP1 POP PUSH1 0x20 DUP2 ADD SWAP1 POP SWAP2 SWAP1 POP JUMP JUMPDEST PUSH1 0x0 DUP1 REVERT JUMPDEST PUSH2 0x700 DUP2 PUSH2 0x596 JUMP JUMPDEST DUP2 EQ PUSH2 0x70B JUMPI PUSH1 0x0 DUP1 REVERT JUMPDEST POP JUMP JUMPDEST PUSH1 0x0 DUP2 CALLDATALOAD SWAP1 POP PUSH2 0x71D DUP2 PUSH2 0x6F7 JUMP JUMPDEST SWAP3 SWAP2 POP POP JUMP JUMPDEST PUSH1 0x0 PUSH2 0x736 PUSH2 0x731 DUP5 PUSH2 0x6C6 JUMP JUMPDEST PUSH2 0x6AB JUMP JUMPDEST SWAP1 POP DUP1 DUP4 DUP3 MSTORE PUSH1 0x20 DUP3 ADD SWAP1 POP PUSH1 0x20 DUP5 MUL DUP4 ADD DUP6 DUP2 GT ISZERO PUSH2 0x759 JUMPI PUSH2 0x758 PUSH2 0x6F2 JUMP JUMPDEST JUMPDEST DUP4 JUMPDEST DUP2 DUP2 LT ISZERO PUSH2 0x782 JUMPI DUP1 PUSH2 0x76E DUP9 DUP3 PUSH2 0x70E JUMP JUMPDEST DUP5 MSTORE PUSH1 0x20 DUP5 ADD SWAP4 POP POP PUSH1 0x20 DUP2 ADD SWAP1 POP PUSH2 0x75B JUMP JUMPDEST POP POP POP SWAP4 SWAP3 POP POP POP JUMP JUMPDEST PUSH1 0x0 DUP3 PUSH1 0x1F DUP4 ADD SLT PUSH2 0x7A1 JUMPI PUSH2 0x7A0 PUSH2 0x635 JUMP JUMPDEST JUMPDEST DUP2 CALLDATALOAD PUSH2 0x7B1 DUP5 DUP3 PUSH1 0x20 DUP7 ADD PUSH2 0x723 JUMP JUMPDEST SWAP2 POP POP SWAP3 SWAP2 POP POP JUMP JUMPDEST PUSH1 0x0 DUP1 PUSH1 0x40 DUP4 DUP6 SUB SLT ISZERO PUSH2 0x7D1 JUMPI PUSH2 0x7D0 PUSH2 0x509 JUMP JUMPDEST JUMPDEST PUSH1 0x0 DUP4 ADD CALLDATALOAD PUSH8 0xFFFFFFFFFFFFFFFF DUP2 GT ISZERO PUSH2 0x7EF JUMPI PUSH2 0x7EE PUSH2 0x50E JUMP JUMPDEST JUMPDEST PUSH2 0x7FB DUP6 DUP3 DUP7 ADD PUSH2 0x78C JUMP JUMPDEST SWAP3 POP POP PUSH1 0x20 PUSH2 0x80C DUP6 DUP3 DUP7 ADD PUSH2 0x534 JUMP JUMPDEST SWAP2 POP POP SWAP3 POP SWAP3 SWAP1 POP JUMP JUMPDEST PUSH1 0x0 DUP2 ISZERO ISZERO SWAP1 POP SWAP2 SWAP1 POP JUMP JUMPDEST PUSH2 0x82B DUP2 PUSH2 0x816 JUMP JUMPDEST DUP3 MSTORE POP POP JUMP JUMPDEST PUSH1 0x0 PUSH1 0x20 DUP3 ADD SWAP1 POP PUSH2 0x846 PUSH1 0x0 DUP4 ADD DUP5 PUSH2 0x822 JUMP JUMPDEST SWAP3 SWAP2 POP POP JUMP JUMPDEST PUSH2 0x855 DUP2 PUSH2 0x5D2 JUMP JUMPDEST DUP3 MSTORE POP POP JUMP JUMPDEST PUSH1 0x0 PUSH1 0x20 DUP3 ADD SWAP1 POP PUSH2 0x870 PUSH1 0x0 DUP4 ADD DUP5 PUSH2 0x84C JUMP JUMPDEST SWAP3 SWAP2 POP POP JUMP JUMPDEST PUSH1 0x0 DUP3 DUP3 MSTORE PUSH1 0x20 DUP3 ADD SWAP1 POP SWAP3 SWAP2 POP POP JUMP JUMPDEST PUSH32 0x7365656420697320616C72656164792073657400000000000000000000000000 PUSH1 0x0 DUP3 ADD MSTORE POP JUMP JUMPDEST PUSH1 0x0 PUSH2 0x8BD PUSH1 0x13 DUP4 PUSH2 0x876 JUMP JUMPDEST SWAP2 POP PUSH2 0x8C8 DUP3 PUSH2 0x887 JUMP JUMPDEST PUSH1 0x20 DUP3 ADD SWAP1 POP SWAP2 SWAP1 POP JUMP JUMPDEST PUSH1 0x0 PUSH1 0x20 DUP3 ADD SWAP1 POP DUP2 DUP2 SUB PUSH1 0x0 DUP4 ADD MSTORE PUSH2 0x8EC DUP2 PUSH2 0x8B0 JUMP JUMPDEST SWAP1 POP SWAP2 SWAP1 POP JUMP JUMPDEST PUSH32 0x6F6E6C79206D616E61676572706F6F6C2063616E2063616C6C20746869732066 PUSH1 0x0 DUP3 ADD MSTORE PUSH32 0x756E6374696F6E00000000000000000000000000000000000000000000000000 PUSH1 0x20 DUP3 ADD MSTORE POP JUMP JUMPDEST PUSH1 0x0 PUSH2 0x94F PUSH1 0x27 DUP4 PUSH2 0x876 JUMP JUMPDEST SWAP2 POP PUSH2 0x95A DUP3 PUSH2 0x8F3 JUMP JUMPDEST PUSH1 0x40 DUP3 ADD SWAP1 POP SWAP2 SWAP1 POP JUMP JUMPDEST PUSH1 0x0 PUSH1 0x20 DUP3 ADD SWAP1 POP DUP2 DUP2 SUB PUSH1 0x0 DUP4 ADD MSTORE PUSH2 0x97E DUP2 PUSH2 0x942 JUMP JUMPDEST SWAP1 POP SWAP2 SWAP1 POP JUMP JUMPDEST PUSH32 0x4E487B7100000000000000000000000000000000000000000000000000000000 PUSH1 0x0 MSTORE PUSH1 0x11 PUSH1 0x4 MSTORE PUSH1 0x24 PUSH1 0x0 REVERT JUMPDEST PUSH1 0x0 PUSH2 0x9BF DUP3 PUSH2 0x5D2 JUMP JUMPDEST SWAP2 POP PUSH2 0x9CA DUP4 PUSH2 0x5D2 JUMP JUMPDEST SWAP3 POP DUP3 PUSH32 0xFFFFFFFFFFFFFFFFFFFFFFFFFFFFFFFFFFFFFFFFFFFFFFFFFFFFFFFFFFFFFFFF SUB DUP3 GT ISZERO PUSH2 0x9FF JUMPI PUSH2 0x9FE PUSH2 0x985 JUMP JUMPDEST JUMPDEST DUP3 DUP3 ADD SWAP1 POP SWAP3 SWAP2 POP POP JUMP JUMPDEST PUSH32 0x73656564206973206E6F74207965742073657400000000000000000000000000 PUSH1 0x0 DUP3 ADD MSTORE POP JUMP JUMPDEST PUSH1 0x0 PUSH2 0xA40 PUSH1 0x13 DUP4 PUSH2 0x876 JUMP JUMPDEST SWAP2 POP PUSH2 0xA4B DUP3 PUSH2 0xA0A JUMP JUMPDEST PUSH1 0x20 DUP3 ADD SWAP1 POP SWAP2 SWAP1 POP JUMP JUMPDEST PUSH1 0x0 PUSH1 0x20 DUP3 ADD SWAP1 POP DUP2 DUP2 SUB PUSH1 0x0 DUP4 ADD MSTORE PUSH2 0xA6F DUP2 PUSH2 0xA33 JUMP JUMPDEST SWAP1 POP SWAP2 SWAP1 POP JUMP JUMPDEST PUSH32 0x646F6E6174696F6E7320617265206E6F7420636C6F7365642079657400000000 PUSH1 0x0 DUP3 ADD MSTORE POP JUMP JUMPDEST PUSH1 0x0 PUSH2 0xAAC PUSH1 0x1C DUP4 PUSH2 0x876 JUMP JUMPDEST SWAP2 POP PUSH2 0xAB7 DUP3 PUSH2 0xA76 JUMP JUMPDEST PUSH1 0x20 DUP3 ADD SWAP1 POP SWAP2 SWAP1 POP JUMP JUMPDEST PUSH1 0x0 PUSH1 0x20 DUP3 ADD SWAP1 POP DUP2 DUP2 SUB PUSH1 0x0 DUP4 ADD MSTORE PUSH2 0xADB DUP2 PUSH2 0xA9F JUMP JUMPDEST SWAP1 POP SWAP2 SWAP1 POP JUMP JUMPDEST PUSH2 0xAEB DUP2 PUSH2 0x513 JUMP JUMPDEST DUP3 MSTORE POP POP JUMP JUMPDEST PUSH1 0x0 PUSH1 0x40 DUP3 ADD SWAP1 POP PUSH2 0xB06 PUSH1 0x0 DUP4 ADD DUP6 PUSH2 0x5A8 JUMP JUMPDEST PUSH2 0xB13 PUSH1 0x20 DUP4 ADD DUP5 PUSH2 0xAE2 JUMP JUMPDEST SWAP4 SWAP3 POP POP POP JUMP JUMPDEST PUSH1 0x0 PUSH1 0x40 DUP3 ADD SWAP1 POP PUSH2 0xB2F PUSH1 0x0 DUP4 ADD DUP6 PUSH2 0xAE2 JUMP JUMPDEST PUSH2 0xB3C PUSH1 0x20 DUP4 ADD DUP5 PUSH2 0xAE2 JUMP JUMPDEST SWAP4 SWAP3 POP POP POP JUMP INVALID LOG2 PUSH5 0x6970667358 0x22 SLT KECCAK256 0xF6 LT DUP1 0xCB PUSH3 0x8D1D39 PUSH29 0xDBF0A41A4AE84E085314EC19FE494657E2A6429C2CFA1164736F6C6343 STOP ADDMOD 0xD STOP CALLER "
				},
				"gasEstimates": {
					"creation": {
						"codeDepositCost": "587400",
						"executionCost": "73469",
						"totalCost": "660869"
					},
					"external": {
						"donors(uint256)": "4978",
						"enterLottery(address[],bytes32)": "infinite",
						"getWinner(bytes32)": "infinite",
						"managerpool()": "2599",
						"reveal(bytes32)": "infinite",
						"setSealedSeed(bytes32)": "infinite"
					}
				},
				"methodIdentifiers": {
					"donors(uint256)": "4abfa163",
					"enterLottery(address[],bytes32)": "5c6b143c",
					"getWinner(bytes32)": "1e5f9149",
					"managerpool()": "dedfe223",
					"reveal(bytes32)": "701fd0f1",
					"setSealedSeed(bytes32)": "41114538"
				}
			},
			"storageLayout": {
				"storage": [
					{
						"astId": 26,
						"contract": "contracts/Lottery.sol:Lottery",
						"label": "managerpool",
						"offset": 0,
						"slot": "0",
						"type": "t_address"
					},
					{
						"astId": 29,
						"contract": "contracts/Lottery.sol:Lottery",
						"label": "donors",
						"offset": 0,
						"slot": "1",
						"type": "t_array(t_address)dyn_storage"
					},
					{
						"astId": 31,
						"contract": "contracts/Lottery.sol:Lottery",
						"label": "sealedSeed",
						"offset": 0,
						"slot": "2",
						"type": "t_bytes32"
					},
					{
						"astId": 33,
						"contract": "contracts/Lottery.sol:Lottery",
						"label": "seedSet",
						"offset": 0,
						"slot": "3",
						"type": "t_bool"
					},
					{
						"astId": 35,
						"contract": "contracts/Lottery.sol:Lottery",
						"label": "donationsClosed",
						"offset": 1,
						"slot": "3",
						"type": "t_bool"
					},
					{
						"astId": 37,
						"contract": "contracts/Lottery.sol:Lottery",
						"label": "storedBlockNumber",
						"offset": 0,
						"slot": "4",
						"type": "t_uint256"
					}
				],
				"types": {
					"t_address": {
						"encoding": "inplace",
						"label": "address",
						"numberOfBytes": "20"
					},
					"t_array(t_address)dyn_storage": {
						"base": "t_address",
						"encoding": "dynamic_array",
						"label": "address[]",
						"numberOfBytes": "32"
					},
					"t_bool": {
						"encoding": "inplace",
						"label": "bool",
						"numberOfBytes": "1"
					},
					"t_bytes32": {
						"encoding": "inplace",
						"label": "bytes32",
						"numberOfBytes": "32"
					},
					"t_uint256": {
						"encoding": "inplace",
						"label": "uint256",
						"numberOfBytes": "32"
					}
				}
			},
			"userdoc": {
				"kind": "user",
				"methods": {},
				"version": 1
			}
		}
	}
}