{
	"contracts/Lottery.sol": {
		"Lottery": {
			"abi": [
				{
					"inputs": [
						{
							"internalType": "address",
							"name": "_donationspool",
							"type": "address"
						}
					],
					"stateMutability": "nonpayable",
					"type": "constructor"
				},
				{
					"inputs": [
						{
							"internalType": "uint256",
							"name": "",
							"type": "uint256"
						}
					],
					"name": "donors",
					"outputs": [
						{
							"internalType": "address",
							"name": "",
							"type": "address"
						}
					],
					"stateMutability": "view",
					"type": "function"
				},
				{
					"inputs": [
						{
							"internalType": "address[]",
							"name": "_donators",
							"type": "address[]"
						}
					],
					"name": "enterLottery",
					"outputs": [
						{
							"internalType": "bool",
							"name": "",
							"type": "bool"
						}
					],
					"stateMutability": "nonpayable",
					"type": "function"
				},
				{
					"inputs": [],
					"name": "getWinner",
					"outputs": [
						{
							"internalType": "address",
							"name": "",
							"type": "address"
						}
					],
					"stateMutability": "nonpayable",
					"type": "function"
				},
				{
					"inputs": [],
					"name": "managerpool",
					"outputs": [
						{
							"internalType": "address",
							"name": "",
							"type": "address"
						}
					],
					"stateMutability": "view",
					"type": "function"
				}
			],
			"devdoc": {
				"kind": "dev",
				"methods": {},
				"version": 1
			},
			"evm": {
				"assembly": "    /* \"contracts/Lottery.sol\":92:445  contract Lottery is ILottery{... */\n  mstore(0x40, 0x80)\n    /* \"contracts/Lottery.sol\":194:277  constructor(address _donationspool){... */\n  callvalue\n  dup1\n  iszero\n  tag_1\n  jumpi\n  0x00\n  dup1\n  revert\ntag_1:\n  pop\n  mload(0x40)\n  sub(codesize, bytecodeSize)\n  dup1\n  bytecodeSize\n  dup4\n  codecopy\n  dup2\n  dup2\n  add\n  0x40\n  mstore\n  dup2\n  add\n  swap1\n  tag_2\n  swap2\n  swap1\n  tag_3\n  jump\t// in\ntag_2:\n    /* \"contracts/Lottery.sol\":254:268  _donationspool */\n  dup1\n    /* \"contracts/Lottery.sol\":240:251  managerpool */\n  0x00\n  dup1\n    /* \"contracts/Lottery.sol\":240:268  managerpool = _donationspool */\n  0x0100\n  exp\n  dup2\n  sload\n  dup2\n  0xffffffffffffffffffffffffffffffffffffffff\n  mul\n  not\n  and\n  swap1\n  dup4\n  0xffffffffffffffffffffffffffffffffffffffff\n  and\n  mul\n  or\n  swap1\n  sstore\n  pop\n    /* \"contracts/Lottery.sol\":194:277  constructor(address _donationspool){... */\n  pop\n    /* \"contracts/Lottery.sol\":92:445  contract Lottery is ILottery{... */\n  jump(tag_6)\n    /* \"#utility.yul\":88:205   */\ntag_8:\n    /* \"#utility.yul\":197:198   */\n  0x00\n    /* \"#utility.yul\":194:195   */\n  dup1\n    /* \"#utility.yul\":187:199   */\n  revert\n    /* \"#utility.yul\":334:460   */\ntag_10:\n    /* \"#utility.yul\":371:378   */\n  0x00\n    /* \"#utility.yul\":411:453   */\n  0xffffffffffffffffffffffffffffffffffffffff\n    /* \"#utility.yul\":404:409   */\n  dup3\n    /* \"#utility.yul\":400:454   */\n  and\n    /* \"#utility.yul\":389:454   */\n  swap1\n  pop\n    /* \"#utility.yul\":334:460   */\n  swap2\n  swap1\n  pop\n  jump\t// out\n    /* \"#utility.yul\":466:562   */\ntag_11:\n    /* \"#utility.yul\":503:510   */\n  0x00\n    /* \"#utility.yul\":532:556   */\n  tag_20\n    /* \"#utility.yul\":550:555   */\n  dup3\n    /* \"#utility.yul\":532:556   */\n  tag_10\n  jump\t// in\ntag_20:\n    /* \"#utility.yul\":521:556   */\n  swap1\n  pop\n    /* \"#utility.yul\":466:562   */\n  swap2\n  swap1\n  pop\n  jump\t// out\n    /* \"#utility.yul\":568:690   */\ntag_12:\n    /* \"#utility.yul\":641:665   */\n  tag_22\n    /* \"#utility.yul\":659:664   */\n  dup2\n    /* \"#utility.yul\":641:665   */\n  tag_11\n  jump\t// in\ntag_22:\n    /* \"#utility.yul\":634:639   */\n  dup2\n    /* \"#utility.yul\":631:666   */\n  eq\n    /* \"#utility.yul\":621:684   */\n  tag_23\n  jumpi\n    /* \"#utility.yul\":680:681   */\n  0x00\n    /* \"#utility.yul\":677:678   */\n  dup1\n    /* \"#utility.yul\":670:682   */\n  revert\n    /* \"#utility.yul\":621:684   */\ntag_23:\n    /* \"#utility.yul\":568:690   */\n  pop\n  jump\t// out\n    /* \"#utility.yul\":696:839   */\ntag_13:\n    /* \"#utility.yul\":753:758   */\n  0x00\n    /* \"#utility.yul\":784:790   */\n  dup2\n    /* \"#utility.yul\":778:791   */\n  mload\n    /* \"#utility.yul\":769:791   */\n  swap1\n  pop\n    /* \"#utility.yul\":800:833   */\n  tag_25\n    /* \"#utility.yul\":827:832   */\n  dup2\n    /* \"#utility.yul\":800:833   */\n  tag_12\n  jump\t// in\ntag_25:\n    /* \"#utility.yul\":696:839   */\n  swap3\n  swap2\n  pop\n  pop\n  jump\t// out\n    /* \"#utility.yul\":845:1196   */\ntag_3:\n    /* \"#utility.yul\":915:921   */\n  0x00\n    /* \"#utility.yul\":964:966   */\n  0x20\n    /* \"#utility.yul\":952:961   */\n  dup3\n    /* \"#utility.yul\":943:950   */\n  dup5\n    /* \"#utility.yul\":939:962   */\n  sub\n    /* \"#utility.yul\":935:967   */\n  slt\n    /* \"#utility.yul\":932:1051   */\n  iszero\n  tag_27\n  jumpi\n    /* \"#utility.yul\":970:1049   */\n  tag_28\n  tag_8\n  jump\t// in\ntag_28:\n    /* \"#utility.yul\":932:1051   */\ntag_27:\n    /* \"#utility.yul\":1090:1091   */\n  0x00\n    /* \"#utility.yul\":1115:1179   */\n  tag_29\n    /* \"#utility.yul\":1171:1178   */\n  dup5\n    /* \"#utility.yul\":1162:1168   */\n  dup3\n    /* \"#utility.yul\":1151:1160   */\n  dup6\n    /* \"#utility.yul\":1147:1169   */\n  add\n    /* \"#utility.yul\":1115:1179   */\n  tag_13\n  jump\t// in\ntag_29:\n    /* \"#utility.yul\":1105:1179   */\n  swap2\n  pop\n    /* \"#utility.yul\":1061:1189   */\n  pop\n    /* \"#utility.yul\":845:1196   */\n  swap3\n  swap2\n  pop\n  pop\n  jump\t// out\n    /* \"contracts/Lottery.sol\":92:445  contract Lottery is ILottery{... */\ntag_6:\n  dataSize(sub_0)\n  dup1\n  dataOffset(sub_0)\n  0x00\n  codecopy\n  0x00\n  return\nstop\n\nsub_0: assembly {\n        /* \"contracts/Lottery.sol\":92:445  contract Lottery is ILottery{... */\n      mstore(0x40, 0x80)\n      callvalue\n      dup1\n      iszero\n      tag_1\n      jumpi\n      0x00\n      dup1\n      revert\n    tag_1:\n      pop\n      jumpi(tag_2, lt(calldatasize, 0x04))\n      shr(0xe0, calldataload(0x00))\n      dup1\n      0x4abfa163\n      eq\n      tag_3\n      jumpi\n      dup1\n      0x8e7ea5b2\n      eq\n      tag_4\n      jumpi\n      dup1\n      0xc129800d\n      eq\n      tag_5\n      jumpi\n      dup1\n      0xdedfe223\n      eq\n      tag_6\n      jumpi\n    tag_2:\n      0x00\n      dup1\n      revert\n        /* \"contracts/Lottery.sol\":161:184  address[] public donors */\n    tag_3:\n      tag_7\n      0x04\n      dup1\n      calldatasize\n      sub\n      dup2\n      add\n      swap1\n      tag_8\n      swap2\n      swap1\n      tag_9\n      jump\t// in\n    tag_8:\n      tag_10\n      jump\t// in\n    tag_7:\n      mload(0x40)\n      tag_11\n      swap2\n      swap1\n      tag_12\n      jump\t// in\n    tag_11:\n      mload(0x40)\n      dup1\n      swap2\n      sub\n      swap1\n      return\n        /* \"contracts/Lottery.sol\":384:440  function getWinner() external returns(address){... */\n    tag_4:\n      tag_13\n      tag_14\n      jump\t// in\n    tag_13:\n      mload(0x40)\n      tag_15\n      swap2\n      swap1\n      tag_12\n      jump\t// in\n    tag_15:\n      mload(0x40)\n      dup1\n      swap2\n      sub\n      swap1\n      return\n        /* \"contracts/Lottery.sol\":287:378  function enterLottery(address[] memory _donators) external returns (bool){... */\n    tag_5:\n      tag_16\n      0x04\n      dup1\n      calldatasize\n      sub\n      dup2\n      add\n      swap1\n      tag_17\n      swap2\n      swap1\n      tag_18\n      jump\t// in\n    tag_17:\n      tag_19\n      jump\t// in\n    tag_16:\n      mload(0x40)\n      tag_20\n      swap2\n      swap1\n      tag_21\n      jump\t// in\n    tag_20:\n      mload(0x40)\n      dup1\n      swap2\n      sub\n      swap1\n      return\n        /* \"contracts/Lottery.sol\":127:153  address public managerpool */\n    tag_6:\n      tag_22\n      tag_23\n      jump\t// in\n    tag_22:\n      mload(0x40)\n      tag_24\n      swap2\n      swap1\n      tag_12\n      jump\t// in\n    tag_24:\n      mload(0x40)\n      dup1\n      swap2\n      sub\n      swap1\n      return\n        /* \"contracts/Lottery.sol\":161:184  address[] public donors */\n    tag_10:\n      0x01\n      dup2\n      dup2\n      sload\n      dup2\n      lt\n      tag_25\n      jumpi\n      0x00\n      dup1\n      revert\n    tag_25:\n      swap1\n      0x00\n      mstore\n      keccak256(0x00, 0x20)\n      add\n      0x00\n      swap2\n      pop\n      sload\n      swap1\n      0x0100\n      exp\n      swap1\n      div\n      0xffffffffffffffffffffffffffffffffffffffff\n      and\n      dup2\n      jump\t// out\n        /* \"contracts/Lottery.sol\":384:440  function getWinner() external returns(address){... */\n    tag_14:\n        /* \"contracts/Lottery.sol\":422:429  address */\n      0x00\n        /* \"contracts/Lottery.sol\":384:440  function getWinner() external returns(address){... */\n      swap1\n      jump\t// out\n        /* \"contracts/Lottery.sol\":287:378  function enterLottery(address[] memory _donators) external returns (bool){... */\n    tag_19:\n        /* \"contracts/Lottery.sol\":355:359  bool */\n      0x00\n        /* \"contracts/Lottery.sol\":287:378  function enterLottery(address[] memory _donators) external returns (bool){... */\n      swap2\n      swap1\n      pop\n      jump\t// out\n        /* \"contracts/Lottery.sol\":127:153  address public managerpool */\n    tag_23:\n      0x00\n      dup1\n      sload\n      swap1\n      0x0100\n      exp\n      swap1\n      div\n      0xffffffffffffffffffffffffffffffffffffffff\n      and\n      dup2\n      jump\t// out\n        /* \"#utility.yul\":7:82   */\n    tag_29:\n        /* \"#utility.yul\":40:46   */\n      0x00\n        /* \"#utility.yul\":73:75   */\n      0x40\n        /* \"#utility.yul\":67:76   */\n      mload\n        /* \"#utility.yul\":57:76   */\n      swap1\n      pop\n        /* \"#utility.yul\":7:82   */\n      swap1\n      jump\t// out\n        /* \"#utility.yul\":88:205   */\n    tag_30:\n        /* \"#utility.yul\":197:198   */\n      0x00\n        /* \"#utility.yul\":194:195   */\n      dup1\n        /* \"#utility.yul\":187:199   */\n      revert\n        /* \"#utility.yul\":211:328   */\n    tag_31:\n        /* \"#utility.yul\":320:321   */\n      0x00\n        /* \"#utility.yul\":317:318   */\n      dup1\n        /* \"#utility.yul\":310:322   */\n      revert\n        /* \"#utility.yul\":334:411   */\n    tag_32:\n        /* \"#utility.yul\":371:378   */\n      0x00\n        /* \"#utility.yul\":400:405   */\n      dup2\n        /* \"#utility.yul\":389:405   */\n      swap1\n      pop\n        /* \"#utility.yul\":334:411   */\n      swap2\n      swap1\n      pop\n      jump\t// out\n        /* \"#utility.yul\":417:539   */\n    tag_33:\n        /* \"#utility.yul\":490:514   */\n      tag_57\n        /* \"#utility.yul\":508:513   */\n      dup2\n        /* \"#utility.yul\":490:514   */\n      tag_32\n      jump\t// in\n    tag_57:\n        /* \"#utility.yul\":483:488   */\n      dup2\n        /* \"#utility.yul\":480:515   */\n      eq\n        /* \"#utility.yul\":470:533   */\n      tag_58\n      jumpi\n        /* \"#utility.yul\":529:530   */\n      0x00\n        /* \"#utility.yul\":526:527   */\n      dup1\n        /* \"#utility.yul\":519:531   */\n      revert\n        /* \"#utility.yul\":470:533   */\n    tag_58:\n        /* \"#utility.yul\":417:539   */\n      pop\n      jump\t// out\n        /* \"#utility.yul\":545:684   */\n    tag_34:\n        /* \"#utility.yul\":591:596   */\n      0x00\n        /* \"#utility.yul\":629:635   */\n      dup2\n        /* \"#utility.yul\":616:636   */\n      calldataload\n        /* \"#utility.yul\":607:636   */\n      swap1\n      pop\n        /* \"#utility.yul\":645:678   */\n      tag_60\n        /* \"#utility.yul\":672:677   */\n      dup2\n        /* \"#utility.yul\":645:678   */\n      tag_33\n      jump\t// in\n    tag_60:\n        /* \"#utility.yul\":545:684   */\n      swap3\n      swap2\n      pop\n      pop\n      jump\t// out\n        /* \"#utility.yul\":690:1019   */\n    tag_9:\n        /* \"#utility.yul\":749:755   */\n      0x00\n        /* \"#utility.yul\":798:800   */\n      0x20\n        /* \"#utility.yul\":786:795   */\n      dup3\n        /* \"#utility.yul\":777:784   */\n      dup5\n        /* \"#utility.yul\":773:796   */\n      sub\n        /* \"#utility.yul\":769:801   */\n      slt\n        /* \"#utility.yul\":766:885   */\n      iszero\n      tag_62\n      jumpi\n        /* \"#utility.yul\":804:883   */\n      tag_63\n      tag_30\n      jump\t// in\n    tag_63:\n        /* \"#utility.yul\":766:885   */\n    tag_62:\n        /* \"#utility.yul\":924:925   */\n      0x00\n        /* \"#utility.yul\":949:1002   */\n      tag_64\n        /* \"#utility.yul\":994:1001   */\n      dup5\n        /* \"#utility.yul\":985:991   */\n      dup3\n        /* \"#utility.yul\":974:983   */\n      dup6\n        /* \"#utility.yul\":970:992   */\n      add\n        /* \"#utility.yul\":949:1002   */\n      tag_34\n      jump\t// in\n    tag_64:\n        /* \"#utility.yul\":939:1002   */\n      swap2\n      pop\n        /* \"#utility.yul\":895:1012   */\n      pop\n        /* \"#utility.yul\":690:1019   */\n      swap3\n      swap2\n      pop\n      pop\n      jump\t// out\n        /* \"#utility.yul\":1025:1151   */\n    tag_35:\n        /* \"#utility.yul\":1062:1069   */\n      0x00\n        /* \"#utility.yul\":1102:1144   */\n      0xffffffffffffffffffffffffffffffffffffffff\n        /* \"#utility.yul\":1095:1100   */\n      dup3\n        /* \"#utility.yul\":1091:1145   */\n      and\n        /* \"#utility.yul\":1080:1145   */\n      swap1\n      pop\n        /* \"#utility.yul\":1025:1151   */\n      swap2\n      swap1\n      pop\n      jump\t// out\n        /* \"#utility.yul\":1157:1253   */\n    tag_36:\n        /* \"#utility.yul\":1194:1201   */\n      0x00\n        /* \"#utility.yul\":1223:1247   */\n      tag_67\n        /* \"#utility.yul\":1241:1246   */\n      dup3\n        /* \"#utility.yul\":1223:1247   */\n      tag_35\n      jump\t// in\n    tag_67:\n        /* \"#utility.yul\":1212:1247   */\n      swap1\n      pop\n        /* \"#utility.yul\":1157:1253   */\n      swap2\n      swap1\n      pop\n      jump\t// out\n        /* \"#utility.yul\":1259:1377   */\n    tag_37:\n        /* \"#utility.yul\":1346:1370   */\n      tag_69\n        /* \"#utility.yul\":1364:1369   */\n      dup2\n        /* \"#utility.yul\":1346:1370   */\n      tag_36\n      jump\t// in\n    tag_69:\n        /* \"#utility.yul\":1341:1344   */\n      dup3\n        /* \"#utility.yul\":1334:1371   */\n      mstore\n        /* \"#utility.yul\":1259:1377   */\n      pop\n      pop\n      jump\t// out\n        /* \"#utility.yul\":1383:1605   */\n    tag_12:\n        /* \"#utility.yul\":1476:1480   */\n      0x00\n        /* \"#utility.yul\":1514:1516   */\n      0x20\n        /* \"#utility.yul\":1503:1512   */\n      dup3\n        /* \"#utility.yul\":1499:1517   */\n      add\n        /* \"#utility.yul\":1491:1517   */\n      swap1\n      pop\n        /* \"#utility.yul\":1527:1598   */\n      tag_71\n        /* \"#utility.yul\":1595:1596   */\n      0x00\n        /* \"#utility.yul\":1584:1593   */\n      dup4\n        /* \"#utility.yul\":1580:1597   */\n      add\n        /* \"#utility.yul\":1571:1577   */\n      dup5\n        /* \"#utility.yul\":1527:1598   */\n      tag_37\n      jump\t// in\n    tag_71:\n        /* \"#utility.yul\":1383:1605   */\n      swap3\n      swap2\n      pop\n      pop\n      jump\t// out\n        /* \"#utility.yul\":1611:1728   */\n    tag_38:\n        /* \"#utility.yul\":1720:1721   */\n      0x00\n        /* \"#utility.yul\":1717:1718   */\n      dup1\n        /* \"#utility.yul\":1710:1722   */\n      revert\n        /* \"#utility.yul\":1734:1836   */\n    tag_39:\n        /* \"#utility.yul\":1775:1781   */\n      0x00\n        /* \"#utility.yul\":1826:1828   */\n      0x1f\n        /* \"#utility.yul\":1822:1829   */\n      not\n        /* \"#utility.yul\":1817:1819   */\n      0x1f\n        /* \"#utility.yul\":1810:1815   */\n      dup4\n        /* \"#utility.yul\":1806:1820   */\n      add\n        /* \"#utility.yul\":1802:1830   */\n      and\n        /* \"#utility.yul\":1792:1830   */\n      swap1\n      pop\n        /* \"#utility.yul\":1734:1836   */\n      swap2\n      swap1\n      pop\n      jump\t// out\n        /* \"#utility.yul\":1842:2022   */\n    tag_40:\n        /* \"#utility.yul\":1890:1967   */\n      0x4e487b7100000000000000000000000000000000000000000000000000000000\n        /* \"#utility.yul\":1887:1888   */\n      0x00\n        /* \"#utility.yul\":1880:1968   */\n      mstore\n        /* \"#utility.yul\":1987:1991   */\n      0x41\n        /* \"#utility.yul\":1984:1985   */\n      0x04\n        /* \"#utility.yul\":1977:1992   */\n      mstore\n        /* \"#utility.yul\":2011:2015   */\n      0x24\n        /* \"#utility.yul\":2008:2009   */\n      0x00\n        /* \"#utility.yul\":2001:2016   */\n      revert\n        /* \"#utility.yul\":2028:2309   */\n    tag_41:\n        /* \"#utility.yul\":2111:2138   */\n      tag_76\n        /* \"#utility.yul\":2133:2137   */\n      dup3\n        /* \"#utility.yul\":2111:2138   */\n      tag_39\n      jump\t// in\n    tag_76:\n        /* \"#utility.yul\":2103:2109   */\n      dup2\n        /* \"#utility.yul\":2099:2139   */\n      add\n        /* \"#utility.yul\":2241:2247   */\n      dup2\n        /* \"#utility.yul\":2229:2239   */\n      dup2\n        /* \"#utility.yul\":2226:2248   */\n      lt\n        /* \"#utility.yul\":2205:2223   */\n      0xffffffffffffffff\n        /* \"#utility.yul\":2193:2203   */\n      dup3\n        /* \"#utility.yul\":2190:2224   */\n      gt\n        /* \"#utility.yul\":2187:2249   */\n      or\n        /* \"#utility.yul\":2184:2272   */\n      iszero\n      tag_77\n      jumpi\n        /* \"#utility.yul\":2252:2270   */\n      tag_78\n      tag_40\n      jump\t// in\n    tag_78:\n        /* \"#utility.yul\":2184:2272   */\n    tag_77:\n        /* \"#utility.yul\":2292:2302   */\n      dup1\n        /* \"#utility.yul\":2288:2290   */\n      0x40\n        /* \"#utility.yul\":2281:2303   */\n      mstore\n        /* \"#utility.yul\":2071:2309   */\n      pop\n        /* \"#utility.yul\":2028:2309   */\n      pop\n      pop\n      jump\t// out\n        /* \"#utility.yul\":2315:2444   */\n    tag_42:\n        /* \"#utility.yul\":2349:2355   */\n      0x00\n        /* \"#utility.yul\":2376:2396   */\n      tag_80\n      tag_29\n      jump\t// in\n    tag_80:\n        /* \"#utility.yul\":2366:2396   */\n      swap1\n      pop\n        /* \"#utility.yul\":2405:2438   */\n      tag_81\n        /* \"#utility.yul\":2433:2437   */\n      dup3\n        /* \"#utility.yul\":2425:2431   */\n      dup3\n        /* \"#utility.yul\":2405:2438   */\n      tag_41\n      jump\t// in\n    tag_81:\n        /* \"#utility.yul\":2315:2444   */\n      swap2\n      swap1\n      pop\n      jump\t// out\n        /* \"#utility.yul\":2450:2761   */\n    tag_43:\n        /* \"#utility.yul\":2527:2531   */\n      0x00\n        /* \"#utility.yul\":2617:2635   */\n      0xffffffffffffffff\n        /* \"#utility.yul\":2609:2615   */\n      dup3\n        /* \"#utility.yul\":2606:2636   */\n      gt\n        /* \"#utility.yul\":2603:2659   */\n      iszero\n      tag_83\n      jumpi\n        /* \"#utility.yul\":2639:2657   */\n      tag_84\n      tag_40\n      jump\t// in\n    tag_84:\n        /* \"#utility.yul\":2603:2659   */\n    tag_83:\n        /* \"#utility.yul\":2689:2693   */\n      0x20\n        /* \"#utility.yul\":2681:2687   */\n      dup3\n        /* \"#utility.yul\":2677:2694   */\n      mul\n        /* \"#utility.yul\":2669:2694   */\n      swap1\n      pop\n        /* \"#utility.yul\":2749:2753   */\n      0x20\n        /* \"#utility.yul\":2743:2747   */\n      dup2\n        /* \"#utility.yul\":2739:2754   */\n      add\n        /* \"#utility.yul\":2731:2754   */\n      swap1\n      pop\n        /* \"#utility.yul\":2450:2761   */\n      swap2\n      swap1\n      pop\n      jump\t// out\n        /* \"#utility.yul\":2767:2884   */\n    tag_44:\n        /* \"#utility.yul\":2876:2877   */\n      0x00\n        /* \"#utility.yul\":2873:2874   */\n      dup1\n        /* \"#utility.yul\":2866:2878   */\n      revert\n        /* \"#utility.yul\":2890:3012   */\n    tag_45:\n        /* \"#utility.yul\":2963:2987   */\n      tag_87\n        /* \"#utility.yul\":2981:2986   */\n      dup2\n        /* \"#utility.yul\":2963:2987   */\n      tag_36\n      jump\t// in\n    tag_87:\n        /* \"#utility.yul\":2956:2961   */\n      dup2\n        /* \"#utility.yul\":2953:2988   */\n      eq\n        /* \"#utility.yul\":2943:3006   */\n      tag_88\n      jumpi\n        /* \"#utility.yul\":3002:3003   */\n      0x00\n        /* \"#utility.yul\":2999:3000   */\n      dup1\n        /* \"#utility.yul\":2992:3004   */\n      revert\n        /* \"#utility.yul\":2943:3006   */\n    tag_88:\n        /* \"#utility.yul\":2890:3012   */\n      pop\n      jump\t// out\n        /* \"#utility.yul\":3018:3157   */\n    tag_46:\n        /* \"#utility.yul\":3064:3069   */\n      0x00\n        /* \"#utility.yul\":3102:3108   */\n      dup2\n        /* \"#utility.yul\":3089:3109   */\n      calldataload\n        /* \"#utility.yul\":3080:3109   */\n      swap1\n      pop\n        /* \"#utility.yul\":3118:3151   */\n      tag_90\n        /* \"#utility.yul\":3145:3150   */\n      dup2\n        /* \"#utility.yul\":3118:3151   */\n      tag_45\n      jump\t// in\n    tag_90:\n        /* \"#utility.yul\":3018:3157   */\n      swap3\n      swap2\n      pop\n      pop\n      jump\t// out\n        /* \"#utility.yul\":3180:3890   */\n    tag_47:\n        /* \"#utility.yul\":3276:3281   */\n      0x00\n        /* \"#utility.yul\":3301:3382   */\n      tag_92\n        /* \"#utility.yul\":3317:3381   */\n      tag_93\n        /* \"#utility.yul\":3374:3380   */\n      dup5\n        /* \"#utility.yul\":3317:3381   */\n      tag_43\n      jump\t// in\n    tag_93:\n        /* \"#utility.yul\":3301:3382   */\n      tag_42\n      jump\t// in\n    tag_92:\n        /* \"#utility.yul\":3292:3382   */\n      swap1\n      pop\n        /* \"#utility.yul\":3402:3407   */\n      dup1\n        /* \"#utility.yul\":3431:3437   */\n      dup4\n        /* \"#utility.yul\":3424:3429   */\n      dup3\n        /* \"#utility.yul\":3417:3438   */\n      mstore\n        /* \"#utility.yul\":3465:3469   */\n      0x20\n        /* \"#utility.yul\":3458:3463   */\n      dup3\n        /* \"#utility.yul\":3454:3470   */\n      add\n        /* \"#utility.yul\":3447:3470   */\n      swap1\n      pop\n        /* \"#utility.yul\":3518:3522   */\n      0x20\n        /* \"#utility.yul\":3510:3516   */\n      dup5\n        /* \"#utility.yul\":3506:3523   */\n      mul\n        /* \"#utility.yul\":3498:3504   */\n      dup4\n        /* \"#utility.yul\":3494:3524   */\n      add\n        /* \"#utility.yul\":3547:3550   */\n      dup6\n        /* \"#utility.yul\":3539:3545   */\n      dup2\n        /* \"#utility.yul\":3536:3551   */\n      gt\n        /* \"#utility.yul\":3533:3655   */\n      iszero\n      tag_94\n      jumpi\n        /* \"#utility.yul\":3566:3645   */\n      tag_95\n      tag_44\n      jump\t// in\n    tag_95:\n        /* \"#utility.yul\":3533:3655   */\n    tag_94:\n        /* \"#utility.yul\":3681:3687   */\n      dup4\n        /* \"#utility.yul\":3664:3884   */\n    tag_96:\n        /* \"#utility.yul\":3698:3704   */\n      dup2\n        /* \"#utility.yul\":3693:3696   */\n      dup2\n        /* \"#utility.yul\":3690:3705   */\n      lt\n        /* \"#utility.yul\":3664:3884   */\n      iszero\n      tag_98\n      jumpi\n        /* \"#utility.yul\":3773:3776   */\n      dup1\n        /* \"#utility.yul\":3802:3839   */\n      tag_99\n        /* \"#utility.yul\":3835:3838   */\n      dup9\n        /* \"#utility.yul\":3823:3833   */\n      dup3\n        /* \"#utility.yul\":3802:3839   */\n      tag_46\n      jump\t// in\n    tag_99:\n        /* \"#utility.yul\":3797:3800   */\n      dup5\n        /* \"#utility.yul\":3790:3840   */\n      mstore\n        /* \"#utility.yul\":3869:3873   */\n      0x20\n        /* \"#utility.yul\":3864:3867   */\n      dup5\n        /* \"#utility.yul\":3860:3874   */\n      add\n        /* \"#utility.yul\":3853:3874   */\n      swap4\n      pop\n        /* \"#utility.yul\":3740:3884   */\n      pop\n        /* \"#utility.yul\":3724:3728   */\n      0x20\n        /* \"#utility.yul\":3719:3722   */\n      dup2\n        /* \"#utility.yul\":3715:3729   */\n      add\n        /* \"#utility.yul\":3708:3729   */\n      swap1\n      pop\n        /* \"#utility.yul\":3664:3884   */\n      jump(tag_96)\n    tag_98:\n        /* \"#utility.yul\":3668:3689   */\n      pop\n        /* \"#utility.yul\":3282:3890   */\n      pop\n      pop\n        /* \"#utility.yul\":3180:3890   */\n      swap4\n      swap3\n      pop\n      pop\n      pop\n      jump\t// out\n        /* \"#utility.yul\":3913:4283   */\n    tag_48:\n        /* \"#utility.yul\":3984:3989   */\n      0x00\n        /* \"#utility.yul\":4033:4036   */\n      dup3\n        /* \"#utility.yul\":4026:4030   */\n      0x1f\n        /* \"#utility.yul\":4018:4024   */\n      dup4\n        /* \"#utility.yul\":4014:4031   */\n      add\n        /* \"#utility.yul\":4010:4037   */\n      slt\n        /* \"#utility.yul\":4000:4122   */\n      tag_101\n      jumpi\n        /* \"#utility.yul\":4041:4120   */\n      tag_102\n      tag_38\n      jump\t// in\n    tag_102:\n        /* \"#utility.yul\":4000:4122   */\n    tag_101:\n        /* \"#utility.yul\":4158:4164   */\n      dup2\n        /* \"#utility.yul\":4145:4165   */\n      calldataload\n        /* \"#utility.yul\":4183:4277   */\n      tag_103\n        /* \"#utility.yul\":4273:4276   */\n      dup5\n        /* \"#utility.yul\":4265:4271   */\n      dup3\n        /* \"#utility.yul\":4258:4262   */\n      0x20\n        /* \"#utility.yul\":4250:4256   */\n      dup7\n        /* \"#utility.yul\":4246:4263   */\n      add\n        /* \"#utility.yul\":4183:4277   */\n      tag_47\n      jump\t// in\n    tag_103:\n        /* \"#utility.yul\":4174:4277   */\n      swap2\n      pop\n        /* \"#utility.yul\":3990:4283   */\n      pop\n        /* \"#utility.yul\":3913:4283   */\n      swap3\n      swap2\n      pop\n      pop\n      jump\t// out\n        /* \"#utility.yul\":4289:4828   */\n    tag_18:\n        /* \"#utility.yul\":4373:4379   */\n      0x00\n        /* \"#utility.yul\":4422:4424   */\n      0x20\n        /* \"#utility.yul\":4410:4419   */\n      dup3\n        /* \"#utility.yul\":4401:4408   */\n      dup5\n        /* \"#utility.yul\":4397:4420   */\n      sub\n        /* \"#utility.yul\":4393:4425   */\n      slt\n        /* \"#utility.yul\":4390:4509   */\n      iszero\n      tag_105\n      jumpi\n        /* \"#utility.yul\":4428:4507   */\n      tag_106\n      tag_30\n      jump\t// in\n    tag_106:\n        /* \"#utility.yul\":4390:4509   */\n    tag_105:\n        /* \"#utility.yul\":4576:4577   */\n      0x00\n        /* \"#utility.yul\":4565:4574   */\n      dup3\n        /* \"#utility.yul\":4561:4578   */\n      add\n        /* \"#utility.yul\":4548:4579   */\n      calldataload\n        /* \"#utility.yul\":4606:4624   */\n      0xffffffffffffffff\n        /* \"#utility.yul\":4598:4604   */\n      dup2\n        /* \"#utility.yul\":4595:4625   */\n      gt\n        /* \"#utility.yul\":4592:4709   */\n      iszero\n      tag_107\n      jumpi\n        /* \"#utility.yul\":4628:4707   */\n      tag_108\n      tag_31\n      jump\t// in\n    tag_108:\n        /* \"#utility.yul\":4592:4709   */\n    tag_107:\n        /* \"#utility.yul\":4733:4811   */\n      tag_109\n        /* \"#utility.yul\":4803:4810   */\n      dup5\n        /* \"#utility.yul\":4794:4800   */\n      dup3\n        /* \"#utility.yul\":4783:4792   */\n      dup6\n        /* \"#utility.yul\":4779:4801   */\n      add\n        /* \"#utility.yul\":4733:4811   */\n      tag_48\n      jump\t// in\n    tag_109:\n        /* \"#utility.yul\":4723:4811   */\n      swap2\n      pop\n        /* \"#utility.yul\":4519:4821   */\n      pop\n        /* \"#utility.yul\":4289:4828   */\n      swap3\n      swap2\n      pop\n      pop\n      jump\t// out\n        /* \"#utility.yul\":4834:4924   */\n    tag_49:\n        /* \"#utility.yul\":4868:4875   */\n      0x00\n        /* \"#utility.yul\":4911:4916   */\n      dup2\n        /* \"#utility.yul\":4904:4917   */\n      iszero\n        /* \"#utility.yul\":4897:4918   */\n      iszero\n        /* \"#utility.yul\":4886:4918   */\n      swap1\n      pop\n        /* \"#utility.yul\":4834:4924   */\n      swap2\n      swap1\n      pop\n      jump\t// out\n        /* \"#utility.yul\":4930:5039   */\n    tag_50:\n        /* \"#utility.yul\":5011:5032   */\n      tag_112\n        /* \"#utility.yul\":5026:5031   */\n      dup2\n        /* \"#utility.yul\":5011:5032   */\n      tag_49\n      jump\t// in\n    tag_112:\n        /* \"#utility.yul\":5006:5009   */\n      dup3\n        /* \"#utility.yul\":4999:5033   */\n      mstore\n        /* \"#utility.yul\":4930:5039   */\n      pop\n      pop\n      jump\t// out\n        /* \"#utility.yul\":5045:5255   */\n    tag_21:\n        /* \"#utility.yul\":5132:5136   */\n      0x00\n        /* \"#utility.yul\":5170:5172   */\n      0x20\n        /* \"#utility.yul\":5159:5168   */\n      dup3\n        /* \"#utility.yul\":5155:5173   */\n      add\n        /* \"#utility.yul\":5147:5173   */\n      swap1\n      pop\n        /* \"#utility.yul\":5183:5248   */\n      tag_114\n        /* \"#utility.yul\":5245:5246   */\n      0x00\n        /* \"#utility.yul\":5234:5243   */\n      dup4\n        /* \"#utility.yul\":5230:5247   */\n      add\n        /* \"#utility.yul\":5221:5227   */\n      dup5\n        /* \"#utility.yul\":5183:5248   */\n      tag_50\n      jump\t// in\n    tag_114:\n        /* \"#utility.yul\":5045:5255   */\n      swap3\n      swap2\n      pop\n      pop\n      jump\t// out\n\n    auxdata: 0xa26469706673582212207d5468534393498fe7a5aa5b1ea8d860b9435d21e197f5c33079522d5943827064736f6c634300080d0033\n}\n",
				"bytecode": {
					"linkReferences": {},
					"object": "608060405234801561001057600080fd5b50604051610580380380610580833981810160405281019061003291906100db565b806000806101000a81548173ffffffffffffffffffffffffffffffffffffffff021916908373ffffffffffffffffffffffffffffffffffffffff16021790555050610108565b600080fd5b600073ffffffffffffffffffffffffffffffffffffffff82169050919050565b60006100a88261007d565b9050919050565b6100b88161009d565b81146100c357600080fd5b50565b6000815190506100d5816100af565b92915050565b6000602082840312156100f1576100f0610078565b5b60006100ff848285016100c6565b91505092915050565b610469806101176000396000f3fe608060405234801561001057600080fd5b506004361061004c5760003560e01c80634abfa163146100515780638e7ea5b214610081578063c129800d1461009f578063dedfe223146100cf575b600080fd5b61006b600480360381019061006691906101a6565b6100ed565b6040516100789190610214565b60405180910390f35b61008961012c565b6040516100969190610214565b60405180910390f35b6100b960048036038101906100b491906103b4565b610131565b6040516100c69190610418565b60405180910390f35b6100d7610138565b6040516100e49190610214565b60405180910390f35b600181815481106100fd57600080fd5b906000526020600020016000915054906101000a900473ffffffffffffffffffffffffffffffffffffffff1681565b600090565b6000919050565b60008054906101000a900473ffffffffffffffffffffffffffffffffffffffff1681565b6000604051905090565b600080fd5b600080fd5b6000819050919050565b61018381610170565b811461018e57600080fd5b50565b6000813590506101a08161017a565b92915050565b6000602082840312156101bc576101bb610166565b5b60006101ca84828501610191565b91505092915050565b600073ffffffffffffffffffffffffffffffffffffffff82169050919050565b60006101fe826101d3565b9050919050565b61020e816101f3565b82525050565b60006020820190506102296000830184610205565b92915050565b600080fd5b6000601f19601f8301169050919050565b7f4e487b7100000000000000000000000000000000000000000000000000000000600052604160045260246000fd5b61027d82610234565b810181811067ffffffffffffffff8211171561029c5761029b610245565b5b80604052505050565b60006102af61015c565b90506102bb8282610274565b919050565b600067ffffffffffffffff8211156102db576102da610245565b5b602082029050602081019050919050565b600080fd5b6102fa816101f3565b811461030557600080fd5b50565b600081359050610317816102f1565b92915050565b600061033061032b846102c0565b6102a5565b90508083825260208201905060208402830185811115610353576103526102ec565b5b835b8181101561037c57806103688882610308565b845260208401935050602081019050610355565b5050509392505050565b600082601f83011261039b5761039a61022f565b5b81356103ab84826020860161031d565b91505092915050565b6000602082840312156103ca576103c9610166565b5b600082013567ffffffffffffffff8111156103e8576103e761016b565b5b6103f484828501610386565b91505092915050565b60008115159050919050565b610412816103fd565b82525050565b600060208201905061042d6000830184610409565b9291505056fea26469706673582212207d5468534393498fe7a5aa5b1ea8d860b9435d21e197f5c33079522d5943827064736f6c634300080d0033",
					"opcodes": "PUSH1 0x80 PUSH1 0x40 MSTORE CALLVALUE DUP1 ISZERO PUSH2 0x10 JUMPI PUSH1 0x0 DUP1 REVERT JUMPDEST POP PUSH1 0x40 MLOAD PUSH2 0x580 CODESIZE SUB DUP1 PUSH2 0x580 DUP4 CODECOPY DUP2 DUP2 ADD PUSH1 0x40 MSTORE DUP2 ADD SWAP1 PUSH2 0x32 SWAP2 SWAP1 PUSH2 0xDB JUMP JUMPDEST DUP1 PUSH1 0x0 DUP1 PUSH2 0x100 EXP DUP2 SLOAD DUP2 PUSH20 0xFFFFFFFFFFFFFFFFFFFFFFFFFFFFFFFFFFFFFFFF MUL NOT AND SWAP1 DUP4 PUSH20 0xFFFFFFFFFFFFFFFFFFFFFFFFFFFFFFFFFFFFFFFF AND MUL OR SWAP1 SSTORE POP POP PUSH2 0x108 JUMP JUMPDEST PUSH1 0x0 DUP1 REVERT JUMPDEST PUSH1 0x0 PUSH20 0xFFFFFFFFFFFFFFFFFFFFFFFFFFFFFFFFFFFFFFFF DUP3 AND SWAP1 POP SWAP2 SWAP1 POP JUMP JUMPDEST PUSH1 0x0 PUSH2 0xA8 DUP3 PUSH2 0x7D JUMP JUMPDEST SWAP1 POP SWAP2 SWAP1 POP JUMP JUMPDEST PUSH2 0xB8 DUP2 PUSH2 0x9D JUMP JUMPDEST DUP2 EQ PUSH2 0xC3 JUMPI PUSH1 0x0 DUP1 REVERT JUMPDEST POP JUMP JUMPDEST PUSH1 0x0 DUP2 MLOAD SWAP1 POP PUSH2 0xD5 DUP2 PUSH2 0xAF JUMP JUMPDEST SWAP3 SWAP2 POP POP JUMP JUMPDEST PUSH1 0x0 PUSH1 0x20 DUP3 DUP5 SUB SLT ISZERO PUSH2 0xF1 JUMPI PUSH2 0xF0 PUSH2 0x78 JUMP JUMPDEST JUMPDEST PUSH1 0x0 PUSH2 0xFF DUP5 DUP3 DUP6 ADD PUSH2 0xC6 JUMP JUMPDEST SWAP2 POP POP SWAP3 SWAP2 POP POP JUMP JUMPDEST PUSH2 0x469 DUP1 PUSH2 0x117 PUSH1 0x0 CODECOPY PUSH1 0x0 RETURN INVALID PUSH1 0x80 PUSH1 0x40 MSTORE CALLVALUE DUP1 ISZERO PUSH2 0x10 JUMPI PUSH1 0x0 DUP1 REVERT JUMPDEST POP PUSH1 0x4 CALLDATASIZE LT PUSH2 0x4C JUMPI PUSH1 0x0 CALLDATALOAD PUSH1 0xE0 SHR DUP1 PUSH4 0x4ABFA163 EQ PUSH2 0x51 JUMPI DUP1 PUSH4 0x8E7EA5B2 EQ PUSH2 0x81 JUMPI DUP1 PUSH4 0xC129800D EQ PUSH2 0x9F JUMPI DUP1 PUSH4 0xDEDFE223 EQ PUSH2 0xCF JUMPI JUMPDEST PUSH1 0x0 DUP1 REVERT JUMPDEST PUSH2 0x6B PUSH1 0x4 DUP1 CALLDATASIZE SUB DUP2 ADD SWAP1 PUSH2 0x66 SWAP2 SWAP1 PUSH2 0x1A6 JUMP JUMPDEST PUSH2 0xED JUMP JUMPDEST PUSH1 0x40 MLOAD PUSH2 0x78 SWAP2 SWAP1 PUSH2 0x214 JUMP JUMPDEST PUSH1 0x40 MLOAD DUP1 SWAP2 SUB SWAP1 RETURN JUMPDEST PUSH2 0x89 PUSH2 0x12C JUMP JUMPDEST PUSH1 0x40 MLOAD PUSH2 0x96 SWAP2 SWAP1 PUSH2 0x214 JUMP JUMPDEST PUSH1 0x40 MLOAD DUP1 SWAP2 SUB SWAP1 RETURN JUMPDEST PUSH2 0xB9 PUSH1 0x4 DUP1 CALLDATASIZE SUB DUP2 ADD SWAP1 PUSH2 0xB4 SWAP2 SWAP1 PUSH2 0x3B4 JUMP JUMPDEST PUSH2 0x131 JUMP JUMPDEST PUSH1 0x40 MLOAD PUSH2 0xC6 SWAP2 SWAP1 PUSH2 0x418 JUMP JUMPDEST PUSH1 0x40 MLOAD DUP1 SWAP2 SUB SWAP1 RETURN JUMPDEST PUSH2 0xD7 PUSH2 0x138 JUMP JUMPDEST PUSH1 0x40 MLOAD PUSH2 0xE4 SWAP2 SWAP1 PUSH2 0x214 JUMP JUMPDEST PUSH1 0x40 MLOAD DUP1 SWAP2 SUB SWAP1 RETURN JUMPDEST PUSH1 0x1 DUP2 DUP2 SLOAD DUP2 LT PUSH2 0xFD JUMPI PUSH1 0x0 DUP1 REVERT JUMPDEST SWAP1 PUSH1 0x0 MSTORE PUSH1 0x20 PUSH1 0x0 KECCAK256 ADD PUSH1 0x0 SWAP2 POP SLOAD SWAP1 PUSH2 0x100 EXP SWAP1 DIV PUSH20 0xFFFFFFFFFFFFFFFFFFFFFFFFFFFFFFFFFFFFFFFF AND DUP2 JUMP JUMPDEST PUSH1 0x0 SWAP1 JUMP JUMPDEST PUSH1 0x0 SWAP2 SWAP1 POP JUMP JUMPDEST PUSH1 0x0 DUP1 SLOAD SWAP1 PUSH2 0x100 EXP SWAP1 DIV PUSH20 0xFFFFFFFFFFFFFFFFFFFFFFFFFFFFFFFFFFFFFFFF AND DUP2 JUMP JUMPDEST PUSH1 0x0 PUSH1 0x40 MLOAD SWAP1 POP SWAP1 JUMP JUMPDEST PUSH1 0x0 DUP1 REVERT JUMPDEST PUSH1 0x0 DUP1 REVERT JUMPDEST PUSH1 0x0 DUP2 SWAP1 POP SWAP2 SWAP1 POP JUMP JUMPDEST PUSH2 0x183 DUP2 PUSH2 0x170 JUMP JUMPDEST DUP2 EQ PUSH2 0x18E JUMPI PUSH1 0x0 DUP1 REVERT JUMPDEST POP JUMP JUMPDEST PUSH1 0x0 DUP2 CALLDATALOAD SWAP1 POP PUSH2 0x1A0 DUP2 PUSH2 0x17A JUMP JUMPDEST SWAP3 SWAP2 POP POP JUMP JUMPDEST PUSH1 0x0 PUSH1 0x20 DUP3 DUP5 SUB SLT ISZERO PUSH2 0x1BC JUMPI PUSH2 0x1BB PUSH2 0x166 JUMP JUMPDEST JUMPDEST PUSH1 0x0 PUSH2 0x1CA DUP5 DUP3 DUP6 ADD PUSH2 0x191 JUMP JUMPDEST SWAP2 POP POP SWAP3 SWAP2 POP POP JUMP JUMPDEST PUSH1 0x0 PUSH20 0xFFFFFFFFFFFFFFFFFFFFFFFFFFFFFFFFFFFFFFFF DUP3 AND SWAP1 POP SWAP2 SWAP1 POP JUMP JUMPDEST PUSH1 0x0 PUSH2 0x1FE DUP3 PUSH2 0x1D3 JUMP JUMPDEST SWAP1 POP SWAP2 SWAP1 POP JUMP JUMPDEST PUSH2 0x20E DUP2 PUSH2 0x1F3 JUMP JUMPDEST DUP3 MSTORE POP POP JUMP JUMPDEST PUSH1 0x0 PUSH1 0x20 DUP3 ADD SWAP1 POP PUSH2 0x229 PUSH1 0x0 DUP4 ADD DUP5 PUSH2 0x205 JUMP JUMPDEST SWAP3 SWAP2 POP POP JUMP JUMPDEST PUSH1 0x0 DUP1 REVERT JUMPDEST PUSH1 0x0 PUSH1 0x1F NOT PUSH1 0x1F DUP4 ADD AND SWAP1 POP SWAP2 SWAP1 POP JUMP JUMPDEST PUSH32 0x4E487B7100000000000000000000000000000000000000000000000000000000 PUSH1 0x0 MSTORE PUSH1 0x41 PUSH1 0x4 MSTORE PUSH1 0x24 PUSH1 0x0 REVERT JUMPDEST PUSH2 0x27D DUP3 PUSH2 0x234 JUMP JUMPDEST DUP2 ADD DUP2 DUP2 LT PUSH8 0xFFFFFFFFFFFFFFFF DUP3 GT OR ISZERO PUSH2 0x29C JUMPI PUSH2 0x29B PUSH2 0x245 JUMP JUMPDEST JUMPDEST DUP1 PUSH1 0x40 MSTORE POP POP POP JUMP JUMPDEST PUSH1 0x0 PUSH2 0x2AF PUSH2 0x15C JUMP JUMPDEST SWAP1 POP PUSH2 0x2BB DUP3 DUP3 PUSH2 0x274 JUMP JUMPDEST SWAP2 SWAP1 POP JUMP JUMPDEST PUSH1 0x0 PUSH8 0xFFFFFFFFFFFFFFFF DUP3 GT ISZERO PUSH2 0x2DB JUMPI PUSH2 0x2DA PUSH2 0x245 JUMP JUMPDEST JUMPDEST PUSH1 0x20 DUP3 MUL SWAP1 POP PUSH1 0x20 DUP2 ADD SWAP1 POP SWAP2 SWAP1 POP JUMP JUMPDEST PUSH1 0x0 DUP1 REVERT JUMPDEST PUSH2 0x2FA DUP2 PUSH2 0x1F3 JUMP JUMPDEST DUP2 EQ PUSH2 0x305 JUMPI PUSH1 0x0 DUP1 REVERT JUMPDEST POP JUMP JUMPDEST PUSH1 0x0 DUP2 CALLDATALOAD SWAP1 POP PUSH2 0x317 DUP2 PUSH2 0x2F1 JUMP JUMPDEST SWAP3 SWAP2 POP POP JUMP JUMPDEST PUSH1 0x0 PUSH2 0x330 PUSH2 0x32B DUP5 PUSH2 0x2C0 JUMP JUMPDEST PUSH2 0x2A5 JUMP JUMPDEST SWAP1 POP DUP1 DUP4 DUP3 MSTORE PUSH1 0x20 DUP3 ADD SWAP1 POP PUSH1 0x20 DUP5 MUL DUP4 ADD DUP6 DUP2 GT ISZERO PUSH2 0x353 JUMPI PUSH2 0x352 PUSH2 0x2EC JUMP JUMPDEST JUMPDEST DUP4 JUMPDEST DUP2 DUP2 LT ISZERO PUSH2 0x37C JUMPI DUP1 PUSH2 0x368 DUP9 DUP3 PUSH2 0x308 JUMP JUMPDEST DUP5 MSTORE PUSH1 0x20 DUP5 ADD SWAP4 POP POP PUSH1 0x20 DUP2 ADD SWAP1 POP PUSH2 0x355 JUMP JUMPDEST POP POP POP SWAP4 SWAP3 POP POP POP JUMP JUMPDEST PUSH1 0x0 DUP3 PUSH1 0x1F DUP4 ADD SLT PUSH2 0x39B JUMPI PUSH2 0x39A PUSH2 0x22F JUMP JUMPDEST JUMPDEST DUP2 CALLDATALOAD PUSH2 0x3AB DUP5 DUP3 PUSH1 0x20 DUP7 ADD PUSH2 0x31D JUMP JUMPDEST SWAP2 POP POP SWAP3 SWAP2 POP POP JUMP JUMPDEST PUSH1 0x0 PUSH1 0x20 DUP3 DUP5 SUB SLT ISZERO PUSH2 0x3CA JUMPI PUSH2 0x3C9 PUSH2 0x166 JUMP JUMPDEST JUMPDEST PUSH1 0x0 DUP3 ADD CALLDATALOAD PUSH8 0xFFFFFFFFFFFFFFFF DUP2 GT ISZERO PUSH2 0x3E8 JUMPI PUSH2 0x3E7 PUSH2 0x16B JUMP JUMPDEST JUMPDEST PUSH2 0x3F4 DUP5 DUP3 DUP6 ADD PUSH2 0x386 JUMP JUMPDEST SWAP2 POP POP SWAP3 SWAP2 POP POP JUMP JUMPDEST PUSH1 0x0 DUP2 ISZERO ISZERO SWAP1 POP SWAP2 SWAP1 POP JUMP JUMPDEST PUSH2 0x412 DUP2 PUSH2 0x3FD JUMP JUMPDEST DUP3 MSTORE POP POP JUMP JUMPDEST PUSH1 0x0 PUSH1 0x20 DUP3 ADD SWAP1 POP PUSH2 0x42D PUSH1 0x0 DUP4 ADD DUP5 PUSH2 0x409 JUMP JUMPDEST SWAP3 SWAP2 POP POP JUMP INVALID LOG2 PUSH5 0x6970667358 0x22 SLT KECCAK256 PUSH30 0x5468534393498FE7A5AA5B1EA8D860B9435D21E197F5C33079522D594382 PUSH17 0x64736F6C634300080D0033000000000000 "
				},
				"gasEstimates": {
					"creation": {
						"codeDepositCost": "225800",
						"executionCost": "infinite",
						"totalCost": "infinite"
					},
					"external": {
						"donors(uint256)": "4934",
						"enterLottery(address[])": "infinite",
						"getWinner()": "378",
						"managerpool()": "2555"
					}
				},
				"methodIdentifiers": {
					"donors(uint256)": "4abfa163",
					"enterLottery(address[])": "c129800d",
					"getWinner()": "8e7ea5b2",
					"managerpool()": "dedfe223"
				}
			},
			"storageLayout": {
				"storage": [
					{
						"astId": 22,
						"contract": "contracts/Lottery.sol:Lottery",
						"label": "managerpool",
						"offset": 0,
						"slot": "0",
						"type": "t_address"
					},
					{
						"astId": 25,
						"contract": "contracts/Lottery.sol:Lottery",
						"label": "donors",
						"offset": 0,
						"slot": "1",
						"type": "t_array(t_address)dyn_storage"
					}
				],
				"types": {
					"t_address": {
						"encoding": "inplace",
						"label": "address",
						"numberOfBytes": "20"
					},
					"t_array(t_address)dyn_storage": {
						"base": "t_address",
						"encoding": "dynamic_array",
						"label": "address[]",
						"numberOfBytes": "32"
					}
				}
			},
			"userdoc": {
				"kind": "user",
				"methods": {},
				"version": 1
			}
		}
	}
}