{
	"contracts/Lottery.sol": {
		"Lottery": {
			"abi": [
				{
					"inputs": [
						{
							"internalType": "address",
							"name": "_donationspool",
							"type": "address"
						}
					],
					"stateMutability": "nonpayable",
					"type": "constructor"
				},
				{
					"inputs": [
						{
							"internalType": "uint256",
							"name": "",
							"type": "uint256"
						}
					],
					"name": "donors",
					"outputs": [
						{
							"internalType": "address",
							"name": "",
							"type": "address"
						}
					],
					"stateMutability": "view",
					"type": "function"
				},
				{
					"inputs": [
						{
							"internalType": "address[]",
							"name": "_donators",
							"type": "address[]"
						}
					],
					"name": "enterLottery",
					"outputs": [
						{
							"internalType": "bool",
							"name": "",
							"type": "bool"
						}
					],
					"stateMutability": "nonpayable",
					"type": "function"
				},
				{
					"inputs": [
						{
							"internalType": "bytes32",
							"name": "_sealedSeed",
							"type": "bytes32"
						}
					],
					"name": "getWinner",
					"outputs": [
						{
							"internalType": "address",
							"name": "",
							"type": "address"
						}
					],
					"stateMutability": "nonpayable",
					"type": "function"
				},
				{
					"inputs": [],
					"name": "managerpool",
					"outputs": [
						{
							"internalType": "address",
							"name": "",
							"type": "address"
						}
					],
					"stateMutability": "view",
					"type": "function"
				},
				{
					"inputs": [
						{
							"internalType": "bytes32",
							"name": "_seed",
							"type": "bytes32"
						}
					],
					"name": "reveal",
					"outputs": [
						{
							"internalType": "uint256",
							"name": "",
							"type": "uint256"
						}
					],
					"stateMutability": "nonpayable",
					"type": "function"
				},
				{
					"inputs": [
						{
							"internalType": "bytes32",
							"name": "_sealedSeed",
							"type": "bytes32"
						}
					],
					"name": "setSealedSeed",
					"outputs": [],
					"stateMutability": "nonpayable",
					"type": "function"
				}
			],
			"devdoc": {
				"kind": "dev",
				"methods": {},
				"version": 1
			},
			"evm": {
				"assembly": "    /* \"contracts/Lottery.sol\":92:1531  contract Lottery is ILottery{... */\n  mstore(0x40, 0x80)\n    /* \"contracts/Lottery.sol\":299:443  constructor(address _donationspool){... */\n  callvalue\n  dup1\n  iszero\n  tag_1\n  jumpi\n  0x00\n  dup1\n  revert\ntag_1:\n  pop\n  mload(0x40)\n  sub(codesize, bytecodeSize)\n  dup1\n  bytecodeSize\n  dup4\n  codecopy\n  dup2\n  dup2\n  add\n  0x40\n  mstore\n  dup2\n  add\n  swap1\n  tag_2\n  swap2\n  swap1\n  tag_3\n  jump\t// in\ntag_2:\n    /* \"contracts/Lottery.sol\":359:373  _donationspool */\n  dup1\n    /* \"contracts/Lottery.sol\":345:356  managerpool */\n  0x00\n  dup1\n    /* \"contracts/Lottery.sol\":345:373  managerpool = _donationspool */\n  0x0100\n  exp\n  dup2\n  sload\n  dup2\n  0xffffffffffffffffffffffffffffffffffffffff\n  mul\n  not\n  and\n  swap1\n  dup4\n  0xffffffffffffffffffffffffffffffffffffffff\n  and\n  mul\n  or\n  swap1\n  sstore\n  pop\n    /* \"contracts/Lottery.sol\":395:400  false */\n  0x00\n    /* \"contracts/Lottery.sol\":385:392  seedSet */\n  0x03\n  0x00\n    /* \"contracts/Lottery.sol\":385:400  seedSet = false */\n  0x0100\n  exp\n  dup2\n  sload\n  dup2\n  0xff\n  mul\n  not\n  and\n  swap1\n  dup4\n  iszero\n  iszero\n  mul\n  or\n  swap1\n  sstore\n  pop\n    /* \"contracts/Lottery.sol\":429:434  false */\n  0x00\n    /* \"contracts/Lottery.sol\":411:426  donationsClosed */\n  0x03\n  0x01\n    /* \"contracts/Lottery.sol\":411:434  donationsClosed = false */\n  0x0100\n  exp\n  dup2\n  sload\n  dup2\n  0xff\n  mul\n  not\n  and\n  swap1\n  dup4\n  iszero\n  iszero\n  mul\n  or\n  swap1\n  sstore\n  pop\n    /* \"contracts/Lottery.sol\":299:443  constructor(address _donationspool){... */\n  pop\n    /* \"contracts/Lottery.sol\":92:1531  contract Lottery is ILottery{... */\n  jump(tag_6)\n    /* \"#utility.yul\":88:205   */\ntag_8:\n    /* \"#utility.yul\":197:198   */\n  0x00\n    /* \"#utility.yul\":194:195   */\n  dup1\n    /* \"#utility.yul\":187:199   */\n  revert\n    /* \"#utility.yul\":334:460   */\ntag_10:\n    /* \"#utility.yul\":371:378   */\n  0x00\n    /* \"#utility.yul\":411:453   */\n  0xffffffffffffffffffffffffffffffffffffffff\n    /* \"#utility.yul\":404:409   */\n  dup3\n    /* \"#utility.yul\":400:454   */\n  and\n    /* \"#utility.yul\":389:454   */\n  swap1\n  pop\n    /* \"#utility.yul\":334:460   */\n  swap2\n  swap1\n  pop\n  jump\t// out\n    /* \"#utility.yul\":466:562   */\ntag_11:\n    /* \"#utility.yul\":503:510   */\n  0x00\n    /* \"#utility.yul\":532:556   */\n  tag_20\n    /* \"#utility.yul\":550:555   */\n  dup3\n    /* \"#utility.yul\":532:556   */\n  tag_10\n  jump\t// in\ntag_20:\n    /* \"#utility.yul\":521:556   */\n  swap1\n  pop\n    /* \"#utility.yul\":466:562   */\n  swap2\n  swap1\n  pop\n  jump\t// out\n    /* \"#utility.yul\":568:690   */\ntag_12:\n    /* \"#utility.yul\":641:665   */\n  tag_22\n    /* \"#utility.yul\":659:664   */\n  dup2\n    /* \"#utility.yul\":641:665   */\n  tag_11\n  jump\t// in\ntag_22:\n    /* \"#utility.yul\":634:639   */\n  dup2\n    /* \"#utility.yul\":631:666   */\n  eq\n    /* \"#utility.yul\":621:684   */\n  tag_23\n  jumpi\n    /* \"#utility.yul\":680:681   */\n  0x00\n    /* \"#utility.yul\":677:678   */\n  dup1\n    /* \"#utility.yul\":670:682   */\n  revert\n    /* \"#utility.yul\":621:684   */\ntag_23:\n    /* \"#utility.yul\":568:690   */\n  pop\n  jump\t// out\n    /* \"#utility.yul\":696:839   */\ntag_13:\n    /* \"#utility.yul\":753:758   */\n  0x00\n    /* \"#utility.yul\":784:790   */\n  dup2\n    /* \"#utility.yul\":778:791   */\n  mload\n    /* \"#utility.yul\":769:791   */\n  swap1\n  pop\n    /* \"#utility.yul\":800:833   */\n  tag_25\n    /* \"#utility.yul\":827:832   */\n  dup2\n    /* \"#utility.yul\":800:833   */\n  tag_12\n  jump\t// in\ntag_25:\n    /* \"#utility.yul\":696:839   */\n  swap3\n  swap2\n  pop\n  pop\n  jump\t// out\n    /* \"#utility.yul\":845:1196   */\ntag_3:\n    /* \"#utility.yul\":915:921   */\n  0x00\n    /* \"#utility.yul\":964:966   */\n  0x20\n    /* \"#utility.yul\":952:961   */\n  dup3\n    /* \"#utility.yul\":943:950   */\n  dup5\n    /* \"#utility.yul\":939:962   */\n  sub\n    /* \"#utility.yul\":935:967   */\n  slt\n    /* \"#utility.yul\":932:1051   */\n  iszero\n  tag_27\n  jumpi\n    /* \"#utility.yul\":970:1049   */\n  tag_28\n  tag_8\n  jump\t// in\ntag_28:\n    /* \"#utility.yul\":932:1051   */\ntag_27:\n    /* \"#utility.yul\":1090:1091   */\n  0x00\n    /* \"#utility.yul\":1115:1179   */\n  tag_29\n    /* \"#utility.yul\":1171:1178   */\n  dup5\n    /* \"#utility.yul\":1162:1168   */\n  dup3\n    /* \"#utility.yul\":1151:1160   */\n  dup6\n    /* \"#utility.yul\":1147:1169   */\n  add\n    /* \"#utility.yul\":1115:1179   */\n  tag_13\n  jump\t// in\ntag_29:\n    /* \"#utility.yul\":1105:1179   */\n  swap2\n  pop\n    /* \"#utility.yul\":1061:1189   */\n  pop\n    /* \"#utility.yul\":845:1196   */\n  swap3\n  swap2\n  pop\n  pop\n  jump\t// out\n    /* \"contracts/Lottery.sol\":92:1531  contract Lottery is ILottery{... */\ntag_6:\n  dataSize(sub_0)\n  dup1\n  dataOffset(sub_0)\n  0x00\n  codecopy\n  0x00\n  return\nstop\n\nsub_0: assembly {\n        /* \"contracts/Lottery.sol\":92:1531  contract Lottery is ILottery{... */\n      mstore(0x40, 0x80)\n      callvalue\n      dup1\n      iszero\n      tag_1\n      jumpi\n      0x00\n      dup1\n      revert\n    tag_1:\n      pop\n      jumpi(tag_2, lt(calldatasize, 0x04))\n      shr(0xe0, calldataload(0x00))\n      dup1\n      0x1e5f9149\n      eq\n      tag_3\n      jumpi\n      dup1\n      0x41114538\n      eq\n      tag_4\n      jumpi\n      dup1\n      0x4abfa163\n      eq\n      tag_5\n      jumpi\n      dup1\n      0x701fd0f1\n      eq\n      tag_6\n      jumpi\n      dup1\n      0xc129800d\n      eq\n      tag_7\n      jumpi\n      dup1\n      0xdedfe223\n      eq\n      tag_8\n      jumpi\n    tag_2:\n      0x00\n      dup1\n      revert\n        /* \"contracts/Lottery.sol\":595:706  function getWinner(bytes32 _sealedSeed) external returns(address){... */\n    tag_3:\n      tag_9\n      0x04\n      dup1\n      calldatasize\n      sub\n      dup2\n      add\n      swap1\n      tag_10\n      swap2\n      swap1\n      tag_11\n      jump\t// in\n    tag_10:\n      tag_12\n      jump\t// in\n    tag_9:\n      mload(0x40)\n      tag_13\n      swap2\n      swap1\n      tag_14\n      jump\t// in\n    tag_13:\n      mload(0x40)\n      dup1\n      swap2\n      sub\n      swap1\n      return\n        /* \"contracts/Lottery.sol\":714:1058  function setSealedSeed(bytes32 _sealedSeed) public {... */\n    tag_4:\n      tag_15\n      0x04\n      dup1\n      calldatasize\n      sub\n      dup2\n      add\n      swap1\n      tag_16\n      swap2\n      swap1\n      tag_11\n      jump\t// in\n    tag_16:\n      tag_17\n      jump\t// in\n    tag_15:\n      stop\n        /* \"contracts/Lottery.sol\":161:184  address[] public donors */\n    tag_5:\n      tag_18\n      0x04\n      dup1\n      calldatasize\n      sub\n      dup2\n      add\n      swap1\n      tag_19\n      swap2\n      swap1\n      tag_20\n      jump\t// in\n    tag_19:\n      tag_21\n      jump\t// in\n    tag_18:\n      mload(0x40)\n      tag_22\n      swap2\n      swap1\n      tag_14\n      jump\t// in\n    tag_22:\n      mload(0x40)\n      dup1\n      swap2\n      sub\n      swap1\n      return\n        /* \"contracts/Lottery.sol\":1066:1526  function reveal(bytes32 _seed) public returns (uint){... */\n    tag_6:\n      tag_23\n      0x04\n      dup1\n      calldatasize\n      sub\n      dup2\n      add\n      swap1\n      tag_24\n      swap2\n      swap1\n      tag_11\n      jump\t// in\n    tag_24:\n      tag_25\n      jump\t// in\n    tag_23:\n      mload(0x40)\n      tag_26\n      swap2\n      swap1\n      tag_27\n      jump\t// in\n    tag_26:\n      mload(0x40)\n      dup1\n      swap2\n      sub\n      swap1\n      return\n        /* \"contracts/Lottery.sol\":453:587  function enterLottery(address[] memory _donators) external returns (bool){... */\n    tag_7:\n      tag_28\n      0x04\n      dup1\n      calldatasize\n      sub\n      dup2\n      add\n      swap1\n      tag_29\n      swap2\n      swap1\n      tag_30\n      jump\t// in\n    tag_29:\n      tag_31\n      jump\t// in\n    tag_28:\n      mload(0x40)\n      tag_32\n      swap2\n      swap1\n      tag_33\n      jump\t// in\n    tag_32:\n      mload(0x40)\n      dup1\n      swap2\n      sub\n      swap1\n      return\n        /* \"contracts/Lottery.sol\":127:153  address public managerpool */\n    tag_8:\n      tag_34\n      tag_35\n      jump\t// in\n    tag_34:\n      mload(0x40)\n      tag_36\n      swap2\n      swap1\n      tag_14\n      jump\t// in\n    tag_36:\n      mload(0x40)\n      dup1\n      swap2\n      sub\n      swap1\n      return\n        /* \"contracts/Lottery.sol\":595:706  function getWinner(bytes32 _sealedSeed) external returns(address){... */\n    tag_12:\n        /* \"contracts/Lottery.sol\":652:659  address */\n      0x00\n        /* \"contracts/Lottery.sol\":671:697  setSealedSeed(_sealedSeed) */\n      tag_38\n        /* \"contracts/Lottery.sol\":685:696  _sealedSeed */\n      dup3\n        /* \"contracts/Lottery.sol\":671:684  setSealedSeed */\n      tag_17\n        /* \"contracts/Lottery.sol\":671:697  setSealedSeed(_sealedSeed) */\n      jump\t// in\n    tag_38:\n        /* \"contracts/Lottery.sol\":595:706  function getWinner(bytes32 _sealedSeed) external returns(address){... */\n      swap2\n      swap1\n      pop\n      jump\t// out\n        /* \"contracts/Lottery.sol\":714:1058  function setSealedSeed(bytes32 _sealedSeed) public {... */\n    tag_17:\n        /* \"contracts/Lottery.sol\":786:793  seedSet */\n      0x03\n      0x00\n      swap1\n      sload\n      swap1\n      0x0100\n      exp\n      swap1\n      div\n      0xff\n      and\n        /* \"contracts/Lottery.sol\":785:793  !seedSet */\n      iszero\n        /* \"contracts/Lottery.sol\":776:817  require (!seedSet, \"seed is already set\") */\n      tag_40\n      jumpi\n      mload(0x40)\n      0x08c379a000000000000000000000000000000000000000000000000000000000\n      dup2\n      mstore\n      0x04\n      add\n      tag_41\n      swap1\n      tag_42\n      jump\t// in\n    tag_41:\n      mload(0x40)\n      dup1\n      swap2\n      sub\n      swap1\n      revert\n    tag_40:\n        /* \"contracts/Lottery.sol\":851:862  managerpool */\n      0x00\n      dup1\n      sload\n      swap1\n      0x0100\n      exp\n      swap1\n      div\n      0xffffffffffffffffffffffffffffffffffffffff\n      and\n        /* \"contracts/Lottery.sol\":837:862  msg.sender == managerpool */\n      0xffffffffffffffffffffffffffffffffffffffff\n      and\n        /* \"contracts/Lottery.sol\":837:847  msg.sender */\n      caller\n        /* \"contracts/Lottery.sol\":837:862  msg.sender == managerpool */\n      0xffffffffffffffffffffffffffffffffffffffff\n      and\n      eq\n        /* \"contracts/Lottery.sol\":828:906  require (msg.sender == managerpool, \"only managerpool can call this function\") */\n      tag_43\n      jumpi\n      mload(0x40)\n      0x08c379a000000000000000000000000000000000000000000000000000000000\n      dup2\n      mstore\n      0x04\n      add\n      tag_44\n      swap1\n      tag_45\n      jump\t// in\n    tag_44:\n      mload(0x40)\n      dup1\n      swap2\n      sub\n      swap1\n      revert\n    tag_43:\n        /* \"contracts/Lottery.sol\":935:939  true */\n      0x01\n        /* \"contracts/Lottery.sol\":917:932  donationsClosed */\n      0x03\n      0x01\n        /* \"contracts/Lottery.sol\":917:939  donationsClosed = true */\n      0x0100\n      exp\n      dup2\n      sload\n      dup2\n      0xff\n      mul\n      not\n      and\n      swap1\n      dup4\n      iszero\n      iszero\n      mul\n      or\n      swap1\n      sstore\n      pop\n        /* \"contracts/Lottery.sol\":964:975  _sealedSeed */\n      dup1\n        /* \"contracts/Lottery.sol\":951:961  sealedSeed */\n      0x02\n        /* \"contracts/Lottery.sol\":951:975  sealedSeed = _sealedSeed */\n      dup2\n      swap1\n      sstore\n      pop\n        /* \"contracts/Lottery.sol\":1022:1023  1 */\n      0x01\n        /* \"contracts/Lottery.sol\":1007:1019  block.number */\n      number\n        /* \"contracts/Lottery.sol\":1007:1023  block.number + 1 */\n      tag_46\n      swap2\n      swap1\n      tag_47\n      jump\t// in\n    tag_46:\n        /* \"contracts/Lottery.sol\":987:1004  storedBlockNumber */\n      0x04\n        /* \"contracts/Lottery.sol\":987:1023  storedBlockNumber = block.number + 1 */\n      dup2\n      swap1\n      sstore\n      pop\n        /* \"contracts/Lottery.sol\":1045:1049  true */\n      0x01\n        /* \"contracts/Lottery.sol\":1035:1042  seedSet */\n      0x03\n      0x00\n        /* \"contracts/Lottery.sol\":1035:1049  seedSet = true */\n      0x0100\n      exp\n      dup2\n      sload\n      dup2\n      0xff\n      mul\n      not\n      and\n      swap1\n      dup4\n      iszero\n      iszero\n      mul\n      or\n      swap1\n      sstore\n      pop\n        /* \"contracts/Lottery.sol\":714:1058  function setSealedSeed(bytes32 _sealedSeed) public {... */\n      pop\n      jump\t// out\n        /* \"contracts/Lottery.sol\":161:184  address[] public donors */\n    tag_21:\n      0x01\n      dup2\n      dup2\n      sload\n      dup2\n      lt\n      tag_48\n      jumpi\n      0x00\n      dup1\n      revert\n    tag_48:\n      swap1\n      0x00\n      mstore\n      keccak256(0x00, 0x20)\n      add\n      0x00\n      swap2\n      pop\n      sload\n      swap1\n      0x0100\n      exp\n      swap1\n      div\n      0xffffffffffffffffffffffffffffffffffffffff\n      and\n      dup2\n      jump\t// out\n        /* \"contracts/Lottery.sol\":1066:1526  function reveal(bytes32 _seed) public returns (uint){... */\n    tag_25:\n        /* \"contracts/Lottery.sol\":1113:1117  uint */\n      0x00\n        /* \"contracts/Lottery.sol\":1137:1144  seedSet */\n      0x03\n      0x00\n      swap1\n      sload\n      swap1\n      0x0100\n      exp\n      swap1\n      div\n      0xff\n      and\n        /* \"contracts/Lottery.sol\":1129:1168  require(seedSet, \"seed is not yet set\") */\n      tag_51\n      jumpi\n      mload(0x40)\n      0x08c379a000000000000000000000000000000000000000000000000000000000\n      dup2\n      mstore\n      0x04\n      add\n      tag_52\n      swap1\n      tag_53\n      jump\t// in\n    tag_52:\n      mload(0x40)\n      dup1\n      swap2\n      sub\n      swap1\n      revert\n    tag_51:\n        /* \"contracts/Lottery.sol\":1188:1203  donationsClosed */\n      0x03\n      0x01\n      swap1\n      sload\n      swap1\n      0x0100\n      exp\n      swap1\n      div\n      0xff\n      and\n        /* \"contracts/Lottery.sol\":1180:1236  require(donationsClosed, \"donations are not closed yet\") */\n      tag_54\n      jumpi\n      mload(0x40)\n      0x08c379a000000000000000000000000000000000000000000000000000000000\n      dup2\n      mstore\n      0x04\n      add\n      tag_55\n      swap1\n      tag_56\n      jump\t// in\n    tag_55:\n      mload(0x40)\n      dup1\n      swap2\n      sub\n      swap1\n      revert\n    tag_54:\n        /* \"contracts/Lottery.sol\":1276:1288  block.number */\n      number\n        /* \"contracts/Lottery.sol\":1256:1273  storedBlockNumber */\n      sload(0x04)\n        /* \"contracts/Lottery.sol\":1256:1288  storedBlockNumber < block.number */\n      lt\n        /* \"contracts/Lottery.sol\":1248:1289  require(storedBlockNumber < block.number) */\n      tag_57\n      jumpi\n      0x00\n      dup1\n      revert\n    tag_57:\n        /* \"contracts/Lottery.sol\":1352:1362  sealedSeed */\n      sload(0x02)\n        /* \"contracts/Lottery.sol\":1330:1340  msg.sender */\n      caller\n        /* \"contracts/Lottery.sol\":1342:1347  _seed */\n      dup4\n        /* \"contracts/Lottery.sol\":1319:1348  abi.encode(msg.sender, _seed) */\n      add(0x20, mload(0x40))\n      tag_58\n      swap3\n      swap2\n      swap1\n      tag_59\n      jump\t// in\n    tag_58:\n      mload(0x40)\n      0x20\n      dup2\n      dup4\n      sub\n      sub\n      dup2\n      mstore\n      swap1\n      0x40\n      mstore\n        /* \"contracts/Lottery.sol\":1309:1349  keccak256(abi.encode(msg.sender, _seed)) */\n      dup1\n      mload\n      swap1\n      0x20\n      add\n      keccak256\n        /* \"contracts/Lottery.sol\":1309:1362  keccak256(abi.encode(msg.sender, _seed))== sealedSeed */\n      eq\n        /* \"contracts/Lottery.sol\":1301:1363  require(keccak256(abi.encode(msg.sender, _seed))== sealedSeed) */\n      tag_60\n      jumpi\n      0x00\n      dup1\n      revert\n    tag_60:\n        /* \"contracts/Lottery.sol\":1375:1386  uint random */\n      0x00\n        /* \"contracts/Lottery.sol\":1415:1420  _seed */\n      dup3\n        /* \"contracts/Lottery.sol\":1432:1449  storedBlockNumber */\n      sload(0x04)\n        /* \"contracts/Lottery.sol\":1422:1450  blockhash(storedBlockNumber) */\n      blockhash\n        /* \"contracts/Lottery.sol\":1404:1451  abi.encode(_seed, blockhash(storedBlockNumber)) */\n      add(0x20, mload(0x40))\n      tag_61\n      swap3\n      swap2\n      swap1\n      tag_62\n      jump\t// in\n    tag_61:\n      mload(0x40)\n      0x20\n      dup2\n      dup4\n      sub\n      sub\n      dup2\n      mstore\n      swap1\n      0x40\n      mstore\n        /* \"contracts/Lottery.sol\":1394:1452  keccak256(abi.encode(_seed, blockhash(storedBlockNumber))) */\n      dup1\n      mload\n      swap1\n      0x20\n      add\n      keccak256\n        /* \"contracts/Lottery.sol\":1389:1453  uint(keccak256(abi.encode(_seed, blockhash(storedBlockNumber)))) */\n      0x00\n      shr\n        /* \"contracts/Lottery.sol\":1375:1453  uint random = uint(keccak256(abi.encode(_seed, blockhash(storedBlockNumber)))) */\n      swap1\n      pop\n        /* \"contracts/Lottery.sol\":1118:1526  {... */\n      pop\n        /* \"contracts/Lottery.sol\":1066:1526  function reveal(bytes32 _seed) public returns (uint){... */\n      swap2\n      swap1\n      pop\n      jump\t// out\n        /* \"contracts/Lottery.sol\":453:587  function enterLottery(address[] memory _donators) external returns (bool){... */\n    tag_31:\n        /* \"contracts/Lottery.sol\":521:525  bool */\n      0x00\n        /* \"contracts/Lottery.sol\":546:555  _donators */\n      dup2\n        /* \"contracts/Lottery.sol\":537:543  donors */\n      0x01\n        /* \"contracts/Lottery.sol\":537:555  donors = _donators */\n      swap1\n      dup1\n      mload\n      swap1\n      0x20\n      add\n      swap1\n      tag_64\n      swap3\n      swap2\n      swap1\n      tag_65\n      jump\t// in\n    tag_64:\n      pop\n        /* \"contracts/Lottery.sol\":574:578  true */\n      0x01\n        /* \"contracts/Lottery.sol\":567:578  return true */\n      swap1\n      pop\n        /* \"contracts/Lottery.sol\":453:587  function enterLottery(address[] memory _donators) external returns (bool){... */\n      swap2\n      swap1\n      pop\n      jump\t// out\n        /* \"contracts/Lottery.sol\":127:153  address public managerpool */\n    tag_35:\n      0x00\n      dup1\n      sload\n      swap1\n      0x0100\n      exp\n      swap1\n      div\n      0xffffffffffffffffffffffffffffffffffffffff\n      and\n      dup2\n      jump\t// out\n    tag_65:\n      dup3\n      dup1\n      sload\n      dup3\n      dup3\n      sstore\n      swap1\n      0x00\n      mstore\n      keccak256(0x00, 0x20)\n      swap1\n      dup2\n      add\n      swap3\n      dup3\n      iszero\n      tag_66\n      jumpi\n      swap2\n      0x20\n      mul\n      dup3\n      add\n    tag_67:\n      dup3\n      dup2\n      gt\n      iszero\n      tag_68\n      jumpi\n      dup3\n      mload\n      dup3\n      exp(0x0100, 0x00)\n      dup2\n      sload\n      dup2\n      0xffffffffffffffffffffffffffffffffffffffff\n      mul\n      not\n      and\n      swap1\n      dup4\n      0xffffffffffffffffffffffffffffffffffffffff\n      and\n      mul\n      or\n      swap1\n      sstore\n      pop\n      swap2\n      0x20\n      add\n      swap2\n      swap1\n      0x01\n      add\n      swap1\n      jump(tag_67)\n    tag_68:\n    tag_66:\n      pop\n      swap1\n      pop\n      tag_69\n      swap2\n      swap1\n      tag_70\n      jump\t// in\n    tag_69:\n      pop\n      swap1\n      jump\t// out\n    tag_70:\n    tag_71:\n      dup1\n      dup3\n      gt\n      iszero\n      tag_72\n      jumpi\n      0x00\n      dup2\n      0x00\n      swap1\n      sstore\n      pop\n      0x01\n      add\n      jump(tag_71)\n    tag_72:\n      pop\n      swap1\n      jump\t// out\n        /* \"#utility.yul\":7:82   */\n    tag_73:\n        /* \"#utility.yul\":40:46   */\n      0x00\n        /* \"#utility.yul\":73:75   */\n      0x40\n        /* \"#utility.yul\":67:76   */\n      mload\n        /* \"#utility.yul\":57:76   */\n      swap1\n      pop\n        /* \"#utility.yul\":7:82   */\n      swap1\n      jump\t// out\n        /* \"#utility.yul\":88:205   */\n    tag_74:\n        /* \"#utility.yul\":197:198   */\n      0x00\n        /* \"#utility.yul\":194:195   */\n      dup1\n        /* \"#utility.yul\":187:199   */\n      revert\n        /* \"#utility.yul\":211:328   */\n    tag_75:\n        /* \"#utility.yul\":320:321   */\n      0x00\n        /* \"#utility.yul\":317:318   */\n      dup1\n        /* \"#utility.yul\":310:322   */\n      revert\n        /* \"#utility.yul\":334:411   */\n    tag_76:\n        /* \"#utility.yul\":371:378   */\n      0x00\n        /* \"#utility.yul\":400:405   */\n      dup2\n        /* \"#utility.yul\":389:405   */\n      swap1\n      pop\n        /* \"#utility.yul\":334:411   */\n      swap2\n      swap1\n      pop\n      jump\t// out\n        /* \"#utility.yul\":417:539   */\n    tag_77:\n        /* \"#utility.yul\":490:514   */\n      tag_116\n        /* \"#utility.yul\":508:513   */\n      dup2\n        /* \"#utility.yul\":490:514   */\n      tag_76\n      jump\t// in\n    tag_116:\n        /* \"#utility.yul\":483:488   */\n      dup2\n        /* \"#utility.yul\":480:515   */\n      eq\n        /* \"#utility.yul\":470:533   */\n      tag_117\n      jumpi\n        /* \"#utility.yul\":529:530   */\n      0x00\n        /* \"#utility.yul\":526:527   */\n      dup1\n        /* \"#utility.yul\":519:531   */\n      revert\n        /* \"#utility.yul\":470:533   */\n    tag_117:\n        /* \"#utility.yul\":417:539   */\n      pop\n      jump\t// out\n        /* \"#utility.yul\":545:684   */\n    tag_78:\n        /* \"#utility.yul\":591:596   */\n      0x00\n        /* \"#utility.yul\":629:635   */\n      dup2\n        /* \"#utility.yul\":616:636   */\n      calldataload\n        /* \"#utility.yul\":607:636   */\n      swap1\n      pop\n        /* \"#utility.yul\":645:678   */\n      tag_119\n        /* \"#utility.yul\":672:677   */\n      dup2\n        /* \"#utility.yul\":645:678   */\n      tag_77\n      jump\t// in\n    tag_119:\n        /* \"#utility.yul\":545:684   */\n      swap3\n      swap2\n      pop\n      pop\n      jump\t// out\n        /* \"#utility.yul\":690:1019   */\n    tag_11:\n        /* \"#utility.yul\":749:755   */\n      0x00\n        /* \"#utility.yul\":798:800   */\n      0x20\n        /* \"#utility.yul\":786:795   */\n      dup3\n        /* \"#utility.yul\":777:784   */\n      dup5\n        /* \"#utility.yul\":773:796   */\n      sub\n        /* \"#utility.yul\":769:801   */\n      slt\n        /* \"#utility.yul\":766:885   */\n      iszero\n      tag_121\n      jumpi\n        /* \"#utility.yul\":804:883   */\n      tag_122\n      tag_74\n      jump\t// in\n    tag_122:\n        /* \"#utility.yul\":766:885   */\n    tag_121:\n        /* \"#utility.yul\":924:925   */\n      0x00\n        /* \"#utility.yul\":949:1002   */\n      tag_123\n        /* \"#utility.yul\":994:1001   */\n      dup5\n        /* \"#utility.yul\":985:991   */\n      dup3\n        /* \"#utility.yul\":974:983   */\n      dup6\n        /* \"#utility.yul\":970:992   */\n      add\n        /* \"#utility.yul\":949:1002   */\n      tag_78\n      jump\t// in\n    tag_123:\n        /* \"#utility.yul\":939:1002   */\n      swap2\n      pop\n        /* \"#utility.yul\":895:1012   */\n      pop\n        /* \"#utility.yul\":690:1019   */\n      swap3\n      swap2\n      pop\n      pop\n      jump\t// out\n        /* \"#utility.yul\":1025:1151   */\n    tag_79:\n        /* \"#utility.yul\":1062:1069   */\n      0x00\n        /* \"#utility.yul\":1102:1144   */\n      0xffffffffffffffffffffffffffffffffffffffff\n        /* \"#utility.yul\":1095:1100   */\n      dup3\n        /* \"#utility.yul\":1091:1145   */\n      and\n        /* \"#utility.yul\":1080:1145   */\n      swap1\n      pop\n        /* \"#utility.yul\":1025:1151   */\n      swap2\n      swap1\n      pop\n      jump\t// out\n        /* \"#utility.yul\":1157:1253   */\n    tag_80:\n        /* \"#utility.yul\":1194:1201   */\n      0x00\n        /* \"#utility.yul\":1223:1247   */\n      tag_126\n        /* \"#utility.yul\":1241:1246   */\n      dup3\n        /* \"#utility.yul\":1223:1247   */\n      tag_79\n      jump\t// in\n    tag_126:\n        /* \"#utility.yul\":1212:1247   */\n      swap1\n      pop\n        /* \"#utility.yul\":1157:1253   */\n      swap2\n      swap1\n      pop\n      jump\t// out\n        /* \"#utility.yul\":1259:1377   */\n    tag_81:\n        /* \"#utility.yul\":1346:1370   */\n      tag_128\n        /* \"#utility.yul\":1364:1369   */\n      dup2\n        /* \"#utility.yul\":1346:1370   */\n      tag_80\n      jump\t// in\n    tag_128:\n        /* \"#utility.yul\":1341:1344   */\n      dup3\n        /* \"#utility.yul\":1334:1371   */\n      mstore\n        /* \"#utility.yul\":1259:1377   */\n      pop\n      pop\n      jump\t// out\n        /* \"#utility.yul\":1383:1605   */\n    tag_14:\n        /* \"#utility.yul\":1476:1480   */\n      0x00\n        /* \"#utility.yul\":1514:1516   */\n      0x20\n        /* \"#utility.yul\":1503:1512   */\n      dup3\n        /* \"#utility.yul\":1499:1517   */\n      add\n        /* \"#utility.yul\":1491:1517   */\n      swap1\n      pop\n        /* \"#utility.yul\":1527:1598   */\n      tag_130\n        /* \"#utility.yul\":1595:1596   */\n      0x00\n        /* \"#utility.yul\":1584:1593   */\n      dup4\n        /* \"#utility.yul\":1580:1597   */\n      add\n        /* \"#utility.yul\":1571:1577   */\n      dup5\n        /* \"#utility.yul\":1527:1598   */\n      tag_81\n      jump\t// in\n    tag_130:\n        /* \"#utility.yul\":1383:1605   */\n      swap3\n      swap2\n      pop\n      pop\n      jump\t// out\n        /* \"#utility.yul\":1611:1688   */\n    tag_82:\n        /* \"#utility.yul\":1648:1655   */\n      0x00\n        /* \"#utility.yul\":1677:1682   */\n      dup2\n        /* \"#utility.yul\":1666:1682   */\n      swap1\n      pop\n        /* \"#utility.yul\":1611:1688   */\n      swap2\n      swap1\n      pop\n      jump\t// out\n        /* \"#utility.yul\":1694:1816   */\n    tag_83:\n        /* \"#utility.yul\":1767:1791   */\n      tag_133\n        /* \"#utility.yul\":1785:1790   */\n      dup2\n        /* \"#utility.yul\":1767:1791   */\n      tag_82\n      jump\t// in\n    tag_133:\n        /* \"#utility.yul\":1760:1765   */\n      dup2\n        /* \"#utility.yul\":1757:1792   */\n      eq\n        /* \"#utility.yul\":1747:1810   */\n      tag_134\n      jumpi\n        /* \"#utility.yul\":1806:1807   */\n      0x00\n        /* \"#utility.yul\":1803:1804   */\n      dup1\n        /* \"#utility.yul\":1796:1808   */\n      revert\n        /* \"#utility.yul\":1747:1810   */\n    tag_134:\n        /* \"#utility.yul\":1694:1816   */\n      pop\n      jump\t// out\n        /* \"#utility.yul\":1822:1961   */\n    tag_84:\n        /* \"#utility.yul\":1868:1873   */\n      0x00\n        /* \"#utility.yul\":1906:1912   */\n      dup2\n        /* \"#utility.yul\":1893:1913   */\n      calldataload\n        /* \"#utility.yul\":1884:1913   */\n      swap1\n      pop\n        /* \"#utility.yul\":1922:1955   */\n      tag_136\n        /* \"#utility.yul\":1949:1954   */\n      dup2\n        /* \"#utility.yul\":1922:1955   */\n      tag_83\n      jump\t// in\n    tag_136:\n        /* \"#utility.yul\":1822:1961   */\n      swap3\n      swap2\n      pop\n      pop\n      jump\t// out\n        /* \"#utility.yul\":1967:2296   */\n    tag_20:\n        /* \"#utility.yul\":2026:2032   */\n      0x00\n        /* \"#utility.yul\":2075:2077   */\n      0x20\n        /* \"#utility.yul\":2063:2072   */\n      dup3\n        /* \"#utility.yul\":2054:2061   */\n      dup5\n        /* \"#utility.yul\":2050:2073   */\n      sub\n        /* \"#utility.yul\":2046:2078   */\n      slt\n        /* \"#utility.yul\":2043:2162   */\n      iszero\n      tag_138\n      jumpi\n        /* \"#utility.yul\":2081:2160   */\n      tag_139\n      tag_74\n      jump\t// in\n    tag_139:\n        /* \"#utility.yul\":2043:2162   */\n    tag_138:\n        /* \"#utility.yul\":2201:2202   */\n      0x00\n        /* \"#utility.yul\":2226:2279   */\n      tag_140\n        /* \"#utility.yul\":2271:2278   */\n      dup5\n        /* \"#utility.yul\":2262:2268   */\n      dup3\n        /* \"#utility.yul\":2251:2260   */\n      dup6\n        /* \"#utility.yul\":2247:2269   */\n      add\n        /* \"#utility.yul\":2226:2279   */\n      tag_84\n      jump\t// in\n    tag_140:\n        /* \"#utility.yul\":2216:2279   */\n      swap2\n      pop\n        /* \"#utility.yul\":2172:2289   */\n      pop\n        /* \"#utility.yul\":1967:2296   */\n      swap3\n      swap2\n      pop\n      pop\n      jump\t// out\n        /* \"#utility.yul\":2302:2420   */\n    tag_85:\n        /* \"#utility.yul\":2389:2413   */\n      tag_142\n        /* \"#utility.yul\":2407:2412   */\n      dup2\n        /* \"#utility.yul\":2389:2413   */\n      tag_82\n      jump\t// in\n    tag_142:\n        /* \"#utility.yul\":2384:2387   */\n      dup3\n        /* \"#utility.yul\":2377:2414   */\n      mstore\n        /* \"#utility.yul\":2302:2420   */\n      pop\n      pop\n      jump\t// out\n        /* \"#utility.yul\":2426:2648   */\n    tag_27:\n        /* \"#utility.yul\":2519:2523   */\n      0x00\n        /* \"#utility.yul\":2557:2559   */\n      0x20\n        /* \"#utility.yul\":2546:2555   */\n      dup3\n        /* \"#utility.yul\":2542:2560   */\n      add\n        /* \"#utility.yul\":2534:2560   */\n      swap1\n      pop\n        /* \"#utility.yul\":2570:2641   */\n      tag_144\n        /* \"#utility.yul\":2638:2639   */\n      0x00\n        /* \"#utility.yul\":2627:2636   */\n      dup4\n        /* \"#utility.yul\":2623:2640   */\n      add\n        /* \"#utility.yul\":2614:2620   */\n      dup5\n        /* \"#utility.yul\":2570:2641   */\n      tag_85\n      jump\t// in\n    tag_144:\n        /* \"#utility.yul\":2426:2648   */\n      swap3\n      swap2\n      pop\n      pop\n      jump\t// out\n        /* \"#utility.yul\":2654:2771   */\n    tag_86:\n        /* \"#utility.yul\":2763:2764   */\n      0x00\n        /* \"#utility.yul\":2760:2761   */\n      dup1\n        /* \"#utility.yul\":2753:2765   */\n      revert\n        /* \"#utility.yul\":2777:2879   */\n    tag_87:\n        /* \"#utility.yul\":2818:2824   */\n      0x00\n        /* \"#utility.yul\":2869:2871   */\n      0x1f\n        /* \"#utility.yul\":2865:2872   */\n      not\n        /* \"#utility.yul\":2860:2862   */\n      0x1f\n        /* \"#utility.yul\":2853:2858   */\n      dup4\n        /* \"#utility.yul\":2849:2863   */\n      add\n        /* \"#utility.yul\":2845:2873   */\n      and\n        /* \"#utility.yul\":2835:2873   */\n      swap1\n      pop\n        /* \"#utility.yul\":2777:2879   */\n      swap2\n      swap1\n      pop\n      jump\t// out\n        /* \"#utility.yul\":2885:3065   */\n    tag_88:\n        /* \"#utility.yul\":2933:3010   */\n      0x4e487b7100000000000000000000000000000000000000000000000000000000\n        /* \"#utility.yul\":2930:2931   */\n      0x00\n        /* \"#utility.yul\":2923:3011   */\n      mstore\n        /* \"#utility.yul\":3030:3034   */\n      0x41\n        /* \"#utility.yul\":3027:3028   */\n      0x04\n        /* \"#utility.yul\":3020:3035   */\n      mstore\n        /* \"#utility.yul\":3054:3058   */\n      0x24\n        /* \"#utility.yul\":3051:3052   */\n      0x00\n        /* \"#utility.yul\":3044:3059   */\n      revert\n        /* \"#utility.yul\":3071:3352   */\n    tag_89:\n        /* \"#utility.yul\":3154:3181   */\n      tag_149\n        /* \"#utility.yul\":3176:3180   */\n      dup3\n        /* \"#utility.yul\":3154:3181   */\n      tag_87\n      jump\t// in\n    tag_149:\n        /* \"#utility.yul\":3146:3152   */\n      dup2\n        /* \"#utility.yul\":3142:3182   */\n      add\n        /* \"#utility.yul\":3284:3290   */\n      dup2\n        /* \"#utility.yul\":3272:3282   */\n      dup2\n        /* \"#utility.yul\":3269:3291   */\n      lt\n        /* \"#utility.yul\":3248:3266   */\n      0xffffffffffffffff\n        /* \"#utility.yul\":3236:3246   */\n      dup3\n        /* \"#utility.yul\":3233:3267   */\n      gt\n        /* \"#utility.yul\":3230:3292   */\n      or\n        /* \"#utility.yul\":3227:3315   */\n      iszero\n      tag_150\n      jumpi\n        /* \"#utility.yul\":3295:3313   */\n      tag_151\n      tag_88\n      jump\t// in\n    tag_151:\n        /* \"#utility.yul\":3227:3315   */\n    tag_150:\n        /* \"#utility.yul\":3335:3345   */\n      dup1\n        /* \"#utility.yul\":3331:3333   */\n      0x40\n        /* \"#utility.yul\":3324:3346   */\n      mstore\n        /* \"#utility.yul\":3114:3352   */\n      pop\n        /* \"#utility.yul\":3071:3352   */\n      pop\n      pop\n      jump\t// out\n        /* \"#utility.yul\":3358:3487   */\n    tag_90:\n        /* \"#utility.yul\":3392:3398   */\n      0x00\n        /* \"#utility.yul\":3419:3439   */\n      tag_153\n      tag_73\n      jump\t// in\n    tag_153:\n        /* \"#utility.yul\":3409:3439   */\n      swap1\n      pop\n        /* \"#utility.yul\":3448:3481   */\n      tag_154\n        /* \"#utility.yul\":3476:3480   */\n      dup3\n        /* \"#utility.yul\":3468:3474   */\n      dup3\n        /* \"#utility.yul\":3448:3481   */\n      tag_89\n      jump\t// in\n    tag_154:\n        /* \"#utility.yul\":3358:3487   */\n      swap2\n      swap1\n      pop\n      jump\t// out\n        /* \"#utility.yul\":3493:3804   */\n    tag_91:\n        /* \"#utility.yul\":3570:3574   */\n      0x00\n        /* \"#utility.yul\":3660:3678   */\n      0xffffffffffffffff\n        /* \"#utility.yul\":3652:3658   */\n      dup3\n        /* \"#utility.yul\":3649:3679   */\n      gt\n        /* \"#utility.yul\":3646:3702   */\n      iszero\n      tag_156\n      jumpi\n        /* \"#utility.yul\":3682:3700   */\n      tag_157\n      tag_88\n      jump\t// in\n    tag_157:\n        /* \"#utility.yul\":3646:3702   */\n    tag_156:\n        /* \"#utility.yul\":3732:3736   */\n      0x20\n        /* \"#utility.yul\":3724:3730   */\n      dup3\n        /* \"#utility.yul\":3720:3737   */\n      mul\n        /* \"#utility.yul\":3712:3737   */\n      swap1\n      pop\n        /* \"#utility.yul\":3792:3796   */\n      0x20\n        /* \"#utility.yul\":3786:3790   */\n      dup2\n        /* \"#utility.yul\":3782:3797   */\n      add\n        /* \"#utility.yul\":3774:3797   */\n      swap1\n      pop\n        /* \"#utility.yul\":3493:3804   */\n      swap2\n      swap1\n      pop\n      jump\t// out\n        /* \"#utility.yul\":3810:3927   */\n    tag_92:\n        /* \"#utility.yul\":3919:3920   */\n      0x00\n        /* \"#utility.yul\":3916:3917   */\n      dup1\n        /* \"#utility.yul\":3909:3921   */\n      revert\n        /* \"#utility.yul\":3933:4055   */\n    tag_93:\n        /* \"#utility.yul\":4006:4030   */\n      tag_160\n        /* \"#utility.yul\":4024:4029   */\n      dup2\n        /* \"#utility.yul\":4006:4030   */\n      tag_80\n      jump\t// in\n    tag_160:\n        /* \"#utility.yul\":3999:4004   */\n      dup2\n        /* \"#utility.yul\":3996:4031   */\n      eq\n        /* \"#utility.yul\":3986:4049   */\n      tag_161\n      jumpi\n        /* \"#utility.yul\":4045:4046   */\n      0x00\n        /* \"#utility.yul\":4042:4043   */\n      dup1\n        /* \"#utility.yul\":4035:4047   */\n      revert\n        /* \"#utility.yul\":3986:4049   */\n    tag_161:\n        /* \"#utility.yul\":3933:4055   */\n      pop\n      jump\t// out\n        /* \"#utility.yul\":4061:4200   */\n    tag_94:\n        /* \"#utility.yul\":4107:4112   */\n      0x00\n        /* \"#utility.yul\":4145:4151   */\n      dup2\n        /* \"#utility.yul\":4132:4152   */\n      calldataload\n        /* \"#utility.yul\":4123:4152   */\n      swap1\n      pop\n        /* \"#utility.yul\":4161:4194   */\n      tag_163\n        /* \"#utility.yul\":4188:4193   */\n      dup2\n        /* \"#utility.yul\":4161:4194   */\n      tag_93\n      jump\t// in\n    tag_163:\n        /* \"#utility.yul\":4061:4200   */\n      swap3\n      swap2\n      pop\n      pop\n      jump\t// out\n        /* \"#utility.yul\":4223:4933   */\n    tag_95:\n        /* \"#utility.yul\":4319:4324   */\n      0x00\n        /* \"#utility.yul\":4344:4425   */\n      tag_165\n        /* \"#utility.yul\":4360:4424   */\n      tag_166\n        /* \"#utility.yul\":4417:4423   */\n      dup5\n        /* \"#utility.yul\":4360:4424   */\n      tag_91\n      jump\t// in\n    tag_166:\n        /* \"#utility.yul\":4344:4425   */\n      tag_90\n      jump\t// in\n    tag_165:\n        /* \"#utility.yul\":4335:4425   */\n      swap1\n      pop\n        /* \"#utility.yul\":4445:4450   */\n      dup1\n        /* \"#utility.yul\":4474:4480   */\n      dup4\n        /* \"#utility.yul\":4467:4472   */\n      dup3\n        /* \"#utility.yul\":4460:4481   */\n      mstore\n        /* \"#utility.yul\":4508:4512   */\n      0x20\n        /* \"#utility.yul\":4501:4506   */\n      dup3\n        /* \"#utility.yul\":4497:4513   */\n      add\n        /* \"#utility.yul\":4490:4513   */\n      swap1\n      pop\n        /* \"#utility.yul\":4561:4565   */\n      0x20\n        /* \"#utility.yul\":4553:4559   */\n      dup5\n        /* \"#utility.yul\":4549:4566   */\n      mul\n        /* \"#utility.yul\":4541:4547   */\n      dup4\n        /* \"#utility.yul\":4537:4567   */\n      add\n        /* \"#utility.yul\":4590:4593   */\n      dup6\n        /* \"#utility.yul\":4582:4588   */\n      dup2\n        /* \"#utility.yul\":4579:4594   */\n      gt\n        /* \"#utility.yul\":4576:4698   */\n      iszero\n      tag_167\n      jumpi\n        /* \"#utility.yul\":4609:4688   */\n      tag_168\n      tag_92\n      jump\t// in\n    tag_168:\n        /* \"#utility.yul\":4576:4698   */\n    tag_167:\n        /* \"#utility.yul\":4724:4730   */\n      dup4\n        /* \"#utility.yul\":4707:4927   */\n    tag_169:\n        /* \"#utility.yul\":4741:4747   */\n      dup2\n        /* \"#utility.yul\":4736:4739   */\n      dup2\n        /* \"#utility.yul\":4733:4748   */\n      lt\n        /* \"#utility.yul\":4707:4927   */\n      iszero\n      tag_171\n      jumpi\n        /* \"#utility.yul\":4816:4819   */\n      dup1\n        /* \"#utility.yul\":4845:4882   */\n      tag_172\n        /* \"#utility.yul\":4878:4881   */\n      dup9\n        /* \"#utility.yul\":4866:4876   */\n      dup3\n        /* \"#utility.yul\":4845:4882   */\n      tag_94\n      jump\t// in\n    tag_172:\n        /* \"#utility.yul\":4840:4843   */\n      dup5\n        /* \"#utility.yul\":4833:4883   */\n      mstore\n        /* \"#utility.yul\":4912:4916   */\n      0x20\n        /* \"#utility.yul\":4907:4910   */\n      dup5\n        /* \"#utility.yul\":4903:4917   */\n      add\n        /* \"#utility.yul\":4896:4917   */\n      swap4\n      pop\n        /* \"#utility.yul\":4783:4927   */\n      pop\n        /* \"#utility.yul\":4767:4771   */\n      0x20\n        /* \"#utility.yul\":4762:4765   */\n      dup2\n        /* \"#utility.yul\":4758:4772   */\n      add\n        /* \"#utility.yul\":4751:4772   */\n      swap1\n      pop\n        /* \"#utility.yul\":4707:4927   */\n      jump(tag_169)\n    tag_171:\n        /* \"#utility.yul\":4711:4732   */\n      pop\n        /* \"#utility.yul\":4325:4933   */\n      pop\n      pop\n        /* \"#utility.yul\":4223:4933   */\n      swap4\n      swap3\n      pop\n      pop\n      pop\n      jump\t// out\n        /* \"#utility.yul\":4956:5326   */\n    tag_96:\n        /* \"#utility.yul\":5027:5032   */\n      0x00\n        /* \"#utility.yul\":5076:5079   */\n      dup3\n        /* \"#utility.yul\":5069:5073   */\n      0x1f\n        /* \"#utility.yul\":5061:5067   */\n      dup4\n        /* \"#utility.yul\":5057:5074   */\n      add\n        /* \"#utility.yul\":5053:5080   */\n      slt\n        /* \"#utility.yul\":5043:5165   */\n      tag_174\n      jumpi\n        /* \"#utility.yul\":5084:5163   */\n      tag_175\n      tag_86\n      jump\t// in\n    tag_175:\n        /* \"#utility.yul\":5043:5165   */\n    tag_174:\n        /* \"#utility.yul\":5201:5207   */\n      dup2\n        /* \"#utility.yul\":5188:5208   */\n      calldataload\n        /* \"#utility.yul\":5226:5320   */\n      tag_176\n        /* \"#utility.yul\":5316:5319   */\n      dup5\n        /* \"#utility.yul\":5308:5314   */\n      dup3\n        /* \"#utility.yul\":5301:5305   */\n      0x20\n        /* \"#utility.yul\":5293:5299   */\n      dup7\n        /* \"#utility.yul\":5289:5306   */\n      add\n        /* \"#utility.yul\":5226:5320   */\n      tag_95\n      jump\t// in\n    tag_176:\n        /* \"#utility.yul\":5217:5320   */\n      swap2\n      pop\n        /* \"#utility.yul\":5033:5326   */\n      pop\n        /* \"#utility.yul\":4956:5326   */\n      swap3\n      swap2\n      pop\n      pop\n      jump\t// out\n        /* \"#utility.yul\":5332:5871   */\n    tag_30:\n        /* \"#utility.yul\":5416:5422   */\n      0x00\n        /* \"#utility.yul\":5465:5467   */\n      0x20\n        /* \"#utility.yul\":5453:5462   */\n      dup3\n        /* \"#utility.yul\":5444:5451   */\n      dup5\n        /* \"#utility.yul\":5440:5463   */\n      sub\n        /* \"#utility.yul\":5436:5468   */\n      slt\n        /* \"#utility.yul\":5433:5552   */\n      iszero\n      tag_178\n      jumpi\n        /* \"#utility.yul\":5471:5550   */\n      tag_179\n      tag_74\n      jump\t// in\n    tag_179:\n        /* \"#utility.yul\":5433:5552   */\n    tag_178:\n        /* \"#utility.yul\":5619:5620   */\n      0x00\n        /* \"#utility.yul\":5608:5617   */\n      dup3\n        /* \"#utility.yul\":5604:5621   */\n      add\n        /* \"#utility.yul\":5591:5622   */\n      calldataload\n        /* \"#utility.yul\":5649:5667   */\n      0xffffffffffffffff\n        /* \"#utility.yul\":5641:5647   */\n      dup2\n        /* \"#utility.yul\":5638:5668   */\n      gt\n        /* \"#utility.yul\":5635:5752   */\n      iszero\n      tag_180\n      jumpi\n        /* \"#utility.yul\":5671:5750   */\n      tag_181\n      tag_75\n      jump\t// in\n    tag_181:\n        /* \"#utility.yul\":5635:5752   */\n    tag_180:\n        /* \"#utility.yul\":5776:5854   */\n      tag_182\n        /* \"#utility.yul\":5846:5853   */\n      dup5\n        /* \"#utility.yul\":5837:5843   */\n      dup3\n        /* \"#utility.yul\":5826:5835   */\n      dup6\n        /* \"#utility.yul\":5822:5844   */\n      add\n        /* \"#utility.yul\":5776:5854   */\n      tag_96\n      jump\t// in\n    tag_182:\n        /* \"#utility.yul\":5766:5854   */\n      swap2\n      pop\n        /* \"#utility.yul\":5562:5864   */\n      pop\n        /* \"#utility.yul\":5332:5871   */\n      swap3\n      swap2\n      pop\n      pop\n      jump\t// out\n        /* \"#utility.yul\":5877:5967   */\n    tag_97:\n        /* \"#utility.yul\":5911:5918   */\n      0x00\n        /* \"#utility.yul\":5954:5959   */\n      dup2\n        /* \"#utility.yul\":5947:5960   */\n      iszero\n        /* \"#utility.yul\":5940:5961   */\n      iszero\n        /* \"#utility.yul\":5929:5961   */\n      swap1\n      pop\n        /* \"#utility.yul\":5877:5967   */\n      swap2\n      swap1\n      pop\n      jump\t// out\n        /* \"#utility.yul\":5973:6082   */\n    tag_98:\n        /* \"#utility.yul\":6054:6075   */\n      tag_185\n        /* \"#utility.yul\":6069:6074   */\n      dup2\n        /* \"#utility.yul\":6054:6075   */\n      tag_97\n      jump\t// in\n    tag_185:\n        /* \"#utility.yul\":6049:6052   */\n      dup3\n        /* \"#utility.yul\":6042:6076   */\n      mstore\n        /* \"#utility.yul\":5973:6082   */\n      pop\n      pop\n      jump\t// out\n        /* \"#utility.yul\":6088:6298   */\n    tag_33:\n        /* \"#utility.yul\":6175:6179   */\n      0x00\n        /* \"#utility.yul\":6213:6215   */\n      0x20\n        /* \"#utility.yul\":6202:6211   */\n      dup3\n        /* \"#utility.yul\":6198:6216   */\n      add\n        /* \"#utility.yul\":6190:6216   */\n      swap1\n      pop\n        /* \"#utility.yul\":6226:6291   */\n      tag_187\n        /* \"#utility.yul\":6288:6289   */\n      0x00\n        /* \"#utility.yul\":6277:6286   */\n      dup4\n        /* \"#utility.yul\":6273:6290   */\n      add\n        /* \"#utility.yul\":6264:6270   */\n      dup5\n        /* \"#utility.yul\":6226:6291   */\n      tag_98\n      jump\t// in\n    tag_187:\n        /* \"#utility.yul\":6088:6298   */\n      swap3\n      swap2\n      pop\n      pop\n      jump\t// out\n        /* \"#utility.yul\":6304:6473   */\n    tag_99:\n        /* \"#utility.yul\":6388:6399   */\n      0x00\n        /* \"#utility.yul\":6422:6428   */\n      dup3\n        /* \"#utility.yul\":6417:6420   */\n      dup3\n        /* \"#utility.yul\":6410:6429   */\n      mstore\n        /* \"#utility.yul\":6462:6466   */\n      0x20\n        /* \"#utility.yul\":6457:6460   */\n      dup3\n        /* \"#utility.yul\":6453:6467   */\n      add\n        /* \"#utility.yul\":6438:6467   */\n      swap1\n      pop\n        /* \"#utility.yul\":6304:6473   */\n      swap3\n      swap2\n      pop\n      pop\n      jump\t// out\n        /* \"#utility.yul\":6479:6648   */\n    tag_100:\n        /* \"#utility.yul\":6619:6640   */\n      0x7365656420697320616c72656164792073657400000000000000000000000000\n        /* \"#utility.yul\":6615:6616   */\n      0x00\n        /* \"#utility.yul\":6607:6613   */\n      dup3\n        /* \"#utility.yul\":6603:6617   */\n      add\n        /* \"#utility.yul\":6596:6641   */\n      mstore\n        /* \"#utility.yul\":6479:6648   */\n      pop\n      jump\t// out\n        /* \"#utility.yul\":6654:7020   */\n    tag_101:\n        /* \"#utility.yul\":6796:6799   */\n      0x00\n        /* \"#utility.yul\":6817:6884   */\n      tag_191\n        /* \"#utility.yul\":6881:6883   */\n      0x13\n        /* \"#utility.yul\":6876:6879   */\n      dup4\n        /* \"#utility.yul\":6817:6884   */\n      tag_99\n      jump\t// in\n    tag_191:\n        /* \"#utility.yul\":6810:6884   */\n      swap2\n      pop\n        /* \"#utility.yul\":6893:6986   */\n      tag_192\n        /* \"#utility.yul\":6982:6985   */\n      dup3\n        /* \"#utility.yul\":6893:6986   */\n      tag_100\n      jump\t// in\n    tag_192:\n        /* \"#utility.yul\":7011:7013   */\n      0x20\n        /* \"#utility.yul\":7006:7009   */\n      dup3\n        /* \"#utility.yul\":7002:7014   */\n      add\n        /* \"#utility.yul\":6995:7014   */\n      swap1\n      pop\n        /* \"#utility.yul\":6654:7020   */\n      swap2\n      swap1\n      pop\n      jump\t// out\n        /* \"#utility.yul\":7026:7445   */\n    tag_42:\n        /* \"#utility.yul\":7192:7196   */\n      0x00\n        /* \"#utility.yul\":7230:7232   */\n      0x20\n        /* \"#utility.yul\":7219:7228   */\n      dup3\n        /* \"#utility.yul\":7215:7233   */\n      add\n        /* \"#utility.yul\":7207:7233   */\n      swap1\n      pop\n        /* \"#utility.yul\":7279:7288   */\n      dup2\n        /* \"#utility.yul\":7273:7277   */\n      dup2\n        /* \"#utility.yul\":7269:7289   */\n      sub\n        /* \"#utility.yul\":7265:7266   */\n      0x00\n        /* \"#utility.yul\":7254:7263   */\n      dup4\n        /* \"#utility.yul\":7250:7267   */\n      add\n        /* \"#utility.yul\":7243:7290   */\n      mstore\n        /* \"#utility.yul\":7307:7438   */\n      tag_194\n        /* \"#utility.yul\":7433:7437   */\n      dup2\n        /* \"#utility.yul\":7307:7438   */\n      tag_101\n      jump\t// in\n    tag_194:\n        /* \"#utility.yul\":7299:7438   */\n      swap1\n      pop\n        /* \"#utility.yul\":7026:7445   */\n      swap2\n      swap1\n      pop\n      jump\t// out\n        /* \"#utility.yul\":7451:7677   */\n    tag_102:\n        /* \"#utility.yul\":7591:7625   */\n      0x6f6e6c79206d616e61676572706f6f6c2063616e2063616c6c20746869732066\n        /* \"#utility.yul\":7587:7588   */\n      0x00\n        /* \"#utility.yul\":7579:7585   */\n      dup3\n        /* \"#utility.yul\":7575:7589   */\n      add\n        /* \"#utility.yul\":7568:7626   */\n      mstore\n        /* \"#utility.yul\":7660:7669   */\n      0x756e6374696f6e00000000000000000000000000000000000000000000000000\n        /* \"#utility.yul\":7655:7657   */\n      0x20\n        /* \"#utility.yul\":7647:7653   */\n      dup3\n        /* \"#utility.yul\":7643:7658   */\n      add\n        /* \"#utility.yul\":7636:7670   */\n      mstore\n        /* \"#utility.yul\":7451:7677   */\n      pop\n      jump\t// out\n        /* \"#utility.yul\":7683:8049   */\n    tag_103:\n        /* \"#utility.yul\":7825:7828   */\n      0x00\n        /* \"#utility.yul\":7846:7913   */\n      tag_197\n        /* \"#utility.yul\":7910:7912   */\n      0x27\n        /* \"#utility.yul\":7905:7908   */\n      dup4\n        /* \"#utility.yul\":7846:7913   */\n      tag_99\n      jump\t// in\n    tag_197:\n        /* \"#utility.yul\":7839:7913   */\n      swap2\n      pop\n        /* \"#utility.yul\":7922:8015   */\n      tag_198\n        /* \"#utility.yul\":8011:8014   */\n      dup3\n        /* \"#utility.yul\":7922:8015   */\n      tag_102\n      jump\t// in\n    tag_198:\n        /* \"#utility.yul\":8040:8042   */\n      0x40\n        /* \"#utility.yul\":8035:8038   */\n      dup3\n        /* \"#utility.yul\":8031:8043   */\n      add\n        /* \"#utility.yul\":8024:8043   */\n      swap1\n      pop\n        /* \"#utility.yul\":7683:8049   */\n      swap2\n      swap1\n      pop\n      jump\t// out\n        /* \"#utility.yul\":8055:8474   */\n    tag_45:\n        /* \"#utility.yul\":8221:8225   */\n      0x00\n        /* \"#utility.yul\":8259:8261   */\n      0x20\n        /* \"#utility.yul\":8248:8257   */\n      dup3\n        /* \"#utility.yul\":8244:8262   */\n      add\n        /* \"#utility.yul\":8236:8262   */\n      swap1\n      pop\n        /* \"#utility.yul\":8308:8317   */\n      dup2\n        /* \"#utility.yul\":8302:8306   */\n      dup2\n        /* \"#utility.yul\":8298:8318   */\n      sub\n        /* \"#utility.yul\":8294:8295   */\n      0x00\n        /* \"#utility.yul\":8283:8292   */\n      dup4\n        /* \"#utility.yul\":8279:8296   */\n      add\n        /* \"#utility.yul\":8272:8319   */\n      mstore\n        /* \"#utility.yul\":8336:8467   */\n      tag_200\n        /* \"#utility.yul\":8462:8466   */\n      dup2\n        /* \"#utility.yul\":8336:8467   */\n      tag_103\n      jump\t// in\n    tag_200:\n        /* \"#utility.yul\":8328:8467   */\n      swap1\n      pop\n        /* \"#utility.yul\":8055:8474   */\n      swap2\n      swap1\n      pop\n      jump\t// out\n        /* \"#utility.yul\":8480:8660   */\n    tag_104:\n        /* \"#utility.yul\":8528:8605   */\n      0x4e487b7100000000000000000000000000000000000000000000000000000000\n        /* \"#utility.yul\":8525:8526   */\n      0x00\n        /* \"#utility.yul\":8518:8606   */\n      mstore\n        /* \"#utility.yul\":8625:8629   */\n      0x11\n        /* \"#utility.yul\":8622:8623   */\n      0x04\n        /* \"#utility.yul\":8615:8630   */\n      mstore\n        /* \"#utility.yul\":8649:8653   */\n      0x24\n        /* \"#utility.yul\":8646:8647   */\n      0x00\n        /* \"#utility.yul\":8639:8654   */\n      revert\n        /* \"#utility.yul\":8666:8971   */\n    tag_47:\n        /* \"#utility.yul\":8706:8709   */\n      0x00\n        /* \"#utility.yul\":8725:8745   */\n      tag_203\n        /* \"#utility.yul\":8743:8744   */\n      dup3\n        /* \"#utility.yul\":8725:8745   */\n      tag_82\n      jump\t// in\n    tag_203:\n        /* \"#utility.yul\":8720:8745   */\n      swap2\n      pop\n        /* \"#utility.yul\":8759:8779   */\n      tag_204\n        /* \"#utility.yul\":8777:8778   */\n      dup4\n        /* \"#utility.yul\":8759:8779   */\n      tag_82\n      jump\t// in\n    tag_204:\n        /* \"#utility.yul\":8754:8779   */\n      swap3\n      pop\n        /* \"#utility.yul\":8913:8914   */\n      dup3\n        /* \"#utility.yul\":8845:8911   */\n      0xffffffffffffffffffffffffffffffffffffffffffffffffffffffffffffffff\n        /* \"#utility.yul\":8841:8915   */\n      sub\n        /* \"#utility.yul\":8838:8839   */\n      dup3\n        /* \"#utility.yul\":8835:8916   */\n      gt\n        /* \"#utility.yul\":8832:8939   */\n      iszero\n      tag_205\n      jumpi\n        /* \"#utility.yul\":8919:8937   */\n      tag_206\n      tag_104\n      jump\t// in\n    tag_206:\n        /* \"#utility.yul\":8832:8939   */\n    tag_205:\n        /* \"#utility.yul\":8963:8964   */\n      dup3\n        /* \"#utility.yul\":8960:8961   */\n      dup3\n        /* \"#utility.yul\":8956:8965   */\n      add\n        /* \"#utility.yul\":8949:8965   */\n      swap1\n      pop\n        /* \"#utility.yul\":8666:8971   */\n      swap3\n      swap2\n      pop\n      pop\n      jump\t// out\n        /* \"#utility.yul\":8977:9146   */\n    tag_105:\n        /* \"#utility.yul\":9117:9138   */\n      0x73656564206973206e6f74207965742073657400000000000000000000000000\n        /* \"#utility.yul\":9113:9114   */\n      0x00\n        /* \"#utility.yul\":9105:9111   */\n      dup3\n        /* \"#utility.yul\":9101:9115   */\n      add\n        /* \"#utility.yul\":9094:9139   */\n      mstore\n        /* \"#utility.yul\":8977:9146   */\n      pop\n      jump\t// out\n        /* \"#utility.yul\":9152:9518   */\n    tag_106:\n        /* \"#utility.yul\":9294:9297   */\n      0x00\n        /* \"#utility.yul\":9315:9382   */\n      tag_209\n        /* \"#utility.yul\":9379:9381   */\n      0x13\n        /* \"#utility.yul\":9374:9377   */\n      dup4\n        /* \"#utility.yul\":9315:9382   */\n      tag_99\n      jump\t// in\n    tag_209:\n        /* \"#utility.yul\":9308:9382   */\n      swap2\n      pop\n        /* \"#utility.yul\":9391:9484   */\n      tag_210\n        /* \"#utility.yul\":9480:9483   */\n      dup3\n        /* \"#utility.yul\":9391:9484   */\n      tag_105\n      jump\t// in\n    tag_210:\n        /* \"#utility.yul\":9509:9511   */\n      0x20\n        /* \"#utility.yul\":9504:9507   */\n      dup3\n        /* \"#utility.yul\":9500:9512   */\n      add\n        /* \"#utility.yul\":9493:9512   */\n      swap1\n      pop\n        /* \"#utility.yul\":9152:9518   */\n      swap2\n      swap1\n      pop\n      jump\t// out\n        /* \"#utility.yul\":9524:9943   */\n    tag_53:\n        /* \"#utility.yul\":9690:9694   */\n      0x00\n        /* \"#utility.yul\":9728:9730   */\n      0x20\n        /* \"#utility.yul\":9717:9726   */\n      dup3\n        /* \"#utility.yul\":9713:9731   */\n      add\n        /* \"#utility.yul\":9705:9731   */\n      swap1\n      pop\n        /* \"#utility.yul\":9777:9786   */\n      dup2\n        /* \"#utility.yul\":9771:9775   */\n      dup2\n        /* \"#utility.yul\":9767:9787   */\n      sub\n        /* \"#utility.yul\":9763:9764   */\n      0x00\n        /* \"#utility.yul\":9752:9761   */\n      dup4\n        /* \"#utility.yul\":9748:9765   */\n      add\n        /* \"#utility.yul\":9741:9788   */\n      mstore\n        /* \"#utility.yul\":9805:9936   */\n      tag_212\n        /* \"#utility.yul\":9931:9935   */\n      dup2\n        /* \"#utility.yul\":9805:9936   */\n      tag_106\n      jump\t// in\n    tag_212:\n        /* \"#utility.yul\":9797:9936   */\n      swap1\n      pop\n        /* \"#utility.yul\":9524:9943   */\n      swap2\n      swap1\n      pop\n      jump\t// out\n        /* \"#utility.yul\":9949:10127   */\n    tag_107:\n        /* \"#utility.yul\":10089:10119   */\n      0x646f6e6174696f6e7320617265206e6f7420636c6f7365642079657400000000\n        /* \"#utility.yul\":10085:10086   */\n      0x00\n        /* \"#utility.yul\":10077:10083   */\n      dup3\n        /* \"#utility.yul\":10073:10087   */\n      add\n        /* \"#utility.yul\":10066:10120   */\n      mstore\n        /* \"#utility.yul\":9949:10127   */\n      pop\n      jump\t// out\n        /* \"#utility.yul\":10133:10499   */\n    tag_108:\n        /* \"#utility.yul\":10275:10278   */\n      0x00\n        /* \"#utility.yul\":10296:10363   */\n      tag_215\n        /* \"#utility.yul\":10360:10362   */\n      0x1c\n        /* \"#utility.yul\":10355:10358   */\n      dup4\n        /* \"#utility.yul\":10296:10363   */\n      tag_99\n      jump\t// in\n    tag_215:\n        /* \"#utility.yul\":10289:10363   */\n      swap2\n      pop\n        /* \"#utility.yul\":10372:10465   */\n      tag_216\n        /* \"#utility.yul\":10461:10464   */\n      dup3\n        /* \"#utility.yul\":10372:10465   */\n      tag_107\n      jump\t// in\n    tag_216:\n        /* \"#utility.yul\":10490:10492   */\n      0x20\n        /* \"#utility.yul\":10485:10488   */\n      dup3\n        /* \"#utility.yul\":10481:10493   */\n      add\n        /* \"#utility.yul\":10474:10493   */\n      swap1\n      pop\n        /* \"#utility.yul\":10133:10499   */\n      swap2\n      swap1\n      pop\n      jump\t// out\n        /* \"#utility.yul\":10505:10924   */\n    tag_56:\n        /* \"#utility.yul\":10671:10675   */\n      0x00\n        /* \"#utility.yul\":10709:10711   */\n      0x20\n        /* \"#utility.yul\":10698:10707   */\n      dup3\n        /* \"#utility.yul\":10694:10712   */\n      add\n        /* \"#utility.yul\":10686:10712   */\n      swap1\n      pop\n        /* \"#utility.yul\":10758:10767   */\n      dup2\n        /* \"#utility.yul\":10752:10756   */\n      dup2\n        /* \"#utility.yul\":10748:10768   */\n      sub\n        /* \"#utility.yul\":10744:10745   */\n      0x00\n        /* \"#utility.yul\":10733:10742   */\n      dup4\n        /* \"#utility.yul\":10729:10746   */\n      add\n        /* \"#utility.yul\":10722:10769   */\n      mstore\n        /* \"#utility.yul\":10786:10917   */\n      tag_218\n        /* \"#utility.yul\":10912:10916   */\n      dup2\n        /* \"#utility.yul\":10786:10917   */\n      tag_108\n      jump\t// in\n    tag_218:\n        /* \"#utility.yul\":10778:10917   */\n      swap1\n      pop\n        /* \"#utility.yul\":10505:10924   */\n      swap2\n      swap1\n      pop\n      jump\t// out\n        /* \"#utility.yul\":10930:11048   */\n    tag_109:\n        /* \"#utility.yul\":11017:11041   */\n      tag_220\n        /* \"#utility.yul\":11035:11040   */\n      dup2\n        /* \"#utility.yul\":11017:11041   */\n      tag_76\n      jump\t// in\n    tag_220:\n        /* \"#utility.yul\":11012:11015   */\n      dup3\n        /* \"#utility.yul\":11005:11042   */\n      mstore\n        /* \"#utility.yul\":10930:11048   */\n      pop\n      pop\n      jump\t// out\n        /* \"#utility.yul\":11054:11386   */\n    tag_59:\n        /* \"#utility.yul\":11175:11179   */\n      0x00\n        /* \"#utility.yul\":11213:11215   */\n      0x40\n        /* \"#utility.yul\":11202:11211   */\n      dup3\n        /* \"#utility.yul\":11198:11216   */\n      add\n        /* \"#utility.yul\":11190:11216   */\n      swap1\n      pop\n        /* \"#utility.yul\":11226:11297   */\n      tag_222\n        /* \"#utility.yul\":11294:11295   */\n      0x00\n        /* \"#utility.yul\":11283:11292   */\n      dup4\n        /* \"#utility.yul\":11279:11296   */\n      add\n        /* \"#utility.yul\":11270:11276   */\n      dup6\n        /* \"#utility.yul\":11226:11297   */\n      tag_81\n      jump\t// in\n    tag_222:\n        /* \"#utility.yul\":11307:11379   */\n      tag_223\n        /* \"#utility.yul\":11375:11377   */\n      0x20\n        /* \"#utility.yul\":11364:11373   */\n      dup4\n        /* \"#utility.yul\":11360:11378   */\n      add\n        /* \"#utility.yul\":11351:11357   */\n      dup5\n        /* \"#utility.yul\":11307:11379   */\n      tag_109\n      jump\t// in\n    tag_223:\n        /* \"#utility.yul\":11054:11386   */\n      swap4\n      swap3\n      pop\n      pop\n      pop\n      jump\t// out\n        /* \"#utility.yul\":11392:11724   */\n    tag_62:\n        /* \"#utility.yul\":11513:11517   */\n      0x00\n        /* \"#utility.yul\":11551:11553   */\n      0x40\n        /* \"#utility.yul\":11540:11549   */\n      dup3\n        /* \"#utility.yul\":11536:11554   */\n      add\n        /* \"#utility.yul\":11528:11554   */\n      swap1\n      pop\n        /* \"#utility.yul\":11564:11635   */\n      tag_225\n        /* \"#utility.yul\":11632:11633   */\n      0x00\n        /* \"#utility.yul\":11621:11630   */\n      dup4\n        /* \"#utility.yul\":11617:11634   */\n      add\n        /* \"#utility.yul\":11608:11614   */\n      dup6\n        /* \"#utility.yul\":11564:11635   */\n      tag_109\n      jump\t// in\n    tag_225:\n        /* \"#utility.yul\":11645:11717   */\n      tag_226\n        /* \"#utility.yul\":11713:11715   */\n      0x20\n        /* \"#utility.yul\":11702:11711   */\n      dup4\n        /* \"#utility.yul\":11698:11716   */\n      add\n        /* \"#utility.yul\":11689:11695   */\n      dup5\n        /* \"#utility.yul\":11645:11717   */\n      tag_109\n      jump\t// in\n    tag_226:\n        /* \"#utility.yul\":11392:11724   */\n      swap4\n      swap3\n      pop\n      pop\n      pop\n      jump\t// out\n\n    auxdata: 0xa26469706673582212203aecb64fe1262acde4a6d10e23a3fba5602fd1cda8f261da56177b91845c34c564736f6c634300080d0033\n}\n",
				"bytecode": {
					"linkReferences": {},
					"object": "608060405234801561001057600080fd5b50604051610c9f380380610c9f83398181016040528101906100329190610111565b806000806101000a81548173ffffffffffffffffffffffffffffffffffffffff021916908373ffffffffffffffffffffffffffffffffffffffff1602179055506000600360006101000a81548160ff0219169083151502179055506000600360016101000a81548160ff0219169083151502179055505061013e565b600080fd5b600073ffffffffffffffffffffffffffffffffffffffff82169050919050565b60006100de826100b3565b9050919050565b6100ee816100d3565b81146100f957600080fd5b50565b60008151905061010b816100e5565b92915050565b600060208284031215610127576101266100ae565b5b6000610135848285016100fc565b91505092915050565b610b528061014d6000396000f3fe608060405234801561001057600080fd5b50600436106100625760003560e01c80631e5f91491461006757806341114538146100975780634abfa163146100b3578063701fd0f1146100e3578063c129800d14610113578063dedfe22314610143575b600080fd5b610081600480360381019061007c9190610535565b610161565b60405161008e91906105a3565b60405180910390f35b6100b160048036038101906100ac9190610535565b610171565b005b6100cd60048036038101906100c891906105f4565b6102a2565b6040516100da91906105a3565b60405180910390f35b6100fd60048036038101906100f89190610535565b6102e1565b60405161010a9190610630565b60405180910390f35b61012d600480360381019061012891906107d0565b6103fe565b60405161013a9190610834565b60405180910390f35b61014b610420565b60405161015891906105a3565b60405180910390f35b600061016c82610171565b919050565b600360009054906101000a900460ff16156101c1576040517f08c379a00000000000000000000000000000000000000000000000000000000081526004016101b8906108ac565b60405180910390fd5b60008054906101000a900473ffffffffffffffffffffffffffffffffffffffff1673ffffffffffffffffffffffffffffffffffffffff163373ffffffffffffffffffffffffffffffffffffffff161461024f576040517f08c379a00000000000000000000000000000000000000000000000000000000081526004016102469061093e565b60405180910390fd5b6001600360016101000a81548160ff0219169083151502179055508060028190555060014361027e919061098d565b6004819055506001600360006101000a81548160ff02191690831515021790555050565b600181815481106102b257600080fd5b906000526020600020016000915054906101000a900473ffffffffffffffffffffffffffffffffffffffff1681565b6000600360009054906101000a900460ff16610332576040517f08c379a000000000000000000000000000000000000000000000000000000000815260040161032990610a2f565b60405180910390fd5b600360019054906101000a900460ff16610381576040517f08c379a000000000000000000000000000000000000000000000000000000000815260040161037890610a9b565b60405180910390fd5b436004541061038f57600080fd5b60025433836040516020016103a5929190610aca565b60405160208183030381529060405280519060200120146103c557600080fd5b600082600454406040516020016103dd929190610af3565b6040516020818303038152906040528051906020012060001c905050919050565b60008160019080519060200190610416929190610444565b5060019050919050565b60008054906101000a900473ffffffffffffffffffffffffffffffffffffffff1681565b8280548282559060005260206000209081019282156104bd579160200282015b828111156104bc5782518260006101000a81548173ffffffffffffffffffffffffffffffffffffffff021916908373ffffffffffffffffffffffffffffffffffffffff16021790555091602001919060010190610464565b5b5090506104ca91906104ce565b5090565b5b808211156104e75760008160009055506001016104cf565b5090565b6000604051905090565b600080fd5b600080fd5b6000819050919050565b610512816104ff565b811461051d57600080fd5b50565b60008135905061052f81610509565b92915050565b60006020828403121561054b5761054a6104f5565b5b600061055984828501610520565b91505092915050565b600073ffffffffffffffffffffffffffffffffffffffff82169050919050565b600061058d82610562565b9050919050565b61059d81610582565b82525050565b60006020820190506105b86000830184610594565b92915050565b6000819050919050565b6105d1816105be565b81146105dc57600080fd5b50565b6000813590506105ee816105c8565b92915050565b60006020828403121561060a576106096104f5565b5b6000610618848285016105df565b91505092915050565b61062a816105be565b82525050565b60006020820190506106456000830184610621565b92915050565b600080fd5b6000601f19601f8301169050919050565b7f4e487b7100000000000000000000000000000000000000000000000000000000600052604160045260246000fd5b61069982610650565b810181811067ffffffffffffffff821117156106b8576106b7610661565b5b80604052505050565b60006106cb6104eb565b90506106d78282610690565b919050565b600067ffffffffffffffff8211156106f7576106f6610661565b5b602082029050602081019050919050565b600080fd5b61071681610582565b811461072157600080fd5b50565b6000813590506107338161070d565b92915050565b600061074c610747846106dc565b6106c1565b9050808382526020820190506020840283018581111561076f5761076e610708565b5b835b8181101561079857806107848882610724565b845260208401935050602081019050610771565b5050509392505050565b600082601f8301126107b7576107b661064b565b5b81356107c7848260208601610739565b91505092915050565b6000602082840312156107e6576107e56104f5565b5b600082013567ffffffffffffffff811115610804576108036104fa565b5b610810848285016107a2565b91505092915050565b60008115159050919050565b61082e81610819565b82525050565b60006020820190506108496000830184610825565b92915050565b600082825260208201905092915050565b7f7365656420697320616c72656164792073657400000000000000000000000000600082015250565b600061089660138361084f565b91506108a182610860565b602082019050919050565b600060208201905081810360008301526108c581610889565b9050919050565b7f6f6e6c79206d616e61676572706f6f6c2063616e2063616c6c2074686973206660008201527f756e6374696f6e00000000000000000000000000000000000000000000000000602082015250565b600061092860278361084f565b9150610933826108cc565b604082019050919050565b600060208201905081810360008301526109578161091b565b9050919050565b7f4e487b7100000000000000000000000000000000000000000000000000000000600052601160045260246000fd5b6000610998826105be565b91506109a3836105be565b9250827fffffffffffffffffffffffffffffffffffffffffffffffffffffffffffffffff038211156109d8576109d761095e565b5b828201905092915050565b7f73656564206973206e6f74207965742073657400000000000000000000000000600082015250565b6000610a1960138361084f565b9150610a24826109e3565b602082019050919050565b60006020820190508181036000830152610a4881610a0c565b9050919050565b7f646f6e6174696f6e7320617265206e6f7420636c6f7365642079657400000000600082015250565b6000610a85601c8361084f565b9150610a9082610a4f565b602082019050919050565b60006020820190508181036000830152610ab481610a78565b9050919050565b610ac4816104ff565b82525050565b6000604082019050610adf6000830185610594565b610aec6020830184610abb565b9392505050565b6000604082019050610b086000830185610abb565b610b156020830184610abb565b939250505056fea26469706673582212203aecb64fe1262acde4a6d10e23a3fba5602fd1cda8f261da56177b91845c34c564736f6c634300080d0033",
					"opcodes": "PUSH1 0x80 PUSH1 0x40 MSTORE CALLVALUE DUP1 ISZERO PUSH2 0x10 JUMPI PUSH1 0x0 DUP1 REVERT JUMPDEST POP PUSH1 0x40 MLOAD PUSH2 0xC9F CODESIZE SUB DUP1 PUSH2 0xC9F DUP4 CODECOPY DUP2 DUP2 ADD PUSH1 0x40 MSTORE DUP2 ADD SWAP1 PUSH2 0x32 SWAP2 SWAP1 PUSH2 0x111 JUMP JUMPDEST DUP1 PUSH1 0x0 DUP1 PUSH2 0x100 EXP DUP2 SLOAD DUP2 PUSH20 0xFFFFFFFFFFFFFFFFFFFFFFFFFFFFFFFFFFFFFFFF MUL NOT AND SWAP1 DUP4 PUSH20 0xFFFFFFFFFFFFFFFFFFFFFFFFFFFFFFFFFFFFFFFF AND MUL OR SWAP1 SSTORE POP PUSH1 0x0 PUSH1 0x3 PUSH1 0x0 PUSH2 0x100 EXP DUP2 SLOAD DUP2 PUSH1 0xFF MUL NOT AND SWAP1 DUP4 ISZERO ISZERO MUL OR SWAP1 SSTORE POP PUSH1 0x0 PUSH1 0x3 PUSH1 0x1 PUSH2 0x100 EXP DUP2 SLOAD DUP2 PUSH1 0xFF MUL NOT AND SWAP1 DUP4 ISZERO ISZERO MUL OR SWAP1 SSTORE POP POP PUSH2 0x13E JUMP JUMPDEST PUSH1 0x0 DUP1 REVERT JUMPDEST PUSH1 0x0 PUSH20 0xFFFFFFFFFFFFFFFFFFFFFFFFFFFFFFFFFFFFFFFF DUP3 AND SWAP1 POP SWAP2 SWAP1 POP JUMP JUMPDEST PUSH1 0x0 PUSH2 0xDE DUP3 PUSH2 0xB3 JUMP JUMPDEST SWAP1 POP SWAP2 SWAP1 POP JUMP JUMPDEST PUSH2 0xEE DUP2 PUSH2 0xD3 JUMP JUMPDEST DUP2 EQ PUSH2 0xF9 JUMPI PUSH1 0x0 DUP1 REVERT JUMPDEST POP JUMP JUMPDEST PUSH1 0x0 DUP2 MLOAD SWAP1 POP PUSH2 0x10B DUP2 PUSH2 0xE5 JUMP JUMPDEST SWAP3 SWAP2 POP POP JUMP JUMPDEST PUSH1 0x0 PUSH1 0x20 DUP3 DUP5 SUB SLT ISZERO PUSH2 0x127 JUMPI PUSH2 0x126 PUSH2 0xAE JUMP JUMPDEST JUMPDEST PUSH1 0x0 PUSH2 0x135 DUP5 DUP3 DUP6 ADD PUSH2 0xFC JUMP JUMPDEST SWAP2 POP POP SWAP3 SWAP2 POP POP JUMP JUMPDEST PUSH2 0xB52 DUP1 PUSH2 0x14D PUSH1 0x0 CODECOPY PUSH1 0x0 RETURN INVALID PUSH1 0x80 PUSH1 0x40 MSTORE CALLVALUE DUP1 ISZERO PUSH2 0x10 JUMPI PUSH1 0x0 DUP1 REVERT JUMPDEST POP PUSH1 0x4 CALLDATASIZE LT PUSH2 0x62 JUMPI PUSH1 0x0 CALLDATALOAD PUSH1 0xE0 SHR DUP1 PUSH4 0x1E5F9149 EQ PUSH2 0x67 JUMPI DUP1 PUSH4 0x41114538 EQ PUSH2 0x97 JUMPI DUP1 PUSH4 0x4ABFA163 EQ PUSH2 0xB3 JUMPI DUP1 PUSH4 0x701FD0F1 EQ PUSH2 0xE3 JUMPI DUP1 PUSH4 0xC129800D EQ PUSH2 0x113 JUMPI DUP1 PUSH4 0xDEDFE223 EQ PUSH2 0x143 JUMPI JUMPDEST PUSH1 0x0 DUP1 REVERT JUMPDEST PUSH2 0x81 PUSH1 0x4 DUP1 CALLDATASIZE SUB DUP2 ADD SWAP1 PUSH2 0x7C SWAP2 SWAP1 PUSH2 0x535 JUMP JUMPDEST PUSH2 0x161 JUMP JUMPDEST PUSH1 0x40 MLOAD PUSH2 0x8E SWAP2 SWAP1 PUSH2 0x5A3 JUMP JUMPDEST PUSH1 0x40 MLOAD DUP1 SWAP2 SUB SWAP1 RETURN JUMPDEST PUSH2 0xB1 PUSH1 0x4 DUP1 CALLDATASIZE SUB DUP2 ADD SWAP1 PUSH2 0xAC SWAP2 SWAP1 PUSH2 0x535 JUMP JUMPDEST PUSH2 0x171 JUMP JUMPDEST STOP JUMPDEST PUSH2 0xCD PUSH1 0x4 DUP1 CALLDATASIZE SUB DUP2 ADD SWAP1 PUSH2 0xC8 SWAP2 SWAP1 PUSH2 0x5F4 JUMP JUMPDEST PUSH2 0x2A2 JUMP JUMPDEST PUSH1 0x40 MLOAD PUSH2 0xDA SWAP2 SWAP1 PUSH2 0x5A3 JUMP JUMPDEST PUSH1 0x40 MLOAD DUP1 SWAP2 SUB SWAP1 RETURN JUMPDEST PUSH2 0xFD PUSH1 0x4 DUP1 CALLDATASIZE SUB DUP2 ADD SWAP1 PUSH2 0xF8 SWAP2 SWAP1 PUSH2 0x535 JUMP JUMPDEST PUSH2 0x2E1 JUMP JUMPDEST PUSH1 0x40 MLOAD PUSH2 0x10A SWAP2 SWAP1 PUSH2 0x630 JUMP JUMPDEST PUSH1 0x40 MLOAD DUP1 SWAP2 SUB SWAP1 RETURN JUMPDEST PUSH2 0x12D PUSH1 0x4 DUP1 CALLDATASIZE SUB DUP2 ADD SWAP1 PUSH2 0x128 SWAP2 SWAP1 PUSH2 0x7D0 JUMP JUMPDEST PUSH2 0x3FE JUMP JUMPDEST PUSH1 0x40 MLOAD PUSH2 0x13A SWAP2 SWAP1 PUSH2 0x834 JUMP JUMPDEST PUSH1 0x40 MLOAD DUP1 SWAP2 SUB SWAP1 RETURN JUMPDEST PUSH2 0x14B PUSH2 0x420 JUMP JUMPDEST PUSH1 0x40 MLOAD PUSH2 0x158 SWAP2 SWAP1 PUSH2 0x5A3 JUMP JUMPDEST PUSH1 0x40 MLOAD DUP1 SWAP2 SUB SWAP1 RETURN JUMPDEST PUSH1 0x0 PUSH2 0x16C DUP3 PUSH2 0x171 JUMP JUMPDEST SWAP2 SWAP1 POP JUMP JUMPDEST PUSH1 0x3 PUSH1 0x0 SWAP1 SLOAD SWAP1 PUSH2 0x100 EXP SWAP1 DIV PUSH1 0xFF AND ISZERO PUSH2 0x1C1 JUMPI PUSH1 0x40 MLOAD PUSH32 0x8C379A000000000000000000000000000000000000000000000000000000000 DUP2 MSTORE PUSH1 0x4 ADD PUSH2 0x1B8 SWAP1 PUSH2 0x8AC JUMP JUMPDEST PUSH1 0x40 MLOAD DUP1 SWAP2 SUB SWAP1 REVERT JUMPDEST PUSH1 0x0 DUP1 SLOAD SWAP1 PUSH2 0x100 EXP SWAP1 DIV PUSH20 0xFFFFFFFFFFFFFFFFFFFFFFFFFFFFFFFFFFFFFFFF AND PUSH20 0xFFFFFFFFFFFFFFFFFFFFFFFFFFFFFFFFFFFFFFFF AND CALLER PUSH20 0xFFFFFFFFFFFFFFFFFFFFFFFFFFFFFFFFFFFFFFFF AND EQ PUSH2 0x24F JUMPI PUSH1 0x40 MLOAD PUSH32 0x8C379A000000000000000000000000000000000000000000000000000000000 DUP2 MSTORE PUSH1 0x4 ADD PUSH2 0x246 SWAP1 PUSH2 0x93E JUMP JUMPDEST PUSH1 0x40 MLOAD DUP1 SWAP2 SUB SWAP1 REVERT JUMPDEST PUSH1 0x1 PUSH1 0x3 PUSH1 0x1 PUSH2 0x100 EXP DUP2 SLOAD DUP2 PUSH1 0xFF MUL NOT AND SWAP1 DUP4 ISZERO ISZERO MUL OR SWAP1 SSTORE POP DUP1 PUSH1 0x2 DUP2 SWAP1 SSTORE POP PUSH1 0x1 NUMBER PUSH2 0x27E SWAP2 SWAP1 PUSH2 0x98D JUMP JUMPDEST PUSH1 0x4 DUP2 SWAP1 SSTORE POP PUSH1 0x1 PUSH1 0x3 PUSH1 0x0 PUSH2 0x100 EXP DUP2 SLOAD DUP2 PUSH1 0xFF MUL NOT AND SWAP1 DUP4 ISZERO ISZERO MUL OR SWAP1 SSTORE POP POP JUMP JUMPDEST PUSH1 0x1 DUP2 DUP2 SLOAD DUP2 LT PUSH2 0x2B2 JUMPI PUSH1 0x0 DUP1 REVERT JUMPDEST SWAP1 PUSH1 0x0 MSTORE PUSH1 0x20 PUSH1 0x0 KECCAK256 ADD PUSH1 0x0 SWAP2 POP SLOAD SWAP1 PUSH2 0x100 EXP SWAP1 DIV PUSH20 0xFFFFFFFFFFFFFFFFFFFFFFFFFFFFFFFFFFFFFFFF AND DUP2 JUMP JUMPDEST PUSH1 0x0 PUSH1 0x3 PUSH1 0x0 SWAP1 SLOAD SWAP1 PUSH2 0x100 EXP SWAP1 DIV PUSH1 0xFF AND PUSH2 0x332 JUMPI PUSH1 0x40 MLOAD PUSH32 0x8C379A000000000000000000000000000000000000000000000000000000000 DUP2 MSTORE PUSH1 0x4 ADD PUSH2 0x329 SWAP1 PUSH2 0xA2F JUMP JUMPDEST PUSH1 0x40 MLOAD DUP1 SWAP2 SUB SWAP1 REVERT JUMPDEST PUSH1 0x3 PUSH1 0x1 SWAP1 SLOAD SWAP1 PUSH2 0x100 EXP SWAP1 DIV PUSH1 0xFF AND PUSH2 0x381 JUMPI PUSH1 0x40 MLOAD PUSH32 0x8C379A000000000000000000000000000000000000000000000000000000000 DUP2 MSTORE PUSH1 0x4 ADD PUSH2 0x378 SWAP1 PUSH2 0xA9B JUMP JUMPDEST PUSH1 0x40 MLOAD DUP1 SWAP2 SUB SWAP1 REVERT JUMPDEST NUMBER PUSH1 0x4 SLOAD LT PUSH2 0x38F JUMPI PUSH1 0x0 DUP1 REVERT JUMPDEST PUSH1 0x2 SLOAD CALLER DUP4 PUSH1 0x40 MLOAD PUSH1 0x20 ADD PUSH2 0x3A5 SWAP3 SWAP2 SWAP1 PUSH2 0xACA JUMP JUMPDEST PUSH1 0x40 MLOAD PUSH1 0x20 DUP2 DUP4 SUB SUB DUP2 MSTORE SWAP1 PUSH1 0x40 MSTORE DUP1 MLOAD SWAP1 PUSH1 0x20 ADD KECCAK256 EQ PUSH2 0x3C5 JUMPI PUSH1 0x0 DUP1 REVERT JUMPDEST PUSH1 0x0 DUP3 PUSH1 0x4 SLOAD BLOCKHASH PUSH1 0x40 MLOAD PUSH1 0x20 ADD PUSH2 0x3DD SWAP3 SWAP2 SWAP1 PUSH2 0xAF3 JUMP JUMPDEST PUSH1 0x40 MLOAD PUSH1 0x20 DUP2 DUP4 SUB SUB DUP2 MSTORE SWAP1 PUSH1 0x40 MSTORE DUP1 MLOAD SWAP1 PUSH1 0x20 ADD KECCAK256 PUSH1 0x0 SHR SWAP1 POP POP SWAP2 SWAP1 POP JUMP JUMPDEST PUSH1 0x0 DUP2 PUSH1 0x1 SWAP1 DUP1 MLOAD SWAP1 PUSH1 0x20 ADD SWAP1 PUSH2 0x416 SWAP3 SWAP2 SWAP1 PUSH2 0x444 JUMP JUMPDEST POP PUSH1 0x1 SWAP1 POP SWAP2 SWAP1 POP JUMP JUMPDEST PUSH1 0x0 DUP1 SLOAD SWAP1 PUSH2 0x100 EXP SWAP1 DIV PUSH20 0xFFFFFFFFFFFFFFFFFFFFFFFFFFFFFFFFFFFFFFFF AND DUP2 JUMP JUMPDEST DUP3 DUP1 SLOAD DUP3 DUP3 SSTORE SWAP1 PUSH1 0x0 MSTORE PUSH1 0x20 PUSH1 0x0 KECCAK256 SWAP1 DUP2 ADD SWAP3 DUP3 ISZERO PUSH2 0x4BD JUMPI SWAP2 PUSH1 0x20 MUL DUP3 ADD JUMPDEST DUP3 DUP2 GT ISZERO PUSH2 0x4BC JUMPI DUP3 MLOAD DUP3 PUSH1 0x0 PUSH2 0x100 EXP DUP2 SLOAD DUP2 PUSH20 0xFFFFFFFFFFFFFFFFFFFFFFFFFFFFFFFFFFFFFFFF MUL NOT AND SWAP1 DUP4 PUSH20 0xFFFFFFFFFFFFFFFFFFFFFFFFFFFFFFFFFFFFFFFF AND MUL OR SWAP1 SSTORE POP SWAP2 PUSH1 0x20 ADD SWAP2 SWAP1 PUSH1 0x1 ADD SWAP1 PUSH2 0x464 JUMP JUMPDEST JUMPDEST POP SWAP1 POP PUSH2 0x4CA SWAP2 SWAP1 PUSH2 0x4CE JUMP JUMPDEST POP SWAP1 JUMP JUMPDEST JUMPDEST DUP1 DUP3 GT ISZERO PUSH2 0x4E7 JUMPI PUSH1 0x0 DUP2 PUSH1 0x0 SWAP1 SSTORE POP PUSH1 0x1 ADD PUSH2 0x4CF JUMP JUMPDEST POP SWAP1 JUMP JUMPDEST PUSH1 0x0 PUSH1 0x40 MLOAD SWAP1 POP SWAP1 JUMP JUMPDEST PUSH1 0x0 DUP1 REVERT JUMPDEST PUSH1 0x0 DUP1 REVERT JUMPDEST PUSH1 0x0 DUP2 SWAP1 POP SWAP2 SWAP1 POP JUMP JUMPDEST PUSH2 0x512 DUP2 PUSH2 0x4FF JUMP JUMPDEST DUP2 EQ PUSH2 0x51D JUMPI PUSH1 0x0 DUP1 REVERT JUMPDEST POP JUMP JUMPDEST PUSH1 0x0 DUP2 CALLDATALOAD SWAP1 POP PUSH2 0x52F DUP2 PUSH2 0x509 JUMP JUMPDEST SWAP3 SWAP2 POP POP JUMP JUMPDEST PUSH1 0x0 PUSH1 0x20 DUP3 DUP5 SUB SLT ISZERO PUSH2 0x54B JUMPI PUSH2 0x54A PUSH2 0x4F5 JUMP JUMPDEST JUMPDEST PUSH1 0x0 PUSH2 0x559 DUP5 DUP3 DUP6 ADD PUSH2 0x520 JUMP JUMPDEST SWAP2 POP POP SWAP3 SWAP2 POP POP JUMP JUMPDEST PUSH1 0x0 PUSH20 0xFFFFFFFFFFFFFFFFFFFFFFFFFFFFFFFFFFFFFFFF DUP3 AND SWAP1 POP SWAP2 SWAP1 POP JUMP JUMPDEST PUSH1 0x0 PUSH2 0x58D DUP3 PUSH2 0x562 JUMP JUMPDEST SWAP1 POP SWAP2 SWAP1 POP JUMP JUMPDEST PUSH2 0x59D DUP2 PUSH2 0x582 JUMP JUMPDEST DUP3 MSTORE POP POP JUMP JUMPDEST PUSH1 0x0 PUSH1 0x20 DUP3 ADD SWAP1 POP PUSH2 0x5B8 PUSH1 0x0 DUP4 ADD DUP5 PUSH2 0x594 JUMP JUMPDEST SWAP3 SWAP2 POP POP JUMP JUMPDEST PUSH1 0x0 DUP2 SWAP1 POP SWAP2 SWAP1 POP JUMP JUMPDEST PUSH2 0x5D1 DUP2 PUSH2 0x5BE JUMP JUMPDEST DUP2 EQ PUSH2 0x5DC JUMPI PUSH1 0x0 DUP1 REVERT JUMPDEST POP JUMP JUMPDEST PUSH1 0x0 DUP2 CALLDATALOAD SWAP1 POP PUSH2 0x5EE DUP2 PUSH2 0x5C8 JUMP JUMPDEST SWAP3 SWAP2 POP POP JUMP JUMPDEST PUSH1 0x0 PUSH1 0x20 DUP3 DUP5 SUB SLT ISZERO PUSH2 0x60A JUMPI PUSH2 0x609 PUSH2 0x4F5 JUMP JUMPDEST JUMPDEST PUSH1 0x0 PUSH2 0x618 DUP5 DUP3 DUP6 ADD PUSH2 0x5DF JUMP JUMPDEST SWAP2 POP POP SWAP3 SWAP2 POP POP JUMP JUMPDEST PUSH2 0x62A DUP2 PUSH2 0x5BE JUMP JUMPDEST DUP3 MSTORE POP POP JUMP JUMPDEST PUSH1 0x0 PUSH1 0x20 DUP3 ADD SWAP1 POP PUSH2 0x645 PUSH1 0x0 DUP4 ADD DUP5 PUSH2 0x621 JUMP JUMPDEST SWAP3 SWAP2 POP POP JUMP JUMPDEST PUSH1 0x0 DUP1 REVERT JUMPDEST PUSH1 0x0 PUSH1 0x1F NOT PUSH1 0x1F DUP4 ADD AND SWAP1 POP SWAP2 SWAP1 POP JUMP JUMPDEST PUSH32 0x4E487B7100000000000000000000000000000000000000000000000000000000 PUSH1 0x0 MSTORE PUSH1 0x41 PUSH1 0x4 MSTORE PUSH1 0x24 PUSH1 0x0 REVERT JUMPDEST PUSH2 0x699 DUP3 PUSH2 0x650 JUMP JUMPDEST DUP2 ADD DUP2 DUP2 LT PUSH8 0xFFFFFFFFFFFFFFFF DUP3 GT OR ISZERO PUSH2 0x6B8 JUMPI PUSH2 0x6B7 PUSH2 0x661 JUMP JUMPDEST JUMPDEST DUP1 PUSH1 0x40 MSTORE POP POP POP JUMP JUMPDEST PUSH1 0x0 PUSH2 0x6CB PUSH2 0x4EB JUMP JUMPDEST SWAP1 POP PUSH2 0x6D7 DUP3 DUP3 PUSH2 0x690 JUMP JUMPDEST SWAP2 SWAP1 POP JUMP JUMPDEST PUSH1 0x0 PUSH8 0xFFFFFFFFFFFFFFFF DUP3 GT ISZERO PUSH2 0x6F7 JUMPI PUSH2 0x6F6 PUSH2 0x661 JUMP JUMPDEST JUMPDEST PUSH1 0x20 DUP3 MUL SWAP1 POP PUSH1 0x20 DUP2 ADD SWAP1 POP SWAP2 SWAP1 POP JUMP JUMPDEST PUSH1 0x0 DUP1 REVERT JUMPDEST PUSH2 0x716 DUP2 PUSH2 0x582 JUMP JUMPDEST DUP2 EQ PUSH2 0x721 JUMPI PUSH1 0x0 DUP1 REVERT JUMPDEST POP JUMP JUMPDEST PUSH1 0x0 DUP2 CALLDATALOAD SWAP1 POP PUSH2 0x733 DUP2 PUSH2 0x70D JUMP JUMPDEST SWAP3 SWAP2 POP POP JUMP JUMPDEST PUSH1 0x0 PUSH2 0x74C PUSH2 0x747 DUP5 PUSH2 0x6DC JUMP JUMPDEST PUSH2 0x6C1 JUMP JUMPDEST SWAP1 POP DUP1 DUP4 DUP3 MSTORE PUSH1 0x20 DUP3 ADD SWAP1 POP PUSH1 0x20 DUP5 MUL DUP4 ADD DUP6 DUP2 GT ISZERO PUSH2 0x76F JUMPI PUSH2 0x76E PUSH2 0x708 JUMP JUMPDEST JUMPDEST DUP4 JUMPDEST DUP2 DUP2 LT ISZERO PUSH2 0x798 JUMPI DUP1 PUSH2 0x784 DUP9 DUP3 PUSH2 0x724 JUMP JUMPDEST DUP5 MSTORE PUSH1 0x20 DUP5 ADD SWAP4 POP POP PUSH1 0x20 DUP2 ADD SWAP1 POP PUSH2 0x771 JUMP JUMPDEST POP POP POP SWAP4 SWAP3 POP POP POP JUMP JUMPDEST PUSH1 0x0 DUP3 PUSH1 0x1F DUP4 ADD SLT PUSH2 0x7B7 JUMPI PUSH2 0x7B6 PUSH2 0x64B JUMP JUMPDEST JUMPDEST DUP2 CALLDATALOAD PUSH2 0x7C7 DUP5 DUP3 PUSH1 0x20 DUP7 ADD PUSH2 0x739 JUMP JUMPDEST SWAP2 POP POP SWAP3 SWAP2 POP POP JUMP JUMPDEST PUSH1 0x0 PUSH1 0x20 DUP3 DUP5 SUB SLT ISZERO PUSH2 0x7E6 JUMPI PUSH2 0x7E5 PUSH2 0x4F5 JUMP JUMPDEST JUMPDEST PUSH1 0x0 DUP3 ADD CALLDATALOAD PUSH8 0xFFFFFFFFFFFFFFFF DUP2 GT ISZERO PUSH2 0x804 JUMPI PUSH2 0x803 PUSH2 0x4FA JUMP JUMPDEST JUMPDEST PUSH2 0x810 DUP5 DUP3 DUP6 ADD PUSH2 0x7A2 JUMP JUMPDEST SWAP2 POP POP SWAP3 SWAP2 POP POP JUMP JUMPDEST PUSH1 0x0 DUP2 ISZERO ISZERO SWAP1 POP SWAP2 SWAP1 POP JUMP JUMPDEST PUSH2 0x82E DUP2 PUSH2 0x819 JUMP JUMPDEST DUP3 MSTORE POP POP JUMP JUMPDEST PUSH1 0x0 PUSH1 0x20 DUP3 ADD SWAP1 POP PUSH2 0x849 PUSH1 0x0 DUP4 ADD DUP5 PUSH2 0x825 JUMP JUMPDEST SWAP3 SWAP2 POP POP JUMP JUMPDEST PUSH1 0x0 DUP3 DUP3 MSTORE PUSH1 0x20 DUP3 ADD SWAP1 POP SWAP3 SWAP2 POP POP JUMP JUMPDEST PUSH32 0x7365656420697320616C72656164792073657400000000000000000000000000 PUSH1 0x0 DUP3 ADD MSTORE POP JUMP JUMPDEST PUSH1 0x0 PUSH2 0x896 PUSH1 0x13 DUP4 PUSH2 0x84F JUMP JUMPDEST SWAP2 POP PUSH2 0x8A1 DUP3 PUSH2 0x860 JUMP JUMPDEST PUSH1 0x20 DUP3 ADD SWAP1 POP SWAP2 SWAP1 POP JUMP JUMPDEST PUSH1 0x0 PUSH1 0x20 DUP3 ADD SWAP1 POP DUP2 DUP2 SUB PUSH1 0x0 DUP4 ADD MSTORE PUSH2 0x8C5 DUP2 PUSH2 0x889 JUMP JUMPDEST SWAP1 POP SWAP2 SWAP1 POP JUMP JUMPDEST PUSH32 0x6F6E6C79206D616E61676572706F6F6C2063616E2063616C6C20746869732066 PUSH1 0x0 DUP3 ADD MSTORE PUSH32 0x756E6374696F6E00000000000000000000000000000000000000000000000000 PUSH1 0x20 DUP3 ADD MSTORE POP JUMP JUMPDEST PUSH1 0x0 PUSH2 0x928 PUSH1 0x27 DUP4 PUSH2 0x84F JUMP JUMPDEST SWAP2 POP PUSH2 0x933 DUP3 PUSH2 0x8CC JUMP JUMPDEST PUSH1 0x40 DUP3 ADD SWAP1 POP SWAP2 SWAP1 POP JUMP JUMPDEST PUSH1 0x0 PUSH1 0x20 DUP3 ADD SWAP1 POP DUP2 DUP2 SUB PUSH1 0x0 DUP4 ADD MSTORE PUSH2 0x957 DUP2 PUSH2 0x91B JUMP JUMPDEST SWAP1 POP SWAP2 SWAP1 POP JUMP JUMPDEST PUSH32 0x4E487B7100000000000000000000000000000000000000000000000000000000 PUSH1 0x0 MSTORE PUSH1 0x11 PUSH1 0x4 MSTORE PUSH1 0x24 PUSH1 0x0 REVERT JUMPDEST PUSH1 0x0 PUSH2 0x998 DUP3 PUSH2 0x5BE JUMP JUMPDEST SWAP2 POP PUSH2 0x9A3 DUP4 PUSH2 0x5BE JUMP JUMPDEST SWAP3 POP DUP3 PUSH32 0xFFFFFFFFFFFFFFFFFFFFFFFFFFFFFFFFFFFFFFFFFFFFFFFFFFFFFFFFFFFFFFFF SUB DUP3 GT ISZERO PUSH2 0x9D8 JUMPI PUSH2 0x9D7 PUSH2 0x95E JUMP JUMPDEST JUMPDEST DUP3 DUP3 ADD SWAP1 POP SWAP3 SWAP2 POP POP JUMP JUMPDEST PUSH32 0x73656564206973206E6F74207965742073657400000000000000000000000000 PUSH1 0x0 DUP3 ADD MSTORE POP JUMP JUMPDEST PUSH1 0x0 PUSH2 0xA19 PUSH1 0x13 DUP4 PUSH2 0x84F JUMP JUMPDEST SWAP2 POP PUSH2 0xA24 DUP3 PUSH2 0x9E3 JUMP JUMPDEST PUSH1 0x20 DUP3 ADD SWAP1 POP SWAP2 SWAP1 POP JUMP JUMPDEST PUSH1 0x0 PUSH1 0x20 DUP3 ADD SWAP1 POP DUP2 DUP2 SUB PUSH1 0x0 DUP4 ADD MSTORE PUSH2 0xA48 DUP2 PUSH2 0xA0C JUMP JUMPDEST SWAP1 POP SWAP2 SWAP1 POP JUMP JUMPDEST PUSH32 0x646F6E6174696F6E7320617265206E6F7420636C6F7365642079657400000000 PUSH1 0x0 DUP3 ADD MSTORE POP JUMP JUMPDEST PUSH1 0x0 PUSH2 0xA85 PUSH1 0x1C DUP4 PUSH2 0x84F JUMP JUMPDEST SWAP2 POP PUSH2 0xA90 DUP3 PUSH2 0xA4F JUMP JUMPDEST PUSH1 0x20 DUP3 ADD SWAP1 POP SWAP2 SWAP1 POP JUMP JUMPDEST PUSH1 0x0 PUSH1 0x20 DUP3 ADD SWAP1 POP DUP2 DUP2 SUB PUSH1 0x0 DUP4 ADD MSTORE PUSH2 0xAB4 DUP2 PUSH2 0xA78 JUMP JUMPDEST SWAP1 POP SWAP2 SWAP1 POP JUMP JUMPDEST PUSH2 0xAC4 DUP2 PUSH2 0x4FF JUMP JUMPDEST DUP3 MSTORE POP POP JUMP JUMPDEST PUSH1 0x0 PUSH1 0x40 DUP3 ADD SWAP1 POP PUSH2 0xADF PUSH1 0x0 DUP4 ADD DUP6 PUSH2 0x594 JUMP JUMPDEST PUSH2 0xAEC PUSH1 0x20 DUP4 ADD DUP5 PUSH2 0xABB JUMP JUMPDEST SWAP4 SWAP3 POP POP POP JUMP JUMPDEST PUSH1 0x0 PUSH1 0x40 DUP3 ADD SWAP1 POP PUSH2 0xB08 PUSH1 0x0 DUP4 ADD DUP6 PUSH2 0xABB JUMP JUMPDEST PUSH2 0xB15 PUSH1 0x20 DUP4 ADD DUP5 PUSH2 0xABB JUMP JUMPDEST SWAP4 SWAP3 POP POP POP JUMP INVALID LOG2 PUSH5 0x6970667358 0x22 SLT KECCAK256 GASPRICE 0xEC 0xB6 0x4F 0xE1 0x26 0x2A 0xCD 0xE4 0xA6 0xD1 0xE 0x23 LOG3 0xFB 0xA5 PUSH1 0x2F 0xD1 0xCD 0xA8 CALLCODE PUSH2 0xDA56 OR PUSH28 0x91845C34C564736F6C634300080D0033000000000000000000000000 "
				},
				"gasEstimates": {
					"creation": {
						"codeDepositCost": "579600",
						"executionCost": "infinite",
						"totalCost": "infinite"
					},
					"external": {
						"donors(uint256)": "4978",
						"enterLottery(address[])": "infinite",
						"getWinner(bytes32)": "infinite",
						"managerpool()": "2599",
						"reveal(bytes32)": "infinite",
						"setSealedSeed(bytes32)": "infinite"
					}
				},
				"methodIdentifiers": {
					"donors(uint256)": "4abfa163",
					"enterLottery(address[])": "c129800d",
					"getWinner(bytes32)": "1e5f9149",
					"managerpool()": "dedfe223",
					"reveal(bytes32)": "701fd0f1",
					"setSealedSeed(bytes32)": "41114538"
				}
			},
			"storageLayout": {
				"storage": [
					{
						"astId": 24,
						"contract": "contracts/Lottery.sol:Lottery",
						"label": "managerpool",
						"offset": 0,
						"slot": "0",
						"type": "t_address"
					},
					{
						"astId": 27,
						"contract": "contracts/Lottery.sol:Lottery",
						"label": "donors",
						"offset": 0,
						"slot": "1",
						"type": "t_array(t_address)dyn_storage"
					},
					{
						"astId": 29,
						"contract": "contracts/Lottery.sol:Lottery",
						"label": "sealedSeed",
						"offset": 0,
						"slot": "2",
						"type": "t_bytes32"
					},
					{
						"astId": 31,
						"contract": "contracts/Lottery.sol:Lottery",
						"label": "seedSet",
						"offset": 0,
						"slot": "3",
						"type": "t_bool"
					},
					{
						"astId": 33,
						"contract": "contracts/Lottery.sol:Lottery",
						"label": "donationsClosed",
						"offset": 1,
						"slot": "3",
						"type": "t_bool"
					},
					{
						"astId": 35,
						"contract": "contracts/Lottery.sol:Lottery",
						"label": "storedBlockNumber",
						"offset": 0,
						"slot": "4",
						"type": "t_uint256"
					}
				],
				"types": {
					"t_address": {
						"encoding": "inplace",
						"label": "address",
						"numberOfBytes": "20"
					},
					"t_array(t_address)dyn_storage": {
						"base": "t_address",
						"encoding": "dynamic_array",
						"label": "address[]",
						"numberOfBytes": "32"
					},
					"t_bool": {
						"encoding": "inplace",
						"label": "bool",
						"numberOfBytes": "1"
					},
					"t_bytes32": {
						"encoding": "inplace",
						"label": "bytes32",
						"numberOfBytes": "32"
					},
					"t_uint256": {
						"encoding": "inplace",
						"label": "uint256",
						"numberOfBytes": "32"
					}
				}
			},
			"userdoc": {
				"kind": "user",
				"methods": {},
				"version": 1
			}
		}
	}
}