{
	"contracts/donationspool.sol": {
		"Spendenpool": {
			"abi": [
				{
					"inputs": [],
					"stateMutability": "nonpayable",
					"type": "constructor"
				},
				{
					"inputs": [],
					"name": "charyteam",
					"outputs": [
						{
							"internalType": "address",
							"name": "",
							"type": "address"
						}
					],
					"stateMutability": "view",
					"type": "function"
				},
				{
					"inputs": [],
					"name": "closeDonations",
					"outputs": [],
					"stateMutability": "nonpayable",
					"type": "function"
				},
				{
					"inputs": [],
					"name": "doLottery",
					"outputs": [
						{
							"internalType": "address",
							"name": "",
							"type": "address"
						}
					],
					"stateMutability": "payable",
					"type": "function"
				},
				{
					"inputs": [],
					"name": "donate",
					"outputs": [],
					"stateMutability": "payable",
					"type": "function"
				},
				{
					"inputs": [
						{
							"internalType": "uint256",
							"name": "",
							"type": "uint256"
						}
					],
					"name": "donators",
					"outputs": [
						{
							"internalType": "address",
							"name": "",
							"type": "address"
						}
					],
					"stateMutability": "view",
					"type": "function"
				},
				{
					"inputs": [],
					"name": "getBalance",
					"outputs": [
						{
							"internalType": "uint256",
							"name": "",
							"type": "uint256"
						}
					],
					"stateMutability": "view",
					"type": "function"
				},
				{
					"inputs": [],
					"name": "getCTBalance",
					"outputs": [
						{
							"internalType": "uint256",
							"name": "",
							"type": "uint256"
						}
					],
					"stateMutability": "view",
					"type": "function"
				},
				{
					"inputs": [
						{
							"internalType": "address",
							"name": "_lotteryContract",
							"type": "address"
						}
					],
					"name": "initiateLottery",
					"outputs": [],
					"stateMutability": "nonpayable",
					"type": "function"
				},
				{
					"inputs": [
						{
							"internalType": "address",
							"name": "_votingAddress",
							"type": "address"
						}
					],
					"name": "initiateVoting",
					"outputs": [],
					"stateMutability": "nonpayable",
					"type": "function"
				},
				{
					"inputs": [],
					"name": "lotterycontract",
					"outputs": [
						{
							"internalType": "address",
							"name": "",
							"type": "address"
						}
					],
					"stateMutability": "view",
					"type": "function"
				},
				{
					"inputs": [
						{
							"internalType": "uint256",
							"name": "",
							"type": "uint256"
						}
					],
					"name": "projects",
					"outputs": [
						{
							"internalType": "address payable",
							"name": "",
							"type": "address"
						}
					],
					"stateMutability": "view",
					"type": "function"
				},
				{
					"inputs": [],
					"name": "sendCT",
					"outputs": [],
					"stateMutability": "payable",
					"type": "function"
				},
				{
					"inputs": [],
					"name": "sendDonations",
					"outputs": [],
					"stateMutability": "payable",
					"type": "function"
				},
				{
					"inputs": [],
					"name": "startTime",
					"outputs": [
						{
							"internalType": "uint256",
							"name": "",
							"type": "uint256"
						}
					],
					"stateMutability": "view",
					"type": "function"
				},
				{
					"inputs": [],
					"name": "updateVoting",
					"outputs": [
						{
							"internalType": "address[]",
							"name": "",
							"type": "address[]"
						}
					],
					"stateMutability": "nonpayable",
					"type": "function"
				},
				{
					"inputs": [
						{
							"internalType": "uint256",
							"name": "",
							"type": "uint256"
						}
					],
					"name": "voters",
					"outputs": [
						{
							"internalType": "address",
							"name": "",
							"type": "address"
						}
					],
					"stateMutability": "view",
					"type": "function"
				},
				{
					"inputs": [],
					"name": "votingcontract",
					"outputs": [
						{
							"internalType": "address",
							"name": "",
							"type": "address"
						}
					],
					"stateMutability": "view",
					"type": "function"
				},
				{
					"inputs": [],
					"name": "votingresult",
					"outputs": [
						{
							"internalType": "uint256",
							"name": "",
							"type": "uint256"
						}
					],
					"stateMutability": "nonpayable",
					"type": "function"
				}
			],
			"devdoc": {
				"kind": "dev",
				"methods": {},
				"version": 1
			},
			"evm": {
				"assembly": "    /* \"contracts/donationspool.sol\":470:4185  contract Spendenpool{... */\n  mstore(0x40, 0x80)\n    /* \"contracts/donationspool.sol\":881:885  true */\n  0x01\n    /* \"contracts/donationspool.sol\":860:885  bool donationsopen = true */\n  0x07\n  exp(0x0100, 0x00)\n  dup2\n  sload\n  dup2\n  0xff\n  mul\n  not\n  and\n  swap1\n  dup4\n  iszero\n  iszero\n  mul\n  or\n  swap1\n  sstore\n  pop\n    /* \"contracts/donationspool.sol\":917:932  block.timestamp */\n  timestamp\n    /* \"contracts/donationspool.sol\":893:932  uint public startTime = block.timestamp */\n  0x08\n  sstore\n    /* \"contracts/donationspool.sol\":1078:1142  constructor () public {... */\n  callvalue\n  dup1\n  iszero\n  tag_1\n  jumpi\n  0x00\n  dup1\n  revert\ntag_1:\n  pop\n    /* \"contracts/donationspool.sol\":1123:1133  msg.sender */\n  caller\n    /* \"contracts/donationspool.sol\":1111:1120  charyteam */\n  0x00\n  dup1\n    /* \"contracts/donationspool.sol\":1111:1133  charyteam = msg.sender */\n  0x0100\n  exp\n  dup2\n  sload\n  dup2\n  0xffffffffffffffffffffffffffffffffffffffff\n  mul\n  not\n  and\n  swap1\n  dup4\n  0xffffffffffffffffffffffffffffffffffffffff\n  and\n  mul\n  or\n  swap1\n  sstore\n  pop\n    /* \"contracts/donationspool.sol\":470:4185  contract Spendenpool{... */\n  dataSize(sub_0)\n  dup1\n  dataOffset(sub_0)\n  0x00\n  codecopy\n  0x00\n  return\nstop\n\nsub_0: assembly {\n        /* \"contracts/donationspool.sol\":470:4185  contract Spendenpool{... */\n      mstore(0x40, 0x80)\n      jumpi(tag_1, lt(calldatasize, 0x04))\n      shr(0xe0, calldataload(0x00))\n      dup1\n      0x8d6a8b80\n      gt\n      tag_20\n      jumpi\n      dup1\n      0xacc9c6b4\n      gt\n      tag_21\n      jumpi\n      dup1\n      0xacc9c6b4\n      eq\n      tag_15\n      jumpi\n      dup1\n      0xcad65b70\n      eq\n      tag_16\n      jumpi\n      dup1\n      0xd1286e65\n      eq\n      tag_17\n      jumpi\n      dup1\n      0xda58c7d9\n      eq\n      tag_18\n      jumpi\n      dup1\n      0xed88c68e\n      eq\n      tag_19\n      jumpi\n      jump(tag_1)\n    tag_21:\n      dup1\n      0x8d6a8b80\n      eq\n      tag_11\n      jumpi\n      dup1\n      0x99e7f8c2\n      eq\n      tag_12\n      jumpi\n      dup1\n      0x9e992987\n      eq\n      tag_13\n      jumpi\n      dup1\n      0xac62f566\n      eq\n      tag_14\n      jumpi\n      jump(tag_1)\n    tag_20:\n      dup1\n      0x583fa3a8\n      gt\n      tag_22\n      jumpi\n      dup1\n      0x583fa3a8\n      eq\n      tag_6\n      jumpi\n      dup1\n      0x78e97925\n      eq\n      tag_7\n      jumpi\n      dup1\n      0x7c4444ff\n      eq\n      tag_8\n      jumpi\n      dup1\n      0x82caff48\n      eq\n      tag_9\n      jumpi\n      dup1\n      0x86e899a2\n      eq\n      tag_10\n      jumpi\n      jump(tag_1)\n    tag_22:\n      dup1\n      0x107046bd\n      eq\n      tag_2\n      jumpi\n      dup1\n      0x12065fe0\n      eq\n      tag_3\n      jumpi\n      dup1\n      0x2e708fa8\n      eq\n      tag_4\n      jumpi\n      dup1\n      0x54235142\n      eq\n      tag_5\n      jumpi\n    tag_1:\n      0x00\n      dup1\n      revert\n        /* \"contracts/donationspool.sol\":683:716  address payable[] public projects */\n    tag_2:\n      callvalue\n      dup1\n      iszero\n      tag_23\n      jumpi\n      0x00\n      dup1\n      revert\n    tag_23:\n      pop\n      tag_24\n      0x04\n      dup1\n      calldatasize\n      sub\n      dup2\n      add\n      swap1\n      tag_25\n      swap2\n      swap1\n      tag_26\n      jump\t// in\n    tag_25:\n      tag_27\n      jump\t// in\n    tag_24:\n      mload(0x40)\n      tag_28\n      swap2\n      swap1\n      tag_29\n      jump\t// in\n    tag_28:\n      mload(0x40)\n      dup1\n      swap2\n      sub\n      swap1\n      return\n        /* \"contracts/donationspool.sol\":2616:2750  function getBalance() public view returns(uint) {... */\n    tag_3:\n      callvalue\n      dup1\n      iszero\n      tag_30\n      jumpi\n      0x00\n      dup1\n      revert\n    tag_30:\n      pop\n      tag_31\n      tag_32\n      jump\t// in\n    tag_31:\n      mload(0x40)\n      tag_33\n      swap2\n      swap1\n      tag_34\n      jump\t// in\n    tag_33:\n      mload(0x40)\n      dup1\n      swap2\n      sub\n      swap1\n      return\n        /* \"contracts/donationspool.sol\":763:792  address public votingcontract */\n    tag_4:\n      callvalue\n      dup1\n      iszero\n      tag_35\n      jumpi\n      0x00\n      dup1\n      revert\n    tag_35:\n      pop\n      tag_36\n      tag_37\n      jump\t// in\n    tag_36:\n      mload(0x40)\n      tag_38\n      swap2\n      swap1\n      tag_39\n      jump\t// in\n    tag_38:\n      mload(0x40)\n      dup1\n      swap2\n      sub\n      swap1\n      return\n        /* \"contracts/donationspool.sol\":2857:3022  function getCTBalance() public view onlyCharyteam returns(uint) {... */\n    tag_5:\n      callvalue\n      dup1\n      iszero\n      tag_40\n      jumpi\n      0x00\n      dup1\n      revert\n    tag_40:\n      pop\n      tag_41\n      tag_42\n      jump\t// in\n    tag_41:\n      mload(0x40)\n      tag_43\n      swap2\n      swap1\n      tag_34\n      jump\t// in\n    tag_43:\n      mload(0x40)\n      dup1\n      swap2\n      sub\n      swap1\n      return\n        /* \"contracts/donationspool.sol\":3804:4068  function doLottery() payable public donationsclosed returns(address) {... */\n    tag_6:\n      tag_44\n      tag_45\n      jump\t// in\n    tag_44:\n      mload(0x40)\n      tag_46\n      swap2\n      swap1\n      tag_39\n      jump\t// in\n    tag_46:\n      mload(0x40)\n      dup1\n      swap2\n      sub\n      swap1\n      return\n        /* \"contracts/donationspool.sol\":893:932  uint public startTime = block.timestamp */\n    tag_7:\n      callvalue\n      dup1\n      iszero\n      tag_47\n      jumpi\n      0x00\n      dup1\n      revert\n    tag_47:\n      pop\n      tag_48\n      tag_49\n      jump\t// in\n    tag_48:\n      mload(0x40)\n      tag_50\n      swap2\n      swap1\n      tag_34\n      jump\t// in\n    tag_50:\n      mload(0x40)\n      dup1\n      swap2\n      sub\n      swap1\n      return\n        /* \"contracts/donationspool.sol\":3083:3401  function sendCT() payable public {... */\n    tag_8:\n      tag_51\n      tag_52\n      jump\t// in\n    tag_51:\n      stop\n        /* \"contracts/donationspool.sol\":1761:1914  function initiateVoting(address _votingAddress) external {... */\n    tag_9:\n      callvalue\n      dup1\n      iszero\n      tag_53\n      jumpi\n      0x00\n      dup1\n      revert\n    tag_53:\n      pop\n      tag_54\n      0x04\n      dup1\n      calldatasize\n      sub\n      dup2\n      add\n      swap1\n      tag_55\n      swap2\n      swap1\n      tag_56\n      jump\t// in\n    tag_55:\n      tag_57\n      jump\t// in\n    tag_54:\n      stop\n        /* \"contracts/donationspool.sol\":3657:3796  function votingresult() public returns (uint) {... */\n    tag_10:\n      callvalue\n      dup1\n      iszero\n      tag_58\n      jumpi\n      0x00\n      dup1\n      revert\n    tag_58:\n      pop\n      tag_59\n      tag_60\n      jump\t// in\n    tag_59:\n      mload(0x40)\n      tag_61\n      swap2\n      swap1\n      tag_34\n      jump\t// in\n    tag_61:\n      mload(0x40)\n      dup1\n      swap2\n      sub\n      swap1\n      return\n        /* \"contracts/donationspool.sol\":800:830  address public lotterycontract */\n    tag_11:\n      callvalue\n      dup1\n      iszero\n      tag_62\n      jumpi\n      0x00\n      dup1\n      revert\n    tag_62:\n      pop\n      tag_63\n      tag_64\n      jump\t// in\n    tag_63:\n      mload(0x40)\n      tag_65\n      swap2\n      swap1\n      tag_39\n      jump\t// in\n    tag_65:\n      mload(0x40)\n      dup1\n      swap2\n      sub\n      swap1\n      return\n        /* \"contracts/donationspool.sol\":3449:3592  function closeDonations() public {... */\n    tag_12:\n      callvalue\n      dup1\n      iszero\n      tag_66\n      jumpi\n      0x00\n      dup1\n      revert\n    tag_66:\n      pop\n      tag_67\n      tag_68\n      jump\t// in\n    tag_67:\n      stop\n        /* \"contracts/donationspool.sol\":1922:2036  function initiateLottery(address _lotteryContract) external {... */\n    tag_13:\n      callvalue\n      dup1\n      iszero\n      tag_69\n      jumpi\n      0x00\n      dup1\n      revert\n    tag_69:\n      pop\n      tag_70\n      0x04\n      dup1\n      calldatasize\n      sub\n      dup2\n      add\n      swap1\n      tag_71\n      swap2\n      swap1\n      tag_56\n      jump\t// in\n    tag_71:\n      tag_72\n      jump\t// in\n    tag_70:\n      stop\n        /* \"contracts/donationspool.sol\":547:572  address[] public donators */\n    tag_14:\n      callvalue\n      dup1\n      iszero\n      tag_73\n      jumpi\n      0x00\n      dup1\n      revert\n    tag_73:\n      pop\n      tag_74\n      0x04\n      dup1\n      calldatasize\n      sub\n      dup2\n      add\n      swap1\n      tag_75\n      swap2\n      swap1\n      tag_26\n      jump\t// in\n    tag_75:\n      tag_76\n      jump\t// in\n    tag_74:\n      mload(0x40)\n      tag_77\n      swap2\n      swap1\n      tag_39\n      jump\t// in\n    tag_77:\n      mload(0x40)\n      dup1\n      swap2\n      sub\n      swap1\n      return\n        /* \"contracts/donationspool.sol\":2350:2589  function updateVoting() public returns(address[] memory){... */\n    tag_15:\n      callvalue\n      dup1\n      iszero\n      tag_78\n      jumpi\n      0x00\n      dup1\n      revert\n    tag_78:\n      pop\n      tag_79\n      tag_80\n      jump\t// in\n    tag_79:\n      mload(0x40)\n      tag_81\n      swap2\n      swap1\n      tag_82\n      jump\t// in\n    tag_81:\n      mload(0x40)\n      dup1\n      swap2\n      sub\n      swap1\n      return\n        /* \"contracts/donationspool.sol\":4076:4176  function sendDonations() payable public donationsclosed onlyCharyteam {... */\n    tag_16:\n      tag_83\n      tag_84\n      jump\t// in\n    tag_83:\n      stop\n        /* \"contracts/donationspool.sol\":515:539  address public charyteam */\n    tag_17:\n      callvalue\n      dup1\n      iszero\n      tag_85\n      jumpi\n      0x00\n      dup1\n      revert\n    tag_85:\n      pop\n      tag_86\n      tag_87\n      jump\t// in\n    tag_86:\n      mload(0x40)\n      tag_88\n      swap2\n      swap1\n      tag_39\n      jump\t// in\n    tag_88:\n      mload(0x40)\n      dup1\n      swap2\n      sub\n      swap1\n      return\n        /* \"contracts/donationspool.sol\":621:644  address[] public voters */\n    tag_18:\n      callvalue\n      dup1\n      iszero\n      tag_89\n      jumpi\n      0x00\n      dup1\n      revert\n    tag_89:\n      pop\n      tag_90\n      0x04\n      dup1\n      calldatasize\n      sub\n      dup2\n      add\n      swap1\n      tag_91\n      swap2\n      swap1\n      tag_26\n      jump\t// in\n    tag_91:\n      tag_92\n      jump\t// in\n    tag_90:\n      mload(0x40)\n      tag_93\n      swap2\n      swap1\n      tag_39\n      jump\t// in\n    tag_93:\n      mload(0x40)\n      dup1\n      swap2\n      sub\n      swap1\n      return\n        /* \"contracts/donationspool.sol\":2072:2340  function donate() payable public {... */\n    tag_19:\n      tag_94\n      tag_95\n      jump\t// in\n    tag_94:\n      stop\n        /* \"contracts/donationspool.sol\":683:716  address payable[] public projects */\n    tag_27:\n      0x03\n      dup2\n      dup2\n      sload\n      dup2\n      lt\n      tag_96\n      jumpi\n      0x00\n      dup1\n      revert\n    tag_96:\n      swap1\n      0x00\n      mstore\n      keccak256(0x00, 0x20)\n      add\n      0x00\n      swap2\n      pop\n      sload\n      swap1\n      0x0100\n      exp\n      swap1\n      div\n      0xffffffffffffffffffffffffffffffffffffffff\n      and\n      dup2\n      jump\t// out\n        /* \"contracts/donationspool.sol\":2616:2750  function getBalance() public view returns(uint) {... */\n    tag_32:\n        /* \"contracts/donationspool.sol\":2658:2662  uint */\n      0x00\n        /* \"contracts/donationspool.sol\":2720:2741  address(this).balance */\n      selfbalance\n        /* \"contracts/donationspool.sol\":2713:2741  return address(this).balance */\n      swap1\n      pop\n        /* \"contracts/donationspool.sol\":2616:2750  function getBalance() public view returns(uint) {... */\n      swap1\n      jump\t// out\n        /* \"contracts/donationspool.sol\":763:792  address public votingcontract */\n    tag_37:\n      0x04\n      0x00\n      swap1\n      sload\n      swap1\n      0x0100\n      exp\n      swap1\n      div\n      0xffffffffffffffffffffffffffffffffffffffff\n      and\n      dup2\n      jump\t// out\n        /* \"contracts/donationspool.sol\":2857:3022  function getCTBalance() public view onlyCharyteam returns(uint) {... */\n    tag_42:\n        /* \"contracts/donationspool.sol\":2915:2919  uint */\n      0x00\n        /* \"contracts/donationspool.sol\":1485:1494  charyteam */\n      dup1\n      0x00\n      swap1\n      sload\n      swap1\n      0x0100\n      exp\n      swap1\n      div\n      0xffffffffffffffffffffffffffffffffffffffff\n      and\n        /* \"contracts/donationspool.sol\":1471:1494  msg.sender == charyteam */\n      0xffffffffffffffffffffffffffffffffffffffff\n      and\n        /* \"contracts/donationspool.sol\":1471:1481  msg.sender */\n      caller\n        /* \"contracts/donationspool.sol\":1471:1494  msg.sender == charyteam */\n      0xffffffffffffffffffffffffffffffffffffffff\n      and\n      eq\n        /* \"contracts/donationspool.sol\":1463:1536  require(msg.sender == charyteam, \"only CharyTeam can call this function\") */\n      tag_100\n      jumpi\n      mload(0x40)\n      0x08c379a000000000000000000000000000000000000000000000000000000000\n      dup2\n      mstore\n      0x04\n      add\n      tag_101\n      swap1\n      tag_102\n      jump\t// in\n    tag_101:\n      mload(0x40)\n      dup1\n      swap2\n      sub\n      swap1\n      revert\n    tag_100:\n        /* \"contracts/donationspool.sol\":2946:2988  0xD4Fc541236927E2EAf8F27606bD7309C1Fc2cbee */\n      0xd4fc541236927e2eaf8f27606bd7309c1fc2cbee\n        /* \"contracts/donationspool.sol\":2939:2999  IERC20(0xD4Fc541236927E2EAf8F27606bD7309C1Fc2cbee).balanceOf */\n      0xffffffffffffffffffffffffffffffffffffffff\n      and\n      0x70a08231\n        /* \"contracts/donationspool.sol\":3008:3012  this */\n      address\n        /* \"contracts/donationspool.sol\":2939:3014  IERC20(0xD4Fc541236927E2EAf8F27606bD7309C1Fc2cbee).balanceOf(address(this)) */\n      mload(0x40)\n      dup3\n      0xffffffff\n      and\n      0xe0\n      shl\n      dup2\n      mstore\n      0x04\n      add\n      tag_104\n      swap2\n      swap1\n      tag_39\n      jump\t// in\n    tag_104:\n      0x20\n      mload(0x40)\n      dup1\n      dup4\n      sub\n      dup2\n      dup7\n      gas\n      staticcall\n      iszero\n      dup1\n      iszero\n      tag_106\n      jumpi\n      returndatasize\n      0x00\n      dup1\n      returndatacopy\n      revert(0x00, returndatasize)\n    tag_106:\n      pop\n      pop\n      pop\n      pop\n      mload(0x40)\n      returndatasize\n      not(0x1f)\n      0x1f\n      dup3\n      add\n      and\n      dup3\n      add\n      dup1\n      0x40\n      mstore\n      pop\n      dup2\n      add\n      swap1\n      tag_107\n      swap2\n      swap1\n      tag_108\n      jump\t// in\n    tag_107:\n        /* \"contracts/donationspool.sol\":2932:3014  return IERC20(0xD4Fc541236927E2EAf8F27606bD7309C1Fc2cbee).balanceOf(address(this)) */\n      swap1\n      pop\n        /* \"contracts/donationspool.sol\":2857:3022  function getCTBalance() public view onlyCharyteam returns(uint) {... */\n      swap1\n      jump\t// out\n        /* \"contracts/donationspool.sol\":3804:4068  function doLottery() payable public donationsclosed returns(address) {... */\n    tag_45:\n        /* \"contracts/donationspool.sol\":3864:3871  address */\n      0x00\n        /* \"contracts/donationspool.sol\":1314:1319  false */\n      dup1\n        /* \"contracts/donationspool.sol\":1297:1319  donationsopen == false */\n      iszero\n      iszero\n        /* \"contracts/donationspool.sol\":1297:1310  donationsopen */\n      0x07\n      0x00\n      swap1\n      sload\n      swap1\n      0x0100\n      exp\n      swap1\n      div\n      0xff\n      and\n        /* \"contracts/donationspool.sol\":1297:1319  donationsopen == false */\n      iszero\n      iszero\n      eq\n        /* \"contracts/donationspool.sol\":1289:1359  require(donationsopen == false, \"Spenden werden nicht mehr gesammelt\") */\n      tag_110\n      jumpi\n      mload(0x40)\n      0x08c379a000000000000000000000000000000000000000000000000000000000\n      dup2\n      mstore\n      0x04\n      add\n      tag_111\n      swap1\n      tag_112\n      jump\t// in\n    tag_111:\n      mload(0x40)\n      dup1\n      swap2\n      sub\n      swap1\n      revert\n    tag_110:\n        /* \"contracts/donationspool.sol\":3884:3894  ILottery l */\n      0x00\n        /* \"contracts/donationspool.sol\":3906:3921  lotterycontract */\n      0x05\n      0x00\n      swap1\n      sload\n      swap1\n      0x0100\n      exp\n      swap1\n      div\n      0xffffffffffffffffffffffffffffffffffffffff\n      and\n        /* \"contracts/donationspool.sol\":3884:3922  ILottery l = ILottery(lotterycontract) */\n      swap1\n      pop\n        /* \"contracts/donationspool.sol\":3934:3935  l */\n      dup1\n        /* \"contracts/donationspool.sol\":3934:3948  l.enterLottery */\n      0xffffffffffffffffffffffffffffffffffffffff\n      and\n      0xc129800d\n        /* \"contracts/donationspool.sol\":3949:3957  donators */\n      0x01\n        /* \"contracts/donationspool.sol\":3934:3958  l.enterLottery(donators) */\n      mload(0x40)\n      dup3\n      0xffffffff\n      and\n      0xe0\n      shl\n      dup2\n      mstore\n      0x04\n      add\n      tag_114\n      swap2\n      swap1\n      tag_115\n      jump\t// in\n    tag_114:\n      0x20\n      mload(0x40)\n      dup1\n      dup4\n      sub\n      dup2\n      0x00\n      dup8\n      gas\n      call\n      iszero\n      dup1\n      iszero\n      tag_117\n      jumpi\n      returndatasize\n      0x00\n      dup1\n      returndatacopy\n      revert(0x00, returndatasize)\n    tag_117:\n      pop\n      pop\n      pop\n      pop\n      mload(0x40)\n      returndatasize\n      not(0x1f)\n      0x1f\n      dup3\n      add\n      and\n      dup3\n      add\n      dup1\n      0x40\n      mstore\n      pop\n      dup2\n      add\n      swap1\n      tag_118\n      swap2\n      swap1\n      tag_119\n      jump\t// in\n    tag_118:\n      pop\n        /* \"contracts/donationspool.sol\":3873:4068  {... */\n      pop\n        /* \"contracts/donationspool.sol\":3804:4068  function doLottery() payable public donationsclosed returns(address) {... */\n      swap1\n      jump\t// out\n        /* \"contracts/donationspool.sol\":893:932  uint public startTime = block.timestamp */\n    tag_49:\n      sload(0x08)\n      dup2\n      jump\t// out\n        /* \"contracts/donationspool.sol\":3083:3401  function sendCT() payable public {... */\n    tag_52:\n        /* \"contracts/donationspool.sol\":3162:3173  uint tempCT */\n      0x00\n        /* \"contracts/donationspool.sol\":3183:3225  0xD4Fc541236927E2EAf8F27606bD7309C1Fc2cbee */\n      0xd4fc541236927e2eaf8f27606bd7309c1fc2cbee\n        /* \"contracts/donationspool.sol\":3176:3236  IERC20(0xD4Fc541236927E2EAf8F27606bD7309C1Fc2cbee).balanceOf */\n      0xffffffffffffffffffffffffffffffffffffffff\n      and\n      0x70a08231\n        /* \"contracts/donationspool.sol\":3237:3247  msg.sender */\n      caller\n        /* \"contracts/donationspool.sol\":3176:3248  IERC20(0xD4Fc541236927E2EAf8F27606bD7309C1Fc2cbee).balanceOf(msg.sender) */\n      mload(0x40)\n      dup3\n      0xffffffff\n      and\n      0xe0\n      shl\n      dup2\n      mstore\n      0x04\n      add\n      tag_121\n      swap2\n      swap1\n      tag_39\n      jump\t// in\n    tag_121:\n      0x20\n      mload(0x40)\n      dup1\n      dup4\n      sub\n      dup2\n      dup7\n      gas\n      staticcall\n      iszero\n      dup1\n      iszero\n      tag_123\n      jumpi\n      returndatasize\n      0x00\n      dup1\n      returndatacopy\n      revert(0x00, returndatasize)\n    tag_123:\n      pop\n      pop\n      pop\n      pop\n      mload(0x40)\n      returndatasize\n      not(0x1f)\n      0x1f\n      dup3\n      add\n      and\n      dup3\n      add\n      dup1\n      0x40\n      mstore\n      pop\n      dup2\n      add\n      swap1\n      tag_124\n      swap2\n      swap1\n      tag_108\n      jump\t// in\n    tag_124:\n        /* \"contracts/donationspool.sol\":3162:3248  uint tempCT = IERC20(0xD4Fc541236927E2EAf8F27606bD7309C1Fc2cbee).balanceOf(msg.sender) */\n      swap1\n      pop\n        /* \"contracts/donationspool.sol\":3277:3278  0 */\n      0x00\n        /* \"contracts/donationspool.sol\":3267:3273  tempCT */\n      dup2\n        /* \"contracts/donationspool.sol\":3267:3278  tempCT == 0 */\n      eq\n        /* \"contracts/donationspool.sol\":3259:3306  require(tempCT == 0, \"sender already has a CT\") */\n      tag_125\n      jumpi\n      mload(0x40)\n      0x08c379a000000000000000000000000000000000000000000000000000000000\n      dup2\n      mstore\n      0x04\n      add\n      tag_126\n      swap1\n      tag_127\n      jump\t// in\n    tag_126:\n      mload(0x40)\n      dup1\n      swap2\n      sub\n      swap1\n      revert\n    tag_125:\n        /* \"contracts/donationspool.sol\":3325:3367  0xD4Fc541236927E2EAf8F27606bD7309C1Fc2cbee */\n      0xd4fc541236927e2eaf8f27606bd7309c1fc2cbee\n        /* \"contracts/donationspool.sol\":3318:3377  IERC20(0xD4Fc541236927E2EAf8F27606bD7309C1Fc2cbee).transfer */\n      0xffffffffffffffffffffffffffffffffffffffff\n      and\n      0xa9059cbb\n        /* \"contracts/donationspool.sol\":3378:3388  msg.sender */\n      caller\n        /* \"contracts/donationspool.sol\":3390:3391  1 */\n      0x01\n        /* \"contracts/donationspool.sol\":3318:3392  IERC20(0xD4Fc541236927E2EAf8F27606bD7309C1Fc2cbee).transfer(msg.sender, 1) */\n      mload(0x40)\n      dup4\n      0xffffffff\n      and\n      0xe0\n      shl\n      dup2\n      mstore\n      0x04\n      add\n      tag_128\n      swap3\n      swap2\n      swap1\n      tag_129\n      jump\t// in\n    tag_128:\n      0x20\n      mload(0x40)\n      dup1\n      dup4\n      sub\n      dup2\n      0x00\n      dup8\n      gas\n      call\n      iszero\n      dup1\n      iszero\n      tag_131\n      jumpi\n      returndatasize\n      0x00\n      dup1\n      returndatacopy\n      revert(0x00, returndatasize)\n    tag_131:\n      pop\n      pop\n      pop\n      pop\n      mload(0x40)\n      returndatasize\n      not(0x1f)\n      0x1f\n      dup3\n      add\n      and\n      dup3\n      add\n      dup1\n      0x40\n      mstore\n      pop\n      dup2\n      add\n      swap1\n      tag_132\n      swap2\n      swap1\n      tag_119\n      jump\t// in\n    tag_132:\n      pop\n        /* \"contracts/donationspool.sol\":3116:3401  {... */\n      pop\n        /* \"contracts/donationspool.sol\":3083:3401  function sendCT() payable public {... */\n      jump\t// out\n        /* \"contracts/donationspool.sol\":1761:1914  function initiateVoting(address _votingAddress) external {... */\n    tag_57:\n        /* \"contracts/donationspool.sol\":1891:1905  _votingAddress */\n      dup1\n        /* \"contracts/donationspool.sol\":1874:1888  votingcontract */\n      0x04\n      0x00\n        /* \"contracts/donationspool.sol\":1874:1905  votingcontract = _votingAddress */\n      0x0100\n      exp\n      dup2\n      sload\n      dup2\n      0xffffffffffffffffffffffffffffffffffffffff\n      mul\n      not\n      and\n      swap1\n      dup4\n      0xffffffffffffffffffffffffffffffffffffffff\n      and\n      mul\n      or\n      swap1\n      sstore\n      pop\n        /* \"contracts/donationspool.sol\":1761:1914  function initiateVoting(address _votingAddress) external {... */\n      pop\n      jump\t// out\n        /* \"contracts/donationspool.sol\":3657:3796  function votingresult() public returns (uint) {... */\n    tag_60:\n        /* \"contracts/donationspool.sol\":3697:3701  uint */\n      0x00\n        /* \"contracts/donationspool.sol\":3714:3723  IVoting v */\n      dup1\n        /* \"contracts/donationspool.sol\":3734:3748  votingcontract */\n      0x04\n      0x00\n      swap1\n      sload\n      swap1\n      0x0100\n      exp\n      swap1\n      div\n      0xffffffffffffffffffffffffffffffffffffffff\n      and\n        /* \"contracts/donationspool.sol\":3714:3749  IVoting v = IVoting(votingcontract) */\n      swap1\n      pop\n        /* \"contracts/donationspool.sol\":3768:3769  v */\n      dup1\n        /* \"contracts/donationspool.sol\":3768:3785  v.getVotingWinner */\n      0xffffffffffffffffffffffffffffffffffffffff\n      and\n      0x94bec071\n        /* \"contracts/donationspool.sol\":3768:3787  v.getVotingWinner() */\n      mload(0x40)\n      dup2\n      0xffffffff\n      and\n      0xe0\n      shl\n      dup2\n      mstore\n      0x04\n      add\n      0x20\n      mload(0x40)\n      dup1\n      dup4\n      sub\n      dup2\n      0x00\n      dup8\n      gas\n      call\n      iszero\n      dup1\n      iszero\n      tag_136\n      jumpi\n      returndatasize\n      0x00\n      dup1\n      returndatacopy\n      revert(0x00, returndatasize)\n    tag_136:\n      pop\n      pop\n      pop\n      pop\n      mload(0x40)\n      returndatasize\n      not(0x1f)\n      0x1f\n      dup3\n      add\n      and\n      dup3\n      add\n      dup1\n      0x40\n      mstore\n      pop\n      dup2\n      add\n      swap1\n      tag_137\n      swap2\n      swap1\n      tag_108\n      jump\t// in\n    tag_137:\n        /* \"contracts/donationspool.sol\":3761:3787  return v.getVotingWinner() */\n      swap2\n      pop\n      pop\n        /* \"contracts/donationspool.sol\":3657:3796  function votingresult() public returns (uint) {... */\n      swap1\n      jump\t// out\n        /* \"contracts/donationspool.sol\":800:830  address public lotterycontract */\n    tag_64:\n      0x05\n      0x00\n      swap1\n      sload\n      swap1\n      0x0100\n      exp\n      swap1\n      div\n      0xffffffffffffffffffffffffffffffffffffffff\n      and\n      dup2\n      jump\t// out\n        /* \"contracts/donationspool.sol\":3449:3592  function closeDonations() public {... */\n    tag_68:\n        /* \"contracts/donationspool.sol\":3514:3518  true */\n      0x01\n        /* \"contracts/donationspool.sol\":3497:3518  donationsopen == true */\n      iszero\n      iszero\n        /* \"contracts/donationspool.sol\":3497:3510  donationsopen */\n      0x07\n      0x00\n      swap1\n      sload\n      swap1\n      0x0100\n      exp\n      swap1\n      div\n      0xff\n      and\n        /* \"contracts/donationspool.sol\":3497:3518  donationsopen == true */\n      iszero\n      iszero\n      eq\n        /* \"contracts/donationspool.sol\":3497:3560  donationsopen == true && block.timestamp >= startTime + 30 days */\n      dup1\n      iszero\n      tag_139\n      jumpi\n      pop\n        /* \"contracts/donationspool.sol\":3553:3560  30 days */\n      0x278d00\n        /* \"contracts/donationspool.sol\":3541:3550  startTime */\n      sload(0x08)\n        /* \"contracts/donationspool.sol\":3541:3560  startTime + 30 days */\n      tag_140\n      swap2\n      swap1\n      tag_141\n      jump\t// in\n    tag_140:\n        /* \"contracts/donationspool.sol\":3522:3537  block.timestamp */\n      timestamp\n        /* \"contracts/donationspool.sol\":3522:3560  block.timestamp >= startTime + 30 days */\n      lt\n      iszero\n        /* \"contracts/donationspool.sol\":3497:3560  donationsopen == true && block.timestamp >= startTime + 30 days */\n    tag_139:\n        /* \"contracts/donationspool.sol\":3493:3583  if (donationsopen == true && block.timestamp >= startTime + 30 days) donationsopen = false */\n      iszero\n      tag_142\n      jumpi\n        /* \"contracts/donationspool.sol\":3578:3583  false */\n      0x00\n        /* \"contracts/donationspool.sol\":3562:3575  donationsopen */\n      0x07\n      0x00\n        /* \"contracts/donationspool.sol\":3562:3583  donationsopen = false */\n      0x0100\n      exp\n      dup2\n      sload\n      dup2\n      0xff\n      mul\n      not\n      and\n      swap1\n      dup4\n      iszero\n      iszero\n      mul\n      or\n      swap1\n      sstore\n      pop\n        /* \"contracts/donationspool.sol\":3493:3583  if (donationsopen == true && block.timestamp >= startTime + 30 days) donationsopen = false */\n    tag_142:\n        /* \"contracts/donationspool.sol\":3449:3592  function closeDonations() public {... */\n      jump\t// out\n        /* \"contracts/donationspool.sol\":1922:2036  function initiateLottery(address _lotteryContract) external {... */\n    tag_72:\n        /* \"contracts/donationspool.sol\":2011:2027  _lotteryContract */\n      dup1\n        /* \"contracts/donationspool.sol\":1993:2008  lotterycontract */\n      0x05\n      0x00\n        /* \"contracts/donationspool.sol\":1993:2027  lotterycontract = _lotteryContract */\n      0x0100\n      exp\n      dup2\n      sload\n      dup2\n      0xffffffffffffffffffffffffffffffffffffffff\n      mul\n      not\n      and\n      swap1\n      dup4\n      0xffffffffffffffffffffffffffffffffffffffff\n      and\n      mul\n      or\n      swap1\n      sstore\n      pop\n        /* \"contracts/donationspool.sol\":1922:2036  function initiateLottery(address _lotteryContract) external {... */\n      pop\n      jump\t// out\n        /* \"contracts/donationspool.sol\":547:572  address[] public donators */\n    tag_76:\n      0x01\n      dup2\n      dup2\n      sload\n      dup2\n      lt\n      tag_144\n      jumpi\n      0x00\n      dup1\n      revert\n    tag_144:\n      swap1\n      0x00\n      mstore\n      keccak256(0x00, 0x20)\n      add\n      0x00\n      swap2\n      pop\n      sload\n      swap1\n      0x0100\n      exp\n      swap1\n      div\n      0xffffffffffffffffffffffffffffffffffffffff\n      and\n      dup2\n      jump\t// out\n        /* \"contracts/donationspool.sol\":2350:2589  function updateVoting() public returns(address[] memory){... */\n    tag_80:\n        /* \"contracts/donationspool.sol\":2389:2405  address[] memory */\n      0x60\n        /* \"contracts/donationspool.sol\":2471:2480  IVoting v */\n      0x00\n        /* \"contracts/donationspool.sol\":2491:2505  votingcontract */\n      0x04\n      0x00\n      swap1\n      sload\n      swap1\n      0x0100\n      exp\n      swap1\n      div\n      0xffffffffffffffffffffffffffffffffffffffff\n      and\n        /* \"contracts/donationspool.sol\":2471:2506  IVoting v = IVoting(votingcontract) */\n      swap1\n      pop\n        /* \"contracts/donationspool.sol\":2527:2528  v */\n      dup1\n        /* \"contracts/donationspool.sol\":2527:2538  v.getVoters */\n      0xffffffffffffffffffffffffffffffffffffffff\n      and\n      0xcdd72253\n        /* \"contracts/donationspool.sol\":2527:2540  v.getVoters() */\n      mload(0x40)\n      dup2\n      0xffffffff\n      and\n      0xe0\n      shl\n      dup2\n      mstore\n      0x04\n      add\n      0x00\n      mload(0x40)\n      dup1\n      dup4\n      sub\n      dup2\n      0x00\n      dup8\n      gas\n      call\n      iszero\n      dup1\n      iszero\n      tag_148\n      jumpi\n      returndatasize\n      0x00\n      dup1\n      returndatacopy\n      revert(0x00, returndatasize)\n    tag_148:\n      pop\n      pop\n      pop\n      pop\n      mload(0x40)\n      returndatasize\n      0x00\n      dup3\n      returndatacopy\n      returndatasize\n      not(0x1f)\n      0x1f\n      dup3\n      add\n      and\n      dup3\n      add\n      dup1\n      0x40\n      mstore\n      pop\n      dup2\n      add\n      swap1\n      tag_149\n      swap2\n      swap1\n      tag_150\n      jump\t// in\n    tag_149:\n        /* \"contracts/donationspool.sol\":2518:2524  voters */\n      0x02\n        /* \"contracts/donationspool.sol\":2518:2540  voters = v.getVoters() */\n      swap1\n      dup1\n      mload\n      swap1\n      0x20\n      add\n      swap1\n      tag_151\n      swap3\n      swap2\n      swap1\n      tag_152\n      jump\t// in\n    tag_151:\n      pop\n        /* \"contracts/donationspool.sol\":2574:2580  voters */\n      0x02\n        /* \"contracts/donationspool.sol\":2567:2580  return voters */\n      dup1\n      sload\n      dup1\n      0x20\n      mul\n      0x20\n      add\n      mload(0x40)\n      swap1\n      dup2\n      add\n      0x40\n      mstore\n      dup1\n      swap3\n      swap2\n      swap1\n      dup2\n      dup2\n      mstore\n      0x20\n      add\n      dup3\n      dup1\n      sload\n      dup1\n      iszero\n      tag_153\n      jumpi\n      0x20\n      mul\n      dup3\n      add\n      swap2\n      swap1\n      0x00\n      mstore\n      keccak256(0x00, 0x20)\n      swap1\n    tag_154:\n      dup2\n      0x00\n      swap1\n      sload\n      swap1\n      0x0100\n      exp\n      swap1\n      div\n      0xffffffffffffffffffffffffffffffffffffffff\n      and\n      0xffffffffffffffffffffffffffffffffffffffff\n      and\n      dup2\n      mstore\n      0x20\n      add\n      swap1\n      0x01\n      add\n      swap1\n      dup1\n      dup4\n      gt\n      tag_154\n      jumpi\n    tag_153:\n      pop\n      pop\n      pop\n      pop\n      pop\n      swap2\n      pop\n      pop\n        /* \"contracts/donationspool.sol\":2350:2589  function updateVoting() public returns(address[] memory){... */\n      swap1\n      jump\t// out\n        /* \"contracts/donationspool.sol\":4076:4176  function sendDonations() payable public donationsclosed onlyCharyteam {... */\n    tag_84:\n        /* \"contracts/donationspool.sol\":1314:1319  false */\n      0x00\n        /* \"contracts/donationspool.sol\":1297:1319  donationsopen == false */\n      iszero\n      iszero\n        /* \"contracts/donationspool.sol\":1297:1310  donationsopen */\n      0x07\n      0x00\n      swap1\n      sload\n      swap1\n      0x0100\n      exp\n      swap1\n      div\n      0xff\n      and\n        /* \"contracts/donationspool.sol\":1297:1319  donationsopen == false */\n      iszero\n      iszero\n      eq\n        /* \"contracts/donationspool.sol\":1289:1359  require(donationsopen == false, \"Spenden werden nicht mehr gesammelt\") */\n      tag_156\n      jumpi\n      mload(0x40)\n      0x08c379a000000000000000000000000000000000000000000000000000000000\n      dup2\n      mstore\n      0x04\n      add\n      tag_157\n      swap1\n      tag_112\n      jump\t// in\n    tag_157:\n      mload(0x40)\n      dup1\n      swap2\n      sub\n      swap1\n      revert\n    tag_156:\n        /* \"contracts/donationspool.sol\":1485:1494  charyteam */\n      0x00\n      dup1\n      sload\n      swap1\n      0x0100\n      exp\n      swap1\n      div\n      0xffffffffffffffffffffffffffffffffffffffff\n      and\n        /* \"contracts/donationspool.sol\":1471:1494  msg.sender == charyteam */\n      0xffffffffffffffffffffffffffffffffffffffff\n      and\n        /* \"contracts/donationspool.sol\":1471:1481  msg.sender */\n      caller\n        /* \"contracts/donationspool.sol\":1471:1494  msg.sender == charyteam */\n      0xffffffffffffffffffffffffffffffffffffffff\n      and\n      eq\n        /* \"contracts/donationspool.sol\":1463:1536  require(msg.sender == charyteam, \"only CharyTeam can call this function\") */\n      tag_159\n      jumpi\n      mload(0x40)\n      0x08c379a000000000000000000000000000000000000000000000000000000000\n      dup2\n      mstore\n      0x04\n      add\n      tag_160\n      swap1\n      tag_102\n      jump\t// in\n    tag_160:\n      mload(0x40)\n      dup1\n      swap2\n      sub\n      swap1\n      revert\n    tag_159:\n        /* \"contracts/donationspool.sol\":4076:4176  function sendDonations() payable public donationsclosed onlyCharyteam {... */\n      jump\t// out\n        /* \"contracts/donationspool.sol\":515:539  address public charyteam */\n    tag_87:\n      0x00\n      dup1\n      sload\n      swap1\n      0x0100\n      exp\n      swap1\n      div\n      0xffffffffffffffffffffffffffffffffffffffff\n      and\n      dup2\n      jump\t// out\n        /* \"contracts/donationspool.sol\":621:644  address[] public voters */\n    tag_92:\n      0x02\n      dup2\n      dup2\n      sload\n      dup2\n      lt\n      tag_162\n      jumpi\n      0x00\n      dup1\n      revert\n    tag_162:\n      swap1\n      0x00\n      mstore\n      keccak256(0x00, 0x20)\n      add\n      0x00\n      swap2\n      pop\n      sload\n      swap1\n      0x0100\n      exp\n      swap1\n      div\n      0xffffffffffffffffffffffffffffffffffffffff\n      and\n      dup2\n      jump\t// out\n        /* \"contracts/donationspool.sol\":2072:2340  function donate() payable public {... */\n    tag_95:\n        /* \"contracts/donationspool.sol\":2164:2173  0.1 ether */\n      0x016345785d8a0000\n        /* \"contracts/donationspool.sol\":2151:2160  msg.value */\n      callvalue\n        /* \"contracts/donationspool.sol\":2151:2173  msg.value >= 0.1 ether */\n      lt\n      iszero\n        /* \"contracts/donationspool.sol\":2143:2205  require(msg.value >= 0.1 ether, \"Invest minimum of 0.1 ether\") */\n      tag_165\n      jumpi\n      mload(0x40)\n      0x08c379a000000000000000000000000000000000000000000000000000000000\n      dup2\n      mstore\n      0x04\n      add\n      tag_166\n      swap1\n      tag_167\n      jump\t// in\n    tag_166:\n      mload(0x40)\n      dup1\n      swap2\n      sub\n      swap1\n      revert\n    tag_165:\n        /* \"contracts/donationspool.sol\":2258:2266  donators */\n      0x01\n        /* \"contracts/donationspool.sol\":2272:2282  msg.sender */\n      caller\n        /* \"contracts/donationspool.sol\":2258:2283  donators.push(msg.sender) */\n      swap1\n      dup1\n      0x01\n      dup2\n      sload\n      add\n      dup1\n      dup3\n      sstore\n      dup1\n      swap2\n      pop\n      pop\n      0x01\n      swap1\n      sub\n      swap1\n      0x00\n      mstore\n      keccak256(0x00, 0x20)\n      add\n      0x00\n      swap1\n      swap2\n      swap1\n      swap2\n      swap1\n      swap2\n      0x0100\n      exp\n      dup2\n      sload\n      dup2\n      0xffffffffffffffffffffffffffffffffffffffff\n      mul\n      not\n      and\n      swap1\n      dup4\n      0xffffffffffffffffffffffffffffffffffffffff\n      and\n      mul\n      or\n      swap1\n      sstore\n      pop\n        /* \"contracts/donationspool.sol\":2295:2303  sendCT() */\n      tag_169\n        /* \"contracts/donationspool.sol\":2295:2301  sendCT */\n      tag_52\n        /* \"contracts/donationspool.sol\":2295:2303  sendCT() */\n      jump\t// in\n    tag_169:\n        /* \"contracts/donationspool.sol\":2072:2340  function donate() payable public {... */\n      jump\t// out\n    tag_152:\n      dup3\n      dup1\n      sload\n      dup3\n      dup3\n      sstore\n      swap1\n      0x00\n      mstore\n      keccak256(0x00, 0x20)\n      swap1\n      dup2\n      add\n      swap3\n      dup3\n      iszero\n      tag_170\n      jumpi\n      swap2\n      0x20\n      mul\n      dup3\n      add\n    tag_171:\n      dup3\n      dup2\n      gt\n      iszero\n      tag_172\n      jumpi\n      dup3\n      mload\n      dup3\n      exp(0x0100, 0x00)\n      dup2\n      sload\n      dup2\n      0xffffffffffffffffffffffffffffffffffffffff\n      mul\n      not\n      and\n      swap1\n      dup4\n      0xffffffffffffffffffffffffffffffffffffffff\n      and\n      mul\n      or\n      swap1\n      sstore\n      pop\n      swap2\n      0x20\n      add\n      swap2\n      swap1\n      0x01\n      add\n      swap1\n      jump(tag_171)\n    tag_172:\n    tag_170:\n      pop\n      swap1\n      pop\n      tag_173\n      swap2\n      swap1\n      tag_174\n      jump\t// in\n    tag_173:\n      pop\n      swap1\n      jump\t// out\n    tag_174:\n    tag_175:\n      dup1\n      dup3\n      gt\n      iszero\n      tag_176\n      jumpi\n      0x00\n      dup2\n      0x00\n      swap1\n      sstore\n      pop\n      0x01\n      add\n      jump(tag_175)\n    tag_176:\n      pop\n      swap1\n      jump\t// out\n        /* \"#utility.yul\":7:82   */\n    tag_177:\n        /* \"#utility.yul\":40:46   */\n      0x00\n        /* \"#utility.yul\":73:75   */\n      0x40\n        /* \"#utility.yul\":67:76   */\n      mload\n        /* \"#utility.yul\":57:76   */\n      swap1\n      pop\n        /* \"#utility.yul\":7:82   */\n      swap1\n      jump\t// out\n        /* \"#utility.yul\":88:205   */\n    tag_178:\n        /* \"#utility.yul\":197:198   */\n      0x00\n        /* \"#utility.yul\":194:195   */\n      dup1\n        /* \"#utility.yul\":187:199   */\n      revert\n        /* \"#utility.yul\":211:328   */\n    tag_179:\n        /* \"#utility.yul\":320:321   */\n      0x00\n        /* \"#utility.yul\":317:318   */\n      dup1\n        /* \"#utility.yul\":310:322   */\n      revert\n        /* \"#utility.yul\":334:411   */\n    tag_180:\n        /* \"#utility.yul\":371:378   */\n      0x00\n        /* \"#utility.yul\":400:405   */\n      dup2\n        /* \"#utility.yul\":389:405   */\n      swap1\n      pop\n        /* \"#utility.yul\":334:411   */\n      swap2\n      swap1\n      pop\n      jump\t// out\n        /* \"#utility.yul\":417:539   */\n    tag_181:\n        /* \"#utility.yul\":490:514   */\n      tag_240\n        /* \"#utility.yul\":508:513   */\n      dup2\n        /* \"#utility.yul\":490:514   */\n      tag_180\n      jump\t// in\n    tag_240:\n        /* \"#utility.yul\":483:488   */\n      dup2\n        /* \"#utility.yul\":480:515   */\n      eq\n        /* \"#utility.yul\":470:533   */\n      tag_241\n      jumpi\n        /* \"#utility.yul\":529:530   */\n      0x00\n        /* \"#utility.yul\":526:527   */\n      dup1\n        /* \"#utility.yul\":519:531   */\n      revert\n        /* \"#utility.yul\":470:533   */\n    tag_241:\n        /* \"#utility.yul\":417:539   */\n      pop\n      jump\t// out\n        /* \"#utility.yul\":545:684   */\n    tag_182:\n        /* \"#utility.yul\":591:596   */\n      0x00\n        /* \"#utility.yul\":629:635   */\n      dup2\n        /* \"#utility.yul\":616:636   */\n      calldataload\n        /* \"#utility.yul\":607:636   */\n      swap1\n      pop\n        /* \"#utility.yul\":645:678   */\n      tag_243\n        /* \"#utility.yul\":672:677   */\n      dup2\n        /* \"#utility.yul\":645:678   */\n      tag_181\n      jump\t// in\n    tag_243:\n        /* \"#utility.yul\":545:684   */\n      swap3\n      swap2\n      pop\n      pop\n      jump\t// out\n        /* \"#utility.yul\":690:1019   */\n    tag_26:\n        /* \"#utility.yul\":749:755   */\n      0x00\n        /* \"#utility.yul\":798:800   */\n      0x20\n        /* \"#utility.yul\":786:795   */\n      dup3\n        /* \"#utility.yul\":777:784   */\n      dup5\n        /* \"#utility.yul\":773:796   */\n      sub\n        /* \"#utility.yul\":769:801   */\n      slt\n        /* \"#utility.yul\":766:885   */\n      iszero\n      tag_245\n      jumpi\n        /* \"#utility.yul\":804:883   */\n      tag_246\n      tag_178\n      jump\t// in\n    tag_246:\n        /* \"#utility.yul\":766:885   */\n    tag_245:\n        /* \"#utility.yul\":924:925   */\n      0x00\n        /* \"#utility.yul\":949:1002   */\n      tag_247\n        /* \"#utility.yul\":994:1001   */\n      dup5\n        /* \"#utility.yul\":985:991   */\n      dup3\n        /* \"#utility.yul\":974:983   */\n      dup6\n        /* \"#utility.yul\":970:992   */\n      add\n        /* \"#utility.yul\":949:1002   */\n      tag_182\n      jump\t// in\n    tag_247:\n        /* \"#utility.yul\":939:1002   */\n      swap2\n      pop\n        /* \"#utility.yul\":895:1012   */\n      pop\n        /* \"#utility.yul\":690:1019   */\n      swap3\n      swap2\n      pop\n      pop\n      jump\t// out\n        /* \"#utility.yul\":1025:1151   */\n    tag_183:\n        /* \"#utility.yul\":1062:1069   */\n      0x00\n        /* \"#utility.yul\":1102:1144   */\n      0xffffffffffffffffffffffffffffffffffffffff\n        /* \"#utility.yul\":1095:1100   */\n      dup3\n        /* \"#utility.yul\":1091:1145   */\n      and\n        /* \"#utility.yul\":1080:1145   */\n      swap1\n      pop\n        /* \"#utility.yul\":1025:1151   */\n      swap2\n      swap1\n      pop\n      jump\t// out\n        /* \"#utility.yul\":1157:1261   */\n    tag_184:\n        /* \"#utility.yul\":1202:1209   */\n      0x00\n        /* \"#utility.yul\":1231:1255   */\n      tag_250\n        /* \"#utility.yul\":1249:1254   */\n      dup3\n        /* \"#utility.yul\":1231:1255   */\n      tag_183\n      jump\t// in\n    tag_250:\n        /* \"#utility.yul\":1220:1255   */\n      swap1\n      pop\n        /* \"#utility.yul\":1157:1261   */\n      swap2\n      swap1\n      pop\n      jump\t// out\n        /* \"#utility.yul\":1267:1409   */\n    tag_185:\n        /* \"#utility.yul\":1370:1402   */\n      tag_252\n        /* \"#utility.yul\":1396:1401   */\n      dup2\n        /* \"#utility.yul\":1370:1402   */\n      tag_184\n      jump\t// in\n    tag_252:\n        /* \"#utility.yul\":1365:1368   */\n      dup3\n        /* \"#utility.yul\":1358:1403   */\n      mstore\n        /* \"#utility.yul\":1267:1409   */\n      pop\n      pop\n      jump\t// out\n        /* \"#utility.yul\":1415:1669   */\n    tag_29:\n        /* \"#utility.yul\":1524:1528   */\n      0x00\n        /* \"#utility.yul\":1562:1564   */\n      0x20\n        /* \"#utility.yul\":1551:1560   */\n      dup3\n        /* \"#utility.yul\":1547:1565   */\n      add\n        /* \"#utility.yul\":1539:1565   */\n      swap1\n      pop\n        /* \"#utility.yul\":1575:1662   */\n      tag_254\n        /* \"#utility.yul\":1659:1660   */\n      0x00\n        /* \"#utility.yul\":1648:1657   */\n      dup4\n        /* \"#utility.yul\":1644:1661   */\n      add\n        /* \"#utility.yul\":1635:1641   */\n      dup5\n        /* \"#utility.yul\":1575:1662   */\n      tag_185\n      jump\t// in\n    tag_254:\n        /* \"#utility.yul\":1415:1669   */\n      swap3\n      swap2\n      pop\n      pop\n      jump\t// out\n        /* \"#utility.yul\":1675:1793   */\n    tag_186:\n        /* \"#utility.yul\":1762:1786   */\n      tag_256\n        /* \"#utility.yul\":1780:1785   */\n      dup2\n        /* \"#utility.yul\":1762:1786   */\n      tag_180\n      jump\t// in\n    tag_256:\n        /* \"#utility.yul\":1757:1760   */\n      dup3\n        /* \"#utility.yul\":1750:1787   */\n      mstore\n        /* \"#utility.yul\":1675:1793   */\n      pop\n      pop\n      jump\t// out\n        /* \"#utility.yul\":1799:2021   */\n    tag_34:\n        /* \"#utility.yul\":1892:1896   */\n      0x00\n        /* \"#utility.yul\":1930:1932   */\n      0x20\n        /* \"#utility.yul\":1919:1928   */\n      dup3\n        /* \"#utility.yul\":1915:1933   */\n      add\n        /* \"#utility.yul\":1907:1933   */\n      swap1\n      pop\n        /* \"#utility.yul\":1943:2014   */\n      tag_258\n        /* \"#utility.yul\":2011:2012   */\n      0x00\n        /* \"#utility.yul\":2000:2009   */\n      dup4\n        /* \"#utility.yul\":1996:2013   */\n      add\n        /* \"#utility.yul\":1987:1993   */\n      dup5\n        /* \"#utility.yul\":1943:2014   */\n      tag_186\n      jump\t// in\n    tag_258:\n        /* \"#utility.yul\":1799:2021   */\n      swap3\n      swap2\n      pop\n      pop\n      jump\t// out\n        /* \"#utility.yul\":2027:2123   */\n    tag_187:\n        /* \"#utility.yul\":2064:2071   */\n      0x00\n        /* \"#utility.yul\":2093:2117   */\n      tag_260\n        /* \"#utility.yul\":2111:2116   */\n      dup3\n        /* \"#utility.yul\":2093:2117   */\n      tag_183\n      jump\t// in\n    tag_260:\n        /* \"#utility.yul\":2082:2117   */\n      swap1\n      pop\n        /* \"#utility.yul\":2027:2123   */\n      swap2\n      swap1\n      pop\n      jump\t// out\n        /* \"#utility.yul\":2129:2247   */\n    tag_188:\n        /* \"#utility.yul\":2216:2240   */\n      tag_262\n        /* \"#utility.yul\":2234:2239   */\n      dup2\n        /* \"#utility.yul\":2216:2240   */\n      tag_187\n      jump\t// in\n    tag_262:\n        /* \"#utility.yul\":2211:2214   */\n      dup3\n        /* \"#utility.yul\":2204:2241   */\n      mstore\n        /* \"#utility.yul\":2129:2247   */\n      pop\n      pop\n      jump\t// out\n        /* \"#utility.yul\":2253:2475   */\n    tag_39:\n        /* \"#utility.yul\":2346:2350   */\n      0x00\n        /* \"#utility.yul\":2384:2386   */\n      0x20\n        /* \"#utility.yul\":2373:2382   */\n      dup3\n        /* \"#utility.yul\":2369:2387   */\n      add\n        /* \"#utility.yul\":2361:2387   */\n      swap1\n      pop\n        /* \"#utility.yul\":2397:2468   */\n      tag_264\n        /* \"#utility.yul\":2465:2466   */\n      0x00\n        /* \"#utility.yul\":2454:2463   */\n      dup4\n        /* \"#utility.yul\":2450:2467   */\n      add\n        /* \"#utility.yul\":2441:2447   */\n      dup5\n        /* \"#utility.yul\":2397:2468   */\n      tag_188\n      jump\t// in\n    tag_264:\n        /* \"#utility.yul\":2253:2475   */\n      swap3\n      swap2\n      pop\n      pop\n      jump\t// out\n        /* \"#utility.yul\":2481:2603   */\n    tag_189:\n        /* \"#utility.yul\":2554:2578   */\n      tag_266\n        /* \"#utility.yul\":2572:2577   */\n      dup2\n        /* \"#utility.yul\":2554:2578   */\n      tag_187\n      jump\t// in\n    tag_266:\n        /* \"#utility.yul\":2547:2552   */\n      dup2\n        /* \"#utility.yul\":2544:2579   */\n      eq\n        /* \"#utility.yul\":2534:2597   */\n      tag_267\n      jumpi\n        /* \"#utility.yul\":2593:2594   */\n      0x00\n        /* \"#utility.yul\":2590:2591   */\n      dup1\n        /* \"#utility.yul\":2583:2595   */\n      revert\n        /* \"#utility.yul\":2534:2597   */\n    tag_267:\n        /* \"#utility.yul\":2481:2603   */\n      pop\n      jump\t// out\n        /* \"#utility.yul\":2609:2748   */\n    tag_190:\n        /* \"#utility.yul\":2655:2660   */\n      0x00\n        /* \"#utility.yul\":2693:2699   */\n      dup2\n        /* \"#utility.yul\":2680:2700   */\n      calldataload\n        /* \"#utility.yul\":2671:2700   */\n      swap1\n      pop\n        /* \"#utility.yul\":2709:2742   */\n      tag_269\n        /* \"#utility.yul\":2736:2741   */\n      dup2\n        /* \"#utility.yul\":2709:2742   */\n      tag_189\n      jump\t// in\n    tag_269:\n        /* \"#utility.yul\":2609:2748   */\n      swap3\n      swap2\n      pop\n      pop\n      jump\t// out\n        /* \"#utility.yul\":2754:3083   */\n    tag_56:\n        /* \"#utility.yul\":2813:2819   */\n      0x00\n        /* \"#utility.yul\":2862:2864   */\n      0x20\n        /* \"#utility.yul\":2850:2859   */\n      dup3\n        /* \"#utility.yul\":2841:2848   */\n      dup5\n        /* \"#utility.yul\":2837:2860   */\n      sub\n        /* \"#utility.yul\":2833:2865   */\n      slt\n        /* \"#utility.yul\":2830:2949   */\n      iszero\n      tag_271\n      jumpi\n        /* \"#utility.yul\":2868:2947   */\n      tag_272\n      tag_178\n      jump\t// in\n    tag_272:\n        /* \"#utility.yul\":2830:2949   */\n    tag_271:\n        /* \"#utility.yul\":2988:2989   */\n      0x00\n        /* \"#utility.yul\":3013:3066   */\n      tag_273\n        /* \"#utility.yul\":3058:3065   */\n      dup5\n        /* \"#utility.yul\":3049:3055   */\n      dup3\n        /* \"#utility.yul\":3038:3047   */\n      dup6\n        /* \"#utility.yul\":3034:3056   */\n      add\n        /* \"#utility.yul\":3013:3066   */\n      tag_190\n      jump\t// in\n    tag_273:\n        /* \"#utility.yul\":3003:3066   */\n      swap2\n      pop\n        /* \"#utility.yul\":2959:3076   */\n      pop\n        /* \"#utility.yul\":2754:3083   */\n      swap3\n      swap2\n      pop\n      pop\n      jump\t// out\n        /* \"#utility.yul\":3089:3203   */\n    tag_191:\n        /* \"#utility.yul\":3156:3162   */\n      0x00\n        /* \"#utility.yul\":3190:3195   */\n      dup2\n        /* \"#utility.yul\":3184:3196   */\n      mload\n        /* \"#utility.yul\":3174:3196   */\n      swap1\n      pop\n        /* \"#utility.yul\":3089:3203   */\n      swap2\n      swap1\n      pop\n      jump\t// out\n        /* \"#utility.yul\":3209:3393   */\n    tag_192:\n        /* \"#utility.yul\":3308:3319   */\n      0x00\n        /* \"#utility.yul\":3342:3348   */\n      dup3\n        /* \"#utility.yul\":3337:3340   */\n      dup3\n        /* \"#utility.yul\":3330:3349   */\n      mstore\n        /* \"#utility.yul\":3382:3386   */\n      0x20\n        /* \"#utility.yul\":3377:3380   */\n      dup3\n        /* \"#utility.yul\":3373:3387   */\n      add\n        /* \"#utility.yul\":3358:3387   */\n      swap1\n      pop\n        /* \"#utility.yul\":3209:3393   */\n      swap3\n      swap2\n      pop\n      pop\n      jump\t// out\n        /* \"#utility.yul\":3399:3531   */\n    tag_193:\n        /* \"#utility.yul\":3466:3470   */\n      0x00\n        /* \"#utility.yul\":3489:3492   */\n      dup2\n        /* \"#utility.yul\":3481:3492   */\n      swap1\n      pop\n        /* \"#utility.yul\":3519:3523   */\n      0x20\n        /* \"#utility.yul\":3514:3517   */\n      dup3\n        /* \"#utility.yul\":3510:3524   */\n      add\n        /* \"#utility.yul\":3502:3524   */\n      swap1\n      pop\n        /* \"#utility.yul\":3399:3531   */\n      swap2\n      swap1\n      pop\n      jump\t// out\n        /* \"#utility.yul\":3537:3645   */\n    tag_194:\n        /* \"#utility.yul\":3614:3638   */\n      tag_278\n        /* \"#utility.yul\":3632:3637   */\n      dup2\n        /* \"#utility.yul\":3614:3638   */\n      tag_187\n      jump\t// in\n    tag_278:\n        /* \"#utility.yul\":3609:3612   */\n      dup3\n        /* \"#utility.yul\":3602:3639   */\n      mstore\n        /* \"#utility.yul\":3537:3645   */\n      pop\n      pop\n      jump\t// out\n        /* \"#utility.yul\":3651:3830   */\n    tag_195:\n        /* \"#utility.yul\":3720:3730   */\n      0x00\n        /* \"#utility.yul\":3741:3787   */\n      tag_280\n        /* \"#utility.yul\":3783:3786   */\n      dup4\n        /* \"#utility.yul\":3775:3781   */\n      dup4\n        /* \"#utility.yul\":3741:3787   */\n      tag_194\n      jump\t// in\n    tag_280:\n        /* \"#utility.yul\":3819:3823   */\n      0x20\n        /* \"#utility.yul\":3814:3817   */\n      dup4\n        /* \"#utility.yul\":3810:3824   */\n      add\n        /* \"#utility.yul\":3796:3824   */\n      swap1\n      pop\n        /* \"#utility.yul\":3651:3830   */\n      swap3\n      swap2\n      pop\n      pop\n      jump\t// out\n        /* \"#utility.yul\":3836:3949   */\n    tag_196:\n        /* \"#utility.yul\":3906:3910   */\n      0x00\n        /* \"#utility.yul\":3938:3942   */\n      0x20\n        /* \"#utility.yul\":3933:3936   */\n      dup3\n        /* \"#utility.yul\":3929:3943   */\n      add\n        /* \"#utility.yul\":3921:3943   */\n      swap1\n      pop\n        /* \"#utility.yul\":3836:3949   */\n      swap2\n      swap1\n      pop\n      jump\t// out\n        /* \"#utility.yul\":3985:4717   */\n    tag_197:\n        /* \"#utility.yul\":4104:4107   */\n      0x00\n        /* \"#utility.yul\":4133:4187   */\n      tag_283\n        /* \"#utility.yul\":4181:4186   */\n      dup3\n        /* \"#utility.yul\":4133:4187   */\n      tag_191\n      jump\t// in\n    tag_283:\n        /* \"#utility.yul\":4203:4289   */\n      tag_284\n        /* \"#utility.yul\":4282:4288   */\n      dup2\n        /* \"#utility.yul\":4277:4280   */\n      dup6\n        /* \"#utility.yul\":4203:4289   */\n      tag_192\n      jump\t// in\n    tag_284:\n        /* \"#utility.yul\":4196:4289   */\n      swap4\n      pop\n        /* \"#utility.yul\":4313:4369   */\n      tag_285\n        /* \"#utility.yul\":4363:4368   */\n      dup4\n        /* \"#utility.yul\":4313:4369   */\n      tag_193\n      jump\t// in\n    tag_285:\n        /* \"#utility.yul\":4392:4399   */\n      dup1\n        /* \"#utility.yul\":4423:4424   */\n      0x00\n        /* \"#utility.yul\":4408:4692   */\n    tag_286:\n        /* \"#utility.yul\":4433:4439   */\n      dup4\n        /* \"#utility.yul\":4430:4431   */\n      dup2\n        /* \"#utility.yul\":4427:4440   */\n      lt\n        /* \"#utility.yul\":4408:4692   */\n      iszero\n      tag_288\n      jumpi\n        /* \"#utility.yul\":4509:4515   */\n      dup2\n        /* \"#utility.yul\":4503:4516   */\n      mload\n        /* \"#utility.yul\":4536:4599   */\n      tag_289\n        /* \"#utility.yul\":4595:4598   */\n      dup9\n        /* \"#utility.yul\":4580:4593   */\n      dup3\n        /* \"#utility.yul\":4536:4599   */\n      tag_195\n      jump\t// in\n    tag_289:\n        /* \"#utility.yul\":4529:4599   */\n      swap8\n      pop\n        /* \"#utility.yul\":4622:4682   */\n      tag_290\n        /* \"#utility.yul\":4675:4681   */\n      dup4\n        /* \"#utility.yul\":4622:4682   */\n      tag_196\n      jump\t// in\n    tag_290:\n        /* \"#utility.yul\":4612:4682   */\n      swap3\n      pop\n        /* \"#utility.yul\":4468:4692   */\n      pop\n        /* \"#utility.yul\":4455:4456   */\n      0x01\n        /* \"#utility.yul\":4452:4453   */\n      dup2\n        /* \"#utility.yul\":4448:4457   */\n      add\n        /* \"#utility.yul\":4443:4457   */\n      swap1\n      pop\n        /* \"#utility.yul\":4408:4692   */\n      jump(tag_286)\n    tag_288:\n        /* \"#utility.yul\":4412:4426   */\n      pop\n        /* \"#utility.yul\":4708:4711   */\n      dup6\n        /* \"#utility.yul\":4701:4711   */\n      swap4\n      pop\n        /* \"#utility.yul\":4109:4717   */\n      pop\n      pop\n      pop\n        /* \"#utility.yul\":3985:4717   */\n      swap3\n      swap2\n      pop\n      pop\n      jump\t// out\n        /* \"#utility.yul\":4723:5096   */\n    tag_82:\n        /* \"#utility.yul\":4866:4870   */\n      0x00\n        /* \"#utility.yul\":4904:4906   */\n      0x20\n        /* \"#utility.yul\":4893:4902   */\n      dup3\n        /* \"#utility.yul\":4889:4907   */\n      add\n        /* \"#utility.yul\":4881:4907   */\n      swap1\n      pop\n        /* \"#utility.yul\":4953:4962   */\n      dup2\n        /* \"#utility.yul\":4947:4951   */\n      dup2\n        /* \"#utility.yul\":4943:4963   */\n      sub\n        /* \"#utility.yul\":4939:4940   */\n      0x00\n        /* \"#utility.yul\":4928:4937   */\n      dup4\n        /* \"#utility.yul\":4924:4941   */\n      add\n        /* \"#utility.yul\":4917:4964   */\n      mstore\n        /* \"#utility.yul\":4981:5089   */\n      tag_292\n        /* \"#utility.yul\":5084:5088   */\n      dup2\n        /* \"#utility.yul\":5075:5081   */\n      dup5\n        /* \"#utility.yul\":4981:5089   */\n      tag_197\n      jump\t// in\n    tag_292:\n        /* \"#utility.yul\":4973:5089   */\n      swap1\n      pop\n        /* \"#utility.yul\":4723:5096   */\n      swap3\n      swap2\n      pop\n      pop\n      jump\t// out\n        /* \"#utility.yul\":5102:5271   */\n    tag_198:\n        /* \"#utility.yul\":5186:5197   */\n      0x00\n        /* \"#utility.yul\":5220:5226   */\n      dup3\n        /* \"#utility.yul\":5215:5218   */\n      dup3\n        /* \"#utility.yul\":5208:5227   */\n      mstore\n        /* \"#utility.yul\":5260:5264   */\n      0x20\n        /* \"#utility.yul\":5255:5258   */\n      dup3\n        /* \"#utility.yul\":5251:5265   */\n      add\n        /* \"#utility.yul\":5236:5265   */\n      swap1\n      pop\n        /* \"#utility.yul\":5102:5271   */\n      swap3\n      swap2\n      pop\n      pop\n      jump\t// out\n        /* \"#utility.yul\":5277:5501   */\n    tag_199:\n        /* \"#utility.yul\":5417:5451   */\n      0x6f6e6c792043686172795465616d2063616e2063616c6c20746869732066756e\n        /* \"#utility.yul\":5413:5414   */\n      0x00\n        /* \"#utility.yul\":5405:5411   */\n      dup3\n        /* \"#utility.yul\":5401:5415   */\n      add\n        /* \"#utility.yul\":5394:5452   */\n      mstore\n        /* \"#utility.yul\":5486:5493   */\n      0x6374696f6e000000000000000000000000000000000000000000000000000000\n        /* \"#utility.yul\":5481:5483   */\n      0x20\n        /* \"#utility.yul\":5473:5479   */\n      dup3\n        /* \"#utility.yul\":5469:5484   */\n      add\n        /* \"#utility.yul\":5462:5494   */\n      mstore\n        /* \"#utility.yul\":5277:5501   */\n      pop\n      jump\t// out\n        /* \"#utility.yul\":5507:5873   */\n    tag_200:\n        /* \"#utility.yul\":5649:5652   */\n      0x00\n        /* \"#utility.yul\":5670:5737   */\n      tag_296\n        /* \"#utility.yul\":5734:5736   */\n      0x25\n        /* \"#utility.yul\":5729:5732   */\n      dup4\n        /* \"#utility.yul\":5670:5737   */\n      tag_198\n      jump\t// in\n    tag_296:\n        /* \"#utility.yul\":5663:5737   */\n      swap2\n      pop\n        /* \"#utility.yul\":5746:5839   */\n      tag_297\n        /* \"#utility.yul\":5835:5838   */\n      dup3\n        /* \"#utility.yul\":5746:5839   */\n      tag_199\n      jump\t// in\n    tag_297:\n        /* \"#utility.yul\":5864:5866   */\n      0x40\n        /* \"#utility.yul\":5859:5862   */\n      dup3\n        /* \"#utility.yul\":5855:5867   */\n      add\n        /* \"#utility.yul\":5848:5867   */\n      swap1\n      pop\n        /* \"#utility.yul\":5507:5873   */\n      swap2\n      swap1\n      pop\n      jump\t// out\n        /* \"#utility.yul\":5879:6298   */\n    tag_102:\n        /* \"#utility.yul\":6045:6049   */\n      0x00\n        /* \"#utility.yul\":6083:6085   */\n      0x20\n        /* \"#utility.yul\":6072:6081   */\n      dup3\n        /* \"#utility.yul\":6068:6086   */\n      add\n        /* \"#utility.yul\":6060:6086   */\n      swap1\n      pop\n        /* \"#utility.yul\":6132:6141   */\n      dup2\n        /* \"#utility.yul\":6126:6130   */\n      dup2\n        /* \"#utility.yul\":6122:6142   */\n      sub\n        /* \"#utility.yul\":6118:6119   */\n      0x00\n        /* \"#utility.yul\":6107:6116   */\n      dup4\n        /* \"#utility.yul\":6103:6120   */\n      add\n        /* \"#utility.yul\":6096:6143   */\n      mstore\n        /* \"#utility.yul\":6160:6291   */\n      tag_299\n        /* \"#utility.yul\":6286:6290   */\n      dup2\n        /* \"#utility.yul\":6160:6291   */\n      tag_200\n      jump\t// in\n    tag_299:\n        /* \"#utility.yul\":6152:6291   */\n      swap1\n      pop\n        /* \"#utility.yul\":5879:6298   */\n      swap2\n      swap1\n      pop\n      jump\t// out\n        /* \"#utility.yul\":6304:6447   */\n    tag_201:\n        /* \"#utility.yul\":6361:6366   */\n      0x00\n        /* \"#utility.yul\":6392:6398   */\n      dup2\n        /* \"#utility.yul\":6386:6399   */\n      mload\n        /* \"#utility.yul\":6377:6399   */\n      swap1\n      pop\n        /* \"#utility.yul\":6408:6441   */\n      tag_301\n        /* \"#utility.yul\":6435:6440   */\n      dup2\n        /* \"#utility.yul\":6408:6441   */\n      tag_181\n      jump\t// in\n    tag_301:\n        /* \"#utility.yul\":6304:6447   */\n      swap3\n      swap2\n      pop\n      pop\n      jump\t// out\n        /* \"#utility.yul\":6453:6804   */\n    tag_108:\n        /* \"#utility.yul\":6523:6529   */\n      0x00\n        /* \"#utility.yul\":6572:6574   */\n      0x20\n        /* \"#utility.yul\":6560:6569   */\n      dup3\n        /* \"#utility.yul\":6551:6558   */\n      dup5\n        /* \"#utility.yul\":6547:6570   */\n      sub\n        /* \"#utility.yul\":6543:6575   */\n      slt\n        /* \"#utility.yul\":6540:6659   */\n      iszero\n      tag_303\n      jumpi\n        /* \"#utility.yul\":6578:6657   */\n      tag_304\n      tag_178\n      jump\t// in\n    tag_304:\n        /* \"#utility.yul\":6540:6659   */\n    tag_303:\n        /* \"#utility.yul\":6698:6699   */\n      0x00\n        /* \"#utility.yul\":6723:6787   */\n      tag_305\n        /* \"#utility.yul\":6779:6786   */\n      dup5\n        /* \"#utility.yul\":6770:6776   */\n      dup3\n        /* \"#utility.yul\":6759:6768   */\n      dup6\n        /* \"#utility.yul\":6755:6777   */\n      add\n        /* \"#utility.yul\":6723:6787   */\n      tag_201\n      jump\t// in\n    tag_305:\n        /* \"#utility.yul\":6713:6787   */\n      swap2\n      pop\n        /* \"#utility.yul\":6669:6797   */\n      pop\n        /* \"#utility.yul\":6453:6804   */\n      swap3\n      swap2\n      pop\n      pop\n      jump\t// out\n        /* \"#utility.yul\":6810:7032   */\n    tag_202:\n        /* \"#utility.yul\":6950:6984   */\n      0x5370656e64656e2077657264656e206e69636874206d65687220676573616d6d\n        /* \"#utility.yul\":6946:6947   */\n      0x00\n        /* \"#utility.yul\":6938:6944   */\n      dup3\n        /* \"#utility.yul\":6934:6948   */\n      add\n        /* \"#utility.yul\":6927:6985   */\n      mstore\n        /* \"#utility.yul\":7019:7024   */\n      0x656c740000000000000000000000000000000000000000000000000000000000\n        /* \"#utility.yul\":7014:7016   */\n      0x20\n        /* \"#utility.yul\":7006:7012   */\n      dup3\n        /* \"#utility.yul\":7002:7017   */\n      add\n        /* \"#utility.yul\":6995:7025   */\n      mstore\n        /* \"#utility.yul\":6810:7032   */\n      pop\n      jump\t// out\n        /* \"#utility.yul\":7038:7404   */\n    tag_203:\n        /* \"#utility.yul\":7180:7183   */\n      0x00\n        /* \"#utility.yul\":7201:7268   */\n      tag_308\n        /* \"#utility.yul\":7265:7267   */\n      0x23\n        /* \"#utility.yul\":7260:7263   */\n      dup4\n        /* \"#utility.yul\":7201:7268   */\n      tag_198\n      jump\t// in\n    tag_308:\n        /* \"#utility.yul\":7194:7268   */\n      swap2\n      pop\n        /* \"#utility.yul\":7277:7370   */\n      tag_309\n        /* \"#utility.yul\":7366:7369   */\n      dup3\n        /* \"#utility.yul\":7277:7370   */\n      tag_202\n      jump\t// in\n    tag_309:\n        /* \"#utility.yul\":7395:7397   */\n      0x40\n        /* \"#utility.yul\":7390:7393   */\n      dup3\n        /* \"#utility.yul\":7386:7398   */\n      add\n        /* \"#utility.yul\":7379:7398   */\n      swap1\n      pop\n        /* \"#utility.yul\":7038:7404   */\n      swap2\n      swap1\n      pop\n      jump\t// out\n        /* \"#utility.yul\":7410:7829   */\n    tag_112:\n        /* \"#utility.yul\":7576:7580   */\n      0x00\n        /* \"#utility.yul\":7614:7616   */\n      0x20\n        /* \"#utility.yul\":7603:7612   */\n      dup3\n        /* \"#utility.yul\":7599:7617   */\n      add\n        /* \"#utility.yul\":7591:7617   */\n      swap1\n      pop\n        /* \"#utility.yul\":7663:7672   */\n      dup2\n        /* \"#utility.yul\":7657:7661   */\n      dup2\n        /* \"#utility.yul\":7653:7673   */\n      sub\n        /* \"#utility.yul\":7649:7650   */\n      0x00\n        /* \"#utility.yul\":7638:7647   */\n      dup4\n        /* \"#utility.yul\":7634:7651   */\n      add\n        /* \"#utility.yul\":7627:7674   */\n      mstore\n        /* \"#utility.yul\":7691:7822   */\n      tag_311\n        /* \"#utility.yul\":7817:7821   */\n      dup2\n        /* \"#utility.yul\":7691:7822   */\n      tag_203\n      jump\t// in\n    tag_311:\n        /* \"#utility.yul\":7683:7822   */\n      swap1\n      pop\n        /* \"#utility.yul\":7410:7829   */\n      swap2\n      swap1\n      pop\n      jump\t// out\n        /* \"#utility.yul\":7835:7946   */\n    tag_204:\n        /* \"#utility.yul\":7899:7905   */\n      0x00\n        /* \"#utility.yul\":7933:7938   */\n      dup2\n        /* \"#utility.yul\":7927:7939   */\n      sload\n        /* \"#utility.yul\":7917:7939   */\n      swap1\n      pop\n        /* \"#utility.yul\":7835:7946   */\n      swap2\n      swap1\n      pop\n      jump\t// out\n        /* \"#utility.yul\":7952:8108   */\n    tag_205:\n        /* \"#utility.yul\":8016:8020   */\n      0x00\n        /* \"#utility.yul\":8039:8042   */\n      dup2\n        /* \"#utility.yul\":8031:8042   */\n      swap1\n      pop\n        /* \"#utility.yul\":8062:8065   */\n      dup2\n        /* \"#utility.yul\":8059:8060   */\n      0x00\n        /* \"#utility.yul\":8052:8066   */\n      mstore\n        /* \"#utility.yul\":8096:8100   */\n      0x20\n        /* \"#utility.yul\":8093:8094   */\n      0x00\n        /* \"#utility.yul\":8083:8101   */\n      keccak256\n        /* \"#utility.yul\":8075:8101   */\n      swap1\n      pop\n        /* \"#utility.yul\":7952:8108   */\n      swap2\n      swap1\n      pop\n      jump\t// out\n        /* \"#utility.yul\":8114:8216   */\n    tag_206:\n        /* \"#utility.yul\":8156:8164   */\n      0x00\n        /* \"#utility.yul\":8203:8208   */\n      dup2\n        /* \"#utility.yul\":8200:8201   */\n      0x00\n        /* \"#utility.yul\":8196:8209   */\n      shr\n        /* \"#utility.yul\":8175:8209   */\n      swap1\n      pop\n        /* \"#utility.yul\":8114:8216   */\n      swap2\n      swap1\n      pop\n      jump\t// out\n        /* \"#utility.yul\":8222:8361   */\n    tag_207:\n        /* \"#utility.yul\":8272:8279   */\n      0x00\n        /* \"#utility.yul\":8312:8354   */\n      0xffffffffffffffffffffffffffffffffffffffff\n        /* \"#utility.yul\":8305:8310   */\n      dup3\n        /* \"#utility.yul\":8301:8355   */\n      and\n        /* \"#utility.yul\":8290:8355   */\n      swap1\n      pop\n        /* \"#utility.yul\":8222:8361   */\n      swap2\n      swap1\n      pop\n      jump\t// out\n        /* \"#utility.yul\":8367:8533   */\n    tag_208:\n        /* \"#utility.yul\":8436:8441   */\n      0x00\n        /* \"#utility.yul\":8461:8527   */\n      tag_317\n        /* \"#utility.yul\":8492:8526   */\n      tag_318\n        /* \"#utility.yul\":8515:8525   */\n      dup4\n        /* \"#utility.yul\":8492:8526   */\n      tag_206\n      jump\t// in\n    tag_318:\n        /* \"#utility.yul\":8461:8527   */\n      tag_207\n      jump\t// in\n    tag_317:\n        /* \"#utility.yul\":8452:8527   */\n      swap1\n      pop\n        /* \"#utility.yul\":8367:8533   */\n      swap2\n      swap1\n      pop\n      jump\t// out\n        /* \"#utility.yul\":8539:8683   */\n    tag_209:\n        /* \"#utility.yul\":8594:8599   */\n      0x00\n        /* \"#utility.yul\":8619:8676   */\n      tag_320\n        /* \"#utility.yul\":8670:8674   */\n      dup3\n        /* \"#utility.yul\":8664:8675   */\n      sload\n        /* \"#utility.yul\":8619:8676   */\n      tag_208\n      jump\t// in\n    tag_320:\n        /* \"#utility.yul\":8610:8676   */\n      swap1\n      pop\n        /* \"#utility.yul\":8539:8683   */\n      swap2\n      swap1\n      pop\n      jump\t// out\n        /* \"#utility.yul\":8689:8799   */\n    tag_210:\n        /* \"#utility.yul\":8756:8760   */\n      0x00\n        /* \"#utility.yul\":8788:8792   */\n      0x01\n        /* \"#utility.yul\":8783:8786   */\n      dup3\n        /* \"#utility.yul\":8779:8793   */\n      add\n        /* \"#utility.yul\":8771:8793   */\n      swap1\n      pop\n        /* \"#utility.yul\":8689:8799   */\n      swap2\n      swap1\n      pop\n      jump\t// out\n        /* \"#utility.yul\":8835:9586   */\n    tag_211:\n        /* \"#utility.yul\":8951:8954   */\n      0x00\n        /* \"#utility.yul\":8980:9031   */\n      tag_323\n        /* \"#utility.yul\":9025:9030   */\n      dup3\n        /* \"#utility.yul\":8980:9031   */\n      tag_204\n      jump\t// in\n    tag_323:\n        /* \"#utility.yul\":9047:9133   */\n      tag_324\n        /* \"#utility.yul\":9126:9132   */\n      dup2\n        /* \"#utility.yul\":9121:9124   */\n      dup6\n        /* \"#utility.yul\":9047:9133   */\n      tag_192\n      jump\t// in\n    tag_324:\n        /* \"#utility.yul\":9040:9133   */\n      swap4\n      pop\n        /* \"#utility.yul\":9157:9210   */\n      tag_325\n        /* \"#utility.yul\":9204:9209   */\n      dup4\n        /* \"#utility.yul\":9157:9210   */\n      tag_205\n      jump\t// in\n    tag_325:\n        /* \"#utility.yul\":9233:9240   */\n      dup1\n        /* \"#utility.yul\":9264:9265   */\n      0x00\n        /* \"#utility.yul\":9249:9561   */\n    tag_326:\n        /* \"#utility.yul\":9274:9280   */\n      dup4\n        /* \"#utility.yul\":9271:9272   */\n      dup2\n        /* \"#utility.yul\":9268:9281   */\n      lt\n        /* \"#utility.yul\":9249:9561   */\n      iszero\n      tag_328\n      jumpi\n        /* \"#utility.yul\":9344:9388   */\n      tag_329\n        /* \"#utility.yul\":9381:9387   */\n      dup3\n        /* \"#utility.yul\":9344:9388   */\n      tag_209\n      jump\t// in\n    tag_329:\n        /* \"#utility.yul\":9408:9471   */\n      tag_330\n        /* \"#utility.yul\":9467:9470   */\n      dup9\n        /* \"#utility.yul\":9452:9465   */\n      dup3\n        /* \"#utility.yul\":9408:9471   */\n      tag_195\n      jump\t// in\n    tag_330:\n        /* \"#utility.yul\":9401:9471   */\n      swap8\n      pop\n        /* \"#utility.yul\":9494:9551   */\n      tag_331\n        /* \"#utility.yul\":9544:9550   */\n      dup4\n        /* \"#utility.yul\":9494:9551   */\n      tag_210\n      jump\t// in\n    tag_331:\n        /* \"#utility.yul\":9484:9551   */\n      swap3\n      pop\n        /* \"#utility.yul\":9309:9561   */\n      pop\n        /* \"#utility.yul\":9296:9297   */\n      0x01\n        /* \"#utility.yul\":9293:9294   */\n      dup2\n        /* \"#utility.yul\":9289:9298   */\n      add\n        /* \"#utility.yul\":9284:9298   */\n      swap1\n      pop\n        /* \"#utility.yul\":9249:9561   */\n      jump(tag_326)\n    tag_328:\n        /* \"#utility.yul\":9253:9267   */\n      pop\n        /* \"#utility.yul\":9577:9580   */\n      dup6\n        /* \"#utility.yul\":9570:9580   */\n      swap4\n      pop\n        /* \"#utility.yul\":8956:9586   */\n      pop\n      pop\n      pop\n        /* \"#utility.yul\":8835:9586   */\n      swap3\n      swap2\n      pop\n      pop\n      jump\t// out\n        /* \"#utility.yul\":9592:9959   */\n    tag_115:\n        /* \"#utility.yul\":9732:9736   */\n      0x00\n        /* \"#utility.yul\":9770:9772   */\n      0x20\n        /* \"#utility.yul\":9759:9768   */\n      dup3\n        /* \"#utility.yul\":9755:9773   */\n      add\n        /* \"#utility.yul\":9747:9773   */\n      swap1\n      pop\n        /* \"#utility.yul\":9819:9828   */\n      dup2\n        /* \"#utility.yul\":9813:9817   */\n      dup2\n        /* \"#utility.yul\":9809:9829   */\n      sub\n        /* \"#utility.yul\":9805:9806   */\n      0x00\n        /* \"#utility.yul\":9794:9803   */\n      dup4\n        /* \"#utility.yul\":9790:9807   */\n      add\n        /* \"#utility.yul\":9783:9830   */\n      mstore\n        /* \"#utility.yul\":9847:9952   */\n      tag_333\n        /* \"#utility.yul\":9947:9951   */\n      dup2\n        /* \"#utility.yul\":9938:9944   */\n      dup5\n        /* \"#utility.yul\":9847:9952   */\n      tag_211\n      jump\t// in\n    tag_333:\n        /* \"#utility.yul\":9839:9952   */\n      swap1\n      pop\n        /* \"#utility.yul\":9592:9959   */\n      swap3\n      swap2\n      pop\n      pop\n      jump\t// out\n        /* \"#utility.yul\":9965:10055   */\n    tag_212:\n        /* \"#utility.yul\":9999:10006   */\n      0x00\n        /* \"#utility.yul\":10042:10047   */\n      dup2\n        /* \"#utility.yul\":10035:10048   */\n      iszero\n        /* \"#utility.yul\":10028:10049   */\n      iszero\n        /* \"#utility.yul\":10017:10049   */\n      swap1\n      pop\n        /* \"#utility.yul\":9965:10055   */\n      swap2\n      swap1\n      pop\n      jump\t// out\n        /* \"#utility.yul\":10061:10177   */\n    tag_213:\n        /* \"#utility.yul\":10131:10152   */\n      tag_336\n        /* \"#utility.yul\":10146:10151   */\n      dup2\n        /* \"#utility.yul\":10131:10152   */\n      tag_212\n      jump\t// in\n    tag_336:\n        /* \"#utility.yul\":10124:10129   */\n      dup2\n        /* \"#utility.yul\":10121:10153   */\n      eq\n        /* \"#utility.yul\":10111:10171   */\n      tag_337\n      jumpi\n        /* \"#utility.yul\":10167:10168   */\n      0x00\n        /* \"#utility.yul\":10164:10165   */\n      dup1\n        /* \"#utility.yul\":10157:10169   */\n      revert\n        /* \"#utility.yul\":10111:10171   */\n    tag_337:\n        /* \"#utility.yul\":10061:10177   */\n      pop\n      jump\t// out\n        /* \"#utility.yul\":10183:10320   */\n    tag_214:\n        /* \"#utility.yul\":10237:10242   */\n      0x00\n        /* \"#utility.yul\":10268:10274   */\n      dup2\n        /* \"#utility.yul\":10262:10275   */\n      mload\n        /* \"#utility.yul\":10253:10275   */\n      swap1\n      pop\n        /* \"#utility.yul\":10284:10314   */\n      tag_339\n        /* \"#utility.yul\":10308:10313   */\n      dup2\n        /* \"#utility.yul\":10284:10314   */\n      tag_213\n      jump\t// in\n    tag_339:\n        /* \"#utility.yul\":10183:10320   */\n      swap3\n      swap2\n      pop\n      pop\n      jump\t// out\n        /* \"#utility.yul\":10326:10671   */\n    tag_119:\n        /* \"#utility.yul\":10393:10399   */\n      0x00\n        /* \"#utility.yul\":10442:10444   */\n      0x20\n        /* \"#utility.yul\":10430:10439   */\n      dup3\n        /* \"#utility.yul\":10421:10428   */\n      dup5\n        /* \"#utility.yul\":10417:10440   */\n      sub\n        /* \"#utility.yul\":10413:10445   */\n      slt\n        /* \"#utility.yul\":10410:10529   */\n      iszero\n      tag_341\n      jumpi\n        /* \"#utility.yul\":10448:10527   */\n      tag_342\n      tag_178\n      jump\t// in\n    tag_342:\n        /* \"#utility.yul\":10410:10529   */\n    tag_341:\n        /* \"#utility.yul\":10568:10569   */\n      0x00\n        /* \"#utility.yul\":10593:10654   */\n      tag_343\n        /* \"#utility.yul\":10646:10653   */\n      dup5\n        /* \"#utility.yul\":10637:10643   */\n      dup3\n        /* \"#utility.yul\":10626:10635   */\n      dup6\n        /* \"#utility.yul\":10622:10644   */\n      add\n        /* \"#utility.yul\":10593:10654   */\n      tag_214\n      jump\t// in\n    tag_343:\n        /* \"#utility.yul\":10583:10654   */\n      swap2\n      pop\n        /* \"#utility.yul\":10539:10664   */\n      pop\n        /* \"#utility.yul\":10326:10671   */\n      swap3\n      swap2\n      pop\n      pop\n      jump\t// out\n        /* \"#utility.yul\":10677:10850   */\n    tag_215:\n        /* \"#utility.yul\":10817:10842   */\n      0x73656e64657220616c7265616479206861732061204354000000000000000000\n        /* \"#utility.yul\":10813:10814   */\n      0x00\n        /* \"#utility.yul\":10805:10811   */\n      dup3\n        /* \"#utility.yul\":10801:10815   */\n      add\n        /* \"#utility.yul\":10794:10843   */\n      mstore\n        /* \"#utility.yul\":10677:10850   */\n      pop\n      jump\t// out\n        /* \"#utility.yul\":10856:11222   */\n    tag_216:\n        /* \"#utility.yul\":10998:11001   */\n      0x00\n        /* \"#utility.yul\":11019:11086   */\n      tag_346\n        /* \"#utility.yul\":11083:11085   */\n      0x17\n        /* \"#utility.yul\":11078:11081   */\n      dup4\n        /* \"#utility.yul\":11019:11086   */\n      tag_198\n      jump\t// in\n    tag_346:\n        /* \"#utility.yul\":11012:11086   */\n      swap2\n      pop\n        /* \"#utility.yul\":11095:11188   */\n      tag_347\n        /* \"#utility.yul\":11184:11187   */\n      dup3\n        /* \"#utility.yul\":11095:11188   */\n      tag_215\n      jump\t// in\n    tag_347:\n        /* \"#utility.yul\":11213:11215   */\n      0x20\n        /* \"#utility.yul\":11208:11211   */\n      dup3\n        /* \"#utility.yul\":11204:11216   */\n      add\n        /* \"#utility.yul\":11197:11216   */\n      swap1\n      pop\n        /* \"#utility.yul\":10856:11222   */\n      swap2\n      swap1\n      pop\n      jump\t// out\n        /* \"#utility.yul\":11228:11647   */\n    tag_127:\n        /* \"#utility.yul\":11394:11398   */\n      0x00\n        /* \"#utility.yul\":11432:11434   */\n      0x20\n        /* \"#utility.yul\":11421:11430   */\n      dup3\n        /* \"#utility.yul\":11417:11435   */\n      add\n        /* \"#utility.yul\":11409:11435   */\n      swap1\n      pop\n        /* \"#utility.yul\":11481:11490   */\n      dup2\n        /* \"#utility.yul\":11475:11479   */\n      dup2\n        /* \"#utility.yul\":11471:11491   */\n      sub\n        /* \"#utility.yul\":11467:11468   */\n      0x00\n        /* \"#utility.yul\":11456:11465   */\n      dup4\n        /* \"#utility.yul\":11452:11469   */\n      add\n        /* \"#utility.yul\":11445:11492   */\n      mstore\n        /* \"#utility.yul\":11509:11640   */\n      tag_349\n        /* \"#utility.yul\":11635:11639   */\n      dup2\n        /* \"#utility.yul\":11509:11640   */\n      tag_216\n      jump\t// in\n    tag_349:\n        /* \"#utility.yul\":11501:11640   */\n      swap1\n      pop\n        /* \"#utility.yul\":11228:11647   */\n      swap2\n      swap1\n      pop\n      jump\t// out\n        /* \"#utility.yul\":11653:11738   */\n    tag_217:\n        /* \"#utility.yul\":11698:11705   */\n      0x00\n        /* \"#utility.yul\":11727:11732   */\n      dup2\n        /* \"#utility.yul\":11716:11732   */\n      swap1\n      pop\n        /* \"#utility.yul\":11653:11738   */\n      swap2\n      swap1\n      pop\n      jump\t// out\n        /* \"#utility.yul\":11744:11804   */\n    tag_218:\n        /* \"#utility.yul\":11772:11775   */\n      0x00\n        /* \"#utility.yul\":11793:11798   */\n      dup2\n        /* \"#utility.yul\":11786:11798   */\n      swap1\n      pop\n        /* \"#utility.yul\":11744:11804   */\n      swap2\n      swap1\n      pop\n      jump\t// out\n        /* \"#utility.yul\":11810:11968   */\n    tag_219:\n        /* \"#utility.yul\":11868:11877   */\n      0x00\n        /* \"#utility.yul\":11901:11962   */\n      tag_353\n        /* \"#utility.yul\":11919:11961   */\n      tag_354\n        /* \"#utility.yul\":11928:11960   */\n      tag_355\n        /* \"#utility.yul\":11954:11959   */\n      dup5\n        /* \"#utility.yul\":11928:11960   */\n      tag_217\n      jump\t// in\n    tag_355:\n        /* \"#utility.yul\":11919:11961   */\n      tag_218\n      jump\t// in\n    tag_354:\n        /* \"#utility.yul\":11901:11962   */\n      tag_180\n      jump\t// in\n    tag_353:\n        /* \"#utility.yul\":11888:11962   */\n      swap1\n      pop\n        /* \"#utility.yul\":11810:11968   */\n      swap2\n      swap1\n      pop\n      jump\t// out\n        /* \"#utility.yul\":11974:12121   */\n    tag_220:\n        /* \"#utility.yul\":12069:12114   */\n      tag_357\n        /* \"#utility.yul\":12108:12113   */\n      dup2\n        /* \"#utility.yul\":12069:12114   */\n      tag_219\n      jump\t// in\n    tag_357:\n        /* \"#utility.yul\":12064:12067   */\n      dup3\n        /* \"#utility.yul\":12057:12115   */\n      mstore\n        /* \"#utility.yul\":11974:12121   */\n      pop\n      pop\n      jump\t// out\n        /* \"#utility.yul\":12127:12475   */\n    tag_129:\n        /* \"#utility.yul\":12256:12260   */\n      0x00\n        /* \"#utility.yul\":12294:12296   */\n      0x40\n        /* \"#utility.yul\":12283:12292   */\n      dup3\n        /* \"#utility.yul\":12279:12297   */\n      add\n        /* \"#utility.yul\":12271:12297   */\n      swap1\n      pop\n        /* \"#utility.yul\":12307:12378   */\n      tag_359\n        /* \"#utility.yul\":12375:12376   */\n      0x00\n        /* \"#utility.yul\":12364:12373   */\n      dup4\n        /* \"#utility.yul\":12360:12377   */\n      add\n        /* \"#utility.yul\":12351:12357   */\n      dup6\n        /* \"#utility.yul\":12307:12378   */\n      tag_188\n      jump\t// in\n    tag_359:\n        /* \"#utility.yul\":12388:12468   */\n      tag_360\n        /* \"#utility.yul\":12464:12466   */\n      0x20\n        /* \"#utility.yul\":12453:12462   */\n      dup4\n        /* \"#utility.yul\":12449:12467   */\n      add\n        /* \"#utility.yul\":12440:12446   */\n      dup5\n        /* \"#utility.yul\":12388:12468   */\n      tag_220\n      jump\t// in\n    tag_360:\n        /* \"#utility.yul\":12127:12475   */\n      swap4\n      swap3\n      pop\n      pop\n      pop\n      jump\t// out\n        /* \"#utility.yul\":12481:12661   */\n    tag_221:\n        /* \"#utility.yul\":12529:12606   */\n      0x4e487b7100000000000000000000000000000000000000000000000000000000\n        /* \"#utility.yul\":12526:12527   */\n      0x00\n        /* \"#utility.yul\":12519:12607   */\n      mstore\n        /* \"#utility.yul\":12626:12630   */\n      0x11\n        /* \"#utility.yul\":12623:12624   */\n      0x04\n        /* \"#utility.yul\":12616:12631   */\n      mstore\n        /* \"#utility.yul\":12650:12654   */\n      0x24\n        /* \"#utility.yul\":12647:12648   */\n      0x00\n        /* \"#utility.yul\":12640:12655   */\n      revert\n        /* \"#utility.yul\":12667:12972   */\n    tag_141:\n        /* \"#utility.yul\":12707:12710   */\n      0x00\n        /* \"#utility.yul\":12726:12746   */\n      tag_363\n        /* \"#utility.yul\":12744:12745   */\n      dup3\n        /* \"#utility.yul\":12726:12746   */\n      tag_180\n      jump\t// in\n    tag_363:\n        /* \"#utility.yul\":12721:12746   */\n      swap2\n      pop\n        /* \"#utility.yul\":12760:12780   */\n      tag_364\n        /* \"#utility.yul\":12778:12779   */\n      dup4\n        /* \"#utility.yul\":12760:12780   */\n      tag_180\n      jump\t// in\n    tag_364:\n        /* \"#utility.yul\":12755:12780   */\n      swap3\n      pop\n        /* \"#utility.yul\":12914:12915   */\n      dup3\n        /* \"#utility.yul\":12846:12912   */\n      0xffffffffffffffffffffffffffffffffffffffffffffffffffffffffffffffff\n        /* \"#utility.yul\":12842:12916   */\n      sub\n        /* \"#utility.yul\":12839:12840   */\n      dup3\n        /* \"#utility.yul\":12836:12917   */\n      gt\n        /* \"#utility.yul\":12833:12940   */\n      iszero\n      tag_365\n      jumpi\n        /* \"#utility.yul\":12920:12938   */\n      tag_366\n      tag_221\n      jump\t// in\n    tag_366:\n        /* \"#utility.yul\":12833:12940   */\n    tag_365:\n        /* \"#utility.yul\":12964:12965   */\n      dup3\n        /* \"#utility.yul\":12961:12962   */\n      dup3\n        /* \"#utility.yul\":12957:12966   */\n      add\n        /* \"#utility.yul\":12950:12966   */\n      swap1\n      pop\n        /* \"#utility.yul\":12667:12972   */\n      swap3\n      swap2\n      pop\n      pop\n      jump\t// out\n        /* \"#utility.yul\":12978:13095   */\n    tag_222:\n        /* \"#utility.yul\":13087:13088   */\n      0x00\n        /* \"#utility.yul\":13084:13085   */\n      dup1\n        /* \"#utility.yul\":13077:13089   */\n      revert\n        /* \"#utility.yul\":13101:13203   */\n    tag_223:\n        /* \"#utility.yul\":13142:13148   */\n      0x00\n        /* \"#utility.yul\":13193:13195   */\n      0x1f\n        /* \"#utility.yul\":13189:13196   */\n      not\n        /* \"#utility.yul\":13184:13186   */\n      0x1f\n        /* \"#utility.yul\":13177:13182   */\n      dup4\n        /* \"#utility.yul\":13173:13187   */\n      add\n        /* \"#utility.yul\":13169:13197   */\n      and\n        /* \"#utility.yul\":13159:13197   */\n      swap1\n      pop\n        /* \"#utility.yul\":13101:13203   */\n      swap2\n      swap1\n      pop\n      jump\t// out\n        /* \"#utility.yul\":13209:13389   */\n    tag_224:\n        /* \"#utility.yul\":13257:13334   */\n      0x4e487b7100000000000000000000000000000000000000000000000000000000\n        /* \"#utility.yul\":13254:13255   */\n      0x00\n        /* \"#utility.yul\":13247:13335   */\n      mstore\n        /* \"#utility.yul\":13354:13358   */\n      0x41\n        /* \"#utility.yul\":13351:13352   */\n      0x04\n        /* \"#utility.yul\":13344:13359   */\n      mstore\n        /* \"#utility.yul\":13378:13382   */\n      0x24\n        /* \"#utility.yul\":13375:13376   */\n      0x00\n        /* \"#utility.yul\":13368:13383   */\n      revert\n        /* \"#utility.yul\":13395:13676   */\n    tag_225:\n        /* \"#utility.yul\":13478:13505   */\n      tag_371\n        /* \"#utility.yul\":13500:13504   */\n      dup3\n        /* \"#utility.yul\":13478:13505   */\n      tag_223\n      jump\t// in\n    tag_371:\n        /* \"#utility.yul\":13470:13476   */\n      dup2\n        /* \"#utility.yul\":13466:13506   */\n      add\n        /* \"#utility.yul\":13608:13614   */\n      dup2\n        /* \"#utility.yul\":13596:13606   */\n      dup2\n        /* \"#utility.yul\":13593:13615   */\n      lt\n        /* \"#utility.yul\":13572:13590   */\n      0xffffffffffffffff\n        /* \"#utility.yul\":13560:13570   */\n      dup3\n        /* \"#utility.yul\":13557:13591   */\n      gt\n        /* \"#utility.yul\":13554:13616   */\n      or\n        /* \"#utility.yul\":13551:13639   */\n      iszero\n      tag_372\n      jumpi\n        /* \"#utility.yul\":13619:13637   */\n      tag_373\n      tag_224\n      jump\t// in\n    tag_373:\n        /* \"#utility.yul\":13551:13639   */\n    tag_372:\n        /* \"#utility.yul\":13659:13669   */\n      dup1\n        /* \"#utility.yul\":13655:13657   */\n      0x40\n        /* \"#utility.yul\":13648:13670   */\n      mstore\n        /* \"#utility.yul\":13438:13676   */\n      pop\n        /* \"#utility.yul\":13395:13676   */\n      pop\n      pop\n      jump\t// out\n        /* \"#utility.yul\":13682:13811   */\n    tag_226:\n        /* \"#utility.yul\":13716:13722   */\n      0x00\n        /* \"#utility.yul\":13743:13763   */\n      tag_375\n      tag_177\n      jump\t// in\n    tag_375:\n        /* \"#utility.yul\":13733:13763   */\n      swap1\n      pop\n        /* \"#utility.yul\":13772:13805   */\n      tag_376\n        /* \"#utility.yul\":13800:13804   */\n      dup3\n        /* \"#utility.yul\":13792:13798   */\n      dup3\n        /* \"#utility.yul\":13772:13805   */\n      tag_225\n      jump\t// in\n    tag_376:\n        /* \"#utility.yul\":13682:13811   */\n      swap2\n      swap1\n      pop\n      jump\t// out\n        /* \"#utility.yul\":13817:14128   */\n    tag_227:\n        /* \"#utility.yul\":13894:13898   */\n      0x00\n        /* \"#utility.yul\":13984:14002   */\n      0xffffffffffffffff\n        /* \"#utility.yul\":13976:13982   */\n      dup3\n        /* \"#utility.yul\":13973:14003   */\n      gt\n        /* \"#utility.yul\":13970:14026   */\n      iszero\n      tag_378\n      jumpi\n        /* \"#utility.yul\":14006:14024   */\n      tag_379\n      tag_224\n      jump\t// in\n    tag_379:\n        /* \"#utility.yul\":13970:14026   */\n    tag_378:\n        /* \"#utility.yul\":14056:14060   */\n      0x20\n        /* \"#utility.yul\":14048:14054   */\n      dup3\n        /* \"#utility.yul\":14044:14061   */\n      mul\n        /* \"#utility.yul\":14036:14061   */\n      swap1\n      pop\n        /* \"#utility.yul\":14116:14120   */\n      0x20\n        /* \"#utility.yul\":14110:14114   */\n      dup2\n        /* \"#utility.yul\":14106:14121   */\n      add\n        /* \"#utility.yul\":14098:14121   */\n      swap1\n      pop\n        /* \"#utility.yul\":13817:14128   */\n      swap2\n      swap1\n      pop\n      jump\t// out\n        /* \"#utility.yul\":14134:14251   */\n    tag_228:\n        /* \"#utility.yul\":14243:14244   */\n      0x00\n        /* \"#utility.yul\":14240:14241   */\n      dup1\n        /* \"#utility.yul\":14233:14245   */\n      revert\n        /* \"#utility.yul\":14257:14400   */\n    tag_229:\n        /* \"#utility.yul\":14314:14319   */\n      0x00\n        /* \"#utility.yul\":14345:14351   */\n      dup2\n        /* \"#utility.yul\":14339:14352   */\n      mload\n        /* \"#utility.yul\":14330:14352   */\n      swap1\n      pop\n        /* \"#utility.yul\":14361:14394   */\n      tag_382\n        /* \"#utility.yul\":14388:14393   */\n      dup2\n        /* \"#utility.yul\":14361:14394   */\n      tag_189\n      jump\t// in\n    tag_382:\n        /* \"#utility.yul\":14257:14400   */\n      swap3\n      swap2\n      pop\n      pop\n      jump\t// out\n        /* \"#utility.yul\":14423:15155   */\n    tag_230:\n        /* \"#utility.yul\":14530:14535   */\n      0x00\n        /* \"#utility.yul\":14555:14636   */\n      tag_384\n        /* \"#utility.yul\":14571:14635   */\n      tag_385\n        /* \"#utility.yul\":14628:14634   */\n      dup5\n        /* \"#utility.yul\":14571:14635   */\n      tag_227\n      jump\t// in\n    tag_385:\n        /* \"#utility.yul\":14555:14636   */\n      tag_226\n      jump\t// in\n    tag_384:\n        /* \"#utility.yul\":14546:14636   */\n      swap1\n      pop\n        /* \"#utility.yul\":14656:14661   */\n      dup1\n        /* \"#utility.yul\":14685:14691   */\n      dup4\n        /* \"#utility.yul\":14678:14683   */\n      dup3\n        /* \"#utility.yul\":14671:14692   */\n      mstore\n        /* \"#utility.yul\":14719:14723   */\n      0x20\n        /* \"#utility.yul\":14712:14717   */\n      dup3\n        /* \"#utility.yul\":14708:14724   */\n      add\n        /* \"#utility.yul\":14701:14724   */\n      swap1\n      pop\n        /* \"#utility.yul\":14772:14776   */\n      0x20\n        /* \"#utility.yul\":14764:14770   */\n      dup5\n        /* \"#utility.yul\":14760:14777   */\n      mul\n        /* \"#utility.yul\":14752:14758   */\n      dup4\n        /* \"#utility.yul\":14748:14778   */\n      add\n        /* \"#utility.yul\":14801:14804   */\n      dup6\n        /* \"#utility.yul\":14793:14799   */\n      dup2\n        /* \"#utility.yul\":14790:14805   */\n      gt\n        /* \"#utility.yul\":14787:14909   */\n      iszero\n      tag_386\n      jumpi\n        /* \"#utility.yul\":14820:14899   */\n      tag_387\n      tag_228\n      jump\t// in\n    tag_387:\n        /* \"#utility.yul\":14787:14909   */\n    tag_386:\n        /* \"#utility.yul\":14935:14941   */\n      dup4\n        /* \"#utility.yul\":14918:15149   */\n    tag_388:\n        /* \"#utility.yul\":14952:14958   */\n      dup2\n        /* \"#utility.yul\":14947:14950   */\n      dup2\n        /* \"#utility.yul\":14944:14959   */\n      lt\n        /* \"#utility.yul\":14918:15149   */\n      iszero\n      tag_390\n      jumpi\n        /* \"#utility.yul\":15027:15030   */\n      dup1\n        /* \"#utility.yul\":15056:15104   */\n      tag_391\n        /* \"#utility.yul\":15100:15103   */\n      dup9\n        /* \"#utility.yul\":15088:15098   */\n      dup3\n        /* \"#utility.yul\":15056:15104   */\n      tag_229\n      jump\t// in\n    tag_391:\n        /* \"#utility.yul\":15051:15054   */\n      dup5\n        /* \"#utility.yul\":15044:15105   */\n      mstore\n        /* \"#utility.yul\":15134:15138   */\n      0x20\n        /* \"#utility.yul\":15129:15132   */\n      dup5\n        /* \"#utility.yul\":15125:15139   */\n      add\n        /* \"#utility.yul\":15118:15139   */\n      swap4\n      pop\n        /* \"#utility.yul\":14994:15149   */\n      pop\n        /* \"#utility.yul\":14978:14982   */\n      0x20\n        /* \"#utility.yul\":14973:14976   */\n      dup2\n        /* \"#utility.yul\":14969:14983   */\n      add\n        /* \"#utility.yul\":14962:14983   */\n      swap1\n      pop\n        /* \"#utility.yul\":14918:15149   */\n      jump(tag_388)\n    tag_390:\n        /* \"#utility.yul\":14922:14943   */\n      pop\n        /* \"#utility.yul\":14536:15155   */\n      pop\n      pop\n        /* \"#utility.yul\":14423:15155   */\n      swap4\n      swap3\n      pop\n      pop\n      pop\n      jump\t// out\n        /* \"#utility.yul\":15178:15563   */\n    tag_231:\n        /* \"#utility.yul\":15260:15265   */\n      0x00\n        /* \"#utility.yul\":15309:15312   */\n      dup3\n        /* \"#utility.yul\":15302:15306   */\n      0x1f\n        /* \"#utility.yul\":15294:15300   */\n      dup4\n        /* \"#utility.yul\":15290:15307   */\n      add\n        /* \"#utility.yul\":15286:15313   */\n      slt\n        /* \"#utility.yul\":15276:15398   */\n      tag_393\n      jumpi\n        /* \"#utility.yul\":15317:15396   */\n      tag_394\n      tag_222\n      jump\t// in\n    tag_394:\n        /* \"#utility.yul\":15276:15398   */\n    tag_393:\n        /* \"#utility.yul\":15427:15433   */\n      dup2\n        /* \"#utility.yul\":15421:15434   */\n      mload\n        /* \"#utility.yul\":15452:15557   */\n      tag_395\n        /* \"#utility.yul\":15553:15556   */\n      dup5\n        /* \"#utility.yul\":15545:15551   */\n      dup3\n        /* \"#utility.yul\":15538:15542   */\n      0x20\n        /* \"#utility.yul\":15530:15536   */\n      dup7\n        /* \"#utility.yul\":15526:15543   */\n      add\n        /* \"#utility.yul\":15452:15557   */\n      tag_230\n      jump\t// in\n    tag_395:\n        /* \"#utility.yul\":15443:15557   */\n      swap2\n      pop\n        /* \"#utility.yul\":15266:15563   */\n      pop\n        /* \"#utility.yul\":15178:15563   */\n      swap3\n      swap2\n      pop\n      pop\n      jump\t// out\n        /* \"#utility.yul\":15569:16123   */\n    tag_150:\n        /* \"#utility.yul\":15664:15670   */\n      0x00\n        /* \"#utility.yul\":15713:15715   */\n      0x20\n        /* \"#utility.yul\":15701:15710   */\n      dup3\n        /* \"#utility.yul\":15692:15699   */\n      dup5\n        /* \"#utility.yul\":15688:15711   */\n      sub\n        /* \"#utility.yul\":15684:15716   */\n      slt\n        /* \"#utility.yul\":15681:15800   */\n      iszero\n      tag_397\n      jumpi\n        /* \"#utility.yul\":15719:15798   */\n      tag_398\n      tag_178\n      jump\t// in\n    tag_398:\n        /* \"#utility.yul\":15681:15800   */\n    tag_397:\n        /* \"#utility.yul\":15860:15861   */\n      0x00\n        /* \"#utility.yul\":15849:15858   */\n      dup3\n        /* \"#utility.yul\":15845:15862   */\n      add\n        /* \"#utility.yul\":15839:15863   */\n      mload\n        /* \"#utility.yul\":15890:15908   */\n      0xffffffffffffffff\n        /* \"#utility.yul\":15882:15888   */\n      dup2\n        /* \"#utility.yul\":15879:15909   */\n      gt\n        /* \"#utility.yul\":15876:15993   */\n      iszero\n      tag_399\n      jumpi\n        /* \"#utility.yul\":15912:15991   */\n      tag_400\n      tag_179\n      jump\t// in\n    tag_400:\n        /* \"#utility.yul\":15876:15993   */\n    tag_399:\n        /* \"#utility.yul\":16017:16106   */\n      tag_401\n        /* \"#utility.yul\":16098:16105   */\n      dup5\n        /* \"#utility.yul\":16089:16095   */\n      dup3\n        /* \"#utility.yul\":16078:16087   */\n      dup6\n        /* \"#utility.yul\":16074:16096   */\n      add\n        /* \"#utility.yul\":16017:16106   */\n      tag_231\n      jump\t// in\n    tag_401:\n        /* \"#utility.yul\":16007:16106   */\n      swap2\n      pop\n        /* \"#utility.yul\":15810:16116   */\n      pop\n        /* \"#utility.yul\":15569:16123   */\n      swap3\n      swap2\n      pop\n      pop\n      jump\t// out\n        /* \"#utility.yul\":16129:16306   */\n    tag_232:\n        /* \"#utility.yul\":16269:16298   */\n      0x496e76657374206d696e696d756d206f6620302e312065746865720000000000\n        /* \"#utility.yul\":16265:16266   */\n      0x00\n        /* \"#utility.yul\":16257:16263   */\n      dup3\n        /* \"#utility.yul\":16253:16267   */\n      add\n        /* \"#utility.yul\":16246:16299   */\n      mstore\n        /* \"#utility.yul\":16129:16306   */\n      pop\n      jump\t// out\n        /* \"#utility.yul\":16312:16678   */\n    tag_233:\n        /* \"#utility.yul\":16454:16457   */\n      0x00\n        /* \"#utility.yul\":16475:16542   */\n      tag_404\n        /* \"#utility.yul\":16539:16541   */\n      0x1b\n        /* \"#utility.yul\":16534:16537   */\n      dup4\n        /* \"#utility.yul\":16475:16542   */\n      tag_198\n      jump\t// in\n    tag_404:\n        /* \"#utility.yul\":16468:16542   */\n      swap2\n      pop\n        /* \"#utility.yul\":16551:16644   */\n      tag_405\n        /* \"#utility.yul\":16640:16643   */\n      dup3\n        /* \"#utility.yul\":16551:16644   */\n      tag_232\n      jump\t// in\n    tag_405:\n        /* \"#utility.yul\":16669:16671   */\n      0x20\n        /* \"#utility.yul\":16664:16667   */\n      dup3\n        /* \"#utility.yul\":16660:16672   */\n      add\n        /* \"#utility.yul\":16653:16672   */\n      swap1\n      pop\n        /* \"#utility.yul\":16312:16678   */\n      swap2\n      swap1\n      pop\n      jump\t// out\n        /* \"#utility.yul\":16684:17103   */\n    tag_167:\n        /* \"#utility.yul\":16850:16854   */\n      0x00\n        /* \"#utility.yul\":16888:16890   */\n      0x20\n        /* \"#utility.yul\":16877:16886   */\n      dup3\n        /* \"#utility.yul\":16873:16891   */\n      add\n        /* \"#utility.yul\":16865:16891   */\n      swap1\n      pop\n        /* \"#utility.yul\":16937:16946   */\n      dup2\n        /* \"#utility.yul\":16931:16935   */\n      dup2\n        /* \"#utility.yul\":16927:16947   */\n      sub\n        /* \"#utility.yul\":16923:16924   */\n      0x00\n        /* \"#utility.yul\":16912:16921   */\n      dup4\n        /* \"#utility.yul\":16908:16925   */\n      add\n        /* \"#utility.yul\":16901:16948   */\n      mstore\n        /* \"#utility.yul\":16965:17096   */\n      tag_407\n        /* \"#utility.yul\":17091:17095   */\n      dup2\n        /* \"#utility.yul\":16965:17096   */\n      tag_233\n      jump\t// in\n    tag_407:\n        /* \"#utility.yul\":16957:17096   */\n      swap1\n      pop\n        /* \"#utility.yul\":16684:17103   */\n      swap2\n      swap1\n      pop\n      jump\t// out\n\n    auxdata: 0xa2646970667358221220140a01ad5a5e5f93bd2bc62b6ce18d7c4f077d49d12a0bf861fe57d06a70b31564736f6c634300080d0033\n}\n",
				"bytecode": {
					"linkReferences": {},
					"object": "60806040526001600760006101000a81548160ff0219169083151502179055504260085534801561002f57600080fd5b50336000806101000a81548173ffffffffffffffffffffffffffffffffffffffff021916908373ffffffffffffffffffffffffffffffffffffffff1602179055506116a58061007f6000396000f3fe6080604052600436106101095760003560e01c80638d6a8b8011610095578063acc9c6b411610064578063acc9c6b41461031b578063cad65b7014610346578063d1286e6514610350578063da58c7d91461037b578063ed88c68e146103b857610109565b80638d6a8b801461027357806399e7f8c21461029e5780639e992987146102b5578063ac62f566146102de57610109565b8063583fa3a8116100dc578063583fa3a8146101cc57806378e97925146101ea5780637c4444ff1461021557806382caff481461021f57806386e899a21461024857610109565b8063107046bd1461010e57806312065fe01461014b5780632e708fa81461017657806354235142146101a1575b600080fd5b34801561011a57600080fd5b5061013560048036038101906101309190610ddb565b6103c2565b6040516101429190610e49565b60405180910390f35b34801561015757600080fd5b50610160610401565b60405161016d9190610e73565b60405180910390f35b34801561018257600080fd5b5061018b610409565b6040516101989190610eaf565b60405180910390f35b3480156101ad57600080fd5b506101b661042f565b6040516101c39190610e73565b60405180910390f35b6101d4610553565b6040516101e19190610eaf565b60405180910390f35b3480156101f657600080fd5b506101ff610653565b60405161020c9190610e73565b60405180910390f35b61021d610659565b005b34801561022b57600080fd5b5061024660048036038101906102419190610ef6565b6107c5565b005b34801561025457600080fd5b5061025d610809565b60405161026a9190610e73565b60405180910390f35b34801561027f57600080fd5b506102886108a8565b6040516102959190610eaf565b60405180910390f35b3480156102aa57600080fd5b506102b36108ce565b005b3480156102c157600080fd5b506102dc60048036038101906102d79190610ef6565b610924565b005b3480156102ea57600080fd5b5061030560048036038101906103009190610ddb565b610968565b6040516103129190610eaf565b60405180910390f35b34801561032757600080fd5b506103306109a7565b60405161033d9190610fe1565b60405180910390f35b61034e610ae9565b005b34801561035c57600080fd5b50610365610bcf565b6040516103729190610eaf565b60405180910390f35b34801561038757600080fd5b506103a2600480360381019061039d9190610ddb565b610bf3565b6040516103af9190610eaf565b60405180910390f35b6103c0610c32565b005b600381815481106103d257600080fd5b906000526020600020016000915054906101000a900473ffffffffffffffffffffffffffffffffffffffff1681565b600047905090565b600460009054906101000a900473ffffffffffffffffffffffffffffffffffffffff1681565b60008060009054906101000a900473ffffffffffffffffffffffffffffffffffffffff1673ffffffffffffffffffffffffffffffffffffffff163373ffffffffffffffffffffffffffffffffffffffff16146104c0576040517f08c379a00000000000000000000000000000000000000000000000000000000081526004016104b790611086565b60405180910390fd5b73d4fc541236927e2eaf8f27606bd7309c1fc2cbee73ffffffffffffffffffffffffffffffffffffffff166370a08231306040518263ffffffff1660e01b815260040161050d9190610eaf565b602060405180830381865afa15801561052a573d6000803e3d6000fd5b505050506040513d601f19601f8201168201806040525081019061054e91906110bb565b905090565b6000801515600760009054906101000a900460ff161515146105aa576040517f08c379a00000000000000000000000000000000000000000000000000000000081526004016105a19061115a565b60405180910390fd5b6000600560009054906101000a900473ffffffffffffffffffffffffffffffffffffffff1690508073ffffffffffffffffffffffffffffffffffffffff1663c129800d60016040518263ffffffff1660e01b815260040161060b9190611266565b6020604051808303816000875af115801561062a573d6000803e3d6000fd5b505050506040513d601f19601f8201168201806040525081019061064e91906112c0565b505090565b60085481565b600073d4fc541236927e2eaf8f27606bd7309c1fc2cbee73ffffffffffffffffffffffffffffffffffffffff166370a08231336040518263ffffffff1660e01b81526004016106a89190610eaf565b602060405180830381865afa1580156106c5573d6000803e3d6000fd5b505050506040513d601f19601f820116820180604052508101906106e991906110bb565b90506000811461072e576040517f08c379a000000000000000000000000000000000000000000000000000000000815260040161072590611339565b60405180910390fd5b73d4fc541236927e2eaf8f27606bd7309c1fc2cbee73ffffffffffffffffffffffffffffffffffffffff1663a9059cbb3360016040518363ffffffff1660e01b815260040161077e92919061139e565b6020604051808303816000875af115801561079d573d6000803e3d6000fd5b505050506040513d601f19601f820116820180604052508101906107c191906112c0565b5050565b80600460006101000a81548173ffffffffffffffffffffffffffffffffffffffff021916908373ffffffffffffffffffffffffffffffffffffffff16021790555050565b600080600460009054906101000a900473ffffffffffffffffffffffffffffffffffffffff1690508073ffffffffffffffffffffffffffffffffffffffff166394bec0716040518163ffffffff1660e01b81526004016020604051808303816000875af115801561087e573d6000803e3d6000fd5b505050506040513d601f19601f820116820180604052508101906108a291906110bb565b91505090565b600560009054906101000a900473ffffffffffffffffffffffffffffffffffffffff1681565b60011515600760009054906101000a900460ff161515148015610901575062278d006008546108fd91906113f6565b4210155b15610922576000600760006101000a81548160ff0219169083151502179055505b565b80600560006101000a81548173ffffffffffffffffffffffffffffffffffffffff021916908373ffffffffffffffffffffffffffffffffffffffff16021790555050565b6001818154811061097857600080fd5b906000526020600020016000915054906101000a900473ffffffffffffffffffffffffffffffffffffffff1681565b60606000600460009054906101000a900473ffffffffffffffffffffffffffffffffffffffff1690508073ffffffffffffffffffffffffffffffffffffffff1663cdd722536040518163ffffffff1660e01b81526004016000604051808303816000875af1158015610a1d573d6000803e3d6000fd5b505050506040513d6000823e3d601f19601f82011682018060405250810190610a4691906115ba565b60029080519060200190610a5b929190610cea565b506002805480602002602001604051908101604052809291908181526020018280548015610ade57602002820191906000526020600020905b8160009054906101000a900473ffffffffffffffffffffffffffffffffffffffff1673ffffffffffffffffffffffffffffffffffffffff1681526020019060010190808311610a94575b505050505091505090565b60001515600760009054906101000a900460ff16151514610b3f576040517f08c379a0000000000000000000000000000000000000000000000000000000008152600401610b369061115a565b60405180910390fd5b60008054906101000a900473ffffffffffffffffffffffffffffffffffffffff1673ffffffffffffffffffffffffffffffffffffffff163373ffffffffffffffffffffffffffffffffffffffff1614610bcd576040517f08c379a0000000000000000000000000000000000000000000000000000000008152600401610bc490611086565b60405180910390fd5b565b60008054906101000a900473ffffffffffffffffffffffffffffffffffffffff1681565b60028181548110610c0357600080fd5b906000526020600020016000915054906101000a900473ffffffffffffffffffffffffffffffffffffffff1681565b67016345785d8a0000341015610c7d576040517f08c379a0000000000000000000000000000000000000000000000000000000008152600401610c749061164f565b60405180910390fd5b6001339080600181540180825580915050600190039060005260206000200160009091909190916101000a81548173ffffffffffffffffffffffffffffffffffffffff021916908373ffffffffffffffffffffffffffffffffffffffff160217905550610ce8610659565b565b828054828255906000526020600020908101928215610d63579160200282015b82811115610d625782518260006101000a81548173ffffffffffffffffffffffffffffffffffffffff021916908373ffffffffffffffffffffffffffffffffffffffff16021790555091602001919060010190610d0a565b5b509050610d709190610d74565b5090565b5b80821115610d8d576000816000905550600101610d75565b5090565b6000604051905090565b600080fd5b600080fd5b6000819050919050565b610db881610da5565b8114610dc357600080fd5b50565b600081359050610dd581610daf565b92915050565b600060208284031215610df157610df0610d9b565b5b6000610dff84828501610dc6565b91505092915050565b600073ffffffffffffffffffffffffffffffffffffffff82169050919050565b6000610e3382610e08565b9050919050565b610e4381610e28565b82525050565b6000602082019050610e5e6000830184610e3a565b92915050565b610e6d81610da5565b82525050565b6000602082019050610e886000830184610e64565b92915050565b6000610e9982610e08565b9050919050565b610ea981610e8e565b82525050565b6000602082019050610ec46000830184610ea0565b92915050565b610ed381610e8e565b8114610ede57600080fd5b50565b600081359050610ef081610eca565b92915050565b600060208284031215610f0c57610f0b610d9b565b5b6000610f1a84828501610ee1565b91505092915050565b600081519050919050565b600082825260208201905092915050565b6000819050602082019050919050565b610f5881610e8e565b82525050565b6000610f6a8383610f4f565b60208301905092915050565b6000602082019050919050565b6000610f8e82610f23565b610f988185610f2e565b9350610fa383610f3f565b8060005b83811015610fd4578151610fbb8882610f5e565b9750610fc683610f76565b925050600181019050610fa7565b5085935050505092915050565b60006020820190508181036000830152610ffb8184610f83565b905092915050565b600082825260208201905092915050565b7f6f6e6c792043686172795465616d2063616e2063616c6c20746869732066756e60008201527f6374696f6e000000000000000000000000000000000000000000000000000000602082015250565b6000611070602583611003565b915061107b82611014565b604082019050919050565b6000602082019050818103600083015261109f81611063565b9050919050565b6000815190506110b581610daf565b92915050565b6000602082840312156110d1576110d0610d9b565b5b60006110df848285016110a6565b91505092915050565b7f5370656e64656e2077657264656e206e69636874206d65687220676573616d6d60008201527f656c740000000000000000000000000000000000000000000000000000000000602082015250565b6000611144602383611003565b915061114f826110e8565b604082019050919050565b6000602082019050818103600083015261117381611137565b9050919050565b600081549050919050565b60008190508160005260206000209050919050565b60008160001c9050919050565b600073ffffffffffffffffffffffffffffffffffffffff82169050919050565b60006111da6111d58361119a565b6111a7565b9050919050565b60006111ed82546111c7565b9050919050565b6000600182019050919050565b600061120c8261117a565b6112168185610f2e565b935061122183611185565b8060005b8381101561125957611236826111e1565b6112408882610f5e565b975061124b836111f4565b925050600181019050611225565b5085935050505092915050565b600060208201905081810360008301526112808184611201565b905092915050565b60008115159050919050565b61129d81611288565b81146112a857600080fd5b50565b6000815190506112ba81611294565b92915050565b6000602082840312156112d6576112d5610d9b565b5b60006112e4848285016112ab565b91505092915050565b7f73656e64657220616c7265616479206861732061204354000000000000000000600082015250565b6000611323601783611003565b915061132e826112ed565b602082019050919050565b6000602082019050818103600083015261135281611316565b9050919050565b6000819050919050565b6000819050919050565b600061138861138361137e84611359565b611363565b610da5565b9050919050565b6113988161136d565b82525050565b60006040820190506113b36000830185610ea0565b6113c0602083018461138f565b9392505050565b7f4e487b7100000000000000000000000000000000000000000000000000000000600052601160045260246000fd5b600061140182610da5565b915061140c83610da5565b9250827fffffffffffffffffffffffffffffffffffffffffffffffffffffffffffffffff03821115611441576114406113c7565b5b828201905092915050565b600080fd5b6000601f19601f8301169050919050565b7f4e487b7100000000000000000000000000000000000000000000000000000000600052604160045260246000fd5b61149a82611451565b810181811067ffffffffffffffff821117156114b9576114b8611462565b5b80604052505050565b60006114cc610d91565b90506114d88282611491565b919050565b600067ffffffffffffffff8211156114f8576114f7611462565b5b602082029050602081019050919050565b600080fd5b60008151905061151d81610eca565b92915050565b6000611536611531846114dd565b6114c2565b9050808382526020820190506020840283018581111561155957611558611509565b5b835b81811015611582578061156e888261150e565b84526020840193505060208101905061155b565b5050509392505050565b600082601f8301126115a1576115a061144c565b5b81516115b1848260208601611523565b91505092915050565b6000602082840312156115d0576115cf610d9b565b5b600082015167ffffffffffffffff8111156115ee576115ed610da0565b5b6115fa8482850161158c565b91505092915050565b7f496e76657374206d696e696d756d206f6620302e312065746865720000000000600082015250565b6000611639601b83611003565b915061164482611603565b602082019050919050565b600060208201905081810360008301526116688161162c565b905091905056fea2646970667358221220140a01ad5a5e5f93bd2bc62b6ce18d7c4f077d49d12a0bf861fe57d06a70b31564736f6c634300080d0033",
					"opcodes": "PUSH1 0x80 PUSH1 0x40 MSTORE PUSH1 0x1 PUSH1 0x7 PUSH1 0x0 PUSH2 0x100 EXP DUP2 SLOAD DUP2 PUSH1 0xFF MUL NOT AND SWAP1 DUP4 ISZERO ISZERO MUL OR SWAP1 SSTORE POP TIMESTAMP PUSH1 0x8 SSTORE CALLVALUE DUP1 ISZERO PUSH2 0x2F JUMPI PUSH1 0x0 DUP1 REVERT JUMPDEST POP CALLER PUSH1 0x0 DUP1 PUSH2 0x100 EXP DUP2 SLOAD DUP2 PUSH20 0xFFFFFFFFFFFFFFFFFFFFFFFFFFFFFFFFFFFFFFFF MUL NOT AND SWAP1 DUP4 PUSH20 0xFFFFFFFFFFFFFFFFFFFFFFFFFFFFFFFFFFFFFFFF AND MUL OR SWAP1 SSTORE POP PUSH2 0x16A5 DUP1 PUSH2 0x7F PUSH1 0x0 CODECOPY PUSH1 0x0 RETURN INVALID PUSH1 0x80 PUSH1 0x40 MSTORE PUSH1 0x4 CALLDATASIZE LT PUSH2 0x109 JUMPI PUSH1 0x0 CALLDATALOAD PUSH1 0xE0 SHR DUP1 PUSH4 0x8D6A8B80 GT PUSH2 0x95 JUMPI DUP1 PUSH4 0xACC9C6B4 GT PUSH2 0x64 JUMPI DUP1 PUSH4 0xACC9C6B4 EQ PUSH2 0x31B JUMPI DUP1 PUSH4 0xCAD65B70 EQ PUSH2 0x346 JUMPI DUP1 PUSH4 0xD1286E65 EQ PUSH2 0x350 JUMPI DUP1 PUSH4 0xDA58C7D9 EQ PUSH2 0x37B JUMPI DUP1 PUSH4 0xED88C68E EQ PUSH2 0x3B8 JUMPI PUSH2 0x109 JUMP JUMPDEST DUP1 PUSH4 0x8D6A8B80 EQ PUSH2 0x273 JUMPI DUP1 PUSH4 0x99E7F8C2 EQ PUSH2 0x29E JUMPI DUP1 PUSH4 0x9E992987 EQ PUSH2 0x2B5 JUMPI DUP1 PUSH4 0xAC62F566 EQ PUSH2 0x2DE JUMPI PUSH2 0x109 JUMP JUMPDEST DUP1 PUSH4 0x583FA3A8 GT PUSH2 0xDC JUMPI DUP1 PUSH4 0x583FA3A8 EQ PUSH2 0x1CC JUMPI DUP1 PUSH4 0x78E97925 EQ PUSH2 0x1EA JUMPI DUP1 PUSH4 0x7C4444FF EQ PUSH2 0x215 JUMPI DUP1 PUSH4 0x82CAFF48 EQ PUSH2 0x21F JUMPI DUP1 PUSH4 0x86E899A2 EQ PUSH2 0x248 JUMPI PUSH2 0x109 JUMP JUMPDEST DUP1 PUSH4 0x107046BD EQ PUSH2 0x10E JUMPI DUP1 PUSH4 0x12065FE0 EQ PUSH2 0x14B JUMPI DUP1 PUSH4 0x2E708FA8 EQ PUSH2 0x176 JUMPI DUP1 PUSH4 0x54235142 EQ PUSH2 0x1A1 JUMPI JUMPDEST PUSH1 0x0 DUP1 REVERT JUMPDEST CALLVALUE DUP1 ISZERO PUSH2 0x11A JUMPI PUSH1 0x0 DUP1 REVERT JUMPDEST POP PUSH2 0x135 PUSH1 0x4 DUP1 CALLDATASIZE SUB DUP2 ADD SWAP1 PUSH2 0x130 SWAP2 SWAP1 PUSH2 0xDDB JUMP JUMPDEST PUSH2 0x3C2 JUMP JUMPDEST PUSH1 0x40 MLOAD PUSH2 0x142 SWAP2 SWAP1 PUSH2 0xE49 JUMP JUMPDEST PUSH1 0x40 MLOAD DUP1 SWAP2 SUB SWAP1 RETURN JUMPDEST CALLVALUE DUP1 ISZERO PUSH2 0x157 JUMPI PUSH1 0x0 DUP1 REVERT JUMPDEST POP PUSH2 0x160 PUSH2 0x401 JUMP JUMPDEST PUSH1 0x40 MLOAD PUSH2 0x16D SWAP2 SWAP1 PUSH2 0xE73 JUMP JUMPDEST PUSH1 0x40 MLOAD DUP1 SWAP2 SUB SWAP1 RETURN JUMPDEST CALLVALUE DUP1 ISZERO PUSH2 0x182 JUMPI PUSH1 0x0 DUP1 REVERT JUMPDEST POP PUSH2 0x18B PUSH2 0x409 JUMP JUMPDEST PUSH1 0x40 MLOAD PUSH2 0x198 SWAP2 SWAP1 PUSH2 0xEAF JUMP JUMPDEST PUSH1 0x40 MLOAD DUP1 SWAP2 SUB SWAP1 RETURN JUMPDEST CALLVALUE DUP1 ISZERO PUSH2 0x1AD JUMPI PUSH1 0x0 DUP1 REVERT JUMPDEST POP PUSH2 0x1B6 PUSH2 0x42F JUMP JUMPDEST PUSH1 0x40 MLOAD PUSH2 0x1C3 SWAP2 SWAP1 PUSH2 0xE73 JUMP JUMPDEST PUSH1 0x40 MLOAD DUP1 SWAP2 SUB SWAP1 RETURN JUMPDEST PUSH2 0x1D4 PUSH2 0x553 JUMP JUMPDEST PUSH1 0x40 MLOAD PUSH2 0x1E1 SWAP2 SWAP1 PUSH2 0xEAF JUMP JUMPDEST PUSH1 0x40 MLOAD DUP1 SWAP2 SUB SWAP1 RETURN JUMPDEST CALLVALUE DUP1 ISZERO PUSH2 0x1F6 JUMPI PUSH1 0x0 DUP1 REVERT JUMPDEST POP PUSH2 0x1FF PUSH2 0x653 JUMP JUMPDEST PUSH1 0x40 MLOAD PUSH2 0x20C SWAP2 SWAP1 PUSH2 0xE73 JUMP JUMPDEST PUSH1 0x40 MLOAD DUP1 SWAP2 SUB SWAP1 RETURN JUMPDEST PUSH2 0x21D PUSH2 0x659 JUMP JUMPDEST STOP JUMPDEST CALLVALUE DUP1 ISZERO PUSH2 0x22B JUMPI PUSH1 0x0 DUP1 REVERT JUMPDEST POP PUSH2 0x246 PUSH1 0x4 DUP1 CALLDATASIZE SUB DUP2 ADD SWAP1 PUSH2 0x241 SWAP2 SWAP1 PUSH2 0xEF6 JUMP JUMPDEST PUSH2 0x7C5 JUMP JUMPDEST STOP JUMPDEST CALLVALUE DUP1 ISZERO PUSH2 0x254 JUMPI PUSH1 0x0 DUP1 REVERT JUMPDEST POP PUSH2 0x25D PUSH2 0x809 JUMP JUMPDEST PUSH1 0x40 MLOAD PUSH2 0x26A SWAP2 SWAP1 PUSH2 0xE73 JUMP JUMPDEST PUSH1 0x40 MLOAD DUP1 SWAP2 SUB SWAP1 RETURN JUMPDEST CALLVALUE DUP1 ISZERO PUSH2 0x27F JUMPI PUSH1 0x0 DUP1 REVERT JUMPDEST POP PUSH2 0x288 PUSH2 0x8A8 JUMP JUMPDEST PUSH1 0x40 MLOAD PUSH2 0x295 SWAP2 SWAP1 PUSH2 0xEAF JUMP JUMPDEST PUSH1 0x40 MLOAD DUP1 SWAP2 SUB SWAP1 RETURN JUMPDEST CALLVALUE DUP1 ISZERO PUSH2 0x2AA JUMPI PUSH1 0x0 DUP1 REVERT JUMPDEST POP PUSH2 0x2B3 PUSH2 0x8CE JUMP JUMPDEST STOP JUMPDEST CALLVALUE DUP1 ISZERO PUSH2 0x2C1 JUMPI PUSH1 0x0 DUP1 REVERT JUMPDEST POP PUSH2 0x2DC PUSH1 0x4 DUP1 CALLDATASIZE SUB DUP2 ADD SWAP1 PUSH2 0x2D7 SWAP2 SWAP1 PUSH2 0xEF6 JUMP JUMPDEST PUSH2 0x924 JUMP JUMPDEST STOP JUMPDEST CALLVALUE DUP1 ISZERO PUSH2 0x2EA JUMPI PUSH1 0x0 DUP1 REVERT JUMPDEST POP PUSH2 0x305 PUSH1 0x4 DUP1 CALLDATASIZE SUB DUP2 ADD SWAP1 PUSH2 0x300 SWAP2 SWAP1 PUSH2 0xDDB JUMP JUMPDEST PUSH2 0x968 JUMP JUMPDEST PUSH1 0x40 MLOAD PUSH2 0x312 SWAP2 SWAP1 PUSH2 0xEAF JUMP JUMPDEST PUSH1 0x40 MLOAD DUP1 SWAP2 SUB SWAP1 RETURN JUMPDEST CALLVALUE DUP1 ISZERO PUSH2 0x327 JUMPI PUSH1 0x0 DUP1 REVERT JUMPDEST POP PUSH2 0x330 PUSH2 0x9A7 JUMP JUMPDEST PUSH1 0x40 MLOAD PUSH2 0x33D SWAP2 SWAP1 PUSH2 0xFE1 JUMP JUMPDEST PUSH1 0x40 MLOAD DUP1 SWAP2 SUB SWAP1 RETURN JUMPDEST PUSH2 0x34E PUSH2 0xAE9 JUMP JUMPDEST STOP JUMPDEST CALLVALUE DUP1 ISZERO PUSH2 0x35C JUMPI PUSH1 0x0 DUP1 REVERT JUMPDEST POP PUSH2 0x365 PUSH2 0xBCF JUMP JUMPDEST PUSH1 0x40 MLOAD PUSH2 0x372 SWAP2 SWAP1 PUSH2 0xEAF JUMP JUMPDEST PUSH1 0x40 MLOAD DUP1 SWAP2 SUB SWAP1 RETURN JUMPDEST CALLVALUE DUP1 ISZERO PUSH2 0x387 JUMPI PUSH1 0x0 DUP1 REVERT JUMPDEST POP PUSH2 0x3A2 PUSH1 0x4 DUP1 CALLDATASIZE SUB DUP2 ADD SWAP1 PUSH2 0x39D SWAP2 SWAP1 PUSH2 0xDDB JUMP JUMPDEST PUSH2 0xBF3 JUMP JUMPDEST PUSH1 0x40 MLOAD PUSH2 0x3AF SWAP2 SWAP1 PUSH2 0xEAF JUMP JUMPDEST PUSH1 0x40 MLOAD DUP1 SWAP2 SUB SWAP1 RETURN JUMPDEST PUSH2 0x3C0 PUSH2 0xC32 JUMP JUMPDEST STOP JUMPDEST PUSH1 0x3 DUP2 DUP2 SLOAD DUP2 LT PUSH2 0x3D2 JUMPI PUSH1 0x0 DUP1 REVERT JUMPDEST SWAP1 PUSH1 0x0 MSTORE PUSH1 0x20 PUSH1 0x0 KECCAK256 ADD PUSH1 0x0 SWAP2 POP SLOAD SWAP1 PUSH2 0x100 EXP SWAP1 DIV PUSH20 0xFFFFFFFFFFFFFFFFFFFFFFFFFFFFFFFFFFFFFFFF AND DUP2 JUMP JUMPDEST PUSH1 0x0 SELFBALANCE SWAP1 POP SWAP1 JUMP JUMPDEST PUSH1 0x4 PUSH1 0x0 SWAP1 SLOAD SWAP1 PUSH2 0x100 EXP SWAP1 DIV PUSH20 0xFFFFFFFFFFFFFFFFFFFFFFFFFFFFFFFFFFFFFFFF AND DUP2 JUMP JUMPDEST PUSH1 0x0 DUP1 PUSH1 0x0 SWAP1 SLOAD SWAP1 PUSH2 0x100 EXP SWAP1 DIV PUSH20 0xFFFFFFFFFFFFFFFFFFFFFFFFFFFFFFFFFFFFFFFF AND PUSH20 0xFFFFFFFFFFFFFFFFFFFFFFFFFFFFFFFFFFFFFFFF AND CALLER PUSH20 0xFFFFFFFFFFFFFFFFFFFFFFFFFFFFFFFFFFFFFFFF AND EQ PUSH2 0x4C0 JUMPI PUSH1 0x40 MLOAD PUSH32 0x8C379A000000000000000000000000000000000000000000000000000000000 DUP2 MSTORE PUSH1 0x4 ADD PUSH2 0x4B7 SWAP1 PUSH2 0x1086 JUMP JUMPDEST PUSH1 0x40 MLOAD DUP1 SWAP2 SUB SWAP1 REVERT JUMPDEST PUSH20 0xD4FC541236927E2EAF8F27606BD7309C1FC2CBEE PUSH20 0xFFFFFFFFFFFFFFFFFFFFFFFFFFFFFFFFFFFFFFFF AND PUSH4 0x70A08231 ADDRESS PUSH1 0x40 MLOAD DUP3 PUSH4 0xFFFFFFFF AND PUSH1 0xE0 SHL DUP2 MSTORE PUSH1 0x4 ADD PUSH2 0x50D SWAP2 SWAP1 PUSH2 0xEAF JUMP JUMPDEST PUSH1 0x20 PUSH1 0x40 MLOAD DUP1 DUP4 SUB DUP2 DUP7 GAS STATICCALL ISZERO DUP1 ISZERO PUSH2 0x52A JUMPI RETURNDATASIZE PUSH1 0x0 DUP1 RETURNDATACOPY RETURNDATASIZE PUSH1 0x0 REVERT JUMPDEST POP POP POP POP PUSH1 0x40 MLOAD RETURNDATASIZE PUSH1 0x1F NOT PUSH1 0x1F DUP3 ADD AND DUP3 ADD DUP1 PUSH1 0x40 MSTORE POP DUP2 ADD SWAP1 PUSH2 0x54E SWAP2 SWAP1 PUSH2 0x10BB JUMP JUMPDEST SWAP1 POP SWAP1 JUMP JUMPDEST PUSH1 0x0 DUP1 ISZERO ISZERO PUSH1 0x7 PUSH1 0x0 SWAP1 SLOAD SWAP1 PUSH2 0x100 EXP SWAP1 DIV PUSH1 0xFF AND ISZERO ISZERO EQ PUSH2 0x5AA JUMPI PUSH1 0x40 MLOAD PUSH32 0x8C379A000000000000000000000000000000000000000000000000000000000 DUP2 MSTORE PUSH1 0x4 ADD PUSH2 0x5A1 SWAP1 PUSH2 0x115A JUMP JUMPDEST PUSH1 0x40 MLOAD DUP1 SWAP2 SUB SWAP1 REVERT JUMPDEST PUSH1 0x0 PUSH1 0x5 PUSH1 0x0 SWAP1 SLOAD SWAP1 PUSH2 0x100 EXP SWAP1 DIV PUSH20 0xFFFFFFFFFFFFFFFFFFFFFFFFFFFFFFFFFFFFFFFF AND SWAP1 POP DUP1 PUSH20 0xFFFFFFFFFFFFFFFFFFFFFFFFFFFFFFFFFFFFFFFF AND PUSH4 0xC129800D PUSH1 0x1 PUSH1 0x40 MLOAD DUP3 PUSH4 0xFFFFFFFF AND PUSH1 0xE0 SHL DUP2 MSTORE PUSH1 0x4 ADD PUSH2 0x60B SWAP2 SWAP1 PUSH2 0x1266 JUMP JUMPDEST PUSH1 0x20 PUSH1 0x40 MLOAD DUP1 DUP4 SUB DUP2 PUSH1 0x0 DUP8 GAS CALL ISZERO DUP1 ISZERO PUSH2 0x62A JUMPI RETURNDATASIZE PUSH1 0x0 DUP1 RETURNDATACOPY RETURNDATASIZE PUSH1 0x0 REVERT JUMPDEST POP POP POP POP PUSH1 0x40 MLOAD RETURNDATASIZE PUSH1 0x1F NOT PUSH1 0x1F DUP3 ADD AND DUP3 ADD DUP1 PUSH1 0x40 MSTORE POP DUP2 ADD SWAP1 PUSH2 0x64E SWAP2 SWAP1 PUSH2 0x12C0 JUMP JUMPDEST POP POP SWAP1 JUMP JUMPDEST PUSH1 0x8 SLOAD DUP2 JUMP JUMPDEST PUSH1 0x0 PUSH20 0xD4FC541236927E2EAF8F27606BD7309C1FC2CBEE PUSH20 0xFFFFFFFFFFFFFFFFFFFFFFFFFFFFFFFFFFFFFFFF AND PUSH4 0x70A08231 CALLER PUSH1 0x40 MLOAD DUP3 PUSH4 0xFFFFFFFF AND PUSH1 0xE0 SHL DUP2 MSTORE PUSH1 0x4 ADD PUSH2 0x6A8 SWAP2 SWAP1 PUSH2 0xEAF JUMP JUMPDEST PUSH1 0x20 PUSH1 0x40 MLOAD DUP1 DUP4 SUB DUP2 DUP7 GAS STATICCALL ISZERO DUP1 ISZERO PUSH2 0x6C5 JUMPI RETURNDATASIZE PUSH1 0x0 DUP1 RETURNDATACOPY RETURNDATASIZE PUSH1 0x0 REVERT JUMPDEST POP POP POP POP PUSH1 0x40 MLOAD RETURNDATASIZE PUSH1 0x1F NOT PUSH1 0x1F DUP3 ADD AND DUP3 ADD DUP1 PUSH1 0x40 MSTORE POP DUP2 ADD SWAP1 PUSH2 0x6E9 SWAP2 SWAP1 PUSH2 0x10BB JUMP JUMPDEST SWAP1 POP PUSH1 0x0 DUP2 EQ PUSH2 0x72E JUMPI PUSH1 0x40 MLOAD PUSH32 0x8C379A000000000000000000000000000000000000000000000000000000000 DUP2 MSTORE PUSH1 0x4 ADD PUSH2 0x725 SWAP1 PUSH2 0x1339 JUMP JUMPDEST PUSH1 0x40 MLOAD DUP1 SWAP2 SUB SWAP1 REVERT JUMPDEST PUSH20 0xD4FC541236927E2EAF8F27606BD7309C1FC2CBEE PUSH20 0xFFFFFFFFFFFFFFFFFFFFFFFFFFFFFFFFFFFFFFFF AND PUSH4 0xA9059CBB CALLER PUSH1 0x1 PUSH1 0x40 MLOAD DUP4 PUSH4 0xFFFFFFFF AND PUSH1 0xE0 SHL DUP2 MSTORE PUSH1 0x4 ADD PUSH2 0x77E SWAP3 SWAP2 SWAP1 PUSH2 0x139E JUMP JUMPDEST PUSH1 0x20 PUSH1 0x40 MLOAD DUP1 DUP4 SUB DUP2 PUSH1 0x0 DUP8 GAS CALL ISZERO DUP1 ISZERO PUSH2 0x79D JUMPI RETURNDATASIZE PUSH1 0x0 DUP1 RETURNDATACOPY RETURNDATASIZE PUSH1 0x0 REVERT JUMPDEST POP POP POP POP PUSH1 0x40 MLOAD RETURNDATASIZE PUSH1 0x1F NOT PUSH1 0x1F DUP3 ADD AND DUP3 ADD DUP1 PUSH1 0x40 MSTORE POP DUP2 ADD SWAP1 PUSH2 0x7C1 SWAP2 SWAP1 PUSH2 0x12C0 JUMP JUMPDEST POP POP JUMP JUMPDEST DUP1 PUSH1 0x4 PUSH1 0x0 PUSH2 0x100 EXP DUP2 SLOAD DUP2 PUSH20 0xFFFFFFFFFFFFFFFFFFFFFFFFFFFFFFFFFFFFFFFF MUL NOT AND SWAP1 DUP4 PUSH20 0xFFFFFFFFFFFFFFFFFFFFFFFFFFFFFFFFFFFFFFFF AND MUL OR SWAP1 SSTORE POP POP JUMP JUMPDEST PUSH1 0x0 DUP1 PUSH1 0x4 PUSH1 0x0 SWAP1 SLOAD SWAP1 PUSH2 0x100 EXP SWAP1 DIV PUSH20 0xFFFFFFFFFFFFFFFFFFFFFFFFFFFFFFFFFFFFFFFF AND SWAP1 POP DUP1 PUSH20 0xFFFFFFFFFFFFFFFFFFFFFFFFFFFFFFFFFFFFFFFF AND PUSH4 0x94BEC071 PUSH1 0x40 MLOAD DUP2 PUSH4 0xFFFFFFFF AND PUSH1 0xE0 SHL DUP2 MSTORE PUSH1 0x4 ADD PUSH1 0x20 PUSH1 0x40 MLOAD DUP1 DUP4 SUB DUP2 PUSH1 0x0 DUP8 GAS CALL ISZERO DUP1 ISZERO PUSH2 0x87E JUMPI RETURNDATASIZE PUSH1 0x0 DUP1 RETURNDATACOPY RETURNDATASIZE PUSH1 0x0 REVERT JUMPDEST POP POP POP POP PUSH1 0x40 MLOAD RETURNDATASIZE PUSH1 0x1F NOT PUSH1 0x1F DUP3 ADD AND DUP3 ADD DUP1 PUSH1 0x40 MSTORE POP DUP2 ADD SWAP1 PUSH2 0x8A2 SWAP2 SWAP1 PUSH2 0x10BB JUMP JUMPDEST SWAP2 POP POP SWAP1 JUMP JUMPDEST PUSH1 0x5 PUSH1 0x0 SWAP1 SLOAD SWAP1 PUSH2 0x100 EXP SWAP1 DIV PUSH20 0xFFFFFFFFFFFFFFFFFFFFFFFFFFFFFFFFFFFFFFFF AND DUP2 JUMP JUMPDEST PUSH1 0x1 ISZERO ISZERO PUSH1 0x7 PUSH1 0x0 SWAP1 SLOAD SWAP1 PUSH2 0x100 EXP SWAP1 DIV PUSH1 0xFF AND ISZERO ISZERO EQ DUP1 ISZERO PUSH2 0x901 JUMPI POP PUSH3 0x278D00 PUSH1 0x8 SLOAD PUSH2 0x8FD SWAP2 SWAP1 PUSH2 0x13F6 JUMP JUMPDEST TIMESTAMP LT ISZERO JUMPDEST ISZERO PUSH2 0x922 JUMPI PUSH1 0x0 PUSH1 0x7 PUSH1 0x0 PUSH2 0x100 EXP DUP2 SLOAD DUP2 PUSH1 0xFF MUL NOT AND SWAP1 DUP4 ISZERO ISZERO MUL OR SWAP1 SSTORE POP JUMPDEST JUMP JUMPDEST DUP1 PUSH1 0x5 PUSH1 0x0 PUSH2 0x100 EXP DUP2 SLOAD DUP2 PUSH20 0xFFFFFFFFFFFFFFFFFFFFFFFFFFFFFFFFFFFFFFFF MUL NOT AND SWAP1 DUP4 PUSH20 0xFFFFFFFFFFFFFFFFFFFFFFFFFFFFFFFFFFFFFFFF AND MUL OR SWAP1 SSTORE POP POP JUMP JUMPDEST PUSH1 0x1 DUP2 DUP2 SLOAD DUP2 LT PUSH2 0x978 JUMPI PUSH1 0x0 DUP1 REVERT JUMPDEST SWAP1 PUSH1 0x0 MSTORE PUSH1 0x20 PUSH1 0x0 KECCAK256 ADD PUSH1 0x0 SWAP2 POP SLOAD SWAP1 PUSH2 0x100 EXP SWAP1 DIV PUSH20 0xFFFFFFFFFFFFFFFFFFFFFFFFFFFFFFFFFFFFFFFF AND DUP2 JUMP JUMPDEST PUSH1 0x60 PUSH1 0x0 PUSH1 0x4 PUSH1 0x0 SWAP1 SLOAD SWAP1 PUSH2 0x100 EXP SWAP1 DIV PUSH20 0xFFFFFFFFFFFFFFFFFFFFFFFFFFFFFFFFFFFFFFFF AND SWAP1 POP DUP1 PUSH20 0xFFFFFFFFFFFFFFFFFFFFFFFFFFFFFFFFFFFFFFFF AND PUSH4 0xCDD72253 PUSH1 0x40 MLOAD DUP2 PUSH4 0xFFFFFFFF AND PUSH1 0xE0 SHL DUP2 MSTORE PUSH1 0x4 ADD PUSH1 0x0 PUSH1 0x40 MLOAD DUP1 DUP4 SUB DUP2 PUSH1 0x0 DUP8 GAS CALL ISZERO DUP1 ISZERO PUSH2 0xA1D JUMPI RETURNDATASIZE PUSH1 0x0 DUP1 RETURNDATACOPY RETURNDATASIZE PUSH1 0x0 REVERT JUMPDEST POP POP POP POP PUSH1 0x40 MLOAD RETURNDATASIZE PUSH1 0x0 DUP3 RETURNDATACOPY RETURNDATASIZE PUSH1 0x1F NOT PUSH1 0x1F DUP3 ADD AND DUP3 ADD DUP1 PUSH1 0x40 MSTORE POP DUP2 ADD SWAP1 PUSH2 0xA46 SWAP2 SWAP1 PUSH2 0x15BA JUMP JUMPDEST PUSH1 0x2 SWAP1 DUP1 MLOAD SWAP1 PUSH1 0x20 ADD SWAP1 PUSH2 0xA5B SWAP3 SWAP2 SWAP1 PUSH2 0xCEA JUMP JUMPDEST POP PUSH1 0x2 DUP1 SLOAD DUP1 PUSH1 0x20 MUL PUSH1 0x20 ADD PUSH1 0x40 MLOAD SWAP1 DUP2 ADD PUSH1 0x40 MSTORE DUP1 SWAP3 SWAP2 SWAP1 DUP2 DUP2 MSTORE PUSH1 0x20 ADD DUP3 DUP1 SLOAD DUP1 ISZERO PUSH2 0xADE JUMPI PUSH1 0x20 MUL DUP3 ADD SWAP2 SWAP1 PUSH1 0x0 MSTORE PUSH1 0x20 PUSH1 0x0 KECCAK256 SWAP1 JUMPDEST DUP2 PUSH1 0x0 SWAP1 SLOAD SWAP1 PUSH2 0x100 EXP SWAP1 DIV PUSH20 0xFFFFFFFFFFFFFFFFFFFFFFFFFFFFFFFFFFFFFFFF AND PUSH20 0xFFFFFFFFFFFFFFFFFFFFFFFFFFFFFFFFFFFFFFFF AND DUP2 MSTORE PUSH1 0x20 ADD SWAP1 PUSH1 0x1 ADD SWAP1 DUP1 DUP4 GT PUSH2 0xA94 JUMPI JUMPDEST POP POP POP POP POP SWAP2 POP POP SWAP1 JUMP JUMPDEST PUSH1 0x0 ISZERO ISZERO PUSH1 0x7 PUSH1 0x0 SWAP1 SLOAD SWAP1 PUSH2 0x100 EXP SWAP1 DIV PUSH1 0xFF AND ISZERO ISZERO EQ PUSH2 0xB3F JUMPI PUSH1 0x40 MLOAD PUSH32 0x8C379A000000000000000000000000000000000000000000000000000000000 DUP2 MSTORE PUSH1 0x4 ADD PUSH2 0xB36 SWAP1 PUSH2 0x115A JUMP JUMPDEST PUSH1 0x40 MLOAD DUP1 SWAP2 SUB SWAP1 REVERT JUMPDEST PUSH1 0x0 DUP1 SLOAD SWAP1 PUSH2 0x100 EXP SWAP1 DIV PUSH20 0xFFFFFFFFFFFFFFFFFFFFFFFFFFFFFFFFFFFFFFFF AND PUSH20 0xFFFFFFFFFFFFFFFFFFFFFFFFFFFFFFFFFFFFFFFF AND CALLER PUSH20 0xFFFFFFFFFFFFFFFFFFFFFFFFFFFFFFFFFFFFFFFF AND EQ PUSH2 0xBCD JUMPI PUSH1 0x40 MLOAD PUSH32 0x8C379A000000000000000000000000000000000000000000000000000000000 DUP2 MSTORE PUSH1 0x4 ADD PUSH2 0xBC4 SWAP1 PUSH2 0x1086 JUMP JUMPDEST PUSH1 0x40 MLOAD DUP1 SWAP2 SUB SWAP1 REVERT JUMPDEST JUMP JUMPDEST PUSH1 0x0 DUP1 SLOAD SWAP1 PUSH2 0x100 EXP SWAP1 DIV PUSH20 0xFFFFFFFFFFFFFFFFFFFFFFFFFFFFFFFFFFFFFFFF AND DUP2 JUMP JUMPDEST PUSH1 0x2 DUP2 DUP2 SLOAD DUP2 LT PUSH2 0xC03 JUMPI PUSH1 0x0 DUP1 REVERT JUMPDEST SWAP1 PUSH1 0x0 MSTORE PUSH1 0x20 PUSH1 0x0 KECCAK256 ADD PUSH1 0x0 SWAP2 POP SLOAD SWAP1 PUSH2 0x100 EXP SWAP1 DIV PUSH20 0xFFFFFFFFFFFFFFFFFFFFFFFFFFFFFFFFFFFFFFFF AND DUP2 JUMP JUMPDEST PUSH8 0x16345785D8A0000 CALLVALUE LT ISZERO PUSH2 0xC7D JUMPI PUSH1 0x40 MLOAD PUSH32 0x8C379A000000000000000000000000000000000000000000000000000000000 DUP2 MSTORE PUSH1 0x4 ADD PUSH2 0xC74 SWAP1 PUSH2 0x164F JUMP JUMPDEST PUSH1 0x40 MLOAD DUP1 SWAP2 SUB SWAP1 REVERT JUMPDEST PUSH1 0x1 CALLER SWAP1 DUP1 PUSH1 0x1 DUP2 SLOAD ADD DUP1 DUP3 SSTORE DUP1 SWAP2 POP POP PUSH1 0x1 SWAP1 SUB SWAP1 PUSH1 0x0 MSTORE PUSH1 0x20 PUSH1 0x0 KECCAK256 ADD PUSH1 0x0 SWAP1 SWAP2 SWAP1 SWAP2 SWAP1 SWAP2 PUSH2 0x100 EXP DUP2 SLOAD DUP2 PUSH20 0xFFFFFFFFFFFFFFFFFFFFFFFFFFFFFFFFFFFFFFFF MUL NOT AND SWAP1 DUP4 PUSH20 0xFFFFFFFFFFFFFFFFFFFFFFFFFFFFFFFFFFFFFFFF AND MUL OR SWAP1 SSTORE POP PUSH2 0xCE8 PUSH2 0x659 JUMP JUMPDEST JUMP JUMPDEST DUP3 DUP1 SLOAD DUP3 DUP3 SSTORE SWAP1 PUSH1 0x0 MSTORE PUSH1 0x20 PUSH1 0x0 KECCAK256 SWAP1 DUP2 ADD SWAP3 DUP3 ISZERO PUSH2 0xD63 JUMPI SWAP2 PUSH1 0x20 MUL DUP3 ADD JUMPDEST DUP3 DUP2 GT ISZERO PUSH2 0xD62 JUMPI DUP3 MLOAD DUP3 PUSH1 0x0 PUSH2 0x100 EXP DUP2 SLOAD DUP2 PUSH20 0xFFFFFFFFFFFFFFFFFFFFFFFFFFFFFFFFFFFFFFFF MUL NOT AND SWAP1 DUP4 PUSH20 0xFFFFFFFFFFFFFFFFFFFFFFFFFFFFFFFFFFFFFFFF AND MUL OR SWAP1 SSTORE POP SWAP2 PUSH1 0x20 ADD SWAP2 SWAP1 PUSH1 0x1 ADD SWAP1 PUSH2 0xD0A JUMP JUMPDEST JUMPDEST POP SWAP1 POP PUSH2 0xD70 SWAP2 SWAP1 PUSH2 0xD74 JUMP JUMPDEST POP SWAP1 JUMP JUMPDEST JUMPDEST DUP1 DUP3 GT ISZERO PUSH2 0xD8D JUMPI PUSH1 0x0 DUP2 PUSH1 0x0 SWAP1 SSTORE POP PUSH1 0x1 ADD PUSH2 0xD75 JUMP JUMPDEST POP SWAP1 JUMP JUMPDEST PUSH1 0x0 PUSH1 0x40 MLOAD SWAP1 POP SWAP1 JUMP JUMPDEST PUSH1 0x0 DUP1 REVERT JUMPDEST PUSH1 0x0 DUP1 REVERT JUMPDEST PUSH1 0x0 DUP2 SWAP1 POP SWAP2 SWAP1 POP JUMP JUMPDEST PUSH2 0xDB8 DUP2 PUSH2 0xDA5 JUMP JUMPDEST DUP2 EQ PUSH2 0xDC3 JUMPI PUSH1 0x0 DUP1 REVERT JUMPDEST POP JUMP JUMPDEST PUSH1 0x0 DUP2 CALLDATALOAD SWAP1 POP PUSH2 0xDD5 DUP2 PUSH2 0xDAF JUMP JUMPDEST SWAP3 SWAP2 POP POP JUMP JUMPDEST PUSH1 0x0 PUSH1 0x20 DUP3 DUP5 SUB SLT ISZERO PUSH2 0xDF1 JUMPI PUSH2 0xDF0 PUSH2 0xD9B JUMP JUMPDEST JUMPDEST PUSH1 0x0 PUSH2 0xDFF DUP5 DUP3 DUP6 ADD PUSH2 0xDC6 JUMP JUMPDEST SWAP2 POP POP SWAP3 SWAP2 POP POP JUMP JUMPDEST PUSH1 0x0 PUSH20 0xFFFFFFFFFFFFFFFFFFFFFFFFFFFFFFFFFFFFFFFF DUP3 AND SWAP1 POP SWAP2 SWAP1 POP JUMP JUMPDEST PUSH1 0x0 PUSH2 0xE33 DUP3 PUSH2 0xE08 JUMP JUMPDEST SWAP1 POP SWAP2 SWAP1 POP JUMP JUMPDEST PUSH2 0xE43 DUP2 PUSH2 0xE28 JUMP JUMPDEST DUP3 MSTORE POP POP JUMP JUMPDEST PUSH1 0x0 PUSH1 0x20 DUP3 ADD SWAP1 POP PUSH2 0xE5E PUSH1 0x0 DUP4 ADD DUP5 PUSH2 0xE3A JUMP JUMPDEST SWAP3 SWAP2 POP POP JUMP JUMPDEST PUSH2 0xE6D DUP2 PUSH2 0xDA5 JUMP JUMPDEST DUP3 MSTORE POP POP JUMP JUMPDEST PUSH1 0x0 PUSH1 0x20 DUP3 ADD SWAP1 POP PUSH2 0xE88 PUSH1 0x0 DUP4 ADD DUP5 PUSH2 0xE64 JUMP JUMPDEST SWAP3 SWAP2 POP POP JUMP JUMPDEST PUSH1 0x0 PUSH2 0xE99 DUP3 PUSH2 0xE08 JUMP JUMPDEST SWAP1 POP SWAP2 SWAP1 POP JUMP JUMPDEST PUSH2 0xEA9 DUP2 PUSH2 0xE8E JUMP JUMPDEST DUP3 MSTORE POP POP JUMP JUMPDEST PUSH1 0x0 PUSH1 0x20 DUP3 ADD SWAP1 POP PUSH2 0xEC4 PUSH1 0x0 DUP4 ADD DUP5 PUSH2 0xEA0 JUMP JUMPDEST SWAP3 SWAP2 POP POP JUMP JUMPDEST PUSH2 0xED3 DUP2 PUSH2 0xE8E JUMP JUMPDEST DUP2 EQ PUSH2 0xEDE JUMPI PUSH1 0x0 DUP1 REVERT JUMPDEST POP JUMP JUMPDEST PUSH1 0x0 DUP2 CALLDATALOAD SWAP1 POP PUSH2 0xEF0 DUP2 PUSH2 0xECA JUMP JUMPDEST SWAP3 SWAP2 POP POP JUMP JUMPDEST PUSH1 0x0 PUSH1 0x20 DUP3 DUP5 SUB SLT ISZERO PUSH2 0xF0C JUMPI PUSH2 0xF0B PUSH2 0xD9B JUMP JUMPDEST JUMPDEST PUSH1 0x0 PUSH2 0xF1A DUP5 DUP3 DUP6 ADD PUSH2 0xEE1 JUMP JUMPDEST SWAP2 POP POP SWAP3 SWAP2 POP POP JUMP JUMPDEST PUSH1 0x0 DUP2 MLOAD SWAP1 POP SWAP2 SWAP1 POP JUMP JUMPDEST PUSH1 0x0 DUP3 DUP3 MSTORE PUSH1 0x20 DUP3 ADD SWAP1 POP SWAP3 SWAP2 POP POP JUMP JUMPDEST PUSH1 0x0 DUP2 SWAP1 POP PUSH1 0x20 DUP3 ADD SWAP1 POP SWAP2 SWAP1 POP JUMP JUMPDEST PUSH2 0xF58 DUP2 PUSH2 0xE8E JUMP JUMPDEST DUP3 MSTORE POP POP JUMP JUMPDEST PUSH1 0x0 PUSH2 0xF6A DUP4 DUP4 PUSH2 0xF4F JUMP JUMPDEST PUSH1 0x20 DUP4 ADD SWAP1 POP SWAP3 SWAP2 POP POP JUMP JUMPDEST PUSH1 0x0 PUSH1 0x20 DUP3 ADD SWAP1 POP SWAP2 SWAP1 POP JUMP JUMPDEST PUSH1 0x0 PUSH2 0xF8E DUP3 PUSH2 0xF23 JUMP JUMPDEST PUSH2 0xF98 DUP2 DUP6 PUSH2 0xF2E JUMP JUMPDEST SWAP4 POP PUSH2 0xFA3 DUP4 PUSH2 0xF3F JUMP JUMPDEST DUP1 PUSH1 0x0 JUMPDEST DUP4 DUP2 LT ISZERO PUSH2 0xFD4 JUMPI DUP2 MLOAD PUSH2 0xFBB DUP9 DUP3 PUSH2 0xF5E JUMP JUMPDEST SWAP8 POP PUSH2 0xFC6 DUP4 PUSH2 0xF76 JUMP JUMPDEST SWAP3 POP POP PUSH1 0x1 DUP2 ADD SWAP1 POP PUSH2 0xFA7 JUMP JUMPDEST POP DUP6 SWAP4 POP POP POP POP SWAP3 SWAP2 POP POP JUMP JUMPDEST PUSH1 0x0 PUSH1 0x20 DUP3 ADD SWAP1 POP DUP2 DUP2 SUB PUSH1 0x0 DUP4 ADD MSTORE PUSH2 0xFFB DUP2 DUP5 PUSH2 0xF83 JUMP JUMPDEST SWAP1 POP SWAP3 SWAP2 POP POP JUMP JUMPDEST PUSH1 0x0 DUP3 DUP3 MSTORE PUSH1 0x20 DUP3 ADD SWAP1 POP SWAP3 SWAP2 POP POP JUMP JUMPDEST PUSH32 0x6F6E6C792043686172795465616D2063616E2063616C6C20746869732066756E PUSH1 0x0 DUP3 ADD MSTORE PUSH32 0x6374696F6E000000000000000000000000000000000000000000000000000000 PUSH1 0x20 DUP3 ADD MSTORE POP JUMP JUMPDEST PUSH1 0x0 PUSH2 0x1070 PUSH1 0x25 DUP4 PUSH2 0x1003 JUMP JUMPDEST SWAP2 POP PUSH2 0x107B DUP3 PUSH2 0x1014 JUMP JUMPDEST PUSH1 0x40 DUP3 ADD SWAP1 POP SWAP2 SWAP1 POP JUMP JUMPDEST PUSH1 0x0 PUSH1 0x20 DUP3 ADD SWAP1 POP DUP2 DUP2 SUB PUSH1 0x0 DUP4 ADD MSTORE PUSH2 0x109F DUP2 PUSH2 0x1063 JUMP JUMPDEST SWAP1 POP SWAP2 SWAP1 POP JUMP JUMPDEST PUSH1 0x0 DUP2 MLOAD SWAP1 POP PUSH2 0x10B5 DUP2 PUSH2 0xDAF JUMP JUMPDEST SWAP3 SWAP2 POP POP JUMP JUMPDEST PUSH1 0x0 PUSH1 0x20 DUP3 DUP5 SUB SLT ISZERO PUSH2 0x10D1 JUMPI PUSH2 0x10D0 PUSH2 0xD9B JUMP JUMPDEST JUMPDEST PUSH1 0x0 PUSH2 0x10DF DUP5 DUP3 DUP6 ADD PUSH2 0x10A6 JUMP JUMPDEST SWAP2 POP POP SWAP3 SWAP2 POP POP JUMP JUMPDEST PUSH32 0x5370656E64656E2077657264656E206E69636874206D65687220676573616D6D PUSH1 0x0 DUP3 ADD MSTORE PUSH32 0x656C740000000000000000000000000000000000000000000000000000000000 PUSH1 0x20 DUP3 ADD MSTORE POP JUMP JUMPDEST PUSH1 0x0 PUSH2 0x1144 PUSH1 0x23 DUP4 PUSH2 0x1003 JUMP JUMPDEST SWAP2 POP PUSH2 0x114F DUP3 PUSH2 0x10E8 JUMP JUMPDEST PUSH1 0x40 DUP3 ADD SWAP1 POP SWAP2 SWAP1 POP JUMP JUMPDEST PUSH1 0x0 PUSH1 0x20 DUP3 ADD SWAP1 POP DUP2 DUP2 SUB PUSH1 0x0 DUP4 ADD MSTORE PUSH2 0x1173 DUP2 PUSH2 0x1137 JUMP JUMPDEST SWAP1 POP SWAP2 SWAP1 POP JUMP JUMPDEST PUSH1 0x0 DUP2 SLOAD SWAP1 POP SWAP2 SWAP1 POP JUMP JUMPDEST PUSH1 0x0 DUP2 SWAP1 POP DUP2 PUSH1 0x0 MSTORE PUSH1 0x20 PUSH1 0x0 KECCAK256 SWAP1 POP SWAP2 SWAP1 POP JUMP JUMPDEST PUSH1 0x0 DUP2 PUSH1 0x0 SHR SWAP1 POP SWAP2 SWAP1 POP JUMP JUMPDEST PUSH1 0x0 PUSH20 0xFFFFFFFFFFFFFFFFFFFFFFFFFFFFFFFFFFFFFFFF DUP3 AND SWAP1 POP SWAP2 SWAP1 POP JUMP JUMPDEST PUSH1 0x0 PUSH2 0x11DA PUSH2 0x11D5 DUP4 PUSH2 0x119A JUMP JUMPDEST PUSH2 0x11A7 JUMP JUMPDEST SWAP1 POP SWAP2 SWAP1 POP JUMP JUMPDEST PUSH1 0x0 PUSH2 0x11ED DUP3 SLOAD PUSH2 0x11C7 JUMP JUMPDEST SWAP1 POP SWAP2 SWAP1 POP JUMP JUMPDEST PUSH1 0x0 PUSH1 0x1 DUP3 ADD SWAP1 POP SWAP2 SWAP1 POP JUMP JUMPDEST PUSH1 0x0 PUSH2 0x120C DUP3 PUSH2 0x117A JUMP JUMPDEST PUSH2 0x1216 DUP2 DUP6 PUSH2 0xF2E JUMP JUMPDEST SWAP4 POP PUSH2 0x1221 DUP4 PUSH2 0x1185 JUMP JUMPDEST DUP1 PUSH1 0x0 JUMPDEST DUP4 DUP2 LT ISZERO PUSH2 0x1259 JUMPI PUSH2 0x1236 DUP3 PUSH2 0x11E1 JUMP JUMPDEST PUSH2 0x1240 DUP9 DUP3 PUSH2 0xF5E JUMP JUMPDEST SWAP8 POP PUSH2 0x124B DUP4 PUSH2 0x11F4 JUMP JUMPDEST SWAP3 POP POP PUSH1 0x1 DUP2 ADD SWAP1 POP PUSH2 0x1225 JUMP JUMPDEST POP DUP6 SWAP4 POP POP POP POP SWAP3 SWAP2 POP POP JUMP JUMPDEST PUSH1 0x0 PUSH1 0x20 DUP3 ADD SWAP1 POP DUP2 DUP2 SUB PUSH1 0x0 DUP4 ADD MSTORE PUSH2 0x1280 DUP2 DUP5 PUSH2 0x1201 JUMP JUMPDEST SWAP1 POP SWAP3 SWAP2 POP POP JUMP JUMPDEST PUSH1 0x0 DUP2 ISZERO ISZERO SWAP1 POP SWAP2 SWAP1 POP JUMP JUMPDEST PUSH2 0x129D DUP2 PUSH2 0x1288 JUMP JUMPDEST DUP2 EQ PUSH2 0x12A8 JUMPI PUSH1 0x0 DUP1 REVERT JUMPDEST POP JUMP JUMPDEST PUSH1 0x0 DUP2 MLOAD SWAP1 POP PUSH2 0x12BA DUP2 PUSH2 0x1294 JUMP JUMPDEST SWAP3 SWAP2 POP POP JUMP JUMPDEST PUSH1 0x0 PUSH1 0x20 DUP3 DUP5 SUB SLT ISZERO PUSH2 0x12D6 JUMPI PUSH2 0x12D5 PUSH2 0xD9B JUMP JUMPDEST JUMPDEST PUSH1 0x0 PUSH2 0x12E4 DUP5 DUP3 DUP6 ADD PUSH2 0x12AB JUMP JUMPDEST SWAP2 POP POP SWAP3 SWAP2 POP POP JUMP JUMPDEST PUSH32 0x73656E64657220616C7265616479206861732061204354000000000000000000 PUSH1 0x0 DUP3 ADD MSTORE POP JUMP JUMPDEST PUSH1 0x0 PUSH2 0x1323 PUSH1 0x17 DUP4 PUSH2 0x1003 JUMP JUMPDEST SWAP2 POP PUSH2 0x132E DUP3 PUSH2 0x12ED JUMP JUMPDEST PUSH1 0x20 DUP3 ADD SWAP1 POP SWAP2 SWAP1 POP JUMP JUMPDEST PUSH1 0x0 PUSH1 0x20 DUP3 ADD SWAP1 POP DUP2 DUP2 SUB PUSH1 0x0 DUP4 ADD MSTORE PUSH2 0x1352 DUP2 PUSH2 0x1316 JUMP JUMPDEST SWAP1 POP SWAP2 SWAP1 POP JUMP JUMPDEST PUSH1 0x0 DUP2 SWAP1 POP SWAP2 SWAP1 POP JUMP JUMPDEST PUSH1 0x0 DUP2 SWAP1 POP SWAP2 SWAP1 POP JUMP JUMPDEST PUSH1 0x0 PUSH2 0x1388 PUSH2 0x1383 PUSH2 0x137E DUP5 PUSH2 0x1359 JUMP JUMPDEST PUSH2 0x1363 JUMP JUMPDEST PUSH2 0xDA5 JUMP JUMPDEST SWAP1 POP SWAP2 SWAP1 POP JUMP JUMPDEST PUSH2 0x1398 DUP2 PUSH2 0x136D JUMP JUMPDEST DUP3 MSTORE POP POP JUMP JUMPDEST PUSH1 0x0 PUSH1 0x40 DUP3 ADD SWAP1 POP PUSH2 0x13B3 PUSH1 0x0 DUP4 ADD DUP6 PUSH2 0xEA0 JUMP JUMPDEST PUSH2 0x13C0 PUSH1 0x20 DUP4 ADD DUP5 PUSH2 0x138F JUMP JUMPDEST SWAP4 SWAP3 POP POP POP JUMP JUMPDEST PUSH32 0x4E487B7100000000000000000000000000000000000000000000000000000000 PUSH1 0x0 MSTORE PUSH1 0x11 PUSH1 0x4 MSTORE PUSH1 0x24 PUSH1 0x0 REVERT JUMPDEST PUSH1 0x0 PUSH2 0x1401 DUP3 PUSH2 0xDA5 JUMP JUMPDEST SWAP2 POP PUSH2 0x140C DUP4 PUSH2 0xDA5 JUMP JUMPDEST SWAP3 POP DUP3 PUSH32 0xFFFFFFFFFFFFFFFFFFFFFFFFFFFFFFFFFFFFFFFFFFFFFFFFFFFFFFFFFFFFFFFF SUB DUP3 GT ISZERO PUSH2 0x1441 JUMPI PUSH2 0x1440 PUSH2 0x13C7 JUMP JUMPDEST JUMPDEST DUP3 DUP3 ADD SWAP1 POP SWAP3 SWAP2 POP POP JUMP JUMPDEST PUSH1 0x0 DUP1 REVERT JUMPDEST PUSH1 0x0 PUSH1 0x1F NOT PUSH1 0x1F DUP4 ADD AND SWAP1 POP SWAP2 SWAP1 POP JUMP JUMPDEST PUSH32 0x4E487B7100000000000000000000000000000000000000000000000000000000 PUSH1 0x0 MSTORE PUSH1 0x41 PUSH1 0x4 MSTORE PUSH1 0x24 PUSH1 0x0 REVERT JUMPDEST PUSH2 0x149A DUP3 PUSH2 0x1451 JUMP JUMPDEST DUP2 ADD DUP2 DUP2 LT PUSH8 0xFFFFFFFFFFFFFFFF DUP3 GT OR ISZERO PUSH2 0x14B9 JUMPI PUSH2 0x14B8 PUSH2 0x1462 JUMP JUMPDEST JUMPDEST DUP1 PUSH1 0x40 MSTORE POP POP POP JUMP JUMPDEST PUSH1 0x0 PUSH2 0x14CC PUSH2 0xD91 JUMP JUMPDEST SWAP1 POP PUSH2 0x14D8 DUP3 DUP3 PUSH2 0x1491 JUMP JUMPDEST SWAP2 SWAP1 POP JUMP JUMPDEST PUSH1 0x0 PUSH8 0xFFFFFFFFFFFFFFFF DUP3 GT ISZERO PUSH2 0x14F8 JUMPI PUSH2 0x14F7 PUSH2 0x1462 JUMP JUMPDEST JUMPDEST PUSH1 0x20 DUP3 MUL SWAP1 POP PUSH1 0x20 DUP2 ADD SWAP1 POP SWAP2 SWAP1 POP JUMP JUMPDEST PUSH1 0x0 DUP1 REVERT JUMPDEST PUSH1 0x0 DUP2 MLOAD SWAP1 POP PUSH2 0x151D DUP2 PUSH2 0xECA JUMP JUMPDEST SWAP3 SWAP2 POP POP JUMP JUMPDEST PUSH1 0x0 PUSH2 0x1536 PUSH2 0x1531 DUP5 PUSH2 0x14DD JUMP JUMPDEST PUSH2 0x14C2 JUMP JUMPDEST SWAP1 POP DUP1 DUP4 DUP3 MSTORE PUSH1 0x20 DUP3 ADD SWAP1 POP PUSH1 0x20 DUP5 MUL DUP4 ADD DUP6 DUP2 GT ISZERO PUSH2 0x1559 JUMPI PUSH2 0x1558 PUSH2 0x1509 JUMP JUMPDEST JUMPDEST DUP4 JUMPDEST DUP2 DUP2 LT ISZERO PUSH2 0x1582 JUMPI DUP1 PUSH2 0x156E DUP9 DUP3 PUSH2 0x150E JUMP JUMPDEST DUP5 MSTORE PUSH1 0x20 DUP5 ADD SWAP4 POP POP PUSH1 0x20 DUP2 ADD SWAP1 POP PUSH2 0x155B JUMP JUMPDEST POP POP POP SWAP4 SWAP3 POP POP POP JUMP JUMPDEST PUSH1 0x0 DUP3 PUSH1 0x1F DUP4 ADD SLT PUSH2 0x15A1 JUMPI PUSH2 0x15A0 PUSH2 0x144C JUMP JUMPDEST JUMPDEST DUP2 MLOAD PUSH2 0x15B1 DUP5 DUP3 PUSH1 0x20 DUP7 ADD PUSH2 0x1523 JUMP JUMPDEST SWAP2 POP POP SWAP3 SWAP2 POP POP JUMP JUMPDEST PUSH1 0x0 PUSH1 0x20 DUP3 DUP5 SUB SLT ISZERO PUSH2 0x15D0 JUMPI PUSH2 0x15CF PUSH2 0xD9B JUMP JUMPDEST JUMPDEST PUSH1 0x0 DUP3 ADD MLOAD PUSH8 0xFFFFFFFFFFFFFFFF DUP2 GT ISZERO PUSH2 0x15EE JUMPI PUSH2 0x15ED PUSH2 0xDA0 JUMP JUMPDEST JUMPDEST PUSH2 0x15FA DUP5 DUP3 DUP6 ADD PUSH2 0x158C JUMP JUMPDEST SWAP2 POP POP SWAP3 SWAP2 POP POP JUMP JUMPDEST PUSH32 0x496E76657374206D696E696D756D206F6620302E312065746865720000000000 PUSH1 0x0 DUP3 ADD MSTORE POP JUMP JUMPDEST PUSH1 0x0 PUSH2 0x1639 PUSH1 0x1B DUP4 PUSH2 0x1003 JUMP JUMPDEST SWAP2 POP PUSH2 0x1644 DUP3 PUSH2 0x1603 JUMP JUMPDEST PUSH1 0x20 DUP3 ADD SWAP1 POP SWAP2 SWAP1 POP JUMP JUMPDEST PUSH1 0x0 PUSH1 0x20 DUP3 ADD SWAP1 POP DUP2 DUP2 SUB PUSH1 0x0 DUP4 ADD MSTORE PUSH2 0x1668 DUP2 PUSH2 0x162C JUMP JUMPDEST SWAP1 POP SWAP2 SWAP1 POP JUMP INVALID LOG2 PUSH5 0x6970667358 0x22 SLT KECCAK256 EQ EXP ADD 0xAD GAS 0x5E 0x5F SWAP4 0xBD 0x2B 0xC6 0x2B PUSH13 0xE18D7C4F077D49D12A0BF861FE JUMPI 0xD0 PUSH11 0x70B31564736F6C63430008 0xD STOP CALLER "
				},
				"gasEstimates": {
					"creation": {
						"codeDepositCost": "1159400",
						"executionCost": "71845",
						"totalCost": "1231245"
					},
					"external": {
						"charyteam()": "2577",
						"closeDonations()": "infinite",
						"doLottery()": "infinite",
						"donate()": "infinite",
						"donators(uint256)": "5045",
						"getBalance()": "385",
						"getCTBalance()": "infinite",
						"initiateLottery(address)": "24789",
						"initiateVoting(address)": "24811",
						"lotterycontract()": "2537",
						"projects(uint256)": "4980",
						"sendCT()": "infinite",
						"sendDonations()": "4809",
						"startTime()": "2474",
						"updateVoting()": "infinite",
						"voters(uint256)": "5044",
						"votingcontract()": "2582",
						"votingresult()": "infinite"
					}
				},
				"methodIdentifiers": {
					"charyteam()": "d1286e65",
					"closeDonations()": "99e7f8c2",
					"doLottery()": "583fa3a8",
					"donate()": "ed88c68e",
					"donators(uint256)": "ac62f566",
					"getBalance()": "12065fe0",
					"getCTBalance()": "54235142",
					"initiateLottery(address)": "9e992987",
					"initiateVoting(address)": "82caff48",
					"lotterycontract()": "8d6a8b80",
					"projects(uint256)": "107046bd",
					"sendCT()": "7c4444ff",
					"sendDonations()": "cad65b70",
					"startTime()": "78e97925",
					"updateVoting()": "acc9c6b4",
					"voters(uint256)": "da58c7d9",
					"votingcontract()": "2e708fa8",
					"votingresult()": "86e899a2"
				}
			},
			"storageLayout": {
				"storage": [
					{
						"astId": 45,
						"contract": "contracts/donationspool.sol:Spendenpool",
						"label": "charyteam",
						"offset": 0,
						"slot": "0",
						"type": "t_address"
					},
					{
						"astId": 48,
						"contract": "contracts/donationspool.sol:Spendenpool",
						"label": "donators",
						"offset": 0,
						"slot": "1",
						"type": "t_array(t_address)dyn_storage"
					},
					{
						"astId": 51,
						"contract": "contracts/donationspool.sol:Spendenpool",
						"label": "voters",
						"offset": 0,
						"slot": "2",
						"type": "t_array(t_address)dyn_storage"
					},
					{
						"astId": 54,
						"contract": "contracts/donationspool.sol:Spendenpool",
						"label": "projects",
						"offset": 0,
						"slot": "3",
						"type": "t_array(t_address_payable)dyn_storage"
					},
					{
						"astId": 56,
						"contract": "contracts/donationspool.sol:Spendenpool",
						"label": "votingcontract",
						"offset": 0,
						"slot": "4",
						"type": "t_address"
					},
					{
						"astId": 58,
						"contract": "contracts/donationspool.sol:Spendenpool",
						"label": "lotterycontract",
						"offset": 0,
						"slot": "5",
						"type": "t_address"
					},
					{
						"astId": 60,
						"contract": "contracts/donationspool.sol:Spendenpool",
						"label": "donations",
						"offset": 0,
						"slot": "6",
						"type": "t_uint256"
					},
					{
						"astId": 63,
						"contract": "contracts/donationspool.sol:Spendenpool",
						"label": "donationsopen",
						"offset": 0,
						"slot": "7",
						"type": "t_bool"
					},
					{
						"astId": 67,
						"contract": "contracts/donationspool.sol:Spendenpool",
						"label": "startTime",
						"offset": 0,
						"slot": "8",
						"type": "t_uint256"
					}
				],
				"types": {
					"t_address": {
						"encoding": "inplace",
						"label": "address",
						"numberOfBytes": "20"
					},
					"t_address_payable": {
						"encoding": "inplace",
						"label": "address payable",
						"numberOfBytes": "20"
					},
					"t_array(t_address)dyn_storage": {
						"base": "t_address",
						"encoding": "dynamic_array",
						"label": "address[]",
						"numberOfBytes": "32"
					},
					"t_array(t_address_payable)dyn_storage": {
						"base": "t_address_payable",
						"encoding": "dynamic_array",
						"label": "address payable[]",
						"numberOfBytes": "32"
					},
					"t_bool": {
						"encoding": "inplace",
						"label": "bool",
						"numberOfBytes": "1"
					},
					"t_uint256": {
						"encoding": "inplace",
						"label": "uint256",
						"numberOfBytes": "32"
					}
				}
			},
			"userdoc": {
				"kind": "user",
				"methods": {},
				"version": 1
			}
		}
	}
}