{
	"contracts/donationspool.sol": {
		"Spendenpool": {
			"abi": [
				{
					"inputs": [],
					"stateMutability": "nonpayable",
					"type": "constructor"
				},
				{
					"inputs": [],
					"name": "charyteam",
					"outputs": [
						{
							"internalType": "address",
							"name": "",
							"type": "address"
						}
					],
					"stateMutability": "view",
					"type": "function"
				},
				{
					"inputs": [],
					"name": "closeDonations",
					"outputs": [],
					"stateMutability": "nonpayable",
					"type": "function"
				},
				{
					"inputs": [],
					"name": "doLottery",
					"outputs": [
						{
							"internalType": "address",
							"name": "",
							"type": "address"
						}
					],
					"stateMutability": "payable",
					"type": "function"
				},
				{
					"inputs": [],
					"name": "donate",
					"outputs": [],
					"stateMutability": "payable",
					"type": "function"
				},
				{
					"inputs": [
						{
							"internalType": "uint256",
							"name": "",
							"type": "uint256"
						}
					],
					"name": "donators",
					"outputs": [
						{
							"internalType": "address",
							"name": "",
							"type": "address"
						}
					],
					"stateMutability": "view",
					"type": "function"
				},
				{
					"inputs": [],
					"name": "getBalance",
					"outputs": [
						{
							"internalType": "uint256",
							"name": "",
							"type": "uint256"
						}
					],
					"stateMutability": "view",
					"type": "function"
				},
				{
					"inputs": [],
					"name": "getCTBalance",
					"outputs": [
						{
							"internalType": "uint256",
							"name": "",
							"type": "uint256"
						}
					],
					"stateMutability": "view",
					"type": "function"
				},
				{
					"inputs": [
						{
							"internalType": "address",
							"name": "_lotteryContract",
							"type": "address"
						}
					],
					"name": "initiateLottery",
					"outputs": [],
					"stateMutability": "nonpayable",
					"type": "function"
				},
				{
					"inputs": [
						{
							"internalType": "address",
							"name": "_votingAddress",
							"type": "address"
						}
					],
					"name": "initiateVoting",
					"outputs": [],
					"stateMutability": "nonpayable",
					"type": "function"
				},
				{
					"inputs": [],
					"name": "lotterycontract",
					"outputs": [
						{
							"internalType": "address",
							"name": "",
							"type": "address"
						}
					],
					"stateMutability": "view",
					"type": "function"
				},
				{
					"inputs": [
						{
							"internalType": "uint256",
							"name": "",
							"type": "uint256"
						}
					],
					"name": "projects",
					"outputs": [
						{
							"internalType": "address payable",
							"name": "",
							"type": "address"
						}
					],
					"stateMutability": "view",
					"type": "function"
				},
				{
					"inputs": [],
					"name": "sendCT",
					"outputs": [],
					"stateMutability": "payable",
					"type": "function"
				},
				{
					"inputs": [],
					"name": "sendDonations",
					"outputs": [],
					"stateMutability": "payable",
					"type": "function"
				},
				{
					"inputs": [],
					"name": "startTime",
					"outputs": [
						{
							"internalType": "uint256",
							"name": "",
							"type": "uint256"
						}
					],
					"stateMutability": "view",
					"type": "function"
				},
				{
					"inputs": [],
					"name": "updateVoting",
					"outputs": [
						{
							"internalType": "address[]",
							"name": "",
							"type": "address[]"
						}
					],
					"stateMutability": "nonpayable",
					"type": "function"
				},
				{
					"inputs": [
						{
							"internalType": "uint256",
							"name": "",
							"type": "uint256"
						}
					],
					"name": "voters",
					"outputs": [
						{
							"internalType": "address",
							"name": "",
							"type": "address"
						}
					],
					"stateMutability": "view",
					"type": "function"
				},
				{
					"inputs": [],
					"name": "votingcontract",
					"outputs": [
						{
							"internalType": "address",
							"name": "",
							"type": "address"
						}
					],
					"stateMutability": "view",
					"type": "function"
				},
				{
					"inputs": [],
					"name": "votingresult",
					"outputs": [
						{
							"internalType": "uint256",
							"name": "",
							"type": "uint256"
						}
					],
					"stateMutability": "nonpayable",
					"type": "function"
				}
			],
			"devdoc": {
				"kind": "dev",
				"methods": {},
				"version": 1
			},
			"evm": {
				"assembly": "    /* \"contracts/donationspool.sol\":470:4215  contract Spendenpool{... */\n  mstore(0x40, 0x80)\n    /* \"contracts/donationspool.sol\":881:885  true */\n  0x01\n    /* \"contracts/donationspool.sol\":860:885  bool donationsopen = true */\n  0x07\n  exp(0x0100, 0x00)\n  dup2\n  sload\n  dup2\n  0xff\n  mul\n  not\n  and\n  swap1\n  dup4\n  iszero\n  iszero\n  mul\n  or\n  swap1\n  sstore\n  pop\n    /* \"contracts/donationspool.sol\":917:932  block.timestamp */\n  timestamp\n    /* \"contracts/donationspool.sol\":893:932  uint public startTime = block.timestamp */\n  0x08\n  sstore\n    /* \"contracts/donationspool.sol\":1078:1142  constructor () public {... */\n  callvalue\n  dup1\n  iszero\n  tag_1\n  jumpi\n  0x00\n  dup1\n  revert\ntag_1:\n  pop\n    /* \"contracts/donationspool.sol\":1123:1133  msg.sender */\n  caller\n    /* \"contracts/donationspool.sol\":1111:1120  charyteam */\n  0x00\n  dup1\n    /* \"contracts/donationspool.sol\":1111:1133  charyteam = msg.sender */\n  0x0100\n  exp\n  dup2\n  sload\n  dup2\n  0xffffffffffffffffffffffffffffffffffffffff\n  mul\n  not\n  and\n  swap1\n  dup4\n  0xffffffffffffffffffffffffffffffffffffffff\n  and\n  mul\n  or\n  swap1\n  sstore\n  pop\n    /* \"contracts/donationspool.sol\":470:4215  contract Spendenpool{... */\n  dataSize(sub_0)\n  dup1\n  dataOffset(sub_0)\n  0x00\n  codecopy\n  0x00\n  return\nstop\n\nsub_0: assembly {\n        /* \"contracts/donationspool.sol\":470:4215  contract Spendenpool{... */\n      mstore(0x40, 0x80)\n      jumpi(tag_1, lt(calldatasize, 0x04))\n      shr(0xe0, calldataload(0x00))\n      dup1\n      0x8d6a8b80\n      gt\n      tag_20\n      jumpi\n      dup1\n      0xacc9c6b4\n      gt\n      tag_21\n      jumpi\n      dup1\n      0xacc9c6b4\n      eq\n      tag_15\n      jumpi\n      dup1\n      0xcad65b70\n      eq\n      tag_16\n      jumpi\n      dup1\n      0xd1286e65\n      eq\n      tag_17\n      jumpi\n      dup1\n      0xda58c7d9\n      eq\n      tag_18\n      jumpi\n      dup1\n      0xed88c68e\n      eq\n      tag_19\n      jumpi\n      jump(tag_1)\n    tag_21:\n      dup1\n      0x8d6a8b80\n      eq\n      tag_11\n      jumpi\n      dup1\n      0x99e7f8c2\n      eq\n      tag_12\n      jumpi\n      dup1\n      0x9e992987\n      eq\n      tag_13\n      jumpi\n      dup1\n      0xac62f566\n      eq\n      tag_14\n      jumpi\n      jump(tag_1)\n    tag_20:\n      dup1\n      0x583fa3a8\n      gt\n      tag_22\n      jumpi\n      dup1\n      0x583fa3a8\n      eq\n      tag_6\n      jumpi\n      dup1\n      0x78e97925\n      eq\n      tag_7\n      jumpi\n      dup1\n      0x7c4444ff\n      eq\n      tag_8\n      jumpi\n      dup1\n      0x82caff48\n      eq\n      tag_9\n      jumpi\n      dup1\n      0x86e899a2\n      eq\n      tag_10\n      jumpi\n      jump(tag_1)\n    tag_22:\n      dup1\n      0x107046bd\n      eq\n      tag_2\n      jumpi\n      dup1\n      0x12065fe0\n      eq\n      tag_3\n      jumpi\n      dup1\n      0x2e708fa8\n      eq\n      tag_4\n      jumpi\n      dup1\n      0x54235142\n      eq\n      tag_5\n      jumpi\n    tag_1:\n      0x00\n      dup1\n      revert\n        /* \"contracts/donationspool.sol\":683:716  address payable[] public projects */\n    tag_2:\n      callvalue\n      dup1\n      iszero\n      tag_23\n      jumpi\n      0x00\n      dup1\n      revert\n    tag_23:\n      pop\n      tag_24\n      0x04\n      dup1\n      calldatasize\n      sub\n      dup2\n      add\n      swap1\n      tag_25\n      swap2\n      swap1\n      tag_26\n      jump\t// in\n    tag_25:\n      tag_27\n      jump\t// in\n    tag_24:\n      mload(0x40)\n      tag_28\n      swap2\n      swap1\n      tag_29\n      jump\t// in\n    tag_28:\n      mload(0x40)\n      dup1\n      swap2\n      sub\n      swap1\n      return\n        /* \"contracts/donationspool.sol\":2616:2750  function getBalance() public view returns(uint) {... */\n    tag_3:\n      callvalue\n      dup1\n      iszero\n      tag_30\n      jumpi\n      0x00\n      dup1\n      revert\n    tag_30:\n      pop\n      tag_31\n      tag_32\n      jump\t// in\n    tag_31:\n      mload(0x40)\n      tag_33\n      swap2\n      swap1\n      tag_34\n      jump\t// in\n    tag_33:\n      mload(0x40)\n      dup1\n      swap2\n      sub\n      swap1\n      return\n        /* \"contracts/donationspool.sol\":763:792  address public votingcontract */\n    tag_4:\n      callvalue\n      dup1\n      iszero\n      tag_35\n      jumpi\n      0x00\n      dup1\n      revert\n    tag_35:\n      pop\n      tag_36\n      tag_37\n      jump\t// in\n    tag_36:\n      mload(0x40)\n      tag_38\n      swap2\n      swap1\n      tag_39\n      jump\t// in\n    tag_38:\n      mload(0x40)\n      dup1\n      swap2\n      sub\n      swap1\n      return\n        /* \"contracts/donationspool.sol\":2857:3022  function getCTBalance() public view onlyCharyteam returns(uint) {... */\n    tag_5:\n      callvalue\n      dup1\n      iszero\n      tag_40\n      jumpi\n      0x00\n      dup1\n      revert\n    tag_40:\n      pop\n      tag_41\n      tag_42\n      jump\t// in\n    tag_41:\n      mload(0x40)\n      tag_43\n      swap2\n      swap1\n      tag_34\n      jump\t// in\n    tag_43:\n      mload(0x40)\n      dup1\n      swap2\n      sub\n      swap1\n      return\n        /* \"contracts/donationspool.sol\":3812:4098  function doLottery() payable public donationsclosed returns(address) {... */\n    tag_6:\n      tag_44\n      tag_45\n      jump\t// in\n    tag_44:\n      mload(0x40)\n      tag_46\n      swap2\n      swap1\n      tag_39\n      jump\t// in\n    tag_46:\n      mload(0x40)\n      dup1\n      swap2\n      sub\n      swap1\n      return\n        /* \"contracts/donationspool.sol\":893:932  uint public startTime = block.timestamp */\n    tag_7:\n      callvalue\n      dup1\n      iszero\n      tag_47\n      jumpi\n      0x00\n      dup1\n      revert\n    tag_47:\n      pop\n      tag_48\n      tag_49\n      jump\t// in\n    tag_48:\n      mload(0x40)\n      tag_50\n      swap2\n      swap1\n      tag_34\n      jump\t// in\n    tag_50:\n      mload(0x40)\n      dup1\n      swap2\n      sub\n      swap1\n      return\n        /* \"contracts/donationspool.sol\":3083:3401  function sendCT() payable public {... */\n    tag_8:\n      tag_51\n      tag_52\n      jump\t// in\n    tag_51:\n      stop\n        /* \"contracts/donationspool.sol\":1761:1914  function initiateVoting(address _votingAddress) external {... */\n    tag_9:\n      callvalue\n      dup1\n      iszero\n      tag_53\n      jumpi\n      0x00\n      dup1\n      revert\n    tag_53:\n      pop\n      tag_54\n      0x04\n      dup1\n      calldatasize\n      sub\n      dup2\n      add\n      swap1\n      tag_55\n      swap2\n      swap1\n      tag_56\n      jump\t// in\n    tag_55:\n      tag_57\n      jump\t// in\n    tag_54:\n      stop\n        /* \"contracts/donationspool.sol\":3657:3796  function votingresult() public returns (uint) {... */\n    tag_10:\n      callvalue\n      dup1\n      iszero\n      tag_58\n      jumpi\n      0x00\n      dup1\n      revert\n    tag_58:\n      pop\n      tag_59\n      tag_60\n      jump\t// in\n    tag_59:\n      mload(0x40)\n      tag_61\n      swap2\n      swap1\n      tag_34\n      jump\t// in\n    tag_61:\n      mload(0x40)\n      dup1\n      swap2\n      sub\n      swap1\n      return\n        /* \"contracts/donationspool.sol\":800:830  address public lotterycontract */\n    tag_11:\n      callvalue\n      dup1\n      iszero\n      tag_62\n      jumpi\n      0x00\n      dup1\n      revert\n    tag_62:\n      pop\n      tag_63\n      tag_64\n      jump\t// in\n    tag_63:\n      mload(0x40)\n      tag_65\n      swap2\n      swap1\n      tag_39\n      jump\t// in\n    tag_65:\n      mload(0x40)\n      dup1\n      swap2\n      sub\n      swap1\n      return\n        /* \"contracts/donationspool.sol\":3449:3592  function closeDonations() public {... */\n    tag_12:\n      callvalue\n      dup1\n      iszero\n      tag_66\n      jumpi\n      0x00\n      dup1\n      revert\n    tag_66:\n      pop\n      tag_67\n      tag_68\n      jump\t// in\n    tag_67:\n      stop\n        /* \"contracts/donationspool.sol\":1922:2036  function initiateLottery(address _lotteryContract) external {... */\n    tag_13:\n      callvalue\n      dup1\n      iszero\n      tag_69\n      jumpi\n      0x00\n      dup1\n      revert\n    tag_69:\n      pop\n      tag_70\n      0x04\n      dup1\n      calldatasize\n      sub\n      dup2\n      add\n      swap1\n      tag_71\n      swap2\n      swap1\n      tag_56\n      jump\t// in\n    tag_71:\n      tag_72\n      jump\t// in\n    tag_70:\n      stop\n        /* \"contracts/donationspool.sol\":547:572  address[] public donators */\n    tag_14:\n      callvalue\n      dup1\n      iszero\n      tag_73\n      jumpi\n      0x00\n      dup1\n      revert\n    tag_73:\n      pop\n      tag_74\n      0x04\n      dup1\n      calldatasize\n      sub\n      dup2\n      add\n      swap1\n      tag_75\n      swap2\n      swap1\n      tag_26\n      jump\t// in\n    tag_75:\n      tag_76\n      jump\t// in\n    tag_74:\n      mload(0x40)\n      tag_77\n      swap2\n      swap1\n      tag_39\n      jump\t// in\n    tag_77:\n      mload(0x40)\n      dup1\n      swap2\n      sub\n      swap1\n      return\n        /* \"contracts/donationspool.sol\":2350:2589  function updateVoting() public returns(address[] memory){... */\n    tag_15:\n      callvalue\n      dup1\n      iszero\n      tag_78\n      jumpi\n      0x00\n      dup1\n      revert\n    tag_78:\n      pop\n      tag_79\n      tag_80\n      jump\t// in\n    tag_79:\n      mload(0x40)\n      tag_81\n      swap2\n      swap1\n      tag_82\n      jump\t// in\n    tag_81:\n      mload(0x40)\n      dup1\n      swap2\n      sub\n      swap1\n      return\n        /* \"contracts/donationspool.sol\":4106:4206  function sendDonations() payable public donationsclosed onlyCharyteam {... */\n    tag_16:\n      tag_83\n      tag_84\n      jump\t// in\n    tag_83:\n      stop\n        /* \"contracts/donationspool.sol\":515:539  address public charyteam */\n    tag_17:\n      callvalue\n      dup1\n      iszero\n      tag_85\n      jumpi\n      0x00\n      dup1\n      revert\n    tag_85:\n      pop\n      tag_86\n      tag_87\n      jump\t// in\n    tag_86:\n      mload(0x40)\n      tag_88\n      swap2\n      swap1\n      tag_39\n      jump\t// in\n    tag_88:\n      mload(0x40)\n      dup1\n      swap2\n      sub\n      swap1\n      return\n        /* \"contracts/donationspool.sol\":621:644  address[] public voters */\n    tag_18:\n      callvalue\n      dup1\n      iszero\n      tag_89\n      jumpi\n      0x00\n      dup1\n      revert\n    tag_89:\n      pop\n      tag_90\n      0x04\n      dup1\n      calldatasize\n      sub\n      dup2\n      add\n      swap1\n      tag_91\n      swap2\n      swap1\n      tag_26\n      jump\t// in\n    tag_91:\n      tag_92\n      jump\t// in\n    tag_90:\n      mload(0x40)\n      tag_93\n      swap2\n      swap1\n      tag_39\n      jump\t// in\n    tag_93:\n      mload(0x40)\n      dup1\n      swap2\n      sub\n      swap1\n      return\n        /* \"contracts/donationspool.sol\":2072:2340  function donate() payable public {... */\n    tag_19:\n      tag_94\n      tag_95\n      jump\t// in\n    tag_94:\n      stop\n        /* \"contracts/donationspool.sol\":683:716  address payable[] public projects */\n    tag_27:\n      0x03\n      dup2\n      dup2\n      sload\n      dup2\n      lt\n      tag_96\n      jumpi\n      0x00\n      dup1\n      revert\n    tag_96:\n      swap1\n      0x00\n      mstore\n      keccak256(0x00, 0x20)\n      add\n      0x00\n      swap2\n      pop\n      sload\n      swap1\n      0x0100\n      exp\n      swap1\n      div\n      0xffffffffffffffffffffffffffffffffffffffff\n      and\n      dup2\n      jump\t// out\n        /* \"contracts/donationspool.sol\":2616:2750  function getBalance() public view returns(uint) {... */\n    tag_32:\n        /* \"contracts/donationspool.sol\":2658:2662  uint */\n      0x00\n        /* \"contracts/donationspool.sol\":2720:2741  address(this).balance */\n      selfbalance\n        /* \"contracts/donationspool.sol\":2713:2741  return address(this).balance */\n      swap1\n      pop\n        /* \"contracts/donationspool.sol\":2616:2750  function getBalance() public view returns(uint) {... */\n      swap1\n      jump\t// out\n        /* \"contracts/donationspool.sol\":763:792  address public votingcontract */\n    tag_37:\n      0x04\n      0x00\n      swap1\n      sload\n      swap1\n      0x0100\n      exp\n      swap1\n      div\n      0xffffffffffffffffffffffffffffffffffffffff\n      and\n      dup2\n      jump\t// out\n        /* \"contracts/donationspool.sol\":2857:3022  function getCTBalance() public view onlyCharyteam returns(uint) {... */\n    tag_42:\n        /* \"contracts/donationspool.sol\":2915:2919  uint */\n      0x00\n        /* \"contracts/donationspool.sol\":1485:1494  charyteam */\n      dup1\n      0x00\n      swap1\n      sload\n      swap1\n      0x0100\n      exp\n      swap1\n      div\n      0xffffffffffffffffffffffffffffffffffffffff\n      and\n        /* \"contracts/donationspool.sol\":1471:1494  msg.sender == charyteam */\n      0xffffffffffffffffffffffffffffffffffffffff\n      and\n        /* \"contracts/donationspool.sol\":1471:1481  msg.sender */\n      caller\n        /* \"contracts/donationspool.sol\":1471:1494  msg.sender == charyteam */\n      0xffffffffffffffffffffffffffffffffffffffff\n      and\n      eq\n        /* \"contracts/donationspool.sol\":1463:1536  require(msg.sender == charyteam, \"only CharyTeam can call this function\") */\n      tag_100\n      jumpi\n      mload(0x40)\n      0x08c379a000000000000000000000000000000000000000000000000000000000\n      dup2\n      mstore\n      0x04\n      add\n      tag_101\n      swap1\n      tag_102\n      jump\t// in\n    tag_101:\n      mload(0x40)\n      dup1\n      swap2\n      sub\n      swap1\n      revert\n    tag_100:\n        /* \"contracts/donationspool.sol\":2946:2988  0xD4Fc541236927E2EAf8F27606bD7309C1Fc2cbee */\n      0xd4fc541236927e2eaf8f27606bd7309c1fc2cbee\n        /* \"contracts/donationspool.sol\":2939:2999  IERC20(0xD4Fc541236927E2EAf8F27606bD7309C1Fc2cbee).balanceOf */\n      0xffffffffffffffffffffffffffffffffffffffff\n      and\n      0x70a08231\n        /* \"contracts/donationspool.sol\":3008:3012  this */\n      address\n        /* \"contracts/donationspool.sol\":2939:3014  IERC20(0xD4Fc541236927E2EAf8F27606bD7309C1Fc2cbee).balanceOf(address(this)) */\n      mload(0x40)\n      dup3\n      0xffffffff\n      and\n      0xe0\n      shl\n      dup2\n      mstore\n      0x04\n      add\n      tag_104\n      swap2\n      swap1\n      tag_39\n      jump\t// in\n    tag_104:\n      0x20\n      mload(0x40)\n      dup1\n      dup4\n      sub\n      dup2\n      dup7\n      gas\n      staticcall\n      iszero\n      dup1\n      iszero\n      tag_106\n      jumpi\n      returndatasize\n      0x00\n      dup1\n      returndatacopy\n      revert(0x00, returndatasize)\n    tag_106:\n      pop\n      pop\n      pop\n      pop\n      mload(0x40)\n      returndatasize\n      not(0x1f)\n      0x1f\n      dup3\n      add\n      and\n      dup3\n      add\n      dup1\n      0x40\n      mstore\n      pop\n      dup2\n      add\n      swap1\n      tag_107\n      swap2\n      swap1\n      tag_108\n      jump\t// in\n    tag_107:\n        /* \"contracts/donationspool.sol\":2932:3014  return IERC20(0xD4Fc541236927E2EAf8F27606bD7309C1Fc2cbee).balanceOf(address(this)) */\n      swap1\n      pop\n        /* \"contracts/donationspool.sol\":2857:3022  function getCTBalance() public view onlyCharyteam returns(uint) {... */\n      swap1\n      jump\t// out\n        /* \"contracts/donationspool.sol\":3812:4098  function doLottery() payable public donationsclosed returns(address) {... */\n    tag_45:\n        /* \"contracts/donationspool.sol\":3872:3879  address */\n      0x00\n        /* \"contracts/donationspool.sol\":1314:1319  false */\n      dup1\n        /* \"contracts/donationspool.sol\":1297:1319  donationsopen == false */\n      iszero\n      iszero\n        /* \"contracts/donationspool.sol\":1297:1310  donationsopen */\n      0x07\n      0x00\n      swap1\n      sload\n      swap1\n      0x0100\n      exp\n      swap1\n      div\n      0xff\n      and\n        /* \"contracts/donationspool.sol\":1297:1319  donationsopen == false */\n      iszero\n      iszero\n      eq\n        /* \"contracts/donationspool.sol\":1289:1359  require(donationsopen == false, \"Spenden werden nicht mehr gesammelt\") */\n      tag_110\n      jumpi\n      mload(0x40)\n      0x08c379a000000000000000000000000000000000000000000000000000000000\n      dup2\n      mstore\n      0x04\n      add\n      tag_111\n      swap1\n      tag_112\n      jump\t// in\n    tag_111:\n      mload(0x40)\n      dup1\n      swap2\n      sub\n      swap1\n      revert\n    tag_110:\n        /* \"contracts/donationspool.sol\":3892:3902  ILottery l */\n      0x00\n        /* \"contracts/donationspool.sol\":3914:3929  lotterycontract */\n      0x05\n      0x00\n      swap1\n      sload\n      swap1\n      0x0100\n      exp\n      swap1\n      div\n      0xffffffffffffffffffffffffffffffffffffffff\n      and\n        /* \"contracts/donationspool.sol\":3892:3930  ILottery l = ILottery(lotterycontract) */\n      swap1\n      pop\n        /* \"contracts/donationspool.sol\":3942:3943  l */\n      dup1\n        /* \"contracts/donationspool.sol\":3942:3956  l.enterLottery */\n      0xffffffffffffffffffffffffffffffffffffffff\n      and\n      0xc129800d\n        /* \"contracts/donationspool.sol\":3957:3965  donators */\n      0x01\n        /* \"contracts/donationspool.sol\":3942:3966  l.enterLottery(donators) */\n      mload(0x40)\n      dup3\n      0xffffffff\n      and\n      0xe0\n      shl\n      dup2\n      mstore\n      0x04\n      add\n      tag_114\n      swap2\n      swap1\n      tag_115\n      jump\t// in\n    tag_114:\n      0x20\n      mload(0x40)\n      dup1\n      dup4\n      sub\n      dup2\n      0x00\n      dup8\n      gas\n      call\n      iszero\n      dup1\n      iszero\n      tag_117\n      jumpi\n      returndatasize\n      0x00\n      dup1\n      returndatacopy\n      revert(0x00, returndatasize)\n    tag_117:\n      pop\n      pop\n      pop\n      pop\n      mload(0x40)\n      returndatasize\n      not(0x1f)\n      0x1f\n      dup3\n      add\n      and\n      dup3\n      add\n      dup1\n      0x40\n      mstore\n      pop\n      dup2\n      add\n      swap1\n      tag_118\n      swap2\n      swap1\n      tag_119\n      jump\t// in\n    tag_118:\n      pop\n        /* \"contracts/donationspool.sol\":3984:3985  l */\n      dup1\n        /* \"contracts/donationspool.sol\":3984:3995  l.getWinner */\n      0xffffffffffffffffffffffffffffffffffffffff\n      and\n      0x8e7ea5b2\n        /* \"contracts/donationspool.sol\":3984:3997  l.getWinner() */\n      mload(0x40)\n      dup2\n      0xffffffff\n      and\n      0xe0\n      shl\n      dup2\n      mstore\n      0x04\n      add\n      0x20\n      mload(0x40)\n      dup1\n      dup4\n      sub\n      dup2\n      0x00\n      dup8\n      gas\n      call\n      iszero\n      dup1\n      iszero\n      tag_121\n      jumpi\n      returndatasize\n      0x00\n      dup1\n      returndatacopy\n      revert(0x00, returndatasize)\n    tag_121:\n      pop\n      pop\n      pop\n      pop\n      mload(0x40)\n      returndatasize\n      not(0x1f)\n      0x1f\n      dup3\n      add\n      and\n      dup3\n      add\n      dup1\n      0x40\n      mstore\n      pop\n      dup2\n      add\n      swap1\n      tag_122\n      swap2\n      swap1\n      tag_123\n      jump\t// in\n    tag_122:\n        /* \"contracts/donationspool.sol\":3977:3997  return l.getWinner() */\n      swap2\n      pop\n      pop\n        /* \"contracts/donationspool.sol\":3812:4098  function doLottery() payable public donationsclosed returns(address) {... */\n      swap1\n      jump\t// out\n        /* \"contracts/donationspool.sol\":893:932  uint public startTime = block.timestamp */\n    tag_49:\n      sload(0x08)\n      dup2\n      jump\t// out\n        /* \"contracts/donationspool.sol\":3083:3401  function sendCT() payable public {... */\n    tag_52:\n        /* \"contracts/donationspool.sol\":3162:3173  uint tempCT */\n      0x00\n        /* \"contracts/donationspool.sol\":3183:3225  0xD4Fc541236927E2EAf8F27606bD7309C1Fc2cbee */\n      0xd4fc541236927e2eaf8f27606bd7309c1fc2cbee\n        /* \"contracts/donationspool.sol\":3176:3236  IERC20(0xD4Fc541236927E2EAf8F27606bD7309C1Fc2cbee).balanceOf */\n      0xffffffffffffffffffffffffffffffffffffffff\n      and\n      0x70a08231\n        /* \"contracts/donationspool.sol\":3237:3247  msg.sender */\n      caller\n        /* \"contracts/donationspool.sol\":3176:3248  IERC20(0xD4Fc541236927E2EAf8F27606bD7309C1Fc2cbee).balanceOf(msg.sender) */\n      mload(0x40)\n      dup3\n      0xffffffff\n      and\n      0xe0\n      shl\n      dup2\n      mstore\n      0x04\n      add\n      tag_125\n      swap2\n      swap1\n      tag_39\n      jump\t// in\n    tag_125:\n      0x20\n      mload(0x40)\n      dup1\n      dup4\n      sub\n      dup2\n      dup7\n      gas\n      staticcall\n      iszero\n      dup1\n      iszero\n      tag_127\n      jumpi\n      returndatasize\n      0x00\n      dup1\n      returndatacopy\n      revert(0x00, returndatasize)\n    tag_127:\n      pop\n      pop\n      pop\n      pop\n      mload(0x40)\n      returndatasize\n      not(0x1f)\n      0x1f\n      dup3\n      add\n      and\n      dup3\n      add\n      dup1\n      0x40\n      mstore\n      pop\n      dup2\n      add\n      swap1\n      tag_128\n      swap2\n      swap1\n      tag_108\n      jump\t// in\n    tag_128:\n        /* \"contracts/donationspool.sol\":3162:3248  uint tempCT = IERC20(0xD4Fc541236927E2EAf8F27606bD7309C1Fc2cbee).balanceOf(msg.sender) */\n      swap1\n      pop\n        /* \"contracts/donationspool.sol\":3277:3278  0 */\n      0x00\n        /* \"contracts/donationspool.sol\":3267:3273  tempCT */\n      dup2\n        /* \"contracts/donationspool.sol\":3267:3278  tempCT == 0 */\n      eq\n        /* \"contracts/donationspool.sol\":3259:3306  require(tempCT == 0, \"sender already has a CT\") */\n      tag_129\n      jumpi\n      mload(0x40)\n      0x08c379a000000000000000000000000000000000000000000000000000000000\n      dup2\n      mstore\n      0x04\n      add\n      tag_130\n      swap1\n      tag_131\n      jump\t// in\n    tag_130:\n      mload(0x40)\n      dup1\n      swap2\n      sub\n      swap1\n      revert\n    tag_129:\n        /* \"contracts/donationspool.sol\":3325:3367  0xD4Fc541236927E2EAf8F27606bD7309C1Fc2cbee */\n      0xd4fc541236927e2eaf8f27606bd7309c1fc2cbee\n        /* \"contracts/donationspool.sol\":3318:3377  IERC20(0xD4Fc541236927E2EAf8F27606bD7309C1Fc2cbee).transfer */\n      0xffffffffffffffffffffffffffffffffffffffff\n      and\n      0xa9059cbb\n        /* \"contracts/donationspool.sol\":3378:3388  msg.sender */\n      caller\n        /* \"contracts/donationspool.sol\":3390:3391  1 */\n      0x01\n        /* \"contracts/donationspool.sol\":3318:3392  IERC20(0xD4Fc541236927E2EAf8F27606bD7309C1Fc2cbee).transfer(msg.sender, 1) */\n      mload(0x40)\n      dup4\n      0xffffffff\n      and\n      0xe0\n      shl\n      dup2\n      mstore\n      0x04\n      add\n      tag_132\n      swap3\n      swap2\n      swap1\n      tag_133\n      jump\t// in\n    tag_132:\n      0x20\n      mload(0x40)\n      dup1\n      dup4\n      sub\n      dup2\n      0x00\n      dup8\n      gas\n      call\n      iszero\n      dup1\n      iszero\n      tag_135\n      jumpi\n      returndatasize\n      0x00\n      dup1\n      returndatacopy\n      revert(0x00, returndatasize)\n    tag_135:\n      pop\n      pop\n      pop\n      pop\n      mload(0x40)\n      returndatasize\n      not(0x1f)\n      0x1f\n      dup3\n      add\n      and\n      dup3\n      add\n      dup1\n      0x40\n      mstore\n      pop\n      dup2\n      add\n      swap1\n      tag_136\n      swap2\n      swap1\n      tag_119\n      jump\t// in\n    tag_136:\n      pop\n        /* \"contracts/donationspool.sol\":3116:3401  {... */\n      pop\n        /* \"contracts/donationspool.sol\":3083:3401  function sendCT() payable public {... */\n      jump\t// out\n        /* \"contracts/donationspool.sol\":1761:1914  function initiateVoting(address _votingAddress) external {... */\n    tag_57:\n        /* \"contracts/donationspool.sol\":1891:1905  _votingAddress */\n      dup1\n        /* \"contracts/donationspool.sol\":1874:1888  votingcontract */\n      0x04\n      0x00\n        /* \"contracts/donationspool.sol\":1874:1905  votingcontract = _votingAddress */\n      0x0100\n      exp\n      dup2\n      sload\n      dup2\n      0xffffffffffffffffffffffffffffffffffffffff\n      mul\n      not\n      and\n      swap1\n      dup4\n      0xffffffffffffffffffffffffffffffffffffffff\n      and\n      mul\n      or\n      swap1\n      sstore\n      pop\n        /* \"contracts/donationspool.sol\":1761:1914  function initiateVoting(address _votingAddress) external {... */\n      pop\n      jump\t// out\n        /* \"contracts/donationspool.sol\":3657:3796  function votingresult() public returns (uint) {... */\n    tag_60:\n        /* \"contracts/donationspool.sol\":3697:3701  uint */\n      0x00\n        /* \"contracts/donationspool.sol\":3714:3723  IVoting v */\n      dup1\n        /* \"contracts/donationspool.sol\":3734:3748  votingcontract */\n      0x04\n      0x00\n      swap1\n      sload\n      swap1\n      0x0100\n      exp\n      swap1\n      div\n      0xffffffffffffffffffffffffffffffffffffffff\n      and\n        /* \"contracts/donationspool.sol\":3714:3749  IVoting v = IVoting(votingcontract) */\n      swap1\n      pop\n        /* \"contracts/donationspool.sol\":3768:3769  v */\n      dup1\n        /* \"contracts/donationspool.sol\":3768:3785  v.getVotingWinner */\n      0xffffffffffffffffffffffffffffffffffffffff\n      and\n      0x94bec071\n        /* \"contracts/donationspool.sol\":3768:3787  v.getVotingWinner() */\n      mload(0x40)\n      dup2\n      0xffffffff\n      and\n      0xe0\n      shl\n      dup2\n      mstore\n      0x04\n      add\n      0x20\n      mload(0x40)\n      dup1\n      dup4\n      sub\n      dup2\n      0x00\n      dup8\n      gas\n      call\n      iszero\n      dup1\n      iszero\n      tag_140\n      jumpi\n      returndatasize\n      0x00\n      dup1\n      returndatacopy\n      revert(0x00, returndatasize)\n    tag_140:\n      pop\n      pop\n      pop\n      pop\n      mload(0x40)\n      returndatasize\n      not(0x1f)\n      0x1f\n      dup3\n      add\n      and\n      dup3\n      add\n      dup1\n      0x40\n      mstore\n      pop\n      dup2\n      add\n      swap1\n      tag_141\n      swap2\n      swap1\n      tag_108\n      jump\t// in\n    tag_141:\n        /* \"contracts/donationspool.sol\":3761:3787  return v.getVotingWinner() */\n      swap2\n      pop\n      pop\n        /* \"contracts/donationspool.sol\":3657:3796  function votingresult() public returns (uint) {... */\n      swap1\n      jump\t// out\n        /* \"contracts/donationspool.sol\":800:830  address public lotterycontract */\n    tag_64:\n      0x05\n      0x00\n      swap1\n      sload\n      swap1\n      0x0100\n      exp\n      swap1\n      div\n      0xffffffffffffffffffffffffffffffffffffffff\n      and\n      dup2\n      jump\t// out\n        /* \"contracts/donationspool.sol\":3449:3592  function closeDonations() public {... */\n    tag_68:\n        /* \"contracts/donationspool.sol\":3514:3518  true */\n      0x01\n        /* \"contracts/donationspool.sol\":3497:3518  donationsopen == true */\n      iszero\n      iszero\n        /* \"contracts/donationspool.sol\":3497:3510  donationsopen */\n      0x07\n      0x00\n      swap1\n      sload\n      swap1\n      0x0100\n      exp\n      swap1\n      div\n      0xff\n      and\n        /* \"contracts/donationspool.sol\":3497:3518  donationsopen == true */\n      iszero\n      iszero\n      eq\n        /* \"contracts/donationspool.sol\":3497:3560  donationsopen == true && block.timestamp >= startTime + 30 days */\n      dup1\n      iszero\n      tag_143\n      jumpi\n      pop\n        /* \"contracts/donationspool.sol\":3553:3560  30 days */\n      0x278d00\n        /* \"contracts/donationspool.sol\":3541:3550  startTime */\n      sload(0x08)\n        /* \"contracts/donationspool.sol\":3541:3560  startTime + 30 days */\n      tag_144\n      swap2\n      swap1\n      tag_145\n      jump\t// in\n    tag_144:\n        /* \"contracts/donationspool.sol\":3522:3537  block.timestamp */\n      timestamp\n        /* \"contracts/donationspool.sol\":3522:3560  block.timestamp >= startTime + 30 days */\n      lt\n      iszero\n        /* \"contracts/donationspool.sol\":3497:3560  donationsopen == true && block.timestamp >= startTime + 30 days */\n    tag_143:\n        /* \"contracts/donationspool.sol\":3493:3583  if (donationsopen == true && block.timestamp >= startTime + 30 days) donationsopen = false */\n      iszero\n      tag_146\n      jumpi\n        /* \"contracts/donationspool.sol\":3578:3583  false */\n      0x00\n        /* \"contracts/donationspool.sol\":3562:3575  donationsopen */\n      0x07\n      0x00\n        /* \"contracts/donationspool.sol\":3562:3583  donationsopen = false */\n      0x0100\n      exp\n      dup2\n      sload\n      dup2\n      0xff\n      mul\n      not\n      and\n      swap1\n      dup4\n      iszero\n      iszero\n      mul\n      or\n      swap1\n      sstore\n      pop\n        /* \"contracts/donationspool.sol\":3493:3583  if (donationsopen == true && block.timestamp >= startTime + 30 days) donationsopen = false */\n    tag_146:\n        /* \"contracts/donationspool.sol\":3449:3592  function closeDonations() public {... */\n      jump\t// out\n        /* \"contracts/donationspool.sol\":1922:2036  function initiateLottery(address _lotteryContract) external {... */\n    tag_72:\n        /* \"contracts/donationspool.sol\":2011:2027  _lotteryContract */\n      dup1\n        /* \"contracts/donationspool.sol\":1993:2008  lotterycontract */\n      0x05\n      0x00\n        /* \"contracts/donationspool.sol\":1993:2027  lotterycontract = _lotteryContract */\n      0x0100\n      exp\n      dup2\n      sload\n      dup2\n      0xffffffffffffffffffffffffffffffffffffffff\n      mul\n      not\n      and\n      swap1\n      dup4\n      0xffffffffffffffffffffffffffffffffffffffff\n      and\n      mul\n      or\n      swap1\n      sstore\n      pop\n        /* \"contracts/donationspool.sol\":1922:2036  function initiateLottery(address _lotteryContract) external {... */\n      pop\n      jump\t// out\n        /* \"contracts/donationspool.sol\":547:572  address[] public donators */\n    tag_76:\n      0x01\n      dup2\n      dup2\n      sload\n      dup2\n      lt\n      tag_148\n      jumpi\n      0x00\n      dup1\n      revert\n    tag_148:\n      swap1\n      0x00\n      mstore\n      keccak256(0x00, 0x20)\n      add\n      0x00\n      swap2\n      pop\n      sload\n      swap1\n      0x0100\n      exp\n      swap1\n      div\n      0xffffffffffffffffffffffffffffffffffffffff\n      and\n      dup2\n      jump\t// out\n        /* \"contracts/donationspool.sol\":2350:2589  function updateVoting() public returns(address[] memory){... */\n    tag_80:\n        /* \"contracts/donationspool.sol\":2389:2405  address[] memory */\n      0x60\n        /* \"contracts/donationspool.sol\":2471:2480  IVoting v */\n      0x00\n        /* \"contracts/donationspool.sol\":2491:2505  votingcontract */\n      0x04\n      0x00\n      swap1\n      sload\n      swap1\n      0x0100\n      exp\n      swap1\n      div\n      0xffffffffffffffffffffffffffffffffffffffff\n      and\n        /* \"contracts/donationspool.sol\":2471:2506  IVoting v = IVoting(votingcontract) */\n      swap1\n      pop\n        /* \"contracts/donationspool.sol\":2527:2528  v */\n      dup1\n        /* \"contracts/donationspool.sol\":2527:2538  v.getVoters */\n      0xffffffffffffffffffffffffffffffffffffffff\n      and\n      0xcdd72253\n        /* \"contracts/donationspool.sol\":2527:2540  v.getVoters() */\n      mload(0x40)\n      dup2\n      0xffffffff\n      and\n      0xe0\n      shl\n      dup2\n      mstore\n      0x04\n      add\n      0x00\n      mload(0x40)\n      dup1\n      dup4\n      sub\n      dup2\n      0x00\n      dup8\n      gas\n      call\n      iszero\n      dup1\n      iszero\n      tag_152\n      jumpi\n      returndatasize\n      0x00\n      dup1\n      returndatacopy\n      revert(0x00, returndatasize)\n    tag_152:\n      pop\n      pop\n      pop\n      pop\n      mload(0x40)\n      returndatasize\n      0x00\n      dup3\n      returndatacopy\n      returndatasize\n      not(0x1f)\n      0x1f\n      dup3\n      add\n      and\n      dup3\n      add\n      dup1\n      0x40\n      mstore\n      pop\n      dup2\n      add\n      swap1\n      tag_153\n      swap2\n      swap1\n      tag_154\n      jump\t// in\n    tag_153:\n        /* \"contracts/donationspool.sol\":2518:2524  voters */\n      0x02\n        /* \"contracts/donationspool.sol\":2518:2540  voters = v.getVoters() */\n      swap1\n      dup1\n      mload\n      swap1\n      0x20\n      add\n      swap1\n      tag_155\n      swap3\n      swap2\n      swap1\n      tag_156\n      jump\t// in\n    tag_155:\n      pop\n        /* \"contracts/donationspool.sol\":2574:2580  voters */\n      0x02\n        /* \"contracts/donationspool.sol\":2567:2580  return voters */\n      dup1\n      sload\n      dup1\n      0x20\n      mul\n      0x20\n      add\n      mload(0x40)\n      swap1\n      dup2\n      add\n      0x40\n      mstore\n      dup1\n      swap3\n      swap2\n      swap1\n      dup2\n      dup2\n      mstore\n      0x20\n      add\n      dup3\n      dup1\n      sload\n      dup1\n      iszero\n      tag_157\n      jumpi\n      0x20\n      mul\n      dup3\n      add\n      swap2\n      swap1\n      0x00\n      mstore\n      keccak256(0x00, 0x20)\n      swap1\n    tag_158:\n      dup2\n      0x00\n      swap1\n      sload\n      swap1\n      0x0100\n      exp\n      swap1\n      div\n      0xffffffffffffffffffffffffffffffffffffffff\n      and\n      0xffffffffffffffffffffffffffffffffffffffff\n      and\n      dup2\n      mstore\n      0x20\n      add\n      swap1\n      0x01\n      add\n      swap1\n      dup1\n      dup4\n      gt\n      tag_158\n      jumpi\n    tag_157:\n      pop\n      pop\n      pop\n      pop\n      pop\n      swap2\n      pop\n      pop\n        /* \"contracts/donationspool.sol\":2350:2589  function updateVoting() public returns(address[] memory){... */\n      swap1\n      jump\t// out\n        /* \"contracts/donationspool.sol\":4106:4206  function sendDonations() payable public donationsclosed onlyCharyteam {... */\n    tag_84:\n        /* \"contracts/donationspool.sol\":1314:1319  false */\n      0x00\n        /* \"contracts/donationspool.sol\":1297:1319  donationsopen == false */\n      iszero\n      iszero\n        /* \"contracts/donationspool.sol\":1297:1310  donationsopen */\n      0x07\n      0x00\n      swap1\n      sload\n      swap1\n      0x0100\n      exp\n      swap1\n      div\n      0xff\n      and\n        /* \"contracts/donationspool.sol\":1297:1319  donationsopen == false */\n      iszero\n      iszero\n      eq\n        /* \"contracts/donationspool.sol\":1289:1359  require(donationsopen == false, \"Spenden werden nicht mehr gesammelt\") */\n      tag_160\n      jumpi\n      mload(0x40)\n      0x08c379a000000000000000000000000000000000000000000000000000000000\n      dup2\n      mstore\n      0x04\n      add\n      tag_161\n      swap1\n      tag_112\n      jump\t// in\n    tag_161:\n      mload(0x40)\n      dup1\n      swap2\n      sub\n      swap1\n      revert\n    tag_160:\n        /* \"contracts/donationspool.sol\":1485:1494  charyteam */\n      0x00\n      dup1\n      sload\n      swap1\n      0x0100\n      exp\n      swap1\n      div\n      0xffffffffffffffffffffffffffffffffffffffff\n      and\n        /* \"contracts/donationspool.sol\":1471:1494  msg.sender == charyteam */\n      0xffffffffffffffffffffffffffffffffffffffff\n      and\n        /* \"contracts/donationspool.sol\":1471:1481  msg.sender */\n      caller\n        /* \"contracts/donationspool.sol\":1471:1494  msg.sender == charyteam */\n      0xffffffffffffffffffffffffffffffffffffffff\n      and\n      eq\n        /* \"contracts/donationspool.sol\":1463:1536  require(msg.sender == charyteam, \"only CharyTeam can call this function\") */\n      tag_163\n      jumpi\n      mload(0x40)\n      0x08c379a000000000000000000000000000000000000000000000000000000000\n      dup2\n      mstore\n      0x04\n      add\n      tag_164\n      swap1\n      tag_102\n      jump\t// in\n    tag_164:\n      mload(0x40)\n      dup1\n      swap2\n      sub\n      swap1\n      revert\n    tag_163:\n        /* \"contracts/donationspool.sol\":4106:4206  function sendDonations() payable public donationsclosed onlyCharyteam {... */\n      jump\t// out\n        /* \"contracts/donationspool.sol\":515:539  address public charyteam */\n    tag_87:\n      0x00\n      dup1\n      sload\n      swap1\n      0x0100\n      exp\n      swap1\n      div\n      0xffffffffffffffffffffffffffffffffffffffff\n      and\n      dup2\n      jump\t// out\n        /* \"contracts/donationspool.sol\":621:644  address[] public voters */\n    tag_92:\n      0x02\n      dup2\n      dup2\n      sload\n      dup2\n      lt\n      tag_166\n      jumpi\n      0x00\n      dup1\n      revert\n    tag_166:\n      swap1\n      0x00\n      mstore\n      keccak256(0x00, 0x20)\n      add\n      0x00\n      swap2\n      pop\n      sload\n      swap1\n      0x0100\n      exp\n      swap1\n      div\n      0xffffffffffffffffffffffffffffffffffffffff\n      and\n      dup2\n      jump\t// out\n        /* \"contracts/donationspool.sol\":2072:2340  function donate() payable public {... */\n    tag_95:\n        /* \"contracts/donationspool.sol\":2164:2173  0.1 ether */\n      0x016345785d8a0000\n        /* \"contracts/donationspool.sol\":2151:2160  msg.value */\n      callvalue\n        /* \"contracts/donationspool.sol\":2151:2173  msg.value >= 0.1 ether */\n      lt\n      iszero\n        /* \"contracts/donationspool.sol\":2143:2205  require(msg.value >= 0.1 ether, \"Invest minimum of 0.1 ether\") */\n      tag_169\n      jumpi\n      mload(0x40)\n      0x08c379a000000000000000000000000000000000000000000000000000000000\n      dup2\n      mstore\n      0x04\n      add\n      tag_170\n      swap1\n      tag_171\n      jump\t// in\n    tag_170:\n      mload(0x40)\n      dup1\n      swap2\n      sub\n      swap1\n      revert\n    tag_169:\n        /* \"contracts/donationspool.sol\":2258:2266  donators */\n      0x01\n        /* \"contracts/donationspool.sol\":2272:2282  msg.sender */\n      caller\n        /* \"contracts/donationspool.sol\":2258:2283  donators.push(msg.sender) */\n      swap1\n      dup1\n      0x01\n      dup2\n      sload\n      add\n      dup1\n      dup3\n      sstore\n      dup1\n      swap2\n      pop\n      pop\n      0x01\n      swap1\n      sub\n      swap1\n      0x00\n      mstore\n      keccak256(0x00, 0x20)\n      add\n      0x00\n      swap1\n      swap2\n      swap1\n      swap2\n      swap1\n      swap2\n      0x0100\n      exp\n      dup2\n      sload\n      dup2\n      0xffffffffffffffffffffffffffffffffffffffff\n      mul\n      not\n      and\n      swap1\n      dup4\n      0xffffffffffffffffffffffffffffffffffffffff\n      and\n      mul\n      or\n      swap1\n      sstore\n      pop\n        /* \"contracts/donationspool.sol\":2295:2303  sendCT() */\n      tag_173\n        /* \"contracts/donationspool.sol\":2295:2301  sendCT */\n      tag_52\n        /* \"contracts/donationspool.sol\":2295:2303  sendCT() */\n      jump\t// in\n    tag_173:\n        /* \"contracts/donationspool.sol\":2072:2340  function donate() payable public {... */\n      jump\t// out\n    tag_156:\n      dup3\n      dup1\n      sload\n      dup3\n      dup3\n      sstore\n      swap1\n      0x00\n      mstore\n      keccak256(0x00, 0x20)\n      swap1\n      dup2\n      add\n      swap3\n      dup3\n      iszero\n      tag_174\n      jumpi\n      swap2\n      0x20\n      mul\n      dup3\n      add\n    tag_175:\n      dup3\n      dup2\n      gt\n      iszero\n      tag_176\n      jumpi\n      dup3\n      mload\n      dup3\n      exp(0x0100, 0x00)\n      dup2\n      sload\n      dup2\n      0xffffffffffffffffffffffffffffffffffffffff\n      mul\n      not\n      and\n      swap1\n      dup4\n      0xffffffffffffffffffffffffffffffffffffffff\n      and\n      mul\n      or\n      swap1\n      sstore\n      pop\n      swap2\n      0x20\n      add\n      swap2\n      swap1\n      0x01\n      add\n      swap1\n      jump(tag_175)\n    tag_176:\n    tag_174:\n      pop\n      swap1\n      pop\n      tag_177\n      swap2\n      swap1\n      tag_178\n      jump\t// in\n    tag_177:\n      pop\n      swap1\n      jump\t// out\n    tag_178:\n    tag_179:\n      dup1\n      dup3\n      gt\n      iszero\n      tag_180\n      jumpi\n      0x00\n      dup2\n      0x00\n      swap1\n      sstore\n      pop\n      0x01\n      add\n      jump(tag_179)\n    tag_180:\n      pop\n      swap1\n      jump\t// out\n        /* \"#utility.yul\":7:82   */\n    tag_181:\n        /* \"#utility.yul\":40:46   */\n      0x00\n        /* \"#utility.yul\":73:75   */\n      0x40\n        /* \"#utility.yul\":67:76   */\n      mload\n        /* \"#utility.yul\":57:76   */\n      swap1\n      pop\n        /* \"#utility.yul\":7:82   */\n      swap1\n      jump\t// out\n        /* \"#utility.yul\":88:205   */\n    tag_182:\n        /* \"#utility.yul\":197:198   */\n      0x00\n        /* \"#utility.yul\":194:195   */\n      dup1\n        /* \"#utility.yul\":187:199   */\n      revert\n        /* \"#utility.yul\":211:328   */\n    tag_183:\n        /* \"#utility.yul\":320:321   */\n      0x00\n        /* \"#utility.yul\":317:318   */\n      dup1\n        /* \"#utility.yul\":310:322   */\n      revert\n        /* \"#utility.yul\":334:411   */\n    tag_184:\n        /* \"#utility.yul\":371:378   */\n      0x00\n        /* \"#utility.yul\":400:405   */\n      dup2\n        /* \"#utility.yul\":389:405   */\n      swap1\n      pop\n        /* \"#utility.yul\":334:411   */\n      swap2\n      swap1\n      pop\n      jump\t// out\n        /* \"#utility.yul\":417:539   */\n    tag_185:\n        /* \"#utility.yul\":490:514   */\n      tag_244\n        /* \"#utility.yul\":508:513   */\n      dup2\n        /* \"#utility.yul\":490:514   */\n      tag_184\n      jump\t// in\n    tag_244:\n        /* \"#utility.yul\":483:488   */\n      dup2\n        /* \"#utility.yul\":480:515   */\n      eq\n        /* \"#utility.yul\":470:533   */\n      tag_245\n      jumpi\n        /* \"#utility.yul\":529:530   */\n      0x00\n        /* \"#utility.yul\":526:527   */\n      dup1\n        /* \"#utility.yul\":519:531   */\n      revert\n        /* \"#utility.yul\":470:533   */\n    tag_245:\n        /* \"#utility.yul\":417:539   */\n      pop\n      jump\t// out\n        /* \"#utility.yul\":545:684   */\n    tag_186:\n        /* \"#utility.yul\":591:596   */\n      0x00\n        /* \"#utility.yul\":629:635   */\n      dup2\n        /* \"#utility.yul\":616:636   */\n      calldataload\n        /* \"#utility.yul\":607:636   */\n      swap1\n      pop\n        /* \"#utility.yul\":645:678   */\n      tag_247\n        /* \"#utility.yul\":672:677   */\n      dup2\n        /* \"#utility.yul\":645:678   */\n      tag_185\n      jump\t// in\n    tag_247:\n        /* \"#utility.yul\":545:684   */\n      swap3\n      swap2\n      pop\n      pop\n      jump\t// out\n        /* \"#utility.yul\":690:1019   */\n    tag_26:\n        /* \"#utility.yul\":749:755   */\n      0x00\n        /* \"#utility.yul\":798:800   */\n      0x20\n        /* \"#utility.yul\":786:795   */\n      dup3\n        /* \"#utility.yul\":777:784   */\n      dup5\n        /* \"#utility.yul\":773:796   */\n      sub\n        /* \"#utility.yul\":769:801   */\n      slt\n        /* \"#utility.yul\":766:885   */\n      iszero\n      tag_249\n      jumpi\n        /* \"#utility.yul\":804:883   */\n      tag_250\n      tag_182\n      jump\t// in\n    tag_250:\n        /* \"#utility.yul\":766:885   */\n    tag_249:\n        /* \"#utility.yul\":924:925   */\n      0x00\n        /* \"#utility.yul\":949:1002   */\n      tag_251\n        /* \"#utility.yul\":994:1001   */\n      dup5\n        /* \"#utility.yul\":985:991   */\n      dup3\n        /* \"#utility.yul\":974:983   */\n      dup6\n        /* \"#utility.yul\":970:992   */\n      add\n        /* \"#utility.yul\":949:1002   */\n      tag_186\n      jump\t// in\n    tag_251:\n        /* \"#utility.yul\":939:1002   */\n      swap2\n      pop\n        /* \"#utility.yul\":895:1012   */\n      pop\n        /* \"#utility.yul\":690:1019   */\n      swap3\n      swap2\n      pop\n      pop\n      jump\t// out\n        /* \"#utility.yul\":1025:1151   */\n    tag_187:\n        /* \"#utility.yul\":1062:1069   */\n      0x00\n        /* \"#utility.yul\":1102:1144   */\n      0xffffffffffffffffffffffffffffffffffffffff\n        /* \"#utility.yul\":1095:1100   */\n      dup3\n        /* \"#utility.yul\":1091:1145   */\n      and\n        /* \"#utility.yul\":1080:1145   */\n      swap1\n      pop\n        /* \"#utility.yul\":1025:1151   */\n      swap2\n      swap1\n      pop\n      jump\t// out\n        /* \"#utility.yul\":1157:1261   */\n    tag_188:\n        /* \"#utility.yul\":1202:1209   */\n      0x00\n        /* \"#utility.yul\":1231:1255   */\n      tag_254\n        /* \"#utility.yul\":1249:1254   */\n      dup3\n        /* \"#utility.yul\":1231:1255   */\n      tag_187\n      jump\t// in\n    tag_254:\n        /* \"#utility.yul\":1220:1255   */\n      swap1\n      pop\n        /* \"#utility.yul\":1157:1261   */\n      swap2\n      swap1\n      pop\n      jump\t// out\n        /* \"#utility.yul\":1267:1409   */\n    tag_189:\n        /* \"#utility.yul\":1370:1402   */\n      tag_256\n        /* \"#utility.yul\":1396:1401   */\n      dup2\n        /* \"#utility.yul\":1370:1402   */\n      tag_188\n      jump\t// in\n    tag_256:\n        /* \"#utility.yul\":1365:1368   */\n      dup3\n        /* \"#utility.yul\":1358:1403   */\n      mstore\n        /* \"#utility.yul\":1267:1409   */\n      pop\n      pop\n      jump\t// out\n        /* \"#utility.yul\":1415:1669   */\n    tag_29:\n        /* \"#utility.yul\":1524:1528   */\n      0x00\n        /* \"#utility.yul\":1562:1564   */\n      0x20\n        /* \"#utility.yul\":1551:1560   */\n      dup3\n        /* \"#utility.yul\":1547:1565   */\n      add\n        /* \"#utility.yul\":1539:1565   */\n      swap1\n      pop\n        /* \"#utility.yul\":1575:1662   */\n      tag_258\n        /* \"#utility.yul\":1659:1660   */\n      0x00\n        /* \"#utility.yul\":1648:1657   */\n      dup4\n        /* \"#utility.yul\":1644:1661   */\n      add\n        /* \"#utility.yul\":1635:1641   */\n      dup5\n        /* \"#utility.yul\":1575:1662   */\n      tag_189\n      jump\t// in\n    tag_258:\n        /* \"#utility.yul\":1415:1669   */\n      swap3\n      swap2\n      pop\n      pop\n      jump\t// out\n        /* \"#utility.yul\":1675:1793   */\n    tag_190:\n        /* \"#utility.yul\":1762:1786   */\n      tag_260\n        /* \"#utility.yul\":1780:1785   */\n      dup2\n        /* \"#utility.yul\":1762:1786   */\n      tag_184\n      jump\t// in\n    tag_260:\n        /* \"#utility.yul\":1757:1760   */\n      dup3\n        /* \"#utility.yul\":1750:1787   */\n      mstore\n        /* \"#utility.yul\":1675:1793   */\n      pop\n      pop\n      jump\t// out\n        /* \"#utility.yul\":1799:2021   */\n    tag_34:\n        /* \"#utility.yul\":1892:1896   */\n      0x00\n        /* \"#utility.yul\":1930:1932   */\n      0x20\n        /* \"#utility.yul\":1919:1928   */\n      dup3\n        /* \"#utility.yul\":1915:1933   */\n      add\n        /* \"#utility.yul\":1907:1933   */\n      swap1\n      pop\n        /* \"#utility.yul\":1943:2014   */\n      tag_262\n        /* \"#utility.yul\":2011:2012   */\n      0x00\n        /* \"#utility.yul\":2000:2009   */\n      dup4\n        /* \"#utility.yul\":1996:2013   */\n      add\n        /* \"#utility.yul\":1987:1993   */\n      dup5\n        /* \"#utility.yul\":1943:2014   */\n      tag_190\n      jump\t// in\n    tag_262:\n        /* \"#utility.yul\":1799:2021   */\n      swap3\n      swap2\n      pop\n      pop\n      jump\t// out\n        /* \"#utility.yul\":2027:2123   */\n    tag_191:\n        /* \"#utility.yul\":2064:2071   */\n      0x00\n        /* \"#utility.yul\":2093:2117   */\n      tag_264\n        /* \"#utility.yul\":2111:2116   */\n      dup3\n        /* \"#utility.yul\":2093:2117   */\n      tag_187\n      jump\t// in\n    tag_264:\n        /* \"#utility.yul\":2082:2117   */\n      swap1\n      pop\n        /* \"#utility.yul\":2027:2123   */\n      swap2\n      swap1\n      pop\n      jump\t// out\n        /* \"#utility.yul\":2129:2247   */\n    tag_192:\n        /* \"#utility.yul\":2216:2240   */\n      tag_266\n        /* \"#utility.yul\":2234:2239   */\n      dup2\n        /* \"#utility.yul\":2216:2240   */\n      tag_191\n      jump\t// in\n    tag_266:\n        /* \"#utility.yul\":2211:2214   */\n      dup3\n        /* \"#utility.yul\":2204:2241   */\n      mstore\n        /* \"#utility.yul\":2129:2247   */\n      pop\n      pop\n      jump\t// out\n        /* \"#utility.yul\":2253:2475   */\n    tag_39:\n        /* \"#utility.yul\":2346:2350   */\n      0x00\n        /* \"#utility.yul\":2384:2386   */\n      0x20\n        /* \"#utility.yul\":2373:2382   */\n      dup3\n        /* \"#utility.yul\":2369:2387   */\n      add\n        /* \"#utility.yul\":2361:2387   */\n      swap1\n      pop\n        /* \"#utility.yul\":2397:2468   */\n      tag_268\n        /* \"#utility.yul\":2465:2466   */\n      0x00\n        /* \"#utility.yul\":2454:2463   */\n      dup4\n        /* \"#utility.yul\":2450:2467   */\n      add\n        /* \"#utility.yul\":2441:2447   */\n      dup5\n        /* \"#utility.yul\":2397:2468   */\n      tag_192\n      jump\t// in\n    tag_268:\n        /* \"#utility.yul\":2253:2475   */\n      swap3\n      swap2\n      pop\n      pop\n      jump\t// out\n        /* \"#utility.yul\":2481:2603   */\n    tag_193:\n        /* \"#utility.yul\":2554:2578   */\n      tag_270\n        /* \"#utility.yul\":2572:2577   */\n      dup2\n        /* \"#utility.yul\":2554:2578   */\n      tag_191\n      jump\t// in\n    tag_270:\n        /* \"#utility.yul\":2547:2552   */\n      dup2\n        /* \"#utility.yul\":2544:2579   */\n      eq\n        /* \"#utility.yul\":2534:2597   */\n      tag_271\n      jumpi\n        /* \"#utility.yul\":2593:2594   */\n      0x00\n        /* \"#utility.yul\":2590:2591   */\n      dup1\n        /* \"#utility.yul\":2583:2595   */\n      revert\n        /* \"#utility.yul\":2534:2597   */\n    tag_271:\n        /* \"#utility.yul\":2481:2603   */\n      pop\n      jump\t// out\n        /* \"#utility.yul\":2609:2748   */\n    tag_194:\n        /* \"#utility.yul\":2655:2660   */\n      0x00\n        /* \"#utility.yul\":2693:2699   */\n      dup2\n        /* \"#utility.yul\":2680:2700   */\n      calldataload\n        /* \"#utility.yul\":2671:2700   */\n      swap1\n      pop\n        /* \"#utility.yul\":2709:2742   */\n      tag_273\n        /* \"#utility.yul\":2736:2741   */\n      dup2\n        /* \"#utility.yul\":2709:2742   */\n      tag_193\n      jump\t// in\n    tag_273:\n        /* \"#utility.yul\":2609:2748   */\n      swap3\n      swap2\n      pop\n      pop\n      jump\t// out\n        /* \"#utility.yul\":2754:3083   */\n    tag_56:\n        /* \"#utility.yul\":2813:2819   */\n      0x00\n        /* \"#utility.yul\":2862:2864   */\n      0x20\n        /* \"#utility.yul\":2850:2859   */\n      dup3\n        /* \"#utility.yul\":2841:2848   */\n      dup5\n        /* \"#utility.yul\":2837:2860   */\n      sub\n        /* \"#utility.yul\":2833:2865   */\n      slt\n        /* \"#utility.yul\":2830:2949   */\n      iszero\n      tag_275\n      jumpi\n        /* \"#utility.yul\":2868:2947   */\n      tag_276\n      tag_182\n      jump\t// in\n    tag_276:\n        /* \"#utility.yul\":2830:2949   */\n    tag_275:\n        /* \"#utility.yul\":2988:2989   */\n      0x00\n        /* \"#utility.yul\":3013:3066   */\n      tag_277\n        /* \"#utility.yul\":3058:3065   */\n      dup5\n        /* \"#utility.yul\":3049:3055   */\n      dup3\n        /* \"#utility.yul\":3038:3047   */\n      dup6\n        /* \"#utility.yul\":3034:3056   */\n      add\n        /* \"#utility.yul\":3013:3066   */\n      tag_194\n      jump\t// in\n    tag_277:\n        /* \"#utility.yul\":3003:3066   */\n      swap2\n      pop\n        /* \"#utility.yul\":2959:3076   */\n      pop\n        /* \"#utility.yul\":2754:3083   */\n      swap3\n      swap2\n      pop\n      pop\n      jump\t// out\n        /* \"#utility.yul\":3089:3203   */\n    tag_195:\n        /* \"#utility.yul\":3156:3162   */\n      0x00\n        /* \"#utility.yul\":3190:3195   */\n      dup2\n        /* \"#utility.yul\":3184:3196   */\n      mload\n        /* \"#utility.yul\":3174:3196   */\n      swap1\n      pop\n        /* \"#utility.yul\":3089:3203   */\n      swap2\n      swap1\n      pop\n      jump\t// out\n        /* \"#utility.yul\":3209:3393   */\n    tag_196:\n        /* \"#utility.yul\":3308:3319   */\n      0x00\n        /* \"#utility.yul\":3342:3348   */\n      dup3\n        /* \"#utility.yul\":3337:3340   */\n      dup3\n        /* \"#utility.yul\":3330:3349   */\n      mstore\n        /* \"#utility.yul\":3382:3386   */\n      0x20\n        /* \"#utility.yul\":3377:3380   */\n      dup3\n        /* \"#utility.yul\":3373:3387   */\n      add\n        /* \"#utility.yul\":3358:3387   */\n      swap1\n      pop\n        /* \"#utility.yul\":3209:3393   */\n      swap3\n      swap2\n      pop\n      pop\n      jump\t// out\n        /* \"#utility.yul\":3399:3531   */\n    tag_197:\n        /* \"#utility.yul\":3466:3470   */\n      0x00\n        /* \"#utility.yul\":3489:3492   */\n      dup2\n        /* \"#utility.yul\":3481:3492   */\n      swap1\n      pop\n        /* \"#utility.yul\":3519:3523   */\n      0x20\n        /* \"#utility.yul\":3514:3517   */\n      dup3\n        /* \"#utility.yul\":3510:3524   */\n      add\n        /* \"#utility.yul\":3502:3524   */\n      swap1\n      pop\n        /* \"#utility.yul\":3399:3531   */\n      swap2\n      swap1\n      pop\n      jump\t// out\n        /* \"#utility.yul\":3537:3645   */\n    tag_198:\n        /* \"#utility.yul\":3614:3638   */\n      tag_282\n        /* \"#utility.yul\":3632:3637   */\n      dup2\n        /* \"#utility.yul\":3614:3638   */\n      tag_191\n      jump\t// in\n    tag_282:\n        /* \"#utility.yul\":3609:3612   */\n      dup3\n        /* \"#utility.yul\":3602:3639   */\n      mstore\n        /* \"#utility.yul\":3537:3645   */\n      pop\n      pop\n      jump\t// out\n        /* \"#utility.yul\":3651:3830   */\n    tag_199:\n        /* \"#utility.yul\":3720:3730   */\n      0x00\n        /* \"#utility.yul\":3741:3787   */\n      tag_284\n        /* \"#utility.yul\":3783:3786   */\n      dup4\n        /* \"#utility.yul\":3775:3781   */\n      dup4\n        /* \"#utility.yul\":3741:3787   */\n      tag_198\n      jump\t// in\n    tag_284:\n        /* \"#utility.yul\":3819:3823   */\n      0x20\n        /* \"#utility.yul\":3814:3817   */\n      dup4\n        /* \"#utility.yul\":3810:3824   */\n      add\n        /* \"#utility.yul\":3796:3824   */\n      swap1\n      pop\n        /* \"#utility.yul\":3651:3830   */\n      swap3\n      swap2\n      pop\n      pop\n      jump\t// out\n        /* \"#utility.yul\":3836:3949   */\n    tag_200:\n        /* \"#utility.yul\":3906:3910   */\n      0x00\n        /* \"#utility.yul\":3938:3942   */\n      0x20\n        /* \"#utility.yul\":3933:3936   */\n      dup3\n        /* \"#utility.yul\":3929:3943   */\n      add\n        /* \"#utility.yul\":3921:3943   */\n      swap1\n      pop\n        /* \"#utility.yul\":3836:3949   */\n      swap2\n      swap1\n      pop\n      jump\t// out\n        /* \"#utility.yul\":3985:4717   */\n    tag_201:\n        /* \"#utility.yul\":4104:4107   */\n      0x00\n        /* \"#utility.yul\":4133:4187   */\n      tag_287\n        /* \"#utility.yul\":4181:4186   */\n      dup3\n        /* \"#utility.yul\":4133:4187   */\n      tag_195\n      jump\t// in\n    tag_287:\n        /* \"#utility.yul\":4203:4289   */\n      tag_288\n        /* \"#utility.yul\":4282:4288   */\n      dup2\n        /* \"#utility.yul\":4277:4280   */\n      dup6\n        /* \"#utility.yul\":4203:4289   */\n      tag_196\n      jump\t// in\n    tag_288:\n        /* \"#utility.yul\":4196:4289   */\n      swap4\n      pop\n        /* \"#utility.yul\":4313:4369   */\n      tag_289\n        /* \"#utility.yul\":4363:4368   */\n      dup4\n        /* \"#utility.yul\":4313:4369   */\n      tag_197\n      jump\t// in\n    tag_289:\n        /* \"#utility.yul\":4392:4399   */\n      dup1\n        /* \"#utility.yul\":4423:4424   */\n      0x00\n        /* \"#utility.yul\":4408:4692   */\n    tag_290:\n        /* \"#utility.yul\":4433:4439   */\n      dup4\n        /* \"#utility.yul\":4430:4431   */\n      dup2\n        /* \"#utility.yul\":4427:4440   */\n      lt\n        /* \"#utility.yul\":4408:4692   */\n      iszero\n      tag_292\n      jumpi\n        /* \"#utility.yul\":4509:4515   */\n      dup2\n        /* \"#utility.yul\":4503:4516   */\n      mload\n        /* \"#utility.yul\":4536:4599   */\n      tag_293\n        /* \"#utility.yul\":4595:4598   */\n      dup9\n        /* \"#utility.yul\":4580:4593   */\n      dup3\n        /* \"#utility.yul\":4536:4599   */\n      tag_199\n      jump\t// in\n    tag_293:\n        /* \"#utility.yul\":4529:4599   */\n      swap8\n      pop\n        /* \"#utility.yul\":4622:4682   */\n      tag_294\n        /* \"#utility.yul\":4675:4681   */\n      dup4\n        /* \"#utility.yul\":4622:4682   */\n      tag_200\n      jump\t// in\n    tag_294:\n        /* \"#utility.yul\":4612:4682   */\n      swap3\n      pop\n        /* \"#utility.yul\":4468:4692   */\n      pop\n        /* \"#utility.yul\":4455:4456   */\n      0x01\n        /* \"#utility.yul\":4452:4453   */\n      dup2\n        /* \"#utility.yul\":4448:4457   */\n      add\n        /* \"#utility.yul\":4443:4457   */\n      swap1\n      pop\n        /* \"#utility.yul\":4408:4692   */\n      jump(tag_290)\n    tag_292:\n        /* \"#utility.yul\":4412:4426   */\n      pop\n        /* \"#utility.yul\":4708:4711   */\n      dup6\n        /* \"#utility.yul\":4701:4711   */\n      swap4\n      pop\n        /* \"#utility.yul\":4109:4717   */\n      pop\n      pop\n      pop\n        /* \"#utility.yul\":3985:4717   */\n      swap3\n      swap2\n      pop\n      pop\n      jump\t// out\n        /* \"#utility.yul\":4723:5096   */\n    tag_82:\n        /* \"#utility.yul\":4866:4870   */\n      0x00\n        /* \"#utility.yul\":4904:4906   */\n      0x20\n        /* \"#utility.yul\":4893:4902   */\n      dup3\n        /* \"#utility.yul\":4889:4907   */\n      add\n        /* \"#utility.yul\":4881:4907   */\n      swap1\n      pop\n        /* \"#utility.yul\":4953:4962   */\n      dup2\n        /* \"#utility.yul\":4947:4951   */\n      dup2\n        /* \"#utility.yul\":4943:4963   */\n      sub\n        /* \"#utility.yul\":4939:4940   */\n      0x00\n        /* \"#utility.yul\":4928:4937   */\n      dup4\n        /* \"#utility.yul\":4924:4941   */\n      add\n        /* \"#utility.yul\":4917:4964   */\n      mstore\n        /* \"#utility.yul\":4981:5089   */\n      tag_296\n        /* \"#utility.yul\":5084:5088   */\n      dup2\n        /* \"#utility.yul\":5075:5081   */\n      dup5\n        /* \"#utility.yul\":4981:5089   */\n      tag_201\n      jump\t// in\n    tag_296:\n        /* \"#utility.yul\":4973:5089   */\n      swap1\n      pop\n        /* \"#utility.yul\":4723:5096   */\n      swap3\n      swap2\n      pop\n      pop\n      jump\t// out\n        /* \"#utility.yul\":5102:5271   */\n    tag_202:\n        /* \"#utility.yul\":5186:5197   */\n      0x00\n        /* \"#utility.yul\":5220:5226   */\n      dup3\n        /* \"#utility.yul\":5215:5218   */\n      dup3\n        /* \"#utility.yul\":5208:5227   */\n      mstore\n        /* \"#utility.yul\":5260:5264   */\n      0x20\n        /* \"#utility.yul\":5255:5258   */\n      dup3\n        /* \"#utility.yul\":5251:5265   */\n      add\n        /* \"#utility.yul\":5236:5265   */\n      swap1\n      pop\n        /* \"#utility.yul\":5102:5271   */\n      swap3\n      swap2\n      pop\n      pop\n      jump\t// out\n        /* \"#utility.yul\":5277:5501   */\n    tag_203:\n        /* \"#utility.yul\":5417:5451   */\n      0x6f6e6c792043686172795465616d2063616e2063616c6c20746869732066756e\n        /* \"#utility.yul\":5413:5414   */\n      0x00\n        /* \"#utility.yul\":5405:5411   */\n      dup3\n        /* \"#utility.yul\":5401:5415   */\n      add\n        /* \"#utility.yul\":5394:5452   */\n      mstore\n        /* \"#utility.yul\":5486:5493   */\n      0x6374696f6e000000000000000000000000000000000000000000000000000000\n        /* \"#utility.yul\":5481:5483   */\n      0x20\n        /* \"#utility.yul\":5473:5479   */\n      dup3\n        /* \"#utility.yul\":5469:5484   */\n      add\n        /* \"#utility.yul\":5462:5494   */\n      mstore\n        /* \"#utility.yul\":5277:5501   */\n      pop\n      jump\t// out\n        /* \"#utility.yul\":5507:5873   */\n    tag_204:\n        /* \"#utility.yul\":5649:5652   */\n      0x00\n        /* \"#utility.yul\":5670:5737   */\n      tag_300\n        /* \"#utility.yul\":5734:5736   */\n      0x25\n        /* \"#utility.yul\":5729:5732   */\n      dup4\n        /* \"#utility.yul\":5670:5737   */\n      tag_202\n      jump\t// in\n    tag_300:\n        /* \"#utility.yul\":5663:5737   */\n      swap2\n      pop\n        /* \"#utility.yul\":5746:5839   */\n      tag_301\n        /* \"#utility.yul\":5835:5838   */\n      dup3\n        /* \"#utility.yul\":5746:5839   */\n      tag_203\n      jump\t// in\n    tag_301:\n        /* \"#utility.yul\":5864:5866   */\n      0x40\n        /* \"#utility.yul\":5859:5862   */\n      dup3\n        /* \"#utility.yul\":5855:5867   */\n      add\n        /* \"#utility.yul\":5848:5867   */\n      swap1\n      pop\n        /* \"#utility.yul\":5507:5873   */\n      swap2\n      swap1\n      pop\n      jump\t// out\n        /* \"#utility.yul\":5879:6298   */\n    tag_102:\n        /* \"#utility.yul\":6045:6049   */\n      0x00\n        /* \"#utility.yul\":6083:6085   */\n      0x20\n        /* \"#utility.yul\":6072:6081   */\n      dup3\n        /* \"#utility.yul\":6068:6086   */\n      add\n        /* \"#utility.yul\":6060:6086   */\n      swap1\n      pop\n        /* \"#utility.yul\":6132:6141   */\n      dup2\n        /* \"#utility.yul\":6126:6130   */\n      dup2\n        /* \"#utility.yul\":6122:6142   */\n      sub\n        /* \"#utility.yul\":6118:6119   */\n      0x00\n        /* \"#utility.yul\":6107:6116   */\n      dup4\n        /* \"#utility.yul\":6103:6120   */\n      add\n        /* \"#utility.yul\":6096:6143   */\n      mstore\n        /* \"#utility.yul\":6160:6291   */\n      tag_303\n        /* \"#utility.yul\":6286:6290   */\n      dup2\n        /* \"#utility.yul\":6160:6291   */\n      tag_204\n      jump\t// in\n    tag_303:\n        /* \"#utility.yul\":6152:6291   */\n      swap1\n      pop\n        /* \"#utility.yul\":5879:6298   */\n      swap2\n      swap1\n      pop\n      jump\t// out\n        /* \"#utility.yul\":6304:6447   */\n    tag_205:\n        /* \"#utility.yul\":6361:6366   */\n      0x00\n        /* \"#utility.yul\":6392:6398   */\n      dup2\n        /* \"#utility.yul\":6386:6399   */\n      mload\n        /* \"#utility.yul\":6377:6399   */\n      swap1\n      pop\n        /* \"#utility.yul\":6408:6441   */\n      tag_305\n        /* \"#utility.yul\":6435:6440   */\n      dup2\n        /* \"#utility.yul\":6408:6441   */\n      tag_185\n      jump\t// in\n    tag_305:\n        /* \"#utility.yul\":6304:6447   */\n      swap3\n      swap2\n      pop\n      pop\n      jump\t// out\n        /* \"#utility.yul\":6453:6804   */\n    tag_108:\n        /* \"#utility.yul\":6523:6529   */\n      0x00\n        /* \"#utility.yul\":6572:6574   */\n      0x20\n        /* \"#utility.yul\":6560:6569   */\n      dup3\n        /* \"#utility.yul\":6551:6558   */\n      dup5\n        /* \"#utility.yul\":6547:6570   */\n      sub\n        /* \"#utility.yul\":6543:6575   */\n      slt\n        /* \"#utility.yul\":6540:6659   */\n      iszero\n      tag_307\n      jumpi\n        /* \"#utility.yul\":6578:6657   */\n      tag_308\n      tag_182\n      jump\t// in\n    tag_308:\n        /* \"#utility.yul\":6540:6659   */\n    tag_307:\n        /* \"#utility.yul\":6698:6699   */\n      0x00\n        /* \"#utility.yul\":6723:6787   */\n      tag_309\n        /* \"#utility.yul\":6779:6786   */\n      dup5\n        /* \"#utility.yul\":6770:6776   */\n      dup3\n        /* \"#utility.yul\":6759:6768   */\n      dup6\n        /* \"#utility.yul\":6755:6777   */\n      add\n        /* \"#utility.yul\":6723:6787   */\n      tag_205\n      jump\t// in\n    tag_309:\n        /* \"#utility.yul\":6713:6787   */\n      swap2\n      pop\n        /* \"#utility.yul\":6669:6797   */\n      pop\n        /* \"#utility.yul\":6453:6804   */\n      swap3\n      swap2\n      pop\n      pop\n      jump\t// out\n        /* \"#utility.yul\":6810:7032   */\n    tag_206:\n        /* \"#utility.yul\":6950:6984   */\n      0x5370656e64656e2077657264656e206e69636874206d65687220676573616d6d\n        /* \"#utility.yul\":6946:6947   */\n      0x00\n        /* \"#utility.yul\":6938:6944   */\n      dup3\n        /* \"#utility.yul\":6934:6948   */\n      add\n        /* \"#utility.yul\":6927:6985   */\n      mstore\n        /* \"#utility.yul\":7019:7024   */\n      0x656c740000000000000000000000000000000000000000000000000000000000\n        /* \"#utility.yul\":7014:7016   */\n      0x20\n        /* \"#utility.yul\":7006:7012   */\n      dup3\n        /* \"#utility.yul\":7002:7017   */\n      add\n        /* \"#utility.yul\":6995:7025   */\n      mstore\n        /* \"#utility.yul\":6810:7032   */\n      pop\n      jump\t// out\n        /* \"#utility.yul\":7038:7404   */\n    tag_207:\n        /* \"#utility.yul\":7180:7183   */\n      0x00\n        /* \"#utility.yul\":7201:7268   */\n      tag_312\n        /* \"#utility.yul\":7265:7267   */\n      0x23\n        /* \"#utility.yul\":7260:7263   */\n      dup4\n        /* \"#utility.yul\":7201:7268   */\n      tag_202\n      jump\t// in\n    tag_312:\n        /* \"#utility.yul\":7194:7268   */\n      swap2\n      pop\n        /* \"#utility.yul\":7277:7370   */\n      tag_313\n        /* \"#utility.yul\":7366:7369   */\n      dup3\n        /* \"#utility.yul\":7277:7370   */\n      tag_206\n      jump\t// in\n    tag_313:\n        /* \"#utility.yul\":7395:7397   */\n      0x40\n        /* \"#utility.yul\":7390:7393   */\n      dup3\n        /* \"#utility.yul\":7386:7398   */\n      add\n        /* \"#utility.yul\":7379:7398   */\n      swap1\n      pop\n        /* \"#utility.yul\":7038:7404   */\n      swap2\n      swap1\n      pop\n      jump\t// out\n        /* \"#utility.yul\":7410:7829   */\n    tag_112:\n        /* \"#utility.yul\":7576:7580   */\n      0x00\n        /* \"#utility.yul\":7614:7616   */\n      0x20\n        /* \"#utility.yul\":7603:7612   */\n      dup3\n        /* \"#utility.yul\":7599:7617   */\n      add\n        /* \"#utility.yul\":7591:7617   */\n      swap1\n      pop\n        /* \"#utility.yul\":7663:7672   */\n      dup2\n        /* \"#utility.yul\":7657:7661   */\n      dup2\n        /* \"#utility.yul\":7653:7673   */\n      sub\n        /* \"#utility.yul\":7649:7650   */\n      0x00\n        /* \"#utility.yul\":7638:7647   */\n      dup4\n        /* \"#utility.yul\":7634:7651   */\n      add\n        /* \"#utility.yul\":7627:7674   */\n      mstore\n        /* \"#utility.yul\":7691:7822   */\n      tag_315\n        /* \"#utility.yul\":7817:7821   */\n      dup2\n        /* \"#utility.yul\":7691:7822   */\n      tag_207\n      jump\t// in\n    tag_315:\n        /* \"#utility.yul\":7683:7822   */\n      swap1\n      pop\n        /* \"#utility.yul\":7410:7829   */\n      swap2\n      swap1\n      pop\n      jump\t// out\n        /* \"#utility.yul\":7835:7946   */\n    tag_208:\n        /* \"#utility.yul\":7899:7905   */\n      0x00\n        /* \"#utility.yul\":7933:7938   */\n      dup2\n        /* \"#utility.yul\":7927:7939   */\n      sload\n        /* \"#utility.yul\":7917:7939   */\n      swap1\n      pop\n        /* \"#utility.yul\":7835:7946   */\n      swap2\n      swap1\n      pop\n      jump\t// out\n        /* \"#utility.yul\":7952:8108   */\n    tag_209:\n        /* \"#utility.yul\":8016:8020   */\n      0x00\n        /* \"#utility.yul\":8039:8042   */\n      dup2\n        /* \"#utility.yul\":8031:8042   */\n      swap1\n      pop\n        /* \"#utility.yul\":8062:8065   */\n      dup2\n        /* \"#utility.yul\":8059:8060   */\n      0x00\n        /* \"#utility.yul\":8052:8066   */\n      mstore\n        /* \"#utility.yul\":8096:8100   */\n      0x20\n        /* \"#utility.yul\":8093:8094   */\n      0x00\n        /* \"#utility.yul\":8083:8101   */\n      keccak256\n        /* \"#utility.yul\":8075:8101   */\n      swap1\n      pop\n        /* \"#utility.yul\":7952:8108   */\n      swap2\n      swap1\n      pop\n      jump\t// out\n        /* \"#utility.yul\":8114:8216   */\n    tag_210:\n        /* \"#utility.yul\":8156:8164   */\n      0x00\n        /* \"#utility.yul\":8203:8208   */\n      dup2\n        /* \"#utility.yul\":8200:8201   */\n      0x00\n        /* \"#utility.yul\":8196:8209   */\n      shr\n        /* \"#utility.yul\":8175:8209   */\n      swap1\n      pop\n        /* \"#utility.yul\":8114:8216   */\n      swap2\n      swap1\n      pop\n      jump\t// out\n        /* \"#utility.yul\":8222:8361   */\n    tag_211:\n        /* \"#utility.yul\":8272:8279   */\n      0x00\n        /* \"#utility.yul\":8312:8354   */\n      0xffffffffffffffffffffffffffffffffffffffff\n        /* \"#utility.yul\":8305:8310   */\n      dup3\n        /* \"#utility.yul\":8301:8355   */\n      and\n        /* \"#utility.yul\":8290:8355   */\n      swap1\n      pop\n        /* \"#utility.yul\":8222:8361   */\n      swap2\n      swap1\n      pop\n      jump\t// out\n        /* \"#utility.yul\":8367:8533   */\n    tag_212:\n        /* \"#utility.yul\":8436:8441   */\n      0x00\n        /* \"#utility.yul\":8461:8527   */\n      tag_321\n        /* \"#utility.yul\":8492:8526   */\n      tag_322\n        /* \"#utility.yul\":8515:8525   */\n      dup4\n        /* \"#utility.yul\":8492:8526   */\n      tag_210\n      jump\t// in\n    tag_322:\n        /* \"#utility.yul\":8461:8527   */\n      tag_211\n      jump\t// in\n    tag_321:\n        /* \"#utility.yul\":8452:8527   */\n      swap1\n      pop\n        /* \"#utility.yul\":8367:8533   */\n      swap2\n      swap1\n      pop\n      jump\t// out\n        /* \"#utility.yul\":8539:8683   */\n    tag_213:\n        /* \"#utility.yul\":8594:8599   */\n      0x00\n        /* \"#utility.yul\":8619:8676   */\n      tag_324\n        /* \"#utility.yul\":8670:8674   */\n      dup3\n        /* \"#utility.yul\":8664:8675   */\n      sload\n        /* \"#utility.yul\":8619:8676   */\n      tag_212\n      jump\t// in\n    tag_324:\n        /* \"#utility.yul\":8610:8676   */\n      swap1\n      pop\n        /* \"#utility.yul\":8539:8683   */\n      swap2\n      swap1\n      pop\n      jump\t// out\n        /* \"#utility.yul\":8689:8799   */\n    tag_214:\n        /* \"#utility.yul\":8756:8760   */\n      0x00\n        /* \"#utility.yul\":8788:8792   */\n      0x01\n        /* \"#utility.yul\":8783:8786   */\n      dup3\n        /* \"#utility.yul\":8779:8793   */\n      add\n        /* \"#utility.yul\":8771:8793   */\n      swap1\n      pop\n        /* \"#utility.yul\":8689:8799   */\n      swap2\n      swap1\n      pop\n      jump\t// out\n        /* \"#utility.yul\":8835:9586   */\n    tag_215:\n        /* \"#utility.yul\":8951:8954   */\n      0x00\n        /* \"#utility.yul\":8980:9031   */\n      tag_327\n        /* \"#utility.yul\":9025:9030   */\n      dup3\n        /* \"#utility.yul\":8980:9031   */\n      tag_208\n      jump\t// in\n    tag_327:\n        /* \"#utility.yul\":9047:9133   */\n      tag_328\n        /* \"#utility.yul\":9126:9132   */\n      dup2\n        /* \"#utility.yul\":9121:9124   */\n      dup6\n        /* \"#utility.yul\":9047:9133   */\n      tag_196\n      jump\t// in\n    tag_328:\n        /* \"#utility.yul\":9040:9133   */\n      swap4\n      pop\n        /* \"#utility.yul\":9157:9210   */\n      tag_329\n        /* \"#utility.yul\":9204:9209   */\n      dup4\n        /* \"#utility.yul\":9157:9210   */\n      tag_209\n      jump\t// in\n    tag_329:\n        /* \"#utility.yul\":9233:9240   */\n      dup1\n        /* \"#utility.yul\":9264:9265   */\n      0x00\n        /* \"#utility.yul\":9249:9561   */\n    tag_330:\n        /* \"#utility.yul\":9274:9280   */\n      dup4\n        /* \"#utility.yul\":9271:9272   */\n      dup2\n        /* \"#utility.yul\":9268:9281   */\n      lt\n        /* \"#utility.yul\":9249:9561   */\n      iszero\n      tag_332\n      jumpi\n        /* \"#utility.yul\":9344:9388   */\n      tag_333\n        /* \"#utility.yul\":9381:9387   */\n      dup3\n        /* \"#utility.yul\":9344:9388   */\n      tag_213\n      jump\t// in\n    tag_333:\n        /* \"#utility.yul\":9408:9471   */\n      tag_334\n        /* \"#utility.yul\":9467:9470   */\n      dup9\n        /* \"#utility.yul\":9452:9465   */\n      dup3\n        /* \"#utility.yul\":9408:9471   */\n      tag_199\n      jump\t// in\n    tag_334:\n        /* \"#utility.yul\":9401:9471   */\n      swap8\n      pop\n        /* \"#utility.yul\":9494:9551   */\n      tag_335\n        /* \"#utility.yul\":9544:9550   */\n      dup4\n        /* \"#utility.yul\":9494:9551   */\n      tag_214\n      jump\t// in\n    tag_335:\n        /* \"#utility.yul\":9484:9551   */\n      swap3\n      pop\n        /* \"#utility.yul\":9309:9561   */\n      pop\n        /* \"#utility.yul\":9296:9297   */\n      0x01\n        /* \"#utility.yul\":9293:9294   */\n      dup2\n        /* \"#utility.yul\":9289:9298   */\n      add\n        /* \"#utility.yul\":9284:9298   */\n      swap1\n      pop\n        /* \"#utility.yul\":9249:9561   */\n      jump(tag_330)\n    tag_332:\n        /* \"#utility.yul\":9253:9267   */\n      pop\n        /* \"#utility.yul\":9577:9580   */\n      dup6\n        /* \"#utility.yul\":9570:9580   */\n      swap4\n      pop\n        /* \"#utility.yul\":8956:9586   */\n      pop\n      pop\n      pop\n        /* \"#utility.yul\":8835:9586   */\n      swap3\n      swap2\n      pop\n      pop\n      jump\t// out\n        /* \"#utility.yul\":9592:9959   */\n    tag_115:\n        /* \"#utility.yul\":9732:9736   */\n      0x00\n        /* \"#utility.yul\":9770:9772   */\n      0x20\n        /* \"#utility.yul\":9759:9768   */\n      dup3\n        /* \"#utility.yul\":9755:9773   */\n      add\n        /* \"#utility.yul\":9747:9773   */\n      swap1\n      pop\n        /* \"#utility.yul\":9819:9828   */\n      dup2\n        /* \"#utility.yul\":9813:9817   */\n      dup2\n        /* \"#utility.yul\":9809:9829   */\n      sub\n        /* \"#utility.yul\":9805:9806   */\n      0x00\n        /* \"#utility.yul\":9794:9803   */\n      dup4\n        /* \"#utility.yul\":9790:9807   */\n      add\n        /* \"#utility.yul\":9783:9830   */\n      mstore\n        /* \"#utility.yul\":9847:9952   */\n      tag_337\n        /* \"#utility.yul\":9947:9951   */\n      dup2\n        /* \"#utility.yul\":9938:9944   */\n      dup5\n        /* \"#utility.yul\":9847:9952   */\n      tag_215\n      jump\t// in\n    tag_337:\n        /* \"#utility.yul\":9839:9952   */\n      swap1\n      pop\n        /* \"#utility.yul\":9592:9959   */\n      swap3\n      swap2\n      pop\n      pop\n      jump\t// out\n        /* \"#utility.yul\":9965:10055   */\n    tag_216:\n        /* \"#utility.yul\":9999:10006   */\n      0x00\n        /* \"#utility.yul\":10042:10047   */\n      dup2\n        /* \"#utility.yul\":10035:10048   */\n      iszero\n        /* \"#utility.yul\":10028:10049   */\n      iszero\n        /* \"#utility.yul\":10017:10049   */\n      swap1\n      pop\n        /* \"#utility.yul\":9965:10055   */\n      swap2\n      swap1\n      pop\n      jump\t// out\n        /* \"#utility.yul\":10061:10177   */\n    tag_217:\n        /* \"#utility.yul\":10131:10152   */\n      tag_340\n        /* \"#utility.yul\":10146:10151   */\n      dup2\n        /* \"#utility.yul\":10131:10152   */\n      tag_216\n      jump\t// in\n    tag_340:\n        /* \"#utility.yul\":10124:10129   */\n      dup2\n        /* \"#utility.yul\":10121:10153   */\n      eq\n        /* \"#utility.yul\":10111:10171   */\n      tag_341\n      jumpi\n        /* \"#utility.yul\":10167:10168   */\n      0x00\n        /* \"#utility.yul\":10164:10165   */\n      dup1\n        /* \"#utility.yul\":10157:10169   */\n      revert\n        /* \"#utility.yul\":10111:10171   */\n    tag_341:\n        /* \"#utility.yul\":10061:10177   */\n      pop\n      jump\t// out\n        /* \"#utility.yul\":10183:10320   */\n    tag_218:\n        /* \"#utility.yul\":10237:10242   */\n      0x00\n        /* \"#utility.yul\":10268:10274   */\n      dup2\n        /* \"#utility.yul\":10262:10275   */\n      mload\n        /* \"#utility.yul\":10253:10275   */\n      swap1\n      pop\n        /* \"#utility.yul\":10284:10314   */\n      tag_343\n        /* \"#utility.yul\":10308:10313   */\n      dup2\n        /* \"#utility.yul\":10284:10314   */\n      tag_217\n      jump\t// in\n    tag_343:\n        /* \"#utility.yul\":10183:10320   */\n      swap3\n      swap2\n      pop\n      pop\n      jump\t// out\n        /* \"#utility.yul\":10326:10671   */\n    tag_119:\n        /* \"#utility.yul\":10393:10399   */\n      0x00\n        /* \"#utility.yul\":10442:10444   */\n      0x20\n        /* \"#utility.yul\":10430:10439   */\n      dup3\n        /* \"#utility.yul\":10421:10428   */\n      dup5\n        /* \"#utility.yul\":10417:10440   */\n      sub\n        /* \"#utility.yul\":10413:10445   */\n      slt\n        /* \"#utility.yul\":10410:10529   */\n      iszero\n      tag_345\n      jumpi\n        /* \"#utility.yul\":10448:10527   */\n      tag_346\n      tag_182\n      jump\t// in\n    tag_346:\n        /* \"#utility.yul\":10410:10529   */\n    tag_345:\n        /* \"#utility.yul\":10568:10569   */\n      0x00\n        /* \"#utility.yul\":10593:10654   */\n      tag_347\n        /* \"#utility.yul\":10646:10653   */\n      dup5\n        /* \"#utility.yul\":10637:10643   */\n      dup3\n        /* \"#utility.yul\":10626:10635   */\n      dup6\n        /* \"#utility.yul\":10622:10644   */\n      add\n        /* \"#utility.yul\":10593:10654   */\n      tag_218\n      jump\t// in\n    tag_347:\n        /* \"#utility.yul\":10583:10654   */\n      swap2\n      pop\n        /* \"#utility.yul\":10539:10664   */\n      pop\n        /* \"#utility.yul\":10326:10671   */\n      swap3\n      swap2\n      pop\n      pop\n      jump\t// out\n        /* \"#utility.yul\":10677:10820   */\n    tag_219:\n        /* \"#utility.yul\":10734:10739   */\n      0x00\n        /* \"#utility.yul\":10765:10771   */\n      dup2\n        /* \"#utility.yul\":10759:10772   */\n      mload\n        /* \"#utility.yul\":10750:10772   */\n      swap1\n      pop\n        /* \"#utility.yul\":10781:10814   */\n      tag_349\n        /* \"#utility.yul\":10808:10813   */\n      dup2\n        /* \"#utility.yul\":10781:10814   */\n      tag_193\n      jump\t// in\n    tag_349:\n        /* \"#utility.yul\":10677:10820   */\n      swap3\n      swap2\n      pop\n      pop\n      jump\t// out\n        /* \"#utility.yul\":10826:11177   */\n    tag_123:\n        /* \"#utility.yul\":10896:10902   */\n      0x00\n        /* \"#utility.yul\":10945:10947   */\n      0x20\n        /* \"#utility.yul\":10933:10942   */\n      dup3\n        /* \"#utility.yul\":10924:10931   */\n      dup5\n        /* \"#utility.yul\":10920:10943   */\n      sub\n        /* \"#utility.yul\":10916:10948   */\n      slt\n        /* \"#utility.yul\":10913:11032   */\n      iszero\n      tag_351\n      jumpi\n        /* \"#utility.yul\":10951:11030   */\n      tag_352\n      tag_182\n      jump\t// in\n    tag_352:\n        /* \"#utility.yul\":10913:11032   */\n    tag_351:\n        /* \"#utility.yul\":11071:11072   */\n      0x00\n        /* \"#utility.yul\":11096:11160   */\n      tag_353\n        /* \"#utility.yul\":11152:11159   */\n      dup5\n        /* \"#utility.yul\":11143:11149   */\n      dup3\n        /* \"#utility.yul\":11132:11141   */\n      dup6\n        /* \"#utility.yul\":11128:11150   */\n      add\n        /* \"#utility.yul\":11096:11160   */\n      tag_219\n      jump\t// in\n    tag_353:\n        /* \"#utility.yul\":11086:11160   */\n      swap2\n      pop\n        /* \"#utility.yul\":11042:11170   */\n      pop\n        /* \"#utility.yul\":10826:11177   */\n      swap3\n      swap2\n      pop\n      pop\n      jump\t// out\n        /* \"#utility.yul\":11183:11356   */\n    tag_220:\n        /* \"#utility.yul\":11323:11348   */\n      0x73656e64657220616c7265616479206861732061204354000000000000000000\n        /* \"#utility.yul\":11319:11320   */\n      0x00\n        /* \"#utility.yul\":11311:11317   */\n      dup3\n        /* \"#utility.yul\":11307:11321   */\n      add\n        /* \"#utility.yul\":11300:11349   */\n      mstore\n        /* \"#utility.yul\":11183:11356   */\n      pop\n      jump\t// out\n        /* \"#utility.yul\":11362:11728   */\n    tag_221:\n        /* \"#utility.yul\":11504:11507   */\n      0x00\n        /* \"#utility.yul\":11525:11592   */\n      tag_356\n        /* \"#utility.yul\":11589:11591   */\n      0x17\n        /* \"#utility.yul\":11584:11587   */\n      dup4\n        /* \"#utility.yul\":11525:11592   */\n      tag_202\n      jump\t// in\n    tag_356:\n        /* \"#utility.yul\":11518:11592   */\n      swap2\n      pop\n        /* \"#utility.yul\":11601:11694   */\n      tag_357\n        /* \"#utility.yul\":11690:11693   */\n      dup3\n        /* \"#utility.yul\":11601:11694   */\n      tag_220\n      jump\t// in\n    tag_357:\n        /* \"#utility.yul\":11719:11721   */\n      0x20\n        /* \"#utility.yul\":11714:11717   */\n      dup3\n        /* \"#utility.yul\":11710:11722   */\n      add\n        /* \"#utility.yul\":11703:11722   */\n      swap1\n      pop\n        /* \"#utility.yul\":11362:11728   */\n      swap2\n      swap1\n      pop\n      jump\t// out\n        /* \"#utility.yul\":11734:12153   */\n    tag_131:\n        /* \"#utility.yul\":11900:11904   */\n      0x00\n        /* \"#utility.yul\":11938:11940   */\n      0x20\n        /* \"#utility.yul\":11927:11936   */\n      dup3\n        /* \"#utility.yul\":11923:11941   */\n      add\n        /* \"#utility.yul\":11915:11941   */\n      swap1\n      pop\n        /* \"#utility.yul\":11987:11996   */\n      dup2\n        /* \"#utility.yul\":11981:11985   */\n      dup2\n        /* \"#utility.yul\":11977:11997   */\n      sub\n        /* \"#utility.yul\":11973:11974   */\n      0x00\n        /* \"#utility.yul\":11962:11971   */\n      dup4\n        /* \"#utility.yul\":11958:11975   */\n      add\n        /* \"#utility.yul\":11951:11998   */\n      mstore\n        /* \"#utility.yul\":12015:12146   */\n      tag_359\n        /* \"#utility.yul\":12141:12145   */\n      dup2\n        /* \"#utility.yul\":12015:12146   */\n      tag_221\n      jump\t// in\n    tag_359:\n        /* \"#utility.yul\":12007:12146   */\n      swap1\n      pop\n        /* \"#utility.yul\":11734:12153   */\n      swap2\n      swap1\n      pop\n      jump\t// out\n        /* \"#utility.yul\":12159:12244   */\n    tag_222:\n        /* \"#utility.yul\":12204:12211   */\n      0x00\n        /* \"#utility.yul\":12233:12238   */\n      dup2\n        /* \"#utility.yul\":12222:12238   */\n      swap1\n      pop\n        /* \"#utility.yul\":12159:12244   */\n      swap2\n      swap1\n      pop\n      jump\t// out\n        /* \"#utility.yul\":12250:12310   */\n    tag_223:\n        /* \"#utility.yul\":12278:12281   */\n      0x00\n        /* \"#utility.yul\":12299:12304   */\n      dup2\n        /* \"#utility.yul\":12292:12304   */\n      swap1\n      pop\n        /* \"#utility.yul\":12250:12310   */\n      swap2\n      swap1\n      pop\n      jump\t// out\n        /* \"#utility.yul\":12316:12474   */\n    tag_224:\n        /* \"#utility.yul\":12374:12383   */\n      0x00\n        /* \"#utility.yul\":12407:12468   */\n      tag_363\n        /* \"#utility.yul\":12425:12467   */\n      tag_364\n        /* \"#utility.yul\":12434:12466   */\n      tag_365\n        /* \"#utility.yul\":12460:12465   */\n      dup5\n        /* \"#utility.yul\":12434:12466   */\n      tag_222\n      jump\t// in\n    tag_365:\n        /* \"#utility.yul\":12425:12467   */\n      tag_223\n      jump\t// in\n    tag_364:\n        /* \"#utility.yul\":12407:12468   */\n      tag_184\n      jump\t// in\n    tag_363:\n        /* \"#utility.yul\":12394:12468   */\n      swap1\n      pop\n        /* \"#utility.yul\":12316:12474   */\n      swap2\n      swap1\n      pop\n      jump\t// out\n        /* \"#utility.yul\":12480:12627   */\n    tag_225:\n        /* \"#utility.yul\":12575:12620   */\n      tag_367\n        /* \"#utility.yul\":12614:12619   */\n      dup2\n        /* \"#utility.yul\":12575:12620   */\n      tag_224\n      jump\t// in\n    tag_367:\n        /* \"#utility.yul\":12570:12573   */\n      dup3\n        /* \"#utility.yul\":12563:12621   */\n      mstore\n        /* \"#utility.yul\":12480:12627   */\n      pop\n      pop\n      jump\t// out\n        /* \"#utility.yul\":12633:12981   */\n    tag_133:\n        /* \"#utility.yul\":12762:12766   */\n      0x00\n        /* \"#utility.yul\":12800:12802   */\n      0x40\n        /* \"#utility.yul\":12789:12798   */\n      dup3\n        /* \"#utility.yul\":12785:12803   */\n      add\n        /* \"#utility.yul\":12777:12803   */\n      swap1\n      pop\n        /* \"#utility.yul\":12813:12884   */\n      tag_369\n        /* \"#utility.yul\":12881:12882   */\n      0x00\n        /* \"#utility.yul\":12870:12879   */\n      dup4\n        /* \"#utility.yul\":12866:12883   */\n      add\n        /* \"#utility.yul\":12857:12863   */\n      dup6\n        /* \"#utility.yul\":12813:12884   */\n      tag_192\n      jump\t// in\n    tag_369:\n        /* \"#utility.yul\":12894:12974   */\n      tag_370\n        /* \"#utility.yul\":12970:12972   */\n      0x20\n        /* \"#utility.yul\":12959:12968   */\n      dup4\n        /* \"#utility.yul\":12955:12973   */\n      add\n        /* \"#utility.yul\":12946:12952   */\n      dup5\n        /* \"#utility.yul\":12894:12974   */\n      tag_225\n      jump\t// in\n    tag_370:\n        /* \"#utility.yul\":12633:12981   */\n      swap4\n      swap3\n      pop\n      pop\n      pop\n      jump\t// out\n        /* \"#utility.yul\":12987:13167   */\n    tag_226:\n        /* \"#utility.yul\":13035:13112   */\n      0x4e487b7100000000000000000000000000000000000000000000000000000000\n        /* \"#utility.yul\":13032:13033   */\n      0x00\n        /* \"#utility.yul\":13025:13113   */\n      mstore\n        /* \"#utility.yul\":13132:13136   */\n      0x11\n        /* \"#utility.yul\":13129:13130   */\n      0x04\n        /* \"#utility.yul\":13122:13137   */\n      mstore\n        /* \"#utility.yul\":13156:13160   */\n      0x24\n        /* \"#utility.yul\":13153:13154   */\n      0x00\n        /* \"#utility.yul\":13146:13161   */\n      revert\n        /* \"#utility.yul\":13173:13478   */\n    tag_145:\n        /* \"#utility.yul\":13213:13216   */\n      0x00\n        /* \"#utility.yul\":13232:13252   */\n      tag_373\n        /* \"#utility.yul\":13250:13251   */\n      dup3\n        /* \"#utility.yul\":13232:13252   */\n      tag_184\n      jump\t// in\n    tag_373:\n        /* \"#utility.yul\":13227:13252   */\n      swap2\n      pop\n        /* \"#utility.yul\":13266:13286   */\n      tag_374\n        /* \"#utility.yul\":13284:13285   */\n      dup4\n        /* \"#utility.yul\":13266:13286   */\n      tag_184\n      jump\t// in\n    tag_374:\n        /* \"#utility.yul\":13261:13286   */\n      swap3\n      pop\n        /* \"#utility.yul\":13420:13421   */\n      dup3\n        /* \"#utility.yul\":13352:13418   */\n      0xffffffffffffffffffffffffffffffffffffffffffffffffffffffffffffffff\n        /* \"#utility.yul\":13348:13422   */\n      sub\n        /* \"#utility.yul\":13345:13346   */\n      dup3\n        /* \"#utility.yul\":13342:13423   */\n      gt\n        /* \"#utility.yul\":13339:13446   */\n      iszero\n      tag_375\n      jumpi\n        /* \"#utility.yul\":13426:13444   */\n      tag_376\n      tag_226\n      jump\t// in\n    tag_376:\n        /* \"#utility.yul\":13339:13446   */\n    tag_375:\n        /* \"#utility.yul\":13470:13471   */\n      dup3\n        /* \"#utility.yul\":13467:13468   */\n      dup3\n        /* \"#utility.yul\":13463:13472   */\n      add\n        /* \"#utility.yul\":13456:13472   */\n      swap1\n      pop\n        /* \"#utility.yul\":13173:13478   */\n      swap3\n      swap2\n      pop\n      pop\n      jump\t// out\n        /* \"#utility.yul\":13484:13601   */\n    tag_227:\n        /* \"#utility.yul\":13593:13594   */\n      0x00\n        /* \"#utility.yul\":13590:13591   */\n      dup1\n        /* \"#utility.yul\":13583:13595   */\n      revert\n        /* \"#utility.yul\":13607:13709   */\n    tag_228:\n        /* \"#utility.yul\":13648:13654   */\n      0x00\n        /* \"#utility.yul\":13699:13701   */\n      0x1f\n        /* \"#utility.yul\":13695:13702   */\n      not\n        /* \"#utility.yul\":13690:13692   */\n      0x1f\n        /* \"#utility.yul\":13683:13688   */\n      dup4\n        /* \"#utility.yul\":13679:13693   */\n      add\n        /* \"#utility.yul\":13675:13703   */\n      and\n        /* \"#utility.yul\":13665:13703   */\n      swap1\n      pop\n        /* \"#utility.yul\":13607:13709   */\n      swap2\n      swap1\n      pop\n      jump\t// out\n        /* \"#utility.yul\":13715:13895   */\n    tag_229:\n        /* \"#utility.yul\":13763:13840   */\n      0x4e487b7100000000000000000000000000000000000000000000000000000000\n        /* \"#utility.yul\":13760:13761   */\n      0x00\n        /* \"#utility.yul\":13753:13841   */\n      mstore\n        /* \"#utility.yul\":13860:13864   */\n      0x41\n        /* \"#utility.yul\":13857:13858   */\n      0x04\n        /* \"#utility.yul\":13850:13865   */\n      mstore\n        /* \"#utility.yul\":13884:13888   */\n      0x24\n        /* \"#utility.yul\":13881:13882   */\n      0x00\n        /* \"#utility.yul\":13874:13889   */\n      revert\n        /* \"#utility.yul\":13901:14182   */\n    tag_230:\n        /* \"#utility.yul\":13984:14011   */\n      tag_381\n        /* \"#utility.yul\":14006:14010   */\n      dup3\n        /* \"#utility.yul\":13984:14011   */\n      tag_228\n      jump\t// in\n    tag_381:\n        /* \"#utility.yul\":13976:13982   */\n      dup2\n        /* \"#utility.yul\":13972:14012   */\n      add\n        /* \"#utility.yul\":14114:14120   */\n      dup2\n        /* \"#utility.yul\":14102:14112   */\n      dup2\n        /* \"#utility.yul\":14099:14121   */\n      lt\n        /* \"#utility.yul\":14078:14096   */\n      0xffffffffffffffff\n        /* \"#utility.yul\":14066:14076   */\n      dup3\n        /* \"#utility.yul\":14063:14097   */\n      gt\n        /* \"#utility.yul\":14060:14122   */\n      or\n        /* \"#utility.yul\":14057:14145   */\n      iszero\n      tag_382\n      jumpi\n        /* \"#utility.yul\":14125:14143   */\n      tag_383\n      tag_229\n      jump\t// in\n    tag_383:\n        /* \"#utility.yul\":14057:14145   */\n    tag_382:\n        /* \"#utility.yul\":14165:14175   */\n      dup1\n        /* \"#utility.yul\":14161:14163   */\n      0x40\n        /* \"#utility.yul\":14154:14176   */\n      mstore\n        /* \"#utility.yul\":13944:14182   */\n      pop\n        /* \"#utility.yul\":13901:14182   */\n      pop\n      pop\n      jump\t// out\n        /* \"#utility.yul\":14188:14317   */\n    tag_231:\n        /* \"#utility.yul\":14222:14228   */\n      0x00\n        /* \"#utility.yul\":14249:14269   */\n      tag_385\n      tag_181\n      jump\t// in\n    tag_385:\n        /* \"#utility.yul\":14239:14269   */\n      swap1\n      pop\n        /* \"#utility.yul\":14278:14311   */\n      tag_386\n        /* \"#utility.yul\":14306:14310   */\n      dup3\n        /* \"#utility.yul\":14298:14304   */\n      dup3\n        /* \"#utility.yul\":14278:14311   */\n      tag_230\n      jump\t// in\n    tag_386:\n        /* \"#utility.yul\":14188:14317   */\n      swap2\n      swap1\n      pop\n      jump\t// out\n        /* \"#utility.yul\":14323:14634   */\n    tag_232:\n        /* \"#utility.yul\":14400:14404   */\n      0x00\n        /* \"#utility.yul\":14490:14508   */\n      0xffffffffffffffff\n        /* \"#utility.yul\":14482:14488   */\n      dup3\n        /* \"#utility.yul\":14479:14509   */\n      gt\n        /* \"#utility.yul\":14476:14532   */\n      iszero\n      tag_388\n      jumpi\n        /* \"#utility.yul\":14512:14530   */\n      tag_389\n      tag_229\n      jump\t// in\n    tag_389:\n        /* \"#utility.yul\":14476:14532   */\n    tag_388:\n        /* \"#utility.yul\":14562:14566   */\n      0x20\n        /* \"#utility.yul\":14554:14560   */\n      dup3\n        /* \"#utility.yul\":14550:14567   */\n      mul\n        /* \"#utility.yul\":14542:14567   */\n      swap1\n      pop\n        /* \"#utility.yul\":14622:14626   */\n      0x20\n        /* \"#utility.yul\":14616:14620   */\n      dup2\n        /* \"#utility.yul\":14612:14627   */\n      add\n        /* \"#utility.yul\":14604:14627   */\n      swap1\n      pop\n        /* \"#utility.yul\":14323:14634   */\n      swap2\n      swap1\n      pop\n      jump\t// out\n        /* \"#utility.yul\":14640:14757   */\n    tag_233:\n        /* \"#utility.yul\":14749:14750   */\n      0x00\n        /* \"#utility.yul\":14746:14747   */\n      dup1\n        /* \"#utility.yul\":14739:14751   */\n      revert\n        /* \"#utility.yul\":14780:15512   */\n    tag_234:\n        /* \"#utility.yul\":14887:14892   */\n      0x00\n        /* \"#utility.yul\":14912:14993   */\n      tag_392\n        /* \"#utility.yul\":14928:14992   */\n      tag_393\n        /* \"#utility.yul\":14985:14991   */\n      dup5\n        /* \"#utility.yul\":14928:14992   */\n      tag_232\n      jump\t// in\n    tag_393:\n        /* \"#utility.yul\":14912:14993   */\n      tag_231\n      jump\t// in\n    tag_392:\n        /* \"#utility.yul\":14903:14993   */\n      swap1\n      pop\n        /* \"#utility.yul\":15013:15018   */\n      dup1\n        /* \"#utility.yul\":15042:15048   */\n      dup4\n        /* \"#utility.yul\":15035:15040   */\n      dup3\n        /* \"#utility.yul\":15028:15049   */\n      mstore\n        /* \"#utility.yul\":15076:15080   */\n      0x20\n        /* \"#utility.yul\":15069:15074   */\n      dup3\n        /* \"#utility.yul\":15065:15081   */\n      add\n        /* \"#utility.yul\":15058:15081   */\n      swap1\n      pop\n        /* \"#utility.yul\":15129:15133   */\n      0x20\n        /* \"#utility.yul\":15121:15127   */\n      dup5\n        /* \"#utility.yul\":15117:15134   */\n      mul\n        /* \"#utility.yul\":15109:15115   */\n      dup4\n        /* \"#utility.yul\":15105:15135   */\n      add\n        /* \"#utility.yul\":15158:15161   */\n      dup6\n        /* \"#utility.yul\":15150:15156   */\n      dup2\n        /* \"#utility.yul\":15147:15162   */\n      gt\n        /* \"#utility.yul\":15144:15266   */\n      iszero\n      tag_394\n      jumpi\n        /* \"#utility.yul\":15177:15256   */\n      tag_395\n      tag_233\n      jump\t// in\n    tag_395:\n        /* \"#utility.yul\":15144:15266   */\n    tag_394:\n        /* \"#utility.yul\":15292:15298   */\n      dup4\n        /* \"#utility.yul\":15275:15506   */\n    tag_396:\n        /* \"#utility.yul\":15309:15315   */\n      dup2\n        /* \"#utility.yul\":15304:15307   */\n      dup2\n        /* \"#utility.yul\":15301:15316   */\n      lt\n        /* \"#utility.yul\":15275:15506   */\n      iszero\n      tag_398\n      jumpi\n        /* \"#utility.yul\":15384:15387   */\n      dup1\n        /* \"#utility.yul\":15413:15461   */\n      tag_399\n        /* \"#utility.yul\":15457:15460   */\n      dup9\n        /* \"#utility.yul\":15445:15455   */\n      dup3\n        /* \"#utility.yul\":15413:15461   */\n      tag_219\n      jump\t// in\n    tag_399:\n        /* \"#utility.yul\":15408:15411   */\n      dup5\n        /* \"#utility.yul\":15401:15462   */\n      mstore\n        /* \"#utility.yul\":15491:15495   */\n      0x20\n        /* \"#utility.yul\":15486:15489   */\n      dup5\n        /* \"#utility.yul\":15482:15496   */\n      add\n        /* \"#utility.yul\":15475:15496   */\n      swap4\n      pop\n        /* \"#utility.yul\":15351:15506   */\n      pop\n        /* \"#utility.yul\":15335:15339   */\n      0x20\n        /* \"#utility.yul\":15330:15333   */\n      dup2\n        /* \"#utility.yul\":15326:15340   */\n      add\n        /* \"#utility.yul\":15319:15340   */\n      swap1\n      pop\n        /* \"#utility.yul\":15275:15506   */\n      jump(tag_396)\n    tag_398:\n        /* \"#utility.yul\":15279:15300   */\n      pop\n        /* \"#utility.yul\":14893:15512   */\n      pop\n      pop\n        /* \"#utility.yul\":14780:15512   */\n      swap4\n      swap3\n      pop\n      pop\n      pop\n      jump\t// out\n        /* \"#utility.yul\":15535:15920   */\n    tag_235:\n        /* \"#utility.yul\":15617:15622   */\n      0x00\n        /* \"#utility.yul\":15666:15669   */\n      dup3\n        /* \"#utility.yul\":15659:15663   */\n      0x1f\n        /* \"#utility.yul\":15651:15657   */\n      dup4\n        /* \"#utility.yul\":15647:15664   */\n      add\n        /* \"#utility.yul\":15643:15670   */\n      slt\n        /* \"#utility.yul\":15633:15755   */\n      tag_401\n      jumpi\n        /* \"#utility.yul\":15674:15753   */\n      tag_402\n      tag_227\n      jump\t// in\n    tag_402:\n        /* \"#utility.yul\":15633:15755   */\n    tag_401:\n        /* \"#utility.yul\":15784:15790   */\n      dup2\n        /* \"#utility.yul\":15778:15791   */\n      mload\n        /* \"#utility.yul\":15809:15914   */\n      tag_403\n        /* \"#utility.yul\":15910:15913   */\n      dup5\n        /* \"#utility.yul\":15902:15908   */\n      dup3\n        /* \"#utility.yul\":15895:15899   */\n      0x20\n        /* \"#utility.yul\":15887:15893   */\n      dup7\n        /* \"#utility.yul\":15883:15900   */\n      add\n        /* \"#utility.yul\":15809:15914   */\n      tag_234\n      jump\t// in\n    tag_403:\n        /* \"#utility.yul\":15800:15914   */\n      swap2\n      pop\n        /* \"#utility.yul\":15623:15920   */\n      pop\n        /* \"#utility.yul\":15535:15920   */\n      swap3\n      swap2\n      pop\n      pop\n      jump\t// out\n        /* \"#utility.yul\":15926:16480   */\n    tag_154:\n        /* \"#utility.yul\":16021:16027   */\n      0x00\n        /* \"#utility.yul\":16070:16072   */\n      0x20\n        /* \"#utility.yul\":16058:16067   */\n      dup3\n        /* \"#utility.yul\":16049:16056   */\n      dup5\n        /* \"#utility.yul\":16045:16068   */\n      sub\n        /* \"#utility.yul\":16041:16073   */\n      slt\n        /* \"#utility.yul\":16038:16157   */\n      iszero\n      tag_405\n      jumpi\n        /* \"#utility.yul\":16076:16155   */\n      tag_406\n      tag_182\n      jump\t// in\n    tag_406:\n        /* \"#utility.yul\":16038:16157   */\n    tag_405:\n        /* \"#utility.yul\":16217:16218   */\n      0x00\n        /* \"#utility.yul\":16206:16215   */\n      dup3\n        /* \"#utility.yul\":16202:16219   */\n      add\n        /* \"#utility.yul\":16196:16220   */\n      mload\n        /* \"#utility.yul\":16247:16265   */\n      0xffffffffffffffff\n        /* \"#utility.yul\":16239:16245   */\n      dup2\n        /* \"#utility.yul\":16236:16266   */\n      gt\n        /* \"#utility.yul\":16233:16350   */\n      iszero\n      tag_407\n      jumpi\n        /* \"#utility.yul\":16269:16348   */\n      tag_408\n      tag_183\n      jump\t// in\n    tag_408:\n        /* \"#utility.yul\":16233:16350   */\n    tag_407:\n        /* \"#utility.yul\":16374:16463   */\n      tag_409\n        /* \"#utility.yul\":16455:16462   */\n      dup5\n        /* \"#utility.yul\":16446:16452   */\n      dup3\n        /* \"#utility.yul\":16435:16444   */\n      dup6\n        /* \"#utility.yul\":16431:16453   */\n      add\n        /* \"#utility.yul\":16374:16463   */\n      tag_235\n      jump\t// in\n    tag_409:\n        /* \"#utility.yul\":16364:16463   */\n      swap2\n      pop\n        /* \"#utility.yul\":16167:16473   */\n      pop\n        /* \"#utility.yul\":15926:16480   */\n      swap3\n      swap2\n      pop\n      pop\n      jump\t// out\n        /* \"#utility.yul\":16486:16663   */\n    tag_236:\n        /* \"#utility.yul\":16626:16655   */\n      0x496e76657374206d696e696d756d206f6620302e312065746865720000000000\n        /* \"#utility.yul\":16622:16623   */\n      0x00\n        /* \"#utility.yul\":16614:16620   */\n      dup3\n        /* \"#utility.yul\":16610:16624   */\n      add\n        /* \"#utility.yul\":16603:16656   */\n      mstore\n        /* \"#utility.yul\":16486:16663   */\n      pop\n      jump\t// out\n        /* \"#utility.yul\":16669:17035   */\n    tag_237:\n        /* \"#utility.yul\":16811:16814   */\n      0x00\n        /* \"#utility.yul\":16832:16899   */\n      tag_412\n        /* \"#utility.yul\":16896:16898   */\n      0x1b\n        /* \"#utility.yul\":16891:16894   */\n      dup4\n        /* \"#utility.yul\":16832:16899   */\n      tag_202\n      jump\t// in\n    tag_412:\n        /* \"#utility.yul\":16825:16899   */\n      swap2\n      pop\n        /* \"#utility.yul\":16908:17001   */\n      tag_413\n        /* \"#utility.yul\":16997:17000   */\n      dup3\n        /* \"#utility.yul\":16908:17001   */\n      tag_236\n      jump\t// in\n    tag_413:\n        /* \"#utility.yul\":17026:17028   */\n      0x20\n        /* \"#utility.yul\":17021:17024   */\n      dup3\n        /* \"#utility.yul\":17017:17029   */\n      add\n        /* \"#utility.yul\":17010:17029   */\n      swap1\n      pop\n        /* \"#utility.yul\":16669:17035   */\n      swap2\n      swap1\n      pop\n      jump\t// out\n        /* \"#utility.yul\":17041:17460   */\n    tag_171:\n        /* \"#utility.yul\":17207:17211   */\n      0x00\n        /* \"#utility.yul\":17245:17247   */\n      0x20\n        /* \"#utility.yul\":17234:17243   */\n      dup3\n        /* \"#utility.yul\":17230:17248   */\n      add\n        /* \"#utility.yul\":17222:17248   */\n      swap1\n      pop\n        /* \"#utility.yul\":17294:17303   */\n      dup2\n        /* \"#utility.yul\":17288:17292   */\n      dup2\n        /* \"#utility.yul\":17284:17304   */\n      sub\n        /* \"#utility.yul\":17280:17281   */\n      0x00\n        /* \"#utility.yul\":17269:17278   */\n      dup4\n        /* \"#utility.yul\":17265:17282   */\n      add\n        /* \"#utility.yul\":17258:17305   */\n      mstore\n        /* \"#utility.yul\":17322:17453   */\n      tag_415\n        /* \"#utility.yul\":17448:17452   */\n      dup2\n        /* \"#utility.yul\":17322:17453   */\n      tag_237\n      jump\t// in\n    tag_415:\n        /* \"#utility.yul\":17314:17453   */\n      swap1\n      pop\n        /* \"#utility.yul\":17041:17460   */\n      swap2\n      swap1\n      pop\n      jump\t// out\n\n    auxdata: 0xa2646970667358221220e4d143aa2c4770e09689d7eb8efe05c82e637458f34c555b21bd4bade29da88264736f6c634300080d0033\n}\n",
				"bytecode": {
					"linkReferences": {},
					"object": "60806040526001600760006101000a81548160ff0219169083151502179055504260085534801561002f57600080fd5b50336000806101000a81548173ffffffffffffffffffffffffffffffffffffffff021916908373ffffffffffffffffffffffffffffffffffffffff1602179055506117458061007f6000396000f3fe6080604052600436106101095760003560e01c80638d6a8b8011610095578063acc9c6b411610064578063acc9c6b41461031b578063cad65b7014610346578063d1286e6514610350578063da58c7d91461037b578063ed88c68e146103b857610109565b80638d6a8b801461027357806399e7f8c21461029e5780639e992987146102b5578063ac62f566146102de57610109565b8063583fa3a8116100dc578063583fa3a8146101cc57806378e97925146101ea5780637c4444ff1461021557806382caff481461021f57806386e899a21461024857610109565b8063107046bd1461010e57806312065fe01461014b5780632e708fa81461017657806354235142146101a1575b600080fd5b34801561011a57600080fd5b5061013560048036038101906101309190610e4e565b6103c2565b6040516101429190610ebc565b60405180910390f35b34801561015757600080fd5b50610160610401565b60405161016d9190610ee6565b60405180910390f35b34801561018257600080fd5b5061018b610409565b6040516101989190610f22565b60405180910390f35b3480156101ad57600080fd5b506101b661042f565b6040516101c39190610ee6565b60405180910390f35b6101d4610553565b6040516101e19190610f22565b60405180910390f35b3480156101f657600080fd5b506101ff6106c6565b60405161020c9190610ee6565b60405180910390f35b61021d6106cc565b005b34801561022b57600080fd5b5061024660048036038101906102419190610f69565b610838565b005b34801561025457600080fd5b5061025d61087c565b60405161026a9190610ee6565b60405180910390f35b34801561027f57600080fd5b5061028861091b565b6040516102959190610f22565b60405180910390f35b3480156102aa57600080fd5b506102b3610941565b005b3480156102c157600080fd5b506102dc60048036038101906102d79190610f69565b610997565b005b3480156102ea57600080fd5b5061030560048036038101906103009190610e4e565b6109db565b6040516103129190610f22565b60405180910390f35b34801561032757600080fd5b50610330610a1a565b60405161033d9190611054565b60405180910390f35b61034e610b5c565b005b34801561035c57600080fd5b50610365610c42565b6040516103729190610f22565b60405180910390f35b34801561038757600080fd5b506103a2600480360381019061039d9190610e4e565b610c66565b6040516103af9190610f22565b60405180910390f35b6103c0610ca5565b005b600381815481106103d257600080fd5b906000526020600020016000915054906101000a900473ffffffffffffffffffffffffffffffffffffffff1681565b600047905090565b600460009054906101000a900473ffffffffffffffffffffffffffffffffffffffff1681565b60008060009054906101000a900473ffffffffffffffffffffffffffffffffffffffff1673ffffffffffffffffffffffffffffffffffffffff163373ffffffffffffffffffffffffffffffffffffffff16146104c0576040517f08c379a00000000000000000000000000000000000000000000000000000000081526004016104b7906110f9565b60405180910390fd5b73d4fc541236927e2eaf8f27606bd7309c1fc2cbee73ffffffffffffffffffffffffffffffffffffffff166370a08231306040518263ffffffff1660e01b815260040161050d9190610f22565b602060405180830381865afa15801561052a573d6000803e3d6000fd5b505050506040513d601f19601f8201168201806040525081019061054e919061112e565b905090565b6000801515600760009054906101000a900460ff161515146105aa576040517f08c379a00000000000000000000000000000000000000000000000000000000081526004016105a1906111cd565b60405180910390fd5b6000600560009054906101000a900473ffffffffffffffffffffffffffffffffffffffff1690508073ffffffffffffffffffffffffffffffffffffffff1663c129800d60016040518263ffffffff1660e01b815260040161060b91906112d9565b6020604051808303816000875af115801561062a573d6000803e3d6000fd5b505050506040513d601f19601f8201168201806040525081019061064e9190611333565b508073ffffffffffffffffffffffffffffffffffffffff16638e7ea5b26040518163ffffffff1660e01b81526004016020604051808303816000875af115801561069c573d6000803e3d6000fd5b505050506040513d601f19601f820116820180604052508101906106c09190611375565b91505090565b60085481565b600073d4fc541236927e2eaf8f27606bd7309c1fc2cbee73ffffffffffffffffffffffffffffffffffffffff166370a08231336040518263ffffffff1660e01b815260040161071b9190610f22565b602060405180830381865afa158015610738573d6000803e3d6000fd5b505050506040513d601f19601f8201168201806040525081019061075c919061112e565b9050600081146107a1576040517f08c379a0000000000000000000000000000000000000000000000000000000008152600401610798906113ee565b60405180910390fd5b73d4fc541236927e2eaf8f27606bd7309c1fc2cbee73ffffffffffffffffffffffffffffffffffffffff1663a9059cbb3360016040518363ffffffff1660e01b81526004016107f1929190611453565b6020604051808303816000875af1158015610810573d6000803e3d6000fd5b505050506040513d601f19601f820116820180604052508101906108349190611333565b5050565b80600460006101000a81548173ffffffffffffffffffffffffffffffffffffffff021916908373ffffffffffffffffffffffffffffffffffffffff16021790555050565b600080600460009054906101000a900473ffffffffffffffffffffffffffffffffffffffff1690508073ffffffffffffffffffffffffffffffffffffffff166394bec0716040518163ffffffff1660e01b81526004016020604051808303816000875af11580156108f1573d6000803e3d6000fd5b505050506040513d601f19601f82011682018060405250810190610915919061112e565b91505090565b600560009054906101000a900473ffffffffffffffffffffffffffffffffffffffff1681565b60011515600760009054906101000a900460ff161515148015610974575062278d0060085461097091906114ab565b4210155b15610995576000600760006101000a81548160ff0219169083151502179055505b565b80600560006101000a81548173ffffffffffffffffffffffffffffffffffffffff021916908373ffffffffffffffffffffffffffffffffffffffff16021790555050565b600181815481106109eb57600080fd5b906000526020600020016000915054906101000a900473ffffffffffffffffffffffffffffffffffffffff1681565b60606000600460009054906101000a900473ffffffffffffffffffffffffffffffffffffffff1690508073ffffffffffffffffffffffffffffffffffffffff1663cdd722536040518163ffffffff1660e01b81526004016000604051808303816000875af1158015610a90573d6000803e3d6000fd5b505050506040513d6000823e3d601f19601f82011682018060405250810190610ab9919061165a565b60029080519060200190610ace929190610d5d565b506002805480602002602001604051908101604052809291908181526020018280548015610b5157602002820191906000526020600020905b8160009054906101000a900473ffffffffffffffffffffffffffffffffffffffff1673ffffffffffffffffffffffffffffffffffffffff1681526020019060010190808311610b07575b505050505091505090565b60001515600760009054906101000a900460ff16151514610bb2576040517f08c379a0000000000000000000000000000000000000000000000000000000008152600401610ba9906111cd565b60405180910390fd5b60008054906101000a900473ffffffffffffffffffffffffffffffffffffffff1673ffffffffffffffffffffffffffffffffffffffff163373ffffffffffffffffffffffffffffffffffffffff1614610c40576040517f08c379a0000000000000000000000000000000000000000000000000000000008152600401610c37906110f9565b60405180910390fd5b565b60008054906101000a900473ffffffffffffffffffffffffffffffffffffffff1681565b60028181548110610c7657600080fd5b906000526020600020016000915054906101000a900473ffffffffffffffffffffffffffffffffffffffff1681565b67016345785d8a0000341015610cf0576040517f08c379a0000000000000000000000000000000000000000000000000000000008152600401610ce7906116ef565b60405180910390fd5b6001339080600181540180825580915050600190039060005260206000200160009091909190916101000a81548173ffffffffffffffffffffffffffffffffffffffff021916908373ffffffffffffffffffffffffffffffffffffffff160217905550610d5b6106cc565b565b828054828255906000526020600020908101928215610dd6579160200282015b82811115610dd55782518260006101000a81548173ffffffffffffffffffffffffffffffffffffffff021916908373ffffffffffffffffffffffffffffffffffffffff16021790555091602001919060010190610d7d565b5b509050610de39190610de7565b5090565b5b80821115610e00576000816000905550600101610de8565b5090565b6000604051905090565b600080fd5b600080fd5b6000819050919050565b610e2b81610e18565b8114610e3657600080fd5b50565b600081359050610e4881610e22565b92915050565b600060208284031215610e6457610e63610e0e565b5b6000610e7284828501610e39565b91505092915050565b600073ffffffffffffffffffffffffffffffffffffffff82169050919050565b6000610ea682610e7b565b9050919050565b610eb681610e9b565b82525050565b6000602082019050610ed16000830184610ead565b92915050565b610ee081610e18565b82525050565b6000602082019050610efb6000830184610ed7565b92915050565b6000610f0c82610e7b565b9050919050565b610f1c81610f01565b82525050565b6000602082019050610f376000830184610f13565b92915050565b610f4681610f01565b8114610f5157600080fd5b50565b600081359050610f6381610f3d565b92915050565b600060208284031215610f7f57610f7e610e0e565b5b6000610f8d84828501610f54565b91505092915050565b600081519050919050565b600082825260208201905092915050565b6000819050602082019050919050565b610fcb81610f01565b82525050565b6000610fdd8383610fc2565b60208301905092915050565b6000602082019050919050565b600061100182610f96565b61100b8185610fa1565b935061101683610fb2565b8060005b8381101561104757815161102e8882610fd1565b975061103983610fe9565b92505060018101905061101a565b5085935050505092915050565b6000602082019050818103600083015261106e8184610ff6565b905092915050565b600082825260208201905092915050565b7f6f6e6c792043686172795465616d2063616e2063616c6c20746869732066756e60008201527f6374696f6e000000000000000000000000000000000000000000000000000000602082015250565b60006110e3602583611076565b91506110ee82611087565b604082019050919050565b60006020820190508181036000830152611112816110d6565b9050919050565b60008151905061112881610e22565b92915050565b60006020828403121561114457611143610e0e565b5b600061115284828501611119565b91505092915050565b7f5370656e64656e2077657264656e206e69636874206d65687220676573616d6d60008201527f656c740000000000000000000000000000000000000000000000000000000000602082015250565b60006111b7602383611076565b91506111c28261115b565b604082019050919050565b600060208201905081810360008301526111e6816111aa565b9050919050565b600081549050919050565b60008190508160005260206000209050919050565b60008160001c9050919050565b600073ffffffffffffffffffffffffffffffffffffffff82169050919050565b600061124d6112488361120d565b61121a565b9050919050565b6000611260825461123a565b9050919050565b6000600182019050919050565b600061127f826111ed565b6112898185610fa1565b9350611294836111f8565b8060005b838110156112cc576112a982611254565b6112b38882610fd1565b97506112be83611267565b925050600181019050611298565b5085935050505092915050565b600060208201905081810360008301526112f38184611274565b905092915050565b60008115159050919050565b611310816112fb565b811461131b57600080fd5b50565b60008151905061132d81611307565b92915050565b60006020828403121561134957611348610e0e565b5b60006113578482850161131e565b91505092915050565b60008151905061136f81610f3d565b92915050565b60006020828403121561138b5761138a610e0e565b5b600061139984828501611360565b91505092915050565b7f73656e64657220616c7265616479206861732061204354000000000000000000600082015250565b60006113d8601783611076565b91506113e3826113a2565b602082019050919050565b60006020820190508181036000830152611407816113cb565b9050919050565b6000819050919050565b6000819050919050565b600061143d6114386114338461140e565b611418565b610e18565b9050919050565b61144d81611422565b82525050565b60006040820190506114686000830185610f13565b6114756020830184611444565b9392505050565b7f4e487b7100000000000000000000000000000000000000000000000000000000600052601160045260246000fd5b60006114b682610e18565b91506114c183610e18565b9250827fffffffffffffffffffffffffffffffffffffffffffffffffffffffffffffffff038211156114f6576114f561147c565b5b828201905092915050565b600080fd5b6000601f19601f8301169050919050565b7f4e487b7100000000000000000000000000000000000000000000000000000000600052604160045260246000fd5b61154f82611506565b810181811067ffffffffffffffff8211171561156e5761156d611517565b5b80604052505050565b6000611581610e04565b905061158d8282611546565b919050565b600067ffffffffffffffff8211156115ad576115ac611517565b5b602082029050602081019050919050565b600080fd5b60006115d66115d184611592565b611577565b905080838252602082019050602084028301858111156115f9576115f86115be565b5b835b81811015611622578061160e8882611360565b8452602084019350506020810190506115fb565b5050509392505050565b600082601f83011261164157611640611501565b5b81516116518482602086016115c3565b91505092915050565b6000602082840312156116705761166f610e0e565b5b600082015167ffffffffffffffff81111561168e5761168d610e13565b5b61169a8482850161162c565b91505092915050565b7f496e76657374206d696e696d756d206f6620302e312065746865720000000000600082015250565b60006116d9601b83611076565b91506116e4826116a3565b602082019050919050565b60006020820190508181036000830152611708816116cc565b905091905056fea2646970667358221220e4d143aa2c4770e09689d7eb8efe05c82e637458f34c555b21bd4bade29da88264736f6c634300080d0033",
					"opcodes": "PUSH1 0x80 PUSH1 0x40 MSTORE PUSH1 0x1 PUSH1 0x7 PUSH1 0x0 PUSH2 0x100 EXP DUP2 SLOAD DUP2 PUSH1 0xFF MUL NOT AND SWAP1 DUP4 ISZERO ISZERO MUL OR SWAP1 SSTORE POP TIMESTAMP PUSH1 0x8 SSTORE CALLVALUE DUP1 ISZERO PUSH2 0x2F JUMPI PUSH1 0x0 DUP1 REVERT JUMPDEST POP CALLER PUSH1 0x0 DUP1 PUSH2 0x100 EXP DUP2 SLOAD DUP2 PUSH20 0xFFFFFFFFFFFFFFFFFFFFFFFFFFFFFFFFFFFFFFFF MUL NOT AND SWAP1 DUP4 PUSH20 0xFFFFFFFFFFFFFFFFFFFFFFFFFFFFFFFFFFFFFFFF AND MUL OR SWAP1 SSTORE POP PUSH2 0x1745 DUP1 PUSH2 0x7F PUSH1 0x0 CODECOPY PUSH1 0x0 RETURN INVALID PUSH1 0x80 PUSH1 0x40 MSTORE PUSH1 0x4 CALLDATASIZE LT PUSH2 0x109 JUMPI PUSH1 0x0 CALLDATALOAD PUSH1 0xE0 SHR DUP1 PUSH4 0x8D6A8B80 GT PUSH2 0x95 JUMPI DUP1 PUSH4 0xACC9C6B4 GT PUSH2 0x64 JUMPI DUP1 PUSH4 0xACC9C6B4 EQ PUSH2 0x31B JUMPI DUP1 PUSH4 0xCAD65B70 EQ PUSH2 0x346 JUMPI DUP1 PUSH4 0xD1286E65 EQ PUSH2 0x350 JUMPI DUP1 PUSH4 0xDA58C7D9 EQ PUSH2 0x37B JUMPI DUP1 PUSH4 0xED88C68E EQ PUSH2 0x3B8 JUMPI PUSH2 0x109 JUMP JUMPDEST DUP1 PUSH4 0x8D6A8B80 EQ PUSH2 0x273 JUMPI DUP1 PUSH4 0x99E7F8C2 EQ PUSH2 0x29E JUMPI DUP1 PUSH4 0x9E992987 EQ PUSH2 0x2B5 JUMPI DUP1 PUSH4 0xAC62F566 EQ PUSH2 0x2DE JUMPI PUSH2 0x109 JUMP JUMPDEST DUP1 PUSH4 0x583FA3A8 GT PUSH2 0xDC JUMPI DUP1 PUSH4 0x583FA3A8 EQ PUSH2 0x1CC JUMPI DUP1 PUSH4 0x78E97925 EQ PUSH2 0x1EA JUMPI DUP1 PUSH4 0x7C4444FF EQ PUSH2 0x215 JUMPI DUP1 PUSH4 0x82CAFF48 EQ PUSH2 0x21F JUMPI DUP1 PUSH4 0x86E899A2 EQ PUSH2 0x248 JUMPI PUSH2 0x109 JUMP JUMPDEST DUP1 PUSH4 0x107046BD EQ PUSH2 0x10E JUMPI DUP1 PUSH4 0x12065FE0 EQ PUSH2 0x14B JUMPI DUP1 PUSH4 0x2E708FA8 EQ PUSH2 0x176 JUMPI DUP1 PUSH4 0x54235142 EQ PUSH2 0x1A1 JUMPI JUMPDEST PUSH1 0x0 DUP1 REVERT JUMPDEST CALLVALUE DUP1 ISZERO PUSH2 0x11A JUMPI PUSH1 0x0 DUP1 REVERT JUMPDEST POP PUSH2 0x135 PUSH1 0x4 DUP1 CALLDATASIZE SUB DUP2 ADD SWAP1 PUSH2 0x130 SWAP2 SWAP1 PUSH2 0xE4E JUMP JUMPDEST PUSH2 0x3C2 JUMP JUMPDEST PUSH1 0x40 MLOAD PUSH2 0x142 SWAP2 SWAP1 PUSH2 0xEBC JUMP JUMPDEST PUSH1 0x40 MLOAD DUP1 SWAP2 SUB SWAP1 RETURN JUMPDEST CALLVALUE DUP1 ISZERO PUSH2 0x157 JUMPI PUSH1 0x0 DUP1 REVERT JUMPDEST POP PUSH2 0x160 PUSH2 0x401 JUMP JUMPDEST PUSH1 0x40 MLOAD PUSH2 0x16D SWAP2 SWAP1 PUSH2 0xEE6 JUMP JUMPDEST PUSH1 0x40 MLOAD DUP1 SWAP2 SUB SWAP1 RETURN JUMPDEST CALLVALUE DUP1 ISZERO PUSH2 0x182 JUMPI PUSH1 0x0 DUP1 REVERT JUMPDEST POP PUSH2 0x18B PUSH2 0x409 JUMP JUMPDEST PUSH1 0x40 MLOAD PUSH2 0x198 SWAP2 SWAP1 PUSH2 0xF22 JUMP JUMPDEST PUSH1 0x40 MLOAD DUP1 SWAP2 SUB SWAP1 RETURN JUMPDEST CALLVALUE DUP1 ISZERO PUSH2 0x1AD JUMPI PUSH1 0x0 DUP1 REVERT JUMPDEST POP PUSH2 0x1B6 PUSH2 0x42F JUMP JUMPDEST PUSH1 0x40 MLOAD PUSH2 0x1C3 SWAP2 SWAP1 PUSH2 0xEE6 JUMP JUMPDEST PUSH1 0x40 MLOAD DUP1 SWAP2 SUB SWAP1 RETURN JUMPDEST PUSH2 0x1D4 PUSH2 0x553 JUMP JUMPDEST PUSH1 0x40 MLOAD PUSH2 0x1E1 SWAP2 SWAP1 PUSH2 0xF22 JUMP JUMPDEST PUSH1 0x40 MLOAD DUP1 SWAP2 SUB SWAP1 RETURN JUMPDEST CALLVALUE DUP1 ISZERO PUSH2 0x1F6 JUMPI PUSH1 0x0 DUP1 REVERT JUMPDEST POP PUSH2 0x1FF PUSH2 0x6C6 JUMP JUMPDEST PUSH1 0x40 MLOAD PUSH2 0x20C SWAP2 SWAP1 PUSH2 0xEE6 JUMP JUMPDEST PUSH1 0x40 MLOAD DUP1 SWAP2 SUB SWAP1 RETURN JUMPDEST PUSH2 0x21D PUSH2 0x6CC JUMP JUMPDEST STOP JUMPDEST CALLVALUE DUP1 ISZERO PUSH2 0x22B JUMPI PUSH1 0x0 DUP1 REVERT JUMPDEST POP PUSH2 0x246 PUSH1 0x4 DUP1 CALLDATASIZE SUB DUP2 ADD SWAP1 PUSH2 0x241 SWAP2 SWAP1 PUSH2 0xF69 JUMP JUMPDEST PUSH2 0x838 JUMP JUMPDEST STOP JUMPDEST CALLVALUE DUP1 ISZERO PUSH2 0x254 JUMPI PUSH1 0x0 DUP1 REVERT JUMPDEST POP PUSH2 0x25D PUSH2 0x87C JUMP JUMPDEST PUSH1 0x40 MLOAD PUSH2 0x26A SWAP2 SWAP1 PUSH2 0xEE6 JUMP JUMPDEST PUSH1 0x40 MLOAD DUP1 SWAP2 SUB SWAP1 RETURN JUMPDEST CALLVALUE DUP1 ISZERO PUSH2 0x27F JUMPI PUSH1 0x0 DUP1 REVERT JUMPDEST POP PUSH2 0x288 PUSH2 0x91B JUMP JUMPDEST PUSH1 0x40 MLOAD PUSH2 0x295 SWAP2 SWAP1 PUSH2 0xF22 JUMP JUMPDEST PUSH1 0x40 MLOAD DUP1 SWAP2 SUB SWAP1 RETURN JUMPDEST CALLVALUE DUP1 ISZERO PUSH2 0x2AA JUMPI PUSH1 0x0 DUP1 REVERT JUMPDEST POP PUSH2 0x2B3 PUSH2 0x941 JUMP JUMPDEST STOP JUMPDEST CALLVALUE DUP1 ISZERO PUSH2 0x2C1 JUMPI PUSH1 0x0 DUP1 REVERT JUMPDEST POP PUSH2 0x2DC PUSH1 0x4 DUP1 CALLDATASIZE SUB DUP2 ADD SWAP1 PUSH2 0x2D7 SWAP2 SWAP1 PUSH2 0xF69 JUMP JUMPDEST PUSH2 0x997 JUMP JUMPDEST STOP JUMPDEST CALLVALUE DUP1 ISZERO PUSH2 0x2EA JUMPI PUSH1 0x0 DUP1 REVERT JUMPDEST POP PUSH2 0x305 PUSH1 0x4 DUP1 CALLDATASIZE SUB DUP2 ADD SWAP1 PUSH2 0x300 SWAP2 SWAP1 PUSH2 0xE4E JUMP JUMPDEST PUSH2 0x9DB JUMP JUMPDEST PUSH1 0x40 MLOAD PUSH2 0x312 SWAP2 SWAP1 PUSH2 0xF22 JUMP JUMPDEST PUSH1 0x40 MLOAD DUP1 SWAP2 SUB SWAP1 RETURN JUMPDEST CALLVALUE DUP1 ISZERO PUSH2 0x327 JUMPI PUSH1 0x0 DUP1 REVERT JUMPDEST POP PUSH2 0x330 PUSH2 0xA1A JUMP JUMPDEST PUSH1 0x40 MLOAD PUSH2 0x33D SWAP2 SWAP1 PUSH2 0x1054 JUMP JUMPDEST PUSH1 0x40 MLOAD DUP1 SWAP2 SUB SWAP1 RETURN JUMPDEST PUSH2 0x34E PUSH2 0xB5C JUMP JUMPDEST STOP JUMPDEST CALLVALUE DUP1 ISZERO PUSH2 0x35C JUMPI PUSH1 0x0 DUP1 REVERT JUMPDEST POP PUSH2 0x365 PUSH2 0xC42 JUMP JUMPDEST PUSH1 0x40 MLOAD PUSH2 0x372 SWAP2 SWAP1 PUSH2 0xF22 JUMP JUMPDEST PUSH1 0x40 MLOAD DUP1 SWAP2 SUB SWAP1 RETURN JUMPDEST CALLVALUE DUP1 ISZERO PUSH2 0x387 JUMPI PUSH1 0x0 DUP1 REVERT JUMPDEST POP PUSH2 0x3A2 PUSH1 0x4 DUP1 CALLDATASIZE SUB DUP2 ADD SWAP1 PUSH2 0x39D SWAP2 SWAP1 PUSH2 0xE4E JUMP JUMPDEST PUSH2 0xC66 JUMP JUMPDEST PUSH1 0x40 MLOAD PUSH2 0x3AF SWAP2 SWAP1 PUSH2 0xF22 JUMP JUMPDEST PUSH1 0x40 MLOAD DUP1 SWAP2 SUB SWAP1 RETURN JUMPDEST PUSH2 0x3C0 PUSH2 0xCA5 JUMP JUMPDEST STOP JUMPDEST PUSH1 0x3 DUP2 DUP2 SLOAD DUP2 LT PUSH2 0x3D2 JUMPI PUSH1 0x0 DUP1 REVERT JUMPDEST SWAP1 PUSH1 0x0 MSTORE PUSH1 0x20 PUSH1 0x0 KECCAK256 ADD PUSH1 0x0 SWAP2 POP SLOAD SWAP1 PUSH2 0x100 EXP SWAP1 DIV PUSH20 0xFFFFFFFFFFFFFFFFFFFFFFFFFFFFFFFFFFFFFFFF AND DUP2 JUMP JUMPDEST PUSH1 0x0 SELFBALANCE SWAP1 POP SWAP1 JUMP JUMPDEST PUSH1 0x4 PUSH1 0x0 SWAP1 SLOAD SWAP1 PUSH2 0x100 EXP SWAP1 DIV PUSH20 0xFFFFFFFFFFFFFFFFFFFFFFFFFFFFFFFFFFFFFFFF AND DUP2 JUMP JUMPDEST PUSH1 0x0 DUP1 PUSH1 0x0 SWAP1 SLOAD SWAP1 PUSH2 0x100 EXP SWAP1 DIV PUSH20 0xFFFFFFFFFFFFFFFFFFFFFFFFFFFFFFFFFFFFFFFF AND PUSH20 0xFFFFFFFFFFFFFFFFFFFFFFFFFFFFFFFFFFFFFFFF AND CALLER PUSH20 0xFFFFFFFFFFFFFFFFFFFFFFFFFFFFFFFFFFFFFFFF AND EQ PUSH2 0x4C0 JUMPI PUSH1 0x40 MLOAD PUSH32 0x8C379A000000000000000000000000000000000000000000000000000000000 DUP2 MSTORE PUSH1 0x4 ADD PUSH2 0x4B7 SWAP1 PUSH2 0x10F9 JUMP JUMPDEST PUSH1 0x40 MLOAD DUP1 SWAP2 SUB SWAP1 REVERT JUMPDEST PUSH20 0xD4FC541236927E2EAF8F27606BD7309C1FC2CBEE PUSH20 0xFFFFFFFFFFFFFFFFFFFFFFFFFFFFFFFFFFFFFFFF AND PUSH4 0x70A08231 ADDRESS PUSH1 0x40 MLOAD DUP3 PUSH4 0xFFFFFFFF AND PUSH1 0xE0 SHL DUP2 MSTORE PUSH1 0x4 ADD PUSH2 0x50D SWAP2 SWAP1 PUSH2 0xF22 JUMP JUMPDEST PUSH1 0x20 PUSH1 0x40 MLOAD DUP1 DUP4 SUB DUP2 DUP7 GAS STATICCALL ISZERO DUP1 ISZERO PUSH2 0x52A JUMPI RETURNDATASIZE PUSH1 0x0 DUP1 RETURNDATACOPY RETURNDATASIZE PUSH1 0x0 REVERT JUMPDEST POP POP POP POP PUSH1 0x40 MLOAD RETURNDATASIZE PUSH1 0x1F NOT PUSH1 0x1F DUP3 ADD AND DUP3 ADD DUP1 PUSH1 0x40 MSTORE POP DUP2 ADD SWAP1 PUSH2 0x54E SWAP2 SWAP1 PUSH2 0x112E JUMP JUMPDEST SWAP1 POP SWAP1 JUMP JUMPDEST PUSH1 0x0 DUP1 ISZERO ISZERO PUSH1 0x7 PUSH1 0x0 SWAP1 SLOAD SWAP1 PUSH2 0x100 EXP SWAP1 DIV PUSH1 0xFF AND ISZERO ISZERO EQ PUSH2 0x5AA JUMPI PUSH1 0x40 MLOAD PUSH32 0x8C379A000000000000000000000000000000000000000000000000000000000 DUP2 MSTORE PUSH1 0x4 ADD PUSH2 0x5A1 SWAP1 PUSH2 0x11CD JUMP JUMPDEST PUSH1 0x40 MLOAD DUP1 SWAP2 SUB SWAP1 REVERT JUMPDEST PUSH1 0x0 PUSH1 0x5 PUSH1 0x0 SWAP1 SLOAD SWAP1 PUSH2 0x100 EXP SWAP1 DIV PUSH20 0xFFFFFFFFFFFFFFFFFFFFFFFFFFFFFFFFFFFFFFFF AND SWAP1 POP DUP1 PUSH20 0xFFFFFFFFFFFFFFFFFFFFFFFFFFFFFFFFFFFFFFFF AND PUSH4 0xC129800D PUSH1 0x1 PUSH1 0x40 MLOAD DUP3 PUSH4 0xFFFFFFFF AND PUSH1 0xE0 SHL DUP2 MSTORE PUSH1 0x4 ADD PUSH2 0x60B SWAP2 SWAP1 PUSH2 0x12D9 JUMP JUMPDEST PUSH1 0x20 PUSH1 0x40 MLOAD DUP1 DUP4 SUB DUP2 PUSH1 0x0 DUP8 GAS CALL ISZERO DUP1 ISZERO PUSH2 0x62A JUMPI RETURNDATASIZE PUSH1 0x0 DUP1 RETURNDATACOPY RETURNDATASIZE PUSH1 0x0 REVERT JUMPDEST POP POP POP POP PUSH1 0x40 MLOAD RETURNDATASIZE PUSH1 0x1F NOT PUSH1 0x1F DUP3 ADD AND DUP3 ADD DUP1 PUSH1 0x40 MSTORE POP DUP2 ADD SWAP1 PUSH2 0x64E SWAP2 SWAP1 PUSH2 0x1333 JUMP JUMPDEST POP DUP1 PUSH20 0xFFFFFFFFFFFFFFFFFFFFFFFFFFFFFFFFFFFFFFFF AND PUSH4 0x8E7EA5B2 PUSH1 0x40 MLOAD DUP2 PUSH4 0xFFFFFFFF AND PUSH1 0xE0 SHL DUP2 MSTORE PUSH1 0x4 ADD PUSH1 0x20 PUSH1 0x40 MLOAD DUP1 DUP4 SUB DUP2 PUSH1 0x0 DUP8 GAS CALL ISZERO DUP1 ISZERO PUSH2 0x69C JUMPI RETURNDATASIZE PUSH1 0x0 DUP1 RETURNDATACOPY RETURNDATASIZE PUSH1 0x0 REVERT JUMPDEST POP POP POP POP PUSH1 0x40 MLOAD RETURNDATASIZE PUSH1 0x1F NOT PUSH1 0x1F DUP3 ADD AND DUP3 ADD DUP1 PUSH1 0x40 MSTORE POP DUP2 ADD SWAP1 PUSH2 0x6C0 SWAP2 SWAP1 PUSH2 0x1375 JUMP JUMPDEST SWAP2 POP POP SWAP1 JUMP JUMPDEST PUSH1 0x8 SLOAD DUP2 JUMP JUMPDEST PUSH1 0x0 PUSH20 0xD4FC541236927E2EAF8F27606BD7309C1FC2CBEE PUSH20 0xFFFFFFFFFFFFFFFFFFFFFFFFFFFFFFFFFFFFFFFF AND PUSH4 0x70A08231 CALLER PUSH1 0x40 MLOAD DUP3 PUSH4 0xFFFFFFFF AND PUSH1 0xE0 SHL DUP2 MSTORE PUSH1 0x4 ADD PUSH2 0x71B SWAP2 SWAP1 PUSH2 0xF22 JUMP JUMPDEST PUSH1 0x20 PUSH1 0x40 MLOAD DUP1 DUP4 SUB DUP2 DUP7 GAS STATICCALL ISZERO DUP1 ISZERO PUSH2 0x738 JUMPI RETURNDATASIZE PUSH1 0x0 DUP1 RETURNDATACOPY RETURNDATASIZE PUSH1 0x0 REVERT JUMPDEST POP POP POP POP PUSH1 0x40 MLOAD RETURNDATASIZE PUSH1 0x1F NOT PUSH1 0x1F DUP3 ADD AND DUP3 ADD DUP1 PUSH1 0x40 MSTORE POP DUP2 ADD SWAP1 PUSH2 0x75C SWAP2 SWAP1 PUSH2 0x112E JUMP JUMPDEST SWAP1 POP PUSH1 0x0 DUP2 EQ PUSH2 0x7A1 JUMPI PUSH1 0x40 MLOAD PUSH32 0x8C379A000000000000000000000000000000000000000000000000000000000 DUP2 MSTORE PUSH1 0x4 ADD PUSH2 0x798 SWAP1 PUSH2 0x13EE JUMP JUMPDEST PUSH1 0x40 MLOAD DUP1 SWAP2 SUB SWAP1 REVERT JUMPDEST PUSH20 0xD4FC541236927E2EAF8F27606BD7309C1FC2CBEE PUSH20 0xFFFFFFFFFFFFFFFFFFFFFFFFFFFFFFFFFFFFFFFF AND PUSH4 0xA9059CBB CALLER PUSH1 0x1 PUSH1 0x40 MLOAD DUP4 PUSH4 0xFFFFFFFF AND PUSH1 0xE0 SHL DUP2 MSTORE PUSH1 0x4 ADD PUSH2 0x7F1 SWAP3 SWAP2 SWAP1 PUSH2 0x1453 JUMP JUMPDEST PUSH1 0x20 PUSH1 0x40 MLOAD DUP1 DUP4 SUB DUP2 PUSH1 0x0 DUP8 GAS CALL ISZERO DUP1 ISZERO PUSH2 0x810 JUMPI RETURNDATASIZE PUSH1 0x0 DUP1 RETURNDATACOPY RETURNDATASIZE PUSH1 0x0 REVERT JUMPDEST POP POP POP POP PUSH1 0x40 MLOAD RETURNDATASIZE PUSH1 0x1F NOT PUSH1 0x1F DUP3 ADD AND DUP3 ADD DUP1 PUSH1 0x40 MSTORE POP DUP2 ADD SWAP1 PUSH2 0x834 SWAP2 SWAP1 PUSH2 0x1333 JUMP JUMPDEST POP POP JUMP JUMPDEST DUP1 PUSH1 0x4 PUSH1 0x0 PUSH2 0x100 EXP DUP2 SLOAD DUP2 PUSH20 0xFFFFFFFFFFFFFFFFFFFFFFFFFFFFFFFFFFFFFFFF MUL NOT AND SWAP1 DUP4 PUSH20 0xFFFFFFFFFFFFFFFFFFFFFFFFFFFFFFFFFFFFFFFF AND MUL OR SWAP1 SSTORE POP POP JUMP JUMPDEST PUSH1 0x0 DUP1 PUSH1 0x4 PUSH1 0x0 SWAP1 SLOAD SWAP1 PUSH2 0x100 EXP SWAP1 DIV PUSH20 0xFFFFFFFFFFFFFFFFFFFFFFFFFFFFFFFFFFFFFFFF AND SWAP1 POP DUP1 PUSH20 0xFFFFFFFFFFFFFFFFFFFFFFFFFFFFFFFFFFFFFFFF AND PUSH4 0x94BEC071 PUSH1 0x40 MLOAD DUP2 PUSH4 0xFFFFFFFF AND PUSH1 0xE0 SHL DUP2 MSTORE PUSH1 0x4 ADD PUSH1 0x20 PUSH1 0x40 MLOAD DUP1 DUP4 SUB DUP2 PUSH1 0x0 DUP8 GAS CALL ISZERO DUP1 ISZERO PUSH2 0x8F1 JUMPI RETURNDATASIZE PUSH1 0x0 DUP1 RETURNDATACOPY RETURNDATASIZE PUSH1 0x0 REVERT JUMPDEST POP POP POP POP PUSH1 0x40 MLOAD RETURNDATASIZE PUSH1 0x1F NOT PUSH1 0x1F DUP3 ADD AND DUP3 ADD DUP1 PUSH1 0x40 MSTORE POP DUP2 ADD SWAP1 PUSH2 0x915 SWAP2 SWAP1 PUSH2 0x112E JUMP JUMPDEST SWAP2 POP POP SWAP1 JUMP JUMPDEST PUSH1 0x5 PUSH1 0x0 SWAP1 SLOAD SWAP1 PUSH2 0x100 EXP SWAP1 DIV PUSH20 0xFFFFFFFFFFFFFFFFFFFFFFFFFFFFFFFFFFFFFFFF AND DUP2 JUMP JUMPDEST PUSH1 0x1 ISZERO ISZERO PUSH1 0x7 PUSH1 0x0 SWAP1 SLOAD SWAP1 PUSH2 0x100 EXP SWAP1 DIV PUSH1 0xFF AND ISZERO ISZERO EQ DUP1 ISZERO PUSH2 0x974 JUMPI POP PUSH3 0x278D00 PUSH1 0x8 SLOAD PUSH2 0x970 SWAP2 SWAP1 PUSH2 0x14AB JUMP JUMPDEST TIMESTAMP LT ISZERO JUMPDEST ISZERO PUSH2 0x995 JUMPI PUSH1 0x0 PUSH1 0x7 PUSH1 0x0 PUSH2 0x100 EXP DUP2 SLOAD DUP2 PUSH1 0xFF MUL NOT AND SWAP1 DUP4 ISZERO ISZERO MUL OR SWAP1 SSTORE POP JUMPDEST JUMP JUMPDEST DUP1 PUSH1 0x5 PUSH1 0x0 PUSH2 0x100 EXP DUP2 SLOAD DUP2 PUSH20 0xFFFFFFFFFFFFFFFFFFFFFFFFFFFFFFFFFFFFFFFF MUL NOT AND SWAP1 DUP4 PUSH20 0xFFFFFFFFFFFFFFFFFFFFFFFFFFFFFFFFFFFFFFFF AND MUL OR SWAP1 SSTORE POP POP JUMP JUMPDEST PUSH1 0x1 DUP2 DUP2 SLOAD DUP2 LT PUSH2 0x9EB JUMPI PUSH1 0x0 DUP1 REVERT JUMPDEST SWAP1 PUSH1 0x0 MSTORE PUSH1 0x20 PUSH1 0x0 KECCAK256 ADD PUSH1 0x0 SWAP2 POP SLOAD SWAP1 PUSH2 0x100 EXP SWAP1 DIV PUSH20 0xFFFFFFFFFFFFFFFFFFFFFFFFFFFFFFFFFFFFFFFF AND DUP2 JUMP JUMPDEST PUSH1 0x60 PUSH1 0x0 PUSH1 0x4 PUSH1 0x0 SWAP1 SLOAD SWAP1 PUSH2 0x100 EXP SWAP1 DIV PUSH20 0xFFFFFFFFFFFFFFFFFFFFFFFFFFFFFFFFFFFFFFFF AND SWAP1 POP DUP1 PUSH20 0xFFFFFFFFFFFFFFFFFFFFFFFFFFFFFFFFFFFFFFFF AND PUSH4 0xCDD72253 PUSH1 0x40 MLOAD DUP2 PUSH4 0xFFFFFFFF AND PUSH1 0xE0 SHL DUP2 MSTORE PUSH1 0x4 ADD PUSH1 0x0 PUSH1 0x40 MLOAD DUP1 DUP4 SUB DUP2 PUSH1 0x0 DUP8 GAS CALL ISZERO DUP1 ISZERO PUSH2 0xA90 JUMPI RETURNDATASIZE PUSH1 0x0 DUP1 RETURNDATACOPY RETURNDATASIZE PUSH1 0x0 REVERT JUMPDEST POP POP POP POP PUSH1 0x40 MLOAD RETURNDATASIZE PUSH1 0x0 DUP3 RETURNDATACOPY RETURNDATASIZE PUSH1 0x1F NOT PUSH1 0x1F DUP3 ADD AND DUP3 ADD DUP1 PUSH1 0x40 MSTORE POP DUP2 ADD SWAP1 PUSH2 0xAB9 SWAP2 SWAP1 PUSH2 0x165A JUMP JUMPDEST PUSH1 0x2 SWAP1 DUP1 MLOAD SWAP1 PUSH1 0x20 ADD SWAP1 PUSH2 0xACE SWAP3 SWAP2 SWAP1 PUSH2 0xD5D JUMP JUMPDEST POP PUSH1 0x2 DUP1 SLOAD DUP1 PUSH1 0x20 MUL PUSH1 0x20 ADD PUSH1 0x40 MLOAD SWAP1 DUP2 ADD PUSH1 0x40 MSTORE DUP1 SWAP3 SWAP2 SWAP1 DUP2 DUP2 MSTORE PUSH1 0x20 ADD DUP3 DUP1 SLOAD DUP1 ISZERO PUSH2 0xB51 JUMPI PUSH1 0x20 MUL DUP3 ADD SWAP2 SWAP1 PUSH1 0x0 MSTORE PUSH1 0x20 PUSH1 0x0 KECCAK256 SWAP1 JUMPDEST DUP2 PUSH1 0x0 SWAP1 SLOAD SWAP1 PUSH2 0x100 EXP SWAP1 DIV PUSH20 0xFFFFFFFFFFFFFFFFFFFFFFFFFFFFFFFFFFFFFFFF AND PUSH20 0xFFFFFFFFFFFFFFFFFFFFFFFFFFFFFFFFFFFFFFFF AND DUP2 MSTORE PUSH1 0x20 ADD SWAP1 PUSH1 0x1 ADD SWAP1 DUP1 DUP4 GT PUSH2 0xB07 JUMPI JUMPDEST POP POP POP POP POP SWAP2 POP POP SWAP1 JUMP JUMPDEST PUSH1 0x0 ISZERO ISZERO PUSH1 0x7 PUSH1 0x0 SWAP1 SLOAD SWAP1 PUSH2 0x100 EXP SWAP1 DIV PUSH1 0xFF AND ISZERO ISZERO EQ PUSH2 0xBB2 JUMPI PUSH1 0x40 MLOAD PUSH32 0x8C379A000000000000000000000000000000000000000000000000000000000 DUP2 MSTORE PUSH1 0x4 ADD PUSH2 0xBA9 SWAP1 PUSH2 0x11CD JUMP JUMPDEST PUSH1 0x40 MLOAD DUP1 SWAP2 SUB SWAP1 REVERT JUMPDEST PUSH1 0x0 DUP1 SLOAD SWAP1 PUSH2 0x100 EXP SWAP1 DIV PUSH20 0xFFFFFFFFFFFFFFFFFFFFFFFFFFFFFFFFFFFFFFFF AND PUSH20 0xFFFFFFFFFFFFFFFFFFFFFFFFFFFFFFFFFFFFFFFF AND CALLER PUSH20 0xFFFFFFFFFFFFFFFFFFFFFFFFFFFFFFFFFFFFFFFF AND EQ PUSH2 0xC40 JUMPI PUSH1 0x40 MLOAD PUSH32 0x8C379A000000000000000000000000000000000000000000000000000000000 DUP2 MSTORE PUSH1 0x4 ADD PUSH2 0xC37 SWAP1 PUSH2 0x10F9 JUMP JUMPDEST PUSH1 0x40 MLOAD DUP1 SWAP2 SUB SWAP1 REVERT JUMPDEST JUMP JUMPDEST PUSH1 0x0 DUP1 SLOAD SWAP1 PUSH2 0x100 EXP SWAP1 DIV PUSH20 0xFFFFFFFFFFFFFFFFFFFFFFFFFFFFFFFFFFFFFFFF AND DUP2 JUMP JUMPDEST PUSH1 0x2 DUP2 DUP2 SLOAD DUP2 LT PUSH2 0xC76 JUMPI PUSH1 0x0 DUP1 REVERT JUMPDEST SWAP1 PUSH1 0x0 MSTORE PUSH1 0x20 PUSH1 0x0 KECCAK256 ADD PUSH1 0x0 SWAP2 POP SLOAD SWAP1 PUSH2 0x100 EXP SWAP1 DIV PUSH20 0xFFFFFFFFFFFFFFFFFFFFFFFFFFFFFFFFFFFFFFFF AND DUP2 JUMP JUMPDEST PUSH8 0x16345785D8A0000 CALLVALUE LT ISZERO PUSH2 0xCF0 JUMPI PUSH1 0x40 MLOAD PUSH32 0x8C379A000000000000000000000000000000000000000000000000000000000 DUP2 MSTORE PUSH1 0x4 ADD PUSH2 0xCE7 SWAP1 PUSH2 0x16EF JUMP JUMPDEST PUSH1 0x40 MLOAD DUP1 SWAP2 SUB SWAP1 REVERT JUMPDEST PUSH1 0x1 CALLER SWAP1 DUP1 PUSH1 0x1 DUP2 SLOAD ADD DUP1 DUP3 SSTORE DUP1 SWAP2 POP POP PUSH1 0x1 SWAP1 SUB SWAP1 PUSH1 0x0 MSTORE PUSH1 0x20 PUSH1 0x0 KECCAK256 ADD PUSH1 0x0 SWAP1 SWAP2 SWAP1 SWAP2 SWAP1 SWAP2 PUSH2 0x100 EXP DUP2 SLOAD DUP2 PUSH20 0xFFFFFFFFFFFFFFFFFFFFFFFFFFFFFFFFFFFFFFFF MUL NOT AND SWAP1 DUP4 PUSH20 0xFFFFFFFFFFFFFFFFFFFFFFFFFFFFFFFFFFFFFFFF AND MUL OR SWAP1 SSTORE POP PUSH2 0xD5B PUSH2 0x6CC JUMP JUMPDEST JUMP JUMPDEST DUP3 DUP1 SLOAD DUP3 DUP3 SSTORE SWAP1 PUSH1 0x0 MSTORE PUSH1 0x20 PUSH1 0x0 KECCAK256 SWAP1 DUP2 ADD SWAP3 DUP3 ISZERO PUSH2 0xDD6 JUMPI SWAP2 PUSH1 0x20 MUL DUP3 ADD JUMPDEST DUP3 DUP2 GT ISZERO PUSH2 0xDD5 JUMPI DUP3 MLOAD DUP3 PUSH1 0x0 PUSH2 0x100 EXP DUP2 SLOAD DUP2 PUSH20 0xFFFFFFFFFFFFFFFFFFFFFFFFFFFFFFFFFFFFFFFF MUL NOT AND SWAP1 DUP4 PUSH20 0xFFFFFFFFFFFFFFFFFFFFFFFFFFFFFFFFFFFFFFFF AND MUL OR SWAP1 SSTORE POP SWAP2 PUSH1 0x20 ADD SWAP2 SWAP1 PUSH1 0x1 ADD SWAP1 PUSH2 0xD7D JUMP JUMPDEST JUMPDEST POP SWAP1 POP PUSH2 0xDE3 SWAP2 SWAP1 PUSH2 0xDE7 JUMP JUMPDEST POP SWAP1 JUMP JUMPDEST JUMPDEST DUP1 DUP3 GT ISZERO PUSH2 0xE00 JUMPI PUSH1 0x0 DUP2 PUSH1 0x0 SWAP1 SSTORE POP PUSH1 0x1 ADD PUSH2 0xDE8 JUMP JUMPDEST POP SWAP1 JUMP JUMPDEST PUSH1 0x0 PUSH1 0x40 MLOAD SWAP1 POP SWAP1 JUMP JUMPDEST PUSH1 0x0 DUP1 REVERT JUMPDEST PUSH1 0x0 DUP1 REVERT JUMPDEST PUSH1 0x0 DUP2 SWAP1 POP SWAP2 SWAP1 POP JUMP JUMPDEST PUSH2 0xE2B DUP2 PUSH2 0xE18 JUMP JUMPDEST DUP2 EQ PUSH2 0xE36 JUMPI PUSH1 0x0 DUP1 REVERT JUMPDEST POP JUMP JUMPDEST PUSH1 0x0 DUP2 CALLDATALOAD SWAP1 POP PUSH2 0xE48 DUP2 PUSH2 0xE22 JUMP JUMPDEST SWAP3 SWAP2 POP POP JUMP JUMPDEST PUSH1 0x0 PUSH1 0x20 DUP3 DUP5 SUB SLT ISZERO PUSH2 0xE64 JUMPI PUSH2 0xE63 PUSH2 0xE0E JUMP JUMPDEST JUMPDEST PUSH1 0x0 PUSH2 0xE72 DUP5 DUP3 DUP6 ADD PUSH2 0xE39 JUMP JUMPDEST SWAP2 POP POP SWAP3 SWAP2 POP POP JUMP JUMPDEST PUSH1 0x0 PUSH20 0xFFFFFFFFFFFFFFFFFFFFFFFFFFFFFFFFFFFFFFFF DUP3 AND SWAP1 POP SWAP2 SWAP1 POP JUMP JUMPDEST PUSH1 0x0 PUSH2 0xEA6 DUP3 PUSH2 0xE7B JUMP JUMPDEST SWAP1 POP SWAP2 SWAP1 POP JUMP JUMPDEST PUSH2 0xEB6 DUP2 PUSH2 0xE9B JUMP JUMPDEST DUP3 MSTORE POP POP JUMP JUMPDEST PUSH1 0x0 PUSH1 0x20 DUP3 ADD SWAP1 POP PUSH2 0xED1 PUSH1 0x0 DUP4 ADD DUP5 PUSH2 0xEAD JUMP JUMPDEST SWAP3 SWAP2 POP POP JUMP JUMPDEST PUSH2 0xEE0 DUP2 PUSH2 0xE18 JUMP JUMPDEST DUP3 MSTORE POP POP JUMP JUMPDEST PUSH1 0x0 PUSH1 0x20 DUP3 ADD SWAP1 POP PUSH2 0xEFB PUSH1 0x0 DUP4 ADD DUP5 PUSH2 0xED7 JUMP JUMPDEST SWAP3 SWAP2 POP POP JUMP JUMPDEST PUSH1 0x0 PUSH2 0xF0C DUP3 PUSH2 0xE7B JUMP JUMPDEST SWAP1 POP SWAP2 SWAP1 POP JUMP JUMPDEST PUSH2 0xF1C DUP2 PUSH2 0xF01 JUMP JUMPDEST DUP3 MSTORE POP POP JUMP JUMPDEST PUSH1 0x0 PUSH1 0x20 DUP3 ADD SWAP1 POP PUSH2 0xF37 PUSH1 0x0 DUP4 ADD DUP5 PUSH2 0xF13 JUMP JUMPDEST SWAP3 SWAP2 POP POP JUMP JUMPDEST PUSH2 0xF46 DUP2 PUSH2 0xF01 JUMP JUMPDEST DUP2 EQ PUSH2 0xF51 JUMPI PUSH1 0x0 DUP1 REVERT JUMPDEST POP JUMP JUMPDEST PUSH1 0x0 DUP2 CALLDATALOAD SWAP1 POP PUSH2 0xF63 DUP2 PUSH2 0xF3D JUMP JUMPDEST SWAP3 SWAP2 POP POP JUMP JUMPDEST PUSH1 0x0 PUSH1 0x20 DUP3 DUP5 SUB SLT ISZERO PUSH2 0xF7F JUMPI PUSH2 0xF7E PUSH2 0xE0E JUMP JUMPDEST JUMPDEST PUSH1 0x0 PUSH2 0xF8D DUP5 DUP3 DUP6 ADD PUSH2 0xF54 JUMP JUMPDEST SWAP2 POP POP SWAP3 SWAP2 POP POP JUMP JUMPDEST PUSH1 0x0 DUP2 MLOAD SWAP1 POP SWAP2 SWAP1 POP JUMP JUMPDEST PUSH1 0x0 DUP3 DUP3 MSTORE PUSH1 0x20 DUP3 ADD SWAP1 POP SWAP3 SWAP2 POP POP JUMP JUMPDEST PUSH1 0x0 DUP2 SWAP1 POP PUSH1 0x20 DUP3 ADD SWAP1 POP SWAP2 SWAP1 POP JUMP JUMPDEST PUSH2 0xFCB DUP2 PUSH2 0xF01 JUMP JUMPDEST DUP3 MSTORE POP POP JUMP JUMPDEST PUSH1 0x0 PUSH2 0xFDD DUP4 DUP4 PUSH2 0xFC2 JUMP JUMPDEST PUSH1 0x20 DUP4 ADD SWAP1 POP SWAP3 SWAP2 POP POP JUMP JUMPDEST PUSH1 0x0 PUSH1 0x20 DUP3 ADD SWAP1 POP SWAP2 SWAP1 POP JUMP JUMPDEST PUSH1 0x0 PUSH2 0x1001 DUP3 PUSH2 0xF96 JUMP JUMPDEST PUSH2 0x100B DUP2 DUP6 PUSH2 0xFA1 JUMP JUMPDEST SWAP4 POP PUSH2 0x1016 DUP4 PUSH2 0xFB2 JUMP JUMPDEST DUP1 PUSH1 0x0 JUMPDEST DUP4 DUP2 LT ISZERO PUSH2 0x1047 JUMPI DUP2 MLOAD PUSH2 0x102E DUP9 DUP3 PUSH2 0xFD1 JUMP JUMPDEST SWAP8 POP PUSH2 0x1039 DUP4 PUSH2 0xFE9 JUMP JUMPDEST SWAP3 POP POP PUSH1 0x1 DUP2 ADD SWAP1 POP PUSH2 0x101A JUMP JUMPDEST POP DUP6 SWAP4 POP POP POP POP SWAP3 SWAP2 POP POP JUMP JUMPDEST PUSH1 0x0 PUSH1 0x20 DUP3 ADD SWAP1 POP DUP2 DUP2 SUB PUSH1 0x0 DUP4 ADD MSTORE PUSH2 0x106E DUP2 DUP5 PUSH2 0xFF6 JUMP JUMPDEST SWAP1 POP SWAP3 SWAP2 POP POP JUMP JUMPDEST PUSH1 0x0 DUP3 DUP3 MSTORE PUSH1 0x20 DUP3 ADD SWAP1 POP SWAP3 SWAP2 POP POP JUMP JUMPDEST PUSH32 0x6F6E6C792043686172795465616D2063616E2063616C6C20746869732066756E PUSH1 0x0 DUP3 ADD MSTORE PUSH32 0x6374696F6E000000000000000000000000000000000000000000000000000000 PUSH1 0x20 DUP3 ADD MSTORE POP JUMP JUMPDEST PUSH1 0x0 PUSH2 0x10E3 PUSH1 0x25 DUP4 PUSH2 0x1076 JUMP JUMPDEST SWAP2 POP PUSH2 0x10EE DUP3 PUSH2 0x1087 JUMP JUMPDEST PUSH1 0x40 DUP3 ADD SWAP1 POP SWAP2 SWAP1 POP JUMP JUMPDEST PUSH1 0x0 PUSH1 0x20 DUP3 ADD SWAP1 POP DUP2 DUP2 SUB PUSH1 0x0 DUP4 ADD MSTORE PUSH2 0x1112 DUP2 PUSH2 0x10D6 JUMP JUMPDEST SWAP1 POP SWAP2 SWAP1 POP JUMP JUMPDEST PUSH1 0x0 DUP2 MLOAD SWAP1 POP PUSH2 0x1128 DUP2 PUSH2 0xE22 JUMP JUMPDEST SWAP3 SWAP2 POP POP JUMP JUMPDEST PUSH1 0x0 PUSH1 0x20 DUP3 DUP5 SUB SLT ISZERO PUSH2 0x1144 JUMPI PUSH2 0x1143 PUSH2 0xE0E JUMP JUMPDEST JUMPDEST PUSH1 0x0 PUSH2 0x1152 DUP5 DUP3 DUP6 ADD PUSH2 0x1119 JUMP JUMPDEST SWAP2 POP POP SWAP3 SWAP2 POP POP JUMP JUMPDEST PUSH32 0x5370656E64656E2077657264656E206E69636874206D65687220676573616D6D PUSH1 0x0 DUP3 ADD MSTORE PUSH32 0x656C740000000000000000000000000000000000000000000000000000000000 PUSH1 0x20 DUP3 ADD MSTORE POP JUMP JUMPDEST PUSH1 0x0 PUSH2 0x11B7 PUSH1 0x23 DUP4 PUSH2 0x1076 JUMP JUMPDEST SWAP2 POP PUSH2 0x11C2 DUP3 PUSH2 0x115B JUMP JUMPDEST PUSH1 0x40 DUP3 ADD SWAP1 POP SWAP2 SWAP1 POP JUMP JUMPDEST PUSH1 0x0 PUSH1 0x20 DUP3 ADD SWAP1 POP DUP2 DUP2 SUB PUSH1 0x0 DUP4 ADD MSTORE PUSH2 0x11E6 DUP2 PUSH2 0x11AA JUMP JUMPDEST SWAP1 POP SWAP2 SWAP1 POP JUMP JUMPDEST PUSH1 0x0 DUP2 SLOAD SWAP1 POP SWAP2 SWAP1 POP JUMP JUMPDEST PUSH1 0x0 DUP2 SWAP1 POP DUP2 PUSH1 0x0 MSTORE PUSH1 0x20 PUSH1 0x0 KECCAK256 SWAP1 POP SWAP2 SWAP1 POP JUMP JUMPDEST PUSH1 0x0 DUP2 PUSH1 0x0 SHR SWAP1 POP SWAP2 SWAP1 POP JUMP JUMPDEST PUSH1 0x0 PUSH20 0xFFFFFFFFFFFFFFFFFFFFFFFFFFFFFFFFFFFFFFFF DUP3 AND SWAP1 POP SWAP2 SWAP1 POP JUMP JUMPDEST PUSH1 0x0 PUSH2 0x124D PUSH2 0x1248 DUP4 PUSH2 0x120D JUMP JUMPDEST PUSH2 0x121A JUMP JUMPDEST SWAP1 POP SWAP2 SWAP1 POP JUMP JUMPDEST PUSH1 0x0 PUSH2 0x1260 DUP3 SLOAD PUSH2 0x123A JUMP JUMPDEST SWAP1 POP SWAP2 SWAP1 POP JUMP JUMPDEST PUSH1 0x0 PUSH1 0x1 DUP3 ADD SWAP1 POP SWAP2 SWAP1 POP JUMP JUMPDEST PUSH1 0x0 PUSH2 0x127F DUP3 PUSH2 0x11ED JUMP JUMPDEST PUSH2 0x1289 DUP2 DUP6 PUSH2 0xFA1 JUMP JUMPDEST SWAP4 POP PUSH2 0x1294 DUP4 PUSH2 0x11F8 JUMP JUMPDEST DUP1 PUSH1 0x0 JUMPDEST DUP4 DUP2 LT ISZERO PUSH2 0x12CC JUMPI PUSH2 0x12A9 DUP3 PUSH2 0x1254 JUMP JUMPDEST PUSH2 0x12B3 DUP9 DUP3 PUSH2 0xFD1 JUMP JUMPDEST SWAP8 POP PUSH2 0x12BE DUP4 PUSH2 0x1267 JUMP JUMPDEST SWAP3 POP POP PUSH1 0x1 DUP2 ADD SWAP1 POP PUSH2 0x1298 JUMP JUMPDEST POP DUP6 SWAP4 POP POP POP POP SWAP3 SWAP2 POP POP JUMP JUMPDEST PUSH1 0x0 PUSH1 0x20 DUP3 ADD SWAP1 POP DUP2 DUP2 SUB PUSH1 0x0 DUP4 ADD MSTORE PUSH2 0x12F3 DUP2 DUP5 PUSH2 0x1274 JUMP JUMPDEST SWAP1 POP SWAP3 SWAP2 POP POP JUMP JUMPDEST PUSH1 0x0 DUP2 ISZERO ISZERO SWAP1 POP SWAP2 SWAP1 POP JUMP JUMPDEST PUSH2 0x1310 DUP2 PUSH2 0x12FB JUMP JUMPDEST DUP2 EQ PUSH2 0x131B JUMPI PUSH1 0x0 DUP1 REVERT JUMPDEST POP JUMP JUMPDEST PUSH1 0x0 DUP2 MLOAD SWAP1 POP PUSH2 0x132D DUP2 PUSH2 0x1307 JUMP JUMPDEST SWAP3 SWAP2 POP POP JUMP JUMPDEST PUSH1 0x0 PUSH1 0x20 DUP3 DUP5 SUB SLT ISZERO PUSH2 0x1349 JUMPI PUSH2 0x1348 PUSH2 0xE0E JUMP JUMPDEST JUMPDEST PUSH1 0x0 PUSH2 0x1357 DUP5 DUP3 DUP6 ADD PUSH2 0x131E JUMP JUMPDEST SWAP2 POP POP SWAP3 SWAP2 POP POP JUMP JUMPDEST PUSH1 0x0 DUP2 MLOAD SWAP1 POP PUSH2 0x136F DUP2 PUSH2 0xF3D JUMP JUMPDEST SWAP3 SWAP2 POP POP JUMP JUMPDEST PUSH1 0x0 PUSH1 0x20 DUP3 DUP5 SUB SLT ISZERO PUSH2 0x138B JUMPI PUSH2 0x138A PUSH2 0xE0E JUMP JUMPDEST JUMPDEST PUSH1 0x0 PUSH2 0x1399 DUP5 DUP3 DUP6 ADD PUSH2 0x1360 JUMP JUMPDEST SWAP2 POP POP SWAP3 SWAP2 POP POP JUMP JUMPDEST PUSH32 0x73656E64657220616C7265616479206861732061204354000000000000000000 PUSH1 0x0 DUP3 ADD MSTORE POP JUMP JUMPDEST PUSH1 0x0 PUSH2 0x13D8 PUSH1 0x17 DUP4 PUSH2 0x1076 JUMP JUMPDEST SWAP2 POP PUSH2 0x13E3 DUP3 PUSH2 0x13A2 JUMP JUMPDEST PUSH1 0x20 DUP3 ADD SWAP1 POP SWAP2 SWAP1 POP JUMP JUMPDEST PUSH1 0x0 PUSH1 0x20 DUP3 ADD SWAP1 POP DUP2 DUP2 SUB PUSH1 0x0 DUP4 ADD MSTORE PUSH2 0x1407 DUP2 PUSH2 0x13CB JUMP JUMPDEST SWAP1 POP SWAP2 SWAP1 POP JUMP JUMPDEST PUSH1 0x0 DUP2 SWAP1 POP SWAP2 SWAP1 POP JUMP JUMPDEST PUSH1 0x0 DUP2 SWAP1 POP SWAP2 SWAP1 POP JUMP JUMPDEST PUSH1 0x0 PUSH2 0x143D PUSH2 0x1438 PUSH2 0x1433 DUP5 PUSH2 0x140E JUMP JUMPDEST PUSH2 0x1418 JUMP JUMPDEST PUSH2 0xE18 JUMP JUMPDEST SWAP1 POP SWAP2 SWAP1 POP JUMP JUMPDEST PUSH2 0x144D DUP2 PUSH2 0x1422 JUMP JUMPDEST DUP3 MSTORE POP POP JUMP JUMPDEST PUSH1 0x0 PUSH1 0x40 DUP3 ADD SWAP1 POP PUSH2 0x1468 PUSH1 0x0 DUP4 ADD DUP6 PUSH2 0xF13 JUMP JUMPDEST PUSH2 0x1475 PUSH1 0x20 DUP4 ADD DUP5 PUSH2 0x1444 JUMP JUMPDEST SWAP4 SWAP3 POP POP POP JUMP JUMPDEST PUSH32 0x4E487B7100000000000000000000000000000000000000000000000000000000 PUSH1 0x0 MSTORE PUSH1 0x11 PUSH1 0x4 MSTORE PUSH1 0x24 PUSH1 0x0 REVERT JUMPDEST PUSH1 0x0 PUSH2 0x14B6 DUP3 PUSH2 0xE18 JUMP JUMPDEST SWAP2 POP PUSH2 0x14C1 DUP4 PUSH2 0xE18 JUMP JUMPDEST SWAP3 POP DUP3 PUSH32 0xFFFFFFFFFFFFFFFFFFFFFFFFFFFFFFFFFFFFFFFFFFFFFFFFFFFFFFFFFFFFFFFF SUB DUP3 GT ISZERO PUSH2 0x14F6 JUMPI PUSH2 0x14F5 PUSH2 0x147C JUMP JUMPDEST JUMPDEST DUP3 DUP3 ADD SWAP1 POP SWAP3 SWAP2 POP POP JUMP JUMPDEST PUSH1 0x0 DUP1 REVERT JUMPDEST PUSH1 0x0 PUSH1 0x1F NOT PUSH1 0x1F DUP4 ADD AND SWAP1 POP SWAP2 SWAP1 POP JUMP JUMPDEST PUSH32 0x4E487B7100000000000000000000000000000000000000000000000000000000 PUSH1 0x0 MSTORE PUSH1 0x41 PUSH1 0x4 MSTORE PUSH1 0x24 PUSH1 0x0 REVERT JUMPDEST PUSH2 0x154F DUP3 PUSH2 0x1506 JUMP JUMPDEST DUP2 ADD DUP2 DUP2 LT PUSH8 0xFFFFFFFFFFFFFFFF DUP3 GT OR ISZERO PUSH2 0x156E JUMPI PUSH2 0x156D PUSH2 0x1517 JUMP JUMPDEST JUMPDEST DUP1 PUSH1 0x40 MSTORE POP POP POP JUMP JUMPDEST PUSH1 0x0 PUSH2 0x1581 PUSH2 0xE04 JUMP JUMPDEST SWAP1 POP PUSH2 0x158D DUP3 DUP3 PUSH2 0x1546 JUMP JUMPDEST SWAP2 SWAP1 POP JUMP JUMPDEST PUSH1 0x0 PUSH8 0xFFFFFFFFFFFFFFFF DUP3 GT ISZERO PUSH2 0x15AD JUMPI PUSH2 0x15AC PUSH2 0x1517 JUMP JUMPDEST JUMPDEST PUSH1 0x20 DUP3 MUL SWAP1 POP PUSH1 0x20 DUP2 ADD SWAP1 POP SWAP2 SWAP1 POP JUMP JUMPDEST PUSH1 0x0 DUP1 REVERT JUMPDEST PUSH1 0x0 PUSH2 0x15D6 PUSH2 0x15D1 DUP5 PUSH2 0x1592 JUMP JUMPDEST PUSH2 0x1577 JUMP JUMPDEST SWAP1 POP DUP1 DUP4 DUP3 MSTORE PUSH1 0x20 DUP3 ADD SWAP1 POP PUSH1 0x20 DUP5 MUL DUP4 ADD DUP6 DUP2 GT ISZERO PUSH2 0x15F9 JUMPI PUSH2 0x15F8 PUSH2 0x15BE JUMP JUMPDEST JUMPDEST DUP4 JUMPDEST DUP2 DUP2 LT ISZERO PUSH2 0x1622 JUMPI DUP1 PUSH2 0x160E DUP9 DUP3 PUSH2 0x1360 JUMP JUMPDEST DUP5 MSTORE PUSH1 0x20 DUP5 ADD SWAP4 POP POP PUSH1 0x20 DUP2 ADD SWAP1 POP PUSH2 0x15FB JUMP JUMPDEST POP POP POP SWAP4 SWAP3 POP POP POP JUMP JUMPDEST PUSH1 0x0 DUP3 PUSH1 0x1F DUP4 ADD SLT PUSH2 0x1641 JUMPI PUSH2 0x1640 PUSH2 0x1501 JUMP JUMPDEST JUMPDEST DUP2 MLOAD PUSH2 0x1651 DUP5 DUP3 PUSH1 0x20 DUP7 ADD PUSH2 0x15C3 JUMP JUMPDEST SWAP2 POP POP SWAP3 SWAP2 POP POP JUMP JUMPDEST PUSH1 0x0 PUSH1 0x20 DUP3 DUP5 SUB SLT ISZERO PUSH2 0x1670 JUMPI PUSH2 0x166F PUSH2 0xE0E JUMP JUMPDEST JUMPDEST PUSH1 0x0 DUP3 ADD MLOAD PUSH8 0xFFFFFFFFFFFFFFFF DUP2 GT ISZERO PUSH2 0x168E JUMPI PUSH2 0x168D PUSH2 0xE13 JUMP JUMPDEST JUMPDEST PUSH2 0x169A DUP5 DUP3 DUP6 ADD PUSH2 0x162C JUMP JUMPDEST SWAP2 POP POP SWAP3 SWAP2 POP POP JUMP JUMPDEST PUSH32 0x496E76657374206D696E696D756D206F6620302E312065746865720000000000 PUSH1 0x0 DUP3 ADD MSTORE POP JUMP JUMPDEST PUSH1 0x0 PUSH2 0x16D9 PUSH1 0x1B DUP4 PUSH2 0x1076 JUMP JUMPDEST SWAP2 POP PUSH2 0x16E4 DUP3 PUSH2 0x16A3 JUMP JUMPDEST PUSH1 0x20 DUP3 ADD SWAP1 POP SWAP2 SWAP1 POP JUMP JUMPDEST PUSH1 0x0 PUSH1 0x20 DUP3 ADD SWAP1 POP DUP2 DUP2 SUB PUSH1 0x0 DUP4 ADD MSTORE PUSH2 0x1708 DUP2 PUSH2 0x16CC JUMP JUMPDEST SWAP1 POP SWAP2 SWAP1 POP JUMP INVALID LOG2 PUSH5 0x6970667358 0x22 SLT KECCAK256 0xE4 0xD1 NUMBER 0xAA 0x2C SELFBALANCE PUSH17 0xE09689D7EB8EFE05C82E637458F34C555B 0x21 0xBD 0x4B 0xAD 0xE2 SWAP14 0xA8 DUP3 PUSH5 0x736F6C6343 STOP ADDMOD 0xD STOP CALLER "
				},
				"gasEstimates": {
					"creation": {
						"codeDepositCost": "1191400",
						"executionCost": "71879",
						"totalCost": "1263279"
					},
					"external": {
						"charyteam()": "2577",
						"closeDonations()": "infinite",
						"doLottery()": "infinite",
						"donate()": "infinite",
						"donators(uint256)": "5045",
						"getBalance()": "385",
						"getCTBalance()": "infinite",
						"initiateLottery(address)": "24789",
						"initiateVoting(address)": "24811",
						"lotterycontract()": "2537",
						"projects(uint256)": "4980",
						"sendCT()": "infinite",
						"sendDonations()": "4809",
						"startTime()": "2474",
						"updateVoting()": "infinite",
						"voters(uint256)": "5044",
						"votingcontract()": "2582",
						"votingresult()": "infinite"
					}
				},
				"methodIdentifiers": {
					"charyteam()": "d1286e65",
					"closeDonations()": "99e7f8c2",
					"doLottery()": "583fa3a8",
					"donate()": "ed88c68e",
					"donators(uint256)": "ac62f566",
					"getBalance()": "12065fe0",
					"getCTBalance()": "54235142",
					"initiateLottery(address)": "9e992987",
					"initiateVoting(address)": "82caff48",
					"lotterycontract()": "8d6a8b80",
					"projects(uint256)": "107046bd",
					"sendCT()": "7c4444ff",
					"sendDonations()": "cad65b70",
					"startTime()": "78e97925",
					"updateVoting()": "acc9c6b4",
					"voters(uint256)": "da58c7d9",
					"votingcontract()": "2e708fa8",
					"votingresult()": "86e899a2"
				}
			},
			"storageLayout": {
				"storage": [
					{
						"astId": 45,
						"contract": "contracts/donationspool.sol:Spendenpool",
						"label": "charyteam",
						"offset": 0,
						"slot": "0",
						"type": "t_address"
					},
					{
						"astId": 48,
						"contract": "contracts/donationspool.sol:Spendenpool",
						"label": "donators",
						"offset": 0,
						"slot": "1",
						"type": "t_array(t_address)dyn_storage"
					},
					{
						"astId": 51,
						"contract": "contracts/donationspool.sol:Spendenpool",
						"label": "voters",
						"offset": 0,
						"slot": "2",
						"type": "t_array(t_address)dyn_storage"
					},
					{
						"astId": 54,
						"contract": "contracts/donationspool.sol:Spendenpool",
						"label": "projects",
						"offset": 0,
						"slot": "3",
						"type": "t_array(t_address_payable)dyn_storage"
					},
					{
						"astId": 56,
						"contract": "contracts/donationspool.sol:Spendenpool",
						"label": "votingcontract",
						"offset": 0,
						"slot": "4",
						"type": "t_address"
					},
					{
						"astId": 58,
						"contract": "contracts/donationspool.sol:Spendenpool",
						"label": "lotterycontract",
						"offset": 0,
						"slot": "5",
						"type": "t_address"
					},
					{
						"astId": 60,
						"contract": "contracts/donationspool.sol:Spendenpool",
						"label": "donations",
						"offset": 0,
						"slot": "6",
						"type": "t_uint256"
					},
					{
						"astId": 63,
						"contract": "contracts/donationspool.sol:Spendenpool",
						"label": "donationsopen",
						"offset": 0,
						"slot": "7",
						"type": "t_bool"
					},
					{
						"astId": 67,
						"contract": "contracts/donationspool.sol:Spendenpool",
						"label": "startTime",
						"offset": 0,
						"slot": "8",
						"type": "t_uint256"
					}
				],
				"types": {
					"t_address": {
						"encoding": "inplace",
						"label": "address",
						"numberOfBytes": "20"
					},
					"t_address_payable": {
						"encoding": "inplace",
						"label": "address payable",
						"numberOfBytes": "20"
					},
					"t_array(t_address)dyn_storage": {
						"base": "t_address",
						"encoding": "dynamic_array",
						"label": "address[]",
						"numberOfBytes": "32"
					},
					"t_array(t_address_payable)dyn_storage": {
						"base": "t_address_payable",
						"encoding": "dynamic_array",
						"label": "address payable[]",
						"numberOfBytes": "32"
					},
					"t_bool": {
						"encoding": "inplace",
						"label": "bool",
						"numberOfBytes": "1"
					},
					"t_uint256": {
						"encoding": "inplace",
						"label": "uint256",
						"numberOfBytes": "32"
					}
				}
			},
			"userdoc": {
				"kind": "user",
				"methods": {},
				"version": 1
			}
		}
	}
}