{
  "contractName": "CharyToken",
  "abi": [
    {
      "inputs": [],
      "stateMutability": "nonpayable",
      "type": "constructor"
    },
    {
      "anonymous": false,
      "inputs": [
        {
          "indexed": true,
          "internalType": "address",
          "name": "owner",
          "type": "address"
        },
        {
          "indexed": true,
          "internalType": "address",
          "name": "spender",
          "type": "address"
        },
        {
          "indexed": false,
          "internalType": "uint256",
          "name": "value",
          "type": "uint256"
        }
      ],
      "name": "Approval",
      "type": "event"
    },
    {
      "anonymous": false,
      "inputs": [
        {
          "indexed": true,
          "internalType": "address",
          "name": "from",
          "type": "address"
        },
        {
          "indexed": true,
          "internalType": "address",
          "name": "to",
          "type": "address"
        },
        {
          "indexed": false,
          "internalType": "uint256",
          "name": "value",
          "type": "uint256"
        }
      ],
      "name": "Transfer",
      "type": "event"
    },
    {
      "inputs": [],
      "name": "admin",
      "outputs": [
        {
          "internalType": "address",
          "name": "",
          "type": "address"
        }
      ],
      "stateMutability": "view",
      "type": "function"
    },
    {
      "inputs": [
        {
          "internalType": "address",
          "name": "owner",
          "type": "address"
        },
        {
          "internalType": "address",
          "name": "spender",
          "type": "address"
        }
      ],
      "name": "allowance",
      "outputs": [
        {
          "internalType": "uint256",
          "name": "",
          "type": "uint256"
        }
      ],
      "stateMutability": "view",
      "type": "function"
    },
    {
      "inputs": [
        {
          "internalType": "address",
          "name": "spender",
          "type": "address"
        },
        {
          "internalType": "uint256",
          "name": "amount",
          "type": "uint256"
        }
      ],
      "name": "approve",
      "outputs": [
        {
          "internalType": "bool",
          "name": "",
          "type": "bool"
        }
      ],
      "stateMutability": "nonpayable",
      "type": "function"
    },
    {
      "inputs": [
        {
          "internalType": "address",
          "name": "account",
          "type": "address"
        }
      ],
      "name": "balanceOf",
      "outputs": [
        {
          "internalType": "uint256",
          "name": "",
          "type": "uint256"
        }
      ],
      "stateMutability": "view",
      "type": "function"
    },
    {
      "inputs": [
        {
          "internalType": "uint256",
          "name": "amount",
          "type": "uint256"
        }
      ],
      "name": "burn",
      "outputs": [],
      "stateMutability": "nonpayable",
      "type": "function"
    },
    {
      "inputs": [],
      "name": "decimals",
      "outputs": [
        {
          "internalType": "uint8",
          "name": "",
          "type": "uint8"
        }
      ],
      "stateMutability": "view",
      "type": "function"
    },
    {
      "inputs": [
        {
          "internalType": "address",
          "name": "spender",
          "type": "address"
        },
        {
          "internalType": "uint256",
          "name": "subtractedValue",
          "type": "uint256"
        }
      ],
      "name": "decreaseAllowance",
      "outputs": [
        {
          "internalType": "bool",
          "name": "",
          "type": "bool"
        }
      ],
      "stateMutability": "nonpayable",
      "type": "function"
    },
    {
      "inputs": [
        {
          "internalType": "address",
          "name": "spender",
          "type": "address"
        },
        {
          "internalType": "uint256",
          "name": "addedValue",
          "type": "uint256"
        }
      ],
      "name": "increaseAllowance",
      "outputs": [
        {
          "internalType": "bool",
          "name": "",
          "type": "bool"
        }
      ],
      "stateMutability": "nonpayable",
      "type": "function"
    },
    {
      "inputs": [],
      "name": "name",
      "outputs": [
        {
          "internalType": "string",
          "name": "",
          "type": "string"
        }
      ],
      "stateMutability": "view",
      "type": "function"
    },
    {
      "inputs": [],
      "name": "symbol",
      "outputs": [
        {
          "internalType": "string",
          "name": "",
          "type": "string"
        }
      ],
      "stateMutability": "view",
      "type": "function"
    },
    {
      "inputs": [],
      "name": "totalSupply",
      "outputs": [
        {
          "internalType": "uint256",
          "name": "",
          "type": "uint256"
        }
      ],
      "stateMutability": "view",
      "type": "function"
    },
    {
      "inputs": [
        {
          "internalType": "address",
          "name": "to",
          "type": "address"
        },
        {
          "internalType": "uint256",
          "name": "amount",
          "type": "uint256"
        }
      ],
      "name": "transfer",
      "outputs": [
        {
          "internalType": "bool",
          "name": "",
          "type": "bool"
        }
      ],
      "stateMutability": "nonpayable",
      "type": "function"
    },
    {
      "inputs": [
        {
          "internalType": "address",
          "name": "from",
          "type": "address"
        },
        {
          "internalType": "address",
          "name": "to",
          "type": "address"
        },
        {
          "internalType": "uint256",
          "name": "amount",
          "type": "uint256"
        }
      ],
      "name": "transferFrom",
      "outputs": [
        {
          "internalType": "bool",
          "name": "",
          "type": "bool"
        }
      ],
      "stateMutability": "nonpayable",
      "type": "function"
    },
    {
      "inputs": [
        {
          "internalType": "address",
          "name": "to",
          "type": "address"
        },
        {
          "internalType": "uint256",
          "name": "amount",
          "type": "uint256"
        }
      ],
      "name": "mint",
      "outputs": [],
      "stateMutability": "nonpayable",
      "type": "function"
    },
    {
      "inputs": [
        {
          "internalType": "address",
          "name": "donator",
          "type": "address"
        },
        {
          "internalType": "uint256",
          "name": "amount",
          "type": "uint256"
        }
      ],
      "name": "burnFrom",
      "outputs": [],
      "stateMutability": "nonpayable",
      "type": "function"
    }
  ],
  "bytecode": "0x60806040523480156200001157600080fd5b506040518060400160405280600c81526020017f43686172697479546f6b656e00000000000000000000000000000000000000008152506040518060400160405280600281526020017f435400000000000000000000000000000000000000000000000000000000000081525081600390805190602001906200009692919062000297565b508060049080519060200190620000af92919062000297565b505050620000ce3369021e19e0c9bab24000006200011560201b60201c565b33600560006101000a81548173ffffffffffffffffffffffffffffffffffffffff021916908373ffffffffffffffffffffffffffffffffffffffff160217905550620004f2565b600073ffffffffffffffffffffffffffffffffffffffff168273ffffffffffffffffffffffffffffffffffffffff160362000187576040517f08c379a00000000000000000000000000000000000000000000000000000000081526004016200017e90620003a8565b60405180910390fd5b6200019b600083836200028d60201b60201c565b8060026000828254620001af919062000403565b92505081905550806000808473ffffffffffffffffffffffffffffffffffffffff1673ffffffffffffffffffffffffffffffffffffffff168152602001908152602001600020600082825462000206919062000403565b925050819055508173ffffffffffffffffffffffffffffffffffffffff16600073ffffffffffffffffffffffffffffffffffffffff167fddf252ad1be2c89b69c2b068fc378daa952ba7f163c4a11628f55a4df523b3ef836040516200026d919062000471565b60405180910390a362000289600083836200029260201b60201c565b5050565b505050565b505050565b828054620002a590620004bd565b90600052602060002090601f016020900481019282620002c9576000855562000315565b82601f10620002e457805160ff191683800117855562000315565b8280016001018555821562000315579182015b8281111562000314578251825591602001919060010190620002f7565b5b50905062000324919062000328565b5090565b5b808211156200034357600081600090555060010162000329565b5090565b600082825260208201905092915050565b7f45524332303a206d696e7420746f20746865207a65726f206164647265737300600082015250565b600062000390601f8362000347565b91506200039d8262000358565b602082019050919050565b60006020820190508181036000830152620003c38162000381565b9050919050565b6000819050919050565b7f4e487b7100000000000000000000000000000000000000000000000000000000600052601160045260246000fd5b60006200041082620003ca565b91506200041d83620003ca565b9250827fffffffffffffffffffffffffffffffffffffffffffffffffffffffffffffffff03821115620004555762000454620003d4565b5b828201905092915050565b6200046b81620003ca565b82525050565b600060208201905062000488600083018462000460565b92915050565b7f4e487b7100000000000000000000000000000000000000000000000000000000600052602260045260246000fd5b60006002820490506001821680620004d657607f821691505b602082108103620004ec57620004eb6200048e565b5b50919050565b6119d580620005026000396000f3fe608060405234801561001057600080fd5b50600436106100f55760003560e01c806342966c6811610097578063a457c2d711610066578063a457c2d714610286578063a9059cbb146102b6578063dd62ed3e146102e6578063f851a44014610316576100f5565b806342966c681461020057806370a082311461021c57806379cc67901461024c57806395d89b4114610268576100f5565b806323b872dd116100d357806323b872dd14610166578063313ce5671461019657806339509351146101b457806340c10f19146101e4576100f5565b806306fdde03146100fa578063095ea7b31461011857806318160ddd14610148575b600080fd5b610102610334565b60405161010f9190611009565b60405180910390f35b610132600480360381019061012d91906110c4565b6103c6565b60405161013f919061111f565b60405180910390f35b6101506103e9565b60405161015d9190611149565b60405180910390f35b610180600480360381019061017b9190611164565b6103f3565b60405161018d919061111f565b60405180910390f35b61019e610422565b6040516101ab91906111d3565b60405180910390f35b6101ce60048036038101906101c991906110c4565b61042b565b6040516101db919061111f565b60405180910390f35b6101fe60048036038101906101f991906110c4565b610462565b005b61021a600480360381019061021591906111ee565b610500565b005b6102366004803603810190610231919061121b565b610514565b6040516102439190611149565b60405180910390f35b610266600480360381019061026191906110c4565b61055c565b005b61027061057c565b60405161027d9190611009565b60405180910390f35b6102a0600480360381019061029b91906110c4565b61060e565b6040516102ad919061111f565b60405180910390f35b6102d060048036038101906102cb91906110c4565b610685565b6040516102dd919061111f565b60405180910390f35b61030060048036038101906102fb9190611248565b6106a8565b60405161030d9190611149565b60405180910390f35b61031e61072f565b60405161032b9190611297565b60405180910390f35b606060038054610343906112e1565b80601f016020809104026020016040519081016040528092919081815260200182805461036f906112e1565b80156103bc5780601f10610391576101008083540402835291602001916103bc565b820191906000526020600020905b81548152906001019060200180831161039f57829003601f168201915b5050505050905090565b6000806103d1610755565b90506103de81858561075d565b600191505092915050565b6000600254905090565b6000806103fe610755565b905061040b858285610926565b6104168585856109b2565b60019150509392505050565b60006012905090565b600080610436610755565b905061045781858561044885896106a8565b6104529190611341565b61075d565b600191505092915050565b600560009054906101000a900473ffffffffffffffffffffffffffffffffffffffff1673ffffffffffffffffffffffffffffffffffffffff163373ffffffffffffffffffffffffffffffffffffffff16146104f2576040517f08c379a00000000000000000000000000000000000000000000000000000000081526004016104e9906113e3565b60405180910390fd5b6104fc8282610c31565b5050565b61051161050b610755565b82610d90565b50565b60008060008373ffffffffffffffffffffffffffffffffffffffff1673ffffffffffffffffffffffffffffffffffffffff168152602001908152602001600020549050919050565b61056e82610568610755565b83610926565b6105788282610d90565b5050565b60606004805461058b906112e1565b80601f01602080910402602001604051908101604052809291908181526020018280546105b7906112e1565b80156106045780601f106105d957610100808354040283529160200191610604565b820191906000526020600020905b8154815290600101906020018083116105e757829003601f168201915b5050505050905090565b600080610619610755565b9050600061062782866106a8565b90508381101561066c576040517f08c379a000000000000000000000000000000000000000000000000000000000815260040161066390611475565b60405180910390fd5b610679828686840361075d565b60019250505092915050565b600080610690610755565b905061069d8185856109b2565b600191505092915050565b6000600160008473ffffffffffffffffffffffffffffffffffffffff1673ffffffffffffffffffffffffffffffffffffffff16815260200190815260200160002060008373ffffffffffffffffffffffffffffffffffffffff1673ffffffffffffffffffffffffffffffffffffffff16815260200190815260200160002054905092915050565b600560009054906101000a900473ffffffffffffffffffffffffffffffffffffffff1681565b600033905090565b600073ffffffffffffffffffffffffffffffffffffffff168373ffffffffffffffffffffffffffffffffffffffff16036107cc576040517f08c379a00000000000000000000000000000000000000000000000000000000081526004016107c390611507565b60405180910390fd5b600073ffffffffffffffffffffffffffffffffffffffff168273ffffffffffffffffffffffffffffffffffffffff160361083b576040517f08c379a000000000000000000000000000000000000000000000000000000000815260040161083290611599565b60405180910390fd5b80600160008573ffffffffffffffffffffffffffffffffffffffff1673ffffffffffffffffffffffffffffffffffffffff16815260200190815260200160002060008473ffffffffffffffffffffffffffffffffffffffff1673ffffffffffffffffffffffffffffffffffffffff168152602001908152602001600020819055508173ffffffffffffffffffffffffffffffffffffffff168373ffffffffffffffffffffffffffffffffffffffff167f8c5be1e5ebec7d5bd14f71427d1e84f3dd0314c0f7b2291e5b200ac8c7c3b925836040516109199190611149565b60405180910390a3505050565b600061093284846106a8565b90507fffffffffffffffffffffffffffffffffffffffffffffffffffffffffffffffff81146109ac578181101561099e576040517f08c379a000000000000000000000000000000000000000000000000000000000815260040161099590611605565b60405180910390fd5b6109ab848484840361075d565b5b50505050565b600073ffffffffffffffffffffffffffffffffffffffff168373ffffffffffffffffffffffffffffffffffffffff1603610a21576040517f08c379a0000000000000000000000000000000000000000000000000000000008152600401610a1890611697565b60405180910390fd5b600073ffffffffffffffffffffffffffffffffffffffff168273ffffffffffffffffffffffffffffffffffffffff1603610a90576040517f08c379a0000000000000000000000000000000000000000000000000000000008152600401610a8790611729565b60405180910390fd5b610a9b838383610f66565b60008060008573ffffffffffffffffffffffffffffffffffffffff1673ffffffffffffffffffffffffffffffffffffffff16815260200190815260200160002054905081811015610b21576040517f08c379a0000000000000000000000000000000000000000000000000000000008152600401610b18906117bb565b60405180910390fd5b8181036000808673ffffffffffffffffffffffffffffffffffffffff1673ffffffffffffffffffffffffffffffffffffffff16815260200190815260200160002081905550816000808573ffffffffffffffffffffffffffffffffffffffff1673ffffffffffffffffffffffffffffffffffffffff1681526020019081526020016000206000828254610bb49190611341565b925050819055508273ffffffffffffffffffffffffffffffffffffffff168473ffffffffffffffffffffffffffffffffffffffff167fddf252ad1be2c89b69c2b068fc378daa952ba7f163c4a11628f55a4df523b3ef84604051610c189190611149565b60405180910390a3610c2b848484610f6b565b50505050565b600073ffffffffffffffffffffffffffffffffffffffff168273ffffffffffffffffffffffffffffffffffffffff1603610ca0576040517f08c379a0000000000000000000000000000000000000000000000000000000008152600401610c9790611827565b60405180910390fd5b610cac60008383610f66565b8060026000828254610cbe9190611341565b92505081905550806000808473ffffffffffffffffffffffffffffffffffffffff1673ffffffffffffffffffffffffffffffffffffffff1681526020019081526020016000206000828254610d139190611341565b925050819055508173ffffffffffffffffffffffffffffffffffffffff16600073ffffffffffffffffffffffffffffffffffffffff167fddf252ad1be2c89b69c2b068fc378daa952ba7f163c4a11628f55a4df523b3ef83604051610d789190611149565b60405180910390a3610d8c60008383610f6b565b5050565b600073ffffffffffffffffffffffffffffffffffffffff168273ffffffffffffffffffffffffffffffffffffffff1603610dff576040517f08c379a0000000000000000000000000000000000000000000000000000000008152600401610df6906118b9565b60405180910390fd5b610e0b82600083610f66565b60008060008473ffffffffffffffffffffffffffffffffffffffff1673ffffffffffffffffffffffffffffffffffffffff16815260200190815260200160002054905081811015610e91576040517f08c379a0000000000000000000000000000000000000000000000000000000008152600401610e889061194b565b60405180910390fd5b8181036000808573ffffffffffffffffffffffffffffffffffffffff1673ffffffffffffffffffffffffffffffffffffffff168152602001908152602001600020819055508160026000828254610ee8919061196b565b92505081905550600073ffffffffffffffffffffffffffffffffffffffff168373ffffffffffffffffffffffffffffffffffffffff167fddf252ad1be2c89b69c2b068fc378daa952ba7f163c4a11628f55a4df523b3ef84604051610f4d9190611149565b60405180910390a3610f6183600084610f6b565b505050565b505050565b505050565b600081519050919050565b600082825260208201905092915050565b60005b83811015610faa578082015181840152602081019050610f8f565b83811115610fb9576000848401525b50505050565b6000601f19601f8301169050919050565b6000610fdb82610f70565b610fe58185610f7b565b9350610ff5818560208601610f8c565b610ffe81610fbf565b840191505092915050565b600060208201905081810360008301526110238184610fd0565b905092915050565b600080fd5b600073ffffffffffffffffffffffffffffffffffffffff82169050919050565b600061105b82611030565b9050919050565b61106b81611050565b811461107657600080fd5b50565b60008135905061108881611062565b92915050565b6000819050919050565b6110a18161108e565b81146110ac57600080fd5b50565b6000813590506110be81611098565b92915050565b600080604083850312156110db576110da61102b565b5b60006110e985828601611079565b92505060206110fa858286016110af565b9150509250929050565b60008115159050919050565b61111981611104565b82525050565b60006020820190506111346000830184611110565b92915050565b6111438161108e565b82525050565b600060208201905061115e600083018461113a565b92915050565b60008060006060848603121561117d5761117c61102b565b5b600061118b86828701611079565b935050602061119c86828701611079565b92505060406111ad868287016110af565b9150509250925092565b600060ff82169050919050565b6111cd816111b7565b82525050565b60006020820190506111e860008301846111c4565b92915050565b6000602082840312156112045761120361102b565b5b6000611212848285016110af565b91505092915050565b6000602082840312156112315761123061102b565b5b600061123f84828501611079565b91505092915050565b6000806040838503121561125f5761125e61102b565b5b600061126d85828601611079565b925050602061127e85828601611079565b9150509250929050565b61129181611050565b82525050565b60006020820190506112ac6000830184611288565b92915050565b7f4e487b7100000000000000000000000000000000000000000000000000000000600052602260045260246000fd5b600060028204905060018216806112f957607f821691505b60208210810361130c5761130b6112b2565b5b50919050565b7f4e487b7100000000000000000000000000000000000000000000000000000000600052601160045260246000fd5b600061134c8261108e565b91506113578361108e565b9250827fffffffffffffffffffffffffffffffffffffffffffffffffffffffffffffffff0382111561138c5761138b611312565b5b828201905092915050565b7f6f6e6c792061646d696e2063616e206d696e7400000000000000000000000000600082015250565b60006113cd601383610f7b565b91506113d882611397565b602082019050919050565b600060208201905081810360008301526113fc816113c0565b9050919050565b7f45524332303a2064656372656173656420616c6c6f77616e63652062656c6f7760008201527f207a65726f000000000000000000000000000000000000000000000000000000602082015250565b600061145f602583610f7b565b915061146a82611403565b604082019050919050565b6000602082019050818103600083015261148e81611452565b9050919050565b7f45524332303a20617070726f76652066726f6d20746865207a65726f2061646460008201527f7265737300000000000000000000000000000000000000000000000000000000602082015250565b60006114f1602483610f7b565b91506114fc82611495565b604082019050919050565b60006020820190508181036000830152611520816114e4565b9050919050565b7f45524332303a20617070726f766520746f20746865207a65726f20616464726560008201527f7373000000000000000000000000000000000000000000000000000000000000602082015250565b6000611583602283610f7b565b915061158e82611527565b604082019050919050565b600060208201905081810360008301526115b281611576565b9050919050565b7f45524332303a20696e73756666696369656e7420616c6c6f77616e6365000000600082015250565b60006115ef601d83610f7b565b91506115fa826115b9565b602082019050919050565b6000602082019050818103600083015261161e816115e2565b9050919050565b7f45524332303a207472616e736665722066726f6d20746865207a65726f20616460008201527f6472657373000000000000000000000000000000000000000000000000000000602082015250565b6000611681602583610f7b565b915061168c82611625565b604082019050919050565b600060208201905081810360008301526116b081611674565b9050919050565b7f45524332303a207472616e7366657220746f20746865207a65726f206164647260008201527f6573730000000000000000000000000000000000000000000000000000000000602082015250565b6000611713602383610f7b565b915061171e826116b7565b604082019050919050565b6000602082019050818103600083015261174281611706565b9050919050565b7f45524332303a207472616e7366657220616d6f756e742065786365656473206260008201527f616c616e63650000000000000000000000000000000000000000000000000000602082015250565b60006117a5602683610f7b565b91506117b082611749565b604082019050919050565b600060208201905081810360008301526117d481611798565b9050919050565b7f45524332303a206d696e7420746f20746865207a65726f206164647265737300600082015250565b6000611811601f83610f7b565b915061181c826117db565b602082019050919050565b6000602082019050818103600083015261184081611804565b9050919050565b7f45524332303a206275726e2066726f6d20746865207a65726f2061646472657360008201527f7300000000000000000000000000000000000000000000000000000000000000602082015250565b60006118a3602183610f7b565b91506118ae82611847565b604082019050919050565b600060208201905081810360008301526118d281611896565b9050919050565b7f45524332303a206275726e20616d6f756e7420657863656564732062616c616e60008201527f6365000000000000000000000000000000000000000000000000000000000000602082015250565b6000611935602283610f7b565b9150611940826118d9565b604082019050919050565b6000602082019050818103600083015261196481611928565b9050919050565b60006119768261108e565b91506119818361108e565b92508282101561199457611993611312565b5b82820390509291505056fea26469706673582212207fc8da60bad6fd943c5a4af14c47ee87ce33c16bd9f4f399de7da8a1da960f9364736f6c634300080d0033",
  "immutableReferences": {},
  "source": "// SPDX-License-Identifier: MIT\r\npragma solidity = 0.8.13; \r\n\r\n//import \"https://github.com/OpenZeppelin/openzeppelin-contracts/blob/master/contracts/token/ERC20/ERC20.sol\";\r\n//import \"https://github.com/OpenZeppelin/openzeppelin-contracts/blob/master/contracts/token/ERC20/IERC20.sol\";\r\nimport \"@openzeppelin/contracts/token/ERC20/ERC20.sol\";\r\nimport \"@openzeppelin/contracts/token/ERC20/IERC20.sol\";\r\nimport \"@openzeppelin/contracts/token/ERC20/extensions/ERC20Burnable.sol\";\r\n\r\n//want to add mintable? \r\n//ERC20Pausable to make it non-transferable? \r\ncontract CharyToken is ERC20, ERC20Burnable{\r\n    address public admin;\r\n    constructor() ERC20 (\"CharityToken\", \"CT\"){\r\n        _mint(msg.sender, 10000 * 10**18); \r\n        admin = msg.sender; \r\n    }\r\n\r\n    function mint(address to, uint amount) external {\r\n        require(msg.sender == admin, \"only admin can mint\"); \r\n        _mint(to, amount); \r\n    }\r\n    //when this function is called only own tokens can be burned, can there be self destroyable tokens that burn themselfes\r\n    //after a period of time? -> otherwise map account to token and iterate which accounts have not send their tokens\r\n    //needs ether in contract to do so?? \r\n    function burnFrom(address donator, uint amount) public override {\r\n        _spendAllowance(donator, _msgSender(), amount); //so? -> dann fr jeden account im array ein mal am ende\r\n        _burn(donator, amount); \r\n    }\r\n    //burnable\r\n    //non-transferable \r\n    //verleiht Recht zu spenden \r\n}",
  "sourcePath": "C:\\Users\\annet\\Documents\\TU BS\\Masterarbeit\\charychain\\contracts\\Charytoken.sol",
  "compiler": {
    "name": "solc",
    "version": "0.8.13+commit.abaa5c0e.Emscripten.clang"
  },
  "schemaVersion": "3.4.7",
  "updatedAt": "2022-05-30T08:13:28.044Z",
  "devdoc": {
    "kind": "dev",
    "methods": {
      "allowance(address,address)": {
        "details": "See {IERC20-allowance}."
      },
      "approve(address,uint256)": {
        "details": "See {IERC20-approve}. NOTE: If `amount` is the maximum `uint256`, the allowance is not updated on `transferFrom`. This is semantically equivalent to an infinite approval. Requirements: - `spender` cannot be the zero address."
      },
      "balanceOf(address)": {
        "details": "See {IERC20-balanceOf}."
      },
      "burn(uint256)": {
        "details": "Destroys `amount` tokens from the caller. See {ERC20-_burn}."
      },
      "decimals()": {
        "details": "Returns the number of decimals used to get its user representation. For example, if `decimals` equals `2`, a balance of `505` tokens should be displayed to a user as `5.05` (`505 / 10 ** 2`). Tokens usually opt for a value of 18, imitating the relationship between Ether and Wei. This is the value {ERC20} uses, unless this function is overridden; NOTE: This information is only used for _display_ purposes: it in no way affects any of the arithmetic of the contract, including {IERC20-balanceOf} and {IERC20-transfer}."
      },
      "decreaseAllowance(address,uint256)": {
        "details": "Atomically decreases the allowance granted to `spender` by the caller. This is an alternative to {approve} that can be used as a mitigation for problems described in {IERC20-approve}. Emits an {Approval} event indicating the updated allowance. Requirements: - `spender` cannot be the zero address. - `spender` must have allowance for the caller of at least `subtractedValue`."
      },
      "increaseAllowance(address,uint256)": {
        "details": "Atomically increases the allowance granted to `spender` by the caller. This is an alternative to {approve} that can be used as a mitigation for problems described in {IERC20-approve}. Emits an {Approval} event indicating the updated allowance. Requirements: - `spender` cannot be the zero address."
      },
      "name()": {
        "details": "Returns the name of the token."
      },
      "symbol()": {
        "details": "Returns the symbol of the token, usually a shorter version of the name."
      },
      "totalSupply()": {
        "details": "See {IERC20-totalSupply}."
      },
      "transfer(address,uint256)": {
        "details": "See {IERC20-transfer}. Requirements: - `to` cannot be the zero address. - the caller must have a balance of at least `amount`."
      },
      "transferFrom(address,address,uint256)": {
        "details": "See {IERC20-transferFrom}. Emits an {Approval} event indicating the updated allowance. This is not required by the EIP. See the note at the beginning of {ERC20}. NOTE: Does not update the allowance if the current allowance is the maximum `uint256`. Requirements: - `from` and `to` cannot be the zero address. - `from` must have a balance of at least `amount`. - the caller must have allowance for ``from``'s tokens of at least `amount`."
      }
    },
    "version": 1
  },
  "userdoc": {
    "kind": "user",
    "methods": {},
    "version": 1
  }
}