{
  "contractName": "Lottery",
  "abi": [
    {
      "inputs": [],
      "stateMutability": "nonpayable",
      "type": "constructor"
    },
    {
      "inputs": [
        {
          "internalType": "uint256",
          "name": "",
          "type": "uint256"
        }
      ],
      "name": "donors",
      "outputs": [
        {
          "internalType": "address",
          "name": "",
          "type": "address"
        }
      ],
      "stateMutability": "view",
      "type": "function",
      "constant": true
    },
    {
      "inputs": [],
      "name": "managerpool",
      "outputs": [
        {
          "internalType": "address",
          "name": "",
          "type": "address"
        }
      ],
      "stateMutability": "view",
      "type": "function",
      "constant": true
    },
    {
      "inputs": [
        {
          "internalType": "address[]",
          "name": "_donators",
          "type": "address[]"
        }
      ],
      "name": "enterLottery",
      "outputs": [
        {
          "internalType": "bool",
          "name": "",
          "type": "bool"
        }
      ],
      "stateMutability": "nonpayable",
      "type": "function"
    },
    {
      "inputs": [],
      "name": "getWinner",
      "outputs": [
        {
          "internalType": "address",
          "name": "",
          "type": "address"
        }
      ],
      "stateMutability": "nonpayable",
      "type": "function"
    },
    {
      "inputs": [
        {
          "internalType": "bytes32",
          "name": "_sealedSeed",
          "type": "bytes32"
        }
      ],
      "name": "setSealedSeed",
      "outputs": [],
      "stateMutability": "nonpayable",
      "type": "function"
    },
    {
      "inputs": [
        {
          "internalType": "bytes32",
          "name": "_test",
          "type": "bytes32"
        }
      ],
      "name": "test",
      "outputs": [
        {
          "internalType": "bool",
          "name": "",
          "type": "bool"
        }
      ],
      "stateMutability": "nonpayable",
      "type": "function"
    },
    {
      "inputs": [],
      "name": "random",
      "outputs": [
        {
          "internalType": "uint256",
          "name": "",
          "type": "uint256"
        }
      ],
      "stateMutability": "view",
      "type": "function",
      "constant": true
    }
  ],
  "bytecode": "0x608060405234801561001057600080fd5b50336000806101000a81548173ffffffffffffffffffffffffffffffffffffffff021916908373ffffffffffffffffffffffffffffffffffffffff1602179055506000600360006101000a81548160ff0219169083151502179055506000600360016101000a81548160ff021916908315150217905550610bce806100966000396000f3fe608060405234801561001057600080fd5b506004361061007d5760003560e01c80638e7ea5b21161005b5780638e7ea5b2146100ec578063993723211461010a578063c129800d1461013a578063dedfe2231461016a5761007d565b806341114538146100825780634abfa1631461009e5780635ec01e4d146100ce575b600080fd5b61009c600480360381019061009791906104e3565b610188565b005b6100b860048036038101906100b39190610546565b6102b9565b6040516100c591906105b4565b60405180910390f35b6100d66102f8565b6040516100e391906105de565b60405180910390f35b6100f4610349565b60405161010191906105b4565b60405180910390f35b610124600480360381019061011f91906104e3565b6103a1565b6040516101319190610614565b60405180910390f35b610154600480360381019061014f91906107b4565b6103ac565b6040516101619190610614565b60405180910390f35b6101726103ce565b60405161017f91906105b4565b60405180910390f35b600360009054906101000a900460ff16156101d8576040517f08c379a00000000000000000000000000000000000000000000000000000000081526004016101cf9061085a565b60405180910390fd5b60008054906101000a900473ffffffffffffffffffffffffffffffffffffffff1673ffffffffffffffffffffffffffffffffffffffff163373ffffffffffffffffffffffffffffffffffffffff1614610266576040517f08c379a000000000000000000000000000000000000000000000000000000000815260040161025d906108ec565b60405180910390fd5b6001600360016101000a81548160ff02191690831515021790555080600281905550600143610295919061093b565b6004819055506001600360006101000a81548160ff02191690831515021790555050565b600181815481106102c957600080fd5b906000526020600020016000915054906101000a900473ffffffffffffffffffffffffffffffffffffffff1681565b6000804442600160405160200161031193929190610ad0565b6040516020818303038152906040528051906020012060001c905060006001805490508261033f9190610b38565b9050809250505090565b6000806103546102f8565b905060006001828154811061036c5761036b610b69565b5b9060005260206000200160009054906101000a900473ffffffffffffffffffffffffffffffffffffffff169050809250505090565b600060019050919050565b600081600190805190602001906103c49291906103f2565b5060019050919050565b60008054906101000a900473ffffffffffffffffffffffffffffffffffffffff1681565b82805482825590600052602060002090810192821561046b579160200282015b8281111561046a5782518260006101000a81548173ffffffffffffffffffffffffffffffffffffffff021916908373ffffffffffffffffffffffffffffffffffffffff16021790555091602001919060010190610412565b5b509050610478919061047c565b5090565b5b8082111561049557600081600090555060010161047d565b5090565b6000604051905090565b600080fd5b600080fd5b6000819050919050565b6104c0816104ad565b81146104cb57600080fd5b50565b6000813590506104dd816104b7565b92915050565b6000602082840312156104f9576104f86104a3565b5b6000610507848285016104ce565b91505092915050565b6000819050919050565b61052381610510565b811461052e57600080fd5b50565b6000813590506105408161051a565b92915050565b60006020828403121561055c5761055b6104a3565b5b600061056a84828501610531565b91505092915050565b600073ffffffffffffffffffffffffffffffffffffffff82169050919050565b600061059e82610573565b9050919050565b6105ae81610593565b82525050565b60006020820190506105c960008301846105a5565b92915050565b6105d881610510565b82525050565b60006020820190506105f360008301846105cf565b92915050565b60008115159050919050565b61060e816105f9565b82525050565b60006020820190506106296000830184610605565b92915050565b600080fd5b6000601f19601f8301169050919050565b7f4e487b7100000000000000000000000000000000000000000000000000000000600052604160045260246000fd5b61067d82610634565b810181811067ffffffffffffffff8211171561069c5761069b610645565b5b80604052505050565b60006106af610499565b90506106bb8282610674565b919050565b600067ffffffffffffffff8211156106db576106da610645565b5b602082029050602081019050919050565b600080fd5b6106fa81610593565b811461070557600080fd5b50565b600081359050610717816106f1565b92915050565b600061073061072b846106c0565b6106a5565b90508083825260208201905060208402830185811115610753576107526106ec565b5b835b8181101561077c57806107688882610708565b845260208401935050602081019050610755565b5050509392505050565b600082601f83011261079b5761079a61062f565b5b81356107ab84826020860161071d565b91505092915050565b6000602082840312156107ca576107c96104a3565b5b600082013567ffffffffffffffff8111156107e8576107e76104a8565b5b6107f484828501610786565b91505092915050565b600082825260208201905092915050565b7f7365656420697320616c72656164792073657400000000000000000000000000600082015250565b60006108446013836107fd565b915061084f8261080e565b602082019050919050565b6000602082019050818103600083015261087381610837565b9050919050565b7f6f6e6c79206d616e61676572706f6f6c2063616e2063616c6c2074686973206660008201527f756e6374696f6e00000000000000000000000000000000000000000000000000602082015250565b60006108d66027836107fd565b91506108e18261087a565b604082019050919050565b60006020820190508181036000830152610905816108c9565b9050919050565b7f4e487b7100000000000000000000000000000000000000000000000000000000600052601160045260246000fd5b600061094682610510565b915061095183610510565b9250827fffffffffffffffffffffffffffffffffffffffffffffffffffffffffffffffff038211156109865761098561090c565b5b828201905092915050565b6000819050919050565b6109ac6109a782610510565b610991565b82525050565b600081549050919050565b600081905092915050565b60008190508160005260206000209050919050565b6109e681610593565b82525050565b60006109f883836109dd565b60208301905092915050565b60008160001c9050919050565b600073ffffffffffffffffffffffffffffffffffffffff82169050919050565b6000610a44610a3f83610a04565b610a11565b9050919050565b6000610a578254610a31565b9050919050565b6000600182019050919050565b6000610a76826109b2565b610a8081856109bd565b9350610a8b836109c8565b8060005b83811015610ac357610aa082610a4b565b610aaa88826109ec565b9750610ab583610a5e565b925050600181019050610a8f565b5085935050505092915050565b6000610adc828661099b565b602082019150610aec828561099b565b602082019150610afc8284610a6b565b9150819050949350505050565b7f4e487b7100000000000000000000000000000000000000000000000000000000600052601260045260246000fd5b6000610b4382610510565b9150610b4e83610510565b925082610b5e57610b5d610b09565b5b828206905092915050565b7f4e487b7100000000000000000000000000000000000000000000000000000000600052603260045260246000fdfea2646970667358221220abbec1e29e83133cf62309c3be7b2ea810003e604c93469c3aeb6d8340ded06e64736f6c634300080d0033",
  "immutableReferences": {},
  "source": "// SPDX-License-Identifier: MIT\r\npragma solidity = 0.8.13; \r\n\r\nimport \"./ILottery.sol\"; \r\n\r\ncontract Lottery is ILottery{\r\n    address public managerpool; \r\n    address[] public donors;\r\n    bytes32 sealedSeed; \r\n    bool seedSet; \r\n    bool donationsClosed; \r\n    uint storedBlockNumber; \r\n\r\n    //call with donationspool in constructor \r\n    constructor(){\r\n        managerpool = msg.sender; \r\n        seedSet = false;\r\n        donationsClosed = false;  \r\n    }\r\n\r\n    //implement later \r\n    /*function enterLottery(address[] memory _donators, bytes32 _sealedSeed) external returns (bool){\r\n        donors = _donators; \r\n        setSealedSeed(_sealedSeed); \r\n        return true; \r\n    }*/\r\n\r\n    function enterLottery(address[] memory _donators) external returns (bool){\r\n        donors = _donators; \r\n        return true; \r\n    }\r\n    // Implement later with seeds: function getWinner(bytes32 _seed) external returns(address){\r\n    function getWinner() external returns(address){\r\n        //uint random = reveal(_seed); \r\n        uint numberwinner = random(); \r\n        address winner = donors[numberwinner]; \r\n        return winner; \r\n    }\r\n\r\n    function setSealedSeed(bytes32 _sealedSeed) public {\r\n        require (!seedSet, \"seed is already set\");\r\n        require (msg.sender == managerpool, \"only managerpool can call this function\");\r\n        donationsClosed = true; \r\n        sealedSeed = _sealedSeed; \r\n        storedBlockNumber = block.number + 1; \r\n        seedSet = true; \r\n    }\r\n\r\n    /*function reveal(bytes32 _seed) public returns (uint){\r\n        require(seedSet, \"seed is not yet set\"); \r\n        require(donationsClosed, \"donations are not closed yet\"); \r\n        require(storedBlockNumber < block.number); \r\n        require(keccak256(abi.encode(msg.sender, _seed))== sealedSeed); \r\n        uint random = uint(keccak256(abi.encode(_seed, blockhash(storedBlockNumber))));\r\n        //require(keccak256(msg.sender, _seed) == sealedSeed); \r\n        return random; \r\n    }*/\r\n    //works with 66bytes \r\n    function test(bytes32 _test) public returns(bool) {\r\n        //sealedSeed = abi.encodePacked(_test); \r\n        return true; \r\n    }\r\n    //pseudo random number for testing\r\n    function random() public view returns (uint){\r\n        uint thisrandom; \r\n        thisrandom = uint(keccak256(abi.encodePacked(block.difficulty, block.timestamp, donors)));\r\n        uint winner = thisrandom%donors.length; \r\n        return winner; \r\n    }\r\n\r\n}",
  "sourcePath": "C:\\Users\\annet\\Documents\\TU BS\\Masterarbeit\\charychain\\contracts\\Lottery.sol",
  "compiler": {
    "name": "solc",
    "version": "0.8.13+commit.abaa5c0e.Emscripten.clang"
  },
  "schemaVersion": "3.4.7",
  "updatedAt": "2022-05-30T08:13:33.558Z",
  "networkType": "ethereum",
  "devdoc": {
    "kind": "dev",
    "methods": {},
    "version": 1
  },
  "userdoc": {
    "kind": "user",
    "methods": {},
    "version": 1
  }
}