{
  "contractName": "Lottery",
  "abi": [
    {
      "inputs": [],
      "stateMutability": "nonpayable",
      "type": "constructor"
    },
    {
      "inputs": [
        {
          "internalType": "uint256",
          "name": "",
          "type": "uint256"
        }
      ],
      "name": "donors",
      "outputs": [
        {
          "internalType": "address",
          "name": "",
          "type": "address"
        }
      ],
      "stateMutability": "view",
      "type": "function",
      "constant": true
    },
    {
      "inputs": [],
      "name": "managerpool",
      "outputs": [
        {
          "internalType": "address",
          "name": "",
          "type": "address"
        }
      ],
      "stateMutability": "view",
      "type": "function",
      "constant": true
    },
    {
      "inputs": [
        {
          "internalType": "address[]",
          "name": "_donators",
          "type": "address[]"
        }
      ],
      "name": "enterLottery",
      "outputs": [
        {
          "internalType": "bool",
          "name": "",
          "type": "bool"
        }
      ],
      "stateMutability": "nonpayable",
      "type": "function"
    },
    {
      "inputs": [],
      "name": "getWinner",
      "outputs": [
        {
          "internalType": "address",
          "name": "",
          "type": "address"
        }
      ],
      "stateMutability": "nonpayable",
      "type": "function"
    },
    {
      "inputs": [
        {
          "internalType": "bytes32",
          "name": "_sealedSeed",
          "type": "bytes32"
        }
      ],
      "name": "setSealedSeed",
      "outputs": [],
      "stateMutability": "nonpayable",
      "type": "function"
    },
    {
      "inputs": [
        {
          "internalType": "bytes32",
          "name": "_test",
          "type": "bytes32"
        }
      ],
      "name": "test",
      "outputs": [
        {
          "internalType": "bool",
          "name": "",
          "type": "bool"
        }
      ],
      "stateMutability": "nonpayable",
      "type": "function"
    },
    {
      "inputs": [],
      "name": "getSize",
      "outputs": [
        {
          "internalType": "uint256",
          "name": "",
          "type": "uint256"
        }
      ],
      "stateMutability": "nonpayable",
      "type": "function"
    },
    {
      "inputs": [],
      "name": "random",
      "outputs": [
        {
          "internalType": "uint256",
          "name": "",
          "type": "uint256"
        }
      ],
      "stateMutability": "view",
      "type": "function",
      "constant": true
    }
  ],
  "bytecode": "0x608060405234801561001057600080fd5b50336000806101000a81548173ffffffffffffffffffffffffffffffffffffffff021916908373ffffffffffffffffffffffffffffffffffffffff1602179055506000600360006101000a81548160ff0219169083151502179055506000600360016101000a81548160ff021916908315150217905550610c08806100966000396000f3fe608060405234801561001057600080fd5b50600436106100885760003560e01c8063993723211161005b5780639937232114610115578063c129800d14610145578063de8fa43114610175578063dedfe2231461019357610088565b8063411145381461008d5780634abfa163146100a95780635ec01e4d146100d95780638e7ea5b2146100f7575b600080fd5b6100a760048036038101906100a2919061051d565b6101b1565b005b6100c360048036038101906100be9190610580565b6102e2565b6040516100d091906105ee565b60405180910390f35b6100e1610321565b6040516100ee9190610618565b60405180910390f35b6100ff610372565b60405161010c91906105ee565b60405180910390f35b61012f600480360381019061012a919061051d565b6103ce565b60405161013c919061064e565b60405180910390f35b61015f600480360381019061015a91906107ee565b6103d9565b60405161016c919061064e565b60405180910390f35b61017d6103fb565b60405161018a9190610618565b60405180910390f35b61019b610408565b6040516101a891906105ee565b60405180910390f35b600360009054906101000a900460ff1615610201576040517f08c379a00000000000000000000000000000000000000000000000000000000081526004016101f890610894565b60405180910390fd5b60008054906101000a900473ffffffffffffffffffffffffffffffffffffffff1673ffffffffffffffffffffffffffffffffffffffff163373ffffffffffffffffffffffffffffffffffffffff161461028f576040517f08c379a000000000000000000000000000000000000000000000000000000000815260040161028690610926565b60405180910390fd5b6001600360016101000a81548160ff021916908315150217905550806002819055506001436102be9190610975565b6004819055506001600360006101000a81548160ff02191690831515021790555050565b600181815481106102f257600080fd5b906000526020600020016000915054906101000a900473ffffffffffffffffffffffffffffffffffffffff1681565b6000804442600160405160200161033a93929190610b0a565b6040516020818303038152906040528051906020012060001c90506000600180549050826103689190610b72565b9050809250505090565b600061037c610321565b600581905550600060016005548154811061039a57610399610ba3565b5b9060005260206000200160009054906101000a900473ffffffffffffffffffffffffffffffffffffffff1690508091505090565b600060019050919050565b600081600190805190602001906103f192919061042c565b5060019050919050565b6000600180549050905090565b60008054906101000a900473ffffffffffffffffffffffffffffffffffffffff1681565b8280548282559060005260206000209081019282156104a5579160200282015b828111156104a45782518260006101000a81548173ffffffffffffffffffffffffffffffffffffffff021916908373ffffffffffffffffffffffffffffffffffffffff1602179055509160200191906001019061044c565b5b5090506104b291906104b6565b5090565b5b808211156104cf5760008160009055506001016104b7565b5090565b6000604051905090565b600080fd5b600080fd5b6000819050919050565b6104fa816104e7565b811461050557600080fd5b50565b600081359050610517816104f1565b92915050565b600060208284031215610533576105326104dd565b5b600061054184828501610508565b91505092915050565b6000819050919050565b61055d8161054a565b811461056857600080fd5b50565b60008135905061057a81610554565b92915050565b600060208284031215610596576105956104dd565b5b60006105a48482850161056b565b91505092915050565b600073ffffffffffffffffffffffffffffffffffffffff82169050919050565b60006105d8826105ad565b9050919050565b6105e8816105cd565b82525050565b600060208201905061060360008301846105df565b92915050565b6106128161054a565b82525050565b600060208201905061062d6000830184610609565b92915050565b60008115159050919050565b61064881610633565b82525050565b6000602082019050610663600083018461063f565b92915050565b600080fd5b6000601f19601f8301169050919050565b7f4e487b7100000000000000000000000000000000000000000000000000000000600052604160045260246000fd5b6106b78261066e565b810181811067ffffffffffffffff821117156106d6576106d561067f565b5b80604052505050565b60006106e96104d3565b90506106f582826106ae565b919050565b600067ffffffffffffffff8211156107155761071461067f565b5b602082029050602081019050919050565b600080fd5b610734816105cd565b811461073f57600080fd5b50565b6000813590506107518161072b565b92915050565b600061076a610765846106fa565b6106df565b9050808382526020820190506020840283018581111561078d5761078c610726565b5b835b818110156107b657806107a28882610742565b84526020840193505060208101905061078f565b5050509392505050565b600082601f8301126107d5576107d4610669565b5b81356107e5848260208601610757565b91505092915050565b600060208284031215610804576108036104dd565b5b600082013567ffffffffffffffff811115610822576108216104e2565b5b61082e848285016107c0565b91505092915050565b600082825260208201905092915050565b7f7365656420697320616c72656164792073657400000000000000000000000000600082015250565b600061087e601383610837565b915061088982610848565b602082019050919050565b600060208201905081810360008301526108ad81610871565b9050919050565b7f6f6e6c79206d616e61676572706f6f6c2063616e2063616c6c2074686973206660008201527f756e6374696f6e00000000000000000000000000000000000000000000000000602082015250565b6000610910602783610837565b915061091b826108b4565b604082019050919050565b6000602082019050818103600083015261093f81610903565b9050919050565b7f4e487b7100000000000000000000000000000000000000000000000000000000600052601160045260246000fd5b60006109808261054a565b915061098b8361054a565b9250827fffffffffffffffffffffffffffffffffffffffffffffffffffffffffffffffff038211156109c0576109bf610946565b5b828201905092915050565b6000819050919050565b6109e66109e18261054a565b6109cb565b82525050565b600081549050919050565b600081905092915050565b60008190508160005260206000209050919050565b610a20816105cd565b82525050565b6000610a328383610a17565b60208301905092915050565b60008160001c9050919050565b600073ffffffffffffffffffffffffffffffffffffffff82169050919050565b6000610a7e610a7983610a3e565b610a4b565b9050919050565b6000610a918254610a6b565b9050919050565b6000600182019050919050565b6000610ab0826109ec565b610aba81856109f7565b9350610ac583610a02565b8060005b83811015610afd57610ada82610a85565b610ae48882610a26565b9750610aef83610a98565b925050600181019050610ac9565b5085935050505092915050565b6000610b1682866109d5565b602082019150610b2682856109d5565b602082019150610b368284610aa5565b9150819050949350505050565b7f4e487b7100000000000000000000000000000000000000000000000000000000600052601260045260246000fd5b6000610b7d8261054a565b9150610b888361054a565b925082610b9857610b97610b43565b5b828206905092915050565b7f4e487b7100000000000000000000000000000000000000000000000000000000600052603260045260246000fdfea26469706673582212200955fe7633f765ded7dd1f66aa932f3f06034fb0ebda4ad8b2e3aa8e84ae55b364736f6c634300080d0033",
  "immutableReferences": {},
  "source": "// SPDX-License-Identifier: MIT\r\npragma solidity = 0.8.13; \r\n\r\nimport \"./ILottery.sol\"; \r\n\r\ncontract Lottery is ILottery{\r\n    address public managerpool; \r\n    address[] public donors;\r\n    bytes32 sealedSeed; \r\n    bool seedSet; \r\n    bool donationsClosed; \r\n    uint storedBlockNumber; \r\n    uint numberwinner; \r\n\r\n    //call with donationspool in constructor \r\n    constructor(){\r\n        managerpool = msg.sender; \r\n        seedSet = false;\r\n        donationsClosed = false;  \r\n    }\r\n\r\n    //implement later \r\n    /*function enterLottery(address[] memory _donators, bytes32 _sealedSeed) external returns (bool){\r\n        donors = _donators; \r\n        setSealedSeed(_sealedSeed); \r\n        return true; \r\n    }*/\r\n\r\n    function enterLottery(address[] memory _donators) external returns (bool){\r\n        donors = _donators; \r\n        return true; \r\n    }\r\n    // Implement later with seeds: function getWinner(bytes32 _seed) external returns(address){\r\n    function getWinner() external returns(address){\r\n        //uint random = reveal(_seed); \r\n        numberwinner = random(); \r\n        address winner = donors[numberwinner]; \r\n        return winner; \r\n    }\r\n\r\n    function setSealedSeed(bytes32 _sealedSeed) public {\r\n        require (!seedSet, \"seed is already set\");\r\n        require (msg.sender == managerpool, \"only managerpool can call this function\");\r\n        donationsClosed = true; \r\n        sealedSeed = _sealedSeed; \r\n        storedBlockNumber = block.number + 1; \r\n        seedSet = true; \r\n    }\r\n\r\n    /*function reveal(bytes32 _seed) public returns (uint){\r\n        require(seedSet, \"seed is not yet set\"); \r\n        require(donationsClosed, \"donations are not closed yet\"); \r\n        require(storedBlockNumber < block.number); \r\n        require(keccak256(abi.encode(msg.sender, _seed))== sealedSeed); \r\n        uint random = uint(keccak256(abi.encode(_seed, blockhash(storedBlockNumber))));\r\n        //require(keccak256(msg.sender, _seed) == sealedSeed); \r\n        return random; \r\n    }*/\r\n    //works with 66bytes \r\n    function test(bytes32 _test) public returns(bool) {\r\n        //sealedSeed = abi.encodePacked(_test); \r\n        return true; \r\n    }\r\n\r\n    function getSize() public returns(uint){\r\n        return donors.length; \r\n    }\r\n\r\n    //pseudo random number for testing\r\n    function random() public view returns (uint){\r\n        uint thisrandom; \r\n        thisrandom = uint(keccak256(abi.encodePacked(block.difficulty, block.timestamp, donors)));\r\n        uint winner = thisrandom%donors.length; \r\n        return winner; \r\n    }\r\n\r\n}",
  "sourcePath": "C:\\Users\\annet\\Documents\\TU BS\\Masterarbeit\\charychaintest\\contracts\\Lottery.sol",
  "compiler": {
    "name": "solc",
    "version": "0.8.13+commit.abaa5c0e.Emscripten.clang"
  },
  "schemaVersion": "3.4.7",
  "updatedAt": "2022-06-08T11:10:34.621Z",
  "networkType": "ethereum",
  "devdoc": {
    "kind": "dev",
    "methods": {},
    "version": 1
  },
  "userdoc": {
    "kind": "user",
    "methods": {},
    "version": 1
  }
}