{
  "contractName": "Spendenpool",
  "abi": [
    {
      "inputs": [],
      "stateMutability": "nonpayable",
      "type": "constructor"
    },
    {
      "stateMutability": "payable",
      "type": "fallback",
      "payable": true
    },
    {
      "inputs": [],
      "name": "charyteam",
      "outputs": [
        {
          "internalType": "address",
          "name": "",
          "type": "address"
        }
      ],
      "stateMutability": "view",
      "type": "function",
      "constant": true
    },
    {
      "inputs": [],
      "name": "ctcontract",
      "outputs": [
        {
          "internalType": "address",
          "name": "",
          "type": "address"
        }
      ],
      "stateMutability": "view",
      "type": "function",
      "constant": true
    },
    {
      "inputs": [
        {
          "internalType": "uint256",
          "name": "",
          "type": "uint256"
        }
      ],
      "name": "donators",
      "outputs": [
        {
          "internalType": "address",
          "name": "",
          "type": "address"
        }
      ],
      "stateMutability": "view",
      "type": "function",
      "constant": true
    },
    {
      "inputs": [],
      "name": "lotterycontract",
      "outputs": [
        {
          "internalType": "address",
          "name": "",
          "type": "address"
        }
      ],
      "stateMutability": "view",
      "type": "function",
      "constant": true
    },
    {
      "inputs": [],
      "name": "lotterymoney",
      "outputs": [
        {
          "internalType": "uint256",
          "name": "",
          "type": "uint256"
        }
      ],
      "stateMutability": "view",
      "type": "function",
      "constant": true
    },
    {
      "inputs": [],
      "name": "lotterywinner",
      "outputs": [
        {
          "internalType": "address payable",
          "name": "",
          "type": "address"
        }
      ],
      "stateMutability": "view",
      "type": "function",
      "constant": true
    },
    {
      "inputs": [
        {
          "internalType": "uint256",
          "name": "",
          "type": "uint256"
        }
      ],
      "name": "projects",
      "outputs": [
        {
          "internalType": "address payable",
          "name": "",
          "type": "address"
        }
      ],
      "stateMutability": "view",
      "type": "function",
      "constant": true
    },
    {
      "inputs": [],
      "name": "startTime",
      "outputs": [
        {
          "internalType": "uint256",
          "name": "",
          "type": "uint256"
        }
      ],
      "stateMutability": "view",
      "type": "function",
      "constant": true
    },
    {
      "inputs": [
        {
          "internalType": "uint256",
          "name": "",
          "type": "uint256"
        }
      ],
      "name": "voters",
      "outputs": [
        {
          "internalType": "address",
          "name": "",
          "type": "address"
        }
      ],
      "stateMutability": "view",
      "type": "function",
      "constant": true
    },
    {
      "inputs": [],
      "name": "votingcontract",
      "outputs": [
        {
          "internalType": "address",
          "name": "",
          "type": "address"
        }
      ],
      "stateMutability": "view",
      "type": "function",
      "constant": true
    },
    {
      "inputs": [
        {
          "internalType": "address",
          "name": "_votingAddress",
          "type": "address"
        }
      ],
      "name": "initiateVoting",
      "outputs": [],
      "stateMutability": "nonpayable",
      "type": "function"
    },
    {
      "inputs": [
        {
          "internalType": "address",
          "name": "_lotteryContract",
          "type": "address"
        }
      ],
      "name": "initiateLottery",
      "outputs": [],
      "stateMutability": "nonpayable",
      "type": "function"
    },
    {
      "inputs": [
        {
          "internalType": "address",
          "name": "_CTContract",
          "type": "address"
        }
      ],
      "name": "setCTaddress",
      "outputs": [],
      "stateMutability": "nonpayable",
      "type": "function"
    },
    {
      "inputs": [
        {
          "internalType": "uint256[]",
          "name": "_projectids",
          "type": "uint256[]"
        }
      ],
      "name": "setVotingProjectIds",
      "outputs": [
        {
          "internalType": "bool",
          "name": "",
          "type": "bool"
        }
      ],
      "stateMutability": "nonpayable",
      "type": "function"
    },
    {
      "inputs": [],
      "name": "donate",
      "outputs": [],
      "stateMutability": "payable",
      "type": "function",
      "payable": true
    },
    {
      "inputs": [],
      "name": "updateVoting",
      "outputs": [
        {
          "internalType": "bool",
          "name": "",
          "type": "bool"
        }
      ],
      "stateMutability": "nonpayable",
      "type": "function"
    },
    {
      "inputs": [],
      "name": "getBalance",
      "outputs": [
        {
          "internalType": "uint256",
          "name": "",
          "type": "uint256"
        }
      ],
      "stateMutability": "view",
      "type": "function",
      "constant": true
    },
    {
      "inputs": [],
      "name": "getCTBalance",
      "outputs": [
        {
          "internalType": "uint256",
          "name": "",
          "type": "uint256"
        }
      ],
      "stateMutability": "view",
      "type": "function",
      "constant": true
    },
    {
      "inputs": [
        {
          "internalType": "address",
          "name": "_donor",
          "type": "address"
        }
      ],
      "name": "sendCT",
      "outputs": [],
      "stateMutability": "payable",
      "type": "function",
      "payable": true
    },
    {
      "inputs": [
        {
          "internalType": "uint256",
          "name": "_idProject",
          "type": "uint256"
        }
      ],
      "name": "doVoting",
      "outputs": [
        {
          "internalType": "bool",
          "name": "",
          "type": "bool"
        }
      ],
      "stateMutability": "nonpayable",
      "type": "function"
    },
    {
      "inputs": [
        {
          "internalType": "address",
          "name": "_voter",
          "type": "address"
        }
      ],
      "name": "retreiveCT",
      "outputs": [],
      "stateMutability": "payable",
      "type": "function",
      "payable": true
    },
    {
      "inputs": [
        {
          "internalType": "uint256",
          "name": "_idProject",
          "type": "uint256"
        }
      ],
      "name": "getcurrentVote",
      "outputs": [
        {
          "internalType": "uint256",
          "name": "",
          "type": "uint256"
        }
      ],
      "stateMutability": "nonpayable",
      "type": "function"
    },
    {
      "inputs": [],
      "name": "closeDonations",
      "outputs": [],
      "stateMutability": "nonpayable",
      "type": "function"
    },
    {
      "inputs": [],
      "name": "votingresult",
      "outputs": [
        {
          "internalType": "uint256",
          "name": "",
          "type": "uint256"
        }
      ],
      "stateMutability": "nonpayable",
      "type": "function"
    },
    {
      "inputs": [],
      "name": "startLottery",
      "outputs": [],
      "stateMutability": "nonpayable",
      "type": "function"
    },
    {
      "inputs": [],
      "name": "doLottery",
      "outputs": [
        {
          "internalType": "address",
          "name": "",
          "type": "address"
        }
      ],
      "stateMutability": "payable",
      "type": "function",
      "payable": true
    },
    {
      "inputs": [],
      "name": "sendWinn",
      "outputs": [],
      "stateMutability": "payable",
      "type": "function",
      "payable": true
    },
    {
      "inputs": [],
      "name": "sendDonations",
      "outputs": [],
      "stateMutability": "payable",
      "type": "function",
      "payable": true
    }
  ],
  "bytecode": "0x60806040526001600960006101000a81548160ff02191690831515021790555042600a5534801561002f57600080fd5b50336000806101000a81548173ffffffffffffffffffffffffffffffffffffffff021916908373ffffffffffffffffffffffffffffffffffffffff1602179055506124738061007f6000396000f3fe6080604052600436106101bb5760003560e01c80638d6a8b80116100ec578063cb0a874c1161008a578063e4ecf64011610064578063e4ecf64014610596578063e9511c6e146105b2578063ed88c68e146105ef578063f696cd24146105f9576101bc565b8063cb0a874c14610512578063d1286e651461052e578063da58c7d914610559576101bc565b8063ac62f566116100c6578063ac62f56614610475578063acc9c6b4146104b2578063c236b4c3146104dd578063cad65b7014610508576101bc565b80638d6a8b801461040a57806399e7f8c2146104355780639e9929871461044c576101bc565b80632fd40267116101595780635bc036c4116101335780635bc036c41461038157806378e979251461038b57806382caff48146103b657806386e899a2146103df576101bc565b80632fd402671461030d5780635423514214610338578063583fa3a814610363576101bc565b8063107046bd11610195578063107046bd1461026357806312065fe0146102a0578063160344e2146102cb5780632e708fa8146102e2576101bc565b8063023aaf43146101be57806309548f36146101fb5780630f7b4fae14610226576101bc565b5b005b3480156101ca57600080fd5b506101e560048036038101906101e0919061184c565b610622565b6040516101f29190611888565b60405180910390f35b34801561020757600080fd5b506102106106ce565b60405161021d9190611888565b60405180910390f35b34801561023257600080fd5b5061024d600480360381019061024891906119fc565b6106d4565b60405161025a9190611a60565b60405180910390f35b34801561026f57600080fd5b5061028a6004803603810190610285919061184c565b610780565b6040516102979190611abc565b60405180910390f35b3480156102ac57600080fd5b506102b56107bf565b6040516102c29190611888565b60405180910390f35b3480156102d757600080fd5b506102e06107c7565b005b3480156102ee57600080fd5b506102f761086f565b6040516103049190611af8565b60405180910390f35b34801561031957600080fd5b50610322610895565b60405161032f9190611af8565b60405180910390f35b34801561034457600080fd5b5061034d6108bb565b60405161035a9190611888565b60405180910390f35b61036b6109ed565b6040516103789190611af8565b60405180910390f35b610389610b45565b005b34801561039757600080fd5b506103a0610cbb565b6040516103ad9190611888565b60405180910390f35b3480156103c257600080fd5b506103dd60048036038101906103d89190611b3f565b610cc1565b005b3480156103eb57600080fd5b506103f4610d05565b6040516104019190611888565b60405180910390f35b34801561041657600080fd5b5061041f610e16565b60405161042c9190611af8565b60405180910390f35b34801561044157600080fd5b5061044a610e3c565b005b34801561045857600080fd5b50610473600480360381019061046e9190611b3f565b610e59565b005b34801561048157600080fd5b5061049c6004803603810190610497919061184c565b610e9d565b6040516104a99190611af8565b60405180910390f35b3480156104be57600080fd5b506104c7610edc565b6040516104d49190611a60565b60405180910390f35b3480156104e957600080fd5b506104f2610f98565b6040516104ff9190611abc565b60405180910390f35b610510610fbe565b005b61052c60048036038101906105279190611b3f565b6110aa565b005b34801561053a57600080fd5b50610543611233565b6040516105509190611af8565b60405180910390f35b34801561056557600080fd5b50610580600480360381019061057b919061184c565b611257565b60405161058d9190611af8565b60405180910390f35b6105b060048036038101906105ab9190611b3f565b611296565b005b3480156105be57600080fd5b506105d960048036038101906105d4919061184c565b611421565b6040516105e69190611a60565b60405180910390f35b6105f76115bf565b005b34801561060557600080fd5b50610620600480360381019061061b9190611b3f565b611717565b005b600080600460009054906101000a900473ffffffffffffffffffffffffffffffffffffffff1690508073ffffffffffffffffffffffffffffffffffffffff166335875a56846040518263ffffffff1660e01b81526004016106839190611888565b6020604051808303816000875af11580156106a2573d6000803e3d6000fd5b505050506040513d601f19601f820116820180604052508101906106c69190611b81565b915050919050565b600b5481565b600080600460009054906101000a900473ffffffffffffffffffffffffffffffffffffffff1690508073ffffffffffffffffffffffffffffffffffffffff1663fa8e6d58846040518263ffffffff1660e01b81526004016107359190611c6c565b6020604051808303816000875af1158015610754573d6000803e3d6000fd5b505050506040513d601f19601f820116820180604052508101906107789190611cba565b915050919050565b6003818154811061079057600080fd5b906000526020600020016000915054906101000a900473ffffffffffffffffffffffffffffffffffffffff1681565b600047905090565b6000600560009054906101000a900473ffffffffffffffffffffffffffffffffffffffff1690508073ffffffffffffffffffffffffffffffffffffffff1663c129800d60016040518263ffffffff1660e01b81526004016108289190611e0b565b6020604051808303816000875af1158015610847573d6000803e3d6000fd5b505050506040513d601f19601f8201168201806040525081019061086b9190611cba565b5050565b600460009054906101000a900473ffffffffffffffffffffffffffffffffffffffff1681565b600660009054906101000a900473ffffffffffffffffffffffffffffffffffffffff1681565b60008060009054906101000a900473ffffffffffffffffffffffffffffffffffffffff1673ffffffffffffffffffffffffffffffffffffffff163373ffffffffffffffffffffffffffffffffffffffff161461094c576040517f08c379a000000000000000000000000000000000000000000000000000000000815260040161094390611eb0565b60405180910390fd5b600660009054906101000a900473ffffffffffffffffffffffffffffffffffffffff1673ffffffffffffffffffffffffffffffffffffffff166370a08231306040518263ffffffff1660e01b81526004016109a79190611af8565b602060405180830381865afa1580156109c4573d6000803e3d6000fd5b505050506040513d601f19601f820116820180604052508101906109e89190611b81565b905090565b6000801515600960009054906101000a900460ff16151514610a44576040517f08c379a0000000000000000000000000000000000000000000000000000000008152600401610a3b90611f42565b60405180910390fd5b6000600560009054906101000a900473ffffffffffffffffffffffffffffffffffffffff1690508073ffffffffffffffffffffffffffffffffffffffff16638e7ea5b26040518163ffffffff1660e01b81526004016020604051808303816000875af1158015610ab8573d6000803e3d6000fd5b505050506040513d601f19601f82011682018060405250810190610adc9190611f77565b600760006101000a81548173ffffffffffffffffffffffffffffffffffffffff021916908373ffffffffffffffffffffffffffffffffffffffff160217905550600760009054906101000a900473ffffffffffffffffffffffffffffffffffffffff1691505090565b60001515600960009054906101000a900460ff16151514610b9b576040517f08c379a0000000000000000000000000000000000000000000000000000000008152600401610b9290611f42565b60405180910390fd5b60008054906101000a900473ffffffffffffffffffffffffffffffffffffffff1673ffffffffffffffffffffffffffffffffffffffff163373ffffffffffffffffffffffffffffffffffffffff1614610c29576040517f08c379a0000000000000000000000000000000000000000000000000000000008152600401610c2090611eb0565b60405180910390fd5b6000479050600a606482610c3d9190612002565b610c479190612033565b600b81905550600760009054906101000a900473ffffffffffffffffffffffffffffffffffffffff1673ffffffffffffffffffffffffffffffffffffffff166108fc600b549081150290604051600060405180830381858888f19350505050158015610cb7573d6000803e3d6000fd5b5050565b600a5481565b80600460006101000a81548173ffffffffffffffffffffffffffffffffffffffff021916908373ffffffffffffffffffffffffffffffffffffffff16021790555050565b600080600460009054906101000a900473ffffffffffffffffffffffffffffffffffffffff1690508073ffffffffffffffffffffffffffffffffffffffff16639bfacba36040518163ffffffff1660e01b81526004016020604051808303816000875af1158015610d7a573d6000803e3d6000fd5b505050506040513d601f19601f82011682018060405250810190610d9e9190611cba565b508073ffffffffffffffffffffffffffffffffffffffff166394bec0716040518163ffffffff1660e01b81526004016020604051808303816000875af1158015610dec573d6000803e3d6000fd5b505050506040513d601f19601f82011682018060405250810190610e109190611b81565b91505090565b600560009054906101000a900473ffffffffffffffffffffffffffffffffffffffff1681565b6000600960006101000a81548160ff021916908315150217905550565b80600560006101000a81548173ffffffffffffffffffffffffffffffffffffffff021916908373ffffffffffffffffffffffffffffffffffffffff16021790555050565b60018181548110610ead57600080fd5b906000526020600020016000915054906101000a900473ffffffffffffffffffffffffffffffffffffffff1681565b600080600460009054906101000a900473ffffffffffffffffffffffffffffffffffffffff1690508073ffffffffffffffffffffffffffffffffffffffff1663cdd722536040518163ffffffff1660e01b81526004016000604051808303816000875af1158015610f51573d6000803e3d6000fd5b505050506040513d6000823e3d601f19601f82011682018060405250810190610f7a9190612150565b60029080519060200190610f8f92919061175b565b50600191505090565b600760009054906101000a900473ffffffffffffffffffffffffffffffffffffffff1681565b60001515600960009054906101000a900460ff16151514611014576040517f08c379a000000000000000000000000000000000000000000000000000000000815260040161100b90611f42565b60405180910390fd5b60008054906101000a900473ffffffffffffffffffffffffffffffffffffffff1673ffffffffffffffffffffffffffffffffffffffff163373ffffffffffffffffffffffffffffffffffffffff16146110a2576040517f08c379a000000000000000000000000000000000000000000000000000000000815260040161109990611eb0565b60405180910390fd5b600047905050565b6000600660009054906101000a900473ffffffffffffffffffffffffffffffffffffffff1673ffffffffffffffffffffffffffffffffffffffff166370a08231836040518263ffffffff1660e01b81526004016111079190611af8565b602060405180830381865afa158015611124573d6000803e3d6000fd5b505050506040513d601f19601f820116820180604052508101906111489190611b81565b90506000811461118d576040517f08c379a0000000000000000000000000000000000000000000000000000000008152600401611184906121e5565b60405180910390fd5b600660009054906101000a900473ffffffffffffffffffffffffffffffffffffffff1673ffffffffffffffffffffffffffffffffffffffff1663a9059cbb8360016040518363ffffffff1660e01b81526004016111eb92919061224a565b6020604051808303816000875af115801561120a573d6000803e3d6000fd5b505050506040513d601f19601f8201168201806040525081019061122e9190611cba565b505050565b60008054906101000a900473ffffffffffffffffffffffffffffffffffffffff1681565b6002818154811061126757600080fd5b906000526020600020016000915054906101000a900473ffffffffffffffffffffffffffffffffffffffff1681565b6000600660009054906101000a900473ffffffffffffffffffffffffffffffffffffffff1673ffffffffffffffffffffffffffffffffffffffff166370a08231836040518263ffffffff1660e01b81526004016112f39190611af8565b602060405180830381865afa158015611310573d6000803e3d6000fd5b505050506040513d601f19601f820116820180604052508101906113349190611b81565b905060018114611379576040517f08c379a0000000000000000000000000000000000000000000000000000000008152600401611370906122bf565b60405180910390fd5b600660009054906101000a900473ffffffffffffffffffffffffffffffffffffffff1673ffffffffffffffffffffffffffffffffffffffff166323b872dd833060016040518463ffffffff1660e01b81526004016113d9939291906122df565b6020604051808303816000875af11580156113f8573d6000803e3d6000fd5b505050506040513d601f19601f8201168201806040525081019061141c9190611cba565b505050565b600080600460009054906101000a900473ffffffffffffffffffffffffffffffffffffffff1690506000600660009054906101000a900473ffffffffffffffffffffffffffffffffffffffff1673ffffffffffffffffffffffffffffffffffffffff166370a08231336040518263ffffffff1660e01b81526004016114a69190611af8565b602060405180830381865afa1580156114c3573d6000803e3d6000fd5b505050506040513d601f19601f820116820180604052508101906114e79190611b81565b90506001811461152c576040517f08c379a000000000000000000000000000000000000000000000000000000000815260040161152390612388565b60405180910390fd5b8173ffffffffffffffffffffffffffffffffffffffff166373d814eb85336040518363ffffffff1660e01b81526004016115679291906123a8565b6020604051808303816000875af1158015611586573d6000803e3d6000fd5b505050506040513d601f19601f820116820180604052508101906115aa9190611cba565b506115b433611296565b600192505050919050565b6402540be400341015611607576040517f08c379a00000000000000000000000000000000000000000000000000000000081526004016115fe9061241d565b60405180910390fd5b6001339080600181540180825580915050600190039060005260206000200160009091909190916101000a81548173ffffffffffffffffffffffffffffffffffffffff021916908373ffffffffffffffffffffffffffffffffffffffff160217905550611673336110aa565b600660009054906101000a900473ffffffffffffffffffffffffffffffffffffffff1673ffffffffffffffffffffffffffffffffffffffff1663095ea7b33060016040518363ffffffff1660e01b81526004016116d192919061224a565b6020604051808303816000875af11580156116f0573d6000803e3d6000fd5b505050506040513d601f19601f820116820180604052508101906117149190611cba565b50565b80600660006101000a81548173ffffffffffffffffffffffffffffffffffffffff021916908373ffffffffffffffffffffffffffffffffffffffff16021790555050565b8280548282559060005260206000209081019282156117d4579160200282015b828111156117d35782518260006101000a81548173ffffffffffffffffffffffffffffffffffffffff021916908373ffffffffffffffffffffffffffffffffffffffff1602179055509160200191906001019061177b565b5b5090506117e191906117e5565b5090565b5b808211156117fe5760008160009055506001016117e6565b5090565b6000604051905090565b600080fd5b600080fd5b6000819050919050565b61182981611816565b811461183457600080fd5b50565b60008135905061184681611820565b92915050565b6000602082840312156118625761186161180c565b5b600061187084828501611837565b91505092915050565b61188281611816565b82525050565b600060208201905061189d6000830184611879565b92915050565b600080fd5b6000601f19601f8301169050919050565b7f4e487b7100000000000000000000000000000000000000000000000000000000600052604160045260246000fd5b6118f1826118a8565b810181811067ffffffffffffffff821117156119105761190f6118b9565b5b80604052505050565b6000611923611802565b905061192f82826118e8565b919050565b600067ffffffffffffffff82111561194f5761194e6118b9565b5b602082029050602081019050919050565b600080fd5b600061197861197384611934565b611919565b9050808382526020820190506020840283018581111561199b5761199a611960565b5b835b818110156119c457806119b08882611837565b84526020840193505060208101905061199d565b5050509392505050565b600082601f8301126119e3576119e26118a3565b5b81356119f3848260208601611965565b91505092915050565b600060208284031215611a1257611a1161180c565b5b600082013567ffffffffffffffff811115611a3057611a2f611811565b5b611a3c848285016119ce565b91505092915050565b60008115159050919050565b611a5a81611a45565b82525050565b6000602082019050611a756000830184611a51565b92915050565b600073ffffffffffffffffffffffffffffffffffffffff82169050919050565b6000611aa682611a7b565b9050919050565b611ab681611a9b565b82525050565b6000602082019050611ad16000830184611aad565b92915050565b6000611ae282611a7b565b9050919050565b611af281611ad7565b82525050565b6000602082019050611b0d6000830184611ae9565b92915050565b611b1c81611ad7565b8114611b2757600080fd5b50565b600081359050611b3981611b13565b92915050565b600060208284031215611b5557611b5461180c565b5b6000611b6384828501611b2a565b91505092915050565b600081519050611b7b81611820565b92915050565b600060208284031215611b9757611b9661180c565b5b6000611ba584828501611b6c565b91505092915050565b600081519050919050565b600082825260208201905092915050565b6000819050602082019050919050565b611be381611816565b82525050565b6000611bf58383611bda565b60208301905092915050565b6000602082019050919050565b6000611c1982611bae565b611c238185611bb9565b9350611c2e83611bca565b8060005b83811015611c5f578151611c468882611be9565b9750611c5183611c01565b925050600181019050611c32565b5085935050505092915050565b60006020820190508181036000830152611c868184611c0e565b905092915050565b611c9781611a45565b8114611ca257600080fd5b50565b600081519050611cb481611c8e565b92915050565b600060208284031215611cd057611ccf61180c565b5b6000611cde84828501611ca5565b91505092915050565b600081549050919050565b600082825260208201905092915050565b60008190508160005260206000209050919050565b611d2181611ad7565b82525050565b6000611d338383611d18565b60208301905092915050565b60008160001c9050919050565b600073ffffffffffffffffffffffffffffffffffffffff82169050919050565b6000611d7f611d7a83611d3f565b611d4c565b9050919050565b6000611d928254611d6c565b9050919050565b6000600182019050919050565b6000611db182611ce7565b611dbb8185611cf2565b9350611dc683611d03565b8060005b83811015611dfe57611ddb82611d86565b611de58882611d27565b9750611df083611d99565b925050600181019050611dca565b5085935050505092915050565b60006020820190508181036000830152611e258184611da6565b905092915050565b600082825260208201905092915050565b7f6f6e6c792043686172795465616d2063616e2063616c6c20746869732066756e60008201527f6374696f6e000000000000000000000000000000000000000000000000000000602082015250565b6000611e9a602583611e2d565b9150611ea582611e3e565b604082019050919050565b60006020820190508181036000830152611ec981611e8d565b9050919050565b7f5370656e64656e2077657264656e206e69636874206d65687220676573616d6d60008201527f656c740000000000000000000000000000000000000000000000000000000000602082015250565b6000611f2c602383611e2d565b9150611f3782611ed0565b604082019050919050565b60006020820190508181036000830152611f5b81611f1f565b9050919050565b600081519050611f7181611b13565b92915050565b600060208284031215611f8d57611f8c61180c565b5b6000611f9b84828501611f62565b91505092915050565b7f4e487b7100000000000000000000000000000000000000000000000000000000600052601260045260246000fd5b7f4e487b7100000000000000000000000000000000000000000000000000000000600052601160045260246000fd5b600061200d82611816565b915061201883611816565b92508261202857612027611fa4565b5b828204905092915050565b600061203e82611816565b915061204983611816565b9250817fffffffffffffffffffffffffffffffffffffffffffffffffffffffffffffffff048311821515161561208257612081611fd3565b5b828202905092915050565b600067ffffffffffffffff8211156120a8576120a76118b9565b5b602082029050602081019050919050565b60006120cc6120c78461208d565b611919565b905080838252602082019050602084028301858111156120ef576120ee611960565b5b835b8181101561211857806121048882611f62565b8452602084019350506020810190506120f1565b5050509392505050565b600082601f830112612137576121366118a3565b5b81516121478482602086016120b9565b91505092915050565b6000602082840312156121665761216561180c565b5b600082015167ffffffffffffffff81111561218457612183611811565b5b61219084828501612122565b91505092915050565b7f73656e64657220616c7265616479206861732061204354000000000000000000600082015250565b60006121cf601783611e2d565b91506121da82612199565b602082019050919050565b600060208201905081810360008301526121fe816121c2565b9050919050565b6000819050919050565b6000819050919050565b600061223461222f61222a84612205565b61220f565b611816565b9050919050565b61224481612219565b82525050565b600060408201905061225f6000830185611ae9565b61226c602083018461223b565b9392505050565b7f73656e64657220686173206e6f2043542c206e6f2072657472656976696e6700600082015250565b60006122a9601f83611e2d565b91506122b482612273565b602082019050919050565b600060208201905081810360008301526122d88161229c565b9050919050565b60006060820190506122f46000830186611ae9565b6123016020830185611ae9565b61230e604083018461223b565b949350505050565b7f646f6e61746f7220686173206e6f2043542c206e6f20766f74696e6720706f7360008201527f7369626c65000000000000000000000000000000000000000000000000000000602082015250565b6000612372602583611e2d565b915061237d82612316565b604082019050919050565b600060208201905081810360008301526123a181612365565b9050919050565b60006040820190506123bd6000830185611879565b6123ca6020830184611ae9565b9392505050565b7f496e76657374206d696e696d756d206f6620302e312065746865720000000000600082015250565b6000612407601b83611e2d565b9150612412826123d1565b602082019050919050565b60006020820190508181036000830152612436816123fa565b905091905056fea26469706673582212200a01faa364c4f8639bd7e7891b5aeab88b82b71d907470eff7f16b7b12b9b08a64736f6c634300080d0033",
  "immutableReferences": {},
  "source": "// SPDX-License-Identifier: MIT\r\npragma solidity = 0.8.13; \r\n\r\nimport \"@openzeppelin/contracts/token/ERC20/IERC20.sol\";\r\nimport \"@openzeppelin/contracts/token/ERC20/ERC20.sol\";\r\n\r\nimport \"./IVoting.sol\"; \r\nimport \"./ILottery.sol\"; \r\n\r\ncontract Spendenpool{\r\n    //variables \r\n    address public charyteam; \r\n    address[] public donators; //payable not neccessary within address? \r\n    address[] public voters; //temporary to chekc if working\r\n    address payable[] public projects; //struct projects with address and id? \r\n    address public votingcontract; \r\n    address public lotterycontract; \r\n    address public ctcontract; \r\n    address payable public lotterywinner; \r\n    uint donations; \r\n    bool donationsopen = true; \r\n    uint public startTime = block.timestamp;\r\n    uint public lotterymoney; \r\n\r\n    \r\n\r\n    //constructor \r\n    //deployer of contract = charyteam\r\n    //give relevant projects for this timeintervall with constructor \r\n    constructor () public {\r\n        charyteam = msg.sender; \r\n    }\r\n\r\n    //modifier\r\n    //1. donations are being collected = it can be voted, when not -> Lottery starts\r\n    modifier donationsclosed(){\r\n        require(donationsopen == false, \"Spenden werden nicht mehr gesammelt\"); \r\n        _; \r\n    }\r\n\r\n    //only charyteam can do something\r\n    modifier onlyCharyteam(){\r\n        require(msg.sender == charyteam, \"only CharyTeam can call this function\"); \r\n        _;\r\n    }\r\n\r\n    //events to the frontend \r\n    //event Donator donated (adrdess, uint amount); \r\n\r\n\r\n    //functions \r\n    //initiate Voting, should be immediatley because voting runs parallel to donations \r\n    function initiateVoting(address _votingAddress) external {\r\n        //initiate voting with this address\r\n        votingcontract = _votingAddress; \r\n    }\r\n\r\n    function initiateLottery(address _lotteryContract) external {\r\n        lotterycontract = _lotteryContract; \r\n    }\r\n    function setCTaddress(address _CTContract) external {\r\n        ctcontract = _CTContract; \r\n    }\r\n\r\n    function setVotingProjectIds(uint[] memory _projectids) external returns(bool){\r\n        IVoting v = IVoting(votingcontract); \r\n        return v.setProjectIds(_projectids);\r\n    }\r\n\r\n\r\n    //donations of donators \r\n    function donate() external payable {\r\n        //minimum value? \r\n        require(msg.value >= 0.00000001 ether, \"Invest minimum of 0.1 ether\");\r\n        //keeping track of the Donators \r\n        donators.push(msg.sender); \r\n        sendCT(msg.sender); \r\n        IERC20(ctcontract).approve(address(this), 1); \r\n    }\r\n\r\n\r\n    function updateVoting() public returns(bool){\r\n        //update number of donators (or off-chain)? \r\n        IVoting v = IVoting(votingcontract); \r\n        voters = v.getVoters(); //wo speichern \r\n        return true;  \r\n    }\r\n\r\n    //getbalance \r\n    function getBalance() public view returns(uint) {\r\n        // everyone can see balance \r\n        return address(this).balance; \r\n    }\r\n\r\n    \r\n    //getbalance of CT in this contract, careful contract address changes when deploying!! \r\n    function getCTBalance() public view onlyCharyteam returns(uint) {\r\n        return IERC20(ctcontract).balanceOf(address(this));\r\n    }\r\n    \r\n\r\n    //send charity token to donator after donation \r\n    function sendCT(address _donor) payable public {\r\n        //require balance CT = 0 \r\n        uint tempCT = IERC20(ctcontract).balanceOf(_donor);\r\n        require(tempCT == 0, \"sender already has a CT\"); \r\n        IERC20(ctcontract).transfer(_donor, 1); \r\n    }\r\n\r\n    //do a Vote for a Project id\r\n    function doVoting(uint _idProject) public returns(bool) {\r\n        IVoting v = IVoting(votingcontract);\r\n        uint tempCTbalance = IERC20(ctcontract).balanceOf(msg.sender); \r\n        require (tempCTbalance == 1, \"donator has no CT, no voting possible\");\r\n        v.doVote(_idProject, msg.sender); \r\n        retreiveCT(msg.sender);\r\n        return true; \r\n    }\r\n\r\n    function retreiveCT(address _voter) payable public {\r\n        uint tempCT = IERC20(ctcontract).balanceOf(_voter);\r\n        require (tempCT == 1, \"sender has no CT, no retreiving\"); \r\n        IERC20(ctcontract).transferFrom(_voter, address(this), 1); \r\n    }\r\n\r\n    function getcurrentVote(uint _idProject) public returns(uint) {\r\n        IVoting v = IVoting(votingcontract); //kann ich auch einmalig im constructor Voting mahcne? \r\n        return v.showcurrentVotes(_idProject); \r\n    }\r\n\r\n    //after 3month close donations  \r\n    function closeDonations() public {\r\n        //if (donationsopen == true && block.timestamp >= startTime + 30 days) donationsopen = false; \r\n        donationsopen = false; \r\n    }\r\n\r\n    //get result of voting //after donations are closed\r\n    function votingresult() public returns (uint) {\r\n        IVoting v = IVoting(votingcontract); \r\n        v.returnVotingWinner(); \r\n        return v.getVotingWinner(); \r\n    }\r\n\r\n    function startLottery() public {\r\n        ILottery l = ILottery(lotterycontract); \r\n        l.enterLottery(donators);\r\n    }\r\n\r\n    //gives donors in array to lottery contract and returns the random winner of the donors \r\n    function doLottery() payable public donationsclosed returns(address) {\r\n        ILottery l = ILottery(lotterycontract); \r\n        //l.enterLottery(donators);\r\n        lotterywinner = payable(l.getWinner()); \r\n        return lotterywinner; \r\n        //initialize lottery contract \r\n        //send 10% of balance to lottery contract \r\n    }\r\n\r\n    function sendWinn() payable public donationsclosed onlyCharyteam  {\r\n        uint thisamount = address(this).balance; \r\n        lotterymoney = thisamount / 100 * 10; \r\n        lotterywinner.transfer(lotterymoney); \r\n    }\r\n    function sendDonations() payable public donationsclosed onlyCharyteam {\r\n        uint thisamount = address(this).balance; \r\n        //get winner project address and send \r\n    }\r\n    fallback() external payable{\r\n    }\r\n\r\n}",
  "sourcePath": "C:\\Users\\annet\\Documents\\TU BS\\Masterarbeit\\charychaintest\\contracts\\donationspool.sol",
  "compiler": {
    "name": "solc",
    "version": "0.8.13+commit.abaa5c0e.Emscripten.clang"
  },
  "schemaVersion": "3.4.7",
  "updatedAt": "2022-06-08T11:10:34.602Z",
  "networkType": "ethereum",
  "devdoc": {
    "kind": "dev",
    "methods": {},
    "version": 1
  },
  "userdoc": {
    "kind": "user",
    "methods": {},
    "version": 1
  }
}