{
  "contractName": "Spendenpool",
  "abi": [
    {
      "inputs": [],
      "stateMutability": "nonpayable",
      "type": "constructor"
    },
    {
      "stateMutability": "payable",
      "type": "fallback",
      "payable": true
    },
    {
      "inputs": [],
      "name": "charyteam",
      "outputs": [
        {
          "internalType": "address",
          "name": "",
          "type": "address"
        }
      ],
      "stateMutability": "view",
      "type": "function",
      "constant": true
    },
    {
      "inputs": [],
      "name": "ctcontract",
      "outputs": [
        {
          "internalType": "address",
          "name": "",
          "type": "address"
        }
      ],
      "stateMutability": "view",
      "type": "function",
      "constant": true
    },
    {
      "inputs": [
        {
          "internalType": "uint256",
          "name": "",
          "type": "uint256"
        }
      ],
      "name": "donators",
      "outputs": [
        {
          "internalType": "address",
          "name": "",
          "type": "address"
        }
      ],
      "stateMutability": "view",
      "type": "function",
      "constant": true
    },
    {
      "inputs": [],
      "name": "lotterycontract",
      "outputs": [
        {
          "internalType": "address",
          "name": "",
          "type": "address"
        }
      ],
      "stateMutability": "view",
      "type": "function",
      "constant": true
    },
    {
      "inputs": [],
      "name": "lotterymoney",
      "outputs": [
        {
          "internalType": "uint256",
          "name": "",
          "type": "uint256"
        }
      ],
      "stateMutability": "view",
      "type": "function",
      "constant": true
    },
    {
      "inputs": [],
      "name": "lotterywinner",
      "outputs": [
        {
          "internalType": "address payable",
          "name": "",
          "type": "address"
        }
      ],
      "stateMutability": "view",
      "type": "function",
      "constant": true
    },
    {
      "inputs": [
        {
          "internalType": "uint256",
          "name": "",
          "type": "uint256"
        }
      ],
      "name": "projects",
      "outputs": [
        {
          "internalType": "address payable",
          "name": "",
          "type": "address"
        }
      ],
      "stateMutability": "view",
      "type": "function",
      "constant": true
    },
    {
      "inputs": [],
      "name": "startTime",
      "outputs": [
        {
          "internalType": "uint256",
          "name": "",
          "type": "uint256"
        }
      ],
      "stateMutability": "view",
      "type": "function",
      "constant": true
    },
    {
      "inputs": [
        {
          "internalType": "uint256",
          "name": "",
          "type": "uint256"
        }
      ],
      "name": "voters",
      "outputs": [
        {
          "internalType": "address",
          "name": "",
          "type": "address"
        }
      ],
      "stateMutability": "view",
      "type": "function",
      "constant": true
    },
    {
      "inputs": [],
      "name": "votingcontract",
      "outputs": [
        {
          "internalType": "address",
          "name": "",
          "type": "address"
        }
      ],
      "stateMutability": "view",
      "type": "function",
      "constant": true
    },
    {
      "inputs": [
        {
          "internalType": "address",
          "name": "_votingAddress",
          "type": "address"
        }
      ],
      "name": "initiateVoting",
      "outputs": [],
      "stateMutability": "nonpayable",
      "type": "function"
    },
    {
      "inputs": [
        {
          "internalType": "address",
          "name": "_lotteryContract",
          "type": "address"
        }
      ],
      "name": "initiateLottery",
      "outputs": [],
      "stateMutability": "nonpayable",
      "type": "function"
    },
    {
      "inputs": [
        {
          "internalType": "address",
          "name": "_CTContract",
          "type": "address"
        }
      ],
      "name": "setCTaddress",
      "outputs": [],
      "stateMutability": "nonpayable",
      "type": "function"
    },
    {
      "inputs": [
        {
          "internalType": "uint256[]",
          "name": "_projectids",
          "type": "uint256[]"
        }
      ],
      "name": "setVotingProjectIds",
      "outputs": [
        {
          "internalType": "bool",
          "name": "",
          "type": "bool"
        }
      ],
      "stateMutability": "nonpayable",
      "type": "function"
    },
    {
      "inputs": [],
      "name": "donate",
      "outputs": [],
      "stateMutability": "payable",
      "type": "function",
      "payable": true
    },
    {
      "inputs": [],
      "name": "updateVoting",
      "outputs": [
        {
          "internalType": "bool",
          "name": "",
          "type": "bool"
        }
      ],
      "stateMutability": "nonpayable",
      "type": "function"
    },
    {
      "inputs": [],
      "name": "getBalance",
      "outputs": [
        {
          "internalType": "uint256",
          "name": "",
          "type": "uint256"
        }
      ],
      "stateMutability": "view",
      "type": "function",
      "constant": true
    },
    {
      "inputs": [],
      "name": "getCTBalance",
      "outputs": [
        {
          "internalType": "uint256",
          "name": "",
          "type": "uint256"
        }
      ],
      "stateMutability": "view",
      "type": "function",
      "constant": true
    },
    {
      "inputs": [
        {
          "internalType": "address",
          "name": "_donor",
          "type": "address"
        }
      ],
      "name": "sendCT",
      "outputs": [],
      "stateMutability": "payable",
      "type": "function",
      "payable": true
    },
    {
      "inputs": [
        {
          "internalType": "uint256",
          "name": "_idProject",
          "type": "uint256"
        }
      ],
      "name": "doVoting",
      "outputs": [
        {
          "internalType": "bool",
          "name": "",
          "type": "bool"
        }
      ],
      "stateMutability": "nonpayable",
      "type": "function"
    },
    {
      "inputs": [
        {
          "internalType": "address",
          "name": "_voter",
          "type": "address"
        }
      ],
      "name": "retreiveCT",
      "outputs": [],
      "stateMutability": "payable",
      "type": "function",
      "payable": true
    },
    {
      "inputs": [
        {
          "internalType": "uint256",
          "name": "_idProject",
          "type": "uint256"
        }
      ],
      "name": "getcurrentVote",
      "outputs": [
        {
          "internalType": "uint256",
          "name": "",
          "type": "uint256"
        }
      ],
      "stateMutability": "nonpayable",
      "type": "function"
    },
    {
      "inputs": [],
      "name": "closeDonations",
      "outputs": [],
      "stateMutability": "nonpayable",
      "type": "function"
    },
    {
      "inputs": [],
      "name": "votingresult",
      "outputs": [
        {
          "internalType": "uint256",
          "name": "",
          "type": "uint256"
        }
      ],
      "stateMutability": "nonpayable",
      "type": "function"
    },
    {
      "inputs": [],
      "name": "startLottery",
      "outputs": [],
      "stateMutability": "nonpayable",
      "type": "function"
    },
    {
      "inputs": [],
      "name": "doLottery",
      "outputs": [
        {
          "internalType": "address",
          "name": "",
          "type": "address"
        }
      ],
      "stateMutability": "payable",
      "type": "function",
      "payable": true
    },
    {
      "inputs": [],
      "name": "sendWinn",
      "outputs": [],
      "stateMutability": "payable",
      "type": "function",
      "payable": true
    },
    {
      "inputs": [],
      "name": "sendDonations",
      "outputs": [],
      "stateMutability": "payable",
      "type": "function",
      "payable": true
    }
  ],
  "bytecode": "0x60806040526001600960006101000a81548160ff02191690831515021790555042600a5534801561002f57600080fd5b50336000806101000a81548173ffffffffffffffffffffffffffffffffffffffff021916908373ffffffffffffffffffffffffffffffffffffffff1602179055506123d18061007f6000396000f3fe6080604052600436106101bb5760003560e01c80638d6a8b80116100ec578063cb0a874c1161008a578063e4ecf64011610064578063e4ecf64014610596578063e9511c6e146105b2578063ed88c68e146105ef578063f696cd24146105f9576101bc565b8063cb0a874c14610512578063d1286e651461052e578063da58c7d914610559576101bc565b8063ac62f566116100c6578063ac62f56614610475578063acc9c6b4146104b2578063c236b4c3146104dd578063cad65b7014610508576101bc565b80638d6a8b801461040a57806399e7f8c2146104355780639e9929871461044c576101bc565b80632fd40267116101595780635bc036c4116101335780635bc036c41461038157806378e979251461038b57806382caff48146103b657806386e899a2146103df576101bc565b80632fd402671461030d5780635423514214610338578063583fa3a814610363576101bc565b8063107046bd11610195578063107046bd1461026357806312065fe0146102a0578063160344e2146102cb5780632e708fa8146102e2576101bc565b8063023aaf43146101be57806309548f36146101fb5780630f7b4fae14610226576101bc565b5b005b3480156101ca57600080fd5b506101e560048036038101906101e091906117aa565b610622565b6040516101f291906117e6565b60405180910390f35b34801561020757600080fd5b506102106106ce565b60405161021d91906117e6565b60405180910390f35b34801561023257600080fd5b5061024d6004803603810190610248919061195a565b6106d4565b60405161025a91906119be565b60405180910390f35b34801561026f57600080fd5b5061028a600480360381019061028591906117aa565b610780565b6040516102979190611a1a565b60405180910390f35b3480156102ac57600080fd5b506102b56107bf565b6040516102c291906117e6565b60405180910390f35b3480156102d757600080fd5b506102e06107c7565b005b3480156102ee57600080fd5b506102f761086f565b6040516103049190611a56565b60405180910390f35b34801561031957600080fd5b50610322610895565b60405161032f9190611a56565b60405180910390f35b34801561034457600080fd5b5061034d6108bb565b60405161035a91906117e6565b60405180910390f35b61036b6109ed565b6040516103789190611a56565b60405180910390f35b610389610b45565b005b34801561039757600080fd5b506103a0610cbb565b6040516103ad91906117e6565b60405180910390f35b3480156103c257600080fd5b506103dd60048036038101906103d89190611a9d565b610cc1565b005b3480156103eb57600080fd5b506103f4610d05565b60405161040191906117e6565b60405180910390f35b34801561041657600080fd5b5061041f610e16565b60405161042c9190611a56565b60405180910390f35b34801561044157600080fd5b5061044a610e3c565b005b34801561045857600080fd5b50610473600480360381019061046e9190611a9d565b610e59565b005b34801561048157600080fd5b5061049c600480360381019061049791906117aa565b610e9d565b6040516104a99190611a56565b60405180910390f35b3480156104be57600080fd5b506104c7610edc565b6040516104d491906119be565b60405180910390f35b3480156104e957600080fd5b506104f2610f98565b6040516104ff9190611a1a565b60405180910390f35b610510610fbe565b005b61052c60048036038101906105279190611a9d565b6110aa565b005b34801561053a57600080fd5b50610543611233565b6040516105509190611a56565b60405180910390f35b34801561056557600080fd5b50610580600480360381019061057b91906117aa565b611257565b60405161058d9190611a56565b60405180910390f35b6105b060048036038101906105ab9190611a9d565b611296565b005b3480156105be57600080fd5b506105d960048036038101906105d491906117aa565b611421565b6040516105e691906119be565b60405180910390f35b6105f76115bf565b005b34801561060557600080fd5b50610620600480360381019061061b9190611a9d565b611675565b005b600080600460009054906101000a900473ffffffffffffffffffffffffffffffffffffffff1690508073ffffffffffffffffffffffffffffffffffffffff166335875a56846040518263ffffffff1660e01b815260040161068391906117e6565b6020604051808303816000875af11580156106a2573d6000803e3d6000fd5b505050506040513d601f19601f820116820180604052508101906106c69190611adf565b915050919050565b600b5481565b600080600460009054906101000a900473ffffffffffffffffffffffffffffffffffffffff1690508073ffffffffffffffffffffffffffffffffffffffff1663fa8e6d58846040518263ffffffff1660e01b81526004016107359190611bca565b6020604051808303816000875af1158015610754573d6000803e3d6000fd5b505050506040513d601f19601f820116820180604052508101906107789190611c18565b915050919050565b6003818154811061079057600080fd5b906000526020600020016000915054906101000a900473ffffffffffffffffffffffffffffffffffffffff1681565b600047905090565b6000600560009054906101000a900473ffffffffffffffffffffffffffffffffffffffff1690508073ffffffffffffffffffffffffffffffffffffffff1663c129800d60016040518263ffffffff1660e01b81526004016108289190611d69565b6020604051808303816000875af1158015610847573d6000803e3d6000fd5b505050506040513d601f19601f8201168201806040525081019061086b9190611c18565b5050565b600460009054906101000a900473ffffffffffffffffffffffffffffffffffffffff1681565b600660009054906101000a900473ffffffffffffffffffffffffffffffffffffffff1681565b60008060009054906101000a900473ffffffffffffffffffffffffffffffffffffffff1673ffffffffffffffffffffffffffffffffffffffff163373ffffffffffffffffffffffffffffffffffffffff161461094c576040517f08c379a000000000000000000000000000000000000000000000000000000000815260040161094390611e0e565b60405180910390fd5b600660009054906101000a900473ffffffffffffffffffffffffffffffffffffffff1673ffffffffffffffffffffffffffffffffffffffff166370a08231306040518263ffffffff1660e01b81526004016109a79190611a56565b602060405180830381865afa1580156109c4573d6000803e3d6000fd5b505050506040513d601f19601f820116820180604052508101906109e89190611adf565b905090565b6000801515600960009054906101000a900460ff16151514610a44576040517f08c379a0000000000000000000000000000000000000000000000000000000008152600401610a3b90611ea0565b60405180910390fd5b6000600560009054906101000a900473ffffffffffffffffffffffffffffffffffffffff1690508073ffffffffffffffffffffffffffffffffffffffff16638e7ea5b26040518163ffffffff1660e01b81526004016020604051808303816000875af1158015610ab8573d6000803e3d6000fd5b505050506040513d601f19601f82011682018060405250810190610adc9190611ed5565b600760006101000a81548173ffffffffffffffffffffffffffffffffffffffff021916908373ffffffffffffffffffffffffffffffffffffffff160217905550600760009054906101000a900473ffffffffffffffffffffffffffffffffffffffff1691505090565b60001515600960009054906101000a900460ff16151514610b9b576040517f08c379a0000000000000000000000000000000000000000000000000000000008152600401610b9290611ea0565b60405180910390fd5b60008054906101000a900473ffffffffffffffffffffffffffffffffffffffff1673ffffffffffffffffffffffffffffffffffffffff163373ffffffffffffffffffffffffffffffffffffffff1614610c29576040517f08c379a0000000000000000000000000000000000000000000000000000000008152600401610c2090611e0e565b60405180910390fd5b6000479050600a606482610c3d9190611f60565b610c479190611f91565b600b81905550600760009054906101000a900473ffffffffffffffffffffffffffffffffffffffff1673ffffffffffffffffffffffffffffffffffffffff166108fc600b549081150290604051600060405180830381858888f19350505050158015610cb7573d6000803e3d6000fd5b5050565b600a5481565b80600460006101000a81548173ffffffffffffffffffffffffffffffffffffffff021916908373ffffffffffffffffffffffffffffffffffffffff16021790555050565b600080600460009054906101000a900473ffffffffffffffffffffffffffffffffffffffff1690508073ffffffffffffffffffffffffffffffffffffffff16639bfacba36040518163ffffffff1660e01b81526004016020604051808303816000875af1158015610d7a573d6000803e3d6000fd5b505050506040513d601f19601f82011682018060405250810190610d9e9190611c18565b508073ffffffffffffffffffffffffffffffffffffffff166394bec0716040518163ffffffff1660e01b81526004016020604051808303816000875af1158015610dec573d6000803e3d6000fd5b505050506040513d601f19601f82011682018060405250810190610e109190611adf565b91505090565b600560009054906101000a900473ffffffffffffffffffffffffffffffffffffffff1681565b6000600960006101000a81548160ff021916908315150217905550565b80600560006101000a81548173ffffffffffffffffffffffffffffffffffffffff021916908373ffffffffffffffffffffffffffffffffffffffff16021790555050565b60018181548110610ead57600080fd5b906000526020600020016000915054906101000a900473ffffffffffffffffffffffffffffffffffffffff1681565b600080600460009054906101000a900473ffffffffffffffffffffffffffffffffffffffff1690508073ffffffffffffffffffffffffffffffffffffffff1663cdd722536040518163ffffffff1660e01b81526004016000604051808303816000875af1158015610f51573d6000803e3d6000fd5b505050506040513d6000823e3d601f19601f82011682018060405250810190610f7a91906120ae565b60029080519060200190610f8f9291906116b9565b50600191505090565b600760009054906101000a900473ffffffffffffffffffffffffffffffffffffffff1681565b60001515600960009054906101000a900460ff16151514611014576040517f08c379a000000000000000000000000000000000000000000000000000000000815260040161100b90611ea0565b60405180910390fd5b60008054906101000a900473ffffffffffffffffffffffffffffffffffffffff1673ffffffffffffffffffffffffffffffffffffffff163373ffffffffffffffffffffffffffffffffffffffff16146110a2576040517f08c379a000000000000000000000000000000000000000000000000000000000815260040161109990611e0e565b60405180910390fd5b600047905050565b6000600660009054906101000a900473ffffffffffffffffffffffffffffffffffffffff1673ffffffffffffffffffffffffffffffffffffffff166370a08231836040518263ffffffff1660e01b81526004016111079190611a56565b602060405180830381865afa158015611124573d6000803e3d6000fd5b505050506040513d601f19601f820116820180604052508101906111489190611adf565b90506000811461118d576040517f08c379a000000000000000000000000000000000000000000000000000000000815260040161118490612143565b60405180910390fd5b600660009054906101000a900473ffffffffffffffffffffffffffffffffffffffff1673ffffffffffffffffffffffffffffffffffffffff1663a9059cbb8360016040518363ffffffff1660e01b81526004016111eb9291906121a8565b6020604051808303816000875af115801561120a573d6000803e3d6000fd5b505050506040513d601f19601f8201168201806040525081019061122e9190611c18565b505050565b60008054906101000a900473ffffffffffffffffffffffffffffffffffffffff1681565b6002818154811061126757600080fd5b906000526020600020016000915054906101000a900473ffffffffffffffffffffffffffffffffffffffff1681565b6000600660009054906101000a900473ffffffffffffffffffffffffffffffffffffffff1673ffffffffffffffffffffffffffffffffffffffff166370a08231836040518263ffffffff1660e01b81526004016112f39190611a56565b602060405180830381865afa158015611310573d6000803e3d6000fd5b505050506040513d601f19601f820116820180604052508101906113349190611adf565b905060018114611379576040517f08c379a00000000000000000000000000000000000000000000000000000000081526004016113709061221d565b60405180910390fd5b600660009054906101000a900473ffffffffffffffffffffffffffffffffffffffff1673ffffffffffffffffffffffffffffffffffffffff166323b872dd833060016040518463ffffffff1660e01b81526004016113d99392919061223d565b6020604051808303816000875af11580156113f8573d6000803e3d6000fd5b505050506040513d601f19601f8201168201806040525081019061141c9190611c18565b505050565b600080600460009054906101000a900473ffffffffffffffffffffffffffffffffffffffff1690506000600660009054906101000a900473ffffffffffffffffffffffffffffffffffffffff1673ffffffffffffffffffffffffffffffffffffffff166370a08231336040518263ffffffff1660e01b81526004016114a69190611a56565b602060405180830381865afa1580156114c3573d6000803e3d6000fd5b505050506040513d601f19601f820116820180604052508101906114e79190611adf565b90506001811461152c576040517f08c379a0000000000000000000000000000000000000000000000000000000008152600401611523906122e6565b60405180910390fd5b8173ffffffffffffffffffffffffffffffffffffffff166373d814eb85336040518363ffffffff1660e01b8152600401611567929190612306565b6020604051808303816000875af1158015611586573d6000803e3d6000fd5b505050506040513d601f19601f820116820180604052508101906115aa9190611c18565b506115b433611296565b600192505050919050565b6402540be400341015611607576040517f08c379a00000000000000000000000000000000000000000000000000000000081526004016115fe9061237b565b60405180910390fd5b6001339080600181540180825580915050600190039060005260206000200160009091909190916101000a81548173ffffffffffffffffffffffffffffffffffffffff021916908373ffffffffffffffffffffffffffffffffffffffff160217905550611673336110aa565b565b80600660006101000a81548173ffffffffffffffffffffffffffffffffffffffff021916908373ffffffffffffffffffffffffffffffffffffffff16021790555050565b828054828255906000526020600020908101928215611732579160200282015b828111156117315782518260006101000a81548173ffffffffffffffffffffffffffffffffffffffff021916908373ffffffffffffffffffffffffffffffffffffffff160217905550916020019190600101906116d9565b5b50905061173f9190611743565b5090565b5b8082111561175c576000816000905550600101611744565b5090565b6000604051905090565b600080fd5b600080fd5b6000819050919050565b61178781611774565b811461179257600080fd5b50565b6000813590506117a48161177e565b92915050565b6000602082840312156117c0576117bf61176a565b5b60006117ce84828501611795565b91505092915050565b6117e081611774565b82525050565b60006020820190506117fb60008301846117d7565b92915050565b600080fd5b6000601f19601f8301169050919050565b7f4e487b7100000000000000000000000000000000000000000000000000000000600052604160045260246000fd5b61184f82611806565b810181811067ffffffffffffffff8211171561186e5761186d611817565b5b80604052505050565b6000611881611760565b905061188d8282611846565b919050565b600067ffffffffffffffff8211156118ad576118ac611817565b5b602082029050602081019050919050565b600080fd5b60006118d66118d184611892565b611877565b905080838252602082019050602084028301858111156118f9576118f86118be565b5b835b81811015611922578061190e8882611795565b8452602084019350506020810190506118fb565b5050509392505050565b600082601f83011261194157611940611801565b5b81356119518482602086016118c3565b91505092915050565b6000602082840312156119705761196f61176a565b5b600082013567ffffffffffffffff81111561198e5761198d61176f565b5b61199a8482850161192c565b91505092915050565b60008115159050919050565b6119b8816119a3565b82525050565b60006020820190506119d360008301846119af565b92915050565b600073ffffffffffffffffffffffffffffffffffffffff82169050919050565b6000611a04826119d9565b9050919050565b611a14816119f9565b82525050565b6000602082019050611a2f6000830184611a0b565b92915050565b6000611a40826119d9565b9050919050565b611a5081611a35565b82525050565b6000602082019050611a6b6000830184611a47565b92915050565b611a7a81611a35565b8114611a8557600080fd5b50565b600081359050611a9781611a71565b92915050565b600060208284031215611ab357611ab261176a565b5b6000611ac184828501611a88565b91505092915050565b600081519050611ad98161177e565b92915050565b600060208284031215611af557611af461176a565b5b6000611b0384828501611aca565b91505092915050565b600081519050919050565b600082825260208201905092915050565b6000819050602082019050919050565b611b4181611774565b82525050565b6000611b538383611b38565b60208301905092915050565b6000602082019050919050565b6000611b7782611b0c565b611b818185611b17565b9350611b8c83611b28565b8060005b83811015611bbd578151611ba48882611b47565b9750611baf83611b5f565b925050600181019050611b90565b5085935050505092915050565b60006020820190508181036000830152611be48184611b6c565b905092915050565b611bf5816119a3565b8114611c0057600080fd5b50565b600081519050611c1281611bec565b92915050565b600060208284031215611c2e57611c2d61176a565b5b6000611c3c84828501611c03565b91505092915050565b600081549050919050565b600082825260208201905092915050565b60008190508160005260206000209050919050565b611c7f81611a35565b82525050565b6000611c918383611c76565b60208301905092915050565b60008160001c9050919050565b600073ffffffffffffffffffffffffffffffffffffffff82169050919050565b6000611cdd611cd883611c9d565b611caa565b9050919050565b6000611cf08254611cca565b9050919050565b6000600182019050919050565b6000611d0f82611c45565b611d198185611c50565b9350611d2483611c61565b8060005b83811015611d5c57611d3982611ce4565b611d438882611c85565b9750611d4e83611cf7565b925050600181019050611d28565b5085935050505092915050565b60006020820190508181036000830152611d838184611d04565b905092915050565b600082825260208201905092915050565b7f6f6e6c792043686172795465616d2063616e2063616c6c20746869732066756e60008201527f6374696f6e000000000000000000000000000000000000000000000000000000602082015250565b6000611df8602583611d8b565b9150611e0382611d9c565b604082019050919050565b60006020820190508181036000830152611e2781611deb565b9050919050565b7f5370656e64656e2077657264656e206e69636874206d65687220676573616d6d60008201527f656c740000000000000000000000000000000000000000000000000000000000602082015250565b6000611e8a602383611d8b565b9150611e9582611e2e565b604082019050919050565b60006020820190508181036000830152611eb981611e7d565b9050919050565b600081519050611ecf81611a71565b92915050565b600060208284031215611eeb57611eea61176a565b5b6000611ef984828501611ec0565b91505092915050565b7f4e487b7100000000000000000000000000000000000000000000000000000000600052601260045260246000fd5b7f4e487b7100000000000000000000000000000000000000000000000000000000600052601160045260246000fd5b6000611f6b82611774565b9150611f7683611774565b925082611f8657611f85611f02565b5b828204905092915050565b6000611f9c82611774565b9150611fa783611774565b9250817fffffffffffffffffffffffffffffffffffffffffffffffffffffffffffffffff0483118215151615611fe057611fdf611f31565b5b828202905092915050565b600067ffffffffffffffff82111561200657612005611817565b5b602082029050602081019050919050565b600061202a61202584611feb565b611877565b9050808382526020820190506020840283018581111561204d5761204c6118be565b5b835b8181101561207657806120628882611ec0565b84526020840193505060208101905061204f565b5050509392505050565b600082601f83011261209557612094611801565b5b81516120a5848260208601612017565b91505092915050565b6000602082840312156120c4576120c361176a565b5b600082015167ffffffffffffffff8111156120e2576120e161176f565b5b6120ee84828501612080565b91505092915050565b7f73656e64657220616c7265616479206861732061204354000000000000000000600082015250565b600061212d601783611d8b565b9150612138826120f7565b602082019050919050565b6000602082019050818103600083015261215c81612120565b9050919050565b6000819050919050565b6000819050919050565b600061219261218d61218884612163565b61216d565b611774565b9050919050565b6121a281612177565b82525050565b60006040820190506121bd6000830185611a47565b6121ca6020830184612199565b9392505050565b7f73656e64657220686173206e6f2043542c206e6f2072657472656976696e6700600082015250565b6000612207601f83611d8b565b9150612212826121d1565b602082019050919050565b60006020820190508181036000830152612236816121fa565b9050919050565b60006060820190506122526000830186611a47565b61225f6020830185611a47565b61226c6040830184612199565b949350505050565b7f646f6e61746f7220686173206e6f2043542c206e6f20766f74696e6720706f7360008201527f7369626c65000000000000000000000000000000000000000000000000000000602082015250565b60006122d0602583611d8b565b91506122db82612274565b604082019050919050565b600060208201905081810360008301526122ff816122c3565b9050919050565b600060408201905061231b60008301856117d7565b6123286020830184611a47565b9392505050565b7f496e76657374206d696e696d756d206f6620302e312065746865720000000000600082015250565b6000612365601b83611d8b565b91506123708261232f565b602082019050919050565b6000602082019050818103600083015261239481612358565b905091905056fea264697066735822122021320b8ba042791dd289f0e5027bc878f20bdcf663753f7ac56b13af8ccb169064736f6c634300080d0033",
  "immutableReferences": {},
  "source": "// SPDX-License-Identifier: MIT\r\npragma solidity = 0.8.13; \r\n\r\nimport \"@openzeppelin/contracts/token/ERC20/IERC20.sol\";\r\nimport \"@openzeppelin/contracts/token/ERC20/ERC20.sol\";\r\n\r\nimport \"./IVoting.sol\"; \r\nimport \"./ILottery.sol\"; \r\n\r\ncontract Spendenpool{\r\n    //variables \r\n    address public charyteam; \r\n    address[] public donators; //payable not neccessary within address? \r\n    address[] public voters; //temporary to chekc if working\r\n    address payable[] public projects; //struct projects with address and id? \r\n    address public votingcontract; \r\n    address public lotterycontract; \r\n    address public ctcontract; \r\n    address payable public lotterywinner; \r\n    uint donations; \r\n    bool donationsopen = true; \r\n    uint public startTime = block.timestamp;\r\n    uint public lotterymoney; \r\n\r\n    \r\n\r\n    //constructor \r\n    //deployer of contract = charyteam\r\n    //give relevant projects for this timeintervall with constructor \r\n    constructor () public {\r\n        charyteam = msg.sender; \r\n    }\r\n\r\n    //modifier\r\n    //1. donations are being collected = it can be voted, when not -> Lottery starts\r\n    modifier donationsclosed(){\r\n        require(donationsopen == false, \"Spenden werden nicht mehr gesammelt\"); \r\n        _; \r\n    }\r\n\r\n    //only charyteam can do something\r\n    modifier onlyCharyteam(){\r\n        require(msg.sender == charyteam, \"only CharyTeam can call this function\"); \r\n        _;\r\n    }\r\n\r\n    //events to the frontend \r\n    //event Donator donated (adrdess, uint amount); \r\n\r\n\r\n    //functions \r\n    //initiate Voting, should be immediatley because voting runs parallel to donations \r\n    function initiateVoting(address _votingAddress) external {\r\n        //initiate voting with this address\r\n        votingcontract = _votingAddress; \r\n    }\r\n\r\n    function initiateLottery(address _lotteryContract) external {\r\n        lotterycontract = _lotteryContract; \r\n    }\r\n    function setCTaddress(address _CTContract) external {\r\n        ctcontract = _CTContract; \r\n    }\r\n\r\n    function setVotingProjectIds(uint[] memory _projectids) external returns(bool){\r\n        IVoting v = IVoting(votingcontract); \r\n        return v.setProjectIds(_projectids);\r\n    }\r\n\r\n\r\n    //donations of donators \r\n    function donate() external payable {\r\n        //minimum value? \r\n        require(msg.value >= 0.00000001 ether, \"Invest minimum of 0.1 ether\");\r\n        //keeping track of the Donators \r\n        donators.push(msg.sender); \r\n        sendCT(msg.sender); \r\n    }\r\n\r\n\r\n    function updateVoting() public returns(bool){\r\n        //update number of donators (or off-chain)? \r\n        IVoting v = IVoting(votingcontract); \r\n        voters = v.getVoters(); //wo speichern \r\n        return true;  \r\n    }\r\n\r\n    //getbalance \r\n    function getBalance() public view returns(uint) {\r\n        // everyone can see balance \r\n        return address(this).balance; \r\n    }\r\n\r\n    \r\n    //getbalance of CT in this contract, careful contract address changes when deploying!! \r\n    function getCTBalance() public view onlyCharyteam returns(uint) {\r\n        return IERC20(ctcontract).balanceOf(address(this));\r\n    }\r\n    \r\n\r\n    //send charity token to donator after donation \r\n    function sendCT(address _donor) payable public {\r\n        //require balance CT = 0 \r\n        uint tempCT = IERC20(ctcontract).balanceOf(_donor);\r\n        require(tempCT == 0, \"sender already has a CT\"); \r\n        IERC20(ctcontract).transfer(_donor, 1); \r\n    }\r\n\r\n    //do a Vote for a Project id\r\n    function doVoting(uint _idProject) public returns(bool) {\r\n        IVoting v = IVoting(votingcontract);\r\n        uint tempCTbalance = IERC20(ctcontract).balanceOf(msg.sender); \r\n        require (tempCTbalance == 1, \"donator has no CT, no voting possible\");\r\n        v.doVote(_idProject, msg.sender); \r\n        retreiveCT(msg.sender);\r\n        return true; \r\n    }\r\n\r\n    function retreiveCT(address _voter) payable public {\r\n        uint tempCT = IERC20(ctcontract).balanceOf(_voter);\r\n        require (tempCT == 1, \"sender has no CT, no retreiving\"); \r\n        IERC20(ctcontract).transferFrom(_voter, address(this), 1); \r\n    }\r\n\r\n    function getcurrentVote(uint _idProject) public returns(uint) {\r\n        IVoting v = IVoting(votingcontract); //kann ich auch einmalig im constructor Voting mahcne? \r\n        return v.showcurrentVotes(_idProject); \r\n    }\r\n\r\n    //after 3month close donations  \r\n    function closeDonations() public {\r\n        //if (donationsopen == true && block.timestamp >= startTime + 30 days) donationsopen = false; \r\n        donationsopen = false; \r\n    }\r\n\r\n    //get result of voting //after donations are closed\r\n    function votingresult() public returns (uint) {\r\n        IVoting v = IVoting(votingcontract); \r\n        v.returnVotingWinner(); \r\n        return v.getVotingWinner(); \r\n    }\r\n\r\n    function startLottery() public {\r\n        ILottery l = ILottery(lotterycontract); \r\n        l.enterLottery(donators);\r\n    }\r\n\r\n    //gives donors in array to lottery contract and returns the random winner of the donors \r\n    function doLottery() payable public donationsclosed returns(address) {\r\n        ILottery l = ILottery(lotterycontract); \r\n        //l.enterLottery(donators);\r\n        lotterywinner = payable(l.getWinner()); \r\n        return lotterywinner; \r\n        //initialize lottery contract \r\n        //send 10% of balance to lottery contract \r\n    }\r\n\r\n    function sendWinn() payable public donationsclosed onlyCharyteam  {\r\n        uint thisamount = address(this).balance; \r\n        lotterymoney = thisamount / 100 * 10; \r\n        lotterywinner.transfer(lotterymoney); \r\n    }\r\n    function sendDonations() payable public donationsclosed onlyCharyteam {\r\n        uint thisamount = address(this).balance; \r\n        //get winner project address and send \r\n    }\r\n    fallback() external payable{\r\n    }\r\n\r\n}",
  "sourcePath": "C:\\Users\\annet\\Documents\\TU BS\\Masterarbeit\\charychaintest\\contracts\\donationspool.sol",
  "compiler": {
    "name": "solc",
    "version": "0.8.13+commit.abaa5c0e.Emscripten.clang"
  },
  "schemaVersion": "3.4.7",
  "updatedAt": "2022-06-07T13:40:44.770Z",
  "networkType": "ethereum",
  "devdoc": {
    "kind": "dev",
    "methods": {},
    "version": 1
  },
  "userdoc": {
    "kind": "user",
    "methods": {},
    "version": 1
  }
}