{
  "contractName": "Spendenpool",
  "abi": [
    {
      "inputs": [],
      "stateMutability": "nonpayable",
      "type": "constructor"
    },
    {
      "inputs": [],
      "name": "charyteam",
      "outputs": [
        {
          "internalType": "address",
          "name": "",
          "type": "address"
        }
      ],
      "stateMutability": "view",
      "type": "function",
      "constant": true
    },
    {
      "inputs": [
        {
          "internalType": "uint256",
          "name": "",
          "type": "uint256"
        }
      ],
      "name": "donators",
      "outputs": [
        {
          "internalType": "address",
          "name": "",
          "type": "address"
        }
      ],
      "stateMutability": "view",
      "type": "function",
      "constant": true
    },
    {
      "inputs": [],
      "name": "lotterycontract",
      "outputs": [
        {
          "internalType": "address",
          "name": "",
          "type": "address"
        }
      ],
      "stateMutability": "view",
      "type": "function",
      "constant": true
    },
    {
      "inputs": [],
      "name": "lotterywinner",
      "outputs": [
        {
          "internalType": "address payable",
          "name": "",
          "type": "address"
        }
      ],
      "stateMutability": "view",
      "type": "function",
      "constant": true
    },
    {
      "inputs": [
        {
          "internalType": "uint256",
          "name": "",
          "type": "uint256"
        }
      ],
      "name": "projects",
      "outputs": [
        {
          "internalType": "address payable",
          "name": "",
          "type": "address"
        }
      ],
      "stateMutability": "view",
      "type": "function",
      "constant": true
    },
    {
      "inputs": [],
      "name": "startTime",
      "outputs": [
        {
          "internalType": "uint256",
          "name": "",
          "type": "uint256"
        }
      ],
      "stateMutability": "view",
      "type": "function",
      "constant": true
    },
    {
      "inputs": [
        {
          "internalType": "uint256",
          "name": "",
          "type": "uint256"
        }
      ],
      "name": "voters",
      "outputs": [
        {
          "internalType": "address",
          "name": "",
          "type": "address"
        }
      ],
      "stateMutability": "view",
      "type": "function",
      "constant": true
    },
    {
      "inputs": [],
      "name": "votingcontract",
      "outputs": [
        {
          "internalType": "address",
          "name": "",
          "type": "address"
        }
      ],
      "stateMutability": "view",
      "type": "function",
      "constant": true
    },
    {
      "inputs": [
        {
          "internalType": "address",
          "name": "_votingAddress",
          "type": "address"
        }
      ],
      "name": "initiateVoting",
      "outputs": [],
      "stateMutability": "nonpayable",
      "type": "function"
    },
    {
      "inputs": [
        {
          "internalType": "address",
          "name": "_lotteryContract",
          "type": "address"
        }
      ],
      "name": "initiateLottery",
      "outputs": [],
      "stateMutability": "nonpayable",
      "type": "function"
    },
    {
      "inputs": [],
      "name": "donate",
      "outputs": [],
      "stateMutability": "payable",
      "type": "function",
      "payable": true
    },
    {
      "inputs": [],
      "name": "updateVoting",
      "outputs": [
        {
          "internalType": "address[]",
          "name": "",
          "type": "address[]"
        }
      ],
      "stateMutability": "nonpayable",
      "type": "function"
    },
    {
      "inputs": [],
      "name": "getBalance",
      "outputs": [
        {
          "internalType": "uint256",
          "name": "",
          "type": "uint256"
        }
      ],
      "stateMutability": "view",
      "type": "function",
      "constant": true
    },
    {
      "inputs": [],
      "name": "getCTBalance",
      "outputs": [
        {
          "internalType": "uint256",
          "name": "",
          "type": "uint256"
        }
      ],
      "stateMutability": "view",
      "type": "function",
      "constant": true
    },
    {
      "inputs": [],
      "name": "sendCT",
      "outputs": [],
      "stateMutability": "payable",
      "type": "function",
      "payable": true
    },
    {
      "inputs": [],
      "name": "closeDonations",
      "outputs": [],
      "stateMutability": "nonpayable",
      "type": "function"
    },
    {
      "inputs": [],
      "name": "votingresult",
      "outputs": [
        {
          "internalType": "uint256",
          "name": "",
          "type": "uint256"
        }
      ],
      "stateMutability": "nonpayable",
      "type": "function"
    },
    {
      "inputs": [],
      "name": "doLottery",
      "outputs": [
        {
          "internalType": "address",
          "name": "",
          "type": "address"
        }
      ],
      "stateMutability": "payable",
      "type": "function",
      "payable": true
    },
    {
      "inputs": [],
      "name": "sendWinn",
      "outputs": [],
      "stateMutability": "payable",
      "type": "function",
      "payable": true
    },
    {
      "inputs": [],
      "name": "sendDonations",
      "outputs": [],
      "stateMutability": "payable",
      "type": "function",
      "payable": true
    }
  ],
  "bytecode": "0x60806040526001600860006101000a81548160ff0219169083151502179055504260095534801561002f57600080fd5b50336000806101000a81548173ffffffffffffffffffffffffffffffffffffffff021916908373ffffffffffffffffffffffffffffffffffffffff1602179055506119bd8061007f6000396000f3fe60806040526004361061011f5760003560e01c80638d6a8b80116100a0578063c236b4c311610064578063c236b4c314610366578063cad65b7014610391578063d1286e651461039b578063da58c7d9146103c6578063ed88c68e146104035761011f565b80638d6a8b801461029357806399e7f8c2146102be5780639e992987146102d5578063ac62f566146102fe578063acc9c6b41461033b5761011f565b80635bc036c4116100e75780635bc036c41461020057806378e979251461020a5780637c4444ff1461023557806382caff481461023f57806386e899a2146102685761011f565b8063107046bd1461012457806312065fe0146101615780632e708fa81461018c57806354235142146101b7578063583fa3a8146101e2575b600080fd5b34801561013057600080fd5b5061014b60048036038101906101469190611062565b61040d565b60405161015891906110d0565b60405180910390f35b34801561016d57600080fd5b5061017661044c565b60405161018391906110fa565b60405180910390f35b34801561019857600080fd5b506101a1610454565b6040516101ae9190611136565b60405180910390f35b3480156101c357600080fd5b506101cc61047a565b6040516101d991906110fa565b60405180910390f35b6101ea61059e565b6040516101f79190611136565b60405180910390f35b610208610774565b005b34801561021657600080fd5b5061021f6108e7565b60405161022c91906110fa565b60405180910390f35b61023d6108ed565b005b34801561024b57600080fd5b506102666004803603810190610261919061117d565b610a59565b005b34801561027457600080fd5b5061027d610a9d565b60405161028a91906110fa565b60405180910390f35b34801561029f57600080fd5b506102a8610b3c565b6040516102b59190611136565b60405180910390f35b3480156102ca57600080fd5b506102d3610b62565b005b3480156102e157600080fd5b506102fc60048036038101906102f7919061117d565b610b7f565b005b34801561030a57600080fd5b5061032560048036038101906103209190611062565b610bc3565b6040516103329190611136565b60405180910390f35b34801561034757600080fd5b50610350610c02565b60405161035d9190611268565b60405180910390f35b34801561037257600080fd5b5061037b610d44565b60405161038891906110d0565b60405180910390f35b610399610d6a565b005b3480156103a757600080fd5b506103b0610e56565b6040516103bd9190611136565b60405180910390f35b3480156103d257600080fd5b506103ed60048036038101906103e89190611062565b610e7a565b6040516103fa9190611136565b60405180910390f35b61040b610eb9565b005b6003818154811061041d57600080fd5b906000526020600020016000915054906101000a900473ffffffffffffffffffffffffffffffffffffffff1681565b600047905090565b600460009054906101000a900473ffffffffffffffffffffffffffffffffffffffff1681565b60008060009054906101000a900473ffffffffffffffffffffffffffffffffffffffff1673ffffffffffffffffffffffffffffffffffffffff163373ffffffffffffffffffffffffffffffffffffffff161461050b576040517f08c379a00000000000000000000000000000000000000000000000000000000081526004016105029061130d565b60405180910390fd5b73ed4c5a8bda0081cfafa5b74bb5a0bd82a4cd2c0973ffffffffffffffffffffffffffffffffffffffff166370a08231306040518263ffffffff1660e01b81526004016105589190611136565b602060405180830381865afa158015610575573d6000803e3d6000fd5b505050506040513d601f19601f820116820180604052508101906105999190611342565b905090565b6000801515600860009054906101000a900460ff161515146105f5576040517f08c379a00000000000000000000000000000000000000000000000000000000081526004016105ec906113e1565b60405180910390fd5b6000600560009054906101000a900473ffffffffffffffffffffffffffffffffffffffff1690508073ffffffffffffffffffffffffffffffffffffffff1663c129800d60016040518263ffffffff1660e01b815260040161065691906114ed565b6020604051808303816000875af1158015610675573d6000803e3d6000fd5b505050506040513d601f19601f820116820180604052508101906106999190611547565b508073ffffffffffffffffffffffffffffffffffffffff16638e7ea5b26040518163ffffffff1660e01b81526004016020604051808303816000875af11580156106e7573d6000803e3d6000fd5b505050506040513d601f19601f8201168201806040525081019061070b9190611589565b600660006101000a81548173ffffffffffffffffffffffffffffffffffffffff021916908373ffffffffffffffffffffffffffffffffffffffff160217905550600660009054906101000a900473ffffffffffffffffffffffffffffffffffffffff1691505090565b60001515600860009054906101000a900460ff161515146107ca576040517f08c379a00000000000000000000000000000000000000000000000000000000081526004016107c1906113e1565b60405180910390fd5b60008054906101000a900473ffffffffffffffffffffffffffffffffffffffff1673ffffffffffffffffffffffffffffffffffffffff163373ffffffffffffffffffffffffffffffffffffffff1614610858576040517f08c379a000000000000000000000000000000000000000000000000000000000815260040161084f9061130d565b60405180910390fd5b60004790506000600a60648361086e9190611614565b6108789190611645565b9050600660009054906101000a900473ffffffffffffffffffffffffffffffffffffffff1673ffffffffffffffffffffffffffffffffffffffff166108fc829081150290604051600060405180830381858888f193505050501580156108e2573d6000803e3d6000fd5b505050565b60095481565b600073ed4c5a8bda0081cfafa5b74bb5a0bd82a4cd2c0973ffffffffffffffffffffffffffffffffffffffff166370a08231336040518263ffffffff1660e01b815260040161093c9190611136565b602060405180830381865afa158015610959573d6000803e3d6000fd5b505050506040513d601f19601f8201168201806040525081019061097d9190611342565b9050600081146109c2576040517f08c379a00000000000000000000000000000000000000000000000000000000081526004016109b9906116eb565b60405180910390fd5b73ed4c5a8bda0081cfafa5b74bb5a0bd82a4cd2c0973ffffffffffffffffffffffffffffffffffffffff1663a9059cbb3360016040518363ffffffff1660e01b8152600401610a12929190611750565b6020604051808303816000875af1158015610a31573d6000803e3d6000fd5b505050506040513d601f19601f82011682018060405250810190610a559190611547565b5050565b80600460006101000a81548173ffffffffffffffffffffffffffffffffffffffff021916908373ffffffffffffffffffffffffffffffffffffffff16021790555050565b600080600460009054906101000a900473ffffffffffffffffffffffffffffffffffffffff1690508073ffffffffffffffffffffffffffffffffffffffff166394bec0716040518163ffffffff1660e01b81526004016020604051808303816000875af1158015610b12573d6000803e3d6000fd5b505050506040513d601f19601f82011682018060405250810190610b369190611342565b91505090565b600560009054906101000a900473ffffffffffffffffffffffffffffffffffffffff1681565b6000600860006101000a81548160ff021916908315150217905550565b80600560006101000a81548173ffffffffffffffffffffffffffffffffffffffff021916908373ffffffffffffffffffffffffffffffffffffffff16021790555050565b60018181548110610bd357600080fd5b906000526020600020016000915054906101000a900473ffffffffffffffffffffffffffffffffffffffff1681565b60606000600460009054906101000a900473ffffffffffffffffffffffffffffffffffffffff1690508073ffffffffffffffffffffffffffffffffffffffff1663cdd722536040518163ffffffff1660e01b81526004016000604051808303816000875af1158015610c78573d6000803e3d6000fd5b505050506040513d6000823e3d601f19601f82011682018060405250810190610ca191906118d2565b60029080519060200190610cb6929190610f71565b506002805480602002602001604051908101604052809291908181526020018280548015610d3957602002820191906000526020600020905b8160009054906101000a900473ffffffffffffffffffffffffffffffffffffffff1673ffffffffffffffffffffffffffffffffffffffff1681526020019060010190808311610cef575b505050505091505090565b600660009054906101000a900473ffffffffffffffffffffffffffffffffffffffff1681565b60001515600860009054906101000a900460ff16151514610dc0576040517f08c379a0000000000000000000000000000000000000000000000000000000008152600401610db7906113e1565b60405180910390fd5b60008054906101000a900473ffffffffffffffffffffffffffffffffffffffff1673ffffffffffffffffffffffffffffffffffffffff163373ffffffffffffffffffffffffffffffffffffffff1614610e4e576040517f08c379a0000000000000000000000000000000000000000000000000000000008152600401610e459061130d565b60405180910390fd5b600047905050565b60008054906101000a900473ffffffffffffffffffffffffffffffffffffffff1681565b60028181548110610e8a57600080fd5b906000526020600020016000915054906101000a900473ffffffffffffffffffffffffffffffffffffffff1681565b67016345785d8a0000341015610f04576040517f08c379a0000000000000000000000000000000000000000000000000000000008152600401610efb90611967565b60405180910390fd5b6001339080600181540180825580915050600190039060005260206000200160009091909190916101000a81548173ffffffffffffffffffffffffffffffffffffffff021916908373ffffffffffffffffffffffffffffffffffffffff160217905550610f6f6108ed565b565b828054828255906000526020600020908101928215610fea579160200282015b82811115610fe95782518260006101000a81548173ffffffffffffffffffffffffffffffffffffffff021916908373ffffffffffffffffffffffffffffffffffffffff16021790555091602001919060010190610f91565b5b509050610ff79190610ffb565b5090565b5b80821115611014576000816000905550600101610ffc565b5090565b6000604051905090565b600080fd5b600080fd5b6000819050919050565b61103f8161102c565b811461104a57600080fd5b50565b60008135905061105c81611036565b92915050565b60006020828403121561107857611077611022565b5b60006110868482850161104d565b91505092915050565b600073ffffffffffffffffffffffffffffffffffffffff82169050919050565b60006110ba8261108f565b9050919050565b6110ca816110af565b82525050565b60006020820190506110e560008301846110c1565b92915050565b6110f48161102c565b82525050565b600060208201905061110f60008301846110eb565b92915050565b60006111208261108f565b9050919050565b61113081611115565b82525050565b600060208201905061114b6000830184611127565b92915050565b61115a81611115565b811461116557600080fd5b50565b60008135905061117781611151565b92915050565b60006020828403121561119357611192611022565b5b60006111a184828501611168565b91505092915050565b600081519050919050565b600082825260208201905092915050565b6000819050602082019050919050565b6111df81611115565b82525050565b60006111f183836111d6565b60208301905092915050565b6000602082019050919050565b6000611215826111aa565b61121f81856111b5565b935061122a836111c6565b8060005b8381101561125b57815161124288826111e5565b975061124d836111fd565b92505060018101905061122e565b5085935050505092915050565b60006020820190508181036000830152611282818461120a565b905092915050565b600082825260208201905092915050565b7f6f6e6c792043686172795465616d2063616e2063616c6c20746869732066756e60008201527f6374696f6e000000000000000000000000000000000000000000000000000000602082015250565b60006112f760258361128a565b91506113028261129b565b604082019050919050565b60006020820190508181036000830152611326816112ea565b9050919050565b60008151905061133c81611036565b92915050565b60006020828403121561135857611357611022565b5b60006113668482850161132d565b91505092915050565b7f5370656e64656e2077657264656e206e69636874206d65687220676573616d6d60008201527f656c740000000000000000000000000000000000000000000000000000000000602082015250565b60006113cb60238361128a565b91506113d68261136f565b604082019050919050565b600060208201905081810360008301526113fa816113be565b9050919050565b600081549050919050565b60008190508160005260206000209050919050565b60008160001c9050919050565b600073ffffffffffffffffffffffffffffffffffffffff82169050919050565b600061146161145c83611421565b61142e565b9050919050565b6000611474825461144e565b9050919050565b6000600182019050919050565b600061149382611401565b61149d81856111b5565b93506114a88361140c565b8060005b838110156114e0576114bd82611468565b6114c788826111e5565b97506114d28361147b565b9250506001810190506114ac565b5085935050505092915050565b600060208201905081810360008301526115078184611488565b905092915050565b60008115159050919050565b6115248161150f565b811461152f57600080fd5b50565b6000815190506115418161151b565b92915050565b60006020828403121561155d5761155c611022565b5b600061156b84828501611532565b91505092915050565b60008151905061158381611151565b92915050565b60006020828403121561159f5761159e611022565b5b60006115ad84828501611574565b91505092915050565b7f4e487b7100000000000000000000000000000000000000000000000000000000600052601260045260246000fd5b7f4e487b7100000000000000000000000000000000000000000000000000000000600052601160045260246000fd5b600061161f8261102c565b915061162a8361102c565b92508261163a576116396115b6565b5b828204905092915050565b60006116508261102c565b915061165b8361102c565b9250817fffffffffffffffffffffffffffffffffffffffffffffffffffffffffffffffff0483118215151615611694576116936115e5565b5b828202905092915050565b7f73656e64657220616c7265616479206861732061204354000000000000000000600082015250565b60006116d560178361128a565b91506116e08261169f565b602082019050919050565b60006020820190508181036000830152611704816116c8565b9050919050565b6000819050919050565b6000819050919050565b600061173a6117356117308461170b565b611715565b61102c565b9050919050565b61174a8161171f565b82525050565b60006040820190506117656000830185611127565b6117726020830184611741565b9392505050565b600080fd5b6000601f19601f8301169050919050565b7f4e487b7100000000000000000000000000000000000000000000000000000000600052604160045260246000fd5b6117c78261177e565b810181811067ffffffffffffffff821117156117e6576117e561178f565b5b80604052505050565b60006117f9611018565b905061180582826117be565b919050565b600067ffffffffffffffff8211156118255761182461178f565b5b602082029050602081019050919050565b600080fd5b600061184e6118498461180a565b6117ef565b9050808382526020820190506020840283018581111561187157611870611836565b5b835b8181101561189a57806118868882611574565b845260208401935050602081019050611873565b5050509392505050565b600082601f8301126118b9576118b8611779565b5b81516118c984826020860161183b565b91505092915050565b6000602082840312156118e8576118e7611022565b5b600082015167ffffffffffffffff81111561190657611905611027565b5b611912848285016118a4565b91505092915050565b7f496e76657374206d696e696d756d206f6620302e312065746865720000000000600082015250565b6000611951601b8361128a565b915061195c8261191b565b602082019050919050565b6000602082019050818103600083015261198081611944565b905091905056fea2646970667358221220601939256293081e8485395267796dd171b115da5823381f1d0e79ea8f7c3c4064736f6c634300080d0033",
  "immutableReferences": {},
  "source": "// SPDX-License-Identifier: MIT\r\npragma solidity = 0.8.13; \r\n\r\nimport \"@openzeppelin/contracts/token/ERC20/IERC20.sol\";\r\nimport \"@openzeppelin/contracts/token/ERC20/ERC20.sol\";\r\n\r\nimport \"./IVoting.sol\"; \r\nimport \"./ILottery.sol\"; \r\n\r\ncontract Spendenpool{\r\n    //variables \r\n    address public charyteam; \r\n    address[] public donators; //payable not neccessary within address? \r\n    address[] public voters; //temporary to chekc if working\r\n    address payable[] public projects; //struct projects with address and id? \r\n    address public votingcontract; \r\n    address public lotterycontract; \r\n    address payable public lotterywinner; \r\n    uint donations; \r\n    bool donationsopen = true; \r\n    uint public startTime = block.timestamp;\r\n\r\n    \r\n\r\n    //constructor \r\n    //deployer of contract = charyteam\r\n    //give relevant projects for this timeintervall with constructor \r\n    constructor () public {\r\n        charyteam = msg.sender; \r\n    }\r\n\r\n    //modifier\r\n    //1. donations are being collected = it can be voted, when not -> Lottery starts\r\n    modifier donationsclosed(){\r\n        require(donationsopen == false, \"Spenden werden nicht mehr gesammelt\"); \r\n        _; \r\n    }\r\n\r\n    //only charyteam can do something\r\n    modifier onlyCharyteam(){\r\n        require(msg.sender == charyteam, \"only CharyTeam can call this function\"); \r\n        _;\r\n    }\r\n\r\n    //events to the frontend \r\n    //event Donator donated (adrdess, uint amount); \r\n\r\n\r\n    //functions \r\n    //initiate Voting, should be immediatley because voting runs parallel to donations \r\n    function initiateVoting(address _votingAddress) external {\r\n        //initiate voting with this address\r\n        votingcontract = _votingAddress; \r\n    }\r\n\r\n    function initiateLottery(address _lotteryContract) external {\r\n        lotterycontract = _lotteryContract; \r\n    }\r\n    //donations of donators \r\n    function donate() payable public {\r\n        //minimum value? \r\n        require(msg.value >= 0.1 ether, \"Invest minimum of 0.1 ether\");\r\n        //keeping track of the Donators \r\n        donators.push(msg.sender); \r\n        sendCT(); \r\n        //emit event here \r\n    }\r\n\r\n\r\n    function updateVoting() public returns(address[] memory){\r\n        //update number of donators (or off-chain)? \r\n        IVoting v = IVoting(votingcontract); \r\n        voters = v.getVoters(); //wo speichern \r\n        return voters; \r\n    }\r\n\r\n    //getbalance \r\n    function getBalance() public view returns(uint) {\r\n        // everyone can see balance \r\n        return address(this).balance; \r\n    }\r\n\r\n    \r\n    //getbalance of CT in this contract, careful contract address changes when deploying!! \r\n    function getCTBalance() public view onlyCharyteam returns(uint) {\r\n        return IERC20(0xED4c5a8BDA0081CfaFA5B74bb5a0bd82A4CD2c09).balanceOf(address(this));\r\n    }\r\n    \r\n\r\n    //send charity token to donator after donation \r\n    function sendCT() payable public {\r\n        //require balance CT = 0 \r\n        uint tempCT = IERC20(0xED4c5a8BDA0081CfaFA5B74bb5a0bd82A4CD2c09).balanceOf(msg.sender);\r\n        require(tempCT == 0, \"sender already has a CT\"); \r\n        IERC20(0xED4c5a8BDA0081CfaFA5B74bb5a0bd82A4CD2c09).transfer(msg.sender, 1); \r\n    }\r\n\r\n\r\n    //after 3month close donations  \r\n    function closeDonations() public {\r\n        //if (donationsopen == true && block.timestamp >= startTime + 30 days) donationsopen = false; \r\n        donationsopen = false; \r\n    }\r\n\r\n    //get result of voting //after donations are closed\r\n    function votingresult() public returns (uint) {\r\n        IVoting v = IVoting(votingcontract); \r\n        return v.getVotingWinner(); \r\n    }\r\n\r\n    //gives donors in array to lottery contract and returns the random winner of the donors \r\n    function doLottery() payable public donationsclosed returns(address) {\r\n        ILottery l = ILottery(lotterycontract); \r\n        l.enterLottery(donators);\r\n        lotterywinner = payable(l.getWinner()); \r\n        return lotterywinner; \r\n        //initialize lottery contract \r\n        //send 10% of balance to lottery contract \r\n    }\r\n\r\n    function sendWinn() payable public donationsclosed onlyCharyteam {\r\n        uint thisamount = address(this).balance; \r\n        uint lotteryamount = thisamount / 100 * 10; \r\n        lotterywinner.transfer(lotteryamount); \r\n    }\r\n    function sendDonations() payable public donationsclosed onlyCharyteam {\r\n        uint thisamount = address(this).balance; \r\n        //get winner project address and send \r\n    }\r\n\r\n\r\n}",
  "sourcePath": "C:\\Users\\annet\\Documents\\TU BS\\Masterarbeit\\charychain\\contracts\\Donationspool.sol",
  "compiler": {
    "name": "solc",
    "version": "0.8.13+commit.abaa5c0e.Emscripten.clang"
  },
  "schemaVersion": "3.4.7",
  "updatedAt": "2022-05-30T08:13:33.546Z",
  "networkType": "ethereum",
  "devdoc": {
    "kind": "dev",
    "methods": {},
    "version": 1
  },
  "userdoc": {
    "kind": "user",
    "methods": {},
    "version": 1
  }
}