{
  "contractName": "Spendenpool",
  "abi": [
    {
      "inputs": [],
      "stateMutability": "nonpayable",
      "type": "constructor"
    },
    {
      "stateMutability": "payable",
      "type": "fallback",
      "payable": true
    },
    {
      "inputs": [],
      "name": "charyteam",
      "outputs": [
        {
          "internalType": "address",
          "name": "",
          "type": "address"
        }
      ],
      "stateMutability": "view",
      "type": "function",
      "constant": true
    },
    {
      "inputs": [],
      "name": "ctcontract",
      "outputs": [
        {
          "internalType": "address",
          "name": "",
          "type": "address"
        }
      ],
      "stateMutability": "view",
      "type": "function",
      "constant": true
    },
    {
      "inputs": [
        {
          "internalType": "uint256",
          "name": "",
          "type": "uint256"
        }
      ],
      "name": "donators",
      "outputs": [
        {
          "internalType": "address",
          "name": "",
          "type": "address"
        }
      ],
      "stateMutability": "view",
      "type": "function",
      "constant": true
    },
    {
      "inputs": [],
      "name": "lotterycontract",
      "outputs": [
        {
          "internalType": "address",
          "name": "",
          "type": "address"
        }
      ],
      "stateMutability": "view",
      "type": "function",
      "constant": true
    },
    {
      "inputs": [],
      "name": "lotterymoney",
      "outputs": [
        {
          "internalType": "uint256",
          "name": "",
          "type": "uint256"
        }
      ],
      "stateMutability": "view",
      "type": "function",
      "constant": true
    },
    {
      "inputs": [],
      "name": "lotterywinner",
      "outputs": [
        {
          "internalType": "address payable",
          "name": "",
          "type": "address"
        }
      ],
      "stateMutability": "view",
      "type": "function",
      "constant": true
    },
    {
      "inputs": [
        {
          "internalType": "uint256",
          "name": "",
          "type": "uint256"
        }
      ],
      "name": "projects",
      "outputs": [
        {
          "internalType": "address payable",
          "name": "",
          "type": "address"
        }
      ],
      "stateMutability": "view",
      "type": "function",
      "constant": true
    },
    {
      "inputs": [],
      "name": "startTime",
      "outputs": [
        {
          "internalType": "uint256",
          "name": "",
          "type": "uint256"
        }
      ],
      "stateMutability": "view",
      "type": "function",
      "constant": true
    },
    {
      "inputs": [
        {
          "internalType": "uint256",
          "name": "",
          "type": "uint256"
        }
      ],
      "name": "voters",
      "outputs": [
        {
          "internalType": "address",
          "name": "",
          "type": "address"
        }
      ],
      "stateMutability": "view",
      "type": "function",
      "constant": true
    },
    {
      "inputs": [],
      "name": "votingcontract",
      "outputs": [
        {
          "internalType": "address",
          "name": "",
          "type": "address"
        }
      ],
      "stateMutability": "view",
      "type": "function",
      "constant": true
    },
    {
      "inputs": [
        {
          "internalType": "address",
          "name": "_votingAddress",
          "type": "address"
        }
      ],
      "name": "initiateVoting",
      "outputs": [],
      "stateMutability": "nonpayable",
      "type": "function"
    },
    {
      "inputs": [
        {
          "internalType": "address",
          "name": "_lotteryContract",
          "type": "address"
        }
      ],
      "name": "initiateLottery",
      "outputs": [],
      "stateMutability": "nonpayable",
      "type": "function"
    },
    {
      "inputs": [
        {
          "internalType": "address",
          "name": "_CTContract",
          "type": "address"
        }
      ],
      "name": "setCTaddress",
      "outputs": [],
      "stateMutability": "nonpayable",
      "type": "function"
    },
    {
      "inputs": [],
      "name": "donate",
      "outputs": [],
      "stateMutability": "payable",
      "type": "function",
      "payable": true
    },
    {
      "inputs": [],
      "name": "updateVoting",
      "outputs": [
        {
          "internalType": "address[]",
          "name": "",
          "type": "address[]"
        }
      ],
      "stateMutability": "nonpayable",
      "type": "function"
    },
    {
      "inputs": [],
      "name": "getBalance",
      "outputs": [
        {
          "internalType": "uint256",
          "name": "",
          "type": "uint256"
        }
      ],
      "stateMutability": "view",
      "type": "function",
      "constant": true
    },
    {
      "inputs": [],
      "name": "getCTBalance",
      "outputs": [
        {
          "internalType": "uint256",
          "name": "",
          "type": "uint256"
        }
      ],
      "stateMutability": "view",
      "type": "function",
      "constant": true
    },
    {
      "inputs": [],
      "name": "sendCT",
      "outputs": [],
      "stateMutability": "payable",
      "type": "function",
      "payable": true
    },
    {
      "inputs": [],
      "name": "closeDonations",
      "outputs": [],
      "stateMutability": "nonpayable",
      "type": "function"
    },
    {
      "inputs": [],
      "name": "votingresult",
      "outputs": [
        {
          "internalType": "uint256",
          "name": "",
          "type": "uint256"
        }
      ],
      "stateMutability": "nonpayable",
      "type": "function"
    },
    {
      "inputs": [],
      "name": "startLottery",
      "outputs": [],
      "stateMutability": "nonpayable",
      "type": "function"
    },
    {
      "inputs": [],
      "name": "doLottery",
      "outputs": [
        {
          "internalType": "address",
          "name": "",
          "type": "address"
        }
      ],
      "stateMutability": "payable",
      "type": "function",
      "payable": true
    },
    {
      "inputs": [],
      "name": "sendWinn",
      "outputs": [],
      "stateMutability": "payable",
      "type": "function",
      "payable": true
    },
    {
      "inputs": [],
      "name": "sendDonations",
      "outputs": [],
      "stateMutability": "payable",
      "type": "function",
      "payable": true
    }
  ],
  "bytecode": "0x60806040526001600960006101000a81548160ff02191690831515021790555042600a5534801561002f57600080fd5b50336000806101000a81548173ffffffffffffffffffffffffffffffffffffffff021916908373ffffffffffffffffffffffffffffffffffffffff160217905550611b458061007f6000396000f3fe60806040526004361061014f5760003560e01c806386e899a2116100b6578063c236b4c31161006f578063c236b4c314610401578063cad65b701461042c578063d1286e6514610436578063da58c7d914610461578063ed88c68e1461049e578063f696cd24146104a857610150565b806386e899a2146103035780638d6a8b801461032e57806399e7f8c2146103595780639e99298714610370578063ac62f56614610399578063acc9c6b4146103d657610150565b806354235142116101085780635423514214610252578063583fa3a81461027d5780635bc036c41461029b57806378e97925146102a55780637c4444ff146102d057806382caff48146102da57610150565b806309548f3614610152578063107046bd1461017d57806312065fe0146101ba578063160344e2146101e55780632e708fa8146101fc5780632fd402671461022757610150565b5b005b34801561015e57600080fd5b506101676104d1565b60405161017491906111b9565b60405180910390f35b34801561018957600080fd5b506101a4600480360381019061019f9190611214565b6104d7565b6040516101b19190611282565b60405180910390f35b3480156101c657600080fd5b506101cf610516565b6040516101dc91906111b9565b60405180910390f35b3480156101f157600080fd5b506101fa61051e565b005b34801561020857600080fd5b506102116105c6565b60405161021e91906112be565b60405180910390f35b34801561023357600080fd5b5061023c6105ec565b60405161024991906112be565b60405180910390f35b34801561025e57600080fd5b50610267610612565b60405161027491906111b9565b60405180910390f35b610285610744565b60405161029291906112be565b60405180910390f35b6102a361089c565b005b3480156102b157600080fd5b506102ba610a12565b6040516102c791906111b9565b60405180910390f35b6102d8610a18565b005b3480156102e657600080fd5b5061030160048036038101906102fc9190611305565b610ba0565b005b34801561030f57600080fd5b50610318610be4565b60405161032591906111b9565b60405180910390f35b34801561033a57600080fd5b50610343610c83565b60405161035091906112be565b60405180910390f35b34801561036557600080fd5b5061036e610ca9565b005b34801561037c57600080fd5b5061039760048036038101906103929190611305565b610cc6565b005b3480156103a557600080fd5b506103c060048036038101906103bb9190611214565b610d0a565b6040516103cd91906112be565b60405180910390f35b3480156103e257600080fd5b506103eb610d49565b6040516103f891906113f0565b60405180910390f35b34801561040d57600080fd5b50610416610e8b565b6040516104239190611282565b60405180910390f35b610434610eb1565b005b34801561044257600080fd5b5061044b610f9d565b60405161045891906112be565b60405180910390f35b34801561046d57600080fd5b5061048860048036038101906104839190611214565b610fc1565b60405161049591906112be565b60405180910390f35b6104a6611000565b005b3480156104b457600080fd5b506104cf60048036038101906104ca9190611305565b6110b5565b005b600b5481565b600381815481106104e757600080fd5b906000526020600020016000915054906101000a900473ffffffffffffffffffffffffffffffffffffffff1681565b600047905090565b6000600560009054906101000a900473ffffffffffffffffffffffffffffffffffffffff1690508073ffffffffffffffffffffffffffffffffffffffff1663c129800d60016040518263ffffffff1660e01b815260040161057f91906114fe565b6020604051808303816000875af115801561059e573d6000803e3d6000fd5b505050506040513d601f19601f820116820180604052508101906105c29190611558565b5050565b600460009054906101000a900473ffffffffffffffffffffffffffffffffffffffff1681565b600660009054906101000a900473ffffffffffffffffffffffffffffffffffffffff1681565b60008060009054906101000a900473ffffffffffffffffffffffffffffffffffffffff1673ffffffffffffffffffffffffffffffffffffffff163373ffffffffffffffffffffffffffffffffffffffff16146106a3576040517f08c379a000000000000000000000000000000000000000000000000000000000815260040161069a90611608565b60405180910390fd5b600660009054906101000a900473ffffffffffffffffffffffffffffffffffffffff1673ffffffffffffffffffffffffffffffffffffffff166370a08231306040518263ffffffff1660e01b81526004016106fe91906112be565b602060405180830381865afa15801561071b573d6000803e3d6000fd5b505050506040513d601f19601f8201168201806040525081019061073f919061163d565b905090565b6000801515600960009054906101000a900460ff1615151461079b576040517f08c379a0000000000000000000000000000000000000000000000000000000008152600401610792906116dc565b60405180910390fd5b6000600560009054906101000a900473ffffffffffffffffffffffffffffffffffffffff1690508073ffffffffffffffffffffffffffffffffffffffff16638e7ea5b26040518163ffffffff1660e01b81526004016020604051808303816000875af115801561080f573d6000803e3d6000fd5b505050506040513d601f19601f820116820180604052508101906108339190611711565b600760006101000a81548173ffffffffffffffffffffffffffffffffffffffff021916908373ffffffffffffffffffffffffffffffffffffffff160217905550600760009054906101000a900473ffffffffffffffffffffffffffffffffffffffff1691505090565b60001515600960009054906101000a900460ff161515146108f2576040517f08c379a00000000000000000000000000000000000000000000000000000000081526004016108e9906116dc565b60405180910390fd5b60008054906101000a900473ffffffffffffffffffffffffffffffffffffffff1673ffffffffffffffffffffffffffffffffffffffff163373ffffffffffffffffffffffffffffffffffffffff1614610980576040517f08c379a000000000000000000000000000000000000000000000000000000000815260040161097790611608565b60405180910390fd5b6000479050600a606482610994919061179c565b61099e91906117cd565b600b81905550600760009054906101000a900473ffffffffffffffffffffffffffffffffffffffff1673ffffffffffffffffffffffffffffffffffffffff166108fc600b549081150290604051600060405180830381858888f19350505050158015610a0e573d6000803e3d6000fd5b5050565b600a5481565b6000600660009054906101000a900473ffffffffffffffffffffffffffffffffffffffff1673ffffffffffffffffffffffffffffffffffffffff166370a08231336040518263ffffffff1660e01b8152600401610a7591906112be565b602060405180830381865afa158015610a92573d6000803e3d6000fd5b505050506040513d601f19601f82011682018060405250810190610ab6919061163d565b905060008114610afb576040517f08c379a0000000000000000000000000000000000000000000000000000000008152600401610af290611873565b60405180910390fd5b600660009054906101000a900473ffffffffffffffffffffffffffffffffffffffff1673ffffffffffffffffffffffffffffffffffffffff1663a9059cbb3360016040518363ffffffff1660e01b8152600401610b599291906118d8565b6020604051808303816000875af1158015610b78573d6000803e3d6000fd5b505050506040513d601f19601f82011682018060405250810190610b9c9190611558565b5050565b80600460006101000a81548173ffffffffffffffffffffffffffffffffffffffff021916908373ffffffffffffffffffffffffffffffffffffffff16021790555050565b600080600460009054906101000a900473ffffffffffffffffffffffffffffffffffffffff1690508073ffffffffffffffffffffffffffffffffffffffff166394bec0716040518163ffffffff1660e01b81526004016020604051808303816000875af1158015610c59573d6000803e3d6000fd5b505050506040513d601f19601f82011682018060405250810190610c7d919061163d565b91505090565b600560009054906101000a900473ffffffffffffffffffffffffffffffffffffffff1681565b6000600960006101000a81548160ff021916908315150217905550565b80600560006101000a81548173ffffffffffffffffffffffffffffffffffffffff021916908373ffffffffffffffffffffffffffffffffffffffff16021790555050565b60018181548110610d1a57600080fd5b906000526020600020016000915054906101000a900473ffffffffffffffffffffffffffffffffffffffff1681565b60606000600460009054906101000a900473ffffffffffffffffffffffffffffffffffffffff1690508073ffffffffffffffffffffffffffffffffffffffff1663cdd722536040518163ffffffff1660e01b81526004016000604051808303816000875af1158015610dbf573d6000803e3d6000fd5b505050506040513d6000823e3d601f19601f82011682018060405250810190610de89190611a5a565b60029080519060200190610dfd9291906110f9565b506002805480602002602001604051908101604052809291908181526020018280548015610e8057602002820191906000526020600020905b8160009054906101000a900473ffffffffffffffffffffffffffffffffffffffff1673ffffffffffffffffffffffffffffffffffffffff1681526020019060010190808311610e36575b505050505091505090565b600760009054906101000a900473ffffffffffffffffffffffffffffffffffffffff1681565b60001515600960009054906101000a900460ff16151514610f07576040517f08c379a0000000000000000000000000000000000000000000000000000000008152600401610efe906116dc565b60405180910390fd5b60008054906101000a900473ffffffffffffffffffffffffffffffffffffffff1673ffffffffffffffffffffffffffffffffffffffff163373ffffffffffffffffffffffffffffffffffffffff1614610f95576040517f08c379a0000000000000000000000000000000000000000000000000000000008152600401610f8c90611608565b60405180910390fd5b600047905050565b60008054906101000a900473ffffffffffffffffffffffffffffffffffffffff1681565b60028181548110610fd157600080fd5b906000526020600020016000915054906101000a900473ffffffffffffffffffffffffffffffffffffffff1681565b6402540be400341015611048576040517f08c379a000000000000000000000000000000000000000000000000000000000815260040161103f90611aef565b60405180910390fd5b6001339080600181540180825580915050600190039060005260206000200160009091909190916101000a81548173ffffffffffffffffffffffffffffffffffffffff021916908373ffffffffffffffffffffffffffffffffffffffff1602179055506110b3610a18565b565b80600660006101000a81548173ffffffffffffffffffffffffffffffffffffffff021916908373ffffffffffffffffffffffffffffffffffffffff16021790555050565b828054828255906000526020600020908101928215611172579160200282015b828111156111715782518260006101000a81548173ffffffffffffffffffffffffffffffffffffffff021916908373ffffffffffffffffffffffffffffffffffffffff16021790555091602001919060010190611119565b5b50905061117f9190611183565b5090565b5b8082111561119c576000816000905550600101611184565b5090565b6000819050919050565b6111b3816111a0565b82525050565b60006020820190506111ce60008301846111aa565b92915050565b6000604051905090565b600080fd5b600080fd5b6111f1816111a0565b81146111fc57600080fd5b50565b60008135905061120e816111e8565b92915050565b60006020828403121561122a576112296111de565b5b6000611238848285016111ff565b91505092915050565b600073ffffffffffffffffffffffffffffffffffffffff82169050919050565b600061126c82611241565b9050919050565b61127c81611261565b82525050565b60006020820190506112976000830184611273565b92915050565b60006112a882611241565b9050919050565b6112b88161129d565b82525050565b60006020820190506112d360008301846112af565b92915050565b6112e28161129d565b81146112ed57600080fd5b50565b6000813590506112ff816112d9565b92915050565b60006020828403121561131b5761131a6111de565b5b6000611329848285016112f0565b91505092915050565b600081519050919050565b600082825260208201905092915050565b6000819050602082019050919050565b6113678161129d565b82525050565b6000611379838361135e565b60208301905092915050565b6000602082019050919050565b600061139d82611332565b6113a7818561133d565b93506113b28361134e565b8060005b838110156113e35781516113ca888261136d565b97506113d583611385565b9250506001810190506113b6565b5085935050505092915050565b6000602082019050818103600083015261140a8184611392565b905092915050565b600081549050919050565b60008190508160005260206000209050919050565b60008160001c9050919050565b600073ffffffffffffffffffffffffffffffffffffffff82169050919050565b600061147261146d83611432565b61143f565b9050919050565b6000611485825461145f565b9050919050565b6000600182019050919050565b60006114a482611412565b6114ae818561133d565b93506114b98361141d565b8060005b838110156114f1576114ce82611479565b6114d8888261136d565b97506114e38361148c565b9250506001810190506114bd565b5085935050505092915050565b600060208201905081810360008301526115188184611499565b905092915050565b60008115159050919050565b61153581611520565b811461154057600080fd5b50565b6000815190506115528161152c565b92915050565b60006020828403121561156e5761156d6111de565b5b600061157c84828501611543565b91505092915050565b600082825260208201905092915050565b7f6f6e6c792043686172795465616d2063616e2063616c6c20746869732066756e60008201527f6374696f6e000000000000000000000000000000000000000000000000000000602082015250565b60006115f2602583611585565b91506115fd82611596565b604082019050919050565b60006020820190508181036000830152611621816115e5565b9050919050565b600081519050611637816111e8565b92915050565b600060208284031215611653576116526111de565b5b600061166184828501611628565b91505092915050565b7f5370656e64656e2077657264656e206e69636874206d65687220676573616d6d60008201527f656c740000000000000000000000000000000000000000000000000000000000602082015250565b60006116c6602383611585565b91506116d18261166a565b604082019050919050565b600060208201905081810360008301526116f5816116b9565b9050919050565b60008151905061170b816112d9565b92915050565b600060208284031215611727576117266111de565b5b6000611735848285016116fc565b91505092915050565b7f4e487b7100000000000000000000000000000000000000000000000000000000600052601260045260246000fd5b7f4e487b7100000000000000000000000000000000000000000000000000000000600052601160045260246000fd5b60006117a7826111a0565b91506117b2836111a0565b9250826117c2576117c161173e565b5b828204905092915050565b60006117d8826111a0565b91506117e3836111a0565b9250817fffffffffffffffffffffffffffffffffffffffffffffffffffffffffffffffff048311821515161561181c5761181b61176d565b5b828202905092915050565b7f73656e64657220616c7265616479206861732061204354000000000000000000600082015250565b600061185d601783611585565b915061186882611827565b602082019050919050565b6000602082019050818103600083015261188c81611850565b9050919050565b6000819050919050565b6000819050919050565b60006118c26118bd6118b884611893565b61189d565b6111a0565b9050919050565b6118d2816118a7565b82525050565b60006040820190506118ed60008301856112af565b6118fa60208301846118c9565b9392505050565b600080fd5b6000601f19601f8301169050919050565b7f4e487b7100000000000000000000000000000000000000000000000000000000600052604160045260246000fd5b61194f82611906565b810181811067ffffffffffffffff8211171561196e5761196d611917565b5b80604052505050565b60006119816111d4565b905061198d8282611946565b919050565b600067ffffffffffffffff8211156119ad576119ac611917565b5b602082029050602081019050919050565b600080fd5b60006119d66119d184611992565b611977565b905080838252602082019050602084028301858111156119f9576119f86119be565b5b835b81811015611a225780611a0e88826116fc565b8452602084019350506020810190506119fb565b5050509392505050565b600082601f830112611a4157611a40611901565b5b8151611a518482602086016119c3565b91505092915050565b600060208284031215611a7057611a6f6111de565b5b600082015167ffffffffffffffff811115611a8e57611a8d6111e3565b5b611a9a84828501611a2c565b91505092915050565b7f496e76657374206d696e696d756d206f6620302e312065746865720000000000600082015250565b6000611ad9601b83611585565b9150611ae482611aa3565b602082019050919050565b60006020820190508181036000830152611b0881611acc565b905091905056fea2646970667358221220cb01fc82935d25095886f16db2f80bdee9e9e0694335303c672f0fecab6192c064736f6c634300080d0033",
  "immutableReferences": {},
  "source": "// SPDX-License-Identifier: MIT\r\npragma solidity = 0.8.13; \r\n\r\nimport \"@openzeppelin/contracts/token/ERC20/IERC20.sol\";\r\nimport \"@openzeppelin/contracts/token/ERC20/ERC20.sol\";\r\n\r\nimport \"./IVoting.sol\"; \r\nimport \"./ILottery.sol\"; \r\n\r\ncontract Spendenpool{\r\n    //variables \r\n    address public charyteam; \r\n    address[] public donators; //payable not neccessary within address? \r\n    address[] public voters; //temporary to chekc if working\r\n    address payable[] public projects; //struct projects with address and id? \r\n    address public votingcontract; \r\n    address public lotterycontract; \r\n    address public ctcontract; \r\n    address payable public lotterywinner; \r\n    uint donations; \r\n    bool donationsopen = true; \r\n    uint public startTime = block.timestamp;\r\n    uint public lotterymoney; \r\n\r\n    \r\n\r\n    //constructor \r\n    //deployer of contract = charyteam\r\n    //give relevant projects for this timeintervall with constructor \r\n    constructor () public {\r\n        charyteam = msg.sender; \r\n    }\r\n\r\n    //modifier\r\n    //1. donations are being collected = it can be voted, when not -> Lottery starts\r\n    modifier donationsclosed(){\r\n        require(donationsopen == false, \"Spenden werden nicht mehr gesammelt\"); \r\n        _; \r\n    }\r\n\r\n    //only charyteam can do something\r\n    modifier onlyCharyteam(){\r\n        require(msg.sender == charyteam, \"only CharyTeam can call this function\"); \r\n        _;\r\n    }\r\n\r\n    //events to the frontend \r\n    //event Donator donated (adrdess, uint amount); \r\n\r\n\r\n    //functions \r\n    //initiate Voting, should be immediatley because voting runs parallel to donations \r\n    function initiateVoting(address _votingAddress) external {\r\n        //initiate voting with this address\r\n        votingcontract = _votingAddress; \r\n    }\r\n\r\n    function initiateLottery(address _lotteryContract) external {\r\n        lotterycontract = _lotteryContract; \r\n    }\r\n    function setCTaddress(address _CTContract) external {\r\n        ctcontract = _CTContract; \r\n    }\r\n    //donations of donators \r\n    function donate() external payable {\r\n        //minimum value? \r\n        require(msg.value >= 0.00000001 ether, \"Invest minimum of 0.1 ether\");\r\n        //keeping track of the Donators \r\n        donators.push(msg.sender); \r\n        sendCT(); \r\n        //emit event here \r\n    }\r\n\r\n\r\n    function updateVoting() public returns(address[] memory){\r\n        //update number of donators (or off-chain)? \r\n        IVoting v = IVoting(votingcontract); \r\n        voters = v.getVoters(); //wo speichern \r\n        return voters; \r\n    }\r\n\r\n    //getbalance \r\n    function getBalance() public view returns(uint) {\r\n        // everyone can see balance \r\n        return address(this).balance; \r\n    }\r\n\r\n    \r\n    //getbalance of CT in this contract, careful contract address changes when deploying!! \r\n    function getCTBalance() public view onlyCharyteam returns(uint) {\r\n        return IERC20(ctcontract).balanceOf(address(this));\r\n    }\r\n    \r\n\r\n    //send charity token to donator after donation \r\n    function sendCT() payable public {\r\n        //require balance CT = 0 \r\n        uint tempCT = IERC20(ctcontract).balanceOf(msg.sender);\r\n        require(tempCT == 0, \"sender already has a CT\"); \r\n        IERC20(ctcontract).transfer(msg.sender, 1); \r\n    }\r\n\r\n\r\n    //after 3month close donations  \r\n    function closeDonations() public {\r\n        //if (donationsopen == true && block.timestamp >= startTime + 30 days) donationsopen = false; \r\n        donationsopen = false; \r\n    }\r\n\r\n    //get result of voting //after donations are closed\r\n    function votingresult() public returns (uint) {\r\n        IVoting v = IVoting(votingcontract); \r\n        return v.getVotingWinner(); \r\n    }\r\n\r\n    function startLottery() public {\r\n        ILottery l = ILottery(lotterycontract); \r\n        l.enterLottery(donators);\r\n    }\r\n\r\n    //gives donors in array to lottery contract and returns the random winner of the donors \r\n    function doLottery() payable public donationsclosed returns(address) {\r\n        ILottery l = ILottery(lotterycontract); \r\n        //l.enterLottery(donators);\r\n        lotterywinner = payable(l.getWinner()); \r\n        return lotterywinner; \r\n        //initialize lottery contract \r\n        //send 10% of balance to lottery contract \r\n    }\r\n\r\n    function sendWinn() payable public donationsclosed onlyCharyteam  {\r\n        uint thisamount = address(this).balance; \r\n        lotterymoney = thisamount / 100 * 10; \r\n        lotterywinner.transfer(lotterymoney); \r\n    }\r\n    function sendDonations() payable public donationsclosed onlyCharyteam {\r\n        uint thisamount = address(this).balance; \r\n        //get winner project address and send \r\n    }\r\n    fallback() external payable{\r\n    }\r\n\r\n}",
  "sourcePath": "C:\\Users\\annet\\Documents\\TU BS\\Masterarbeit\\Charychaintest\\contracts\\donationspool.sol",
  "compiler": {
    "name": "solc",
    "version": "0.8.13+commit.abaa5c0e.Emscripten.clang"
  },
  "schemaVersion": "3.4.7",
  "updatedAt": "2022-06-04T12:41:48.100Z",
  "networkType": "ethereum",
  "devdoc": {
    "kind": "dev",
    "methods": {},
    "version": 1
  },
  "userdoc": {
    "kind": "user",
    "methods": {},
    "version": 1
  }
}