{
  "contractName": "Voting",
  "abi": [
    {
      "inputs": [],
      "stateMutability": "nonpayable",
      "type": "constructor"
    },
    {
      "inputs": [
        {
          "internalType": "uint256",
          "name": "",
          "type": "uint256"
        }
      ],
      "name": "donators",
      "outputs": [
        {
          "internalType": "address",
          "name": "",
          "type": "address"
        }
      ],
      "stateMutability": "view",
      "type": "function",
      "constant": true
    },
    {
      "inputs": [
        {
          "internalType": "uint256",
          "name": "",
          "type": "uint256"
        }
      ],
      "name": "projectids",
      "outputs": [
        {
          "internalType": "uint256",
          "name": "",
          "type": "uint256"
        }
      ],
      "stateMutability": "view",
      "type": "function",
      "constant": true
    },
    {
      "inputs": [
        {
          "internalType": "uint256",
          "name": "",
          "type": "uint256"
        }
      ],
      "name": "votesofprojects",
      "outputs": [
        {
          "internalType": "uint256",
          "name": "",
          "type": "uint256"
        }
      ],
      "stateMutability": "view",
      "type": "function",
      "constant": true
    },
    {
      "inputs": [
        {
          "internalType": "uint256[]",
          "name": "_projectids",
          "type": "uint256[]"
        }
      ],
      "name": "setProjectIds",
      "outputs": [
        {
          "internalType": "bool",
          "name": "",
          "type": "bool"
        }
      ],
      "stateMutability": "nonpayable",
      "type": "function"
    },
    {
      "inputs": [],
      "name": "emptyBallot",
      "outputs": [],
      "stateMutability": "nonpayable",
      "type": "function"
    },
    {
      "inputs": [
        {
          "internalType": "uint256",
          "name": "_idProject",
          "type": "uint256"
        }
      ],
      "name": "receiveVote",
      "outputs": [],
      "stateMutability": "nonpayable",
      "type": "function"
    },
    {
      "inputs": [],
      "name": "getVoters",
      "outputs": [
        {
          "internalType": "address[]",
          "name": "",
          "type": "address[]"
        }
      ],
      "stateMutability": "nonpayable",
      "type": "function"
    },
    {
      "inputs": [
        {
          "internalType": "uint256",
          "name": "_idProject",
          "type": "uint256"
        }
      ],
      "name": "idcorrect",
      "outputs": [
        {
          "internalType": "bool",
          "name": "",
          "type": "bool"
        }
      ],
      "stateMutability": "nonpayable",
      "type": "function"
    },
    {
      "inputs": [
        {
          "internalType": "uint256",
          "name": "_idProject",
          "type": "uint256"
        }
      ],
      "name": "showcurrentVotes",
      "outputs": [
        {
          "internalType": "uint256",
          "name": "",
          "type": "uint256"
        }
      ],
      "stateMutability": "nonpayable",
      "type": "function"
    },
    {
      "inputs": [],
      "name": "returnVotingWinner",
      "outputs": [],
      "stateMutability": "nonpayable",
      "type": "function"
    },
    {
      "inputs": [],
      "name": "getVotingWinner",
      "outputs": [
        {
          "internalType": "uint256",
          "name": "",
          "type": "uint256"
        }
      ],
      "stateMutability": "nonpayable",
      "type": "function"
    }
  ],
  "bytecode": "0x608060405234801561001057600080fd5b50600060058190555060006001819055506000600281905550610e77806100386000396000f3fe608060405234801561001057600080fd5b50600436106100a95760003560e01c80639bfacba3116100715780639bfacba31461018c578063ac62f56614610196578063b7c6670e146101c6578063cdd72253146101e2578063e1af230614610200578063fa8e6d581461020a576100a9565b806324bcf0b3146100ae57806335875a56146100de578063552f6f681461010e578063564a59221461013e57806394bec0711461016e575b600080fd5b6100c860048036038101906100c39190610889565b61023a565b6040516100d591906108c5565b60405180910390f35b6100f860048036038101906100f39190610889565b610252565b60405161010591906108c5565b60405180910390f35b61012860048036038101906101239190610889565b610274565b60405161013591906108c5565b60405180910390f35b61015860048036038101906101539190610889565b610298565b60405161016591906108fb565b60405180910390f35b6101766102f6565b60405161018391906108c5565b60405180910390f35b610194610300565b005b6101b060048036038101906101ab9190610889565b6104a5565b6040516101bd9190610957565b60405180910390f35b6101e060048036038101906101db9190610889565b6104e4565b005b6101ea6106af565b6040516101f79190610a30565b60405180910390f35b61020861073d565b005b610224600480360381019061021f9190610bab565b6107a3565b60405161023191906108fb565b60405180910390f35b60046020528060005260406000206000915090505481565b6000806004600084815260200190815260200160002054905080915050919050565b6000818154811061028457600080fd5b906000526020600020016000915090505481565b600080600090505b6000805490508110156102ef57600081815481106102c1576102c0610bf4565b5b906000526020600020015483036102dc5760019150506102f1565b80806102e790610c52565b9150506102a0565b505b919050565b6000600754905090565b60008080549050905060008167ffffffffffffffff81111561032557610324610a68565b5b6040519080825280602002602001820160405280156103535781602001602082028036833780820191505090505b50905060008080600090505b6000805490508110156103db57600080828154811061038157610380610bf4565b5b90600052602060002001549050600060046000838152602001908152602001600020549050808684815181106103ba576103b9610bf4565b5b602002602001018181525050505080806103d390610c52565b91505061035f565b5060005b60008054905081101561042a57600084828151811061040157610400610bf4565b5b60200260200101519050808411610416578093505b50808061042290610c52565b9150506103df565b5060005b6000805490508110156104795760008482815181106104505761044f610bf4565b5b60200260200101519050808403610465578192505b50808061047190610c52565b91505061042e565b506000818154811061048e5761048d610bf4565b5b906000526020600020015460078190555050505050565b600381815481106104b557600080fd5b906000526020600020016000915054906101000a900473ffffffffffffffffffffffffffffffffffffffff1681565b600073ed4c5a8bda0081cfafa5b74bb5a0bd82a4cd2c0973ffffffffffffffffffffffffffffffffffffffff166370a08231336040518263ffffffff1660e01b81526004016105339190610957565b602060405180830381865afa158015610550573d6000803e3d6000fd5b505050506040513d601f19601f820116820180604052508101906105749190610caf565b9050600181146105b9576040517f08c379a00000000000000000000000000000000000000000000000000000000081526004016105b090610d5f565b60405180910390fd5b600115156105c683610298565b151514610608576040517f08c379a00000000000000000000000000000000000000000000000000000000081526004016105ff90610dcb565b60405180910390fd5b60006004600084815260200190815260200160002054905060018161062d9190610deb565b90508060046000858152602001908152602001600020819055506003339080600181540180825580915050600190039060005260206000200160009091909190916101000a81548173ffffffffffffffffffffffffffffffffffffffff021916908373ffffffffffffffffffffffffffffffffffffffff160217905550505050565b6060600380548060200260200160405190810160405280929190818152602001828054801561073357602002820191906000526020600020905b8160009054906101000a900473ffffffffffffffffffffffffffffffffffffffff1673ffffffffffffffffffffffffffffffffffffffff16815260200190600101908083116106e9575b5050505050905090565b600080600090505b60008054905081101561079f576000818154811061076657610765610bf4565b5b9060005260206000200154915060006004600084815260200190815260200160002081905550808061079790610c52565b915050610745565b5050565b600081600090805190602001906107bb9291906107d5565b5081516006819055506107cc61073d565b60019050919050565b828054828255906000526020600020908101928215610811579160200282015b828111156108105782518255916020019190600101906107f5565b5b50905061081e9190610822565b5090565b5b8082111561083b576000816000905550600101610823565b5090565b6000604051905090565b600080fd5b600080fd5b6000819050919050565b61086681610853565b811461087157600080fd5b50565b6000813590506108838161085d565b92915050565b60006020828403121561089f5761089e610849565b5b60006108ad84828501610874565b91505092915050565b6108bf81610853565b82525050565b60006020820190506108da60008301846108b6565b92915050565b60008115159050919050565b6108f5816108e0565b82525050565b600060208201905061091060008301846108ec565b92915050565b600073ffffffffffffffffffffffffffffffffffffffff82169050919050565b600061094182610916565b9050919050565b61095181610936565b82525050565b600060208201905061096c6000830184610948565b92915050565b600081519050919050565b600082825260208201905092915050565b6000819050602082019050919050565b6109a781610936565b82525050565b60006109b9838361099e565b60208301905092915050565b6000602082019050919050565b60006109dd82610972565b6109e7818561097d565b93506109f28361098e565b8060005b83811015610a23578151610a0a88826109ad565b9750610a15836109c5565b9250506001810190506109f6565b5085935050505092915050565b60006020820190508181036000830152610a4a81846109d2565b905092915050565b600080fd5b6000601f19601f8301169050919050565b7f4e487b7100000000000000000000000000000000000000000000000000000000600052604160045260246000fd5b610aa082610a57565b810181811067ffffffffffffffff82111715610abf57610abe610a68565b5b80604052505050565b6000610ad261083f565b9050610ade8282610a97565b919050565b600067ffffffffffffffff821115610afe57610afd610a68565b5b602082029050602081019050919050565b600080fd5b6000610b27610b2284610ae3565b610ac8565b90508083825260208201905060208402830185811115610b4a57610b49610b0f565b5b835b81811015610b735780610b5f8882610874565b845260208401935050602081019050610b4c565b5050509392505050565b600082601f830112610b9257610b91610a52565b5b8135610ba2848260208601610b14565b91505092915050565b600060208284031215610bc157610bc0610849565b5b600082013567ffffffffffffffff811115610bdf57610bde61084e565b5b610beb84828501610b7d565b91505092915050565b7f4e487b7100000000000000000000000000000000000000000000000000000000600052603260045260246000fd5b7f4e487b7100000000000000000000000000000000000000000000000000000000600052601160045260246000fd5b6000610c5d82610853565b91507fffffffffffffffffffffffffffffffffffffffffffffffffffffffffffffffff8203610c8f57610c8e610c23565b5b600182019050919050565b600081519050610ca98161085d565b92915050565b600060208284031215610cc557610cc4610849565b5b6000610cd384828501610c9a565b91505092915050565b600082825260208201905092915050565b7f646f6e61746f7220686173206e6f2043542c206e6f20766f74696e6720706f7360008201527f7369626c65000000000000000000000000000000000000000000000000000000602082015250565b6000610d49602583610cdc565b9150610d5482610ced565b604082019050919050565b60006020820190508181036000830152610d7881610d3c565b9050919050565b7f6964206e6f742076616c69640000000000000000000000000000000000000000600082015250565b6000610db5600c83610cdc565b9150610dc082610d7f565b602082019050919050565b60006020820190508181036000830152610de481610da8565b9050919050565b6000610df682610853565b9150610e0183610853565b9250827fffffffffffffffffffffffffffffffffffffffffffffffffffffffffffffffff03821115610e3657610e35610c23565b5b82820190509291505056fea264697066735822122012b5a6d753e4b6bc9bb55719f62bf3e460a76e51b561edae6d8684eb242ab66964736f6c634300080d0033",
  "immutableReferences": {},
  "source": "// SPDX-License-Identifier: MIT\r\npragma solidity = 0.8.13; \r\n\r\nimport \"@openzeppelin/contracts/token/ERC20/IERC20.sol\";\r\n\r\nimport \"./IVoting.sol\"; \r\n\r\n\r\ncontract Voting is IVoting{\r\n    //variables \r\n    uint[] public projectids; //could also be accounts? \r\n    uint numberofdonators; \r\n    uint countervoters; \r\n    address[] public donators;\r\n    mapping(uint => uint) public votesofprojects; \r\n    uint currentCTBalance; \r\n    uint numberofprojects; \r\n    uint winnerproject; \r\n\r\n    //projectid for vote must be within projects \r\n    \r\n\r\n    //constructor with donationspool\r\n    constructor () { \r\n        currentCTBalance = 0; \r\n        numberofdonators = 0; \r\n        countervoters = 0; \r\n    }\r\n\r\n   \r\n    function setProjectIds(uint[] memory _projectids) external returns(bool){\r\n        projectids = _projectids; \r\n        numberofprojects = _projectids.length; \r\n        emptyBallot();\r\n        return true; \r\n    }\r\n   \r\n    //reminder: ask for key to get value! \r\n    //puts ids as keys with initial value into mapping \r\n    function emptyBallot() public {\r\n        uint temprojectid; \r\n        for (uint i=0; i<projectids.length; i++){\r\n            temprojectid = projectids[i]; \r\n            votesofprojects[temprojectid] = 0; \r\n        }\r\n    }\r\n\r\n\r\n    function receiveVote(uint _idProject) public {\r\n        uint tempCTbalance = IERC20(0xED4c5a8BDA0081CfaFA5B74bb5a0bd82A4CD2c09).balanceOf(msg.sender); \r\n        require (tempCTbalance == 1, \"donator has no CT, no voting possible\"); \r\n        require (idcorrect(_idProject) == true, \"id not valid\"); \r\n        uint tempVote = votesofprojects[_idProject]; \r\n        tempVote = tempVote + 1; \r\n        votesofprojects[_idProject] = tempVote;\r\n        //burn CT of sender or transferFrom since its interface?\r\n        //IERC20(0xD7ACd2a9FD159E69Bb102A1ca21C9a3e3A5F771B).transferFrom(msg.sender, address(this),1);\r\n        donators.push(msg.sender); \r\n\r\n        //send donators address to donations pool and transfer CT back to Spendenpool? \r\n        //currentCTBalance = IERC20(0xD7ACd2a9FD159E69Bb102A1ca21C9a3e3A5F771B).balanceOf(address(this)); \r\n    }\r\n\r\n    //function to get the updated voters? \r\n    function getVoters() external returns(address[] memory){\r\n        return donators; \r\n    }\r\n\r\n    function idcorrect(uint _idProject) public returns(bool) {\r\n        for (uint i=0; i<projectids.length; i++){\r\n            if (_idProject == projectids[i]) return true; \r\n        }\r\n    }\r\n\r\n    function showcurrentVotes(uint _idProject) external returns(uint) {\r\n        uint currentVote; \r\n        currentVote = votesofprojects[_idProject]; \r\n        return currentVote; \r\n    }\r\n    //cant iterate trough mapping -> first get votes in array, get highest vote with id, get project id \r\n    function returnVotingWinner() public{\r\n        uint tempArraySize = projectids.length; \r\n        uint[] memory VotesArray = new uint[](tempArraySize);\r\n        uint mostVotes = 0; \r\n        uint idofproject; \r\n        for (uint i=0; i<projectids.length; i++){\r\n            uint tempKey = projectids[i]; \r\n            uint tempKeyVote = votesofprojects[tempKey]; \r\n            VotesArray[i] = tempKeyVote; \r\n        }\r\n        for (uint i=0; i<projectids.length; i++){\r\n            uint tempVote = VotesArray[i]; \r\n            if (mostVotes <= tempVote) mostVotes = tempVote; //what to do if same vote? \r\n        }\r\n        for (uint i=0; i<projectids.length; i++){\r\n            uint tempVote = VotesArray[i]; \r\n            if (mostVotes == tempVote) idofproject = i; \r\n        }\r\n        winnerproject = projectids[idofproject]; \r\n    }\r\n\r\n    function getVotingWinner() external returns(uint){\r\n        return winnerproject; \r\n    }\r\n    //give voting to donationspool? Callbackfuntion? \r\n\r\n}",
  "sourcePath": "C:\\Users\\annet\\Documents\\TU BS\\Masterarbeit\\charychain\\contracts\\Voting.sol",
  "compiler": {
    "name": "solc",
    "version": "0.8.13+commit.abaa5c0e.Emscripten.clang"
  },
  "schemaVersion": "3.4.7",
  "updatedAt": "2022-05-30T08:13:33.577Z",
  "networkType": "ethereum",
  "devdoc": {
    "kind": "dev",
    "methods": {},
    "version": 1
  },
  "userdoc": {
    "kind": "user",
    "methods": {},
    "version": 1
  }
}