{
  "contractName": "Voting",
  "abi": [
    {
      "inputs": [],
      "stateMutability": "nonpayable",
      "type": "constructor"
    },
    {
      "inputs": [
        {
          "internalType": "uint256",
          "name": "",
          "type": "uint256"
        }
      ],
      "name": "donators",
      "outputs": [
        {
          "internalType": "address",
          "name": "",
          "type": "address"
        }
      ],
      "stateMutability": "view",
      "type": "function",
      "constant": true
    },
    {
      "inputs": [
        {
          "internalType": "uint256",
          "name": "",
          "type": "uint256"
        }
      ],
      "name": "projectids",
      "outputs": [
        {
          "internalType": "uint256",
          "name": "",
          "type": "uint256"
        }
      ],
      "stateMutability": "view",
      "type": "function",
      "constant": true
    },
    {
      "inputs": [
        {
          "internalType": "uint256",
          "name": "",
          "type": "uint256"
        }
      ],
      "name": "votesofprojects",
      "outputs": [
        {
          "internalType": "uint256",
          "name": "",
          "type": "uint256"
        }
      ],
      "stateMutability": "view",
      "type": "function",
      "constant": true
    },
    {
      "inputs": [
        {
          "internalType": "uint256[]",
          "name": "_projectids",
          "type": "uint256[]"
        }
      ],
      "name": "setProjectIds",
      "outputs": [
        {
          "internalType": "bool",
          "name": "",
          "type": "bool"
        }
      ],
      "stateMutability": "nonpayable",
      "type": "function"
    },
    {
      "inputs": [],
      "name": "emptyBallot",
      "outputs": [],
      "stateMutability": "nonpayable",
      "type": "function"
    },
    {
      "inputs": [
        {
          "internalType": "uint256",
          "name": "_idProject",
          "type": "uint256"
        },
        {
          "internalType": "address",
          "name": "voter",
          "type": "address"
        }
      ],
      "name": "doVote",
      "outputs": [
        {
          "internalType": "bool",
          "name": "",
          "type": "bool"
        }
      ],
      "stateMutability": "nonpayable",
      "type": "function"
    },
    {
      "inputs": [
        {
          "internalType": "uint256",
          "name": "_idProject",
          "type": "uint256"
        }
      ],
      "name": "receiveVote",
      "outputs": [
        {
          "internalType": "bool",
          "name": "",
          "type": "bool"
        }
      ],
      "stateMutability": "nonpayable",
      "type": "function"
    },
    {
      "inputs": [],
      "name": "getVoters",
      "outputs": [
        {
          "internalType": "address[]",
          "name": "",
          "type": "address[]"
        }
      ],
      "stateMutability": "nonpayable",
      "type": "function"
    },
    {
      "inputs": [
        {
          "internalType": "uint256",
          "name": "_idProject",
          "type": "uint256"
        }
      ],
      "name": "idcorrect",
      "outputs": [
        {
          "internalType": "bool",
          "name": "",
          "type": "bool"
        }
      ],
      "stateMutability": "nonpayable",
      "type": "function"
    },
    {
      "inputs": [
        {
          "internalType": "uint256",
          "name": "_idProject",
          "type": "uint256"
        }
      ],
      "name": "showcurrentVotes",
      "outputs": [
        {
          "internalType": "uint256",
          "name": "",
          "type": "uint256"
        }
      ],
      "stateMutability": "nonpayable",
      "type": "function"
    },
    {
      "inputs": [],
      "name": "returnVotingWinner",
      "outputs": [
        {
          "internalType": "bool",
          "name": "",
          "type": "bool"
        }
      ],
      "stateMutability": "nonpayable",
      "type": "function"
    },
    {
      "inputs": [],
      "name": "getVotingWinner",
      "outputs": [
        {
          "internalType": "uint256",
          "name": "",
          "type": "uint256"
        }
      ],
      "stateMutability": "nonpayable",
      "type": "function"
    }
  ],
  "bytecode": "0x608060405234801561001057600080fd5b50600060058190555060006001819055506000600281905550610ea9806100386000396000f3fe608060405234801561001057600080fd5b50600436106100b45760003560e01c80639bfacba3116100715780639bfacba3146101c7578063ac62f566146101e5578063b7c6670e14610215578063cdd7225314610245578063e1af230614610263578063fa8e6d581461026d576100b4565b806324bcf0b3146100b957806335875a56146100e9578063552f6f6814610119578063564a59221461014957806373d814eb1461017957806394bec071146101a9575b600080fd5b6100d360048036038101906100ce9190610923565b61029d565b6040516100e0919061095f565b60405180910390f35b61010360048036038101906100fe9190610923565b6102b5565b604051610110919061095f565b60405180910390f35b610133600480360381019061012e9190610923565b6102d7565b604051610140919061095f565b60405180910390f35b610163600480360381019061015e9190610923565b6102fb565b6040516101709190610995565b60405180910390f35b610193600480360381019061018e9190610a0e565b610359565b6040516101a09190610995565b60405180910390f35b6101b1610457565b6040516101be919061095f565b60405180910390f35b6101cf610461565b6040516101dc9190610995565b60405180910390f35b6101ff60048036038101906101fa9190610923565b61060d565b60405161020c9190610a5d565b60405180910390f35b61022f600480360381019061022a9190610923565b61064c565b60405161023c9190610995565b60405180910390f35b61024d610749565b60405161025a9190610b36565b60405180910390f35b61026b6107d7565b005b61028760048036038101906102829190610cb1565b61083d565b6040516102949190610995565b60405180910390f35b60046020528060005260406000206000915090505481565b6000806004600084815260200190815260200160002054905080915050919050565b600081815481106102e757600080fd5b906000526020600020016000915090505481565b600080600090505b600080549050811015610352576000818154811061032457610323610cfa565b5b9060005260206000200154830361033f576001915050610354565b808061034a90610d58565b915050610303565b505b919050565b600060011515610368846102fb565b1515146103aa576040517f08c379a00000000000000000000000000000000000000000000000000000000081526004016103a190610dfd565b60405180910390fd5b6000600460008581526020019081526020016000205490506001816103cf9190610e1d565b90508060046000868152602001908152602001600020819055506003839080600181540180825580915050600190039060005260206000200160009091909190916101000a81548173ffffffffffffffffffffffffffffffffffffffff021916908373ffffffffffffffffffffffffffffffffffffffff160217905550600191505092915050565b6000600754905090565b600080600080549050905060008167ffffffffffffffff81111561048857610487610b6e565b5b6040519080825280602002602001820160405280156104b65781602001602082028036833780820191505090505b50905060008080600090505b60008054905081101561053e5760008082815481106104e4576104e3610cfa565b5b906000526020600020015490506000600460008381526020019081526020016000205490508086848151811061051d5761051c610cfa565b5b6020026020010181815250505050808061053690610d58565b9150506104c2565b5060005b60008054905081101561058d57600084828151811061056457610563610cfa565b5b60200260200101519050808411610579578093505b50808061058590610d58565b915050610542565b5060005b6000805490508110156105dc5760008482815181106105b3576105b2610cfa565b5b602002602001015190508084036105c8578192505b5080806105d490610d58565b915050610591565b50600081815481106105f1576105f0610cfa565b5b9060005260206000200154600781905550600194505050505090565b6003818154811061061d57600080fd5b906000526020600020016000915054906101000a900473ffffffffffffffffffffffffffffffffffffffff1681565b60006001151561065b836102fb565b15151461069d576040517f08c379a000000000000000000000000000000000000000000000000000000000815260040161069490610dfd565b60405180910390fd5b6000600460008481526020019081526020016000205490506001816106c29190610e1d565b90508060046000858152602001908152602001600020819055506003339080600181540180825580915050600190039060005260206000200160009091909190916101000a81548173ffffffffffffffffffffffffffffffffffffffff021916908373ffffffffffffffffffffffffffffffffffffffff1602179055506001915050919050565b606060038054806020026020016040519081016040528092919081815260200182805480156107cd57602002820191906000526020600020905b8160009054906101000a900473ffffffffffffffffffffffffffffffffffffffff1673ffffffffffffffffffffffffffffffffffffffff1681526020019060010190808311610783575b5050505050905090565b600080600090505b6000805490508110156108395760008181548110610800576107ff610cfa565b5b9060005260206000200154915060006004600084815260200190815260200160002081905550808061083190610d58565b9150506107df565b5050565b6000816000908051906020019061085592919061086f565b5081516006819055506108666107d7565b60019050919050565b8280548282559060005260206000209081019282156108ab579160200282015b828111156108aa57825182559160200191906001019061088f565b5b5090506108b891906108bc565b5090565b5b808211156108d55760008160009055506001016108bd565b5090565b6000604051905090565b600080fd5b600080fd5b6000819050919050565b610900816108ed565b811461090b57600080fd5b50565b60008135905061091d816108f7565b92915050565b600060208284031215610939576109386108e3565b5b60006109478482850161090e565b91505092915050565b610959816108ed565b82525050565b60006020820190506109746000830184610950565b92915050565b60008115159050919050565b61098f8161097a565b82525050565b60006020820190506109aa6000830184610986565b92915050565b600073ffffffffffffffffffffffffffffffffffffffff82169050919050565b60006109db826109b0565b9050919050565b6109eb816109d0565b81146109f657600080fd5b50565b600081359050610a08816109e2565b92915050565b60008060408385031215610a2557610a246108e3565b5b6000610a338582860161090e565b9250506020610a44858286016109f9565b9150509250929050565b610a57816109d0565b82525050565b6000602082019050610a726000830184610a4e565b92915050565b600081519050919050565b600082825260208201905092915050565b6000819050602082019050919050565b610aad816109d0565b82525050565b6000610abf8383610aa4565b60208301905092915050565b6000602082019050919050565b6000610ae382610a78565b610aed8185610a83565b9350610af883610a94565b8060005b83811015610b29578151610b108882610ab3565b9750610b1b83610acb565b925050600181019050610afc565b5085935050505092915050565b60006020820190508181036000830152610b508184610ad8565b905092915050565b600080fd5b6000601f19601f8301169050919050565b7f4e487b7100000000000000000000000000000000000000000000000000000000600052604160045260246000fd5b610ba682610b5d565b810181811067ffffffffffffffff82111715610bc557610bc4610b6e565b5b80604052505050565b6000610bd86108d9565b9050610be48282610b9d565b919050565b600067ffffffffffffffff821115610c0457610c03610b6e565b5b602082029050602081019050919050565b600080fd5b6000610c2d610c2884610be9565b610bce565b90508083825260208201905060208402830185811115610c5057610c4f610c15565b5b835b81811015610c795780610c65888261090e565b845260208401935050602081019050610c52565b5050509392505050565b600082601f830112610c9857610c97610b58565b5b8135610ca8848260208601610c1a565b91505092915050565b600060208284031215610cc757610cc66108e3565b5b600082013567ffffffffffffffff811115610ce557610ce46108e8565b5b610cf184828501610c83565b91505092915050565b7f4e487b7100000000000000000000000000000000000000000000000000000000600052603260045260246000fd5b7f4e487b7100000000000000000000000000000000000000000000000000000000600052601160045260246000fd5b6000610d63826108ed565b91507fffffffffffffffffffffffffffffffffffffffffffffffffffffffffffffffff8203610d9557610d94610d29565b5b600182019050919050565b600082825260208201905092915050565b7f6964206e6f742076616c69640000000000000000000000000000000000000000600082015250565b6000610de7600c83610da0565b9150610df282610db1565b602082019050919050565b60006020820190508181036000830152610e1681610dda565b9050919050565b6000610e28826108ed565b9150610e33836108ed565b9250827fffffffffffffffffffffffffffffffffffffffffffffffffffffffffffffffff03821115610e6857610e67610d29565b5b82820190509291505056fea2646970667358221220b508c7c63941e48b60d8078399638a7c70cf5b8a519a8c0038d1fa230ba2590d64736f6c634300080d0033",
  "immutableReferences": {},
  "source": "// SPDX-License-Identifier: MIT\r\npragma solidity = 0.8.13; \r\n\r\nimport \"@openzeppelin/contracts/token/ERC20/IERC20.sol\";\r\n\r\nimport \"./IVoting.sol\"; \r\n\r\n\r\ncontract Voting is IVoting{\r\n    //variables \r\n    uint[] public projectids; //could also be accounts? \r\n    uint numberofdonators; \r\n    uint countervoters; \r\n    address[] public donators;\r\n    mapping(uint => uint) public votesofprojects; \r\n    uint currentCTBalance; \r\n    uint numberofprojects; \r\n    uint winnerproject; \r\n\r\n    //projectid for vote must be within projects \r\n    \r\n\r\n    //constructor with donationspool\r\n    constructor () { \r\n        currentCTBalance = 0; \r\n        numberofdonators = 0; \r\n        countervoters = 0; \r\n    }\r\n\r\n   \r\n    function setProjectIds(uint[] memory _projectids) external returns(bool){\r\n        projectids = _projectids; \r\n        numberofprojects = _projectids.length; \r\n        emptyBallot();\r\n        return true; \r\n    }\r\n   \r\n    //reminder: ask for key to get value! \r\n    //puts ids as keys with initial value into mapping \r\n    function emptyBallot() public {\r\n        uint temprojectid; \r\n        for (uint i=0; i<projectids.length; i++){\r\n            temprojectid = projectids[i]; \r\n            votesofprojects[temprojectid] = 0; \r\n        }\r\n    }\r\n\r\n    //function to call from other crontract and set right address as voter\r\n    function doVote(uint _idProject, address voter) external returns(bool){\r\n        require (idcorrect(_idProject) == true, \"id not valid\"); \r\n        uint tempVote = votesofprojects[_idProject]; \r\n        tempVote = tempVote + 1; \r\n        votesofprojects[_idProject] = tempVote;\r\n        donators.push(voter); \r\n        return true; \r\n    }\r\n\r\n    function receiveVote(uint _idProject) external returns(bool) { \r\n        require (idcorrect(_idProject) == true, \"id not valid\"); \r\n        uint tempVote = votesofprojects[_idProject]; \r\n        tempVote = tempVote + 1; \r\n        votesofprojects[_idProject] = tempVote;\r\n        //burn CT of sender or transferFrom since its interface?\r\n        //IERC20(0xD7ACd2a9FD159E69Bb102A1ca21C9a3e3A5F771B).transferFrom(msg.sender, address(this),1);\r\n        donators.push(msg.sender); \r\n        return true; \r\n\r\n        //send donators address to donations pool and transfer CT back to Spendenpool? \r\n        //currentCTBalance = IERC20(0xD7ACd2a9FD159E69Bb102A1ca21C9a3e3A5F771B).balanceOf(address(this)); \r\n    }\r\n\r\n    //function to get the updated voters? \r\n    function getVoters() external returns(address[] memory){\r\n        return donators; \r\n    }\r\n\r\n    function idcorrect(uint _idProject) public returns(bool) {\r\n        for (uint i=0; i<projectids.length; i++){\r\n            if (_idProject == projectids[i]) return true; \r\n        }\r\n    }\r\n\r\n    function showcurrentVotes(uint _idProject) external returns(uint) {\r\n        uint currentVote; \r\n        currentVote = votesofprojects[_idProject]; \r\n        return currentVote; \r\n    }\r\n    //cant iterate trough mapping -> first get votes in array, get highest vote with id, get project id \r\n    function returnVotingWinner() external returns (bool) {\r\n        uint tempArraySize = projectids.length; \r\n        uint[] memory VotesArray = new uint[](tempArraySize);\r\n        uint mostVotes = 0; \r\n        uint idofproject; \r\n        for (uint i=0; i<projectids.length; i++){\r\n            uint tempKey = projectids[i]; \r\n            uint tempKeyVote = votesofprojects[tempKey]; \r\n            VotesArray[i] = tempKeyVote; \r\n        }\r\n        for (uint i=0; i<projectids.length; i++){\r\n            uint tempVote = VotesArray[i]; \r\n            if (mostVotes <= tempVote) mostVotes = tempVote; //what to do if same vote? \r\n        }\r\n        for (uint i=0; i<projectids.length; i++){\r\n            uint tempVote = VotesArray[i]; \r\n            if (mostVotes == tempVote) idofproject = i; \r\n        }\r\n        winnerproject = projectids[idofproject]; \r\n        return true; \r\n    }\r\n\r\n    function getVotingWinner() external returns(uint){\r\n        return winnerproject; \r\n    }\r\n    //give voting to donationspool? Callbackfuntion? \r\n\r\n}",
  "sourcePath": "C:\\Users\\annet\\Documents\\TU BS\\Masterarbeit\\charychaintest\\contracts\\Voting.sol",
  "compiler": {
    "name": "solc",
    "version": "0.8.13+commit.abaa5c0e.Emscripten.clang"
  },
  "schemaVersion": "3.4.7",
  "updatedAt": "2022-06-08T11:10:34.635Z",
  "networkType": "ethereum",
  "devdoc": {
    "kind": "dev",
    "methods": {},
    "version": 1
  },
  "userdoc": {
    "kind": "user",
    "methods": {},
    "version": 1
  }
}