{
  "contractName": "Voting",
  "abi": [
    {
      "inputs": [],
      "stateMutability": "nonpayable",
      "type": "constructor"
    },
    {
      "inputs": [],
      "name": "ctcontract",
      "outputs": [
        {
          "internalType": "address",
          "name": "",
          "type": "address"
        }
      ],
      "stateMutability": "view",
      "type": "function",
      "constant": true
    },
    {
      "inputs": [
        {
          "internalType": "uint256",
          "name": "",
          "type": "uint256"
        }
      ],
      "name": "donators",
      "outputs": [
        {
          "internalType": "address",
          "name": "",
          "type": "address"
        }
      ],
      "stateMutability": "view",
      "type": "function",
      "constant": true
    },
    {
      "inputs": [
        {
          "internalType": "uint256",
          "name": "",
          "type": "uint256"
        }
      ],
      "name": "projectids",
      "outputs": [
        {
          "internalType": "uint256",
          "name": "",
          "type": "uint256"
        }
      ],
      "stateMutability": "view",
      "type": "function",
      "constant": true
    },
    {
      "inputs": [
        {
          "internalType": "uint256",
          "name": "",
          "type": "uint256"
        }
      ],
      "name": "votesofprojects",
      "outputs": [
        {
          "internalType": "uint256",
          "name": "",
          "type": "uint256"
        }
      ],
      "stateMutability": "view",
      "type": "function",
      "constant": true
    },
    {
      "inputs": [
        {
          "internalType": "address",
          "name": "_CTContract",
          "type": "address"
        }
      ],
      "name": "setCTaddress",
      "outputs": [],
      "stateMutability": "nonpayable",
      "type": "function"
    },
    {
      "inputs": [
        {
          "internalType": "uint256[]",
          "name": "_projectids",
          "type": "uint256[]"
        }
      ],
      "name": "setProjectIds",
      "outputs": [
        {
          "internalType": "bool",
          "name": "",
          "type": "bool"
        }
      ],
      "stateMutability": "nonpayable",
      "type": "function"
    },
    {
      "inputs": [],
      "name": "emptyBallot",
      "outputs": [],
      "stateMutability": "nonpayable",
      "type": "function"
    },
    {
      "inputs": [
        {
          "internalType": "uint256",
          "name": "_idProject",
          "type": "uint256"
        }
      ],
      "name": "receiveVote",
      "outputs": [],
      "stateMutability": "nonpayable",
      "type": "function"
    },
    {
      "inputs": [],
      "name": "getVoters",
      "outputs": [
        {
          "internalType": "address[]",
          "name": "",
          "type": "address[]"
        }
      ],
      "stateMutability": "nonpayable",
      "type": "function"
    },
    {
      "inputs": [
        {
          "internalType": "uint256",
          "name": "_idProject",
          "type": "uint256"
        }
      ],
      "name": "idcorrect",
      "outputs": [
        {
          "internalType": "bool",
          "name": "",
          "type": "bool"
        }
      ],
      "stateMutability": "nonpayable",
      "type": "function"
    },
    {
      "inputs": [
        {
          "internalType": "uint256",
          "name": "_idProject",
          "type": "uint256"
        }
      ],
      "name": "showcurrentVotes",
      "outputs": [
        {
          "internalType": "uint256",
          "name": "",
          "type": "uint256"
        }
      ],
      "stateMutability": "nonpayable",
      "type": "function"
    },
    {
      "inputs": [],
      "name": "returnVotingWinner",
      "outputs": [
        {
          "internalType": "uint256",
          "name": "",
          "type": "uint256"
        }
      ],
      "stateMutability": "nonpayable",
      "type": "function"
    },
    {
      "inputs": [],
      "name": "getVotingWinner",
      "outputs": [
        {
          "internalType": "uint256",
          "name": "",
          "type": "uint256"
        }
      ],
      "stateMutability": "nonpayable",
      "type": "function"
    }
  ],
  "bytecode": "0x608060405234801561001057600080fd5b50600060068190555060006001819055506000600281905550610fc4806100386000396000f3fe608060405234801561001057600080fd5b50600436106100cf5760003560e01c80639bfacba31161008c578063cdd7225311610066578063cdd722531461023a578063e1af230614610258578063f696cd2414610262578063fa8e6d581461027e576100cf565b80639bfacba3146101d0578063ac62f566146101ee578063b7c6670e1461021e576100cf565b806324bcf0b3146100d45780632fd402671461010457806335875a5614610122578063552f6f6814610152578063564a59221461018257806394bec071146101b2575b600080fd5b6100ee60048036038101906100e9919061097d565b6102ae565b6040516100fb91906109b9565b60405180910390f35b61010c6102c6565b6040516101199190610a15565b60405180910390f35b61013c6004803603810190610137919061097d565b6102ec565b60405161014991906109b9565b60405180910390f35b61016c6004803603810190610167919061097d565b61030e565b60405161017991906109b9565b60405180910390f35b61019c6004803603810190610197919061097d565b610332565b6040516101a99190610a4b565b60405180910390f35b6101ba610390565b6040516101c791906109b9565b60405180910390f35b6101d861039a565b6040516101e591906109b9565b60405180910390f35b6102086004803603810190610203919061097d565b610547565b6040516102159190610a15565b60405180910390f35b6102386004803603810190610233919061097d565b610586565b005b61024261075f565b60405161024f9190610b24565b60405180910390f35b6102606107ed565b005b61027c60048036038101906102779190610b72565b610853565b005b61029860048036038101906102939190610cf8565b610897565b6040516102a59190610a4b565b60405180910390f35b60056020528060005260406000206000915090505481565b600460009054906101000a900473ffffffffffffffffffffffffffffffffffffffff1681565b6000806005600084815260200190815260200160002054905080915050919050565b6000818154811061031e57600080fd5b906000526020600020016000915090505481565b600080600090505b600080549050811015610389576000818154811061035b5761035a610d41565b5b9060005260206000200154830361037657600191505061038b565b808061038190610d9f565b91505061033a565b505b919050565b6000600854905090565b600080600080549050905060008167ffffffffffffffff8111156103c1576103c0610bb5565b5b6040519080825280602002602001820160405280156103ef5781602001602082028036833780820191505090505b50905060008080600090505b60008054905081101561047757600080828154811061041d5761041c610d41565b5b906000526020600020015490506000600560008381526020019081526020016000205490508086848151811061045657610455610d41565b5b6020026020010181815250505050808061046f90610d9f565b9150506103fb565b5060005b6000805490508110156104c657600084828151811061049d5761049c610d41565b5b602002602001015190508084116104b2578093505b5080806104be90610d9f565b91505061047b565b5060005b6000805490508110156105155760008482815181106104ec576104eb610d41565b5b60200260200101519050808403610501578192505b50808061050d90610d9f565b9150506104ca565b506000818154811061052a57610529610d41565b5b906000526020600020015460088190555060085494505050505090565b6003818154811061055757600080fd5b906000526020600020016000915054906101000a900473ffffffffffffffffffffffffffffffffffffffff1681565b6000600460009054906101000a900473ffffffffffffffffffffffffffffffffffffffff1673ffffffffffffffffffffffffffffffffffffffff166370a08231336040518263ffffffff1660e01b81526004016105e39190610a15565b602060405180830381865afa158015610600573d6000803e3d6000fd5b505050506040513d601f19601f820116820180604052508101906106249190610dfc565b905060018114610669576040517f08c379a000000000000000000000000000000000000000000000000000000000815260040161066090610eac565b60405180910390fd5b6001151561067683610332565b1515146106b8576040517f08c379a00000000000000000000000000000000000000000000000000000000081526004016106af90610f18565b60405180910390fd5b6000600560008481526020019081526020016000205490506001816106dd9190610f38565b90508060056000858152602001908152602001600020819055506003339080600181540180825580915050600190039060005260206000200160009091909190916101000a81548173ffffffffffffffffffffffffffffffffffffffff021916908373ffffffffffffffffffffffffffffffffffffffff160217905550505050565b606060038054806020026020016040519081016040528092919081815260200182805480156107e357602002820191906000526020600020905b8160009054906101000a900473ffffffffffffffffffffffffffffffffffffffff1673ffffffffffffffffffffffffffffffffffffffff1681526020019060010190808311610799575b5050505050905090565b600080600090505b60008054905081101561084f576000818154811061081657610815610d41565b5b9060005260206000200154915060006005600084815260200190815260200160002081905550808061084790610d9f565b9150506107f5565b5050565b80600460006101000a81548173ffffffffffffffffffffffffffffffffffffffff021916908373ffffffffffffffffffffffffffffffffffffffff16021790555050565b600081600090805190602001906108af9291906108c9565b5081516007819055506108c06107ed565b60019050919050565b828054828255906000526020600020908101928215610905579160200282015b828111156109045782518255916020019190600101906108e9565b5b5090506109129190610916565b5090565b5b8082111561092f576000816000905550600101610917565b5090565b6000604051905090565b600080fd5b600080fd5b6000819050919050565b61095a81610947565b811461096557600080fd5b50565b60008135905061097781610951565b92915050565b6000602082840312156109935761099261093d565b5b60006109a184828501610968565b91505092915050565b6109b381610947565b82525050565b60006020820190506109ce60008301846109aa565b92915050565b600073ffffffffffffffffffffffffffffffffffffffff82169050919050565b60006109ff826109d4565b9050919050565b610a0f816109f4565b82525050565b6000602082019050610a2a6000830184610a06565b92915050565b60008115159050919050565b610a4581610a30565b82525050565b6000602082019050610a606000830184610a3c565b92915050565b600081519050919050565b600082825260208201905092915050565b6000819050602082019050919050565b610a9b816109f4565b82525050565b6000610aad8383610a92565b60208301905092915050565b6000602082019050919050565b6000610ad182610a66565b610adb8185610a71565b9350610ae683610a82565b8060005b83811015610b17578151610afe8882610aa1565b9750610b0983610ab9565b925050600181019050610aea565b5085935050505092915050565b60006020820190508181036000830152610b3e8184610ac6565b905092915050565b610b4f816109f4565b8114610b5a57600080fd5b50565b600081359050610b6c81610b46565b92915050565b600060208284031215610b8857610b8761093d565b5b6000610b9684828501610b5d565b91505092915050565b600080fd5b6000601f19601f8301169050919050565b7f4e487b7100000000000000000000000000000000000000000000000000000000600052604160045260246000fd5b610bed82610ba4565b810181811067ffffffffffffffff82111715610c0c57610c0b610bb5565b5b80604052505050565b6000610c1f610933565b9050610c2b8282610be4565b919050565b600067ffffffffffffffff821115610c4b57610c4a610bb5565b5b602082029050602081019050919050565b600080fd5b6000610c74610c6f84610c30565b610c15565b90508083825260208201905060208402830185811115610c9757610c96610c5c565b5b835b81811015610cc05780610cac8882610968565b845260208401935050602081019050610c99565b5050509392505050565b600082601f830112610cdf57610cde610b9f565b5b8135610cef848260208601610c61565b91505092915050565b600060208284031215610d0e57610d0d61093d565b5b600082013567ffffffffffffffff811115610d2c57610d2b610942565b5b610d3884828501610cca565b91505092915050565b7f4e487b7100000000000000000000000000000000000000000000000000000000600052603260045260246000fd5b7f4e487b7100000000000000000000000000000000000000000000000000000000600052601160045260246000fd5b6000610daa82610947565b91507fffffffffffffffffffffffffffffffffffffffffffffffffffffffffffffffff8203610ddc57610ddb610d70565b5b600182019050919050565b600081519050610df681610951565b92915050565b600060208284031215610e1257610e1161093d565b5b6000610e2084828501610de7565b91505092915050565b600082825260208201905092915050565b7f646f6e61746f7220686173206e6f2043542c206e6f20766f74696e6720706f7360008201527f7369626c65000000000000000000000000000000000000000000000000000000602082015250565b6000610e96602583610e29565b9150610ea182610e3a565b604082019050919050565b60006020820190508181036000830152610ec581610e89565b9050919050565b7f6964206e6f742076616c69640000000000000000000000000000000000000000600082015250565b6000610f02600c83610e29565b9150610f0d82610ecc565b602082019050919050565b60006020820190508181036000830152610f3181610ef5565b9050919050565b6000610f4382610947565b9150610f4e83610947565b9250827fffffffffffffffffffffffffffffffffffffffffffffffffffffffffffffffff03821115610f8357610f82610d70565b5b82820190509291505056fea2646970667358221220e0dd9a4da8e563757357c352024c01ca12617a7a23c9faa14fabab766befd10264736f6c634300080d0033",
  "immutableReferences": {},
  "source": "// SPDX-License-Identifier: MIT\r\npragma solidity = 0.8.13; \r\n\r\nimport \"@openzeppelin/contracts/token/ERC20/IERC20.sol\";\r\n\r\nimport \"./IVoting.sol\"; \r\n\r\n\r\ncontract Voting is IVoting{\r\n    //variables \r\n    uint[] public projectids; //could also be accounts? \r\n    uint numberofdonators; \r\n    uint countervoters; \r\n    address[] public donators;\r\n    address public ctcontract; \r\n    mapping(uint => uint) public votesofprojects; \r\n    uint currentCTBalance; \r\n    uint numberofprojects; \r\n    uint winnerproject; \r\n\r\n    //projectid for vote must be within projects \r\n    \r\n\r\n    //constructor with donationspool\r\n    constructor () { \r\n        currentCTBalance = 0; \r\n        numberofdonators = 0; \r\n        countervoters = 0; \r\n    }\r\n\r\n    function setCTaddress(address _CTContract) external {\r\n        ctcontract = _CTContract; \r\n    }\r\n\r\n   \r\n    function setProjectIds(uint[] memory _projectids) external returns(bool){\r\n        projectids = _projectids; \r\n        numberofprojects = _projectids.length; \r\n        emptyBallot();\r\n        return true; \r\n    }\r\n   \r\n    //reminder: ask for key to get value! \r\n    //puts ids as keys with initial value into mapping \r\n    function emptyBallot() public {\r\n        uint temprojectid; \r\n        for (uint i=0; i<projectids.length; i++){\r\n            temprojectid = projectids[i]; \r\n            votesofprojects[temprojectid] = 0; \r\n        }\r\n    }\r\n\r\n\r\n    function receiveVote(uint _idProject) public {\r\n        uint tempCTbalance = IERC20(ctcontract).balanceOf(msg.sender); \r\n        require (tempCTbalance == 1, \"donator has no CT, no voting possible\"); \r\n        require (idcorrect(_idProject) == true, \"id not valid\"); \r\n        uint tempVote = votesofprojects[_idProject]; \r\n        tempVote = tempVote + 1; \r\n        votesofprojects[_idProject] = tempVote;\r\n        //burn CT of sender or transferFrom since its interface?\r\n        //IERC20(0xD7ACd2a9FD159E69Bb102A1ca21C9a3e3A5F771B).transferFrom(msg.sender, address(this),1);\r\n        donators.push(msg.sender); \r\n\r\n        //send donators address to donations pool and transfer CT back to Spendenpool? \r\n        //currentCTBalance = IERC20(0xD7ACd2a9FD159E69Bb102A1ca21C9a3e3A5F771B).balanceOf(address(this)); \r\n    }\r\n\r\n    //function to get the updated voters? \r\n    function getVoters() external returns(address[] memory){\r\n        return donators; \r\n    }\r\n\r\n    function idcorrect(uint _idProject) public returns(bool) {\r\n        for (uint i=0; i<projectids.length; i++){\r\n            if (_idProject == projectids[i]) return true; \r\n        }\r\n    }\r\n\r\n    function showcurrentVotes(uint _idProject) external returns(uint) {\r\n        uint currentVote; \r\n        currentVote = votesofprojects[_idProject]; \r\n        return currentVote; \r\n    }\r\n    //cant iterate trough mapping -> first get votes in array, get highest vote with id, get project id \r\n    function returnVotingWinner() public returns (uint) {\r\n        uint tempArraySize = projectids.length; \r\n        uint[] memory VotesArray = new uint[](tempArraySize);\r\n        uint mostVotes = 0; \r\n        uint idofproject; \r\n        for (uint i=0; i<projectids.length; i++){\r\n            uint tempKey = projectids[i]; \r\n            uint tempKeyVote = votesofprojects[tempKey]; \r\n            VotesArray[i] = tempKeyVote; \r\n        }\r\n        for (uint i=0; i<projectids.length; i++){\r\n            uint tempVote = VotesArray[i]; \r\n            if (mostVotes <= tempVote) mostVotes = tempVote; //what to do if same vote? \r\n        }\r\n        for (uint i=0; i<projectids.length; i++){\r\n            uint tempVote = VotesArray[i]; \r\n            if (mostVotes == tempVote) idofproject = i; \r\n        }\r\n        winnerproject = projectids[idofproject]; \r\n        return winnerproject; \r\n    }\r\n\r\n    function getVotingWinner() external returns(uint){\r\n        return winnerproject; \r\n    }\r\n    //give voting to donationspool? Callbackfuntion? \r\n\r\n}",
  "sourcePath": "C:\\Users\\annet\\Documents\\TU BS\\Masterarbeit\\Charychaintest\\contracts\\Voting.sol",
  "compiler": {
    "name": "solc",
    "version": "0.8.13+commit.abaa5c0e.Emscripten.clang"
  },
  "schemaVersion": "3.4.7",
  "updatedAt": "2022-06-04T12:41:48.130Z",
  "networkType": "ethereum",
  "devdoc": {
    "kind": "dev",
    "methods": {},
    "version": 1
  },
  "userdoc": {
    "kind": "user",
    "methods": {},
    "version": 1
  }
}